:020000040100F9
:1020000000008400DD200001E92000018D438000F4
:102010009B4380009D4380009F43800000000000A0
:102020000000000000000000000000006543800088
:10203000F320000100000000F5200001FB21000159
:10204000F720000139380600DD370600E94380003B
:10205000F7200001F7200001574480005D44800014
:10206000F7200001F7200001F7200001F720000110
:10207000734580007B458000C5448000CD448000CE
:10208000F7200001F720000163448000F7200001E1
:10209000F7200001F7200001F7200001F7200001E0
:1020A000F7200001D1370600A1438000F72000018E
:1020B000F7200001F7200001F7200001F7200001C0
:1020C000F7200001F7200001DFF80CD000F052FCEF
:1020D00000480047EF2900010000840006488047BF
:1020E0000648804706480047FEE7FEE7FEE7FEE7B2
:1020F000FEE7FEE7FEE7FEE7E1970001C12B0001E6
:102100003D8700012DE9F05F0546002092469B4681
:1021100088460646814640241BE0284641464746FD
:10212000224600F070FB53465A46C01A914110D324
:1021300011461846224600F057FB2D1A67EB01089E
:102140004F4622460120002100F04EFB17EB00090C
:102150004E41201EA4F10104DFDC484631462A46E8
:102160004346BDE8F09F40EA01039B0703D009E026
:1021700008C9121F08C0042AFAD203E011F8013B73
:1021800000F8013B521EF9D27047D2B201E000F8CC
:10219000012B491EFBD270470022F6E710B513460B
:1021A0000A4604461946FFF7F0FF204610BD421CC0
:1021B00010F8011B0029FBD1801A704730B5044686
:1021C0000020034600E05B1C934203D2E05CCD5C40
:1021D000401BF8D030BD96230022114600F03EBBD4
:1021E0000EB540F2334102910021CDE900110A46BB
:1021F0000B4600F070FB03B000BD7047704770479E
:102200005858524701000000000000000020000163
:10221000002000015998524901010000000000000F
:1022200000000000000000000000000000000000AE
:10223000000000000000000000000000000000009E
:10224000F0B480EA0102D40F4200B2EB410F02D297
:102250000246084611464A0042D0C30DDDB2C1F322
:10226000C752AD1A202D35DAC1F3160141F4000230
:1022700004B15242C5F1200602FA06F12A41104487
:10228000B3EBD05F23D0C4B1012DA0EBC35009DC68
:10229000F0BC4FF0004202EAC352DBB200F500008E
:1022A00000F0DCBA400000F1807000EBC350A0F1F8
:1022B000807040EAD170490009E0490841EAC071E4
:1022C000A0EBC35000F50000400800EBC350F0BC89
:1022D00000F0BBBA6142012202EB4101001BF6E7AC
:1022E000F0BC704781F00041AAE780F00040A7E70A
:1022F00030B480EA010202F0004530F0004221F0E3
:10230000004013D090B1C30DD40DC2F31601C0F339
:102310001600E41A41F4000140F400027D349142B9
:1023200001D3641C00E04900002C02DA30BC00201C
:1023300070474FF400000023914201D3891A0343F0
:1023400040084FEA4101F7D151B1914202D14FF01B
:10235000004105E002D24FF0010101E06FF0010100
:1023600003EBC450284430BC00F06FBA2DE9FE4F97
:10237000804681EA0300C00F0C46009021F0004126
:1023800023F00045B8EB0200A94105D240462146A2
:1023900090461C460B46024623F00040104347D0AF
:1023A000270DC7F30A00C3F30A510290401A0190A7
:1023B00040286BDAC3F3130040F4801B0098924668
:1023C00020B10023D2EB030A63EB0B0B01985946B3
:1023D000C0F14002504600F007FA06460D4650464E
:1023E0005946019A00F01FFA10EB080061410024E1
:1023F00087EA115284EAE7731A4340D0009A62B325
:10240000019A012A4FEA075215DC001B61EB020119
:102410004FF0004202EA0752CDE90042001C41F5AC
:10242000801132462B4600F056FA03B0BDE8F08F1B
:1024300040462146F9E7001B61EB0201001C41F513
:10244000801300185B412018A2F5001747EB030129
:1024500040EAD570B6196D4111E06D084FEA3606B5
:1024600045EAC0754FEA0752001B61EB0201001CF0
:1024700041F5801149084FEA3000001951413246B8
:102480002B4603B0BDE8F04F00F016BA00980122C9
:1024900040000023D0EB020263EBE073009821467A
:1024A0004FEAE074B8EB000061EB0401E9E783F068
:1024B00000435BE781F0004158E72DE9FE4F81EAD8
:1024C000030404F0004421F0004100944FF0000B9D
:1024D00023F0004350EA01045ED052EA03045BD0CB
:1024E000C3F30A54C1F30A552C44A4F2F334019403
:1024F000A0FB0254C1F3130141F48011C3F3130391
:1025000043F4801301FB024400FB034E840A970A44
:1025100044EA815447EA8357A4FB076802958D0A71
:1025200005FB07854FEA932C04FB0C542705029DFD
:102530004FEA065847EA1637B5EB08056EEB070C6D
:10254000870E920E47EA811742EA8312A7FB020127
:10255000B6EB0B0164EB00042B0D43EA0C335E1861
:1025600044EB1C50DA465146E7FB0201C5F3130465
:102570004FEA0B3343EA14534FEA0432019C43EA17
:102580000603A4F10C040294009CCDE900B400F011
:10259000A2F903B0BDE8F08F00200146F9E72DE96C
:1025A000F04D81EA030404F0004B21F0004514468D
:1025B0004FF0000A23F0004150EA050220D054EA0F
:1025C00001021DD0C5F30A570246C5F31303C1F338
:1025D0001300C1F30A5640F4801543F48013A7EBAF
:1025E0000608101BD64608F2FD3873EB050002D32F
:1025F00008F1010801E092185B41B8F1000F03DA1D
:1026000000200146BDE8F08D00204FF48011064601
:1026100084460EE0171B73EB050705D3121B63EB13
:10262000050306434CEA010C49084FEA30009218B2
:102630005B4150EA0107EDD152EA030012D082EA71
:10264000040083EA0501084305D0101BAB4106D204
:102650000122002306E000224FF0004302E06FF069
:10266000010253101AEB06004CEB085110EB0A0064
:1026700041EB0B01BDE8F04D00F01EB90EB540F284
:10268000334202920022CDE90022134600F023F9E2
:1026900003B000BD20F00040C10DC0F3160040F4AF
:1026A00000007F2901DA00207047962903DCC1F180
:1026B0009601C840704796398840704770B5C1F39D
:1026C0000A5201F000450024C1F3130140F2FF3328
:1026D00041F480119A4201DA002070BD40F2334388
:1026E0009A42A2F2334203DC524200F08CF800E03E
:1026F00090402C43F1D0404270BDC1F30A5210B556
:10270000C1F3130140F2FF3341F480119A4201DA20
:10271000002010BD40F233439A42A2F2334203DC60
:10272000524200F070F810BD904010BDC1F30A5243
:10273000C1F3130140F2FF3341F480119A4202DAEF
:1027400000200146704740F233439A42A2F23342DE
:1027500002DC524200F057B800F046B830B5041E13
:1027600071F1000404DB4FF00044404264EB0101CE
:10277000141E73F1000405DB1C464FF00043524267
:1027800063EB04038B4208BF824230BD30B5041EA8
:1027900071F1000404DB4FF00044404264EB01019E
:1027A000141E73F1000405DB1C464FF00043524237
:1027B00063EB0403994208BF904230BD30B50B462D
:1027C000014600202022012409E021FA02F59D4261
:1027D00005D303FA02F5491B04FA02F52844151E35
:1027E000A2F10102F1DC30BD202A04DB203A00FA1C
:1027F00002F1002070479140C2F1200320FA03F358
:10280000194390407047202A04DB203A21FA02F055
:102810000021704721FA02F3D040C2F1200291401A
:10282000084319467047202A06DBCB17203A41FAA5
:1028300002F043EAE07306E041FA02F3D040C2F14D
:10284000200291400843194670470029A8BF7047ED
:10285000401C490008BF20F00100704710B4B0FAD6
:1028600080FC00FA0CF050EA010404BF10BC704771
:1028700049B1CCF1200421FA04F411FA0CF118BF8B
:10288000012121430843A3EB0C01CB1D4FEA00615A
:102890004FEA102042BF002010BC704700EBC3502D
:1028A00010440029A4BF10BC7047401C490008BF59
:1028B00020F0010010BC704710B5141E73F1000425
:1028C00008DA401C41F1000192185B411A4301D122
:1028D00020F0010010BD2DE9F04D92469B4611B14C
:1028E000B1FA81F202E0B0FA80F220329046FFF7AE
:1028F0007BFF04460F4640EA0A0041EA0B015346BB
:102900005A46084313D0114653EA010019D0C8F1C2
:1029100040025046FFF777FF05460E46504659469F
:102920004246FFF761FF084305D0012004E020463E
:102930003946BDE8F08D0020054346EAE0762C4399
:1029400037430A986305E40AA0EB08000022FD0A59
:1029500044EA47540A3002D500200146E9E7010560
:1029600010196941DDE9084500196941BDE8F04DDC
:10297000A2E70000064C074D06E0E06840F00103C6
:1029800094E8070098471034AC42F6D3FFF7A0FB59
:10299000BCA700010CA8000170B58C1810F8015BF1
:1029A00015F0070301D110F8013B2A1106D110F8E8
:1029B000012B03E010F8016B01F8016B5B1EF9D1EC
:1029C0002B0705D40023521E0DD401F8013BFAE772
:1029D00010F8013BCB1A921C03E013F8015B01F8DD
:1029E000015B521EF9D5A142D8D3002070BD10B5AD
:1029F00007F038F9BDE8104005F032BD10B51E48AB
:102A00000068002800D080471C4900200870811E03
:102A10001B4801601B494FF0007008601A4CD4F845
:102A2000C002800704D4F42218A11DA003F420F4EE
:102A30002A480168D4F8C40261F31D3040F0010057
:102A4000C4F8C40203F413F300214FF03040C16016
:102A50008161C1174161016203F4CAF2084840383C
:102A6000016821F4800101601D480068002802D03F
:102A7000BDE81040004710BD602480007042800017
:102A800044C500A080E200E000E000A07277697019
:102A90005F736C6565705F636F6D6D6F6E2E630045
:102AA0004D43555F5355422D3E424C455F44534C78
:102AB0004545505F434F52525F454E2026204D43BF
:102AC000555F5355425F424C455F44534C4545501A
:102AD0005F434F52525F48575F454E005424800079
:102AE0006424800000214FF03040C1608161C11733
:102AF000416101620649022004220A60BFF34F8F40
:102B0000BFF36F8F0860BFF34F8FBFF36F8F7047B6
:102B100080E100E004490220C1F800010860BFF331
:102B20004F8FBFF36F8F704780E100E00249096863
:102B300001F007010170704704C500A030B40628F9
:102B400021D212490A6802F00702824212D00A68B2
:102B50000F4B1A400F4C22430A6000BF00BF00BF5A
:102B600000BF0A681A400C4B024333F8203042EA97
:102B700083420A600849183951F820000749086063
:102B800030BC76F4379230BC7047000004C500A01A
:102B9000F8FFE3FF05000800D4A5000120408000F5
:102BA00004480068044900F0070051F82000034978
:102BB0000860704704C500A0BCA50001204080004B
:102BC0000648016841F4700101600548006800F49E
:102BD0008070002801D106F0D7BD704788ED00E075
:102BE00078C500A00FB4054B10B503A9044A02989C
:102BF00000F028F910BC5DF814FB0000F557000147
:102C0000A44080000FB41CB50246002007AC002988
:102C10000BD0491ECDE90021054B6A462146069896
:102C200000F010F9009A002111701CBC5DF814FB33
:102C3000733500010FB4084B10B504A902AA03981C
:102C400000F000F9044602A9002000F09DFC204697
:102C500010BC5DF814FB0000893500017CB504460A
:102C600000201D46164600290BD0491ECDE9004123
:102C7000044B6A462946304600F0E4F8009A0021E9
:102C800011707CBD73350001002804DB00F1E020E9
:102C900090F80004704700F00F0000F1E02090F879
:102CA000140D704702E008C8121F08C1002AFAD1AB
:102CB0007047002001E001C1121F002AFBD17047BC
:102CC0002DE9FF5F82B00021DDE90430020DDDF85F
:102CD00040B0034318D044F61050A2F2FF324243F2
:102CE0001514119801281FD0A5EB0B00401C5FEABA
:102CF000000A4FF000064E4FDFF83891B0465046BC
:102D000015D5CAF1000413E0119801244AA3012843
:102D100001D16FEA0B010298119AC0E90031C0E9B4
:102D2000024206B0BDE8F09FCBF10000DFE70446A9
:102D30000021404A491842EB0450CDE9001012E04E
:102D4000E00707D032463B4640464946FFF7B5FB11
:102D50008046894632463B4610461946FFF7ADFB92
:102D600006460F466410002CEAD1DDE90401DDE9D6
:102D70000023BAF1000F06DAFFF79FFB42464B46ED
:102D8000FFF79BFB05E0FFF70AFC42464B46FFF7C7
:102D900006FC04460E460022284BFFF7F7FC03D83A
:102DA0004FF0FF30014607E00022254B2046314618
:102DB000FFF7DCFAFFF7BAFC102409E0002C0ADB6D
:102DC0000A220023FFF79EF9039B30321A55641E36
:102DD00050EA0102F2D1641C039AC4F111031444B5
:102DE000119A012A03D0012208430DD10AE00843B9
:102DF00004D000204FF0110B119072E7A3EB0B05EC
:102E00006D1E0DE05B4504DD4FF0000205F101058C
:102E100004E003DA4FF00002A5F10105002AECD02E
:102E200002981199C0E90231C0E9004579E7000034
:102E3000000014400000F03F300000000000F043AC
:102E40000000E03F2DE9FF4F95B09B4689460646BE
:102E500000250FE2252877D100242746F84A0121D2
:102E6000059400E0044316F8013F203B01FA03F00B
:102E70001042F7D130782A2811D06FF02F03307824
:102E8000A0F13002092A16D8059A44F0020402EB98
:102E9000820203EB42021044761C0590EFE759F8DA
:102EA000042B0592002A03DA504244F400540590A2
:102EB00044F00204761C30782E2816D116F8010F43
:102EC00044F004042A280DD06FF02F023078A0F1CE
:102ED0003003092B09D807EB870302EB4303C7181C
:102EE000761CF3E759F8047B761C30786C280FD0F9
:102EF00006DC4C2817D068280DD06A2814D104E0CD
:102F0000742810D07A280FD10DE044F400140AE0A0
:102F100044F4801401E044F440147278824202D1F7
:102F200004F58014761C761C307866280BD013DCF0
:102F3000582877D009DC002875D04528F6D04628D7
:102F4000F4D047281AD19DE118E0632835D06428D1
:102F500079D0652812D195E1702873D008DC6728F4
:102F6000F1D069286FD06E280DD06F2806D1B5E05A
:102F700073282CD0752875D0782874D05A461799A4
:102F800090476D1C75E1C4F30250022809D0032854
:102F90000DD0D9F8001004280DD00D6009F10409F6
:102FA00067E1D9F80010EA17C1E90052F6E7D9F84D
:102FB00000100D80F2E70D70F0E719F8041B8DF892
:102FC000001000208DF80100EA46012003E059F8C6
:102FD00004AB4FF0FF3061074FF0000102D40DE069
:102FE00008F101018846B9420FDA8045F8DB1AF88A
:102FF00008100029F4D108E008F101018846814257
:10300000FADB1AF808100029F6D105985B46A0EB08
:10301000080721463846179A00F094FA284400EB36
:10302000080507E04DE029E10DE01AF8010B5A46CA
:1030300017999047B8F10108F7D25B462146384608
:10304000179A13E142E00A220092C4F302524FF0B1
:10305000000A022A08D059F804CB032A4FEAEC717F
:103060000AD00DE029E02AE009F1070121F007026A
:10307000F2E802C1914609E00FFA8CFC4FEAEC71CC
:10308000042A03D14FFA8CFC4FEAEC71002907DACD
:103090000A460021DCF1000C61EB02012D2202E066
:1030A000220504D52B228DF80420012203E0E2073B
:1030B00001D02022F7E7904659E00A2102E01022D1
:1030C0000DE010214FF0000A00910BE010224FF0AC
:1030D000000A44F004040827009203E008224FF09D
:1030E000000A0092C4F30252022A05D059F804CB18
:1030F0000021032A08D009E009F1070121F00702A5
:10310000F2E802C1914605E01FFA8CFC042A01D1C5
:103110000CF0FF0C4FF00008220728D5702806D0CD
:10312000009B83F0100353EA0A0305D00EE040220F
:103130008DF80420012208E05CEA010206D030226A
:103140008DF804208DF8050002229046009B83F044
:10315000080353EA0A030AD15CEA010201D16207BB
:1031600005D530228DF804204FF001087F1E582825
:1031700004D034A003900EA802900DE036A0F9E729
:1031800053466046009AFEF7BDFF84460398825C72
:103190000298401E029002705CEA0100F0D1029891
:1031A00006A9081A00F1200A600702D524F4803429
:1031B00000E00127574502DDA7EB0A0000E00020F0
:1031C00000EB0A01009005984144401A0590E00385
:1031D00006D45B462146179A059800F0B3F90544DA
:1031E000002706E001A85A46C05D179990476D1C5C
:1031F0007F1C4745F6DBE0030CD55B462146179A5A
:10320000059800F09FF9054404E030205A461799CC
:1032100090476D1C0099481E00900029F5DC08E0DD
:10322000029802995A460078491C029117999047D2
:103230006D1CBAF10001AAF1010AF1DC65E10000A0
:10324000092801003031323334353637383961627C
:103250006364656600000000303132333435363740
:1032600038394142434445460000000000F058F917
:103270000544761C307800287FF4ECAD19B0284660
:10328000BDE8F08F620700D4062709F1070222F09B
:10329000070CFCE80223E14603F000485FEA080C53
:1032A00002D00FF2702C0DE05FEA045C02D50FF241
:1032B000682C07E05FEAC47C02D00FF2602C01E0CA
:1032C000AFF2700C4FF0FF3823F00043CDF850C040
:1032D00065280CD006DC452809D046281DD0472893
:1032E0003DD13DE0662818D067287ED138E0002126
:1032F000112F01DB112000E0781CCDE9000106A9A7
:103300000EA8FFF7DDFCDDE90F010E9A0391002105
:10331000009207F1010A04914DE04FF00040009740
:10332000CDE9011006A90EA8FFF7CAFCDDE90F02DE
:1033300003920E9B11990022DDF80CA000930492D9
:1033400011B9791C00EB010AB7EB0A0004D4C0F1F3
:10335000FF3007F1010A0490AAEB0700019044E056
:10336000012F00DA01270021112F01DD112000E0DB
:103370003846CDE9000106A90EA8FFF7A1FCDDE95A
:103380000F010E9A0391002104910092BA46210781
:103390000CD40399514500DA8A46BAF1010F05DDD4
:1033A000009AAAF10101515C302908D0B84202DA32
:1033B00010F1040F06DA0121CDE9011015E0AAF1A0
:1033C0000101E9E7002805DC049901440491AAEB16
:1033D000000102E0411C514500DD8A460499401A73
:1033E000401C01904FF000400290200704D4019847
:1033F000504501DBCDF8048000208DF84F00029885
:103400000DF14F07B0F1004F25D02B200E90029800
:103410004FF0020800280CDA404202902D200E9056
:1034200007E00A210298FFF7C9F93031029007F846
:10343000011DB8F10001A8F10108F2DC0298002892
:10344000EFD1791E0E980870307800F0200040F01F
:10345000450007F8020D12A8C01B00F107081498D8
:10346000007800B1012000EB0A01019801EBE07146
:1034700005984144401A401E0590E00306D45B467F
:103480002146179A059800F05DF8054414980078D5
:1034900018B15A46179990476D1CE00324D55B4636
:1034A0002146179A059800F04DF805441CE0049851
:1034B000002807DBDDE90301884203DD0098405C5A
:1034C000179901E0179930205A469047049805F162
:1034D0000105401C04900198401E019004D12E204B
:1034E0005A46179990476D1CBAF10001AAF1010ADA
:1034F000DDDC05E017F8010B5A46179990476D1C63
:10350000B8F10001A8F10108F4DC5B462146179AE6
:103510000598ABE62D0000002B0000002000000005
:103520002DE9F041044600251E461746880404D4C0
:1035300005E039462020B0476D1C641EF9D52846A9
:10354000BDE8F0812DE9F041044600251E46904675
:10355000C80301D5302700E02027880404D505E002
:1035600041463846B0476D1C641EF9D52846BDE873
:10357000F0814A68002A06D00A68531C0B6010705C
:103580004868401E486070470A68531C0B60107002
:10359000704700002DE9F05F0746894693464FEAE1
:1035A0005B04A2464D465F4EDFF87C81EFF310804E
:1035B000012181F31088D8F8A41221F02001C8F865
:1035C000A41280F31088EFF31080012181F310889A
:1035D000D8F8A01221F02001C8F8A01280F31088BA
:1035E000306820F080403060504830603F20D8F88C
:1035F000001160F30501C8F80011306820F4601074
:1036000040EAC7403060306820F4E02040EA0740DC
:103610003060052F03D1306840F400403060062F41
:1036200003D1306840F480403060306840F400508E
:103630003060306820F060503060306820F00F005B
:1036400040F003003060EFF31080012181F3108817
:10365000344A3832116821F0E04141F08041116074
:1036600080F31088306840F08040306001E0D8F886
:103670000000D8F80401C0F300200028F7D1EFF3D0
:103680001080012181F31088116841F00041116020
:1036900080F3108834E000204FF47A711AE08842F9
:1036A00017D9306820F080403060306840F000402A
:1036B0003060306820F00040306004F03DFB1C4872
:1036C0000168491C016054464D46052078F497D2A4
:1036D0006CE7401CD8F80421C2F30022002ADED097
:1036E000D8F8040100F07F01A14200D92146002052
:1036F00003E0D8F8002004C5401C8842F9D3641ABE
:10370000002CC8D15FEACB7008D0D8F80401C0F310
:1037100000200028F9D0D8F800002880BDE8F05F2C
:1037200004F00ABB08C500A000E000A00A070807D3
:10373000504380002DE9F04107460E464FF0000847
:103740000024274D0BE004EBC40005EB8000801C37
:1037500007223946FEF732FD40B1641CE4B22878F6
:10376000A042F0D8B8F1000F18D102E04FF00108E4
:10377000F8E728780A21B0FBF1F201FB12040A28CD
:1037800001D2401C287004EBC40105EB81003968AC
:10379000C0F80210B988C180B97901722B7811A2E2
:1037A0001021002009F4FAD2307800070BD504EB81
:1037B000C40005EB800006F14601BDE8F0410A3087
:1037C0001C22FEF7D0BC04EBC40005EB800006F120
:1037D0002A01BDE8F0410A301C22FEF7C4BC0000FB
:1037E00038718000523A313A616464206C746B2005
:1037F0006974656D2C206E756D203D2025640A006E
:103800000449896B084004490A78104300220A7071
:1038100070470000002001A0C84080002DE9F04161
:1038200004460D46154F164E0022134620462946E3
:10383000FEF794FF0FD83068C0F34120012808D06C
:10384000786C401C7864306820F4C06040F40070EC
:103850003060BDE8F08100220A4B20462946FEF781
:1038600095FFF6D8306810F4C06FF2D0386C401C69
:103870003864306820F4C0603060EAE7F0408000CF
:103880000CC500A00000244006460F46154672B63F
:103890003846FEF78CFC402801D9402002E038462B
:1038A000FEF785FC80463046FEF781FC402801D9B2
:1038B000402002E03046FEF77AFC04469C21104886
:1038C000FEF76AFC424639460D48FEF74CFC0C48B0
:1038D000224631465C30FEF746FC09484FF0AA31DB
:1038E000016445644FF0BB3181644FF0CC31016518
:1038F0004FF0DD318165002000F004F8FEE70000A4
:103900009C70800030B5ADF20C4D04464FF48061E0
:1039100003A8FEF741FC184D202085F83F0085F8EC
:103920009B003CB12846012C436DC26C09D0022C8F
:103930000CD00FE0104A11A15C3203A8FFF77AF90E
:1039400008E011A103A8FFF775F903E016A103A889
:10395000FFF770F903A90BA2686CCDE90121009073
:1039600018A3054A18A1002000F04CFD00F016FD38
:103970000DF20C4D30BD00009C7080005B45525232
:103980004F525D20257300005B5741524E494E4710
:103990005D20506172616D303A25642C5061726116
:1039A0006D313A25640000005B504152414D5D206D
:1039B000506172616D303A25642C506172616D31D5
:1039C0003A256400000000006170705F61737365E8
:1039D00072742E6300000000014877F44D970000D8
:1039E000A840800006460F4690461D4672B64046E7
:1039F000FEF7DDFB402801D9402002E04046FEF7FB
:103A0000D6FB04469C210D48FEF7C6FB22464146E4
:103A10000A48FEF7A8FB09484FF055310164456498
:103A20004FF066318164C6644FF0773101654765B8
:103A3000C94381650220FFF765FFFEE79C708000A7
:103A40002DE9F04106460F4690461D464046FEF7DA
:103A5000AEFB402801D9402002E04046FEF7A7FB1C
:103A600004469C210D48FEF797FB224641460B4831
:103A7000FEF779FB09484FF01131016445644900B4
:103A80008164C6644FF03331016547654FF04431BE
:103A90008165BDE8F0410120FFF734BF9C708000D4
:103AA0002DE9F041082821D21A4D00EB400005EB2A
:103AB00040142078D0B1EFF31086012080F31088F5
:103AC000201D02F09DF900272770FF2020710020A3
:103AD00000EB400105EB41110978012903D0401C9E
:103AE000C0B20828F4D3082803D00EE00820BDE8AF
:103AF000F081094CB4F9020005F034FA4FF0FF30C0
:103B000060802770032018F494D386F31088002077
:103B1000EDE700008062800084408000082808D221
:103B200000EB4001044800EB4110017809B1001D91
:103B30007047002070470000806280002DE9F04748
:103B40000646894600244FF0FF3847460121002EE3
:103B500067D0307880B101280ED002280CD003281D
:103B60000AD0042808D0052806D0062804D0072843
:103B700002D04046BDE8F087EFF31083012282F3C4
:103B800010882A4D944604EB440205EB421292F849
:103B900000A0BAF1000F03D092F804A082450DD125
:103BA00004EB440005EB401090F82D00022803D0F0
:103BB000274682F800C005E0082403E0641CE4B254
:103BC000082CE0D383F31088082C2AD2DFF860A0F9
:103BD0009AF8000038B98AF800C00321154805F0AA
:103BE00083F9AAF8020004EB440105EB4115307893
:103BF000287105F108002422311DFEF7B4FA0E48A1
:103C000068630E48E86300202864C5F85C900320D0
:103C100018F402D3032018F41DD3281D02F020F954
:103C2000014601B147463846A4E7000080628000A3
:103C300084408000ECA5000111560001915500015F
:103C4000F0B595B00446607F8DF82C000F270C97D7
:103C5000207800281FD008200D904FF480100E907F
:103C600000250F950013109011951295139514953A
:103C700000210BA8FFF762FF21782E4EC1EBC10196
:103C800001EB810106EB8101A1F88400002804DA30
:103C9000042015B0F0BD0620DEE7FFF73FFF2178D6
:103CA000C1EBC10101EB810106EB810108632178C1
:103CB000C1EBC10101EB810106EB8101091DC1626C
:103CC000A07F8DF804002078E8B1092002900397C6
:103CD0004FF400100490C0120590069507950895C2
:103CE00009950A95002101A8FFF728FF2178C1EB6B
:103CF000C10101EB810106EB8101A1F886000028DA
:103D000003DA0420C5E70720E0E7FFF707FF217883
:103D1000C1EBC10101EB810106EB81014863217810
:103D2000C1EBC10101EB810106EB8101091DC162FB
:103D30000020AEE7A46780002DE9F0410546022D82
:103D400020D2C5EBC500274F00EB800007EB8004B5
:103D500094F88800B0B194F86C00216F00F072FA0A
:103D6000002810D194F87800E16F00F06BFA002879
:103D700009D11D48405718F45CD294F86800022815
:103D800003D00AE00820BDE8F081B4F98400FFF711
:103D900087FEB4F98600FFF783FE4FF0000884F831
:103DA000888084F88980EFF31086012080F31088E2
:103DB00097F8880060B997F8140148B90B4DB5F928
:103DC000020005F0CFF84FF0FF30688085F80080E2
:103DD00086F31088FEF713FA201D02F039FA002846
:103DE000D1D1D0E7A4678000F8A500018840800009
:103DF0003EB51A4C0368A34201D1002203E0184CDF
:103E0000A34200D101228DF8001021B1012905D073
:103E1000022909D00DE0806B01900AE0018B408BF4
:103E2000081AADF8040004E0018B408B081AADF8C5
:103E30000400C2EBC2000B4A00EB800002EB8001E1
:103E4000B1F88A30ADF80830002381F8893052F893
:103E50002010002901D0684688473EBD00C300A05D
:103E600000C400A0A4678000007801220649002851
:103E700005D0012806D0022800D14A7070470A7088
:103E80004A7070470A707047B44080002DE9FC47C3
:103E900004460F462678002C04D0022E04D30820B6
:103EA000BDE8FC870520FBE700F098FBD4E905019D
:103EB000CDE90001201D0FC803F022F80028EFD142
:103EC000207F02280BD1EFF31085012080F31088AA
:103ED0002046FFF7B5FE85F310880028E0D1207F4B
:103EE000012806D0244DA85718F496D1A85718F4E5
:103EF000B1D1C6EBC600DFF8849000EB800809EB77
:103F00008805217F05F8681FA07FA870607F687012
:103F10006078E870683D05F16C001822211DFEF7FD
:103F200022F949F8287020340FCC05F108040FC499
:103F30001148001D50F826006860281D02F088F91D
:103F40000028ADD1281D02F0E9F90028A8D10C4CB9
:103F50000126207850B9267007480321143004F058
:103F6000C3FF6080002801DA042099E705F8886F14
:103F70000020687094E70000F8A50001A4678000A5
:103F8000884080002DE9F043ADF50D7D4FF480743D
:103F900021464DA8FEF700F921460DA8FEF7FCF8D2
:103FA0003022324901A8FEF7DEF84FF000088DF804
:103FB00020802F4901A8FFF769FF30B12DA0FEF73F
:103FC00011FE0DF50D7DBDE8F08300204DAF0DAE67
:103FD000385406F80080401CFF28F9D9344D85F884
:103FE0000080A1464B464DAA5521002000F0DAF88A
:103FF00028780028FCD02FA0FEF7F4FD002432A082
:10400000395DFEF7EFFDE043400702D12DA0FEF73A
:10401000E9FD641CFF2CF2D985F8018049460DA802
:10402000FEF7BAF82AA0FEF7DDFD4B460DAA552192
:10403000002000F067F868780028FCD02BA0FEF77D
:10404000D1FD002420A0315DFEF7CCFDE043400708
:1040500002D11CA0FEF7C6FD641CFF2CF2D919A0EA
:10406000FEF7C0FD0020FFF767FEAAE7C8A6000123
:10407000693E00010D0A49324320696E6974696125
:104080006C206661696C65642120506C65617365A4
:1040900020636865636B2074686520696E70757451
:1040A00020706172616D656E74732E0D0A000000E0
:1040B000B4408000493243206D617374657220738F
:1040C000656E643A0D0A00003078253032582000C1
:1040D000493243206D61737465722072656164209A
:1040E00073746172742E0D0A00000000493243207F
:1040F0006D61737465722072656365697665643A93
:104100000D0A000070B50D46114604461A460120FE
:10411000022C16D2A9B1A2B1C4EBC40303EB8304F1
:104120001F4B03EB840494F8883053B194F8683043
:10413000012B06D0A4F88A5094F889601EB10220A1
:1041400070BD042070BD012684F8896094F86B600E
:1041500016B1012E1DD111E013B1022B19D106E0C9
:1041600013460A46201D294602F04AFA11E013467A
:104170000A46201D294602F0E5F90AE013B1022B98
:1041800007D103E0201D02F08DFB02E0201D02F0AC
:1041900011FB18B1002184F8891070BD002070BD9A
:1041A000A467800070B50D46114604461A460120EA
:1041B000022C16D2A9B1A2B1C4EBC40303EB830451
:1041C0001F4B03EB840494F8883053B194F86830A3
:1041D000012B06D0A4F88A5094F889601EB1022001
:1041E00070BD042070BD012684F8896094F86B606E
:1041F00016B1012E1DD111E013B1022B19D106E029
:1042000013460A46201D294602F08AFA11E0134699
:104210000A46201D294602F035FA0AE013B1022BA6
:1042200007D103E0201D02F0FDFB02E0201D02F09B
:1042300087FB18B1002184F8891070BD002070BD83
:10424000A467800010B50C46002805D0012811D0C5
:10425000022813D0062010BD2004000C03D0A1B208
:10426000094801F0A5FF200C0CD0210C074801F0F3
:104270009FFF07E0E0B201F02DFD03E004F01F0016
:1042800002F026FC002010BD000001A0001001A0DB
:1042900010B58EB00C46002C07D040B101282BD0B1
:1042A000022841D006200EB010BD0520FBE7207982
:1042B00007281FD0304951F820000B90A1F12400AD
:1042C000617950F821000C90A0790D9020680104CC
:1042D000090C05D080B20A900AA9284801F0A2FF73
:1042E0002068010C45D0000C0A900AA9244801F06E
:1042F00099FF3EE00720D6E72079072812D01E4913
:10430000203151F820000790A1F13800617950F870
:1043100021000890A07909902078069006A801F065
:104320001BFD26E00720BEE72079C11E032901D826
:104330000720B8E7072809D00F49403151F820007D
:1043400002902079072803D0012002E00120F7E73E
:1043500000200390084861790C3850F8210004903F
:10436000A0790590207800F01F00019001A802F0CC
:10437000F7FB002097E700003CA60001000001A029
:10438000001001A0002806D0002904D0024AD269FA
:10439000002A00D010477047787080000248006AF9
:1043A000002800D0004770477870800070B50D4637
:1043B00016460D4C00280AD00178032911D8012196
:1043C000A17601461A222046FDF7CDFE05E0002029
:1043D000A0761A210448FDF7DFFEE5612662002081
:1043E00070BD012070BD000078708000044A104448
:1043F000807D084201D001207047002070470000F6
:10440000787080002DE9FE4FDDF830B00646924608
:10441000994600240027019702975A480178B14233
:1044200002D2807E00287DD10DF13808CDF80080C1
:10443000EFF311850220FEF727FC01465248006881
:10444000C0F30220401C012282408818C0B280F3D1
:10445000118801213046FFF7C9FF38B14B484C495C
:1044600050F82620204600F0A5F804461C213046CE
:10447000FFF7BCFF00285ED046A24549204600F069
:1044800099F8204484B204213046FFF7AFFFF8B119
:1044900052463F49204600F08DF8204484B208215E
:1044A0003046FFF7A3FF38B13BA23949204600F060
:1044B00081F8204484B20BE010213046FFF796FFCC
:1044C00030B136A23249204600F074F8204484B25C
:1044D00008213046FFF78AFF90B14A462C49204612
:1044E00000F068F8204484B210213046FFF77EFFC8
:1044F00030B12BA22649204600F05CF8204484B25B
:1045000010213046FFF772FF70B15B4626A20521ED
:1045100001A8FEF777FB01AA1D49204600F04AF8E2
:10452000204400E02BE084B220A21949204600F08C
:1045300041F8204484B21648C4F5807120444346B3
:104540000D9AFEF78BFB00974FF48071002804DB77
:104550002044884201DC86B200E00E46B01C88424E
:1045600000D9FE2612A20A49304600F023F8304452
:1045700081B20748FFF706FFE8B280F31188BDE873
:10458000FE8F0000787080000CED00E09440800009
:10459000786F800028000000200000003A00000032
:1045A000204C696E653A0000256C640029200000EB
:1045B0000D0A000030B50546002000290CD0002A65
:1045C0000AD006E02B18FF2B06D8CC54521C401CF6
:1045D00080B21478002CF5D130BD000010B50B4C22
:1045E00047202070607800280ED14FF0E02000694D
:1045F000C00701D102F05CFA01206070BDE81040F4
:104600000321034804F070BC10BD00008C40800002
:104610009CA60001F0B595B0044694F835008DF8DD
:104620002C000F270C970A200D904FF480100E904D
:1046300000250F9500131090119512951395149560
:1046400000210BA8FFF77AFA21784D2211FB02F125
:10465000264E06EB8101A1F89800002802DA04201A
:1046600015B0F0BDFFF75AFA21784D2211FB02F187
:1046700006EB81010863217811FB02F106EB810151
:10468000091DC16294F836008DF804000B200290D9
:1046900003974FF400100490C012059006950795FB
:1046A00008950995A0200A90002101A8FFF746FA75
:1046B00021784D2211FB02F106EB8101A1F89A004D
:1046C000002801DA0420CBE7FFF728FA21784D22F1
:1046D00011FB02F106EB81014863217811FB02F125
:1046E00006EB8101091DC1620020B9E71069800055
:1046F0007CB50224304B02689A4201D1002403E0C9
:104700002E4B9A4200D101248DF800102C4D00222E
:1047100081B101291DD0022932D003293ED00429BC
:1047200007D14D20444355F82410002901D0684694
:1047300088477CBDC06B01904D20444305EB84004D
:1047400080F8302155F824100029F2D068468847B7
:104750007CBD018C408C081AADF80400204600F0A6
:104760004FF94D20444305EB840090F830010028B8
:10477000EED155F824100029EAD0684688477CBD60
:10478000018D408D081AADF804004D20444355F8C2
:1047900024100029F3D0684688477CBD4D2044434F
:1047A00005EB840080F8302155F824100029F4D05E
:1047B000684688477CBD000000C600A000C700A076
:1047C00010698000704700002DE9F8434D21404AF0
:1047D000414302EB8104271D022876D294F89C0005
:1047E000002872D0FFF7FAFE94F89C0001286CD1E3
:1047F00084F8310194F86420012A4DD00025D4E9D1
:1048000003010144207D00F00100C01D0E18606806
:10481000C16FC1F380010029FAD0BAB1DFF8B480CA
:104820006D1C201D02F0BDF9102808D0A068D8F832
:104830000010B1FBF0F07043B5EBC01FF0D904F1EC
:10484000A006304604F05EFD85B21EE0A68CE58C25
:10485000201D1CF467D5A019411BB031201D41F269
:1048600088332A461DF4ABD0E9E730460122694679
:1048700004F056FD6068C16FC1F340010029FAD011
:104880009DF8001001606D1EADB2002DEDD13046D7
:1048900004F038FD0028D4D16068C16FC1F38001F5
:1048A0000029FAD094F8640001280BD0EFF31081AE
:1048B000012080F310883868426842F0820242602A
:1048C00081F31088002084F83101BDE8F8830000EE
:1048D00010698000204080002DE9F04389B0044633
:1048E0000F4615462678002C05D0022E05D3082049
:1048F00009B0BDE8F0830520FAE794F834000128F8
:1049000000D09DB1FFF76AFE242204F11001684631
:10491000FDF729FC211DA06C0EC905F0D7FB00286E
:10492000E6D194F83400022802D010E00420DFE73A
:104930000EB10820DCE7EFF31088012080F3108827
:104940002046FFF767FE88F310880028D0D194F83E
:104950003400DFF8A08001280ED04D20704308EB12
:10496000800006CDA03004F0C1FC234DA85717F4F9
:1049700053D4A85717F46ED44D2206FB02F008EB6F
:10498000800514F8341F814605F8641FA078A870CC
:104990006078343C6870643D05F168003022211D68
:1049A000FDF7E1FB48F8297005F10800182204F131
:1049B0003801FDF7D8FB1048001D50F8260068604C
:1049C000281D02F0D9F8281D02F0F4F80B4C01263E
:1049D000207850B9267008480321143004F084FA76
:1049E0006080002801DA042082E785F89C600020BE
:1049F0007EE7000010698000A8A600018E408000BC
:104A00002DE9F04105464D201F49684301EB800424
:104A100004F1A006304604F075FC82B2174692B14C
:104A200094F8310101280ED04D204543164800EB83
:104A30008505B035802A0BD329463046802204F004
:104A40006FFC802708E0002084F83001BDE8F08189
:104A50002946304604F064FC94F8640018B102283A
:104A600009D00420F2E72946201D3A461DF428D03B
:104A70000028EBD106E02946201D3A461CF4DAD77F
:104A80000028E3D10020E1E71069800070B50546F9
:104A9000022D15D2A1B19AB14D20164B684303EBFC
:104AA000800494F89C0058B194F86400012807D061
:104AB00004F1A00004F078FC94F8300110B117E084
:104AC000042070BD94F8310190B994F89C0001283D
:104AD0000ED16068D0F8980050B1012084F8300100
:104AE0002846FFF78DFF18B1002184F8301170BD02
:104AF000002070BD106980002DE9F04106460C468B
:104B0000174604F10805204670F456D6C3B21B4878
:104B1000E1184268914202DD0320BDE8F0811849A6
:104B2000184A006809681268891A081A001FE918EB
:104B300081421CD94FF4004513A22946002008F4F5
:104B40002DD100F0F1F930B118A22946002008F467
:104B500025D10820E1E71DA22946002008F41ED136
:104B60003A4621463046BDE8F04105F06FBC3A4672
:104B700021463046BDE8F04105F068BCD8328000DF
:104B8000D0238000CC238000523A353A4E5644530D
:104B90002061726561206973206265696E672063B8
:104BA0006F6D7061637465642E0D0A00523A353A78
:104BB000436F6D70616374696E67204E5644532075
:104BC0006661696C65640D0A00000000523A353A6E
:104BD000436F6D70616374696E67204E5644532055
:104BE0007375636365737366756C0D0A000000006E
:104BF0002DE9F0410546884628466BF4A1D2C0B2A3
:104C00002449097888420DD200EB4000213040F45D
:104C100000404246AC2103F0ADFD0446200032D0F6
:104C2000012430E06BF4D0D2C7B207EB470606F19F
:104C3000200040F400402A46072103F09BFD10B1FC
:104C40000120BDE8F081384677F40ED406F121004A
:104C500040F400404246AC2103F08CFD04462000A5
:104C600001D00120EDE7223646F4004072F4CED4A4
:104C70000949C7EBC7000968084429680160A98889
:104C80008180A97981711CB941462846FEF752FD01
:104C90002046D6E7382380003C23800004F072BA17
:104CA00010B5FFF7FBFF054903480860BDE8104059
:104CB000034876F44B96000017B8800474C500A032
:104CC0000087930310B506480068002800D080478D
:104CD00000F432F208B1012010BD002010BD000028
:104CE0007842800070B519480468194D287800286A
:104CF00001D0002070BD4FF0806074F4F9D101F450
:104D00006DF1600875F404D11249086088171149E3
:104D100001262C39086010497006C1F8FC01C867EB
:104D20004FF03041086B40F007000863094C303CFD
:104D3000206840F4E020206001F48DF12E7020689E
:104D400020F4E0202060012070BD00006C24800071
:104D50007042800070C500A084E000E070B50024BF
:104D6000EFF31086012080F3108801F48FF1104DCD
:104D700028B102242968B9B10220884714E0FFF75E
:104D8000A1FF20B1296879B1002088470CE0FFF726
:104D9000A9FF28B10224296831B10220884703E025
:104DA000296809B10020884786F31088204670BD25
:104DB0005C248000034900EB800001EB80008088C8
:104DC0007047000048418000034A00EB800002EB7E
:104DD00080008180704700004841800000B587B0A6
:104DE00000F01EF803208DF800001D208DF816003D
:104DF00001208DF817008DF818008DF81900044A6D
:104E000004496846FFF7D2FAFEF7E6FD07B000BD99
:104E1000194E0001854E00010020FFF7D5BC0000AF
:104E200000B597B0154815904FF480631693002095
:104E30008DF804004FF4E1310F910321109111908E
:104E400012901390012114918DF81400CA02069259
:104E500002228DF815208DF81C108DF808000393A0
:104E60008DF809208DF810108DF8380015AA044926
:104E700001A8FFF731FD17B000BD0000786B80007E
:104E8000C54700010A4601460020FFF7FFBD0000AC
:104E900070B504460D46194E0022194B204629468E
:104EA000FDF75CFC06D2306820F4704040F44050BE
:104EB000306070BD0022134B20462946FDF766FC8A
:104EC0000DD20022134620462946FDF747FC06D2A4
:104ED000306820F4704040F48040306070BD0022A3
:104EE000094B20462946FDF751FCF7D2306820F4E3
:104EF000704040F4A040306070BD000024C500A0A8
:104F0000008040C000003EC00000244010B504F006
:104F10001DFC03F0D3FF04F02BFE00F031FBBDE8D5
:104F2000104004F0FBBA00002DE9F04F87B07B4839
:104F3000D0F8009000240025A246002604F07AFF55
:104F400077480168C9F800104068C9F8040075483E
:104F500000680830059009F108000690042203A9B2
:104F6000059800F0D9FABDF80C10A1F57F40FF3884
:104F700043D0082203A9059800F0CEFABDF80E0030
:104F800070F41AD400F0FF08BDF80C00002867D0B8
:104F90000698A9EB000707F58057BDF80E1008F139
:104FA000080083460844B84263D805AB082203A929
:104FB00006A800F0D7F8BDF80E00002300EB0802A9
:104FC00005A906A804F018F8641CBDF80E005844A2
:104FD000B842C3D10020CDE9006053464A4621467D
:104FE000284605F049F9002826D1824600260024EB
:104FF000CDF818906D1CEDB2B0E70020CDE900604F
:1050000053464A462146284605F036F9002813D172
:105010006D1CECB2434D4FF48057434E08E02868B6
:1050200000EB0430394601F039F840B1641CE4B2B9
:10503000707AA042F3D8002007B0BDE8F08F3B485B
:105040008169407A40F26242CDE900200291384BFA
:1050500038A24FF40041002007F4A0D60920EBE766
:10506000BDF80E00059908F1080808444044059071
:1050700074E7082F29D305AB082203A906A800F07E
:1050800071F8083F2FB100233A4605A906A803F09E
:10509000B3FF611C0020CDE9006053464A46284614
:1050A00005F0EAF80028C7D18246BDF80E0040445A
:1050B000C61B0024CDF818906D1CEDB200233246BB
:1050C00005A906A803F098FF48E705AB3A4603A9EF
:1050D00006A800F047F8611C03A8CDE9006053461C
:1050E0004A46284605F0C8F80028A5D1C7F1080AA5
:1050F000BDF80E0000EB08060024CDF818906D1CDA
:10510000EDB20123524605A906A803F075FF00235E
:10511000324605A906A803F06FFF1FE7844280000E
:10512000ACD50700CC238000D8328000641F8000FB
:1051300086A70001523A353A25732C204C2564206D
:10514000666C6173682073746174652030782530F3
:1051500032582C206572726F7220307825303858A2
:105160000D0A000070B5044615461E462A46206802
:10517000FCF7F9FF3068284430602068284420603C
:1051800070BD000010B50548017B491C017300206B
:1051900074F42CD5BDE8104000F050B8F040800009
:1051A0002DE9FE43FFF77AFD1E48016821F4003126
:1051B00001601C4E083E30681B4980B208433060D5
:1051C0001A4803C8CDE9000116482C380068C821E8
:1051D00000F007001DF8000010FB01F514480768F7
:1051E000144CD4F800803846414600F09FFE6268B7
:1051F0006068831AAB42FBD34146384600F076FE26
:1052000003F0BAFE02909DF8080028B19DF808004E
:10521000094948618861C861306820F07F4030608A
:10522000BDE8FE8330C500A000008F11B854000116
:10523000FCED00E0001000E0F04080002DE9FC41B2
:105240002D4E306820F07F4040F0885030602B4871
:1052500003C8CDE9000128482438006800F00701A0
:105260001DF80100C82110FB01F525480768254CF1
:10527000D4F800803846414600F058FE6268636802
:10528000981AA842FBD34146384600F02FFE00256D
:1052900003F072FE0446DFF87080D8F818008442EC
:1052A00001D9012700E0002774F446D340B91FB1AB
:1052B000D8F81800201A02E0D8F81800001BC5B270
:1052C000D8F81800C8F82000B5EB900F03D8292CA7
:1052D00001D8112C02D200F019F807E000EBC00051
:1052E00020440A21B0FBF1F0C8F81800306820F023
:1052F0007F403060BDE8FC8128C500A0B8540001A3
:10530000FCED00E0001000E0F04080002DE9F04FDF
:1053100087B0002006900824DFF890811A20C8F892
:10532000140063480168634A89B21143016005A80B
:10533000FDF7FCFB0220FDF701FCDFF8749109F199
:105340000809D9F8000020F47C3040F42030C9F876
:10535000000059A003C8CDE90201DFF854A1AAF169
:10536000240ADAF8000002A900F00700085CC8214E
:1053700010FB01F5DFF848B1DBF800000190514F58
:105380003E680198314600F0D1FD78687968091AC5
:10539000A942FBD33146019800F0A8FD03F0ECFDD3
:1053A00004909DF81010D8F81400814204D99DF89B
:1053B0001020811C8A4263D99DF81010814204D2CA
:1053C0009DF81020811E8A425AD29DF81010814209
:1053D00001D9012500E0002515B1641C64B201E08B
:1053E000641E64B2202C11D3D9F8000020F47C3064
:1053F00040F42030C9F80000D8F83C00401CC8F840
:105400003C00002004900120069039E0D9F800000B
:1054100020F47C3040EA043040F40030C9F8000049
:1054200025A003C8CDE90201DAF8000002A900F0C6
:105430000700085C642110FB01F6DBF80000019016
:1054400038680090DDE9001000F070FD7868796838
:10545000091AB142FBD3DDE9001000F047FD03F06B
:105460008BFD049035B19DF81000D8F814108842D7
:10547000B2D805E09DF81000D8F814108842ABD3DC
:105480009DF81400FDF75AFB0948016821F07F419F
:1054900001609DF81000C8F81800D8F82400401CDE
:1054A000C8F82400069807B0BDE8F08FF0408000EF
:1054B00028C500A000008F114030101810200000F7
:1054C000FCED00E0001000E070B504460D460F4E04
:1054D00000220F4B20462946FDF758F908D2D6F88E
:1054E000200220F4706040F44070C6F8200270BDC5
:1054F0000022084B20462946FDF730F9F7D2D6F8AE
:10550000200220F47060C6F8200270BD00E000A008
:1055100000004940000044402DE9F04105460E4698
:105520001746094C2378002B02D0002070F4B8D421
:105530003A463146284600F0F1FD0546207870F4E1
:10554000AFD42846BDE8F081C92380002DE9F041A1
:1055500005460E461746094C2378002B02D0002042
:1055600070F49ED43A463146284600F0E7FD0546E1
:10557000207870F495D42846BDE8F081C9238000D6
:105580000121024A00206AF4EF92000069590001EB
:1055900030B400210D4B01EB410203EB42121478B1
:1055A000012C0DD112790478A24209D101EB4100FE
:1055B00003EB4010C16D002906D030BC0020084725
:1055C000491CC9B20829E6D330BC7047806280000C
:1055D00070B500240C4E04EB440006EB401528780F
:1055E00001280AD1281D12F439D718B1012801D099
:1055F000002070BD281D13F48BD1641CE4B2082C6C
:10560000E9D3012070BD0000806280007047000077
:1056100030B400210D4B01EB410203EB4212147830
:10562000012C0DD112790478A24209D101EB41007D
:1056300003EB4010C16D002906D030BC01200847A3
:10564000491CC9B20829E6D330BC7047806280008B
:1056500010B5104C02220421204602F0F9FD01226F
:105660001021204602F0F4FD02228021204602F0A3
:10567000EFFD02224021204602F0EAFD0222202115
:10568000204602F0E5FD20460222BDE81040082138
:1056900002F0DEBD001001A02DE9FE4F07460D46C9
:1056A00002AA2946384604F08FFC10B10298BDE8E2
:1056B000FE8F029C00260296DFF8688098F80000B2
:1056C00010B1002070F4ECD3DFF85CA04FF6FF7946
:1056D00008226946204600F021FDBDF8000048453B
:1056E00002D12E80029617E0B84206D115B1BDF85E
:1056F00002002880083402940EE0BDF8020070F425
:105700005BD0BDF80210083021444418DAF80000DC
:105710008442DDD32E80029698F8000070F4C0D346
:105720000298C4E7C9238000D023800010B500216F
:10573000084B5A681B8809E052F83140844203D173
:1057400002EBC100406810BD491C89B29942F3D3F5
:1057500010BD0000BC40800010B5884210D8082958
:105760000ED2094B074A5A6006E003EB80029468A8
:1057700044F001049460401C8842F6DD0320186068
:1057800010BD000000400030002000E02DE9F0478F
:10579000164F3868002826D04FF000090024002555
:1057A0000526DFF84C8013E005EB4501012018F8D1
:1057B000212090403A68104208D008EB810322462D
:1057C000D3E90101641CE4B200F01CF86D1CEDB2D9
:1057D000B54201D2062CE7D3641EE1B24846BDE8CB
:1057E000F047FFF7B9BFBDE8F0870000B840800080
:1057F000F8A6000113B501216846FEF7C3FD01209C
:105800001CBD000070B505461446114840F83450E0
:1058100000EBC4004160284600F0CEF80646FF20A9
:1058200000F0CCF8014625F001000A4B850703EB98
:105830008402094B06D0801E906006EB014043F8BD
:10584000240002E0906043F82410204670BD000060
:10585000643D8000002000E0004000300178827844
:105860001144C9B201710846704730B50022427137
:10587000438805E044798D5C2C444471521C92B2FB
:105880009342F7D8407930BD2DE9F04389B0814685
:105890000E4600242546202101A8FCF77DFC0027A8
:1058A000102201A94846FDF775FE002001A900F16C
:1058B000080231F812203A4497B2401CC0B20828BE
:1058C000F5D34FEAD708B9F1050F03D0B9F1060FA8
:1058D00020D03AE07088FCF783FC04460D463088FF
:1058E000FCF77EFC06460F464046FCF779FC324644
:1058F0003B46FCF7DCFD22462B46FCF750FE154AE2
:10590000154BFCF74CFE0022144BFCF7D3FD04466C
:105910000D461AE07088FCF763FC04460D46B0881B
:10592000FCF75EFC06460F464046FCF759FC324643
:105930003B46FCF7BCFD22462B46FCF730FE084AEE
:10594000084BFCF7BAFD04460D4609B0204629462F
:10595000BDE8F08379E9263108AC5CBF000039402E
:10596000B76DDBB66DDB0EC01CB54268012111704E
:1059700000214FF48A2205E012F8013B4468491CDB
:105980006354C9B20829F7D3094906C9CDE9001201
:105990004168009A41F8092F019A4A6002884068DC
:1059A00011216AF4A3D00349002008701CBD000037
:1059B00094A70001482580000088704740F45F40AC
:1059C000704700002DE9F05F04460D46374FDFF8C1
:1059D000E080DFF8E0B04FF0663A4FEA67093648FA
:1059E0000068C0F3C2263A46434620462946FCF7E3
:1059F000B5FE01D2062656E03A46434620462946E1
:105A0000FCF7C4FE0AD852465B4620462946FCF7FE
:105A1000A5FE03D2042E46D0062644E052465B463D
:105A200020462946FCF7B2FE08D80022234B204628
:105A30002946FCF793FE01D8042634E000221F4BD0
:105A400020462946FCF7A2FE0AD24A461C4B2046B5
:105A50002946FCF783FE03D2032E24D0042622E03D
:105A60004A46174B20462946FCF790FE08D80022EC
:105A7000144B20462946FCF771FE01D8032612E09C
:105A80000022104B20462946FCF780FE0AD24A46E7
:105A90000D4B20462946FCF761FE03D2022E02D0B0
:105AA000032600E002263046BDE8F09F9A999999B6
:105AB000999901406666024010C500A000000440AC
:105AC000CCCC044000000840CCCC08402DE9F05F6D
:105AD00004460D46DFF82CA1DFF82081DFF820B165
:105AE0004FF066394FEA4A0747480068C0F3C226BC
:105AF0003A46434620462946FCF730FE01D20726A7
:105B000078E03A46434620462946FCF73FFE0AD84D
:105B10004A465B4620462946FCF720FE03D2052E66
:105B200068D0072666E04A465B4620462946FCF7D1
:105B30002DFE08D80022354B20462946FCF70EFEE4
:105B400001D8052656E00022304B20462946FCF7B6
:105B50001DFE0AD252462E4B20462946FCF7FEFD7A
:105B600003D2042E46D0052644E05246284B204658
:105B70002946FCF70BFE08D80022264B2046294672
:105B8000FCF7ECFD01D8042634E00022214B20462E
:105B90002946FCF7FBFD0AD252461F4B20462946F8
:105BA000FCF7DCFD03D2032E24D0042622E052466B
:105BB000194B20462946FCF7E9FD08D83A46174B11
:105BC00020462946FCF7CAFD01D8032612E03A46D2
:105BD000124B20462946FCF7D9FD0AD24A46104B03
:105BE00020462946FCF7BAFD03D2022E02D0032636
:105BF00000E002263046BDE8F09F00009999014080
:105C000066660240CDCCCCCC10C500A0000004409C
:105C1000CCCC044000000840CCCC084099990D4001
:105C200066660E4005480068C00F002804D004488E
:105C3000007908B1012070470020704740C500A0DE
:105C4000F04080002DE9FE4F81460024002601250A
:105C50008DF80050CDF8049072F44AD701280BD08B
:105C60008DF8085020211A48FCF796FA0025DFF835
:105C70006080A8F5017A25E000208DF80800F1E7A2
:105C80000AEB0517387901281AD1B86810EA090F0C
:105C900016D03A69A2B1002108E058F821009042DC
:105CA00001D1012604E00026491CC9B2A142F4D367
:105CB00036B968469047386948F82400641CE4B255
:105CC0006D1CEDB29AF80000A842D9D8BDE8FE8F4D
:105CD0008467800010B5EFF31084012181F31088F0
:105CE00000F004F884F3108810BD000010B50446DD
:105CF000204602F0BDF8E0B2EFF31081012282F3FA
:105D00001088134A136883430343136081F3108898
:105D10001048446284634FF6FF7000EA0422E0B248
:105D20000B490C390B68104383430B6001230BE0D4
:105D300094FAA4F0B0FA80F203FA02F0621E144062
:105D40000A6822EA00400860002CF1D110BD000072
:105D50005CC500A0002001A070B50546064811F4FE
:105D600095D6EFF31084012181F31088284600F0C6
:105D700005F884F3108870BD8040800000B585B0C0
:105D800001680091017901F003010191816802919C
:105D9000C1680391406800090490684601F0DCFF87
:105DA00005B000BD10B5FF20FDF72AFD80B2002828
:105DB00021D011498863EFF31081012282F310880A
:105DC0000E4A6FEA0043136081F310886FF00401FC
:105DD00011600A4940390968C1F3001139B120281E
:105DE00005D0BDE8104020F0200011F4C795BDE8B3
:105DF000104011F4C39510BD002001A044C500A0BF
:105E000070B50446002C11D0134DD5F8A40220F033
:105E10008000C5F8A402114E2178304602F094F8B3
:105E2000D6F89803C0F3000010B10FE0012070BD58
:105E300005F52875686840F080006860286840F0C3
:105E400080002860A86840F00400A8600020283482
:105E5000A0616070207070BD00E000A0003001A063
:105E600030B58DB00446002C04D094F829000025EC
:105E700018B111E001200DB030BD84F82850194848
:105E8000416821F080014160016821F080010160DA
:105E9000816821F004018160022084F8290001A8B2
:105EA0002EF4D2D760680A90A0680B902069059004
:105EB00060690690A0690790E0690890E068039027
:105EC000206A0490606A0C90217801AA064802F0CA
:105ED000D5F82564012084F8290084F82850002092
:105EE000C9E70000A0E200A0003001A010B5EFF368
:105EF0001083012282F31088094A1468002C02D012
:105F00001468641E146012683AB920F0807021F0A1
:105F10000101044A11600449086083F3108810BD30
:105F2000C4408000001000E0FCED00E010B5EFF38D
:105F30001082012383F31088074B1C68641C1C60CB
:105F4000064B40F08070186041F001000449086081
:105F500082F3108810BD0000C4408000FCED00E01A
:105F6000001000E010B50446002C1DD0207A012856
:105F70001CD0012020721A48006818B1416809B18C
:105F8000204688471748016821F480610160EFF3DB
:105F90001081012080F310881348026822F0020269
:105FA0000260006820B114E0012010BD022010BD85
:105FB0000E48426842F001024260C26842F000723C
:105FC000C260026842F001020260C26842F0807260
:105FD000C26081F310880020E0606072207210BD02
:105FE0008403800014C500A038428000A0E200A015
:105FF00070B50446002C03D023492068884201D0A4
:10600000012070BD207A012805D001252572607A13
:10601000002610B11EE0022070BD26721B480168E8
:1060200021F001010160816821F000718160EFF3CE
:106030001080012181F3108815490A6842F002029C
:106040000A6080F310881348006818B1016809B12C
:1060500020468847022060720F48016841F4806141
:1060600001606068012809D02068016821F480512E
:1060700001603046E6606572207270BD206801687C
:1060800041F480510160F4E7006401A0A4E200A0A3
:10609000384280008403800014C500A010B50B4670
:1060A000024600210348FFF7ACDB08B1002010BD19
:1060B000012010BD641F800038B5022000906846A2
:1060C000FCF734FD114C206880B91148206011495B
:1060D0000160012141608160EB21C1600E499DF8A2
:1060E000002051F8221001610021416175F43ED772
:1060F00008B1012000E00020A072044813F42ED162
:1061000008B1002038BD012038BD0000641F8000A8
:10611000281F800000D000A0D840800010B5144691
:106120000A46014623460448FEF73ED908B100203E
:1061300010BD204610BD0000641F80002DE9F0470F
:10614000C0B081468A4617463B46524649461748E4
:10615000FFF74DDA18BB00243D464FF480784745E1
:1061600001D9464600E03E4609EB040133466A4643
:106170000E48FEF719D990B90AEB04003246694679
:10618000FCF71CF858B9AD1B6DB134444646B54216
:1061900000D82E46BC4202D2A019B842E4D9002051
:1061A00040B0BDE8F0873846FAE70000641F800081
:1061B00070B505460E46074813F492D4EFF31084E9
:1061C000012282F310883146284613F451D484F317
:1061D000108870BD30408000FEB50D460F4A9042D9
:1061E00000D10D0400208DF80000019501208DF8EC
:1061F000080000240A4E0CE006EB0410017931B9C6
:106200008168A94203D102690AB168469047641CBB
:10621000E4B23078A042EFD8FEBD0000001001A02B
:106220008065800070B505460E46074813F458D4C3
:10623000EFF31084012282F310883146284613F4CC
:1062400044D484F3108870BD304080007047000053
:1062500070B50546064814F4FBD5EFF31084012110
:1062600081F31088284600F005F884F3108870BD8B
:106270003440800070B50446002C18D094F83500E6
:106280000025B0B3242084F83500206802F002F81D
:10629000204600F08CFA194A20681949904208D12A
:1062A000D1F8AC0240F48060C1F8AC020AE00120F1
:1062B00070BD144A904205D1D1F8AC0240F40060A0
:1062C000C1F8AC02D1F8A40200050CD5D1F8AC029B
:1062D0000D4A10400D4A824305D1D1F8A40240F482
:1062E0008060C1F8A402A56384F83550656284F823
:1062F000365084F83450002070BD000000C300A068
:1063000000E000A000C400A000FF010A00FF01009F
:106310000021FDF76DBD90F83500704770B505465A
:10632000064814F495D5EFF31084012181F3108809
:10633000284600F005F884F3108870BD34408000D2
:10634000F8B50446002C04D094F83500002510B1AF
:1063500025E00120F8BD84F834505349486820F402
:1063600080604860086820F480600860A1F52871AA
:106370004E4A2068904206D1D1F8AC0220F48060E9
:10638000C1F8AC0208E04A4A904205D1D1F8AC020B
:1063900020F40060C1F8AC02204600F009FA242085
:1063A00084F835002068C16E21F00101C166D4E98E
:1063B0000010404A904201D8022005E03E4A904237
:1063C00001D8042000E006200A6822F006020243F9
:1063D0000A60FCF7E5FB3948616800684208B2FBD7
:1063E000F1F0401E364B994212D2B2FBF1F6226810
:1063F000D2F8A030DBB2F31ADB1F324EB14203D227
:106400005361216888610EE0D361216808620AE067
:10641000B2FBF1F32168D1F8A420D2B29A1AD21FAC
:106420004A6221688862E068012829D0A168206852
:10643000026842F00802026081602068016841F051
:10644000100101602069012827D0206850F8981FAA
:1064500021F0010101602068016C0091016B6FF374
:106460000B0101632068C16E41F00101C166A563A3
:10647000202084F83500656284F836500020F8BD8D
:10648000A1682068026822F008020260816020682A
:10649000016821F010010160D4E7206850F8981FCE
:1064A00041F001010160D6E7A0E200A000C300A016
:1064B00000C400A0A086010040420F0020408000E0
:1064C00080841E00801A060078B40368D96A00220E
:1064D0004C0620D5D3F88020C2F316025C6D0094E0
:1064E00002F4805402F480452C4303D0846B44F0C2
:1064F0000204846390F83540212C06D0446A112CA4
:1065000009D190F83540602C05D1D3F88040E40DD6
:10651000458B2C4444838C0705D59B6C0093836B7F
:1065200043F008038363836B1BB1816B78BC00F07D
:1065300015BD836A002B02D001B070BC184778BC2F
:10654000704770472DE9F0470446884617461D46B8
:1065500094F83500202802D00220BDE8F087EFB380
:10656000E5B3206801F0C8FE01283ED0E06ADFF8FC
:1065700084900178484601F005FE012630B1E06ABA
:106580000078083006FA00F0C9F8A003206B017803
:10659000484601F0F7FD30B1206B0078083006FA6C
:1065A00000F0C9F8A00394F8340001281FD084F843
:1065B0003460222084F83500102084F83600002052
:1065C000A0636761258365830B4820620B48A06246
:1065D0004146204601F09BF8204600E003E0BDE87C
:1065E000F04700F0A3BF0120B7E70220B5E7022083
:1065F000B3E70000003001A00000FFFFC7730001F7
:106600002DE9F04104460F4616461D4694F8350024
:10661000202802D00220BDE8F0812EB325B32068E7
:1066200001F06AFE012821D094F8340001281FD01F
:10663000012084F83400222084F83500102084F8EA
:1066400036000020A063666125836583A583094821
:1066500020620948A0623946204601F058F82046D9
:10666000BDE8F04100F0DABF0120D4E70220D2E714
:106670000220D0E70000FFFF157400010221FDF7A2
:10668000B7BB00002DE9F04104460F4616461D46F3
:1066900094F83500202802D00220BDE8F0819EB396
:1066A00095B3206801F028FE01282FD0E06ADFF8BA
:1066B00064800178404601F065FD012230B1E06A56
:1066C0000078083002FA00F1C8F8A01394F83400FA
:1066D00001281DD084F83420212084F835001020B2
:1066E00084F836000020A0636661258365830A482C
:1066F00020620A48A0623946204601F008F8204688
:10670000BDE8F04100F0A0BF0120C6E70220C4E7C9
:106710000220C2E7003001A00000FFFFC7730001A4
:106720002DE9F04104460F4616461D4694F8350003
:10673000202802D00220BDE8F08126B31DB32068D6
:1067400001F0DAFD012820D094F8340001281ED091
:10675000012084F83400212084F83500102084F8CA
:1067600036000020A06366612583658309482062A6
:106770000948A0623946204600F0C9FF2046BDE81E
:10678000F04100F0B7BF0120D5E70220D3E7022097
:10679000D1E700000000FFFF157400010121FDF7A3
:1067A00027BB0221FDF724BB0121FDF721BB704768
:1067B000704700002DE9F04104460F46154694F855
:1067C0003500202802D00220BDE8F081002F58D0EB
:1067D000002D56D0206801F08FFD012853D0206B8A
:1067E000DFF8AC800178404601F0CCFC012230B1EA
:1067F000206B0078083002FA00F1C8F8A01394F872
:106800003400012841D084F83420222084F8350057
:10681000202084F836000026A663676125836583FF
:106820001C4820621C48A062216B1C480863216B35
:106830001B488863206BC663204601F08AF82168F4
:106840000320C1F89000206B4FF48042017840464D
:1068500001F0CFFC21681031238B3A46206B11F4F4
:10686000EBD7668384F834602068016B41F41071C3
:106870000163206850F8881F41F001010160002089
:10688000A2E70120A0E702209EE702209CE700008B
:10689000003001A00000FFFF99770001E16E0001C8
:1068A000296E00012DE9F04104460F4615460026E9
:1068B00094F83500202802D00220BDE8F0817FB393
:1068C00075B3206801F018FD01282CD094F834002D
:1068D00001282AD0012084F83400222084F83500D1
:1068E000202084F836004FF00008C4F83880676133
:1068F000658325830E4820620E48A062052D00D3D3
:106900000426204601F025F82068866384F8348048
:10691000206840F24622016B114301630020CCE75E
:10692000FFE70120C9E70220C7E70220C5E7000012
:106930000000FFFF657800010221FDF759BA000051
:106940002DE9F04104460F46154694F835002028FD
:1069500002D00220BDE8F081002F52D0002D50D08F
:10696000206801F0C9FC01284DD0E06ADFF8A08062
:106970000178404601F006FC012230B1E06A00785F
:10698000083002FA00F1C8F8A01394F83400012886
:106990003BD084F83420212084F83500202084F86E
:1069A00036000026A6636761258365831948206247
:1069B0001948A062E16A19480863E16A18488863C7
:1069C000E06AC663204600F0C4FF20680421C0F8D6
:1069D0008C10E06A4FF400620178404601F0F1FB50
:1069E00022681032238B3946E06A11F425D766837A
:1069F00084F834602068016B41F418710163002051
:106A0000A8E70120A6E70220A4E70220A2E70000F1
:106A1000003001A00000FFFF99770001F16E000136
:106A2000296E00012DE9F04104460E46154694F802
:106A30003500202802D00220BDE8F08156B34DB3C6
:106A4000206801F059FC012826D094F83400012870
:106A500024D0012084F83400212084F8350020203F
:106A600084F836000027A7636661658325830C4898
:106A700020620C48A062204600F06BFF20680321D2
:106A8000C16384F834702068016B41F418710163AC
:106A90000020D1E70120CFE70220CDE70220CBE79D
:106AA0000000FFFF657800010121FDF7A1B900009A
:106AB00010B5064818F434D7EFF31084012080F3A2
:106AC000108815F4D5D284F3108810BD28408000BA
:106AD00030B54FF0F85101EA00614FF4F81202EAC4
:106AE00000421E4B1C680A4394430C431C6000F098
:106AF0001F01EFF31082012484F310881C1D256808
:106B00008D430D43256082F310884FF4F85202EA5A
:106B100000221D688D431D60EFF31081012383F374
:106B2000108823689343236081F3108812E090FA61
:106B3000A0F1B1FA81F101228A40411E0840EFF331
:106B40001081012383F31088236823EA8252226094
:106B500081F310880028EAD130BD00003CC500A0B8
:106B600001F0DCBB7047704770470421FDF7C0BDE2
:106B70000321FDF7BDBD000070B5054606481AF4B7
:106B8000C7D6EFF31084012181F3108828461AF448
:106B900073D484F3108870BD604080000021FDF73D
:106BA000A7BD002804D010F8371F4078084370476D
:106BB0000020704770B5054606481AF4A9D6EFF3D1
:106BC0001084012181F3108828461AF443D584F3F8
:106BD000108870BD60408000704770470221FDF74B
:106BE00087BD0121FDF784BD2DE9F04706463446F7
:106BF0000C3CDFF800A14FF030494FF002089AF842
:106C00003000FF2808D0D9F86410C20008FA02F05A
:106C100081430143C9F8641037480078B0B1A42219
:106C200036A139A0FFF724DB204629F4FBD29AF8DD
:106C30003000FF2808D0D9F86410C00008FA00F826
:106C400021EA0801C9F86410BDE8F087FF250A278A
:106C5000A088A0F58850053802D0012809D107E0A6
:106C6000208924F4A7D220B1807800F00F0700E03B
:106C700003270A2F2DD2DFE807F0050705072C2C84
:106C80002C2C2C2B002524E03078717840EA012050
:106C9000C0F30B00A0F58071FF2901D8022518E090
:106CA0000B2808D819490144097E21B1012101EBC3
:106CB000002085B20DE0A088A0F58851063902D1E8
:106CC000706803F421D712480178491C017000E074
:106CD0000225FF2D04D0E580304629F4ADD2A6E789
:106CE0002189A0889A2305A2FFF7C4DA204629F457
:106CF00099D29CE708088000A30680006863695F5A
:106D000070617463682E63003000000050198000C9
:106D10005042800038B500200090124C2078902816
:106D200008D015D294F8280000F07F0000F146004A
:106D3000009012E0684602F04FFE94F82800BDF87B
:106D40000010884209D900F07F004630009004E02E
:106D5000A07C00F07F0012380090BDF8000000F029
:106D60007F0038BD1232800070B50246D46A2068B8
:106D700050F8881F21F002010160206850F8881F38
:106D800021F001010160E06A264D0178107881420E
:106D900018D1284601F06BF96169884207D2E06A90
:106DA0000178284601F063F96169081A06E0E06A93
:106DB0000178284601F05BF96169401A218B081AB5
:106DC000608319E0206B0178284601F048F9616979
:106DD000884207D2206B0178284601F040F96169AA
:106DE000081A06E0206B0178284601F038F961693D
:106DF000401A218B081A6083E16A0020C863216B66
:106E0000C86394F83500602804D02046BDE870407F
:106E1000FFF77EBA202084F835002046BDE8704098
:106E2000FFF714BA003001A0C06A102100F096B834
:106E300070B5C46A206850F8881F21F00201016013
:106E4000206850F8881F21F001010160608B012843
:106E50001DD1192300220221204600F0D3FD202558
:106E600000B1A56320684FF440710161192300222D
:106E70000821204600F0C6FD00B1A5632068016925
:106E80006069421C62610170608B401E60832068F3
:106E9000016B41F40071016370BD10B5C46A2068D4
:106EA00050F8881F21F002010160608B012811D188
:106EB000192300220221204600F0A4FD08B1202061
:106EC000A06361692068097841F400710161608BF9
:106ED000401E60832068016B41F40071016310BDA6
:106EE000C06A006850F8881F21F0010101607047F6
:106EF000C06A006850F8881F21F0020101607047E5
:106F00000FB41CB51448006901909DF818008DF865
:106F1000050002208DF80400059800909DF81100EE
:106F20008DF806009DF810006946FDF7B1F90028BC
:106F30000ED19DF824008DF80500089800909DF86A
:106F40001D008DF806009DF81C006946FDF7A0F9AC
:106F50001CBC5DF814FB0000F8A500012DE9F04110
:106F60000446002584F836504C482062A06B084344
:106F7000A06394F835102026206828291AD094F8A8
:106F80003510292916D094F835102A2912D0016B12
:106F90006FF30B01016394F83500602802D084F888
:106FA00035606562A562206801F0AEF93C4F0128AA
:106FB0000CD030E040F25621026B8A430263282055
:106FC00084F8350065623748A062ECE7206B10B3A7
:106FD000C76394F8360010280BD1E06A48B1C56346
:106FE000E06A11F4AFD1206850F8881F21F0020147
:106FF000016084F83450206B11F4A4D100284AD0E9
:10700000206850F8881F21F001010160206BC16BDE
:10701000BDE8F0410847206801F07BF9012814D150
:10702000E06A90B1C76384F83450E06A11F48AD101
:10703000002830D0206850F8881F21F0020101603C
:10704000E06AC16BBDE8F041084794F8350060285C
:1070500006D084F834502046BDE8F041FFF758B917
:10706000656284F8356008E0206801696069421C47
:1070700062610170608B401E6083206801F040F9FE
:1070800010B1608B0028EFD184F834502046BDE861
:10709000F041FFF7DBB8BDE8F08100000000FFFF22
:1070A000696D00016578000138B504461848206212
:1070B00000256562202084F8350084F83650A562EA
:1070C00008E0206801696069421C62610170608BA0
:1070D000401E6083206801F013F910B1608B002816
:1070E000EFD1608B18B1A06B40F00400A063206862
:1070F00040F27621026B8A4302632068406D009063
:1071000084F834502046BDE83840FFF71ABA000032
:107110000000FFFF38B504462068016E009100258D
:10712000A5623C4921626562416BC1F3801100296F
:1071300009D0D0F88010C90605D0416D0091A16B2F
:1071400041F00401A16340F25621026B8A430263BD
:1071500094F8350021280FD12068406FC0B2618BB0
:10716000084460830FE0206801696069421C626125
:107170000170608B401E6083206801F0C1F810B17F
:10718000608B0028EFD1A06BD8B994F83500602847
:1071900017D094F835102020212918D094F83510F4
:1071A000222935D184F8350094F83600402826D0BD
:1071B00084F8365084F834502046BDE83840FFF754
:1071C0005DBAA16B2046BDE83840FFF7C7BE84F822
:1071D000350094F83600402808D084F8365084F8FA
:1071E00034502046BDE83840FFF7D8BA84F836500E
:1071F00084F834502046BDE83840FFF7D5BA84F80B
:10720000365084F834502046BDE83840FFF7C9BAFC
:1072100038BD00000000FFFF38B504462068016E4D
:10722000009140F27621026B8A430263206801F0EC
:1072300070F8012804D0206801F066F8012838D1E0
:1072400094F835005D4D21280FD0206B0178284639
:1072500000F005FF6169884221D2206B0178284641
:1072600000F0FDFE6169081A20E0E06A0178284616
:1072700000F0FDFE6169884207D2E06A0178284685
:1072800000F0F5FE6169081A06E0E06A0178284618
:1072900000F0EDFE6169401A218B081A08E0206BAE
:1072A0000178284600F0DBFE6169401A218B081A3C
:1072B000608394F83500212814D12068406FC0B253
:1072C000618B0844608314E0206801F01DF80128F8
:1072D00015D0206801696069421C62610170608B91
:1072E000401E6083206801F00BF810B1608B00280D
:1072F000EAD1206801F008F8012808D013E02068DE
:107300000069218B628B891A62695054E7E7206B10
:1073100048B111F417D0B0B9206850F8881F21F097
:10732000010101600FE0206800F0F3FF01280AD19D
:10733000E06A40B111F406D028B9206850F8881FDF
:1073400021F0020101600020606284F83600A06232
:10735000A16B61B1A16B2046FFF700FE94F83500E8
:10736000282829D12046BDE83840FFF79DBE236A72
:10737000134A2021934209D0226284F8351084F800
:1073800034002046BDE83840FFF7DBB894F83520DC
:10739000222A08D084F8351084F834002046BDE84D
:1073A0003840FFF781BB84F8351084F8340020465C
:1073B000BDE83840FFF7C0BA38BD0000003001A07A
:1073C0000000FFFF704710B5044694F83400012810
:1073D0001ED0012084F83400480610D5D00603D012
:1073E000A06B40F00400A063D00303D420684FF4E6
:1073F000407202612068026B42F4007202638805E9
:1074000002D52046FFF786FE002084F8340010BD28
:10741000022010BD70B50446002394F83400012802
:107420000BD0012084F83400480608D5D00673D06C
:10743000A06B40F00400A0636EE0022070BD48071E
:1074400023D52068806FC2B208E0206803696069B4
:10745000451C65610370608B401E6083521E501C8A
:1074600002D0608B0028F0D12068826BD2B2638B8F
:10747000521C9A4201D900228263608B88BB20682B
:10748000026B22F00402026346E0C80644D520687D
:10749000406FC0B2C0F1080094F83520212A13D003
:1074A00094F83520222A1DD036E0628B012A01D1C2
:1074B00043F4007362692568561C666112781A43AA
:1074C0002A61628B521E6283401E421C02D0628B74
:1074D000002AEAD1608B20B92068026B22F01002EA
:1074E000026319E04FF4807209E0A38B012B01D1F4
:1074F00042F4007223681A61A38B5B1EA383401EB3
:10750000431C02D0A38B002BEFD1A08B20B92068A5
:10751000026B22F010020263880502D52046FFF7B5
:10752000F9FD002084F8340070BD000070B50446F9
:107530000025218B206B012961D934490163216B1E
:1075400033488863206BC563E06A0563E06A85633E
:10755000E06AC56320680321C0F89010206B2D4EAF
:107560004FF480420178304600F043FE2168042049
:10757000C1F88C00E06A4FF400620178304600F0F8
:1075800020FEE06A4FF480620178304600F03DFE54
:10759000E06A10220178304600F043FEE06A0222E1
:1075A0000178304600F019FE22681032238B1A4908
:1075B0005B1EE06A11F440D121681031238B6269AF
:1075C0005B1E206B11F438D1218B60690844401E8A
:1075D00060610120608384F834502068016B41F0C1
:1075E00040010163206850F8881F41F002010160EA
:1075F000206850F8881F41F00101016003E084F821
:107600003450FFF715FC002070BD0000316E000102
:10761000296E0001003001A0CC4080000021028BC7
:10762000052A00D3042102680323D363026891630F
:10763000002180F83410006840F25621026B0A43A2
:10764000026300207047000070B504460025218BBE
:10765000E06A012941D924490163E16A234888632A
:10766000E06AC56320680421C0F88C10E06A204EEF
:107670004FF400620178304600F0A3FDE06A017823
:107680000269304600F0C1FDE06A01788269304647
:1076900000F0C7FDE06A0178C269304600F09DFD48
:1076A00022681032238B61695B1EE06A11F4C4D03A
:1076B000218B60690844401E60610120608384F86A
:1076C00034502068016B41F040010163206850F89C
:1076D000881F41F00201016003E084F83450FFF795
:1076E000DCFB002070BD00009B6E0001296E0001D4
:1076F000003001A001680322CA63002180F8341021
:107700000068016B41F4147101630020704708B5F3
:107710000268D36E23F00103D3660268136843F056
:1077200041031360026853686FF309030B4353600E
:107730000168CA6E42F00102CA660068006C0090DF
:10774000002008BD2DE9F0410024124FC4EBC40015
:1077500000EB800007EB800595F88800012812D126
:10776000281DFEF7D8FD202803D010B10020BDE869
:10777000F081EFF31086012080F31088281DFCF7BC
:1077800079DF86F31088641CE4B2022CDED301207A
:10779000EDE70000A467800070B504460D4694F83C
:1077A000340001281BD0012084F83400680641D53C
:1077B000D0064CD094F83500294E212811D0206BEA
:1077C0000178304600F04BFC6169884223D2206B7F
:1077D0000178304600F043FC6169081A22E002207B
:1077E00070BDE06A0178304600F041FC6169884272
:1077F00007D2E06A0178304600F039FC6169081A66
:1078000006E0E06A0178304600F031FC6169401A18
:10781000218B081A08E0206B0178304600F01FFC2D
:107820006169401A218B081A88B1A06B40F00400EE
:10783000A0630CE0A8060AD52068016B21F02001A6
:107840000163206850F8881F41F002010160A8051B
:1078500002D52046FFF7E0FC002084F8340070BD1C
:10786000003001A070B504460D4694F8340001289C
:1078700011D0012084F83400680661D4A8060CD524
:107880002068016B21F0200101632068016B41F445
:107890001471016354E0022070BD68072AD5206886
:1078A000806FC0B208E0216809696269531C636196
:1078B0001170618B491E6183401E411C02D0618B97
:1078C0000029F0D12068816BC9B2628B491C9142BA
:1078D00001D900218163608B90BB2068016B21F08E
:1078E00004010163206A10F5803F29D02046FFF78C
:1078F00069FD25E0E80623D52068406FC0B2C0F1DD
:10790000080208E060692168431C6361007808612F
:10791000608B401E6083521E501C02D0608B00287A
:10792000F0D1608B60B92068016B21F01001016318
:10793000206A022801D0206A10B92046FFF742FDD4
:10794000A80502D52046FFF767FC002084F8340024
:1079500070BD08B50168CA6E22F00102CA660168EE
:107960000A6822F041020A6001680A6842F0800257
:107970000A600168CA6E42F00102CA660068006CC3
:107980000090002008BD70472DE9F05F05460A9E73
:10799000884691469A464FF0E02BDBF81470DBF8EE
:1079A0001840FBF7FDF816484FF47A710068B0FBF9
:1079B000F1F171431BE0701C19D0DBF81800844210
:1079C00001DB221A01E03A1A2244891A04460EB158
:1079D00000290CDC3435686840F020006860202005
:1079E00068700020A87028700320BDE8F09FD8F8C8
:1079F000000000EA09005045DDD00020F5E7000056
:107A00002040800038B50C46009301681346703161
:107A10002246FFF7B9FF38BD70B504460D46FFF7A3
:107A200079F906460022164B20462946FAF7AEFEA3
:107A30001DD34FF0C042134B20462946FAF7A6FE4D
:107A400002D82046294602E00E494FF0C0400022ED
:107A50000D4BFAF732FD00220C4BFAF72BFD0022FA
:107A60000B4BFAF79CFDFAF761FE301AC6B20948D3
:107A7000016821F0FE4141EA0661016070BD00002D
:107A800000000A406666064000408F400064A9403E
:107A9000000031400CC500A070B503460E461546E7
:107AA00008480468324621461846FEF737FB32463E
:107AB00029462046FAF782FB08B1002070BD01205C
:107AC00070BD0000844280002DE9F05FDFF818A14E
:107AD0004FF030494FF002089AF80600FF2808D00E
:107AE000D9F86410C20008FA02F081430143C9F8D2
:107AF00064104FF0E027D7F80051D7F804B17E1793
:107B0000C7F88061C7F88461BFF34F8FBFF36F8FF1
:107B1000364804F4B2D40446C7F80051C7F804B19B
:107B2000002C2DD02660204628F4C4D130B1E18845
:107B3000A08847232EA2FEF79FDB21E0E188A088E2
:107B400028F424D5FDF7F2FD0546280005D1E1888B
:107B5000A088522326A2FEF78DDB35B121460C31D9
:107B60002389E288A088A84700E0002078B3012894
:107B700006D0022830D072221DA121A0FEF778DBAA
:107B8000D7F80041D7F80451C7F88061C7F884617D
:107B9000BFF34F8FBFF36F8F1448006810B30020FE
:107BA00010B1032027F40ED7C7F80041C7F80451DD
:107BB0009AF80600FF2808D0D9F86410C00008FA27
:107BC00000F821EA0801C9F86410BDE8F09FFFE75A
:107BD000204628F427D3D3E704482146143004F480
:107BE00071D4CDE70120DBE7080880009009800010
:107BF0006B655F7461736B5F70617463682E6300A3
:107C0000300000002DE9FC4704460D46002000909E
:107C10000190684601F04EFF00287BD101F036FF4D
:107C200080F00100F8B101F011FF01003A483B4F2C
:107C300009D090F828000830396821F0FE4141EA67
:107C4000006038601DE090F828600022344B204628
:107C50002946FAF79BFD07D80836386820F0FE4021
:107C600040EA066038600CE000222E4B2046294690
:107C7000FAF774FD05D8386820F0FE4040EA066047
:107C800038609DF8040000F01F089DF8020000F025
:107C90001F0A022704264FF001090022224B20462A
:107CA0002946FAF773FD02D20427062612E00022C5
:107CB0001E4B20462946FAF769FD02D20327052606
:107CC00008E000221A4B20462946FAF747FD01D367
:107CD0004FF00009B9F1000F1CD00AEB07011F2972
:107CE00000D31F21B04502D9A8EB060000E0002018
:107CF000104AD072094A1832136823F41F0343EA6A
:107D0000014111600549091D0A6822F4780242EA1E
:107D1000C0400860BDE8FC87123280000CC500A09E
:107D2000000049400000444000004E400000404038
:107D300000003B40F0408000EFF31080012181F310
:107D4000108804490A6822F000420A6080F3108813
:107D50007047000040C500A02DE9F04104462068AE
:107D60003B4D1FE090FAA0F1B1FA81F20121914060
:107D7000421E1040E26891FAA1F3B3FA83F39B002C
:107D8000072A31D0334FD7F890C20F269E402CEAF5
:107D9000060C9A404CEA020CC7F890C22A6842EAE4
:107DA000014129600028DDD12168A0684FF6FF72EB
:107DB00002EA0122C9B2B0F5807F1AD0002301285F
:107DC00019D000202E6811438E43184306432E60BD
:107DD0006168022911D0206800F05EF820681E4911
:107DE0004862606870B130E02A6822EA0141296087
:107DF000D8E71346E3E70846E4E70021206800F0EF
:107E00004BF8EBE720688863206901280CD0022832
:107E100004D003280ED0042817D111E0206848634D
:107E200088622068086210E0206808638862206821
:107E300008620AE020680863C8622068086204E0FB
:107E400020684863C862206808620120BDE8F081AC
:107E500050C500A000E000A0002001A00349096A6D
:107E6000884301D00020704701207047002001A006
:107E700010B5EFF31081012282F31088054B1A68C8
:107E80004FF6FF7404EA002082431A6081F31088E1
:107E900010BD00005CC500A010B5C0B2EFF31082A9
:107EA000012383F31088054B1C688443002900D00C
:107EB000002004431C6082F3108810BD5CC500A044
:107EC0000548016821F0404141F0804101600248CD
:107ED00038300068704700005CC500A0EFF31080E8
:107EE000012181F31088034A6FF48071116080F3DF
:107EF0001088704744C500A0EFF31080012181F382
:107F0000108805490A6822F040420A6080F3108810
:107F100001483830006870475CC500A0044908601B
:107F200003487838016841F00201016070470000A1
:107F300090C500A003490A6822F4E06202430A6087
:107F40007047000018C500A02DE9F04704460F4611
:107F50004FF001094FF0000817F5803F46D0394631
:107F6000204600F019F9012607F1080106FA01F58B
:107F7000A8B13946204600F060F93946204600F0A5
:107F8000F7F80028F9D0C4F8A0533946204600F08D
:107F900003F90028F9D13946204600F007F904F525
:107FA00044742560A5602561A5612562BE40A66276
:107FB0002663A6632664A664A4F544744FF4606047
:107FC00000EB471207EB470000EBC70104EBC100D1
:107FD000026404224264C0F81880C0F81C8044F88F
:107FE0003180C0F808804846BDE8F087C4F898831F
:107FF0000021204600F0D0F80028F9D101212046C8
:1080000000F0CAF80028F3D10221204600F0C4F89D
:108010000028EDD10321204600F0BEF80028E7D16A
:108020000421204600F0B8F80028E1D105212046BF
:1080300000F0B2F80028DBD10621204600F0ACF8B1
:108040000028D5D10721204600F0A6F80028CFD17E
:10805000D4F89803C0F300000028C9D1C3E701EBAE
:10806000410202EBC10100EBC1008068704701EBE7
:10807000410202EBC10150F8310070472DE9F04197
:1080800005460E461446D5F89803C0F300000127B4
:10809000002867D03146284600F07EF8C0B131464E
:1080A000284600F0CAF83146284600F061F800285A
:1080B000F9D006F108008740C5F8A073314628467C
:1080C00000F06AF80028F9D13146284600F06EF831
:1080D0004FF4606000EB461206EB460000EBC60072
:1080E00005EBC0010A6404224A6400228A61CA6165
:1080F0002369A2681A43D4E9053633431A43E36976
:108100001A438B69194E334013438B610A6C22F476
:1081100040620A64E2680B6C23F0404313430B6433
:10812000226845F8302060688860206ACA696FF369
:108130000B020243CA61606A4A6C22F4F06242EAAE
:10814000C0104864A06A4A6C22F4F04242EAC0209F
:108150004864E06A0A6C22F0E00202430A640120EB
:10816000BDE8F081C5F89873B2E700004900CEFF82
:1081700001EB410202EBC10100EBC100006CC0F356
:1081800040207047D0F8A00301228A40104201D05D
:108190000120704700207047D0F8A00301228A40D8
:1081A000104201D0012070470020704701EB4102CE
:1081B00002EBC10100EBC100016C21F4807101648C
:1081C000704701EB410303EBC10100EBC100816982
:1081D00021F4605111438161704701EB410303EBCE
:1081E000C10100EBC100816921F0060111438161E9
:1081F000704701EB410303EBC10100EBC100816952
:1082000021F4E03111438161704701EB410303EB3D
:10821000C10100EBC100816921F4C061114381619A
:10822000704701EB410303EBC10100EBC100816921
:1082300021F0300111438161704701EB410202EBF3
:10824000C10100EBC100016C41F480710164704711
:1082500010B50E4B984201D1002000E01020814063
:108260000B4BD3F810428C43022A0DD0002004435C
:10827000C3F81042D3F808028843012A00D0002135
:108280000843C3F8080210BD0846F0E7000001A04B
:1082900000E000A008B5C16E21F00101C166002117
:1082A0000163026C00927F2202605522426082606C
:1082B0004FF4C87242614FF4EB7282613C22C2619A
:1082C0008222026206224262102282628163C163BC
:1082D000C0F88810C0F88C10C0F890100121C16758
:1082E0006422C0F89420C0F898100522C0F8A0209D
:1082F000C0F8A410084608BD006FC0F30000704726
:10830000006FC0F3C0007047D0F88800C0F30000D1
:108310007047D0F88800C0F3400070472DE9F04165
:1083200004462168404D25E091FAA1F0B0FA80F2B0
:10833000012090404A1E1140226990FAA0F3B3FA3E
:1083400083F39B00072A24D0384E37684FF00F0C78
:108350000CFA03FC27EA0C079A4017433760EFF347
:108360001082012383F310882B6843EA8050286031
:1083700082F310880029D7D1E16820682A4E361F81
:1083800029B34FF4F85202EA002201290DD000214E
:108390000CE0EFF31082012383F310882B6823EAAB
:1083A0008050286082F31088E4E71146336800F0BB
:1083B0001F0083433360EFF31080012383F31088A1
:1083C0002B6893430B432B6080F3108804E03168E3
:1083D00000F01F0001433160A168206800F028F818
:1083E000208862684FF0F85101EA00614FF4F813F9
:1083F00003EA004082B1032A09D0336840EA01044D
:10840000A343012A00D108460343336008E03268E1
:1084100008438243326003E032680843024332601B
:108420000120BDE8F081000040C500A094E200A05A
:1084300010B500F01F00012901D0002100E0014625
:10844000EFF31082012383F31088044B1C688443EC
:108450000C431C6082F3108810BD000040C500A0D2
:10846000FEF726FBFCF7BAFC16A0FAF7BBFB16A03A
:10847000FAF7B8FB23A0FAF7B5FB31A0FAF7B2FB85
:108480003EA0FAF7AFFB4CA0FAF7ACFB59A0FAF705
:10849000A9FB67A0FAF7A6FB74A0FAF7A3FB28A034
:1084A000FAF7A0FB80A0FAF79DFB8EA0FAF79AFBE3
:1084B00005A0FAF797FBFBF765FD99A0FAF792FB89
:1084C000FEE700000D0A00002A2A2A2A2A2A2A2A60
:1084D0002A2A2A2A2A2A2A2A2A2A2A2A2A2A2A2AFC
:1084E0002A2A2A2A2A2A2A2A2A2A2A2A2A2A2A2AEC
:1084F0002A2A2A2A2A2A2A2A2A2A2A2A2A2A0D0A19
:10850000000000002A2020202020202020202020E1
:108510002020204932435F4D415354455220204191
:108520005050206578616D706C652E2020202020D1
:108530002020202020202020202A0D0A00000000DA
:108540002A20202020202020202020202020202021
:10855000202020202020202020202020202020201B
:10856000202020202020202020202020202020200B
:1085700020202020202A0D0A000000002A20436F1E
:108580006E6669673A20466173742053706565644E
:108590002C20372D6269747320416464722C20385A
:1085A0002D62697473206461746120202020202072
:1085B000202A0D0A000000002A204E6F74653A2020
:1085C000596F75206E65656420636F6E6E656374A8
:1085D0002070756C6C2D7570207265736973746F83
:1085E00072206F6E2053434C2F534441202A0D0AB2
:1085F000000000002A2020202020202020202020F1
:1086000049324330284D29202020203C2D2D2D2D6E
:108610002D3E20202020493243312853292020207C
:108620002020202020202020202A0D0A00000000E9
:108630002A202020202020202053434C2847504926
:108640004F333029202020202D2D2D2D2D3E202070
:10865000202053434C202020202020202020202098
:1086600020202020202A0D0A000000002A2020209F
:108670002020202020534441284750494F3236299A
:108680002020203C2D2D2D2D2D3E20202020534418
:1086900041202020202020202020202020202020B9
:1086A000202A0D0A000000002A20546869732073F4
:1086B0006D61706C652077696C6C2073686F7720D2
:1086C000493243206D617374657220646576696315
:1086D000652073656E64206461746120202A0D0A30
:1086E000000000002A20746F20736C6176652061A1
:1086F0006E642072656365697665206461746120CB
:1087000066726F6D2069742E20202020202020208A
:108710002020202020202020202A0D0A00000000F8
:108720000D0A54686973206578616D706C6520640A
:10873000656D6F20656E642E0D0A000010B5064849
:10874000006800F48070002802D000F0BFFBFEE754
:10875000BDE81040F9F7B8BC78C500A010B54FF0DF
:10876000FF342046FCF7B5DE2046BDE81040FCF79C
:10877000D29E00002DE9FE4306460C461746FCF744
:108780008DFA2C48007878B37FB374B340F6EC7060
:1087900084422BD84EB3A6F57F40FF3826D002A9DD
:1087A0003046FCF779FF0546002D3DD0082269468A
:1087B000A5F10800FCF7B0FE684601F03BFDC8B12A
:1087C000BDF808004FF40048A04221D13A462146A6
:1087D0002846FFF761F978B117A24146002004F45A
:1087E000DDD20020BDE8FE8302E0FFE70520F9E7C7
:1087F0000120F7E70920F5E716A24146002004F41E
:10880000CDD23B4622463146284600F00BFCE9E734
:108810001BA24146002004F4C1D23B462246314609
:10882000284600F0FFFBDDE73A4621463046FCF7DC
:1088300063F9D7E7C8238000523A353A6E766473FD
:108840005F70757428292073616D6520646174619F
:108850000D0A0000523A353A6E7664735F70757493
:108860002829207265706C616365206461746120E1
:10887000776974682073616D65206C656E0D0A0000
:10888000523A353A6E7664735F7075742829207297
:1088900065706C61636520646174612077697468D8
:1088A0002064696666206C656E0D0A0010B50121B2
:1088B0000D486EF4C7D7002815D0012802D009282A
:1088C00000D0FEE76EF4B8D704466DF4E5D2014659
:1088D0002046FDF7E3FB28B1012120466EF4B2D714
:1088E000002800D0FEE710BD00F00F012DE9F04197
:1088F00004460D4616461F4601F01EF9384600F0A4
:10890000BDFC3146284600F0B3F9284600F00EFAC7
:1089100000F014F80648074910F82420486962F36B
:10892000030064F34710486103480470BDE8F08118
:10893000D4A50001101F80004442800010B5FCF750
:1089400012DC0128FBD0BDE810401320FCF7029C8C
:1089500010B50549EB20086104490968C86003485F
:10896000FCF727DD10BD0000101F8000641F800091
:1089700001460148FCF7229E641F80002DE9FC415E
:10898000484C2068000602D4206840061FD52068A5
:1089900020F480502060206820F40060206020686F
:1089A00040F040002060206840F480702060206823
:1089B00020F040002060206840F0800020602068A7
:1089C00040F400702060206820F08000206035496D
:1089D0003548403108600020012341B2002909DBFD
:1089E00001F01F0503FA05F24909890001F1E021B0
:1089F000C1F88022401CC0B22228EED3002001F032
:108A000035FC00252846FCF7D5F901462846FCF739
:108A1000DBF900F067F8FFF7A1FEFFF747FF6420DE
:108A200000F0ACF900234FF4FA7201211846FFF769
:108A30005DFF1E4872F4B2D61D4867F451D400F0B1
:108A4000CFF801F025F90020FAF778F8002001F0BE
:108A500025F9002000F09AF916A003C8CDE900011D
:108A6000206800F007001DF80050144845431448E2
:108A70000668144C276830463946FDF757FA606897
:108A80006168091AA942FBD339463046FDF72EFA30
:108A900000F04CFD00F0C8FCFCF7DAFDBDE8FC413D
:108AA00000F012B804C500A0A0FEFFFF54438000F0
:108AB0008D5700014030101810200000A0860100E2
:108AC000FCED00E0001000E00548016821F0807135
:108AD000016003496FF040001439086070470000DE
:108AE00058C500A04FF47A700F4A116821F08071C8
:108AF00011604FF4C0310C4B38331960116841F0EC
:108B000000711160084B6FF04001143B19600021A7
:108B1000136861F3DF631360401E411CFCD11068D1
:108B200040F080701060704758C500A02DE9F041FA
:108B300000242A4EDFF8A080274F08F17C0806F1B8
:108B400058053868C0F30170012833D004EB840065
:108B50007179B37905EB8000194401EBC103C26858
:108B600003EB011102EB8102C260026902EB4101D9
:108B70000161D8F80000C00616D547F6122073F43C
:108B80004FD104EB840005EB80004FF47A61016162
:108B90004900C16002218171418801F57A714180EB
:108BA000818801F57A718180641CE4B20C2CC8D3F1
:108BB000BDE8F08104EB840005EB80007179B379A6
:108BC000C2681944C1EB411102EB4102C260026963
:108BD00011440161CDE7000050C500A0F0408000C5
:108BE00008B501F0CBF8022067F41ED3FCF78EF92C
:108BF000FFF7B4FD1649154888621648C862164941
:108C0000086000F0B7FFFFF791FF67F46FD31348D8
:108C100001780F4858306FF475D7002067F430D3CF
:108C20000F494FF47A7008800F490E480860002001
:108C300000906A4601214CF21500FFF79BFDFCF7FE
:108C4000AFFABDE80840094870F4AA97D9618000DE
:108C5000F04080001F6280006C078000444280006A
:108C60004624800045C30700A826800085510001E6
:108C70002DE9FE430E4602274FF4FA710291254A70
:108C8000116821F0405101280CD010680843106091
:108C9000002E05D002AA39464CF20700FFF76AFD04
:108CA000BDE8FE8302961B483038036843F080031A
:108CB000036041F08050106016482838016841F088
:108CC00080010160144840884FF47A71484313A131
:108CD00006C9CDE900120F494C39096801F00701B6
:108CE0001DF8015045430028D2D00E48D0F800802E
:108CF0000D4CD4F8009040464946FDF717F96268DC
:108D00006068801AA842FBD349464046FDF7EEF85A
:108D1000BEE7000050C500A044428000403010185B
:108D200010200000FCED00E0001000E010B512493A
:108D3000096801280AD0022811D0FCF714DA0128AA
:108D4000FBD0BDE810400620FCF7049AFCF70BDAD4
:108D50000128FBD0BDE810400720FCF7FB99FCF789
:108D600002DA0128FBD00820FCF7F4D9BDE8104056
:108D700046F2905073F4549050C500A0642801D37B
:108D80000149488070470000444280002DE9F047C7
:108D900086B018216846F9F7FFF9EFF311843048DF
:108DA000017830480068C0F30220401C0122824054
:108DB0008818C0B280F31188FCF734FFF0BBDFF8ED
:108DC000A880D8F80050DFF8A0A00AF1380ADAF835
:108DD000000000F07046DFF89490D9F80071684602
:108DE00000F000FDC8B9BDF80000B0B170F4A4D522
:108DF00008B1FCF723FA00F0B9F969460520FCF741
:108E000043FD01F025F969460620FCF73DFD01F020
:108E1000FDF91748816B491C8163C9F80071C8F8D6
:108E20000050EFF31080012181F31088DAF8001070
:108E300021F070413143CAF8001000E001E080F3F6
:108E40001088094848300068C0F30170032801D138
:108E500001F0D4F9E0B280F3118806B0BDE8F087E4
:108E600002E400E00CED00E008C500A000E000A076
:108E7000F040800070B501260F240F4D55F82410E6
:108E800019B1096809B1884728B1641E24B2002CC1
:108E9000F4DA16B10EE00026FBE7641C24B207E00A
:108EA00055F8241011B1496801B18847641C24B2F7
:108EB000102CF5DB304670BDBC68800002490148CB
:108EC0000860704787370030A026800010B505483D
:108ED0000078002802D0FCF7A7D810BDFCF78DD889
:108EE00010BD00007C4280002DE9F04781460E460F
:108EF0004FF0FF380024EFF31087012080F3108833
:108F0000154D95F85000002809D114486FF4FAD493
:108F1000002113486FF458D7012085F85000B9F1AB
:108F2000000F13D0032E11D886B101E0641CE4B207
:108F3000102C03D255F824000028F7D1102C05D2AC
:108F400045F82490281980F84060A04687F31088DF
:108F50004046BDE8F0870000BC688000DD4480002A
:108F6000758E0001102803D2024A002142F8201019
:108F700070470000BC6880002DE9FC5F00250024DC
:108F8000DFF85CA0174FEB46DAF8340205EB10650A
:108F900015A003C8CDE900011548006800F00700DE
:108FA0001BF8000000EB800046001248D0F800805B
:108FB000D7F8009040464946FCF7B8FF78687968D2
:108FC000091AB142FBD349464046FCF78FFF641CA7
:108FD0000A2CD9DB0A20B5FBF0F0C0B2BDE8FC9F3B
:108FE00000E000A0001000E0403010181020000049
:108FF00004C500A0FCED00E070B504460D46164621
:1090000028682168002B03D03246FCF785FA02E07D
:109010003246FDF783F828683044286020683044E1
:10902000206070BD2DE9F04387B00F469046994609
:1090300000250695A0F108060324022206A9304661
:10904000FCF784FA022803D0641E14F0FF04F4D164
:10905000022812D01B488169407A40F24F32CDE994
:1090600000200291184B19A24FF40041002003F494
:1090700095D6092007B0BDE8F083082204A9304640
:10908000FCF74AFABDF812006CF496D3C0B21B4A42
:10909000516871B1BDF8123008301944084450606D
:1090A000384600F0F1FE4A4641463846FBF724FDBB
:1090B000E0E7117ABDF81230194408445060157287
:1090C000EEE70000641F800058A70001523A353ACD
:1090D00025732C204C256420666C617368207374A2
:1090E000617465203078253032582C206572726F9B
:1090F00072203078253038580D0A0000D8328000B0
:109100002DE9F04104460D46164E164F4836002212
:10911000154B20462946F9F739FB09D2386840F447
:10912000C0503860306840F470603060BDE8F08155
:109130000022134620462946F9F728FB08D2386852
:1091400020F4C0503860306840F470603060EDE763
:10915000386840F4C0503860306840F47060306067
:10916000E4E700000CC500A00000444010B56FF417
:1091700073D5022804D0BDE81040012070F4369564
:1091800010BD000010B53C480168C1F380110029F2
:1091900004D00168C1F3C01100296CD1016841F409
:1091A00000710160016841F080010160016821F4F3
:1091B00000710160016841F040010160016821F423
:1091C000807101602C4960310A6822F04C6242F0E3
:1091D0004C620A60091D0A6822F04C6242F0086283
:1091E0000A6025497C310A68C2F34002002AFAD19C
:1091F000214B0A2280331A600A6842F001020A6099
:109200000A68C2F34002002AFAD1016821F4006121
:109210000160016821F480510160016841F400613E
:109220000160016841F480510160012072F4E7D4CB
:10923000EFF31081012080F310880F483C30026862
:1092400022F48022026081F31088EFF31081012262
:1092500082F31088026822F48032026081F3108861
:10926000EFF31081012282F31088026822F40032A9
:10927000026081F3108810BD04C500A011B583B051
:109280000020029002210191BDF80C204CF2B104A3
:10929000002A03D003AA2046FFF76CFA02AA01A90C
:1092A00020466EF427D278B14FF480200B490A682B
:1092B0000B4B1A4002430A6008680A49C0F3882031
:1092C0000880FBF79DDD1FBD9DF808009DF8091083
:1092D00040EA0120044901EA8020E7E738C500A000
:1092E000FF03F8FF00418000FFFF0700002907D0BF
:1092F00030B10260416000218160C160012070478F
:10930000002070478168C268002803D08A4203D8D1
:10931000881A7047002070470068801A0844704718
:109320002DE9F04705468A464FF00008AF68EE6821
:10933000EFF31089012080F31088002D2ED069688A
:1093400061B3BAF1000F29D0B74204D3BC1BA242CB
:109350000DD814460BE02868831BDC19A24200D804
:1093600014463219824202D3A219A2EB0008A4EBE0
:10937000080231445046F8F7F6FE0AEB0400A0EB71
:10938000080042466968F8F7EEFE30192968814204
:1093900002D8B84200D9401AE86000E0002489F3FE
:1093A00010882046BDE8F0872DE9F047044689463D
:1093B0000027A668E068EFF31088012181F3108888
:1093C000002C2AD0636843B3B9F1000F25D0B04216
:1093D00005D9851B6D1EAA420CD815460AE02168E6
:1093E0008D1B05446D1EAA4200D81546701988428F
:1093F00000D3471AEA1B98194946F8F7B4FE09EB5F
:109400000500C11B3A466068F8F7ADFE7019216887
:10941000814200D8401AA06000E0002588F310883F
:109420002846BDE8F08700002DE9F84F0026002708
:1094300033480068C0F3006000285ED0FEF740FDAE
:10944000B0F5967F59D32F4908682F4D20B1686831
:109450002E4AC043904250D3EFF310800090012079
:1094600080F310884FF000094FF0000B086840B9F6
:1094700001262748D0F8009049F080710160D5F8A6
:1094800000B000244EB1286820F0010028600020C0
:109490006860286840F001002860FEF711FD8046F2
:1094A000D5F804A0FEF70CFDA8EB00006428F9D95C
:1094B0006868A0EB0A000744641CA4B2002CE1D049
:1094C00026B1C5F800B01248C0F80090009880F3AB
:1094D00010883846F8F784FE04460E480D4664218D
:1094E0000068A0FB0101F9F7C9F822462B46F9F7FD
:1094F00056F8F9F702F908490860BDE8F88F00004E
:1095000058C500A0C4408000001000E000350C00E9
:10951000FCED00E0204080003C4280000249014810
:109520000860704735618000000580002DE9FC5F10
:109530007A48076847F080710160DFF8E481D8F865
:10954000000001904FF00009764C206820F00100E7
:1095500020600020FEF7EEFCFEF7CEFC10B10020EC
:10956000FEF7DCFCFEF7C8FC0028FBD1FEF7B6FCDA
:10957000206820F4805020606B4802210160BFF316
:109580004F8FBFF36F8F6948C0F88012206840F09A
:1095900001002060FEF7B0FC0028FBD0EFF3108044
:1095A0000090012080F3108800255E4E42F2107B6F
:1095B0002C365C46D8F8000020F00100C8F8000006
:1095C0000020C8F80400DFF85CA1DAF8000020F001
:1095D0000100CAF80000FEF78FFC10B10020FEF772
:1095E0009DFCFEF789FC0028FBD1C8204D4978314D
:1095F0000860DAF8000040F00400CAF80000494AA8
:1096000044320B1DEFF31080012181F310881168A3
:1096100041F04041116080F310881868C828F1D1EA
:10962000FEF75CFCDAF8000040F48050CAF8000055
:10963000DAF8000040F00100CAF80000D8F8000095
:1096400040F00100C8F80000FEF756FC0028FBD0EF
:10965000D8F804A007E0641E601C04D15C46FEF745
:109660004BFCD22804D23068C0F300200028F2D08E
:10967000D8F80440FEF732FC35B1A4EB0A0081446F
:109680004FF47A70401EFDD16D1C082D91D30098C7
:1096900080F310884846F8F7A3FD0022244BF8F722
:1096A0007EFF044623480D460068F8F799FD2246E0
:1096B0002B46F8F774FF00221F4BF8F7FEFE1F4AF7
:1096C0001F4BF8F753FEF9F718F81E490860154CC0
:1096D000206820F0010020600020FEF72BFC2068AD
:1096E00020F480502060206820F400502060FEF7B5
:1096F000F5FBEFF31080012181F310886FF4007106
:10970000316080F310881048022101600198C8F888
:10971000000002480760BDE8FC9F0000FCED00E08F
:10972000001000E018C500A084E100E004E000E0C3
:1097300000001C402040800000006940D31742CE4A
:10974000FBFFDF3F4042800084E200E0074906481B
:109750000860084906480860084907480860094940
:1097600007480860FBF79CBA5D4D0001802480002B
:10977000C960800068248000F5608000802380003C
:10978000DF6080009C2380007FB500200090019066
:10979000029003900024104D104E05EB0410D0E908
:1097A00005230169C0698DE80E0003900398B0425B
:1097B00005D1DDE901020099F8F7D5FC08E0074979
:1097C00003981C31884203D1DDE90101F8F7E4FC7C
:1097D000641C032CE1D37FBD80E90700042D060043
:1097E0007047000070B50446002C05D000F086F8E4
:1097F0000646300002D048E0022070BD244D688C3F
:109800002080A88C6080E88CA0802878132824D839
:10981000A88CF8F7E5FC1F4A1F4BF8F7C0FEF8F7D5
:109820006CFFE080E88C2081A88CF8F7D9FC1B4AFB
:109830001B4BF8F7B4FEF8F760FF6081E88CA0815D
:10984000A88CF8F7CDFC174A174BF8F7A8FEF8F7E5
:1098500054FFE081E88C208213E0A889E0806889C9
:10986000208128896081E888A0812889F8F7B8FCE0
:109870000E4A0F4BF8F793FEF8F73FFFE081E888B8
:109880002082288A6082E889A082304670BD00006C
:109890001232800098A432C51CC4F73F50340F60C8
:1098A000919FFD3F7F86376BF09E03406E693524A4
:1098B000EE31F53F10B50446002C09D000F01EF83B
:1098C000002804D10349897801F01F01217010BDDF
:1098D000022010BD1232800010B50446002C08D0C2
:1098E00000F00CF8002803D103490968890F2170A2
:1098F00010BD022010BD0000842380002DE9FF412F
:109900000024002500950195029503952F4F44F200
:109910004478B88B00284FD10095019502950395A6
:109920002B480090012001906846FCF71BFB68461D
:10993000FCF75EFB0F233A46442168460FF460D2E1
:109940000123244A532168460FF45AD26846FCF793
:1099500009FB38784FF6FF72E0B1B88B40452AD149
:10996000BE1C002036F8101021448CB2401C80B27E
:109970000928F7D315492031002031F8103023444D
:109980009CB2401C80B20628F7D3F88BA04213D0BB
:10999000BA8311E097F8280040B997F8290028B950
:1099A00097F82A0010B997F82B0010B1A7F81C807F
:1099B00002E0BA8300E0BA83B88B404503D10020AF
:1099C00004B0BDE8F081BD831020F9E712328000B9
:1099D000006401A08423800030B587B00546002DC7
:1099E0000CD000242C80FFF789FF002804D11548F3
:1099F0000078902804D0012007B030BD0220FBE79A
:109A00000394049405940694019402940E480390E0
:109A10000120049003A86CF499D103A86CF4A2D19E
:109A2000022301AA562103A80FF4EAD103A86CF47B
:109A30008DD19DF80A009DF80B1040EA0120288086
:109A40002046D9E712328000006401A008B500204A
:109A500000906846FFF72EFF0B48417801F00102A5
:109A60000078912801D2012100E000219DF800003A
:109A7000042805D0082803D0114203D0072801D0BC
:109A8000012008BD002008BD1232800008B500206A
:109A900000906846FFF70EFF0548407800F001018E
:109AA000C0F3C00001B108B1002008BD012008BD0D
:109AB0001232800010B50446002C04D0FFF71EFFC0
:109AC000014611B134E0022010BD1A4A5078C0F3AB
:109AD000400020705078C00702D0907C607002E097
:109AE00092F82800607092F82900030606D500F06D
:109AF0001F03C0F34110181AA07005E000F01F0307
:109B0000C0F341101844A07092F82A00030606D54D
:109B100000F01F03C0F34110181AE07005E000F0D8
:109B20001F03C0F341101844E07092F82B0020711D
:109B3000084610BD123280000A480021016040F63C
:109B4000EB52026240F6AB42426207228262064A50
:109B5000C262016305490A6842F4F0620A600221A8
:109B60000164704780E200A004FF010700D000A05C
:109B700000F06CBB70B54FF04050416A41F01001ED
:109B800041623148016801F07F4101602E490020A7
:109B9000143908602C4D2D1F286820F4FE0040F475
:109BA0007C102860284C4C3C2068284E28493040C6
:109BB00008432060642072F422D020682549304098
:109BC00008432060642072F41AD020682249304093
:109BD000084320601C483838016841F0407101603A
:109BE000642072F40CD020681C4930400843206087
:109BF000206840F0F0002060286840F47060286021
:109C000011493439086820F470421548437A42EA11
:109C100003320A60211D0A6842F480420A60017A18
:109C2000C279090641EA02418279407941EA02217A
:109C3000014305481038016003485438016841F475
:109C40000011016070BD000058C500A0FF0000FFBA
:109C500000F70B0000EF0B0000FA0B0000FA030006
:109C6000F040800010B5FCF727FA58B1FEF770FEFF
:109C70000020FEF77DFEFEF781FE034800680349E1
:109C8000486010BDFEE70000002000012040800079
:109C900010B5002000F002F810BD00002DE9FC41D5
:109CA00015240E2607253148016821F4706141F41E
:109CB000407101600020009001906846FFF7FAFEB5
:109CC0002B4FA8B9FFF7E2FE18B1FDF723F80546C0
:109CD00004E097F8280000F07F0508359DF804009F
:109CE00030B19DF8021019B100F01F0401F01F06F9
:109CF0007878C0F3C00040B11E48016841F480018B
:109D0000016097F8280000F07F051A48483801687C
:109D100021F0FE4141EA05610160164834380168CE
:109D200021F080610160361D1F2E00D31F26062CF6
:109D300001D9A41F00E000240F48C4720D48443824
:109D4000016821F4780141EAC441016009483038D2
:109D5000016821F41F0141EA0641016005484038CD
:109D6000016841F400310160BDE8FC8120E200A0FF
:109D70001232800054C500A0F040800027490868D6
:109D80004FF6FF021040264A40F44070104308602E
:109D900000208022002341B2002904DB01F1E021F0
:109DA00081F8002405E001F00F0101F1E02181F8C4
:109DB000142D401C2228EED31848133003702020A5
:109DC000184981F800041849087060201549491C99
:109DD00081F80004A02014490D39087011490B3195
:109DE00081F80004C0201049113908700D49C91DBF
:109DF00081F800040C490F3908700A49183181F8BC
:109E00000004FF2005491631087006490D3181F81C
:109E1000140D054918390870704700000CED00E07A
:109E20000000FA0502E000E019E400E001207047BC
:109E30007047000010B54FF496710448F8F7ACF97C
:109E4000024900200C3981F8380110BDE43280004D
:109E500010B50B4B93F838211E2A10D202EB820268
:109E600003EB42020468D460406810610548008832
:109E7000081A908293F83801401C83F8380110BD0D
:109E8000D8328000CC2380002DE9F047CAB04A4D7B
:109E9000A5F10C0797F83861002488E004EB8401F1
:109EA00035F8111081427DD1701E81464FF6FF7842
:109EB000844216DA301B401E00EB800008EA400A9C
:109EC000601C00EB800005EB4001524601A8F8F74A
:109ED0004AF904EB840005EB4000524601A9F8F76B
:109EE00042F909EB890005EB400000210160416067
:109EF000018197F83801401E87F838011E2E4FD196
:109F0000D5F818014790D5F81C014890B5F8200104
:109F1000ADF824014899479846914590BDF816013F
:109F20006BF44AD4254EBDF8162131680844BDF8BB
:109F30002411114444180834DFF8849099F8000083
:109F400010B100206BF4ACD7DFF878A0082245A947
:109F50002046FCF7E3F8BDF8140140451CD070B171
:109F600005F5917545982860469868603088201AF4
:109F7000288197F83801401C87F838010CE0BDF8BB
:109F800016016BF419D4BDF8161108302144441899
:109F9000DAF800008442D9D399F800006BF480D736
:109FA0004AB000E001E0BDE8F087641CE4B2B442CE
:109FB000FFF474AFF4E70000E4328000CC238000AB
:109FC000C9238000D02380002DE9F04116461E4CA5
:109FD000A4F10C0292F838510022002D02D0002387
:109FE0001A4F19E00A8032600120BDE8F08103EBCE
:109FF000830C34F81CC084450CD103EB830004EBC4
:10A00000400042880A80018938680830084430607E
:10A010000120EAE75B1CDBB2AB42E8D31E2D03D282
:10A020000A8032600120E0E704F5917460886BF4E7
:10A03000C3D3396862880844218911440844083030
:10A0400030600020D1E70000E4328000CC238000A3
:10A0500070B504460D4620462946F8F72FFB0B49FC
:10A06000086320462946F9F7D9FB20462946FDF723
:10A07000C9FD20462946FFF743F820462946FBF74D
:10A0800023FA20462946FAF703FF70BDF04080000E
:10A0900010B50C4A5278C2F38002002A02D0FBF7B6
:10A0A00091FC01E0FBF712FD07490A6822F46052B7
:10A0B00042EAC0200860081D016841F400310160D7
:10A0C00010BD00001232800010C500A00FB41CB5F6
:10A0D00004462648006901909DF81C008DF8050093
:10A0E00002208DF80400069800909DF815008DF868
:10A0F00006009DF814006946FAF7CAF8002832D124
:10A100009DF828008DF80500099800909DF8210021
:10A110008DF806009DF820006946FAF7B9F8002886
:10A1200021D1222C1FD19DF834008DF805000C9808
:10A1300000909DF82D008DF806009DF82C006946D2
:10A14000FAF7A6F800280ED19DF840008DF805001A
:10A150000F9800909DF839008DF806009DF83800A2
:10A160006946FAF795F81CBC5DF814FBA8A6000137
:10A170002DE9F0410024114F4D2104FB01F007EBC4
:10A18000800595F89C00012812D1281DFCF709FDD7
:10A1900020B1102802D00020BDE8F081EFF3108636
:10A1A000012080F31088281D17F4EAD386F3108865
:10A1B000641CE4B2022CDFD30120EDE710698000BB
:10A1C000704700007CB504460D46002000900190C9
:10A1D0006846FFF76FFC00280DD107484078C0F3B0
:10A1E000C000002807D1FFF751FC002803D020460B
:10A1F0002946FDF711FC7CBD1232800002488068C0
:10A20000002800D0004770474442800070B50446E3
:10A210000D4620462946F8F751FA0549486320467D
:10A220002946FFF7CFFF20462946FFF731FF70BDD3
:10A23000F0408000017882781144C9B200798842E8
:10A2400001D1012070470020704700004FF48A20A0
:10A250004068A0F53061883904D10349086820F4CA
:10A260000070086070470000241F800001494860AA
:10A2700070470000D04080002DE9F04385B00446CF
:10A28000DDE90C590F4690461E46CDF810804E4829
:10A29000006800EB043003904FF48051FBF7FEFEA2
:10A2A00008B19CB11DE049488169407A40F2CF3243
:10A2B000CDE900200291464B46A24FF40041002018
:10A2C00002F46CD5092005B0BDE8F0834D490020AB
:10A2D00008600123082204A903A800F095F80028CB
:10A2E000F1D13EB10123324604A903A800F08CF855
:10A2F0000028E8D13DB100232A4604A903A800F0B4
:10A3000083F80028DFD1002F5CD000247F1E1CE0E2
:10A31000049D68886BF450D269884618012308228E
:10A3200004A903A800F070F80028CCD1002332461D
:10A3300004A903A800F068F80028C4D10398811B81
:10A3400008392846FFF784FD641CBC42E0D3B9F10C
:10A35000000F12D00498A8EB000404F580540123E8
:10A36000224604A903A800F04FF80028ABD10398B7
:10A37000011B4846FFF76CFD24E0049D68886BF4E0
:10A380001BD2698846180123082204A903A800F0FB
:10A390003BF8002897D10498A8EB000404F58054FA
:10A3A000B44200D334463CB10023224604A903A89A
:10A3B00000F02AF8002886D10398011B08392846A6
:10A3C000FFF746FD00207EE7CC238000641F80005D
:10A3D00070A70001523A353A25732C204C25642091
:10A3E000666C617368207374617465203078253001
:10A3F00032582C206572726F7220307825303858B0
:10A400000D0A0000D832800070B505460E4614468D
:10A4100028683168002B03D02246FBF797F802E04A
:10A420002246FBF78BFEA04201D0082070BD2868B1
:10A43000204428603068204430600348016821448B
:10A440000160002070BD0000D83280002DE9F74F78
:10A4500086B004460D4628466BF4AED1C6B2ADF8C0
:10A460001040ADF8125004A8FBF7F8F904A80899B9
:10A47000FBF7FBF94FF00008ADF816800324DFF876
:10A48000FC903F4F0822D9F800103868084404A90E
:10A49000FBF75CF8082803D0641E14F0FF04F1D128
:10A4A000384C4FF4004A082826D0A169607A4FF44E
:10A4B0005E72CDE900200291334B34A25146002058
:10A4C00002F46CD4ADF81080ADF812808DF81480D1
:10A4D0008DF815803868D9F800100822084404A9BE
:10A4E000FBF734F8386808303860786808387860E6
:10A4F000092009B0BDE8F08F05F108001FFA80FBC4
:10A50000D9F8000039680830354408442A460899CB
:10A51000FBF714FEA84208D13868D9F800100144AE
:10A5200004A8FFF795FC002017E0A069617A40F2CB
:10A530009632CDE900210290134B14A2514600201F
:10A5400002F42CD4ADF810803868D9F80010082235
:10A55000084404A9FAF7FAFF09203A680BEB060150
:10A560000A443A607A680832511A082902D908392F
:10A570007960BEE73972C7F80480BAE7CC2380005F
:10A58000D8328000641F800065A70001523A353A36
:10A5900025732C204C256420666C617368207374CD
:10A5A000617465203078253032582C206572726FC6
:10A5B00072203078253038580D0A00000090D00302
:10A5C000006CDC020024F40000366E010024F4006C
:10A5D0000048E80100000000010000000400000045
:10A5E000030000000400000002000000D15500013B
:10A5F0000D560001AD4380000E0F000000C300A007
:10A6000000C400A0FFFFFFFF000207004577000124
:10A6100087790001754480000100000002000000FD
:10A620000000000001000000000100000000000028
:10A630000000000001000000020000000000000017
:10A6400001000000020000001000000020000000D7
:10A65000300000004000000000000000000000008A
:10A6600001000000020000001000000020000000B7
:10A670003000000040000000000000000100000069
:10A6800002000000010000000000000000000000C7
:10A690000000000000000000000000002D9E0001EE
:10A6A000319E0001114580000C0D000000C600A085
:10A6B00000C700A0FFFFFFFF0002070071A100011B
:10A6C000C1A100012545800000000000000200003B
:10A6D0000000004000000000000200000000000434
:10A6E0000000000002000100801A06004D0000007A
:10A6F000010000000000000000000000A1B90200FD
:10A70000E96B0001030000006D970100EF55800028
:10A7100004000000F99001000358800006000000CA
:10A720007D5A0600F14B000107000000C10603003E
:10A73000C97A00016E7664735F696E6974006E7623
:10A7400064735F64656C00696E69745F756E7573C0
:10A7500065645F6E766473007265706C6163655FDB
:10A760006974656D0077726974655F6974656D0001
:10A7700077726974655F636F6D7061637465645F40
:10A780006974656D7300636F6D706163745F6E767D
:10A790006473000001060800813000004150505FE2
:10A7A000443A20004150505F453A20004150505FEC
:10A7B000493A20004150505F573A20000CA8000150
:10A7C000CC35003038050000A42C000144AD000158
:10A7D0000040003020000000A42C000164AD000106
:10A7E000204080004403000098290001CCAE000105
:10A7F00064438000181F0000A42C0001E4CD000178
:10A8000080628000EC100000B22C000110B5EFF364
:10A810001081012080F31088FE480268C2F3C03224
:10A82000002A17D0FB4A34321268C2F38A22F94B4D
:10A8300030331B68F84C24682244521C9A4209D2D7
:10A84000F44A3C3A1368C3F380531BB9136843F4CA
:10A850008003136081F310880168C1F3C0310029BF
:10A86000FAD1EE48006810F0007F01D0012000E02E
:10A87000002008B100F0F2F9012010BDE549E84AD6
:10A880001431904204D9086820F4801008607047A1
:10A89000086840F48010086070472DE9FF474FF0CA
:10A8A000020900200390DF4806684768D0F808A036
:10A8B0004FF0FF34029401940094DFF86C83DB4D79
:10A8C000D8F80400000126D501A9002000F0CBF93A
:10A8D0006946A00700F0C7F9DDE90010884202D8F8
:10A8E000081A019001E0C043019003A9019800F00B
:10A8F000BFF90190A04200D20446504507D2296812
:10A9000009B104208847012004B0BDE8F087296818
:10A9100009B105208847D8F80400C0011BD5C448F8
:10A920000078C0B902A94FF0004000F09CF903A9DB
:10A93000029800F09DF90290A04200D20446B04275
:10A9400005D2296809B1042088470120DCE729687D
:10A9500009B105208847D8F8040040010ED500F061
:10A960008CF94100A14200D321460C46B84205D2E1
:10A97000296809B1062088470120C5E74FF0E0218A
:10A98000D1F8000210F0806F01D0012000E000201B
:10A9900090B9A248001D006810F0020F01D00120FC
:10A9A00000E0002040B9D1F8000210F0007F01D093
:10A9B000012000E0002008B10120A5E72046FFF7B4
:10A9C0005DFF4846A0E770B59A48006880470228B6
:10A9D0001CD1012000F056F900F059F996480068A2
:10A9E00080479648406800B18047FFF756FF944C77
:10A9F00002280CD02068804700F04EF900F051F991
:10AA000000F054F9002000F03DF9012070BD4FF432
:10AA10008A25686841F6A866B04202D0894800F0ED
:10AA20004AF900F04DF96868B04202D0854800F05C
:10AA30004CF92068804700F02FF900F032F900F05F
:10AA400035F9002000F01EF94FF0E025D5F800029E
:10AA50004FF0006610F0006F01D0012000E00020F0
:10AA600020B36C483C380068C0F3001010B12020BF
:10AA700000F030F9674C241D216840F25F1001405E
:10AA800048070DD5206863491831096801EA10406C
:10AA90006D490870FF2000F01DF96FF00400206080
:10AAA0002068C0F3001008B1C5F80061002070BD37
:10AAB000054600F014F96048006880475548203882
:10AAC000016841F080010160016821F47841016072
:10AAD000504C3C3C206820F0745020600DB320683E
:10AAE00040F08070206000F0FFF80128FBD01320B8
:10AAF00000F0FFF84FF47A70684300F0FFF8454922
:10AB00005031086000F0F0F80128FBD0022000F07E
:10AB1000F0F800F0E9F80128FBD0102000F0E9F887
:10AB200006E000F0E1F80128FBD0132000F0E1F886
:10AB300038481C38016821F400010160206820F4C5
:10AB4000DE5040F4DE51216040F440702060314D11
:10AB50001435286820F4800028602E480024243012
:10AB600004602C493948283108602A48383004608C
:10AB7000344800F0A0F8286820F080702860286829
:10AB800040F000702860234D2D1D2C6000F0ACF8C3
:10AB90000128FBD0032000F0ACF800F0A5F8012854
:10ABA000FBD0F2E770B500F0AEF824490120087040
:10ABB00000F0AEF800F093F8054600F0AEF8244C33
:10ABC00002280AD000F0A9F8012801D120688047A6
:10ABD0002846BDE8704000F0A5B800F0A8F858B1CC
:10ABE0001C490398086000F0A7F801280BD02846FC
:10ABF000BDE8704000F096B8206880472846BDE860
:10AC0000704000F08FB8206880472846BDE870404B
:10AC100022E0000040C500A000E200A000E200E049
:10AC200000093D00B0268000BC26800084268000FC
:10AC30007426800080248000184180007C428000BF
:10AC40001C418000641F8000C8408000AAAA2A22FC
:10AC5000A8268000AC26800000F064B843F2D17CC6
:10AC6000C0F2060C604744F2096CC0F2800C6047E9
:10AC70004BF6496CC0F2070C604746F2451CC0F227
:10AC8000800C604748F6D55CC0F2070C604745F67B
:10AC9000717CC0F2800C604744F61B7CC0F2800CD3
:10ACA000604744F6016CC0F2800C604745F6977C23
:10ACB000C0F2800C604745F6132CC0F2800C604750
:10ACC0004DF6057CC0F2010C604745F6752CC0F2CC
:10ACD000800C604746F2AF1CC0F2800C604748F61B
:10ACE000414CC0F2070C604746F2C91CC0F2800C10
:10ACF000604746F29D1CC0F2800C60474CF2590C34
:10AD0000C0F2070C604742F6C95CC0F2060C60470F
:10AD100045F2315CC0F2800C604748F6594CC0F2F5
:10AD2000070C604748F6ED7CC0F2070C604748F618
:10AD3000251CC0F2070C604749F6357CC0F2070CB1
:10AD4000604700000000000000000000000000005C
:10AD500000000000000000000000000000000000F3
:10AD600000000000114490D00313676B1B016504C1
:10AD700013D9611401B1671B01AF041A9D04137D3F
:10AD8000661401A96A140139691C0143650C191480
:10AD90001AA30413116314014D622B01DB3419044F
:10ADA0001AE3041ADD041A9D041A69041A71041ABC
:10ADB0006B0413455C22014BFFFF04490613A4A753
:10ADC0001B01B4041AAC041A9C0441138938140101
:10ADD000E5394C01413A100214D9391AC132043212
:10ADE000105A0C08120815101F01012008030F0348
:10ADF000030501151A40341208321A290429813931
:10AE000085B109121401142F6801A40120038112D5
:10AE10005A23401F4BA00F143CDE03021E095A1494
:10AE2000097278515A800411022D64F2961390E64B
:10AE300014B004C513A0041C01A010041A28041A9D
:10AE400030041A20041B04101419041A28041A30A0
:10AE5000042A200C1A200C19041A20041340E21BA7
:10AE6000A044041A48041A4C041A90041A94041AB0
:10AE700080041AA0041AA4041AA8041AAC041AB074
:10AE8000041112D01BA010081A08041A18041A5032
:10AE9000781A3C041A40041AC0101A20041A240418
:10AEA0002AC42012ED1BE01C041A20041112E41B1A
:10AEB000E004041A08041A0C041A10041A14041AE0
:10AEC00018041A1C042A2018292801131EF0040F44
:10AED00014BFEFF3098CEC460FB560465FF49EF2A9
:10AEE0008446BDE80F40BCF1000F18BFE047704733
:10AEF000FEE700007046694600F002F8FFF7FEFF2B
:10AF0000FEE7FEE7FEE7FEE719F49AB600F02ABA7C
:10AF100015F444B070B500210024164D04EB440034
:10AF200005EB40100278012A03D1001D14F4D6F17C
:10AF30000121641CE4B2082CF0D3002907D00320BF
:10AF400017F41EF7BDE87040032017F437B770BD43
:10AF500070B50024074D04EB440005EB4010017868
:10AF6000012902D1001D14F477F0641CE4B2082C0E
:10AF7000F1D370BD8062800070B5002200240020F3
:10AF8000134B1D780DE003EB00110E7946B989686B
:10AF90000E04360C01D0012202E0090C00D001247D
:10AFA000401C8542EFDC12B1062017F407F7002C95
:10AFB00004D0BDE87040072017F400B770BD054805
:10AFC00015F41AB3044815F417B301F09F9C000060
:10AFD00080658000000001A0001001A02DE9F04173
:10AFE0000024164FC4EBC40000EB800007EB800583
:10AFF00095F88800012813D1EFF3108680F31088AC
:10B00000281D00F003F986F3108895F868000128E0
:10B0100006D00B4D285717F4B3F6285717F4CEF681
:10B02000641CE4B2022CDDD3BDE8F0810348001DAE
:10B0300001F0FE9F0148903001F0FA9FA467800064
:10B04000F8A5000170B503250A4E002456F8240027
:10B0500038B1806828B1311991F84010A94200D167
:10B060008047641CE4B2102CF0D36D1EEDB2002DAD
:10B07000EBD170BDBC68800003480078472801D13F
:10B0800002F0CA9A704700008C4080002DE9F04120
:10B090000024154F4D20604307EB800595F89C0078
:10B0A000012814D1EFF3108680F31088281D1DF4B9
:10B0B000E9F186F3108895F8640008B1022806D1FA
:10B0C0000A4D285717F45CF6285717F477F6641CD6
:10B0D000E4B2022CDED3BDE8F0810348001D1DF46C
:10B0E0006FB003481DF46CB010698000A8A6000181
:10B0F000486A800010B50446204600F05DF8EFF382
:10B100001081012080F31088324A1068A04310603B
:10B1100081F3108810BD70B504460D46204600F03E
:10B120004BF8E9054FEA042001D5014600E0002173
:10B130000B46E90301D5210400E00021EFF3108262
:10B14000012585F3108840EA0446224805680B4330
:10B15000B5431D43056082F31088EFF3108101228F
:10B1600082F3108802682243026081F3108870BD68
:10B1700070B500220123002911D0EFF310840125BE
:10B1800085F31088134D2D1D2E6826F0404606438A
:10B190002E6084F3108810480E4C3C3405E00120EA
:10B1A00070BD38B1401E226823689A42F9D10A6006
:10B1B000002070BD032070BDEFF31081012282F3E7
:10B1C0001088044A6FEA0040143A106081F3108836
:10B1D0007047000058C500A018FC7F3E01680A684F
:10B1E000C2634A6902648A694264CA6982640A6AFB
:10B1F000C2644A6A02658A6A42658A688265D1F8D1
:10B200009820C265096B0166002070470168CA6E0C
:10B2100022F00102CA66C26B0A60026C4A61426C8B
:10B220008A61826CCA61C26C0A62026D4A62426DB6
:10B230008A62826D8A60C26DC1F89820006E0863D0
:10B24000C86E40F00100C8660020704710B5026863
:10B25000136843F00103136000BF00BF00BF00BFCD
:10B2600000BF00BF00BF00BF00BFD2F80C3C23F0FE
:10B270000103C2F80C3CD2F8103C03F00103002B90
:10B28000F9D1012906D00021C2F870148068012884
:10B2900004D05AE00121C2F87014F7E7FB490868AE
:10B2A000C0F34053086820F400100860106800F4F0
:10B2B000F064106820F4F0601060106840F008003E
:10B2C0001060106840F00200106000BF00BF00BFB7
:10B2D00000BF00BF00BF00BF00BF00BF00BF00BF76
:10B2E00000BF00BF00BF00BF00BF00BF00BF00BF66
:10B2F00000BF00BF00BF00BF00BF00BF00BF00BF56
:10B3000000BF106900F001000028FAD1106820F099
:10B3100008001060106820F002001060106820F033
:10B320000100106000BF00BF00BF00BF00BF00BF32
:10B3300000BF00BF00BF106820F4F0602043106021
:10B340001BB1086840F400100860D2F80C0C40F003
:10B350000100C2F80C0CD2F8100C00F0010000281B
:10B36000F9D010BDF0B589B004460025002C0BD0F3
:10B3700094F8300001280AD0012784F8307094F83E
:10B380003100002628B10EE0012009B0F0BD0220F6
:10B39000FBE784F8306020461DF472F34FF47A71B5
:10B3A00020461DF4C5F32068D0F8100C00F0010011
:10B3B00030B9002201212046A36B57F4D5F705468A
:10B3C000D5B960680190A0680290E0680390206998
:10B3D0000890207DC0F340000690207D00F0010021
:10B3E0000790102004900420059001A9206801F026
:10B3F0001BFA012804D0012584F830602846C4E7F0
:10B400006068012806D12068D0F83C1441F00101A1
:10B41000C0F83C14666384F83170EDE72DE9F74F0E
:10B42000044600680D4600F2044800F5806700F20B
:10B430001446D0F870B4301F016821F00801016093
:10B4400020680121C0F87014A06A4FF0FF3A10285C
:10B4500047D9A06A702100F00309206800F0EDF8D8
:10B46000A06A800821E0E06A102801D9102200E0DB
:10B47000E26A5146104600E03960401EFCD2114697
:10B480000FE030688006FCD4D8F80000030E05F801
:10B49000013B030C05F8013B030A05F8023B05F8E4
:10B4A000010C491EEDD2E06A801AE062E06A0028D1
:10B4B000D9D1B9F1000F0FD0C7F800A030688006CD
:10B4C000FCD4D8F80010002004E00A0E2A54090227
:10B4D000401CC0B24845F8D31021206800F0ADF8F8
:10B4E00012E0E06A514600E03960401EFCD2E06A9A
:10B4F00006E031688906FCD498F8001005F8011BB5
:10B50000401EF6D20020E0622168C1F870B4029BB0
:10B5100003B02046BDE8F04F0022012157F424B7C4
:10B520002DE9F04704460D469046994694F83000C0
:10B5300001280CD0012684F8306094F831000027EF
:10B54000012806D0022084F83070BDE8F087022080
:10B55000FBE76763022084F831004B46002201219B
:10B56000204657F401F7F8B9222084F83100C4F8D6
:10B570002480E869A062E869E0622068D0F81814C5
:10B5800041F00101C0F818142946204657F437F657
:10B590004A4641462046FFF741FF2168D1F818246A
:10B5A00022F00102C1F8182484F83160CBE72DE9BC
:10B5B000F04704460D469046994694F8300001281D
:10B5C0000BD0012684F8306094F831000027012860
:10B5D00005D0022084F83070B7E70220B5E7676332
:10B5E000022084F831004B4600220121204657F406
:10B5F000BBF6F8B9222084F83100C4F82480E86949
:10B60000A062E869E0622068D0F8181441F00101F6
:10B61000C0F818142946204657F4F1F54A46414629
:10B62000204600F012F82168D1F8182422F0010217
:10B63000C1F8182484F83160CCE7D0F8102422F047
:10B6400070020A43C0F8102470472DE9F047044601
:10B650000068924600F2044800F5806700F2144644
:10B66000D0F870940D46301F016821F00801016088
:10B6700021680120C1F8700470212068FFF7DDFF08
:10B68000A06A8008E0624FF0FF3319E004C500A013
:10B69000E06A102801D9102200E0E26A104600E0BA
:10B6A0003B60401EFCD2114605E030688006FCD4A9
:10B6B000D8F8000001C5491EF7D2E06A801AE0629E
:10B6C000E06A0028E4D110212068FFF7B6FF216866
:10B6D000C1F8709453462046BDE8F047002201218E
:10B6E00057F442B62DE9FC5F044600250026002CE5
:10B6F0000AD0207A01280AD04FF0010884F8088087
:10B70000607A002728B10BE00120BDE8FC9F0220F1
:10B71000FBE7E760276127725C49204614F43AF59D
:10B7200020680168D1F8101C01F0010111B12169F4
:10B73000F1B36CE0DFF858A1DAF8000040F0200027
:10B74000CAF800002068C0F804802068FFF7DEFB1C
:10B75000C5B2002D5CD1DFF83CB1DFF83C9120464A
:10B7600009F4C8F54D4840684DA106C9CDE900125D
:10B77000DAF8001001F007021DF802504543B0B19D
:10B78000DBF8000040F08071CBF80010D9F8001011
:10B7900041F00102C9F80020D9F80420D9F804309A
:10B7A0009B1AAB42FAD3C9F80010CBF8000000E0B6
:10B7B00013E0204600F099FEC5B2761CB6B215B172
:10B7C000B6F5FA7FCBD3606828B920684760206857
:10B7D000FFF79CFBC5B2A7611AE0E168B9B9EFF3C6
:10B7E0001086012181F31088C0F804802068FFF7DB
:10B7F0008DFB204609F4B6F3C5B20DB10320A0615C
:10B80000206847602068FFF781FB86F31088676037
:10B8100084F809802772284677E72DE9F0411C4813
:10B8200074300068850AAD021F4C2048006820492A
:10B83000884202D11F482AF4AFF5184E012030701B
:10B84000C70575B177F446F158B1D4E902018842D1
:10B8500012D1A0F18070B8420ED21748FFF742FF14
:10B860000AE0D4E90201884206D1A0F18070B84212
:10B8700002D21148FFF736FF0020307001F0F9F9CD
:10B88000E068BDE8F0412AF487B50000801A0600A0
:10B8900004C500A0FCED00E0001000E0D0408000F6
:10B8A0004030101810200000101F80008021800000
:10B8B000444F4F47002C0600641F80002DE9F047DD
:10B8C00005460E46EE4F3868C0F38824DFF8B4838F
:10B8D000DFF8B49310E0281BB04201DA2C4601E0F7
:10B8E000A01984B2386800EA080040EA8420386071
:10B8F00099F8020076F437F7AC42ECD310E0601B05
:10B90000B04201DA2C4601E0A01B84B2386800EA9C
:10B91000080040EA8420386099F8020076F423F7A2
:10B92000AC42ECD8BDE8F08770B5D74D698AE8899C
:10B93000FFF7C4FFD24E361F306800F01F040FE03F
:10B94000E978021B8A4201DA044601E06018C4B2B9
:10B95000306820F01F0020433060A87876F403F7A9
:10B9600068788442ECD370BD70B5C74D698A288A67
:10B97000FFF7A4FFC24E361F306800F01F040FE02F
:10B98000E978221A8A4201DA044601E0601AC4B258
:10B99000306820F01F0020433060A87876F4E3F68A
:10B9A00028788442ECD870BD0020B8498A8BA2F573
:10B9B0008E43443B02D1887800F01F00082803D052
:10B9C000092801D0002070470120704770B5FFF7AB
:10B9D000EBFF002854D0AD49888BA0F58E42443A45
:10B9E0004ED191F82900020605D5C0F34112801A04
:10B9F00000F01F0304E0C0F34112104400F01F03E5
:10BA000091F82B0000F01F029D4D143D28689E4CBC
:10BA1000C0F30440A0649A4E283E3068C0F3C4408E
:10BA2000E064206BFF2804D03C2805DD0C210820B1
:10BA300009E00A21062006E0202802DD0B2107206C
:10BA400001E00A21062019441F2900D31F21824248
:10BA500001D9101A00E000202A6822F4F81242EA04
:10BA600001412960316821F4780141EAC040306029
:10BA70002868C0F3044020653068C0F3C4406065A6
:10BA800070BD10B5FFF790FF002819D07F48808B5C
:10BA9000A0F58E41443913D179481438016821F456
:10BAA000F812794948310B8842EA0342026074482F
:10BAB00028380268898822F4780242EAC14101608C
:10BAC00010BD70472DE9F0414FF0E0244FF0806049
:10BAD000C4F800010227C4F80071D4F80002BD06C2
:10BAE00010F0006F01D0012000E000204FF480260C
:10BAF00040B3634834380068C0F3001010B1202010
:10BB000000F0B1F800F0A5F861490870087802F07B
:10BB100059DF18B1C4F80062C4F80061DFF8608131
:10BB200008F10C08D8F80000C0F3001008B1C4F800
:10BB30000051FF2000F097F86FF00400C8F80000F3
:10BB4000C4F880525348007808B1C4F80051C4F8D2
:10BB500000614FF08050C4F800014F480760BDE815
:10BB6000F08110B501F021F94B484FF08071001FB2
:10BB7000C0F88011490001600421016001F050D833
:10BB8000FFF79FFF73F47AF4BDE810405DF4B8B698
:10BB90002DE9F04101F009F93F4C4FF08070241F6E
:10BBA000C4F880014000206004200226206001F0DB
:10BBB00037D82660FFF785FF73F460F4D4F80001EE
:10BBC000B506A4F5807410F0006F01D0012000E0EC
:10BBD00000204FF4802740B3294834380068C0F370
:10BBE000001010B1202000F03EF800F032F8284993
:10BBF0000870087802F0E6DE18B1C4F80072C4F8E4
:10BC00000071DFF87C8008F10C08D8F80000C0F360
:10BC1000001008B1C4F80051FF2000F024F86FF0C4
:10BC20000400C8F80000C4F880521A48007808B12F
:10BC3000C4F8005104F5807427604FF080502060F4
:10BC4000801020601548C0F80061BDE8F0415DF447
:10BC500057B60B480C3000680949C0F30740203143
:10BC6000096808407047EFF31081012282F31088C1
:10BC7000034A6FEA00400C32106081F3108870476D
:10BC800038C500A0FF03F8FFF040800012328000AA
:10BC9000C84080005142800004E100E004E000E080
:10BCA00008B50E48006800900098800704D00098FE
:10BCB000C00301D4012008BD002008BD0849C0B25E
:10BCC0000860081F016841F00101016070470448E5
:10BCD000001F0068C0F340007047000038E200A079
:10BCE00084C500A0F0B589B006460C460025009535
:10BCF0000520019002950120039004950595069575
:10BD00000795089025804FF47A773B466A4601A94B
:10BD100030681CF48BF520889DF8001008432080C3
:10BD20003520019000953B466A4601A930681CF415
:10BD30007DF520889DF8001040EA0120208009B0A0
:10BD40000020F0BDFEB505460020019000903A208D
:10BD500002904FF47A763346012202A928681CF437
:10BD60009FF70446E4BB69462846FFF7BBFFBDF8D2
:10BD700000004FF00407400620D40620029033460E
:10BD8000012202A928681CF48BF70446FCB90120A3
:10BD90008DF80400BDF8000040F040008DF805006B
:10BDA0003346022201A928681CF47AF7044674B9C4
:10BDB0008749284609F462F2044644B9029733469B
:10BDC000012202A928681CF46BF7044644B10297CB
:10BDD0003346012202A928681CF462F72046FEBD02
:10BDE000FFE72046FBE738B505460C46284609F430
:10BDF00037F1002816D101208DF800008DF80140A0
:10BE0000022040EA14208DF802004FF47A730322D6
:10BE1000694628681CF444F7002803D16C49284679
:10BE200009F42CF238BD38B50446002000903120CA
:10BE30008DF80000022040EA11208DF80100204614
:10BE400009F40EF100280CD14FF47A7302226946EE
:10BE500020681CF425F7002803D15D49204609F429
:10BE60000DF238BD38B504460021009169462046E0
:10BE7000FFF738FFBDF8001041F400710091204633
:10BE800009F446F238BDF8B50646002400250095B1
:10BE9000F068504988420DD1009569463046FFF759
:10BEA00021FFBDF80010880525D43046FFF79BFF21
:10BEB000044620E03046FFF7D5FF044620001AD1A3
:10BEC00069463046FFF70EFFBDF80010880512D412
:10BED0003046FFF7A8FF044620000CD100956946C4
:10BEE0003046FFF7FFFEBDF80010880503D430464A
:10BEF000FFF779FF04462046F8BD10B5C168C9B206
:10BF0000C268C2F30742202A04D1162902D9FFF7DA
:10BF100019FF10BDFFF7B7FF10BD2DE9F041044632
:10BF2000EFF3118620680168D1F8101C01F00101BF
:10BF300001254FF00208002919D027490A7827491E
:10BF40000968C1F30221491C05FA01F11144C9B283
:10BF500081F31188EFF3108785F31088456020681E
:10BF6000FEF7D4FF84F8098087F310880BE02046A1
:10BF700009F4C0F1204608F4F5F710B10320A061E0
:10BF800001E084F809802046FFF7B7FF804660682B
:10BF900030B1204609F424F065724046BDE8F081D6
:10BFA000EFF31087012080F310882168002048609B
:10BFB0002068FEF7ABFF657287F31088F0B280F35C
:10BFC0001188EAE7064800F057BB054800F07DBB42
:10BFD000801A06001760850002E400E00CED00E026
:10BFE000641F800008B5684604F02ADA28B99DF875
:10BFF0000000022803D0012803D0002008BD022041
:10C0000008BD012008BD70B504460D46FFF7EAFFE4
:10C0100002280AD0012807D1206820F47F10206070
:10C02000286820F47F10286070BD284821680140EE
:10C03000216029680140296070BD1CB50190002075
:10C04000009001A96846FFF7DEFF0198204900F043
:10C05000AA3008601E4818300168C1F34001002969
:10C06000FAD11B4A0A211C321160016841F001011A
:10C0700001600168C1F340010029FAD11CBD1CB563
:10C0800000210191009001A96846FFF7BCFF10490B
:10C090000098091F08601CBD70B50D480568002494
:10C0A000FFF7A0FF022802D0012803D004E0074CCC
:10C0B000E44301E04FF47F14254206D02846FFF701
:10C0C000BCFF2846BDE87040D9E770BDFF03C0FF44
:10C0D00068C500A0F848416821F001014160C168CD
:10C0E00021F00071C160016821F001010160C168A7
:10C0F00021F08071C1607047F0480068002810D1BD
:10C10000ED48416841F001014160C16841F00071B2
:10C11000C160016841F001010160C16841F08071B6
:10C12000C160704710B5002200280CD0037A012BA3
:10C130000BD001230372447A0023012C07D0022282
:10C140000372104610BD012010BD022010BD836196
:10C15000DB4C2160F4E72DE9F04FADF5077D044697
:10C1600090461D460027A1F18076EFF311800690DE
:10C17000EFF310800590B1F1807F0ED320694A194A
:10C1800000F18070824208D8B8F1000F05D025B1C7
:10C19000A07A012808D1880706D00820A0610120D4
:10C1A0000DF5077DBDE8F08F207A012809D0012028
:10C1B0002072607A012806D00227002020723846BB
:10C1C000EEE70220ECE70020A06120680068D0F8CC
:10C1D000100C00F0010068B9204609F48BF02046ED
:10C1E00008F4C0F60746380002D00320A061B2E090
:10C1F0000220607206EB050AAAE0F0B2C0F5807575
:10C200007019824501D2AAEB060500200DF58E7942
:10C2100004E018F8001009F80010401CA842F8D3F8
:10C2200047AF21680868D0F8100C00F00100C0B1D9
:10C23000A3480068C8B1A34A1268C2F30222521C84
:10C240009040C0B280F31188EFF3108B012080F38F
:10C25000108848602068FEF759FE022060728BF358
:10C260001088A07A012804D03AE0012080F31088D9
:10C27000EAE776F42FF498B305F0F007FFF72AFF0A
:10C280000F2D06D925F00F0207AB47A9304676F4EB
:10C2900019F4280721D00020019002900390049007
:10C2A00049460DF1040B05F00F0904E03A188A5CC9
:10C2B0000BF80020401C8145F8D8F01901AB102282
:10C2C00001A976F4FFF3002007A904E03B181BF84E
:10C2D0000020CA54401C8145F8D807AFFFF70CFF77
:10C2E0004FF47A7000902B463A463146204608F4C7
:10C2F00027F707466068D8B920680168D1F8101C94
:10C3000001F00101A1B9EFF31089012181F3108837
:10C31000002141602068FEF7F9FD0120607289F379
:10C3200010886748006838B10698C0B280F3118859
:10C3300067B10120A0610EE0059818B1012080F3DB
:10C340001088F5E7002080F31088F1E72E44A84418
:10C35000B2453FF652AF606801287FF42EAF204609
:10C3600008F43EF60120607227E72DE9F05F0446ED
:10C370000E469B460025A2F1807AEFF31188EFF379
:10C380001089002E0CD1B2F1807F17D3206902EB07
:10C390000B0100F18070814210D8BBF1000F0DD06D
:10C3A000207A01280ED001272772607A01280BD04D
:10C3B0000225002020722846BDE8F09F0820A061D9
:10C3C0000120F9E70220F7E70020A061206800685B
:10C3D000D0F8100C00F0010068B9204608F48AF784
:10C3E000204608F4BFF50546280002D00320A061CE
:10C3F00072E002206072012E05D04FEA1A364FEA31
:10C400000636DA4466E0204608F438F60546280089
:10C4100062D0A76160E021680868D0F8100C00F0D5
:10C420000100C0B126480068E8B1264A1268C2F38C
:10C430000222521C9040C0B280F31188EFF31085A5
:10C44000012080F310884F602068FEF75FFD022016
:10C45000607285F310883146204608F43DF60546A3
:10C46000606820B11EE0012080F31088E6E72068B4
:10C470000168D1F8101C01F0010199B9EFF3108B9C
:10C48000012181F31088002141602068FEF73EFD04
:10C4900067728BF310880A48006830B108F0FF001B
:10C4A00080F31188A5B1A76116E0B9F1000F0BD098
:10C4B000012080F31088F5E7A0E200A03842800058
:10C4C000544280000CED00E0002080F31088E9E782
:10C4D00006F58056B2459ED8606801287FF469AFA2
:10C4E000204608F47DF5677263E710B58AB004460C
:10C4F0009F20029000200390012104910590069056
:10C5000007900890032009904FF47A7301AA02A9BA
:10C5100020681CF48BF1002811D1E06808B920696B
:10C5200078B19DF805009DF80410000200EB014071
:10C530009DF806100844E16881421CD100200AB031
:10C5400010BD9DF80400A0B1FF2812D09DF8051081
:10C55000090201EB00409DF806100844E0609DF8D8
:10C56000060000F00F014FF4803088402061002069
:10C57000E5E70120E3E70120E1E72DE9F04104468A
:10C580000020217A012906D001252572617A002731
:10C59000012903D020E00220BDE8F081EFF31086EE
:10C5A000012080F31088A761022060722068016872
:10C5B000D1F8101C01F0010119B145602068FEF7A7
:10C5C000A5FC204608F40CF5002800D0A56100D099
:10C5D000A561657286F310882772DDE72DE9F047C3
:10C5E000044600250026207A012806D0012727725C
:10C5F000607AA946012803D03AE00220BDE8F0871E
:10C60000EFF31088012080F31088C4F818900220FE
:10C61000607220680168D1F8101C01F0010119B1A5
:10C6200047602068FEF772FC4FF4FA7A204608F45F
:10C6300061F62046FFF759FF0546761CB6B20DB1EC
:10C640005645F3D305B1A761606860B920680168F9
:10C65000D1F8101C01F0010129B9C0F8049020683C
:10C66000FEF754FC677205B1A761677288F3108802
:10C6700084F808902846C1E710B504466068002891
:10C6800001D0012010BD607A022807D0607A2228EC
:10C6900004D0607A422801D0012010BD607A0228BF
:10C6A00009D0204608F4C0F50028F6D1607A222887
:10C6B00009D0412060722168002048602068FEF7A0
:10C6C00025FC002010BD2120F4E710B50446606869
:10C6D000002801D0012010BD607A022807D0607ABE
:10C6E000212804D0607A412801D0012010BD2168A2
:10C6F000012048602068FEF709FC607A022809D012
:10C70000204608F483F50028F0D1607A212803D070
:10C7100042206072002010BD2220FAE72DE9F05F70
:10C7200004460D46EFF31187EFF31089002D0ED06C
:10C73000207A01280DD001262672607A4FF0000A77
:10C74000012808D0022584F808A0284634E60120F4
:10C7500032E6022030E6C4F818A021680868D0F854
:10C76000100C00F001004FF0020BD0B12C48006813
:10C77000F8B12C4A1268C2F30222521C9040C0B297
:10C7800080F31188EFF31088012080F310884E6049
:10C790002068FEF7BBFB2046A8470546280010D1BD
:10C7A0000BE02046A8470546280028D184F809B0A8
:10C7B00007E0012080F31088E4E784F809B088F3EB
:10C7C00010886068C8B920680168D1F8101C01F0B1
:10C7D000010191B9EFF31088012181F31088C0F8AD
:10C7E00004A02068FEF792FB667288F310880C485C
:10C7F000006848B1F8B280F3118805B1A66160689D
:10C800000128A0D166729EE7B9F1000F03D0012084
:10C8100080F31088F1E7002080F31088EDE7000036
:10C82000544280000CED00E070B504460D46A84E61
:10C830002868012852D004F58264E06A20F00100E3
:10C84000E062A868D4F8F01721F0FF010143C4F8B2
:10C85000F017D4F8F40720F00100C4F8F407D4F876
:10C86000F40720F01E0040F00200C4F8F407A869A5
:10C87000D4F8F41721F0200141EA4010C4F8F4077D
:10C880006869D4F8F41721F0400141EA8010C4F837
:10C89000F407D4F8F40740F48070C4F8F407D4F82F
:10C8A000F80720F0FF0040F03300C4F8F8072068D4
:10C8B00040F0700020600020E064206840F0080034
:10C8C0002060A4F58264A8686B2864D057DC032834
:10C8D0005AD00B285FD03B286ED15CE0D4F8100C06
:10C8E00000F0010070B1204600F0E4F8D4F80C0C20
:10C8F00020F00100C4F80C0CD4F8100C00F001007A
:10C900000028F9D104F20C44206820F4404040F49F
:10C9100080402060206820F44050206068692168D1
:10C9200021F0100141EA00102060A869216821F07F
:10C93000080141EAC00020602869216821F0040153
:10C9400001432160206840F001002060606840F0F1
:10C9500080006060E868616821F0700101436160F7
:10C9600001202065606840F008006060606840F069
:10C9700003006060606920F0FF00606194E0BB2804
:10C9800002D0EB2818D10FE0D4F8080C20F4706026
:10C99000C4F8080C10E0D4F8080C20F4706040F4DF
:10C9A0008070C4F8080C07E0D4F8080C20F470601C
:10C9B00040F40070C4F8080C204600F07BF868686A
:10C9C000012865D13068C0F34052306820F400106F
:10C9D0003060206800F4F063206820F4F06020608C
:10C9E000206840F008002060206840F010002060BF
:10C9F000606820F00F006060606840F010006060C8
:10CA00003448017819B9206840F00200206000BF66
:10CA100000BF00BF00BF00BF00BF00BF00BF00BF1E
:10CA200000BF00BF00BF00BF00BF00BF00BF00BF0E
:10CA300000BF00BF00BF00BF00BF00BF00BF00BFFE
:10CA400000BF00BF00BF206900F001000028FAD13C
:10CA5000206820F00800206019B9206820F002004A
:10CA60002060206820F00100206000BF00BF00BFF0
:10CA700000BF00BF00BF00BF00BF00BF206820F4A0
:10CA8000F060184320601AB1306840F40010306044
:10CA9000D4F80C0C40F00100C4F80C0CD4F8100CC5
:10CAA00000F001000028F9D0306840F0200030602C
:10CAB000012070BD016841F00101016000BF00BFAD
:10CAC00000BF00BF00BF00BF00BF00BF00BF704776
:10CAD00004C500A0D040800080480168C1F3C011A7
:10CAE00000290BD0016821F480510160016841F4F4
:10CAF00080710160016821F0400101607047774852
:10CB00000168C1F3C01100290BD0016841F0400158
:10CB10000160016821F480710160016841F4805175
:10CB20000160704740F080406D490860086840F03F
:10CB3000804041F8F409D1F8F400C0F38070002877
:10CB4000F9D170471CB568464EF4A8F16548DDE997
:10CB50000012C0E902121CBD7CB568464EF49EF17D
:10CB6000604CDDE90001C4E9040104F1100004F1A6
:10CB7000080500682968401A20F070406FF078417D
:10CB800088421BD3002001905748006801A973F424
:10CB90004DF72060FCF3D3F05449FCF35DF14FF006
:10CBA0007C51FCF301F1FCF329F32968084420F0DF
:10CBB0007040FFF7B7FF6068401C60607CBD4FF0BD
:10CBC0003041086BC0F3C0300028FAD08A6B886B04
:10CBD0009042FCD0704741483C300168C1F3C031FD
:10CBE0000029FAD14FF03041086BC0F3C030002863
:10CBF000FAD1704739480068C0F3C01000280FD040
:10CC00003B48007880B135483C300068C0F3C03004
:10CC100050B13848006810F0007F03D0012002E0D6
:10CC200001207047002008B10020704701207047A4
:10CC300010B53148FFF720FDFCF394F4BDE8104037
:10CC40002D48FFF742BD10B52B48FFF715FDFCF34B
:10CC500015F5BDE810402848FFF737BD10B5264848
:10CC6000FFF70AFDFCF3F2F4BDE810402248FFF79D
:10CC70002CBD10B5FEF778FEFFF741FF1D48006898
:10CC800010F0007F01D0012000E00020002804D037
:10CC90001A480068BDE81040004710BD18480068F9
:10CCA00080F30888BFF36F8FFEF7B7BD08B50B4858
:10CCB0003C300068C0F3C03000280CD00020009049
:10CCC00006486C30006808490968401A694673F4E0
:10CCD000ADF6400808BD002008BD000004C500A056
:10CCE000F40000B05842800000E200A000401C4464
:10CCF0007042800000E200E0641F80006824800031
:10CD0000244080000D49C0B20860081F016841F04E
:10CD1000010101607047EFF31081012282F3108856
:10CD2000064A6FEA0040403A106081F3108870476D
:10CD30000248001F0068C0F34000704784C500A08F
:10CD400010B5FEF7F1FDFEF741FE00201D4A1E4919
:10CD500052F820301B6841F82030401C3128F7D3AE
:10CD60001A4800681A4A80B21043C1F8C400194832
:10CD7000016821F47F01016016481038016821F034
:10CD8000F861016010BD10B500200F4A0D4952F83E
:10CD9000203051F820402360401C2528F7D308F4A8
:10CDA00039F3BDE81040FEF76CBE10B52520064AE9
:10CDB000044952F8203051F820402360401C3228AA
:10CDC000F7D310BD88428000A47280000CED00E013
:10CDD0000000FA0550C500A000F446B600F472B693
:04CDE00000F458B64D
:04000005010020C90D
:00000001FF
