:020000040101F8
:1050000000008200355301013D530101F14C800045
:10501000FF6F0101FD6F01012D7101010000000012
:10502000000000000000000000000000994E800019
:1050300047530101000000009D5201013170010140
:1050400000F002F800F0C4F80AA090E8000C8244D6
:105050008344AAF10107DA4501D100F0B9F8AFF2B3
:10506000090EBAE80F0013F0010F18BFFB1A43F046
:10507000010318473C8401008C8401000A444FF06E
:10508000000C10F8013B13F0070408BF10F8014BA7
:105090001D1108BF10F8015B641E05D010F8016BEC
:1050A000641E01F8016BF9D113F0080F1EBF10F850
:1050B000014BAD1C0C1B09D16D1E58BF01F801CB73
:1050C000FAD505E014F8016B01F8016B6D1EF9D5F6
:1050D0009142D6D370470000103A24BF78C878C1F7
:1050E000FAD8520724BF30C830C144BF04680C60EE
:1050F000704700000023002400250026103A28BF36
:1051000078C1FBD8520728BF30C148BF0B60704739
:105110006E2900F0C584702900F04182662916F0DE
:10512000AD86652916F0AA86672916F0A78661293B
:1051300016F0A68603681B0A28BF41F08001692982
:1051400000F0B281642900F0AF81752900F0AC81D4
:105150006F2900F0C485782900F00D82E92900F05C
:105160005F85E42900F05C85F52900F05985EF2979
:1051700000F0C185F82900F00C820368DB0928BF24
:1051800041F08001632900F0CE84732900F0D384BC
:10519000E32901F09B81F32901F0A08100207047F1
:1051A0001FB516F032FE00F0DEFA01F0C7F9040078
:1051B0000020002115F0A6FF401C606000200021A7
:1051C00015F08AFFE06000F0E3FB1FBD10B510BDD5
:1051D000DFF80CD0FFF7E4FF10F008FF01F064FAED
:1051E0000000820003B4FFF7F1FF03BC02F072FC81
:1051F00002F0FF0343EA032242EA024200F080BBCE
:105200005858524701000000155500000050010198
:10521000005001016E4D55490101000000000000E1
:10522000000000000000000000000000000000007E
:10523000000000000000000000000000000000006E
:105240002C4B19680868B0E8F04F80F30988BFF369
:105250006F8F4FF0000080F311887047000000004E
:1052600008480068006880F308884FF0000080F369
:10527000148862B661B6BFF34F8FBFF36F8F00DF44
:1052800000BF00BF08ED00E0DFF80C00016841F44A
:1052900070010160704700BF88ED00E0EFF3098006
:1052A000BFF36F8F134B1A681EF0100F08BF20ED6D
:1052B000108A20E9F04F106009B44FF0300080F3FD
:1052C0001188BFF34F8FBFF36F8F15F027F94FF0A1
:1052D000000080F3118809BC19680868B0E8F04F35
:1052E0001EF0100F08BFB0EC108A80F30988BFF3DE
:1052F0006F8F704744468000EFF3058070470000D1
:105300000B49D1F800C04A685CF8043B10681844A7
:1053100042F8040B8C4528BFA1F1DC0C8A4228BF5F
:10532000A1F1DC02C1F800C04A6020F000407047E3
:105330009CA581000648804706480047FEE7FEE737
:10534000FEE7FEE7FEE7FEE7FEE7FEE7FEE700001A
:10535000FD7001012D6002017CB51D4616460C0052
:10536000009001D02044401E074B7B442A466946EA
:105370000190304600F0ADFB05461CB100206946A7
:1053800000F0BAFB28467CBD950700000FB4044925
:1053900010B503AA029800F0D3FB10BC5DF814FB13
:1053A000FC4380000FB41CB5084B06AA7B44694639
:1053B0000090059800F08DFB04460020694600F03F
:1053C0009BFB20461CBC5DF814FB00004907000055
:1053D0000FB47CB50C0009AA009001D02044401EF7
:1053E000084B7B4469460190089800F072FB054623
:1053F0001CB10020694600F07FFB28467CBC5DF8AC
:1054000014FB00001D07000070B5044685690068A4
:10541000C10601D5302600E02026C00707D070BDA8
:10542000D4E9012130469047206A401C20626D1E5D
:10543000F6D570BD70B5044685690078C00707D100
:1054400070BDD4E9012120209047206A401C2062D1
:105450006D1EF6D570BD70B50C460546012A05D007
:105460002878800600D5EA69002302E0012305E0E0
:105470005B1C934202D2E05C0028F9D1A869E618CF
:10548000C01AA861286A184428622846FFF7BCFFA2
:1054900004E0D5E9012114F8010B9047B442F8D398
:1054A0002846FFF7C7FF70BD2DE9F04106460024EE
:1054B00010687529314616A510D000F086FA00282C
:1054C00002DA404213A507E031688A0701D512A528
:1054D00002E0490704D511A5012401E000F07EFA9D
:1054E00000210A2206F1240709E0B0FBF2FCB0FB20
:1054F000F2F302FB1C00303078541846491C002897
:10550000F3D123462A463046BDE8F04100F06FBA99
:10551000000000002D0000002B0000002000000013
:10552000F0B40D460188090502D5214C7C4402E007
:105530001F4C7C440E34002100F1240608E002F0E8
:105540000F071209E75D42EA03721B097754491CF1
:1055500052EA0307F3D102780023120704D5702D15
:1055600006D009B1022311342246F0BC00F03FBA44
:1055700001231034F8E770B504460D462146106843
:1055800000F02CFA024629462046BDE87040002370
:10559000C6E7D21D22F00703D3E90023C0E7036862
:1055A000126843F0200303600823C3610023B7E7B8
:1055B000107101002DE9F05F894604464FF0000AA2
:1055C000DFF874B1FB44C0F820A02046E1688847AA
:1055D000002874D0252806D0D4E901219047206AFC
:1055E000401C2062F1E700265F462046E1688847BC
:1055F0002028054607DB312D05D2781910F8200C3C
:1056000008B10643F1E7B00701D526F00406C4F857
:105610001CA00027C4F818A02A2D09D0284602F0A3
:10562000FBF938B304EB8708303DC8F8185019E08F
:1056300059F8041B204604EB87029161E168884712
:10564000012F054618D1E069002820DA26F020064F
:105650001DE0D8F8180000EB800005EB4000303862
:10566000C8F818002046E1688847054602F0D4F9DA
:105670000028EED1012F0AD02E2D08D12046E16856
:1056800088477F1C0546022F46F02006C4DBA06930
:10569000002803DA404246F00106A061F00701D07D
:1056A00026F010066C2D0BD0682D09D04C2D39D06A
:1056B0006A2D35D0742D35D07A2D33D016E038E0F0
:1056C000E1682F4620468847B842054609D16C2F2D
:1056D00026D04FF48060E16806432046884705469F
:1056E00004E06C2F1AD04FF4807006430DB3A5F17F
:1056F0004100192802D8203546F400664A4629465A
:10570000204626604E46FFF703FD80B101280BD0EE
:10571000F61D26F0070000F1080956E74020E4E7EF
:105720008020D8E70020D6E706F104094DE7284697
:1057300052E7206ABDE8F09FA07001000B4910B548
:10574000A1F17C020A4CC2E93712372106E000EBD6
:10575000104342F82130074B00FB03400B1EA1F120
:105760000101F4DC10BD0120E8E700003CA5810048
:10577000E119D666CD0D010040EA010310B59B0783
:105780000FD1042A0DD310C808C9121F9C42F8D0AB
:1057900020BA19BA884201D9012010BD4FF0FF305C
:1057A00010BD1AB1D30703D0521C07E0002010BD72
:1057B00010F8013B11F8014B1B1B07D110F8013BFE
:1057C00011F8014B1B1B01D1921EF1D1184610BDDF
:1057D00010B5431C02E010F8011B71B18107FAD12A
:1057E0004FF0013202C88C1A8C4314EAC211F9D06E
:1057F000C01A0A0603D0C01E10BDC01A10BD0A048C
:1058000001D0801E10BD0902FCD0401E10BD032A2D
:1058100040F2308010F0030C00F0158011F8013BCD
:10582000BCF1020F624498BF11F801CB00F8013BB4
:1058300038BF11F8013BA2F1040298BF00F801CB78
:1058400038BF00F8013B11F0030300F02580083A4F
:10585000C0F0088051F8043B083A51F804CBA0E8A6
:105860000810F5E7121D5CBF51F8043B40F8043BFB
:10587000AFF30080D20724BF11F8013B11F801CB30
:1058800048BF11F8012B24BF00F8013B00F801CB01
:1058900048BF00F8012B704710B5203AC0F00B80CC
:1058A000B1E81850203AA0E81850B1E81850A0E824
:1058B0001850BFF4F5AF5FEA027C24BFB1E818507E
:1058C000A0E8185044BF18C918C0BDE810405FEAEE
:1058D000827C24BF51F8043B40F8043B08BF70476A
:1058E000D20728BF31F8023B48BF11F8012B28BF6F
:1058F00020F8023B48BF00F8012B70474FF0000230
:105900000429C0F0128010F0030C00F01B80CCF1D1
:10591000040CBCF1020F18BF00F8012BA8BF20F83F
:10592000022BA1EB0C0100F00DB85FEAC17C24BF93
:1059300000F8012B00F8012B48BF00F8012B70473D
:105940004FF0000200B5134694469646203922BF18
:10595000A0E80C50A0E80C50B1F12001BFF4F7AF63
:10596000090728BFA0E80C5048BF0CC05DF804EB45
:10597000890028BF40F8042B08BF704748BF20F8B3
:10598000022B11F0804F18BF00F8012B7047000068
:1059900070B5064C7C44064D7D4403E020682044ED
:1059A0008047241DAC42F9D170BD0000947C0100F9
:1059B000947C010010B500F0A9F9006810BD10B585
:1059C000044600F0A3F9046010BD09684A0501D53A
:1059D00040B27047C905FCD500B2704709684A0556
:1059E00001D5C0B27047C905FCD580B270472DE91A
:1059F000F0470D4699469246044600F12408016896
:105A0000880604D5E06921F01001216000E0012042
:105A1000A84201DD471B00E00027A1697A1902EBCB
:105A20000900081AA0612078C00602D42046FFF7BA
:105A3000EBFC002608E0D4E901211AF806009047A3
:105A4000206A401C761C20624E45F4DB2078C0069C
:105A50000AD52046FFF7D8FC06E0D4E90121302022
:105A60009047206A401C2062381EA7F10107F4DC31
:105A700007E0D4E9012118F805009047206A401C8E
:105A80002062281EA5F10105F3DC2046FFF7D2FCB9
:105A90002078000602D50220BDE8F0870120FBE750
:105AA00011680268006A530501D508700AE0D30541
:105AB00001D5088006E0130603D5C217C1E900022C
:105AC00000E008600120704701694A1C0261087803
:105AD000704700B58FB0CDE901310021059105492E
:105AE0007944CDE9031011466846FFF763FD0FB016
:105AF00000BD0000E5FFFFFF0A6802F8010B0A6025
:105B00007047D1E900239A4202D2531C0B601070F7
:105B1000704710B5436913B1AFF3008001E0FFF7A0
:105B20009AFC012010BD127800F124010A700022B5
:105B30004A700122EDE711684FF0FF32E9E70000FB
:105B4000074B70B50D467B44FFF7C3FF044628465C
:105B500000F0C8FC10B14FF0FF3070BD204670BDA2
:105B6000537700002DE9FF5F15468A460446DFF8AB
:105B7000AC80F8440027D8E900103E46CDE900107B
:105B800010E03AF816106A4602A800F0AFFC411C7B
:105B900007D02178890603D5E269391891420DD8DA
:105BA0000744761C2078800602D5E069B84205DDFE
:105BB000AE42E6DB3AF816000028E2D1A069C01B2D
:105BC000A0612046FFF720FCD8E90010CDE90010C5
:105BD000002017E03AF818106A4602A800F086FC88
:105BE000B0F1FF3F81460BD000250DF1080B05E019
:105BF000D4E901211BF8050090476D1C4D45F7D3F2
:105C000008F10100B0428046E4DB206A384420629B
:105C10002046FFF70FFCBDE8FF9F0000066B010068
:105C20002DE9F0418046D21D22F007020025D2E97D
:105C30000002F52915A614D0011E72F1000106DA42
:105C40000023D0EB030063EB020211A608E0D8F8B2
:105C500000108B0701D50FA602E0490701D50EA65B
:105C600001251146002408F1240704E000F052F851
:105C700030323A55641C50EA0102F7D12B463246C5
:105C800021464046BDE8F041FFF7B1BE00000000EC
:105C90002D0000002B0000002000000030B4002187
:105CA00000F1240408E002F00705D208303542EA8A
:105CB0004372DB086554491C52EA0305F3D10468BA
:105CC000002310A2250707D5A40600D421B1C4697A
:105CD00001230DA2641EC46130BCFFF788BE10B55D
:105CE000044621461068FFF779FE02462046BDE8CB
:105CF00010400023D2E7D21D22F00701D1E9002392
:105D0000CCE70000000000003000000000487047B1
:105D1000A4A5810030B5B0F10A024FEA900E71F1EE
:105D200000034EEA817EB0EB0E0061EB91014FEA79
:105D3000101E4EEA017E10EB0E0041EB11114FEAEE
:105D4000102E4EEA016E10EB0E0041EB11214FEACE
:105D5000104E4EEA014E10EB0E0041EB114140187F
:105D600041F100014FEAD00040EA41704FEAD10111
:105D700010EB80054FEA810444EA907444EB01047F
:105D80006D1944EB0404521BA3414FF0000348BFBC
:105D90000A3200D530BD401C41F1000130BD7047D2
:105DA0002DE9FF4F0C461E464FF0FF378BB0D2E96E
:105DB0000001DDF860800A908A46C1F30A5505B9F2
:105DC0003D46002108464FF00000BAF1000F00F4F4
:105DD000400005DA00EB80004FF4400101EA50007A
:105DE0004FEA9059B9F1010F00DDB9460A9850EA1F
:105DF0004A000ED044F61050A5F2FF3545432F144B
:105E0000B8F1000F1ED07542291E1EDDC9F1000237
:105E10001CE0B8F1010F4FF0000001D0302103E089
:105E2000F24305E02154401CB042FBDB3046002227
:105E3000002121540B99C1F80880C1E900200FB05E
:105E4000BDE8F08FBD1B6D1CDEE74A4600DA6942F3
:105E500006A800F0B7FB06AB93E8070003AB83E8A6
:105E6000070050460A9900F069FC8DE80700A0F58C
:105E700000501F3800900398002D0ADD42F21F01E8
:105E80004A460844002303A90390684600F0D2FE66
:105E900009E0A0F500504A461F38002303A90390EB
:105EA000684600F0DCFE8DE807000004000C03D01B
:105EB0004FF0FF30410800E01046B8F1000F03D06A
:105EC0000022009215461EE0751E05D4FFF722FF42
:105ED000303262556D1EF9D5B3460122084302D017
:105EE00000227F1C04E02078302801D100227F1E90
:105EF000002A099784D01DE0112D07DAFFF70AFF69
:105F0000303262556D1C50EA0102F5D1084302D0CF
:105F10000098C8B10EE00021681E05E0235C625CB9
:105F200063542254401E491C8142F7DBAB46A81B38
:105F3000401E0990002004F80B000B98099AC0F845
:105F40000880C0E9002B7AE711264FF0000857E7D8
:105F50002DE9F04F88460446D21D22F0070191B08A
:105F6000D1E90001CDE90A0101F037F902460B98A9
:105F7000C00F01D02D2007E02068810701D52B201C
:105F800002E0202101EAC000032A099001D0072A7B
:105F900005DB03464146204600F0D4FA0BE12078A9
:105FA000800601D5E06900E00620B8F1650F814662
:105FB00006D0B8F1660F18D0B8F1670F70D131E094
:105FC0000020B9F1110F009001DB112301E009F16C
:105FD00001030AAA01A90CA8FFF7E2FEDDE90C7093
:105FE000002609F10105834647E001204B46009059
:105FF0004FF000470AAA01A90CA8FFF7D1FEDDE97E
:106000000DB00C995D46002610B909F101000D187C
:10601000B9EB050003D4C0F1FF3609F10105A5EB8A
:1060200009002BE0B9F1010F01DA4FF0010900205E
:10603000B9F1110F0090484601DD112300E003463D
:106040000AAA01A90CA8FFF7ABFEDDE90C704D46CA
:1060500000268346207800070AD4AB4500DA5D4667
:1060600001A8012D04DD411911F8011C302907D0C8
:106070004F4502DA17F1040F04DA012082460FE0DF
:106080006D1EEEE7002F02DCED1B3E4403E0781CA2
:10609000A84200DD7D1CB81B00F1010A4FF000474B
:1060A0002078000703D4AA4501DB4FF0FF3A002116
:1060B000B7F1004F0DF143088DF8431024D00220B2
:1060C0002B23002F01DA7F422D230A21021EA0F18B
:1060D000010000DC5FB197FBF1FC97FBF1F201FBE3
:1060E0001C7C17460CF1300C08F801CDEEE7A8F146
:1060F000010003702188090501D5452100E06521D3
:10610000A0F1010800F8011C09980FA9A1EB0807EC
:10611000FF1D00B10120411901EBEA70A16938446B
:10612000081A401EA0612078C00602D42046FFF75E
:106130006BF9099828B1D4E901219047206A401CE5
:1061400020622078C00622D52046FFF75DF91EE0C8
:10615000002E04DBB34502DD01A8805D00E03020A5
:10616000D4E901219047206A401C2062761CAAF1E4
:1061700001005FEA000A0AD100F0E0F9C068016896
:10618000405CD4E901219047206A401C2062281E0F
:10619000A5F10105DCDC07E0D4E9012118F8010BC9
:1061A0009047206A401C2062381EA7F10107F3DCEB
:1061B0002046FFF73FF9032011B041E62DE9F04FEB
:1061C00004460D46D21D22F0070089B0D0E90097A1
:1061D0004846394601F001F80246F80F01D02D2358
:1061E00007E02068810701D52B2302E0202101EA86
:1061F000C0038DF820300BB1012000E00020032AFD
:10620000824601D0072A04DB2946204600F09AF98D
:106210003FE12078800601D40D2500E0E569C7F351
:106220000A560D2D49DA00214FEA175B08464FF058
:106230000000002F00F4400007DA00EB80004FF46C
:10624000400100EBD07001EA60008115012901DDF9
:106250004FF0FF3100224FEA850CBCF1180F06D336
:106260001346ACF118004FF08052C24003E04FF4E7
:10627000801323FA0CF30CF10C0CBCF1200F04D3A7
:10628000ACF1200C09FA0CF001E007FA0CF000293F
:106290004FF0004801DD18B90FE00ED140450CD396
:1062A00019EB02095F4121B9404502D19F4329EA18
:1062B0000209BBEB175F00D0761C2088000502D5D1
:1062C0007B48784402E07A487844193808AA302399
:1062D00002F80A30037C0AF10101002E0AF1020AD9
:1062E00053546A4602DC4FF0300101E04FF03101B7
:1062F0004FF001088DF8001002D0A6F2FF3603E03F
:1063000059EA470100D06B4E002D02DC21780907C5
:1063100004D54FF002082E218DF80110C44600214B
:106320000BE0C7F303433F01C35C491C6D1E02F839
:106330000830052908F1010801DA002DF1DC0021FF
:106340000CE000EB1973491C1B786D1E082902F83C
:1063500008304FEA091908F1010801DA002DF0DCD4
:1063600021688B0602D516E0A8F10108E04505DD9D
:1063700002EB080313F8013C302BF5D0B8F1000F05
:1063800009DD02EB080313F8013C2E2B03D10907AA
:1063900001D4A8F10108002D05DD3E2102F8081006
:1063A0006D1E08F10108407C002E02F8080008F17B
:1063B000010804DA2D20764202F8080002E02B20C2
:1063C00002F808000A214FF47A70864208F10108A9
:1063D0000BDB96FBF0F3303302F8083096FBF0F35A
:1063E00008F1010800FB136601E0642E0CDB642059
:1063F00096FBF0F3303302F8083096FBF0F308F127
:10640000010800FB136601E00A2E06DB96FBF1F0A3
:10641000303002F8080008F1010896FBF1F001FBAA
:106420001060303002F80800A16908F1010808EB9B
:10643000050202EB0A00081AA0612078C00602D407
:106440002046FEF7E1FF216A08AE01EB0A00206258
:1064500004E0D4E9012116F8010B9047BAF1010AD2
:10646000F7D22078C00602D52046FEF7CDFF6E4653
:1064700009E016F8010B3E280FD0D4E9012190471E
:10648000206A401C2062B8F10108F2D22046FEF7D3
:10649000D1FF09B00320BDE8F08F206A28442062B4
:1064A00003E0D4E90121302090476D1EEBD3F8E7DB
:1064B0007564010002FCFFFF10B5436913B1AFF32F
:1064C000008001E0FFF74EFB012010BD128800F1B3
:1064D000240182840022C2840122EDE711684FF07A
:1064E000FF32E9E7007B00F08000704770B5164688
:1064F0000C46054600F01AF8036893F801010128DC
:1065000006D0FF2C0FD8185D68B101202C7070BD2B
:10651000D3F807013246214603F207130344284605
:10652000BDE8704018474FF0FF3070BD10B500F067
:1065300005F8001D10BD00BFCD4B0100004870479D
:10654000C4A581002DE9F0411F46044603260168D9
:10655000072A01F4006004DB08B116A505E016A5C2
:1065600003E008B115A500E015A521F0100020609A
:10657000A069C01EA0610FB1401EA0612046FEF7B9
:1065800043FF4FB1D4E9012138469047206A401CAF
:106590002062C01C206206E0206AFAE7D4E90121EB
:1065A00015F8010B9047761EF8D22046FEF742FF01
:1065B000BDE8F0814E414E006E616E00494E4600CE
:1065C000696E66002DE9F047814616468AB0354867
:1065D00078440DC88DE80D0032487844801C03AC27
:1065E0000DC884E80D0041F69B300844372190FB2C
:1065F000F1F290FBF1F5A5F1800501FB12041B3CC3
:1066000002D56442012000E00020DFF898A0804617
:106610000027FA44AAF1BE0A0EE0E0070AD032468B
:10662000684607EB470101230AEB810100F017FBE5
:106630008DE8070064107F1C002CEED1194F7F44B9
:10664000AE3F19E0E80715D007EB04100DF1180A6A
:1066500090E80E008AE80E00C068F04201D1981957
:1066600008903246012306A903A800F0F8FA03AB0C
:1066700083E807006D10641C002DE3D14FF0010387
:1066800032466946B8F1000F03A802D000F0D2FAF2
:1066900001E000F0E4FAC9E90001C9F808200AB0F5
:1066A000BDE8F087F861010010B50446AFF3008043
:1066B0002046BDE81040FEF795BD00004FF0013CBC
:1066C00050F8042B51F8043B9A4221D1A2EB0C0361
:1066D000934313EACC1317D150F8042B51F8043B21
:1066E0009A4215D1A2EB0C03934313EACC130BD1BE
:1066F00050F8042B51F8043B9A4209D1A2EB0C0349
:10670000934313EACC13DBD04FF00000704700BF77
:10671000D01A01BAB1FA81F101F0180122FA01F0A0
:10672000CB40C1F12001DBB2C0B2C01A2CFA01F398
:10673000D11A914311EAC311E6D170475FEA400CC8
:1067400008BF91F0000F4FEA8C234FEAC12243EAC1
:1067500051514FEA1C5018BF00F5F0404FEA30008D
:1067600018BF41F000415FEA6C5C00F02980BCF189
:10677000FF3F08BF40F080407047130C06BF120473
:106780004FF0100C4FF0000C130E04BF12020CF16E
:10679000080C130F04BF12010CF1040C930F04BF7B
:1067A00092000CF1020CD30F04BF52000CF1010C4B
:1067B00011464FF00002A0F11F00A0EB0C00704743
:1067C00011F0004F08BF704731F000413FF4D5AFE2
:1067D0000B0C06BF09044FF0100C4FF0000C0B0E11
:1067E00004BF09020CF1080C0B0F04BF09010CF1E6
:1067F000040C8B0F04BF89000CF1020CCB0F04BFFB
:1068000049000CF1010CCCF12003A0EB0C0022FAA2
:1068100003F302FA0CF241EA030100F101007047B0
:1068200020F07F4C80EA030023F07F47ACEB0703A6
:1068300003F57C5300F0004003F1FF032DE980498C
:106840004FEA154B09B44FEA144325EA0B4E24EAEC
:1068500003480FF2042606EB132749083E785FEA47
:10686000320203FB0667C7F5000707FB06F64FEA8F
:1068700054374FEAD64606F1020607FB066CCCF108
:10688000005C4FEA1C472CEA074C07FB06F40CFBA4
:1068900006F504EB15464FEA961634BF00204FF07C
:1068A00000404FEAD13706FB07FC4FEA1C4C0CFBBB
:1068B0000BF7D21B03FB0CF761EB07010CFB0EF788
:1068C000B0EB074072EB17420CFB08F734BFA2EBAA
:1068D0000742B2EB074261EB17414FEA0C444FEA23
:1068E000910706FB07FC4FEA1C4C0CFB0BF7B0EBC7
:1068F000C74072EB573203FB0CF734BFA2EBC74221
:10690000B2EBC74261EB57310CFB0EF7B0EBC7009F
:1069100072EB57720CFB08F734BFA2EBC702B2EB65
:10692000C70261EB5771039F4FEA816141EA9211FF
:1069300004EBCC044FEAD1374FEA826206FB07FC36
:1069400042EA90124FEA80604FEA1C4C0CFB0BF7B6
:10695000D21B03FB0CF761EB07010CFB0EF7B0EB4E
:10696000074072EB17420CFB08F734BFA2EB07425B
:10697000B2EB074261EB17414FEA8C554FEA9107A2
:1069800004EB9C2406FB07FC4FEA1C4C0CFB0BF7AA
:10699000B0EBC74072EB573203FB0CF734BFA2EBEE
:1069A000C742B2EBC74261EB57310CFB0EF7B0EBBD
:1069B000C70072EB57720CFB08F734BFA2EBC7029B
:1069C000B2EBC70261EB577115EB4C254FEA8161C1
:1069D00041EA92114FEA82624FEAD13742EA9012BD
:1069E00006FB07FC44F100044FEA80604FEA1C4CB0
:1069F0000CFB0BF7D21B03FB0CF761EB07010CFB45
:106A00000EF7B0EB074072EB17420CFB08F734BFF0
:106A1000A2EB0742B2EB074261EB174115EB1C15E5
:106A20004FEA813141EA92414FEA823242EA904292
:106A30004FEA80304FEA0C7644F1000448EA034301
:106A40004EEA0B484FF0000EB2EB080C71EB030757
:106A500024BF624639464EEB0E0E4FF0000B001875
:106A6000524149414BEB0B0BB2EB080C71EB0307A6
:106A70007BF1000B24BF624639464EEB0E0E4FF001
:106A8000000B0018524149414BEB0B0BB2EB080CC9
:106A900071EB03077BF1000B24BF624639464EEBD6
:106AA0000E0E51EA020718BF46F0010616EB0E76ED
:106AB00055F1000254F1000103D5BDE88901BDE89C
:106AC0000088BDE88901BDE80048B619524141EB94
:106AD0000101A3F10103704780807F7E7D7C7B7A7A
:106AE0007978777676757473727171706F6E6E6D7A
:106AF0006C6C6B6A6A696868676666656464636320
:106B000062616160605F5F5E5E5D5D5C5C5B5B5AA5
:106B10005A59595858575756565555555454535312
:106B200052525251515050504F4F4F4E4E4D4D4D6D
:106B30004C4C4C4B4B4B4A4A4A49494948484847B8
:106B400047474746464645454544444444434343F6
:106B50004342424242414141002B9C4630D477009F
:106B60002BD01CB54FEA370703B44FF010004FF09D
:106B70001001BAF1000F06D0BCF1000FDCBF40F0ED
:106B8000080040F008014FF000000FBCBDE81040C5
:106B90000BF1010BBBF1010F08BF5FEA170722BF22
:106BA00012F1010211F101014FF0004143F1000324
:106BB00000F0004043EA00007047F9D35708D0E7DF
:106BC00046EA064613F1400F4FEA16461FDD13F161
:106BD000200FDFBF16430A46002120335B42BED0A0
:106BE000C3F1200746EA064602FA07F74FEA1646BF
:106BF00046EA0706C3F1200722FA03F201FA07F773
:106C000021FA03F14FF0000342EA0702A7E746EA40
:106C1000020646EA06464FEA164646EA0106BCBFA9
:106C200046EA0646360C4FF000034FF000024FF0E4
:106C3000000194E72DE9804C9A46934670B491E8A0
:106C4000380007C831EA400C48BF34EA430C03D58A
:106C5000FFF7E6FDFFF780FFF0BCBDE8008C2DE9F3
:106C6000804C9A46934670B491E8380007C810F0FB
:106C7000804F08BF13F0804F03D100F005F8FFF7F5
:106C80006BFFF0BCBDE8008C20F07F4780EA03007A
:106C900023F07F4C07EB0C03A3F57C5300F000407E
:106CA000A3F1FE0392F0000F00F0B38095F0000F07
:106CB00000F077802DE901494FEA11404FEA144670
:106CC00021EA004800FB06FC24EA064708FB06F61A
:106CD00007FB08F800FB07F718EB06484CEB164CCF
:106CE0004FEA124B18EB07484FEA15464CEB17409A
:106CF00022EA0B4E0BFB06FC25EA06470EFB06F6C6
:106D000007FB0EFE0BFB07F71EEB064E4CEB164C7B
:106D10004FF000061EEB074E4CEB174B18EB0B0821
:106D200040F1000018EB0E0B58EB000840F100009A
:106D30008F1A4FF000013CBFC943661B14BFB5EB6F
:106D4000040C00213CBFC943F61B4FEA17444EEA2E
:106D50008E0E27EA04454FEA1C4704FB07622CEA23
:106D6000074C05FB07F70CFB05F604FB0CFC16EBC8
:106D7000074642EB174216EB0C4642EB1C421BEB5C
:106D8000060658EB0202414146EA9E0601D5BDE8DF
:106D90000189B619524141EB0101A3F10103BDE89C
:106DA00001894FEA14454FEA114724EA054621EAD2
:106DB000074C05FB07F406FB07F70CFB06F105FB88
:106DC0000CFC11EB074144EB17444FEA124711EB5F
:106DD0000C4144EB1C4422EA074C05FB07F206FB7E
:106DE00007F70CFB06F605FB0CFC16EB074642EB1F
:106DF000174216EB0C4642EB1C456A1854F1000191
:106E000048BF7047B619524141EB0101A3F101039C
:106E1000704795F0000F37D04FEA11424FEA144700
:106E200021EA024624EA074C02FB07F106FB07F7BA
:106E30000CFB06F402FB0CFC14EB074441EB17417E
:106E40004FEA154714EB0C4441EB1C4125EA074C73
:106E500002FB07F506FB07F70CFB06F602FB0CFC32
:106E600016EB074645EB174516EB0C4645EB1C4267
:106E7000121951F1000148BF7047B619524141EB58
:106E80000101A3F1010370474FEA14454FEA11478E
:106E900024EA054621EA074C05FB07F106FB07F744
:106EA0000CFB06F24FF0000605FB0CFC12EB074250
:106EB00041EB174112EB0C4251EB1C4148BF7047AC
:106EC000921841EB0101A3F10103704710B51E4870
:106ED0000068002800D080471C4900200870811EEF
:106EE0001B4801601B494FF0007008601A4CD4F831
:106EF000C002800704D4F42218A11DA0F1F752DDCE
:106F00002A480168D4F8C40261F31D3040F0010042
:106F1000C4F8C402EFF7B2D800214FF03040C1608E
:106F20008161C11741610162EFF764D808484038B8
:106F3000016821F4800101601D480068002802D02A
:106F4000BDE81040004710BD60248000E44B800085
:106F500044C500A080E200E000E000A07277697004
:106F60005F736C6565705F636F6D6D6F6E2E630030
:106F70004D43555F5355422D3E424C455F44534C63
:106F80004545505F434F52525F454E2026204D43AA
:106F9000555F5355425F424C455F44534C45455005
:106FA0005F434F52525F48575F454E005424800064
:106FB0006424800000214FF03040C1608161C1171E
:106FC000416101620649022004220A60BFF34F8F2B
:106FD000BFF36F8F0860BFF34F8FBFF36F8F7047A2
:106FE00080E100E004490220C1F800010860BFF31D
:106FF0004F8FBFF36F8F704780E100E0FEE7FEE741
:10700000B7EE081AF6EE000A60EE200A10EE100A3B
:107010000549A1EB600000EE100A60EE800A00EE68
:10702000C01A21EE000A7047DF59375FF1F7BC9CA8
:1070300010B5302080F31188BFF34F8FBFF36F8FEF
:1070400007480078012806D113F0B4FE18B10549AD
:107050004FF080500860002080F3118810BD0000C0
:107060001C46800004ED00E00249096801F00701B8
:107070000170704704C500A030B4062821D212491F
:107080000A6802F00702824212D00A680F4B1A40C7
:107090000F4C22430A6000BF00BF00BF00BF0A6858
:1070A0001A400C4B024333F8203042EA83420A6014
:1070B0000849183951F820000749486030BC61F48C
:1070C000999730BC7047000004C500A0F8FFE3FFAB
:1070D00005000800A4BE02010041800004480068C9
:1070E000044900F0070051F8200003494860704748
:1070F00004C500A08CBE0201004180000248016866
:1071000041F470010160704788ED00E002480068BA
:10711000001DF1F74B9C0000D043800002484068FE
:10712000001DF1F7439C0000D0438000FEE7000003
:10713000024A002151700321017070471A478000F4
:107140000A2013F0D7B800007CB50446012560780A
:10715000012813D004F046FE04F02FFE0A4804F084
:10716000B5FD04F0DEFD09A03D21CDE900100C4B7A
:107170000CA217A1022001F0B3FF65704FF4FA6072
:1071800013F0B8F825707CBDA89D810073797374E5
:10719000656D2066696E736820696E697400000011
:1071A000CEC202012E2E5C2E2E5C2E2E5C2E2E5C6C
:1071B0002E2E5C6B6D625F6170705C6170705F73CE
:1071C000797374656D5F7461736B2E6300000000EA
:1071D0004E4F5F5441470000704703B4019841008F
:1071E000009850EAC12018BF04204A0D18BF40F093
:1071F000010040F2FF72B2EB515F08BF40F00200A5
:10720000012808BF052002B07047002804DB00F108
:10721000E02090F80004704700F00F0000F1E0203B
:1072200090F8140D7047002804DB00F1E02090F87E
:107230000004704700F00F0000F1E02090F8140DFA
:107240007047000002480068C0F302207047000049
:107250000CED00E00000000070B59B482DED020B26
:107260002DED068B079D25F00044A04218DC9748C1
:10727000844202DC0AD1069840B19DED060BBDECBC
:10728000068B02B0BDE8704000F03EBB002DCCBFC5
:107290009FED8F0B9FED900BBDEC068B02B070BD88
:1072A0008F48A04215DD8F48A042D8BF4FF0FF3471
:1072B00058DD9DED060B51EC100BFFF78EFF0428F7
:1072C00008BF00F035FB9DED060BBDEC068B02B050
:1072D00070BD9DED060B51EC100B05F00BFECDE9DA
:1072E000060181489FED828BA0423CDD8248A0428E
:1072F0001FDD00249FED82AB9DED060B53EC1A2B96
:1073000051EC100B13F052FF9DED060B41EC190BE5
:1073100053EC1A2B51EC100B14F082FA53EC182B8F
:1073200014F018FC53EC192B13F0F4FFCDE906010F
:1073300049E09DED060B012453EC182B51EC100B8A
:1073400013F034FF9DED060B41EC190B53EC182B99
:1073500051EC100B14F0FEFB53EC192B13F0DAFF79
:10736000CDE906012FE06848A0421FDD02249FED11
:10737000689B9DED060B53EC192B51EC100B14F090
:107380004FFA53EC182B13F011FF9DED060B41EC57
:10739000180B53EC192B51EC100B14F0DBFB53ECD6
:1073A000182B13F0B7FFCDE906010CE09DED060B9D
:1073B000032453EC102B9FED580B51EC100B13F0E2
:1073C000A9FFCDE906019DED060B53EC102B51EC06
:1073D000100B14F025FA41EC180B53EC182B14F099
:1073E0001FFA41EC190B4E480621B0EE490AF0EEA7
:1073F000690A784400F00CFA53EC182B51EC100B8E
:1074000014F00EFA41EC180B4648B0EE490AF0EEC3
:10741000690A0521784400F0FBF953EC192B51EC73
:10742000100B14F0FDF941EC100B51EC180B53EC60
:10743000102B002C0EDA13F0B9FE9DED061B53EC59
:10744000112B14F0EDF99DED061B53EC112B14F0EC
:1074500075FB35E013F0AAFE9DED061B53EC112BD6
:1074600014F0DEF941EC100B2F48784400EBC40017
:1074700090ED001B51EC100B53EC112B14F06AFB38
:107480009DED061B53EC112B14F064FB41EC100B2B
:107490002648784400EBC40090ED001B51EC100B23
:1074A00053EC112B14F04AFB41EC100B002DA2BF42
:1074B000BDEC068B02B070BD51EC100B13F038FE22
:1074C00041EC100B01E70000000010440000F07FC9
:1074D000182D4454FB21F93F182D4454FB21F9BFCA
:1074E0000000DC3F0000203E0000F33F00000000F1
:1074F000000000000000F03F0000E63F0000000038
:107500000000000000000040008003400000000078
:10751000000000000000F83F000000000000F0BF85
:10752000FA520100B05201003A520100F25101003A
:1075300070B56F4E2DED040B2DED048B82B0DDF890
:1075400024C0DDE907235C422CF000411C4341EAE2
:10755000D474069D22F00040B44205D86C422C43FE
:1075600040EAD474B4420BD99DED081B9DED060B87
:1075700002B0BDEC048B04B0BDE8704000F0CEB9A1
:10758000ACF14054A4F17F641C430BD0022404EA04
:10759000AC7444EAD27405439FED578B9FED582B92
:1075A00007D015E09DED060B51EC100B02F0CCFC62
:1075B00042E0002C11BF012C9DED060B02B0BDEC8A
:1075C000048B04BF04B070BD022C38D0032C3BD018
:1075D0000B439FED4D1B9FED4E0B0AD0B14218D1CE
:1075E000B04209D121F0804120F0804009910790FC
:1075F0000FE0002A15DA10E0474B7B44002C08BF4F
:1076000093ED000B0DD0012C10D0022C17D0032CC1
:107610001AD0B0421DD1002A03DAB0EE410AF0EED2
:10762000610A02B0BDEC048B04B070BD93ED000B99
:1076300051EC100B13F07CFD41EC100BF1E7B0EEB8
:10764000480AF0EE680AECE7B0EE420AF0EE620A91
:10765000E7E7401A00159FED329B3C28C8BF8DED2F
:10766000000B17DCBCF1000FBCBF10F13C0F8DED1F
:10767000009B0FDB9DED080B53EC102B9DED060BD3
:1076800051EC100B13F046FE05F034FC02F05CFCEC
:10769000CDE90001B4B1012C10D0022C9FED220BDA
:1076A00053EC102B9DED000B51EC100B19D014F086
:1076B00051FA53EC182B14F04DFABDE7019880F005
:1076C000004001909DED000B53EC192B51EC100B79
:1076D00013F078FF04BF0220FEF771F99DED000B57
:1076E0009FE714F037FA53EC182B14F027FAA3E7AE
:1076F0000000F07F00000000182D4454FB210940D9
:10770000182D4454FB2109C0182D4454FB21F9BF06
:10771000182D4454FB21F93F2251010000000000C4
:107720000000000000000000075C143326A6A13C06
:1077300010B52DED020B2DED088B84B09DED0C0BDB
:1077400051EC100B14F0A0F941EC180B9DED0C0B53
:1077500053EC182B51EC100B14F0FCF941EC190B05
:107760000D989FED290B10F0004F53EC102B51ECAE
:10777000190B9FED21AB9FED22BB0ED014F014F836
:107780000ED953EC1B2B51EC190B14F047F91CD2FA
:1077900014E000BF41EC180B17E014F005F806D216
:1077A00053EC1A2B51EC180B14F0D4F9F2E753EC0C
:1077B0001B2B51EC190B14F031F906D853EC1A2B92
:1077C00051EC180B13F0F2FCE4E78DED028B9DED0C
:1077D0000C0B18EE901A10EE900A8DED000B61F371
:1077E0001E0003909DED020B04B0BDEC088B02B0AF
:1077F00010BD000000000000000000000000F03F8D
:10780000000000000000E03F000000000000E0BFBA
:1078100070B504462DED028B4D1E00EBC500B0EE99
:10782000408AF0EE608A90ED000B35F0060017D02C
:1078300053EC182B51EC100B13F0F2FF41EC100B32
:107840006D1E04EBC50090ED001B51EC100B53ECCA
:10785000112B13F0ABFC41EC100B35F00600E7D117
:10786000022D36D0042D1CD0062D1CBFBDEC028B82
:1078700070BD53EC182B51EC100B13F0D1FF94EDAD
:107880000A1B53EC112B13F091FC53EC182B13F043
:10789000C7FF94ED081B53EC112B13F087FC41EC50
:1078A000100B53EC182B51EC100B13F0B9FF94EDA7
:1078B000061B53EC112B13F079FC53EC182B13F02F
:1078C000AFFF94ED040B53EC102B13F06FFC41EC65
:1078D000100B53EC182B51EC100B13F0A1FF94ED8F
:1078E000021B53EC112B13F061FC53EC182B13F01B
:1078F00097FF94ED001B53EC112B13F057FCBDECDC
:10790000028B41EC100B70BD10B553EC102B51ECF9
:10791000100B13F04BFC41EC100B10BD10B553ECE9
:10792000112B51EC100B13F041FC41EC100B10BD6E
:107930009FED050B10B553EC102B51EC100B13F011
:107940006FFF41EC100B10BD0000000000000010A4
:1079500030B500230C7A0022062C4ED2DFE804F06A
:10796000030D182E4D4C406A264CA04203DA01202C
:1079700008720A8041E00A803FE0006A224CA0427F
:1079800003DA022008720A8037E00A720A8034E0C3
:107990000C88C82C0ED2006A1C4CA0422DDD8888B1
:1079A000401C80B28880022827D3032008720A80F6
:1079B0008A8022E00A720A808A801EE00C88B4F570
:1079C0007A7F15D2124D046A2C44124DAC4214D267
:1079D000C069B0F13F4F10D2C888401C80B2C88047
:1079E000B0F5167F09D9052008720A80CA8004E024
:1079F0000A720A80CA8000E001230888401C0880BF
:107A0000184630BDCDCC0C4048E1FA3E333333400C
:107A10003233B3C0CCCC4C0030380A2801D201201C
:107A2000704700207047C1884088B1EB500F02D2E8
:107A3000002004F0D4B9002004F0E7B9012801D0F7
:107A4000002070474FF00071032001F0CFB8000014
:107A500070B50E46807900F00105002435B1E1B221
:107A600008233246074800F01DF805E0E1B208237C
:107A70000022044800F016F8641CA4B2042CEDD3D4
:107A800070BD0000A89D810010B50C46204604F092
:107A90002FF912F003FB2046EDF7CEDCBDE81040D5
:107AA00012F00ABB70B50A4DC3F1080400EB810067
:107AB00015F82260E640467005EB82014A78E24004
:107AC00082708978E140C17003F00801017170BDD6
:107AD000DAC20201704700002DE9F05F07468946CF
:107AE00093464FEA5B04A2464D465F4EDFF87C8129
:107AF000EFF31080012181F31088D8F8A41221F04F
:107B00002001C8F8A41280F31088EFF3108001213F
:107B100081F31088D8F8A01221F02001C8F8A01233
:107B200080F31088306820F080403060504830602A
:107B30003F20D8F8001160F30501C8F80011306843
:107B400020F4601040EAC7403060306820F4E02044
:107B500040EA07403060052F03D1306840F4004010
:107B60003060062F03D1306840F4804030603068C8
:107B700040F400503060306820F060503060306871
:107B800020F00F0040F003003060EFF3108001217F
:107B900081F31088344A3832116821F0E04141F015
:107BA0008041116080F31088306840F08040306080
:107BB00001E0D8F80000D8F80401C0F30020002844
:107BC000F7D1EFF31080012181F31088116841F0A3
:107BD0000041116080F3108834E000204FF47A7186
:107BE0001AE0884217D9306820F080403060306851
:107BF00040F000403060306820F0004030600BF012
:107C0000A7FD1C480168491C016054464D460520EB
:107C100063F4F5D76CE7401CD8F80421C2F30022C6
:107C2000002ADED0D8F8040100F07F01A14200D97B
:107C30002146002003E0D8F8002004C5401C8842FB
:107C4000F9D3641A002CC8D15FEACB7008D0D8F8F9
:107C50000401C0F300200028F9D0D8F800002880E3
:107C6000BDE8F05F0BF074BD08C500A000E000A007
:107C70000A070807D04C80002DE9F04107460E4660
:107C80004FF000080024274D0BE004EBC40005EB87
:107C90008000801C07223946FDF76EFD40B1641C50
:107CA000E4B22878A042F0D8B8F1000F18D102E071
:107CB0004FF00108F8E728780A21B0FBF1F201FB48
:107CC00012040A2801D2401C287004EBC40105EB01
:107CD00081003968C0F80210B988C180B979017291
:107CE0002B7811A210210020F0F762DE3078000717
:107CF0000BD504EBC40005EB800006F14601BDE89E
:107D0000F0410A301C22FDF782BD04EBC40005EBF4
:107D1000800006F12A01BDE8F0410A301C22FDF77F
:107D200076BD000038A08100523A313A6164642087
:107D30006C746B206974656D2C206E756D203D2010
:107D400025640A000449896B084004490A781043F5
:107D500000220A7070470000002001A0384880000F
:107D6000104A114900280EDC0868C0F341200128A0
:107D700008D0506C401C5064086820F4C06040F487
:107D80000070086070470A28FCDB086810F4C06FB8
:107D9000F8D0106C401C1064086820F4C0600860C3
:107DA00070470000E44980000CC500A02DE9F041B7
:107DB00006460F46154672B63846FDF709FD4028BF
:107DC00001D9402002E03846FDF702FD80463046EA
:107DD000FDF7FEFC402801D9402002E03046FDF7C7
:107DE000F7FC04469C211048FDF7AAFD424639469F
:107DF0000D48FDF70CFD0C48224631465C30FDF77E
:107E000006FD09484FF0AA31016445644FF0BB31CB
:107E100081644FF0CC3101654FF0DD318165002088
:107E200000F004F8FEE700009499800030B5ADF250
:107E30000C4D04464FF4806103A8FDF781FD184DF9
:107E4000202085F83F0085F89B003CB12846012C96
:107E5000436DC26C09D0022C0CD00FE0104A11A166
:107E60005C3203A8FDF79EFA08E011A103A8FDF714
:107E700099FA03E016A103A8FDF794FA03A90BA24F
:107E8000686CCDE90121009018A3054A18A10020D3
:107E900001F026F901F0F0F80DF20C4D30BD0000B4
:107EA000949980005B4552524F525D20257300002B
:107EB0005B5741524E494E475D20506172616D30B3
:107EC0003A25642C506172616D313A2564000000DE
:107ED0005B504152414D5D20506172616D303A25D9
:107EE000642C506172616D313A256400000000001D
:107EF0006170705F6173736572742E6300000000BF
:107F0000014863F4B9940000704580002DE9F04108
:107F100006460F4690461D4672B64046FDF758FC91
:107F2000402801D9402002E04046FDF751FC0446BC
:107F30009C210D48FDF704FD224641460A48FDF705
:107F400066FC09484FF05531016445644FF06631D5
:107F50008164C6644FF0773101654765C943816527
:107F60000220FFF763FFFEE7949980002DE9F041BE
:107F700006460F4690461D464046FDF729FC402820
:107F800001D9402002E04046FDF722FC04469C2136
:107F90000D48FDF7D5FC224641460B48FDF737FC5E
:107FA00009484FF011310164456449008164C66499
:107FB0004FF03331016547654FF044318165BDE8CD
:107FC000F0410120FFF732BF9499800010B50A48B4
:107FD00018214171072101711121C1700A2181709D
:107FE000002141700170002001F096F9BDE81040B9
:107FF000014801F0AFB900005891810010B588B078
:10800000817AC27A037B447BCDE90443CDE9062122
:10801000817BC07B08A2EA23CDE90032CDE90201D1
:10802000134B14A219A1022001F05AF8194901209A
:10803000087008B010BD0000436F6E6E6563746514
:1080400064207769746820746865207065657220A3
:10805000253032583A253032583A253032583A25B0
:108060003032583A253032583A253032582E0000F6
:1080700054C202012E2E5C5372635C757365725C90
:10808000757365725F6170702E6300004E4F5F54B0
:10809000414700000E47800010B586B0044610A28C
:1080A000E123CDE900320291134B14A219A1022061
:1080B00001F016F81949204603F056F8044654B169
:1080C00014220D491C3101A8FDF7E6FBADF808406C
:1080D00001A800F015F912490020087006B010BD83
:1080E000446973636F6E6E656374656420283078CD
:1080F00025303258292E000024C202012E2E5C5356
:1081000072635C757365725C757365725F617070C4
:108110002E6300004E4F5F5441470000004780002F
:108120000E478000C1884288914202D2491CC1801A
:1081300070470021C1807047018042808380002009
:10814000704700002DE9F041082802D30820BDE85F
:10815000F0811A4D00EB400005EB40142078D0B1BF
:10816000EFF31086012080F31088201D08F0ACFA90
:1081700000272770FF202071002000EB400105EB55
:1081800041110978012903D0401CC0B20828F4D35A
:10819000082802D00DE00920D9E7094CB4F9020003
:1081A0000FF052FD4FF0FF30608027700320F0F792
:1081B00001DC86F310880020C9E70000A090800051
:1081C000C8438000082801D30020704700EB40011D
:1081D000044800EB4110017809B1001D70470020F0
:1081E00070470000A09080002DE9F04706468946C0
:1081F00000244FF0FF3847464FF0010A002E16D0FA
:108200003949032011F07AF8307990B1012810D063
:1082100002280ED003280CD004280AD0052808D044
:10822000062806D0072804D04046BDE8F087052080
:10823000FBE7EFF31082012181F310882B4D01231E
:1082400004EB440105EB411191F800C0BCF1000FB3
:1082500003D091F804C084450CD104EB440005EB35
:10826000401090F82D00022802D027460B7005E040
:10827000082403E0641CE4B2082CE1D382F31088E4
:10828000082C2BD2DFF868A09AF8000038B98AF8D9
:108290000030032117480FF099FCAAF8020004EB04
:1082A000440105EB41153079287105F108002422BD
:1082B00006F10801FDF7F0FA0F4868630F48E8631C
:1082C00000202864C5F85C900320F0F775DB0320DC
:1082D000F0F774DB281D08F027FA8246BAF1000F88
:1082E00000D047463846A0E7C14E8000A0908000ED
:1082F000C8438000BCBE02017DCB010101CB01015E
:108300003EB504464FF400711A48FDF7F7FA20789D
:1083100010B1012819D01DE000211748A28830F8BB
:1083200031309A4207D100EBC10014A143681148D3
:10833000FDF738F80EE02E2902D0491CC9B2EEE74D
:1083400014A10C48FDF72EF804E01DA1094862684D
:10835000FDF728F8074921A22069CDE90121009005
:10836000D4E902231EA1002000F0BAFEBDE83E4081
:1083700000F082BE94978000004480004572726FC6
:108380007220636F6465203078253034583A202598
:10839000730000004572726F7220636F6465203055
:1083A00078253034583A204E6F20666F756E642001
:1083B000696E666F726D6174696F6E2E00000000E9
:1083C00028257329206973206E6F7420657374618A
:1083D000626C69736865642E0000000025730000FC
:1083E0006170705F6572726F722E63002DE9F041EB
:1083F000014600291BD000240F4E0E4A357814E0A8
:1084000002EB04100F780378BB420CD14B68406834
:10841000034208D0707808B900F002FE2046BDE89B
:10842000F04100F023BD641CE4B2AC42E8D3BDE8E7
:10843000F08100003C9A80007C4580007CB50546B8
:108440000E46002D01D0002418E005207CBD05EB70
:10845000041041680091017A8DF80410417A8DF87A
:10846000051007218DF80610C268007800236946C0
:1084700000F040FA0028E9D1641CE4B2B442E6D32B
:1084800000207CBD10B50446002023780F49421E11
:1084900051F82330A3F89420237851F82310A1F841
:1084A0009620E169002901D1226A6AB121B12046F2
:1084B00000F04EF8002808D1216A002905D0204696
:1084C000BDE8104000F004B8042010BDDC4380007B
:1084D00030B58BB004462C216846FDF731FA206A8E
:1084E000009094F825008DF804002078164901EBDF
:1084F0000010406802900F2003904FF40010049089
:10850000C0120590002006900790089009900A90EC
:1085100000216846FFF768FE21780C4D55F82110C0
:10852000A1F89600002802DA04200BB030BDFFF756
:1085300049FE217855F821104863217855F821101B
:10854000091DC1620020F0E7C8BF0201DC438000C2
:1085500030B58BB004462C216846FDF7F1F9E0698F
:10856000009094F824008DF804000F2002902078E9
:10857000164901EB0010006803904FF4801004903E
:10858000002005904FF480710691079008900990A3
:108590000A9000216846FFF727FE21780C4D55F818
:1085A0002110A1F89400002802DA04200BB030BD9D
:1085B000FFF708FE217855F821100863217855F857
:1085C0002110091DC1620020F0E70000C8BF0201B0
:1085D000DC43800070B50478002803D0022C03D35C
:1085E000082070BD052070BD0C4E56F8241059B1FE
:1085F00091F8981041B1EFF31085012181F31088B3
:10860000FFF740FF38B901E0092070BD56F824207B
:10861000012182F8991085F3108870BDDC43800039
:108620002DE9F0410F46114604461A460120022C5E
:1086300002D30820BDE8F081194E56F824306BB102
:1086400093F8985055B159B152B1A3F89C7056F8AF
:10865000243093F89A502DB10220EBE70920E9E786
:108660000420E7E7012583F89A5056F8245095F83E
:108670008C3013B1012B0AD106E013460A46281D9F
:10868000394608F009FC02E0281D08F0C1FC28B1B9
:1086900056F82420002182F89A10CBE70020C9E781
:1086A000DC4380002DE9F0410F46114604461A468E
:1086B0000120022C02D30820BDE8F081194E56F8A3
:1086C00024306BB193F8985055B159B152B1A3F819
:1086D0009C7056F8243093F89A502DB10220EBE7A5
:1086E0000920E9E70420E7E7012583F89A5056F8C6
:1086F000245095F88C3013B1012B0AD106E01346B3
:108700000A46281D394608F029FC02E0281D08F019
:10871000FBFC28B156F82420002182F89A10CBE700
:108720000020C9E7DC4380003EB504460D462046E4
:1087300009F002FD8DF80050ADB1218B628B891AD2
:10874000ADF80410094A52F820109A314B88ADF860
:10875000083000230B7052F820000168002901D076
:10876000684688473EBDA16B0191EBE7DC43800082
:108770002DE9FC4104460F462078002C04D0022845
:1087800004D30820BDE8FC810520FBE72C4A04F156
:10879000380142F820102B490E2010F0AFFD2A4975
:1087A0000F2010F0ABFDD4E90501CDE90001201D3B
:1087B000261D0FC809F0D2FC0028E3D12078234DF4
:1087C00005EBC00090F90100F0F7F6D8207805EB32
:1087D000C00090F90100F0F7F1D8607884F8C40087
:1087E000C4F8C860A76304F1280004F140060FC86C
:1087F0000FC6207805EBC0004068E06304F13C0040
:10880000054608F0CFF90028BCD1284608F030FA18
:108810000028B7D10A4D2D1F0126287850B92E7097
:108820000A48032110300FF0D1F96880002801DADE
:108830000420A7E704F8D06F0020A070A2E7000092
:10884000DC438000295080001F508000ACBF020133
:10885000007801220649002805D0012806D0022808
:1088600000D14A7070470A704A7070470A707047AA
:108870002847800010B50C46062833D2DFE800F008
:10888000030303101E27184951F830002104090C76
:1088900004D018B1214608F01FF91FE0042010BDD4
:1088A0002004000C03D0A1B2104808F015F9200CE8
:1088B00014D0210C0E4808F00FF90FE014F0FF0F50
:1088C00003D0204607F060F908E0042010BD14F042
:1088D000FF0F05D02146002008F09CFC002010BDB1
:1088E000042010BD062010BDDCBE0201000001A066
:1088F000001001A02DE9F05F05460C469046994610
:1089000027680026052D13D039462846FFF7B2FF09
:108910002146284600F0ACF800280AD1042D0AD0E0
:10892000032D2ED04FF0100B2807060E002491E0E7
:108930000620BDE8F09F4FF0080B2079042806D0F0
:10894000052809D006280DD0072815D110E00021F0
:108950003846EDF720DA0FE040F201113846EDF726
:108960001ADA09E04FF001113846EDF714DA03E0A6
:108970003B493846EDF70FDA4FF0007060F4B8D39A
:10898000D4E74FF0200BD1E7F80760D0052D65D272
:10899000DFE805F0030303254600324800EBC5007D
:1089A00090F904A0BAF1000F17D0EFF31081012065
:1089B00080F31088A01900EB40022B4800EB8200E6
:1089C000C0F80480C0F8089081F310885046EFF793
:1089D000F3DF5046EFF7F2DF39E00420A9E7EFF3C9
:1089E0001082012080F31088A0191F4B00EB40007B
:1089F00003EB8001C1F80480C1F80890032103F85B
:108A0000201082F310880620EFF7D6DF0620EFF75C
:108A1000D5DF0720EFF7D0DF0720EFF7CFDF16E035
:108A2000EFF31081012080F31088A01900EB4002C1
:108A30000E4800EB8200C0F80480C0F8089081F373
:108A400010881220EFF7B8DF1220EFF7B7DF7F08AA
:108A5000641CE4B25C4597D300206AE7062068E70F
:108A600001010100DCBE0201A0938000209580007E
:108A700070B58EB005460C46564901F164004DC8EC
:108A8000CDE90A02CDE90C36D1E91E23486F06AEC6
:108A9000D1F880100DC6099114224E49843101A8E5
:108AA000FCF7FAFEACB14C49062010F027FC4B490C
:108AB000072010F023FC4A49122010F01FFC454902
:108AC000444A2C31062D7CD2DFE805F0060606214B
:108AD000415905200EB070BD207931F810000B907F
:108AE000607932F810000C90A0790D9020680A90FF
:108AF0003848143050F8350021880904090C04D096
:108B000018B10AA908F036F859E00420E2E7207904
:108B100031F810000B90607932F810000C90A079B9
:108B20000D9020680A9020680104090C05D080B2DD
:108B30000A900AA92B4808F01DF82068010C3ED0C5
:108B4000000C0A900AA9284808F014F837E02079A8
:108B500001EB4000408A0790607902EB4000C0883A
:108B60000890A079099020680690207810F0FF0FF7
:108B700003D006A807F05AF821E00420AAE72079DC
:108B8000031F032B01D80720A4E702281AD00120D5
:108B90000290207901EB4000808C0390607902EB19
:108BA000400080890490A079059020680190207889
:108BB00010F0FF0F09D001A9002008F083FB00206E
:108BC00088E704E002200290E3E7042082E7062021
:108BD00080E70000C8BE0201234F80001D4F8000C7
:108BE000194F8000000001A0001001A010B502463E
:108BF0000C460020062A26D2DFE802F00303030B0E
:108C00001A1F114850F83200A1B2BDE81040EFF72A
:108C1000D79E2104090C03D0A1B20C48EFF7D0DE97
:108C2000210C10D0210CBDE810400948EFF7C89E78
:108C3000A0B2BDE81040EFF7C59EA1B2BDE810405C
:108C4000002008F042BB10BDDCBE0201000001A004
:108C5000001001A070B50C461546002D03D0012D63
:108C600001D0042070BD06282BD2DFE800F00303FA
:108C7000030E1E23144951F8300020B1A1B22A4638
:108C8000EFF7A2DE1BE0042070BD2004000C04D02E
:108C9000A1B22A460D48EFF797DE200C0FD0210C29
:108CA0002A460B48EFF790DE09E0A0B2294607F00C
:108CB00011F804E0A1B22A46002008F009FB0020C8
:108CC00070BD062070BD0000DCBE0201000001A0E6
:108CD000001001A0002803D002490860012070475D
:108CE000002070478845800070B505460024091FA4
:108CF000062917D2DFE801F003070C1113152846E7
:108D000000F0A4F80EE00124284600F09FF809E0E6
:108D10000224284600F09AF804E0032402E0042428
:108D200000E00524034A214628461268BDE8704049
:108D300010470000884580002DE9F0410446204698
:108D400000F0AEF801462E4800230826025D00F12F
:108D50000A0700F11405AAB1052A33D0082A2AD13E
:108D6000092945D0082926D1295D491CC9B22955B0
:108D7000142920D32B5506552046BDE8F041082183
:108D8000FFF7B2BF052913D0042916D0072914D044
:108D9000082910D1295D491CC9B2295514290AD3C3
:108DA0002B5506552046BDE8F0410821FFF79CBF32
:108DB0003B5505210155BDE8F0812046BDE8F04155
:108DC000FFF792BF05290CD0395D491CC9B239554E
:108DD0003229F0D303552046BDE8F0410521FFF7C5
:108DE00083BF03552046BDE8F0410621FFF77CBF55
:108DF00003552046BDE8F0410921FFF775BF00008B
:108E0000F09A800070B504460D4600F00FF808B1E6
:108E100000F018F90348044A2946005D9268BDE84D
:108E200070401047309A80007C4580000020064941
:108E300011F810200AB100207047401CC0B20A2867
:108E4000F6D30120704700000E9B800003490022EA
:108E500001F8102001EB4000427070470E9B80002B
:108E6000014A02F8101070470E9B8000024A01214F
:108E700002EB4000417070470E9B800070B50024EB
:108E8000064D05EB4400407810B12046FFF754FF33
:108E9000641CE4B20A2CF4D370BD00000E9B800069
:108EA00070B500211D4B03F132051A5C002A09D070
:108EB000002403F10A06012A0AD0022A12D0032A4A
:108EC00024D11FE015F8102002B301221A541DE02E
:108ED00015F810201AB1345402221A5416E01C540A
:108EE000042113E015F810204AB1325C521CD2B2B2
:108EF0003254642A0AD3072103221A5406E00521BA
:108F00001C5403E015F8101011B10821084670BD7B
:108F10001C54FFF79BFF0921F8E70000DC9A800052
:108F200070470000F8B50E4617460A2E02D80FB15A
:108F300000231FE00020F8BD03EB430410F82410C9
:108F4000032901D0042913D100EB8405154AA97A1D
:108F5000D154144910F824200C3101EB0314227071
:108F600069686160297A2172697A61720E49E160EB
:108F70005B1CDBB2B342DFD30A4831460C30FFF74B
:108F80005DFA0A4C2670A7600948FFF7A3FE09485E
:108F90000023009001220A21184612F02FF8606089
:108FA0000120F8BD309A8000ED8301017C458000EE
:108FB000058E0101119001012DE9F0410024124FAD
:108FC000DFF8488019E0002607EB04152878696867
:108FD000FFF70CFE10B9697A012902D0012802D0EE
:108FE00005E0012603E0687A022800D10126314617
:108FF0002046FFF735FF641CE4B298F80000844275
:10900000E1D3BDE8F08100003C9A80007C458000FF
:1090100010B5FFF7D1FFBDE81040FFF72FBF0000EC
:1090200038B511F0C1FE02460020054C0346009001
:109030000621606812F026F80120607038BD00003B
:109040007C45800038B50024044D00942346224618
:109050000821686812F016F86C7038BD7C458000F5
:10906000002806D0002904D0024AD269002A00D084
:1090700010477047709780000248006A002800D0AF
:10908000004770477097800070B50D4616460D4C2E
:1090900000280AD00178032911D80121A1760146C0
:1090A0001A222046FCF7B3FB05E00020A0761A2127
:1090B0000448FCF745FCE5612662002070BD0120F4
:1090C00070BD000070978000044A1044807D084203
:1090D00001D0012070470020704700007097800089
:1090E0002DE9FE4FDDF830B0064692469946002441
:1090F0000027019702975A480178B14202D2807E38
:1091000000287DD10DF13808CDF80080EFF31185EE
:109110000220FEF788F8014652480068C0F302209A
:10912000401C012282408818C0B280F311880121BE
:109130003046FFF7C9FF38B14B484C4950F826205C
:10914000204600F0A5F804461C213046FFF7BCFF7E
:1091500000285ED046A24549204600F099F82044F8
:1091600084B204213046FFF7AFFFF8B152463F49C1
:10917000204600F08DF8204484B208213046FFF7E5
:10918000A3FF38B13BA23949204600F081F82044C2
:1091900084B20BE010213046FFF796FF30B136A2C3
:1091A0003249204600F074F8204484B20821304649
:1091B000FFF78AFF90B14A462C49204600F068F834
:1091C000204484B210213046FFF77EFF30B12BA23D
:1091D0002649204600F05CF8204484B21021304635
:1091E000FFF772FF70B15B4626A2052101A8FCF7CC
:1091F000EFF801AA1D49204600F04AF8204400E09B
:109200002BE084B220A21949204600F041F8204406
:1092100084B21648C4F58071204443460D9AFCF789
:109220009BF800974FF48071002804DB20448842AB
:1092300001DC86B200E00E46B01C884200D9FE2652
:1092400012A20A49304600F023F8304481B20748A0
:10925000FFF706FFE8B280F31188BDE8FE8F00003B
:10926000709780000CED00E0EC4380007096800069
:1092700028000000200000003A000000204C696E29
:10928000653A0000256C6400292000000D0A0000EA
:1092900030B50546002000290CD0002A0AD006E08F
:1092A0002B18FF2B06D8CC54521C401C80B21478CB
:1092B000002CF5D130BD10B502F082FC00224FF039
:1092C0008371104603F0C0FB10F0C6FBBDE81040F0
:1092D00002205FF4C794000008B5009103480168BC
:1092E000002901D06846884708BD0000D495800059
:1092F00010B5084A92F82410002907D040B1014661
:10930000101D06F0F9FD0028FFD110BD092010BD89
:10931000052010BDD495800010B50C4C20600C4980
:1093200021200FF0EBFF201D06F0B0FD00280BD12F
:10933000201D06F069FE002806D1012084F82400D3
:10934000C0065FF4D5D6002010BD0000D495800083
:10935000CD4F800010B5084A92F82410002907D09C
:1093600040B10146101D06F0D1FE0028FFD110BD0E
:10937000092010BD052010BDD49580002DE9F041D5
:1093800004460D461746002D04D0012D02D00120C1
:10939000BDE8F081CCB1C7B1EFF311860220FDF733
:1093A00034FF8046FDF74EFF401C0121814008EB51
:1093B0000100C0B280F3118800206070A570E761E1
:1093C000F0B280F311880020E2E70120E0E710B559
:1093D0000446002C0CD0204600F0B0F9FF2060704D
:1093E0000021A160E160216161610020E06110BDA8
:1093F000012010BDF0B5DDE90745059981614FF405
:109400007A76A2FB061C03FB06C3002702FB073289
:10941000C0E9021209196A41C0E90412002101627F
:10942000F0BD00002DE9F0410446002C13D0EFF30D
:1094300011850220FDF7E9FE0746FDF703FF401CFA
:10944000012606FA00F03844C0B280F311881248B1
:10945000002121620EE00020BDE8F081D4E9043251
:10946000D1E9047CDB1B72EB0C0202D2016A21629F
:1094700003E00846016A0029F0D1046266700648DC
:1094800020380168491C0160016C4160E8B280F33A
:1094900011880120E0E70000209680002DE9F041CE
:1094A00005460024EFF311860220FDF7AEFE0746C5
:1094B000FDF7C8FE401C012181407818C0B280F33E
:1094C0001188134A106CE8B115B102F1200010E0C8
:1094D0000446206A10641068401E10600CE0A94227
:1094E00006D11168491E1160296A01622C4603E009
:1094F0000846016A0029F2D124B100202062607080
:10950000106C5060F0B280F311882046BDE8F08105
:10951000009680002DE9F041EFF311870220FDF75E
:1095200074FE0446FDF78EFE401C01218140601848
:10953000C0B280F31188114D002608E02078012880
:1095400004D1E16909B1A069884726702D6A2C6AA7
:10955000002CF3D1094D203D07E0E16909B1A06974
:1095600088472670206AA8602662AC68002CF4D177
:10957000F8B280F311880120BDE8F08120968000C8
:109580002DE9F041EFF311870220FDF73EFE04467E
:10959000FDF758FE401C012606FA00F02044C0B238
:1095A00080F311881B4DA5F1200829E0D4E904209F
:1095B000D8E90413521A60EB0300D8E906319A1A6D
:1095C000814120D326702046FFF768FFA07801284C
:1095D00002D0104818380DE0D8E90430D4E902214F
:1095E0009A184841C4E904202046FFF71BFF07E012
:1095F00001F1200001680029FAD1216200680462AB
:109600002C6A002CD2D1F8B280F311880120BDE879
:10961000F0810000209680002DE9FF5F82460E4613
:1096200093464FF00008BAF1000F20D0414886421F
:109630001DD8E6B1EFF311870220FDF7E6FD0446E1
:10964000FDF700FE401C012181406018C0B280F38C
:109650001188504609F06EFD10B19AF8010040B132
:10966000F8B280F311880F2004B0BDE8F09F01200C
:10967000FAE70CF0E9FB04460D464FF47A7106FB5D
:1096800001F022462B46002109F024FDDFF8A890C6
:10969000B0B1D9F8040048B1D0E90410091B60EB5F
:1096A0000500C9E904100CF06BFC04E00021C9F8C6
:1096B0001010C9F814104FF00108D9E9040106E0B0
:1096C000D9F80400D0E90421101B61EB0501CDE9B4
:1096D000020132460023CDF800B05046FFF78AFE63
:1096E0005046FFF79FFE0FF0A7FC4FF0E021D1F8A6
:1096F00000014FF0806210F0806F01D0012000E087
:10970000002018B9C1F88022C1F80021B8F1000F7B
:109710000AD0D9F80400D0E90431D9E90402181AB2
:1097200061EB02010CF0C6FBF8B280F31188002057
:109730009AE70000008AB907009680002DE9F04101
:1097400004460025002C39D0EFF311870220FDF7E5
:109750005CFD0646FDF776FD401C01218140701836
:10976000C0B280F311886078012824D1144E70684B
:10977000A0420BD10CF068FBD4E90432181A62EB5A
:109780000102C6E904020CF0FBFB01252046FFF7AD
:1097900085FE5DB1706848B1D0E90421D6E90403C3
:1097A000101A61EB03010CF085FB04E01DB9706831
:1097B00008B90CF0E5FBF8B280F31188BDE8F08140
:1097C0000096800010B50446114822784FF0FF3112
:1097D00050F82220A2F86810227850F82200A0F851
:1097E0006A10606B002801D1A16B71B120B12046D5
:1097F00000F05EF8002807D1A06B20B1204600F0F1
:1098000009F8002800D1002010BD042010BD000080
:10981000D043800030B58BB004462C216846FCF75D
:109820008FF8A06B009094F83D008DF804001D495E
:109830000098884205D122781B4B03EB0212526834
:109840000292029AF2B1884201D10F2003904FF4A4
:1098500000100490C0120590002006900790089018
:109860000990A0200A9000216846FEF7BDFC2178EF
:109870000E4D55F82110A1F86A00002804DA0420E2
:109880000BB030BD0720FBE7FEF79CFC217855F8B4
:1098900021104863217855F82110091DC16200206C
:1098A000EEE70000003001A084BF0201D043800039
:1098B00030B58BB004462C216846FCF741F8606B4C
:1098C000009094F83C008DF804001D4800998142F6
:1098D00002D14FF00F00029005D12078194901EB19
:1098E0000010006803900398D8B14FF480100490E2
:1098F0004FF0000005904FF480710691079008909A
:1099000009900A9001466846FEF76EFC21780E4DDC
:1099100055F82110A1F86800002804DA04200BB0E3
:1099200030BD0720FBE7FEF74DFC217855F82110EC
:109930000863217855F82110091DC1620020EEE767
:10994000003001A084BF0201D043800070B50446FE
:10995000022C01D3082070BD144D55F8240018B115
:1099600090F86D10012901D0092070BDB0F9680090
:10997000FEF7E8FB55F82400B0F96A00FEF7E2FBB9
:10998000EFF31080012181F3108855F82420002185
:1099900082F86D1080F3108855F8240090F86C0060
:1099A00008B945F82410002070BD0000D0438000A5
:1099B0002DE9F04106463478002E04D0022C04D361
:1099C0000820BDE8F0810520FBE7134F57F824007D
:1099D00048B190F86C1031B1012C06D090F86D00B0
:1099E000012804D006E00920EBE70820E9E720463B
:1099F000FFF7ACFFEFF31085012080F310883046AD
:109A0000FFF7E0FE20B957F82420012182F86D10FD
:109A100085F31088D5E70000D043800070B5044678
:109A20001A4D55F8240070300EF034FD82B21646FF
:109A3000A2B155F8240090F8011101290ED001219E
:109A400080F80411802A0FD355F82400802200F1F9
:109A5000800170300EF033FD80260CE055F82410A4
:109A6000002081F8000170BD55F8240000F180014C
:109A700070300EF024FD55F82400324600F18001CC
:109A8000001DEEF7A3DF0028EDD170BDD0438000AC
:109A900070B50446022C01D3082070BD184D55F84E
:109AA000240090B190F86C307BB181B17AB100267E
:109AB00080F8026155F8240070300EF05CFD55F816
:109AC000240090F8001121B10AE0052070BD0420A7
:109AD00070BD90F8011119B990F86C10012901D0EE
:109AE000022070BD012180F800112046FFF796FF8B
:109AF00020B155F8241081F8006170BD002070BDC0
:109B0000D0438000704700002DE9F8430446464FDB
:109B100057F82400061D022C7DD290F86C10002905
:109B200079D001297ED180F80111002157F8240055
:109B3000D0E903231344027D02F00102D21D9D18D7
:109B40004268D36FC3F38003002BFAD090F804214E
:109B5000A2B1364A1368491C90F83B20102A06D05F
:109B60008268B3FBF2F26A43B1EBC21FF3D957F834
:109B7000240070300EF08EFC85B226E0B0F8248010
:109B8000C58C001DEEF724DF57F8240041F288331E
:109B900000EB0801491B8031001D2A46EEF71ADF51
:109BA000E5E757F824000122703069460EF087FC83
:109BB00057F824004068C16FC1F340010029FAD072
:109BC0009DF8001001606D1EADB2002DE9D157F86F
:109BD000240070300EF05EFC0028C8D13068416966
:109BE0004906FCD5EFF31085012080F3108857F863
:109BF000240070300EF04EFC58B1EFF310810120BC
:109C000080F310883068426842F08202426081F33B
:109C10001088002000E005E057F8241081F80101C9
:109C200085F31088BDE8F883D043800004418000AC
:109C30002DE9F04389B0054688462C78002D06D0E2
:109C40002AB1022C05D3082009B0BDE8F083052015
:109C5000FAE7384E05F1580046F82400D2E9003101
:109C60000A46703019460EF0F6FB291D894624225B
:109C70000C316846FBF710FE291D286D0EC910F047
:109C80000FF90028E0D12C490C200FF037FB2B49AD
:109C90000D200FF033FB2A4800EBC40797F90100B1
:109CA000EEF78ADE97F90100EEF788DE56F8240019
:109CB000C0F8649056F82400C0F8008056F82400DC
:109CC0001822083005F14001FBF7E6FD56F8241094
:109CD0007868486056F82400001D07F02BFD56F800
:109CE0002400001D07F05CFD351F0127287850B9BE
:109CF0002F701348032110300DF068FF6880002892
:109D000001DA0420A0E756F8240080F86C7056F8B9
:109D10002410002081F8000156F8241081F8010178
:109D200056F8241081F8020156F8241081F8030136
:109D30008AE70000D04380000D7101011D7101010F
:109D400068BF02012DE9F04104461A4D55F8240080
:109D500070300EF09FFB82B2164600277AB155F89C
:109D6000240090F80111012909D0802A0ED300F1B6
:109D70008001703080220EF0A2FB80260BE055F8A7
:109D8000240080F800710020BDE8F08100F180011E
:109D900070300EF094FB55F8240080F8047155F8EB
:109DA0002400324600F18001001DEEF715DE002888
:109DB000EAD1E9E7D04380002DE9F04106460C46A0
:109DC000174604F1080520465BF4F6D4C3B21B48DD
:109DD000E1184268914202DD0320BDE8F081184994
:109DE000184A006809681268891A081A001FE918D9
:109DF00081421CD94FF4004513A229460020EEF7FA
:109E0000D7DD02F091FA30B118A229460020EEF712
:109E1000CFDD0820E1E71DA229460020EEF7C8DDCE
:109E20003A4621463046BDE8F04110F0DBBC3A46E8
:109E300021463046BDE8F04110F0D4BCD832800055
:109E4000D0238000CC238000523A353A4E564453FA
:109E50002061726561206973206265696E672063A5
:109E60006F6D7061637465642E0D0A00523A353A65
:109E7000436F6D70616374696E67204E5644532062
:109E80006661696C65640D0A00000000523A353A5B
:109E9000436F6D70616374696E67204E5644532042
:109EA0007375636365737366756C0D0A000000005B
:109EB00000B500F007F8DFED020A30EEC00A00BD81
:109EC000D80FC93FF7EE000A01209FED1C1A20EEC3
:109ED000002A10EE101AB1F17E5F02DB9FED180A26
:109EE000704710EE101A11F1814F02D39FED150A41
:109EF00070474FF0FF3202EB400101EE901AF8EE8E
:109F0000E11A61EEA02AC0EE221A31EE811A01EEAA
:109F1000901AF8EEE11A61EE821A21EE800A4100F1
:109F200001EE901AF8EE611A61EEA00A401CC0B270
:109F30000628E0D9B0EE410A70470000000000009A
:109F4000D80FC93FD80FC9BF10B541EC100BFDF7B2
:109F500083F951EC100B10BD7CB50D460022009228
:109F600001926946EEF73ADD044634BB4FF42051C6
:109F70006846EEF735DDB8B942F601016846EEF7FE
:109F80002FDD88B942F603016846EEF729DD58B99E
:109F900042F602016846EEF723DD28B94FF424515A
:109FA0006846EEF71DDD08B1062406E00098C5F30B
:109FB0000B01808808430099888020467CBD000002
:109FC0002DE9F04782460E46174698464FF00109A4
:109FD0000025D8F80040002C18D11E48046815E070
:109FE0003188A08881420BD3E088814204D8214681
:109FF000504600F031F808B1246807E0012505E07B
:10A000002146504600F028F810B1246825B105E03B
:10A010000125A0883080F9E7002CE1D1B5B14FF0DF
:10A020000009A0883188884204D1201D38600120B1
:10A03000387109E0081A401E00EB400004EB4000B4
:10A040000E30386000203871C8F800404846BDE83E
:10A05000F0870000F80E800070B586B0002200EB9B
:10A060004003114C03EBC00304EB43052C7D17E0C8
:10A0700035F8123093B18E889E420FD8CE889E421A
:10A080000CD3CA8889888DE81F00084B084A4021F4
:10A090000020EEF78DDC012006B070BD521CD2B25C
:10A0A0009442E5D80020F7E7BCA1810076C5020103
:10A0B00014D002012DE9F04F8BB007460C46002565
:10A0C00000200890099060880790261FE188A288E8
:10A0D000CDE901210090614B61A240210020EEF703
:10A0E00067DC308850B93846EEF77CDC401E3080A3
:10A0F0006088A188884200D800B90125DFF89091D6
:10A10000002D60D104F10A000DF1200A0DF1140BAD
:10A1100004F106080A90A088069004A8CDE9020B75
:10A12000CDE9008A022306AA07A9384600F0ACF957
:10A130000546280008D00A2D45D0062D43D0BDF88D
:10A140001800401C079032E0E088B0F5205F03D093
:10A1500042F60101884208D1BDF81000217AC3B24D
:10A16000059A0A98EEF740DC48B92289BDF810003C
:10A17000824218D105990A98FBF7FEFA98B9022194
:10A18000082015F4A1D60146BDF81C008880BDF852
:10A190001800C880083E59F827006030EEF726DC2A
:10A1A0003846EEF725DCBDF81800401C0790A08863
:10A1B000BDF81C10884206D3BDF81810884202D0A2
:10A1C00030880428A7D2062D36D059F827006030F1
:10A1D000EEF710DC40B300244FF6FF7101EA800671
:10A1E000062000EB0723072204213846009618F4C6
:10A1F0001BD201464E8059F82700006E0EE083887E
:10A200000A1913711B0A5371A41CA4B2C3880A193A
:10A2100013711B0A5371A41CA4B200680028EED16C
:10A220000846EEF7E9DB0AE021780A23BDF81C2096
:10A230003846EEF7E3DB02E0BDF81C006080074B18
:10A2400014A2402100200095EEF7B2DB062D03D0CA
:10A2500000200BB0BDE8F08F0120FAE73EC50201F7
:10A26000523A333A5B25735D20656E7465722C201B
:10A2700073683D307825782C2065683D30782578E6
:10A280002C20747970653D307825780A0000000034
:10A29000C40E8000523A333A5B25735D20657869BD
:10A2A000742C207374617475733D307825780A00BE
:10A2B0002DE9F04F85B081460E464846EEF792DB19
:10A2C000801E1FFA80FAD0460024B0887188CDE93C
:10A2D0000010574B57A240210020EEF769DB708831
:10A2E000B188DFF874B1884211D880B170880490C9
:10A2F000002002900390019001AB02AA04A94846F5
:10A30000FFF75EFE0546280003D00A2542E001253E
:10A3100040E0B088BDF81010884232D302211820E6
:10A3200015F4D2D50746012000900023FA1DB91D6F
:10A3300002A8EEF765DB0546280007D040F24E2361
:10A3400046A22946BDF81000EEF75CDBBDF8100010
:10A35000B88004B9BC79B879A04203D0384615F466
:10A3600033D417E05BF8290039466030EEF73EDB66
:10A37000A8EB0400801E1FFA80F8BDF81000401CF6
:10A380000490B188BDF81000814203D310B1A01C25
:10A390008045B1D25BF82900006E18B1002018B1D9
:10A3A0009DB334E00120FAE70026AAEB08081FFA63
:10A3B00088F00090062000EB09230522042148467E
:10A3C00018F432D10746022C08D002207870788821
:10A3D000404478805BF82900046E10E00120F5E726
:10A3E000A188B8198180B61CB6B2B819A279001D2F
:10A3F000E11DFBF70CFAA079304486B22468002CEA
:10A40000EED13846EEF7F8DA07E0FFE70A25728862
:10A4100031782B464846EEF7F1DA054B13A240217E
:10A4200000200095EEF7C4DA05B00020BDE8F08FFB
:10A4300025C50201523A333A5B25735D20656E747F
:10A4400065722C2073683D307825782C2065683D36
:10A45000307825780A000000C40E8000617474739F
:10A460005F70617463682E6300000000523A333AF3
:10A470005B25735D20657869742C20737461747535
:10A48000733D307825780A002DE9F04F87B0834678
:10A49000DDF844900C4615469A460026B4F8008034
:10A4A0000027019701AB4A4621465846FFF788FD31
:10A4B00010B12888208026E02088298888421BD86F
:10A4C000002302AA06A948460097EEF799DA01464A
:10A4D00029B1208840F269131AA2EEF793DA9DF8A9
:10A4E000183002AA51461098EEF77EDA08B101261C
:10A4F00002E02088401C20802EB9208829888842CC
:10A5000001D80028CED16EB122884B460021584692
:10A51000EEF77ADAC6B220884946EEF777DA288075
:10A5200026B10AE00A26A4F8008006E02188DDE9C9
:10A5300012235846EEF76CDAC6B207B03046BDE8D3
:10A54000F08F0000617474735F70617463682E63D0
:10A55000000000002DE9F04105460C46FF26217A57
:10A560001E2905D022480279521E52B200683AE0F4
:10A5700004F108012846EEF74DDA064635E010F8FA
:10A5800032308B422DD11B4E56F82500406F30B330
:10A5900000273B4618A240210020EEF709DA0620EA
:10A5A00000EB052015F4E6D6C00605D5002717A256
:10A5B00040210020EEF7FCD921460C3956F8250041
:10A5C0007430EEF713DA0020A08001266FB115A2D7
:10A5D0004021EEF7EDD92846EEF71EDA05E0012717
:10A5E000D7E7521E52B2002AC9DA3046BDE8F081E0
:10A5F0007C058000C40E8000523A333A657865636A
:10A600007574653D307825780A000000523A333A77
:10A61000636F6E6E656374206E6F742063666D0A7F
:10A6200000000000523A333A737461727420657806
:10A6300065637574650A00000348024901600D21D5
:10A640004160704784C402017C0580002DE9F04F11
:10A650008BB082460C460026002009900A90608844
:10A660000890251FB0462988A288CDE901210090D5
:10A670006D4B6EA240210020EEF79AD9288850B980
:10A680005046EEF7AFD9801E28806088A1888842A6
:10A6900000D800B90126714850F82A00006E10B1A8
:10A6A000002111B103E00121FBE790F80680002EA4
:10A6B0005DD104F1080BA088079006A805A909AA96
:10A6C000CDE90210CDE900B2A37907AA08A9504646
:10A6D000FFF7DAFE0646300049D1BDF81410884570
:10A6E00002D0B8F1000F42D12888001FFB22FB28BE
:10A6F00000D31046814200D2084687B2022107F1FA
:10A700000C0015F4E1D38146BDF81480BDF820009B
:10A71000A9F80400BDF81C00A9F8060089F8087023
:10A720003A4609F109000699FBF771F82888C01B21
:10A73000001F28804948494650F82A006030EEF74B
:10A7400055D9BDF81400874202D15046EEF750D9D2
:10A75000BDF81C00411C89B20891A2888A4206D328
:10A76000824204D0298808F104008142A3D2062E37
:10A7700048D03A4D55F82A006030EEF73BD9C0B3C7
:10A78000002755F82A100C6E217A091D41431FFA43
:10A7900081F8062000EB0A23112204215046CDF84F
:10A7A000008017F441D70546A5F80280217A091DDB
:10A7B000697018E0A188E8190171090A4171BF1C8C
:10A7C000BAB2E188A8180171090A4171921C97B2C6
:10A7D000E819227A001D04F10901FBF718F8207A24
:10A7E000384487B22468002CE4D12846EEF704D917
:10A7F0000BE0FFE721783346BDF820205046EEF706
:10A80000FDD802E0BDF820006080074B14A2402173
:10A8100000200096EEF7CCD8062E03D000200BB017
:10A82000BDE8F08F0120FAE705C50201523A333A3C
:10A830005B25735D20656E7465722C2073683D30F6
:10A840007825782C2065683D307825782C20726535
:10A850005F6C656E3D307825780A0000C40E80007C
:10A86000523A333A5B25735D20657869742C207306
:10A8700074617475733D307825780A002DE9F04FC6
:10A880008BB082460C460026002009900A90608812
:10A890000890251FB046A188694BCDE9000169A247
:10A8A00040210020EEF784D8288850B95046EEF7B2
:10A8B00099D8801E28806088A188884200D800B975
:10A8C0000126694850F82A00016E11B1002010B12C
:10A8D00003E00120FBE791F80680EEBB04F1080BD2
:10A8E000A088079006A805AA09A9CDE90220CDE90C
:10A8F00000B1A37907AA08A95046FFF7C5FD06468F
:10A90000300047D1BDF81410884502D0B8F1000FCF
:10A9100040D12888801EFD22FD2800D310468142A8
:10A9200000D2084687B2022107F1080015F4CCD204
:10A930008146BDF81480BDF82000A9F8040089F80C
:10A9400006703A4609F107000699FAF760FF288871
:10A95000C01B801E288000E01CE04348494650F898
:10A960002A006030EEF742D8BDF81400874202D1C9
:10A970005046EEF73DD8BDF81C00411C89B2089145
:10A98000A2888A4206D3824204D0298808F10200B4
:10A990008142A5D2062E40D0334D55F82A006030B2
:10A9A000EEF728D880B3002755F82A100C6EA1794D
:10A9B000891C41431FFA81F8062000EB0A23092273
:10A9C00004215046CDF8008017F42ED60546A5F890
:10A9D0000280A179891C697010E0A188E8190171D1
:10A9E000090A4171BF1CBFB2E819A279001DE11D1F
:10A9F000FAF70DFFA079384487B22468002CECD117
:10AA00002846EDF7F9DF0BE0FFE721783346BDF884
:10AA100020205046EDF7F2DF02E0BDF82000608014
:10AA2000074B12A2402100200096EDF7C1DF062E51
:10AA300003D000200BB0BDE8F08F0120FAE7000042
:10AA40005AC50201523A333A5B25735D20656E7434
:10AA500065722C2073683D307825782C2065683D20
:10AA6000307825780A000000C40E8000523A333A4C
:10AA70005B25735D20657869742C2073746174752F
:10AA8000733D307825780A002DE9FF5F81460F4637
:10AA90000024A246CDF808A0CDF80CA0584850F8E4
:10AAA00029006030EDF7A6DF80463D1F79882888B1
:10AAB000544BCDE9001054A240210020EDF778DF7F
:10AAC0002888E8BB4846EDF78DDF401E2880002629
:10AAD00011E007EB460002AB828800214846EDF703
:10AAE00093DFC4B2CDF808A0CDF80CA00CB1B046ED
:10AAF0003BE0761CB6B27888B042EAD835E007EB86
:10AB000048006B46818801AA4846EDF781DFC4B250
:10AB10003CBBBDF804002988884200D3084686B2B1
:10AB2000022106F1080015F4CFD18346ABF804608A
:10AB300032460BF106000099FAF769FE304800E052
:10AB400013E050F8290059466030EDF74FDF4846D2
:10AB5000EDF74EDF2888801B288008F101081FFAD6
:10AB600088F8CDF808A0CDF80CA07888404503D926
:10AB7000288808B1002CC2D044BB4846EDF732DF2C
:10AB80002988401A401E86B20025062000EB0923C2
:10AB90000F2204214846009617F446D58246AAF8AB
:10ABA0000260174850F82900066E0AE00AEB05001B
:10ABB000B288001DB11DFAF72AFEB088284485B27C
:10ABC0003668002EF2D15046EDF716DF4CB1062C58
:10ABD00007D007EB48003978828823464846EDF7CE
:10ABE0000DDF084B14A2402100200094EDF7E0DEB9
:10ABF000062C03D0002004B0BDE8F09F0120FAE746
:10AC0000C40E8000ECC40201523A333A5B25735DF6
:10AC100020656E7465722C206E625F68616E646C74
:10AC2000653D307825782C2072655F6C656E3D300F
:10AC30007825780A00000000523A333A5B25735DAC
:10AC400020657869742C207374617475733D307855
:10AC500025780A0010B500210A4C0023002001EBE2
:10AC6000410202EBC10204EB420222F81030401C08
:10AC7000C0B20A28F9D31375491CC9B20A29EDD309
:10AC800010BD0000BCA181001FB50F4890F8020163
:10AC9000002818D0684639F44DD3DDE900010B4C8B
:10ACA000CDE90201E1680844094920F0704048609C
:10ACB000084639F4D5D5607818B1BDE81F400DF0CD
:10ACC00075BD0DF08FFD1FBDC01A8000A84B800020
:10ACD000B41A800002460020002152F821300BB146
:10ACE000401CC0B2491CC9B20C29F6D3704710B53C
:10ACF0000AF0C8FBBDE8104003F072BC0AF058B976
:10AD000010B58CB008A80EF003FDBDF8221009980C
:10AD10009DF82120CDE904109DF820302EA04FF49D
:10AD2000E471CDE90232CDE90010354B35A23BA1EB
:10AD30000220FEF7D5F90AA84BF43AD1044654B1E3
:10AD400014222F490E3103A8FAF7A6FDADF81040E2
:10AD500003A8FDF7D5FA9DF828009DF82910CDE944
:10AD600006109DF82A209DF82B30CDE904329DF87D
:10AD70002C109DF82D002BA240F2CD13CDE900320E
:10AD8000CDE902011E4B1FA224A10220FEF7A8F963
:10AD90002FA04FF4EA71CDE90010194B19A21FA1A1
:10ADA0000220FEF79DF90EF0EFF803F001F93149AA
:10ADB000002000F0D9F90446002C0AD014221049D2
:10ADC000223103A8FAF768FDADF8104003A8FDF79B
:10ADD00097FA0CB010BD0000476F6F64697820428D
:10ADE0004C452053444B205625642E25642E256463
:10ADF0002028636F6D6D697420257829000000009C
:10AE00007AC202012E2E5C5372635C757365725CAC
:10AE1000757365725F6170702E6300004E4F5F54F2
:10AE2000414700004C6F63616C20426F6172642087
:10AE3000253032583A253032583A253032583A25A2
:10AE40003032583A253032583A253032582E0000E8
:10AE500054656D706C617465206672656572746F9F
:10AE600073206578616D706C6520737461727465B0
:10AE7000642E0000004780002DE9F0410546884619
:10AE8000284655F45DD1C0B22449097888420DD2D4
:10AE900000EB4000213040F400404246AC210BF072
:10AEA000A1FA0446200032D0012430E055F48CD1C0
:10AEB000C7B207EB470606F1200040F400402A46DF
:10AEC00007210BF08FFA10B10120BDE8F081384660
:10AED00061F4CAD206F1210040F400404246AC21A0
:10AEE0000BF080FA0446200001D00120EDE7223665
:10AEF00046F400400BF0CCF80949C7EBC7000968DD
:10AF0000084429680160A9888180A97981711CB9E8
:10AF100041462846FCF7B0FE2046D6E7382380009D
:10AF20003C2380000020704710B50DF0B5FC0DF0FB
:10AF3000E5FC0DF04FFC0DF065F80EF085FD00F01E
:10AF40004FFC0DF0EFFC00F099FBBDE8104000F065
:10AF50007BBB0CF0DBBF10B509F0DEF90AF09EFBFD
:10AF600009F0EAF909F0FAFD09F04AFA08F028FBBD
:10AF7000FFF762FB03F0E4FE0DF068FD0EF09CF9B4
:10AF8000BDE81040FFF766BE0148FFF7A3BE000012
:10AF9000B413800010B5FFF7DCFF054903480860D3
:10AFA000BDE81040034860F4D194000017B8800455
:10AFB00074C500A00087930310B50446002C0CD084
:10AFC000204600F0DDFA002807D10449496800292D
:10AFD00003D02046BDE81040084710BD404980001E
:10AFE0003EB5028840F20933A2F209314FF4807471
:10AFF0009A423DD036DC40F20D23A2F20D219A4256
:10B0000036D01ADC40F20623A2F206219A422FD053
:10B010000DDC40F202218A422ADAA24228D1FFF74F
:10B020006FFE0EF0EBFEBDE83E400EF017BF0329A9
:10B030001ED2DFE801F01D324200F5294CD00ADCB7
:10B04000042915DDF32913D0F42911D1BDE83E40C0
:10B050000830FCF7D3BFF639042909D2DFE801F044
:10B0600008080843B1F5FF7F44D002DC40F2F71234
:10B070003EBD40F2F7439942FADAB1F57E7FF7D050
:10B08000F6DCA1F50071F739F2D141880029EFD142
:10B09000C088BDE83E4053F47D9740880028E7D043
:10B0A00019A140F20712CDE9002102901F4B20A206
:10B0B00025A10320FEF714F83EBD007A0028FBD13D
:10B0C00023A04FF48771CDE90010184B18A21EA1E0
:10B0D0000320FEF705F83EBD017A007903B0BDE814
:10B0E0003040FCF7D9BF007903B00121BDE8304002
:10B0F0004BF45A95017A0129EDD18189007903B089
:10B10000BDE8304000F048B9416476657274696EFC
:10B11000672073746172746564206661696C65642C
:10B1200028305825303258292E0000006AC202010A
:10B130002E2E5C5372635C757365725C75736572F9
:10B140005F6170702E6300004E4F5F5441470000F6
:10B150004164766572746973696E672074696D65A0
:10B160006F75742E000000002DE9F84307460D4668
:10B17000EFF311865948017859480068C0F302205E
:10B18000401C012282408818C0B280F3118855F417
:10B19000ADD08046052F06D352A210210020EDF736
:10B1A00007DC152487E09DB15148C7EBC70100EBD0
:10B1B0008104E06860B1607A08B152F4F1D7607A36
:10B1C00068B14CA210210020EDF7F2DB0F2472E0F1
:10B1D0004BA210210020EDF7EBDB02246BE020698D
:10B1E000F8B9E068017841B1012910D047A21021D7
:10B1F0000020EDF7DDDB23245DE08078400710D4EC
:10B2000045A210210020EDF7D3DB232453E0807802
:10B21000800706D443A210210020EDF7C9DB2324C8
:10B2200049E0E06841888A0704D50278012A01D103
:10B2300062691AB10278022A07D008E03CA2102104
:10B240000020EDF7B5DB252435E0A26962B10907DE
:10B2500011D5298809B180290DD938A210210020E3
:10B26000EDF7A6DB262426E037A210210020EDF71B
:10B270009FDB24241FE0407802280CD1288818B1D5
:10B2800044F25061884206D932A210210020EDF725
:10B290008FDB26240FE0E06928B90021042050F458
:10B2A00023D3E061B8B1E069296801603946002024
:10B2B00055F478D100243B4629A2102100200094A7
:10B2C000EDF776DB404654F4DBD7F0B280F311881B
:10B2D0002046BDE8F8831024EDE7000002E400E01A
:10B2E0000CED00E0523A313A453A310A00000000D4
:10B2F0007C278000523A313A453A330A0000000078
:10B30000523A313A453A320A00000000523A313A94
:10B31000453A360A00000000523A313A453A340ABA
:10B3200000000000523A313A453A350A0000000068
:10B33000523A313A453A370A00000000523A313A5F
:10B34000453A390A00000000523A313A453A380A83
:10B3500000000000523A313A453A31300A0000000C
:10B36000523A313A6164765F73746172745B25643A
:10B370005D3A20453A3078253032780A00000000E6
:10B380000A2805D2034A002152F8200080F88F10C5
:10B3900070470000C40E800070B504460D4620467C
:10B3A0000DF012FB002805D129462046BDE870406B
:10B3B0004DF4009670BD70B504460D4620460DF064
:10B3C00003FB002804D1294620464EF49FD680B2C4
:10B3D00070BD000070B505460E46002D05D00D4825
:10B3E00053F4C2D084B214B110E0022070BD142016
:10B3F00060F434D5014659B10D61CE60064A5078EB
:10B400000871401C5070101D08F09EF9204670BD58
:10B41000102070BD6CC40201D849800070B504468C
:10B420000D4620460DF0D0FA002805D129462046C9
:10B43000BDE870404EF4B09770BD00002DE9F041BA
:10B4400019A240210020EDF7B3DAEFF311841E4872
:10B4500001781E480068C0F30220401C012505FA4F
:10B4600000F00844C0B280F3118854F43FD7064678
:10B470004AF4BCD2002116480368164809E001EBE3
:10B48000410203EB82121778012F00D15572491C3B
:10B49000C9B202789142F2D3304654F4F1D6E0B208
:10B4A00080F31188BDE8F081523A333A73646B201F
:10B4B00067617474732073657276206368616E6768
:10B4C0006564210A0000000002E400E00CED00E0E9
:10B4D000DC228000E423800070B504460D4620463F
:10B4E0000DF072FA002804D1294620464FF440D2CC
:10B4F00080B270BD00B58BB0094901200870FF22F1
:10B50000282101A8F9F774FE4FF48070ADF804000B
:10B510000020ADF8060001A8FFF74EFD0BB000BDFE
:10B520004049800010B506480068002800D08047D8
:10B53000EBF786DA08B1012010BD002010BD000035
:10B54000EC4B800010B540F440400AF0A1FD10BD66
:10B5500010B540F440400AF045FF10BD04490160B9
:10B5600004494160044981600449C160704700009A
:10B5700041C2060015C2060051B5010145B50101E1
:10B5800070B50446002C1FD04FF6FF731946228871
:10B5900040F20155A2F201504FF48076AA424CD0FD
:10B5A0001BDC40F20245A2F20240AA4234D00DDC7C
:10B5B000A2F54072013A25D0012A23D0FF2A29D0D2
:10B5C000B2422ED121892CE0002070BD012825D067
:10B5D000022825D0FE2824D12AE004282DD006DC1C
:10B5E00001282AD0022828D003281AD125E00528CE
:10B5F00023D0062821D0B04213D1204603F052FABE
:10B60000002070BD204603F081FE204603F0FAFCC6
:10B61000002070BD218904E0218902E0618900E0F9
:10B62000218A99420ED0204603F080FE012070BD91
:10B63000204603F07BFD002070BD204603F0F2FCA5
:10B64000002070BD002070BD10B5212109480CF00C
:10B650008FFB072108480CF085FB012105480838BD
:10B660000CF07AFBFFF777FC0520FFF747FBFFF7AD
:10B670003EFB10BD144180001C4280000449034879
:10B6800008600549034808607047000089DA010135
:10B690000C228000C5DC01011822800070B5002654
:10B6A000150A0E4805EB450200EB021409882180BB
:10B6B0000120A0702846FFF763FE002054F4E0D577
:10B6C0000748016829B10B681BB122880021284670
:10B6D000984754F40BD6304670BD0000D42E80003D
:10B6E000B82280003EB500241D0A0A78122A02D032
:10B6F000132A04D006E000208DF8000002E00120AB
:10B700008DF800008888ADF804004888ADF8020084
:10B71000891D0291002054F4B3D50B48016829B16A
:10B720008A691AB169462846904708E09DF80000EA
:10B73000012804D1BDF804102846FFF72DFE54F46B
:10B74000D5D520463EBD0000B422800001480078D7
:10B7500070470000044C80007CB50E46150A00209E
:10B7600000900190694628465EF408D69DF80620B0
:10B770006946284603F0A6F90446CCB14EF406D437
:10B78000C0B14EF403D4C01C81B2328800232046DD
:10B7900058F4E4D7694628460DF094F940B106A262
:10B7A00040210020EDF704D9214668464AF44CD1E7
:10B7B00000207CBD0020E7E7523A333A736176659A
:10B7C00020636363640A00007CB5DDE90654CDE9BB
:10B7D000005452F407D2BDE87C400CF051BA00008E
:10B7E0000249014808607047C9B701014823800039
:10B7F00010B588B0044652F483D40020079007A8FF
:10B8000040F42AD30798FFF7A9FE206801906068EA
:10B810000290A0680390E0680490208AADF81400BC
:10B82000608AADF81600A08AADF81800E08AADF87D
:10B830001A0001A840F43AD340F41AD3034801682F
:10B8400001614168416108B010BD0000300100B0E5
:10B8500010B58AB00446FF2228216846F9F7C8FCD3
:10B8600040F20271ADF800100021ADF802108DF821
:10B8700004406846FFF7A0FB0AB010BD0A46014627
:10B8800000200AF0F5BE30B58568027B002D02D09D
:10B89000002001210CE0104630BDCB0801F0070468
:10B8A000EB5CE340DB0701D0401CC0B2491CC9B2CD
:10B8B0008A42F2D830BD000000230849496808E0F8
:10B8C000CA88824204D80A89824201D3CB6802E046
:10B8D00009680029F4D1184670470000D849800053
:10B8E00001460548406803E002798A4202D00068B8
:10B8F0000028F9D170470000D849800070B5104E7B
:10B900003078FFF7EDFF0446200006D020694EF4A2
:10B9100021D60546280002D00DE00C2070BD20691C
:10B92000FFF7B1FF0146206902681288E2800068D3
:10B930000088084420813078401C3070E8B270BD27
:10B94000D849800070B519480468194D2878002836
:10B9500001D0002070BD4FF080605DF4C9D3EAF7DC
:10B960003FDB60085EF4D4D21249086088171149A1
:10B9700001262C39086010497006C1F8FC01C8671F
:10B980004FF03041086B40F007000863094C303C31
:10B99000206840F4E0202060EAF764DB2E70206825
:10B9A00020F4E0202060012070BD00006C248000A5
:10B9B000E44B800070C500A084E000E070B5002476
:10B9C000EFF31086012080F31088EAF766DB104D54
:10B9D00028B102242968B9B10220884714E0FFF792
:10B9E000A1FD20B1296879B1002088470CE0FFF75C
:10B9F000A9FF28B10224296831B10220884703E059
:10BA0000296809B10020884786F31088204670BD58
:10BA10005C24800010B5084A1378002B01D00F2059
:10BA200010BD31B150600448243000F007F8002008
:10BA300010BD022010BD0000404980002DE9FC47E8
:10BA400005460C46FFF770FA54F450D407463648C2
:10BA5000006800B18047354901200DF04FFC3449A2
:10BA600002200DF04BFC0120F9F768FEA08E81B298
:10BA7000206B02F0A1FDDFF8BC90DFF8BC80E1692B
:10BA800099F8000098F800200244B1FBF2F1CEB220
:10BA900016FB00F1A06950F489D428684FF418D03F
:10BAA00068684AF425D7286952F4C4D3A8684DF4CD
:10BAB000BDD1E8684DF462D2204837F4EBD5204878
:10BAC00037F4EED51F4837F4F1D51F4840F41AD2A9
:10BAD0001E4837F495D51E4837F498D51D4837F4DD
:10BAE0009BD51D4850F436D44FF080605DF400D3F0
:10BAF0002046FFF77DFED4E90A01CDE9000199F85F
:10BB00000010A06916FB010098F8001016FB01F167
:10BB1000D4E90823114C2468A047384654F4B0D324
:10BB2000BDE8FC4750F4FA948026800039380600BE
:10BB3000DD37060029D507002AD50700119F070029
:10BB4000B9C3060065C40600EDAF070025ED060089
:10BB500045ED060065ED0600799B0700482380004F
:10BB600010B50A4601460A480CF005FD094841880F
:10BB700007480CF085FC002809D0002105200EF0B4
:10BB800067F90021BDE81040084603F0A5BE10BDCE
:10BB9000549D81000E478000034900EB800001EBBB
:10BBA00080008088704700003C4A8000034A00EB18
:10BBB000800002EB80008180704700003C4A8000DA
:10BBC00010B500F065F800F047F8BDE8104000F04F
:10BBD00001B8000000B58FB003228DF800204FF4AB
:10BBE0008050019005218DF8081001208DF8090082
:10BBF00000238DF80A308DF80C20430304938DF850
:10BC000014108DF815008DF816008DF81820C30358
:10BC100007938DF820108DF821008DF822208DF8E3
:10BC2000242082030A928DF82C108DF82D00022218
:10BC30008DF82E2004238DF830300D928DF83810B9
:10BC40008DF839008DF83A30024A6846FDF76AF9F6
:10BC50000FB000BD218F01017CB510260096022493
:10BC60008DF804408DF8054007258DF8065069468B
:10BC70000320FCF7FDFE00968DF804408DF805408A
:10BC80008DF8065069460520FCF7F2FE7CBD0000E9
:10BC900000B587B000F058F803208DF800001D2093
:10BCA0008DF8160001208DF817008DF818008DF81A
:10BCB0001900044A04496846FDF7E6F9FCF720F943
:10BCC00007B000BD41BD0101B1BD01011CB504219A
:10BCD0000170009102208DF804008DF80500072006
:10BCE0008DF8060069460320FCF7C2FEC0B21CBDF9
:10BCF00010B500210BE000EB81025378D4781B04CF
:10BD000043EA0423947823435361491CC9B202785F
:10BD10008A42F0D8002010BD10B500F0F2FFC0B28A
:10BD200010BD10B500F07AFF00F0C0FF00F046FF34
:10BD3000102000F055FF672000F0C9FF002010BD63
:10BD40000020FDF7E1BE00001CB5154800904FF43F
:10BD5000806001901348002101704FF4E1320264C9
:10BD6000032343648164C164016501224265037455
:10BD70001024446141740276037108238360417189
:10BD80000273094B8363436380F83D2080F83C10C5
:10BD90006A460649FDF74CFF0248FDF709FE1CBD47
:10BDA000408B8000408F8000003001A0059B010186
:10BDB0000A4601460020FDF76BBE1CB54FF000702F
:10BDC000009001208DF804008DF8050007208DF803
:10BDD000060069460320FCF74BFEC0B21CBD0121E2
:10BDE00000F016B81CB54FF08060009002208DF86E
:10BDF000040001208DF8050007208DF80600694633
:10BE00000320FCF735FEC0B21CBD0021AFF300805B
:10BE100010B5002805D10A464FF080610320FCF7D9
:10BE200019FF002010BD000000229FED0A0A30F922
:10BE3000123000EE903A01EB8203F8EEE00A60EE79
:10BE4000800AC3ED000A521CD2B2032AEFD30020AD
:10BE5000704700000ACC9C3A00EB8100C26070473A
:10BE600070B50446A168207988470146E07842070A
:10BE700002D02288521C2280B1EBD01F10D04FF08C
:10BE8000005202EBB0104FEAB060C0F3C202E070A3
:10BE9000052A08D361F3C71020F03800E07002E0F3
:10BEA00020F03800E070E078002500F00701062956
:10BEB00075D2DFE801F00322498BCEAFC0F38011C9
:10BEC000B1EBD01F13D1A07820F0F000A070E16892
:10BED00009B1204688472580A07820F00F00401C3B
:10BEE000A070E07820F00700401CE07070BDA078E2
:10BEF00020F0F0008030A07070BDC0F38011B1EB75
:10BF0000D01F0FD0A07820F0F0001030A070216971
:10BF100009B1204688472580E07820F00700801C82
:10BF2000E07070BD2088C828FBD9A07820F0F00010
:10BF30005030A070216A09B120468847E07820F08F
:10BF40000700401DE07070BDC0F38011B1EBD01F41
:10BF50001AD1A07820F0F000A070E16809B1204665
:10BF60008847A0784FF0805101EB30104FEA3070D5
:10BF7000A070616909B1204688472580E07820F0EB
:10BF80000700C01CE07070BD20883C28FBD9A07859
:10BF900000F00F01012903D002290AD011E058E076
:10BFA00020F0F0003030A070A16951B120468847E0
:10BFB00007E020F0F0004030A070E16909B12046B0
:10BFC0008847E07820F00700E07070BDC0F3801172
:10BFD000B1EBD01F17D0A07820F0F0001030A07087
:10BFE000216909B12046884720883C2806D225804F
:10BFF000E07820F00700801CE07070BDE07820F051
:10C000000700E07070BD21883C29FBD920F00700B3
:10C01000E07070BDC0F38011B1EBD01F0BD1A078E0
:10C0200020F0F0006030A070616A0029F1D0204655
:10C03000BDE870400847A07820F0F0001030A070F4
:10C04000216909B120468847E07820F00700E070B8
:10C0500070BD20F00700E07070BD2DE9F04104468E
:10C060000D4617461E462C212046F9F769FCA0789C
:10C0700020F0F0008030A070A5603046A84701464F
:10C08000E07861F3C71067F38610E0702671BDE8B1
:10C09000F0810000074B19680A4605E0814202D191
:10C0A0004FF0FF307047896A0029F7D1826218602B
:10C0B000002070472447800010B50548046803E05D
:10C0C0002046FFF7CDFEA46A002CF9D110BD000078
:10C0D0002447800030B591B005460C461C223D49EE
:10C0E0000AA8F9F7D9FB1C223A491C3103A8F9F731
:10C0F000D3FB394884420AD33848B4FBF0F2A2F5A6
:10C100002852CD3AB4FBF0F100FB114101E00022CE
:10C1100000213C23B1FBF3F003FB10108DF800006D
:10C12000B1FBF3F0B0FBF3F103FB11018DF801104B
:10C13000B0FBF3F08DF802004FF4FA63901D072175
:10C14000B0FBF1F401FB14008DF8060040F2B5508D
:10C15000B2FBF0F103EB81018BB2B2FBF0F100FB1B
:10C1600011214FF4B770814201D303AA00E00AAA5B
:10C1700081420AD3491E40F26D10B1FBF0F4234412
:10C180009BB2B1FBF0F400FB14111F20B1FBF0F0E7
:10C19000401CC4B28DF8044032F81400884202D822
:10C1A000641C8DF804409DF80400401E12F8100035
:10C1B000081A401C8DF80300A3F5FA638DF80530CA
:10C1C0000098286001986860BDF80800288111B0C7
:10C1D00030BD000060C3020180436D388051010012
:10C1E00070B54279642302F5FA62B2FBF3F403FB03
:10C1F000142242F6CD2340F26D145443D51C04EBB7
:10C2000095041C44037940F26F1513FB05F50C26C9
:10C21000A5F5B57595FBF6F5022B01D8002202E0D5
:10C22000920716D00222AA1A2244C378521E13443F
:10C23000094A534382784FF4616412FB04F4427854
:10C240000078C2EB021204EB82021844104408602A
:10C2500070BD0122E7E700008051010070B506467D
:10C2600042F2107407F066FB054607F063FBA84234
:10C2700001D0641EF6D114B13060002070BD0020E2
:10C280003060012070BD704704480178032902D056
:10C290000221017070470021017070471A47800029
:10C2A00004484178012904D10178002901D10121F4
:10C2B000017070471A478000A0F18070B0F5005FF0
:10C2C00001D2012070470020704700000E4910F194
:10C2D000210F06DA086820F4704040F440500860EE
:10C2E000704710F11D0206D3086820F4704040F436
:10C2F0008040086070470A28FCDD086820F4704020
:10C3000040F4A0400860704724C500A010B50CF0B0
:10C31000D7FA0BF045FC0DF02DFA00F035FBBDE827
:10C3200010400CF03BBA00002DE9F04F87B07B487D
:10C33000D0F8009000240025A24600260DF0DAFB7C
:10C3400077480168C9F800104068C9F804007548CA
:10C3500000680830059009F108000690042203A93E
:10C36000059800F0DDFABDF80C10A1F57F40FF380C
:10C3700043D0082203A9059800F0D2FABDF80E00B8
:10C3800059F41AD200F0FF08BDF80C00002867D05D
:10C390000698A9EB000707F58057BDF80E1008F1C5
:10C3A000080083460844B84263D805AB082203A9B5
:10C3B00006A800F0EBF8BDF80E00002300EB080221
:10C3C00005A906A80BF0B2FC641CBDF80E00584489
:10C3D000B842C3D10020CDE9006053464A46214609
:10C3E00028460EF015F9002826D1824600260024A2
:10C3F000CDF818906D1CEDB2B0E70020CDE90060DB
:10C4000053464A46214628460EF002F9002813D129
:10C410006D1CECB2434D4FF48057434E08E0286842
:10C4200000EB0430394604F09FFA40B1641CE4B2DA
:10C43000707AA042F3D8002007B0BDE8F08F3B48E7
:10C440008169407A40F27C42CDE900200291384B6C
:10C4500038A24FF400410020ECF7AADA0920EBE7FC
:10C46000BDF80E00059908F10808084440440590FD
:10C4700074E7082F29D305AB082203A906A800F00A
:10C4800085F8083F2FB100233A4605A906A80BF00E
:10C490004DFC611C0020CDE9006053464A46284609
:10C4A0000EF0B6F80028C7D18246BDF80E00404411
:10C4B000C61B0024CDF818906D1CEDB20023324647
:10C4C00005A906A80BF032FC48E705AB3A4603A9DC
:10C4D00006A800F05BF8611C03A8CDE90060534694
:10C4E0004A4628460EF094F80028A5D1C7F1080A5C
:10C4F000BDF80E0000EB08060024CDF818906D1C66
:10C50000EDB20123524605A906A80BF00FFC00234B
:10C51000324605A906A80BF009FC1FE7B0488000C9
:10C52000ACD50700CC238000D8328000641F800087
:10C53000E8C30201523A353A25732C204C25642079
:10C54000666C61736820737461746520307825307F
:10C5500032582C206572726F72203078253038582E
:10C560000D0A00000221B0FBF1F2FF2A04D8B0FB53
:10C57000F1F201FB12022AB1491CC9B24029F2D3DF
:10C5800000207047B0FBF1F0C0B2704770B50446B0
:10C5900015461E462A462068F9F739F930682844BE
:10C5A000306020682844206070BD000010B5054848
:10C5B000017B491C017300205DF418D3BDE81040D5
:10C5C00000F050B8E44980002DE9FE43FEF7C1FCBD
:10C5D0001E48016821F4003101601C4E083E30689D
:10C5E0001B4980B2084330601A4803C8CDE90001F6
:10C5F00016482C380068C82100F007001DF800001C
:10C6000010FB01F514480768144CD4F80080384634
:10C61000414604F0EFF862686068831AAB42FBD3CE
:10C620004146384604F0C6F80BF040FB02909DF8F6
:10C63000080028B19DF80800094948618861C8616F
:10C64000306820F07F403060BDE8FE8330C500A038
:10C6500000008F11E0C80101FCED00E0001000E0D7
:10C66000E44980002DE9FC412D4E306820F07F40E8
:10C6700040F0885030602B4803C8CDE900012848BD
:10C680002438006800F007011DF80100C82110FBE4
:10C6900001F525480768254CD4F800803846414606
:10C6A00004F0A8F862686368981AA842FBD3414670
:10C6B000384604F07FF800250BF0F8FA0446DFF85E
:10C6C0007080D8F81800844201D9012700E00027C3
:10C6D0005DF432D140B91FB1D8F81800201A02E039
:10C6E000D8F81800001BC5B2D8F81800C8F8200008
:10C6F000B5EB900F03D8292C01D8112C02D200F0F1
:10C7000019F807E000EBC00020440A21B0FBF1F06B
:10C71000C8F81800306820F07F403060BDE8FC8128
:10C7200028C500A0E0C80101FCED00E0001000E019
:10C73000E44980002DE9F04F87B0002006900824DE
:10C74000DFF890811A20C8F8140063480168634A32
:10C7500089B21143016005A8FAF786FC0220FAF7B6
:10C760008BFCDFF8749109F10809D9F8000020F476
:10C770007C3040F42030C9F8000059A003C8CDE94E
:10C780000201DFF854A1AAF1240ADAF8000002A994
:10C7900000F00700085CC82110FB01F5DFF848B184
:10C7A000DBF800000190514F3E680198314604F0DB
:10C7B00021F878687968091AA942FBD331460198B3
:10C7C00003F0F8FF0BF072FA04909DF81010D8F8FF
:10C7D0001400814204D99DF81020811C8A4263D93B
:10C7E0009DF81010814204D29DF81020811E8A42CB
:10C7F0005AD29DF81010814201D9012500E0002590
:10C8000015B1641C64B201E0641E64B2202C11D323
:10C81000D9F8000020F47C3040F42030C9F8000042
:10C82000D8F83C00401CC8F83C00002004900120CF
:10C83000069039E0D9F8000020F47C3040EA04305A
:10C8400040F40030C9F8000025A003C8CDE902017A
:10C85000DAF8000002A900F00700085C642110FB70
:10C8600001F6DBF80000019038680090DDE9001067
:10C8700003F0C0FF78687968091AB142FBD3DDE99B
:10C88000001003F097FF0BF011FA049035B19DF8FA
:10C890001000D8F814108842B2D805E09DF81000B6
:10C8A000D8F814108842ABD39DF81400FAF7E4FBD3
:10C8B0000948016821F07F4101609DF81000C8F827
:10C8C0001800D8F82400401CC8F82400069807B0C7
:10C8D000BDE8F08FE449800028C500A000008F115A
:10C8E0004030101810200000FCED00E0001000E0C7
:10C8F0000A49322808DDD1F8200220F4706040F4A3
:10C900004070C1F8200270472828FCDAD1F82002D4
:10C9100020F47060C1F820027047000000E000A021
:10C920002DE9F04105460E461746094C2378002BA9
:10C9300002D0002059F4B4D23A463146284604F0D9
:10C9400061F80546207859F4ABD22846BDE8F0815D
:10C95000C92380002DE9F04105460E461746094CD3
:10C960002378002B02D0002059F49AD23A4631465F
:10C97000284604F077F80546207859F491D22846E5
:10C98000BDE8F081C92380000121024A002053F450
:10C99000EB900000D1F5010110B50446012160685B
:10C9A00001701048636802785A7002886368120A3E
:10C9B0009A7002686368120CDA7000686268000E90
:10C9C00010716068417161682822891D064804F071
:10C9D00029F822883621606853F488D00349002062
:10C9E000087010BD249B80000020000148258000B5
:10C9F00010B5406801780F48012914D00E49C16272
:10CA00000CF0A2FA0D4C4FF48051204603F0ACFF1D
:10CA100030220849204604F015F80CF0A7FABDE8CA
:10CA20001040E9F77F9A0649C16206490020087064
:10CA300010BD0000249B8000424E42530030000194
:10CA4000425942444825800070B504460D461646BA
:10CA500030211448F8F774FF0CB113484460324693
:10CA60001249114852F420D60E480560104A01219F
:10CA7000002053F479D00F4A2321062053F474D0B8
:10CA80000D4A2521082053F46FD00C4A41211C2067
:10CA900053F46AD00A4A42211D2053F465D0002085
:10CAA00070BD0000249B8000A845800064A3800026
:10CAB00021F6010159700201016F0201F1C9010162
:10CAC00099C9010110B552F4B9D7BDE8104000F082
:10CAD000D5BAFFF7F7FF64200DF00CFCF9E7000072
:10CAE00008B5002801D004498861044800906846D0
:10CAF00009F024FE08BD00008C4580002966020173
:10CB000030B400210D4B01EB410203EB42121478CB
:10CB1000012C0DD112790478A24209D101EB410018
:10CB200003EB4010C16D002906D030BC002008473F
:10CB3000491CC9B20829E6D330BC7047A0908000D8
:10CB400070B500240C4E04EB440006EB4015287829
:10CB500001280AD1281DEBF761DF18B1012801D0A7
:10CB6000002070BD281DEBF75BDF641CE4B2082CCD
:10CB7000E9D3012070BD0000A090800030B40021F6
:10CB80000D4B01EB410203EB42121478012C0DD145
:10CB900012790478A24209D101EB410003EB401065
:10CBA000C16D002906D030BC01200847491CC9B21C
:10CBB0000829E6D330BC7047A090800008B5FF205C
:10CBC00000906A460121242000F036F89DF800000C
:10CBD00040F080010091242000F052F8012008BDAF
:10CBE00038B50446FF2100916A460121232000F058
:10CBF00023F844F088042146232000F041F86A46D7
:10CC00000121232000F018F89DF80000A04201D176
:10CC1000012038BD4FF0FF3038BD000010B5044989
:10CC20000448FBF7A5FD0348FBF7D4FC002010BD2A
:10CC3000518801012C478000F7B50E461746012E9A
:10CC400004D99DF8000040F0800000900B4C0025B6
:10CC5000257001236A4618210020FBF723FD207868
:10CC60000028FCD0657033463A4618210020FBF7B7
:10CC7000D7FC60780028FCD00020FEBD284780004B
:10CC800038B5002200928DF800008DF80110064C96
:10CC9000227002236A4618210020FBF703FD20784A
:10CCA0000028FCD0002038BD2847800008B5FF20B0
:10CCB00000906A4601210F20FFF7BEFF9DF800009B
:10CCC000112802D04FF0FF3008BD012008BD38B553
:10CCD0000446FF22009297212020FFF7D1FF214632
:10CCE0002020FFF7CDFF6A4601212020FFF7A4FF97
:10CCF0009DF80020A24201D1012038BD4FF0FF3045
:10CD000038BD1CB504466A4601212720FFF794FF71
:10CD10009DF80000C043000701D001201CBD0DF1AB
:10CD200001020621A820FFF787FF9DF801009DF86A
:10CD3000021000EB012020809DF803009DF80410F4
:10CD400000EB012060809DF805009DF8061000EBC7
:10CD50000120A08000201CBD01200A49096800298B
:10CD600001D0002070470849CA690AB10020704705
:10CD7000044A283212688968491E8A42F7D1022083
:10CD80007047000024C680004446800010B5104C57
:10CD900002220421204607F013F901221021204627
:10CDA00007F00EF902228021204607F009F902223D
:10CDB0004021204607F004F902222021204607F0F6
:10CDC000FFF820460222BDE81040082107F0F8B81D
:10CDD000001001A02DE9F04782462DED028B84B0B2
:10CDE00089461746984600200290039000250026A9
:10CDF000019001A80CF01CFB3748016821F4C071B8
:10CE000041F080010160416821F4805141600024BB
:10CE100050460CF0D7F80BF067F802F015FB0290C3
:10CE20000298064448460CF0CDF80BF05DF802F08D
:10CE30000BFB0390DDE90210401A0544641C072C2B
:10CE4000E6DB28460EF057FC9FED248B53EC182BA5
:10CE50000EF060FA41EC100BFAF76AFC51EC100B83
:10CE60000EF01CFC044630460EF045FC53EC182B2B
:10CE70000EF050FA41EC100BFAF75AFC51EC100B83
:10CE80000EF00CFC03460020164A1CE000FB04F1E7
:10CE9000B1FBF7F119440291134D0299B5FBF1F181
:10CEA00008F80010114D0299B5FBF1F19DF80450FE
:10CEB0002944C9B21154802903D90D4D2D78294434
:10CEC0001154401CC0B2B842E0D30AF0E9FF04B0EC
:10CED000BDEC028BBDE8F087802001B000000000AF
:10CEE00000001C4038A3810000C0A8320080D72574
:10CEF000F04B800082B0CDE9000121F000400190AC
:10CF00009DED000B02B051EC100B704770B505465B
:10CF10000C460CF019F822460949284652F40AD367
:10CF20000CF024F80020064D064B05E0295C1A6839
:10CF300011441960401C80B2A042F7D370BD0000BC
:10CF4000649B80009024800070B5144D0126144C21
:10CF50002889E988884215D01249096801EB003018
:10CF6000310352F463D2022140B12889401C288148
:10CF700026706170A070000AE07008E02170052042
:10CF8000607004E000206870267003206070BDE8C7
:10CF9000704023220421024852F4A8958C45800059
:10CFA00064A380008C2480002DE9F04130480BF010
:10CFB00071FA82B24FF4006700262E4DBA421ED39A
:10CFC0002B493A4610312A480BF079FA84B20BF01B
:10CFD000BBFF274922461031E86852F44BD30BF0CF
:10CFE000C5FF2146E868FFF791FF68692044686142
:10CFF000E8682044E860204652F4A8D429E0686933
:10D0000029691044884224D11949194810310BF07C
:10D0100056FA84B284B10BF097FF154922461031BD
:10D02000E86852F427D30BF0A1FF2146E868FFF728
:10D030006DFF686920446861204652F487D401205E
:10D04000A8700D490870FF2201210B4852F44ED5FB
:10D050006E702878A978884308D005480BF073FAD9
:10D06000B84203D95A200CF007FB2E70BDE8F081BE
:10D07000549B80008C45800064A380000548407864
:10D08000012803D0022803D1FFF78EBFFFF75CBF52
:10D09000704700008C45800010B50A4601460948DB
:10D0A0000BF069FA07480BF04EFAB0F5006F07D2A3
:10D0B00005480178002903D1044A1170012101704B
:10D0C00010BD0000549B80008C4580001E0680002F
:10D0D0002DE9FE4F07460D4602AA294638460CF0B8
:10D0E000D3FD10B10298BDE8FE8F029C0026029687
:10D0F000DFF8688098F8000010B1002058F4D0D60E
:10D10000DFF85CA04FF6FF7908226946204603F05D
:10D1100079FCBDF80000484502D12E80029617E048
:10D12000B84206D115B1BDF8020028800834029437
:10D130000EE0BDF8020058F43FD3BDF802100830ED
:10D1400021444418DAF800008442DDD32E80029690
:10D1500098F8000058F4A4D60298C4E7C9238000C8
:10D16000D023800070B506460024094D0BE004EB87
:10D17000C40005EB8000801C07223146F8F7FCFA5A
:10D1800020B1641CE4B22878A042F0D8204670BDDB
:10D1900038A0810010B50021084B5A681B8809E0AF
:10D1A00052F83140844203D102EBC100406810BD07
:10D1B000491C89B29942F3D310BD00000848800091
:10D1C00010B50021084B5A681B8809E052F831401D
:10D1D000844203D102EBC100406810BD491C89B2F2
:10D1E0009942F3D310BD0000204880000349095C38
:10D1F000002902D0002107F053BC7047A2A1810092
:10D2000010B5884210D808290ED2094B074A5A6037
:10D2100006E003EB8002946844F001049460401C33
:10D220008842F6DD0320186010BD00000040003089
:10D23000002000E02DE9F047164F3868002826D07E
:10D240004FF00009002400250526DFF84C8013E08C
:10D2500005EB4501012018F8212090403A68104262
:10D2600008D008EB81032246D3E90101641CE4B233
:10D2700000F01CF86D1CEDB2B54201D2062CE7D3CC
:10D28000641EE1B24846BDE8F047FFF7B9BFBDE80C
:10D29000F08700000448800004C3020113B5012197
:10D2A0006846FBF7DDFE01201CBD000070B5054699
:10D2B0001446114840F8345000EBC4004160284641
:10D2C00002F0CEF90646FF2002F0E0F9014625F013
:10D2D00001000A4B850703EB8402094B06D0801E30
:10D2E000906006EB014043F8240002E0906043F8B0
:10D2F0002410204670BD0000643D8000002000E046
:10D30000004000302DE9FC410C46474A6178A07886
:10D3100052F82110CDE90010237844A210210020FA
:10D32000EBF746DB607801264F4F052530B1012829
:10D3300037D0022849D0032872D15AE0207855F41A
:10D34000ADD1C0B2C0EBC00107EB81014D72A27834
:10D35000452A09D1CA681278022A17D091F82020EC
:10D36000022A01D081F8206091F82020012A04D0FF
:10D37000022A02D0032281F8202091F82020022ADC
:10D380004ED0C9680978022906D102E007224A7204
:10D39000EAE7A178452943D0344A00211268904732
:10D3A0003EE087F89950A078452805D197F89C0071
:10D3B000022801D087F89C6097F89C0002282FD0A3
:10D3C0002B490020096888472AE087F8A550A078F3
:10D3D000452805D197F8A800062801D087F8A8604D
:10D3E00097F8A80006281BD0224900200968884722
:10D3F00016E0207855F4B4D1C0B207EB001181F8E3
:10D40000B150A278462A01D0CE2A01D181F8B3507A
:10D4100091F8B310022903D0174A002112689047EF
:10D420000020BDE8FC81000068228000523A313AB9
:10D430006163742073746F707065642C2061637411
:10D440005F6964783A2025642C206163745F747985
:10D4500070653A2025732C20726561736F6E3A20D7
:10D460003078253032780A007C2780001022800036
:10D4700014228000182280001C22800010B58AB07F
:10D480000C46FF2228216846F7F7B2FE40F20A2038
:10D49000ADF80000ADF802406846FDF78DFD0AB01A
:10D4A00010BD10B58AB00446FF2228216846F7F760
:10D4B0009FFE40F20D20ADF800000020ADF8020004
:10D4C0001C22214602A8F8F7A2F91C3409946846E8
:10D4D000FDF772FD0AB010BD30B58BB005460C46A5
:10D4E000FF22282101A8F7F783FE40F20722ADF8BA
:10D4F0000420ADF806408DF8085001A8FDF75CFD4A
:10D500000BB030BD37B58AB005460C46FF22282146
:10D510006846F7F76DFE4FF40272ADF80020ADF8E3
:10D5200002408DF804509DF830008DF808006846E0
:10D53000FDF742FD0DB030BD00B58BB0FF222821B4
:10D5400001A8F7F755FE4FF44170ADF80400002034
:10D55000ADF8060001A8FDF72FFD0BB000BD0000DF
:10D560002DE9FF470C4666788DF80D6020784FEA6C
:10D570001329CDE900905A4B5AA21021029600209F
:10D58000EBF716DA20786449644F4FF0000801EB9E
:10D59000C905092861D008DC092824D2DFE800F099
:10D5A0009A8B9A4A4A9A9A24240017282FD004DC8E
:10D5B0000B2807D0142816D16AE0182814D019288F
:10D5C00011D111E0607822280DD1002052F458D6F4
:10D5D0005348006828B143681BB100220F21484618
:10D5E000984752F483D675E053F440D5044685F845
:10D5F0000580002052F444D6386828B1436D1BB131
:10D60000224631464846984752F470D662E053F4B9
:10D610002DD5044685F80480002052F431D63868B0
:10D6200028B183681BB1224631464846984752F4D8
:10D630005DD64FE053F41AD5044685F806800020E5
:10D6400052F41ED6386828B1836D1BB1224631468C
:10D650004846984752F44AD63CE053F407D504466E
:10D6600085F80280002052F40BD6386830B1C36CC4
:10D6700023B136B1224631464846984752F436D651
:10D6800028E0002CFAD02246314648469847F5E774
:10D6900053F4ECD4044685F80380002052F4F0D50E
:10D6A000386828B1C36D1BB12246314648469847B9
:10D6B00052F41CD60EE0607860B1002052F4E0D540
:10D6C000386828B1C36B1BB161780022484698477F
:10D6D00052F40CD653F4D0D404B00020BDE8F08747
:10D6E000F5C30201523A313A25733A20636F6E69ED
:10D6F0006478203D2025642C206F70636F64652062
:10D700003D20305825782C206572726F72203D20A4
:10D7100030582578000000002A27800098218000DA
:10D72000EC23800010B58AB00446FF222821684609
:10D73000F7F75EFD40F20331ADF80010ADF802409E
:10D740006846FDF739FC0AB010BD70B58AB00546D1
:10D750000C461646FF2228216846F7F749FD40F29D
:10D760000131ADF80010ADF802408DF804501222DE
:10D77000314602A8F8F74BF86846FDF71DFC0AB0E1
:10D7800070BD70B58AB006460D461446FF222821AA
:10D790006846F7F72DFD4FF44273ADF80030ADF851
:10D7A00002508DF8046020680290A088ADF80C004B
:10D7B0006846FDF701FC0AB070BD00002DE9F0419C
:10D7C000ADF50E7D0C461E0A30464BF403D30746DA
:10D7D00030464BF4FFD2002834D04DA1009133469F
:10D7E0004DA210210020EBF7E3D8FF2E5BD0574D60
:10D7F0002088288060886880A088A880E088E880E9
:10D80000207A2872607A68722F74D4F80A00C5F8FA
:10D810000A00E089E8814E4A002102EBC60001605F
:10D820004160218822F836104FF4CA7129A8F8F710
:10D8300087F829A847F4F6D7687ADFF81881012815
:10D8400016D101E044A1C9E7E87B0121B1EB901FAB
:10D850000ED198F81C0140070AD59DF8A40038B1F4
:10D86000A02101A8F8F76CF8002429AD01AF3DE034
:10D8700004F10A02617A154630465CF49DD5617A5E
:10D880002A46304601F06AF9354C6FB1002052F457
:10D89000F7D4206828B1836B1BB12C4A0021304695
:10D8A000984752F423D52DE0032088F8A800D8F833
:10D8B000AC000078012825D1002052F4E1D4216881
:10D8C00029B18B6B1BB1214A00213046984752F495
:10D8D0000DD517E004EB840005EBC001093107EB1F
:10D8E00004101022F7F793FF641CE4B29DF8A40023
:10D8F000A042EFD815499DF8A43001AA0A3130465C
:10D9000055F400D40DF50E7D0020BDE8F081000037
:10D91000534C415645000000523A313A636F6E6EE7
:10D92000656374696F6E5F7265715F696E645F686D
:10D93000616E646C65723A20636F6E69647820254D
:10D94000642C20726F6C652025730A0018278000F4
:10D950002A2780007C2780004D4153544552000007
:10D960009821800070B58AB006460D461446FF2205
:10D9700028216846F7F73CFC40F20533ADF800304B
:10D98000ADF802508DF8046020680290A088ADF8D0
:10D990000C006846FDF710FB0AB070BD30B58BB0C7
:10D9A00005460C46FF22282101A8F7F721FC40F28A
:10D9B0000632ADF804200022ADF806208DF808509C
:10D9C000206803906068049001A8FDF7F5FA0BB099
:10D9D00030BD00002DE9F0410D46E879FF2819D04F
:10D9E0001B4FB96889B3002454F438D6C6B216B1B7
:10D9F000032E05D008E0E87954F450D6C4B203E011
:10DA0000E87954F4ADD6C4B2BB682A462146304604
:10DA100098471AE000210E204DF466D70446A4B1C1
:10DA2000012020702868C4F80300A888A4F8070023
:10DA3000A8796072E87954F431D6A0700E2120469E
:10DA400053F428D320464DF44DD70020BDE8F08193
:10DA50007C48800030B58BB004460D46FF2228215B
:10DA600001A8F7F7C5FB40F20622ADF80420ADF897
:10DA700006400E22294603A8F7F7C9FE01A8FDF7C4
:10DA80009BFA0BB030BD000030B58FB006200E9071
:10DA900000250795514C032020700F20607084F8FA
:10DAA0002F5084F82E504FF40070E08420850A2017
:10DAB00084F82A001B2060844FF4A470A0840CAA70
:10DAC0000EA901204EF4A6D338B108A80BF0E4FC4F
:10DAD00018B907A80BF022FED0B1A5764FF46170FB
:10DAE0006080208C40F08000208405A836F422D489
:10DAF000059806990844F7F721FE019502950395CC
:10DB0000049508A80BF0C8FC344C0A34E8B35EE076
:10DB10000120A0763248007820B39DF820004128EB
:10DB200013D09DF82A0020719DF82D0060719DF89A
:10DB30002E00A0719DF82F00E071BDF81C0020722E
:10DB4000C02141EA10206072C8E79DF828002071CA
:10DB50009DF8290060719DF82A00A0719DF82B00A6
:10DB6000E071EAE79DF82000412815D09DF82A00D1
:10DB7000A0719DF82D00E0719DF82E0020729DF897
:10DB80002F0040F0C000607200E014E0BDF81C00FF
:10DB90006071000A2071A1E79DF82800A0719DF82E
:10DBA0002900E0719DF82A0020729DF82B0040F0BA
:10DBB000C0006072E8E7102201A908A8F7F7DCFDB1
:10DBC00028B1102208A92046F7F721FE02E02046DE
:10DBD0005CF43ED304F09CFF0FB030BD7E28800083
:10DBE0007C48800070B58AB005460C461646FF2278
:10DBF00028216846F7F7FCFA40F20233ADF800300E
:10DC0000ADF802408DF804508DF808606846FDF7C5
:10DC1000D3F90AB070BD000070B50D46EFF3118066
:10DC20001D490A781D490968C1F30221491C0124D4
:10DC30008C401119C9B281F311881C0A18490023BC
:10DC400001EBC402136053604FF6FF7221F83420D9
:10DC5000C0B280F31188AB7812A210210020EAF73D
:10DC6000A7DE20465CF440D4204657F4B5D02046C9
:10DC70005CF442D3002052F403D3114802683AB155
:10DC8000D36B2BB1A8789030C2B2002120469847C0
:10DC900052F42CD3002070BD02E400E00CED00E053
:10DCA0002A278000523A313A646973636F6E6E209E
:10DCB000726561736F6E203D20307825780A000010
:10DCC000982180002DE9FC5F0446EFF3118770482E
:10DCD000017870480068C0F30220401C4FF0010B2F
:10DCE0000BFA00F00844C0B280F3118852F4FED25F
:10DCF0008146694D0094DFF8A48195F8A50068A2DB
:10DD0000102158F820300020EAF752DE8DF8054047
:10DD100095F8A53007200C210D2200264FF0090AA6
:10DD20000A2B74D2DFE803F0050C9C9C9C19283C5C
:10DD3000424D53F447D685F8A5B085F8A86095E024
:10DD4000002C09D085F8A56085F8A6608DF8041030
:10DD500001A9002052F490D388E095F8A600A228EB
:10DD600004D054F41DD085F8A5A07FE055F4EAD680
:10DD7000062085F8A50079E04CB154F411D085F85F
:10DD8000A5A0042085F8A80085F8A9406EE085F8D4
:10DD9000A5008DF8041001A9002052F46DD365E0B0
:10DDA00056F422D0082085F8A5005FE0002C5DD055
:10DDB00085F8A5008DF8042001A9002052F45CD359
:10DDC00054E0A4356E70FF2028702879A43D042803
:10DDD00007D0062812D03F4C012819D0032824D0A0
:10DDE00044E085F8A8608DF8041095F8A9008DF836
:10DDF000050001A9002052F43FD337E085F8A86060
:10DE00008DF8042001A9002052F436D32EE027E03B
:10DE100085F8A860002052F433D2206810B1406C1D
:10DE200000B1804752F462D220E085F8A860D5F8AE
:10DE3000AC000078012819D0002052F421D22068CB
:10DE400058B1806B48B12448008857F4EBD421685E
:10DE5000C0B2214A8B6B0021984752F447D205E0AB
:10DE600040F2C2321DA123A0EAF79CDD95F8A5007F
:10DE700021A2102158F820300020EAF799DD484609
:10DE800052F4FED1F8B280F31188BDE8FC9F000087
:10DE900002E400E00CED00E07C27800028228000F6
:10DEA000523A313A696E69745F66736D20656E74BB
:10DEB00065722C20696E69745F73746174653A20B1
:10DEC00025732C20737461747573203D2025640ABA
:10DED000000000009821800018278000626C655FB8
:10DEE00073646B5F6761706D5F70617463682E63EC
:10DEF0000000000030000000523A313A696E697447
:10DF00005F66736D20657869742C20696E69745F33
:10DF100073746174653A20257300000070B58AB08F
:10DF200006460D461446FF2228216846F7F760F999
:10DF300040F20A33ADF80030ADF802508DF80460BD
:10DF400020680290606803906846FDF735F80AB0D3
:10DF500070BD30B58BB005460C46FF22282101A8C4
:10DF6000F7F746F94FF6FF72ADF80420ADF806500A
:10DF700034B1012C09D0022C0CD0032C13D10EE0AB
:10DF80004FF40070ADF804000DE040F20120ADF850
:10DF9000040008E040F20220ADF8040003E040F283
:10DFA0000320ADF8040001A8FDF706F80BB030BD62
:10DFB00030B585B0002049F4C3D40D222CA1002037
:10DFC00049F42ED004464CB114222D496846F7F787
:10DFD00063FCADF804406846FAF792F92948A0219D
:10DFE00081814181002505700721817301214170E4
:10DFF000857002460021084648F41AD1044654B1FF
:10E0000014221F4914316846F7F746FCADF8044066
:10E010006846FAF775F91A4A00211823283A084683
:10E0200048F47ED0044654B114221549283168467C
:10E03000F7F732FCADF804406846FAF761F9104A88
:10E040000F23103A0121002048F46AD0044654B14D
:10E0500014220B493C316846F7F71EFCADF804402A
:10E060006846FAF74DF908480580857005B030BD5F
:10E07000476F6F6469785F54656D5F4F53000000B0
:10E08000C0C102013C9881000047800070B58AB091
:10E0900006460D461446FF2228216846F7F7A8F8E1
:10E0A00040F20933ADF80030ADF802508DF804604D
:10E0B00020680290606803902089ADF810006846DF
:10E0C000FCF77AFF0AB070BD30B58BB005460C4640
:10E0D000FF22282101A8F7F78BF840F20731ADF8AD
:10E0E00004100021ADF806108DF808502068039048
:10E0F000606804900834059401A8FCF75DFF0BB03C
:10E1000030BD70B58AB005460C461646FF22282160
:10E110006846F7F76DF84FF44073ADF80030ADF88E
:10E1200002408DF804503088ADF808006846FCF7CE
:10E1300043FF0AB070BD30B58BB004460D46FF22D8
:10E14000282101A8F7F754F84FF6FF72ADF8042024
:10E15000ADF8064045B140F20520ADF8040001A835
:10E16000FCF72AFF0BB030BD4FF40170ADF804008E
:10E17000F5E730B58BB005460C46FF22282101A8F3
:10E18000F7F736F840F21122ADF80420ADF806504A
:10E1900020680390A088ADF81000A0798DF81200D7
:10E1A00001A8FCF709FF0BB030BD10B58AB00C46D2
:10E1B000FF2228216846F7F71BF840F20920ADF846
:10E1C00000000020ADF8020020680290A088ADF8A1
:10E1D0000C00A0798DF80E006846FCF7EDFE0AB041
:10E1E00010BD10B58AB00446FF2228216846F6F714
:10E1F000FFFF40F20B21ADF80010ADF80240684679
:10E20000FCF7DAFE0AB010BD13B58AB00446FF224F
:10E2100028216846F6F7ECFF4FF40371ADF80010C3
:10E22000ADF802409DF82C008DF808006846FCF718
:10E23000C3FE0CB010BD30B58BB005460C46FF22B6
:10E24000282101A8F6F7D4FF40F20F22ADF80420F0
:10E25000ADF806408DF8085001A8FCF7ADFE0BB0F4
:10E2600030BD70B58AB004460D461646FF222821FF
:10E270006846F6F7BDFF40F20E20ADF80000ADF89D
:10E2800002501022314602A8F7F7C1FA8DF8044077
:10E290006846FCF791FE0AB070BD10B58AB004461E
:10E2A000FF2228216846F6F7A3FF4FF40471ADF86A
:10E2B00000100021ADF802108DF804406846FCF70C
:10E2C0007BFE0AB010BD00002DE9F041044618465F
:10E2D0000026002300256FF48857E4191C4F06D050
:10E2E000012C07D0022C0CD0032C0CD105E03B688C
:10E2F0007D6808E0BB68FD6805E0BB69FD690878DA
:10E3000001E03B697D6900241CE033F834708742EA
:10E3100017D103EBC4035C68B4B10E4B9C4204D12B
:10E32000034603F015FC06460EE00B4B9C4204D15D
:10E33000034603F08BFA064606E00346A04706466E
:10E3400002E0641CAC42E0D33046BDE8F08100003E
:10E3500070028000116F02009D3E020070B54024E3
:10E360000221C588584BEA0704D093F86D100A299A
:10E3700009D00A214279042A0CD354A2102100208A
:10E38000EAF716DB9EE043245C4A10210020EAF7FE
:10E390000FDB97E012B1032A00D00A2193F86C300A
:10E3A000994306D0422456A210210020EAF700DB50
:10E3B00088E00379022B05D95DA210210020EAF73D
:10E3C000F7DA7FE0690706D52AB1664A10210020F6
:10E3D000EAF7EEDA76E053B125F01001C1800D07BF
:10E3E00030D5614A10210020EAF7E2DA6AE045F010
:10E3F0001001C1808D0601D44D0605D55B4A102160
:10E400000020EAF7D5DA5DE0CD0711D04D0707D43B
:10E410008D070DD4564A10210020EAF7C9DA51E0E1
:10E420008D0705D5534A10210020EAF7C1DA49E0EB
:10E430004D0730D5C9072ED14F4A10210020EAF7E9
:10E44000B7DA3FE0012B02D0CD071ED119E0CD078E
:10E4500007D08D0705D5494A10210020EAF7A8DA30
:10E4600030E08D0617D5012A05D0022A03D0CD074A
:10E4700001D189070FD5414A10210020EAF798DA27
:10E4800020E08D0701D4890605D53D4A10210020E2
:10E49000EAF78EDA16E0022B13D2407A032805D968
:10E4A00038A210210020EAF783DA0BE0012A01D01C
:10E4B000022A06D128B13F4A10210020EAF778DA73
:10E4C00000E00024204670BD000E8000523A313A30
:10E4D0005B4552525F494E56414C49445F50415250
:10E4E000414D5D3A20436865636B20646973636FD7
:10E4F00076657279206D6F6465210A0044D202014D
:10E50000523A313A5B4552525F4E4F545F53555029
:10E51000504F525445445D3A20726F6C65206E6FC7
:10E520007420737570706F72746564210A00000046
:10E53000523A313A5B4552525F494E56414C49443A
:10E540005F504152414D5D3A20436865636B2061E5
:10E5500064766572746973696E6720747970652179
:10E560000A000000E4D202018CD2020118D102019B
:10E5700004D40201A4D3020160D4020140D30201F9
:10E5800078D10201523A313A5B4552525F494E56B8
:10E59000414C49445F504152414D5D3A20436865CA
:10E5A000636B2066696C74657220706F6C69637947
:10E5B000210A0000D8D1020100280CD059B1092944
:10E5C00009D9064A90600A20B1FBF0F05080002083
:10E5D000908001207047002070470000C84B8000E9
:10E5E00002490148086070475DE30101F4038000BF
:10E5F000F0B5ADB004460D4616461F4628780328F0
:10E6000004D0012809D0172812D008E00220EAF728
:10E6100009DAF821FBF7A0FC01E004F0D1FF2DB0EE
:10E620003B46324629462046BDE8F04055F4029666
:10E6300052F41CD5044620780A2825D300202B90BC
:10E640002C90687870B96946E01D47F44FD19DF869
:10E6500029008DF8B200DDF823002B90BDF82700CB
:10E66000ADF8B000244E706848B1002051F408D6CF
:10E670007368227868782BA9984751F437D652F4FA
:10E68000FBD400202DB0F0BD68781C4E20B330883C
:10E6900057F4C8D0C4B202A80090184B69780A3366
:10E6A000727A1D4620465CF4EBD3717A2A462046E6
:10E6B00000F054FA002051F4E3D51148016829B163
:10E6C0008B6B1BB10D4A00212046984751F40ED6A2
:10E6D00052F4D2D40020D5E702A9E01D47F406D1B8
:10E6E0009DF831007072DDF82B00C6F80A00BDF805
:10E6F0002F00F0812478CEE77C4880001827800026
:10E70000982180002DE9FC5F0C4692A000680190E2
:10E7100001AA21460020EAF787D98346BBF1010F01
:10E720007DD10026607800F00F07DFF82C8298F882
:10E730006C006070002008B14226FBE0A18C608C68
:10E74000EAF774D908B14026F4E04FF0000A88F8DF
:10E750006EA088F86CA0EAF76BD90A20B8434FF492
:10E76000006902D00520B8437ED17C480078C007FC
:10E770007BD01F2094F82010490606D57F2098F8FA
:10E780006E1041F0200188F86E1017F0050F04D0CC
:10E79000A17E490701D540F4C07040F4C06588F8F7
:10E7A00080A0208C000402D5012088F88000208CF5
:10E7B000400405D598F8800040F0020088F88000F9
:10E7C000A08B2946EAF736D9064630007ED194F868
:10E7D000200010F0380F15D00420EAF723D994F860
:10E7E0002010C1F3C202521E4FF6FF7101EA8202ED
:10E7F0000C21EAF721D90420EAF714D949460A4640
:10E80000EAF71AD994F82000400717D00220EAF757
:10E8100009D994F8201001F00702521E00E08FE0A1
:10E820004FF6FF7101EA82020C21EAF705D90220B6
:10E83000EAF7F8D849460A46EAF7FED815F4C06F59
:10E840001AD00021002005F001021144C9B26D0860
:10E85000401CC0B22028F6D3B8F8500028B1CDF83B
:10E8600000A0491E084401E01EE005E080B26B46AE
:10E8700000220121EAF7E2D838480078800713D552
:10E8800094F82000000605D598F86E0040F040008E
:10E8900088F86E0094F82000C0F3C011E08BEAF70E
:10E8A000CFD80646300045D1022034F479D288F81A
:10E8B0006C70EAF7C7D888F875A094F82A0088F831
:10E8C000740098F86C00800822D000E032E041200B
:10E8D000E17E88F86F108A0704D421F0020088F8DE
:10E8E0006F001720E18C494500D3494689464845C9
:10E8F00000D981461FFA89F1A8F87010228D8A424A
:10E9000000D21146884200D80846A8F8720001E0FB
:10E9100088F86FA01048102204F10A015630F6F76B
:10E9200076FFA07EC00705D06068C8F86600208921
:10E93000A8F86A003EB10A4A3146002012689047A2
:10E940005846BDE8FC9F074A0021084612689047D8
:10E95000F6E7000003000000000E8000F8038000CE
:10E96000EC038000FC0380002DE9FE4F82468846C0
:10E9700091460020019002902F4B30A24021EAF7EF
:10E9800017D832480068002854D005684AE0A888A3
:10E99000401C84B2EF88288959F442D406462346A5
:10E9A0002BA2402100200097EAF702D837E001A906
:10E9B000204646F4A7D228BB42F6021101A846F42D
:10E9C000A7D2F8B123462BA240210020E9F7F0DFBF
:10E9D0004BF4DCD280B14BF4D9D2C01CA04204D19C
:10E9E0002146484655F452D740B15EB1306948B12E
:10E9F000B8F1000F0CD106E00020EFE700215046EF
:10EA00004AF4EAD109E02146484655F43FD720B9F7
:10EA100033690022214650469847641CA4B2BC4288
:10EA2000C5D92D68002DB2D1034B1AA24021002078
:10EA3000E9F7BEDFBDE8FE8F35C40201523A333A32
:10EA40005B25735D20656E7465720A00E0228000AC
:10EA5000523A333A73746172745F68646C3D307813
:10EA600025782C20656E645F68646C3D307825786D
:10EA70000A000000523A333A636C656172206363A6
:10EA800063642061742068616E646C653D30782534
:10EA9000780A0000523A333A5B25735D2065786945
:10EAA000740A000070B505460548446804E0E16852
:10EAB00009B1284688472468002CF8D170BD0000B1
:10EAC000D849800010B50E4B1B78984210D200EB4D
:10EAD00040030C48006800EB83100B68C0F803305B
:10EAE0008988A0F807108270012100F8021B10BD70
:10EAF00005A240210020E9F75BDF002010BD0000E7
:10EB0000E4238000DC228000523A333A6761747457
:10EB10002066696E64206974656D2C206E6F7420A8
:10EB2000666F756E640A000070B58AB005460C46C3
:10EB30001646FF2228216846F6F75AFB4FF4C063B9
:10EB4000ADF80030ADF802408DF80450ADF8066025
:10EB50006846FCF731FA0AB070BD00002DE9FC41AF
:10EB600007460E461446234B23A240210020E9F716
:10EB70001FDF0025384656F4AFD48DF806602068B4
:10EB80000090A088ADF80400324621463846FFF7D1
:10EB900099FF04467CB12146684646F403D60346F5
:10EBA0005BB119A240210020E9F702DF384600F0EE
:10EBB000EBF801250EE001250CE0237A19A2402193
:10EBC0000020E9F7F5DE207A88B12246694638460A
:10EBD00056F460D1224629463846FFF7C5FE054B5C
:10EBE0001AA240210020E9F7E3DEBDE8FC810125FF
:10EBF000F0E700004BC40201523A333A5B25735DE3
:10EC000020656E7465720A00523A333A626F6E6420
:10EC1000206D677220676574206572723D307825BB
:10EC2000780A0000523A333A626F6E642064657667
:10EC3000207265636F6E6E6563742C20636363641A
:10EC4000206E756D3D307825780A0000523A333ACF
:10EC50005B25735D20657869740A00003EB5054642
:10EC60001B4B1CA240210020E9F7A2DE01A9284687
:10EC700009F028FF00281DD01AA240210020E9F742
:10EC800097DE9DF80A2001A92846FFF71BFF0446DE
:10EC900084B118A240210020E9F78ADE207A009092
:10ECA000E3791AA240210020E9F782DE214601A87B
:10ECB00046F4CAD6284600F067F8284656F424D40D
:10ECC000034B1BA240210020E9F772DE3EBD00008D
:10ECD00014C40201523A333A5B25735D20656E74A9
:10ECE00065720A00523A333A626F6E64656420645A
:10ECF00065760A00523A333A73617665206363633E
:10ED00006420696E206E7664730A0000523A333ACA
:10ED10007570645F666C6167203D2025642C2063FC
:10ED20006363645F6E756D203D2025640A000000FA
:10ED3000523A333A5B25735D20657869740A0000A6
:10ED400002490148086070475DEC0101D82280004B
:10ED500030B58BB004460D460A4B00221A70FF22D4
:10ED6000282101A8F6F744FA40F20162ADF8042028
:10ED7000ADF806408DF80A5001A8FCF71DF90BB05C
:10ED800030BD0000D849800070B504460BA2402178
:10ED90000020E9F70DDE1048007884420DD20F4DB7
:10EDA00004EB4404C021286800EB8410F6F7A6FDAC
:10EDB0002968002001EB8411087070BD523A333A83
:10EDC000676174742072656D6F7665206974656D16
:10EDD00020656E7465720A00E4238000DC228000E6
:10EDE00070B58AB006460D461446FF2228216846B3
:10EDF000F6F7FEF940F20452ADF80020ADF80250EB
:10EE00008DF8046034F8040BADF8080003946846EC
:10EE1000FCF7D2F80AB070BD70B58AB006460D4650
:10EE20001446FF2228216846F6F7E2F940F2035221
:10EE3000ADF80020ADF802508DF8046034F8040BF2
:10EE4000ADF8080003946846FCF7B6F80AB070BD48
:10EE50002DE9FF5F0D4602984FEA1029022148462E
:10EE6000E9F7F2DD002876D00178152901D01629BE
:10EE700071D14FF000088088C0B100218A46604EF1
:10EE800056F8292034321068002430B18788A7F55D
:10EE900040631A3B01D10C3004462878801E0628B6
:10EEA00019D2DFE800F01111131618064FF04408CC
:10EEB00090E03CB11046E9F7C9DD204611F4BCD121
:10EEC000002401E04FF04108012104E04FF0050A61
:10EED00001E04FF0070AE9BB5FE0E9F7B7DD07465D
:10EEE000B888A0F54061043905D04FF04108384694
:10EEF00011F498D151E03D460C3568882988401AB4
:10EF000086B2642E00D9642606EB460000EBC601EB
:10EF1000162000EB41008346022110F495D448B33B
:10EF200002214846E9F794DD01461FFA8BF340F6CB
:10EF30001A40029A11F434D1044628886082688805
:10EF4000A082287920702A79691D601CF6F75FFC81
:10EF5000384601E018E04CE011F464D186B1214656
:10EF60000C39274850F829003430E9F773DD4FF0A9
:10EF7000040A12E04FF04B08384611F453D10CE06C
:10EF8000204611F459D100241D4850F8290034308E
:10EF90000168D9B1002100299FD0BAF1000F19D022
:10EFA000B4B1029A0A23114640F6034011F4F8D096
:10EFB00080F800A0618A491C8180A18AC180022159
:10EFC00041700021018111F437D103E00121E2E712
:10EFD0004FF04108B8F1000F06D1094850F8290058
:10EFE000406B50B1002020B1424602214846E9F76B
:10EFF00033DD04B00020BDE8F09F0120F3E70000FE
:10F00000C40E800070B505460548846804E0E168D8
:10F0100009B1284688472468002CF8D170BD00004B
:10F02000D849800070B505460548846804E0E16869
:10F0300009B1284688472468002CF8D170BD00002B
:10F04000D849800070B58AB006460D461446FF22A6
:10F0500028216846F6F7CCF840F20252ADF80020BD
:10F06000ADF802508DF8046034F8040BADF80800D8
:10F0700003946846FBF7A0FF0AB070BD30B58BB0B3
:10F0800005460C46FF22282101A8F6F7B1F840F208
:10F090000752ADF804200022ADF806208DF8085084
:10F0A000D4E901022168CDE90402039101A8FBF72C
:10F0B00083FF0BB030BD70B58AB006460D461446CE
:10F0C000FF2228216846F6F793F840F20552ADF882
:10F0D0000020ADF802508DF8046034F8040BADF850
:10F0E000080003946846FBF767FF0AB070BD70B56F
:10F0F0008AB006460D461446FF2228216846F6F7D8
:10F1000077F84FF4A061ADF80010ADF802508DF81B
:10F1100004601622214602A8F6F779FB16340894FB
:10F120006846FBF749FF0AB070BD000070B50546A0
:10F13000002D12D0FCF70AFB0C48846805F1090683
:10F1400009E020792A7A904204D13146A068F6F786
:10F1500013FB18B12468002CF3D170BDE1680029BD
:10F16000FBD02846BDE8704008470000D849800021
:10F1700070B58AB006460D461446FF22282168461F
:10F18000F6F736F840F20152ADF80020ADF8025023
:10F190008DF8046034F8040BADF808000394684659
:10F1A000FBF70AFF0AB070BD70B58AB005460C4681
:10F1B0001646FF2228216846F6F71AF840F2065351
:10F1C000ADF80030ADF802408DF80450ADF808609D
:10F1D0006846FBF7F1FE0AB070BD00002DE9FF4163
:10F1E0000D460027D6B2140A00200290039000902A
:10F1F0000190E0B269465BF4C1D0304659F410D0BA
:10F200008046002051F43CD0B8F1000F3AD0D8F835
:10F210000420002A36D0E0B229469047288802A967
:10F2200045F470D600282DD142F6021102A845F40B
:10F230006FD638B330464DF483D080469DF8062013
:10F24000E0B26946FFF73EFC0646DEB1A879E979EF
:10F25000434640EA01222988304655F47FD2E0B285
:10F26000694609F02FFC68B109A240210020E9F7A6
:10F270009FDB51F43BD03146684646F4E5D300208D
:10F2800050F4FED751F432D004B03846BDE8F081D6
:10F29000523A333A636F6D6D6F6E207365727669A3
:10F2A00063653A20706565722077726974657320B2
:10F2B000636363642C207361766520697420696ED2
:10F2C000206E7664730A000070B58AB006460C465C
:10F2D0001546FF2228216846F5F78AFF40F20443CD
:10F2E000ADF800300023ADF802308DF80460FF2245
:10F2F000072102A8F5F77CFFADF81040ADF81250D9
:10F300006846FBF759FE0AB070BD000070B50546AF
:10F310000548446804E0E16809B128468847246844
:10F32000002CF8D170BD0000D849800010B504460B
:10F330000846FCF7C1FA0146002903D02046BDE883
:10F340001040084710BD30B58BB004461546FF226B
:10F35000282101A8F5F74CFF40F20341ADF8041055
:10F360000021ADF806108DF808402868039001A828
:10F37000FBF722FE0BB030BD30B58BB004460D4616
:10F38000FF22282101A8F5F733FF40F20242ADF831
:10F3900004200022ADF806208DF808402888ADF83A
:10F3A0000C0001A8FBF708FE0BB030BD30B58BB0E8
:10F3B00004460D46FF22282101A8F5F719FF4FF456
:10F3C0008062ADF804200022ADF806208DF80840D8
:10F3D0002888ADF80C0001A8FBF7EEFD0BB030BD9E
:10F3E00030B58BB005460C46FF22282101A8F5F761
:10F3F000FFFE40F20141ADF804100021ADF8061007
:10F400008DF8085020680390A088ADF81000A41D66
:10F41000059401A8FBF7D0FD0BB030BD01788278D0
:10F420001144C9B201710846704730B500224271DB
:10F43000438805E044798D5C2C444471521C92B29F
:10F440009342F7D8407930BD0748C169C1F3140130
:10F45000026AC2F314030068C0F3C112581A0349C8
:10F4600051F8221048437047802001B0F44B8000CF
:10F4700030B50246002400200021084B53F82050EC
:10F480002DB1914201D1044605E0491CC9B2401C8E
:10F49000C0B20A28F2D3204630BD0000CC0D800057
:10F4A00070B506462DED068B88B00D469FED368B68
:10F4B00020216846F6F744FA0024102269463046B7
:10F4C000F8F70AFB0020694600F1080231F8122023
:10F4D000224494B2401CC0B20828F5D3E408052E9B
:10F4E00002D0062E24D046E068880CF004F941ECE6
:10F4F000180B28880CF0FFF841EC190B20460CF093
:10F50000FAF853EC192B0CF025FB53EC182B0BF0ED
:10F5100001FF9FED1F1B53EC112B0BF0FBFE9FED2A
:10F520001E1B53EC112B0CF009FB41EC180B22E0D5
:10F530009FED1B0B51EC100B0BF0FAFD41EC190B7E
:10F5400068880CF0D8F841EC1A0BA8880CF0D3F8B6
:10F5500041EC180B20460CF0CEF853EC182B0CF0B5
:10F56000F9FA53EC1A2B0BF0D5FE53EC192B0CF0D7
:10F5700057F941EC180B08B0B0EE480AF0EE680AF3
:10F58000BDEC068B70BD0000000000000000000014
:10F5900079E9263108AC5CBF00000000000039406A
:10F5A000B76DDBB66DDB0E4010B5024600200021C2
:10F5B000064B53F821401CB1914205D0401CC0B20B
:10F5C000491CC9B20A29F4D310BD0000CC0D80003B
:10F5D0001CB542680121117000214FF48A2205E018
:10F5E00012F8013B4468491C6354C9B20829F7D397
:10F5F000094906C9CDE900124168009A41F8092F6E
:10F60000019A4A6002884068112150F46FD2034980
:10F61000002008701CBD000028C60201482580009B
:10F620001CB504460120616808706068401C00F049
:10F6300021F868460AF06CF86068009940F8091FE4
:10F640000199416061680220487422881421606831
:10F6500050F44CD20149002008701CBD48258000A0
:10F6600000887047002101E0491C4008C207FBD018
:10F670000846704700214FF48A2204E012F8013B4B
:10F680004354491CC9B20829F8D3704740F45F407D
:10F6900070470000014617480068C0F3C220DC290B
:10F6A00001DA06207047A1F1DC020A2A03D20428FD
:10F6B000F8D006207047A1F1E602142A01D80420F0
:10F6C0007047A1F1FB02092A03D20328F8D00420D5
:10F6D0007047A1F58272282A01D803207047A1F251
:10F6E0002D11092903D20228F8D0032070470220E7
:10F6F0007047000010C500A001461E480068C0F316
:10F70000C220DC2901DA07207047A1F1DC020A2AB5
:10F7100003D20528F8D007207047A1F1E602142A89
:10F7200001D805207047A1F1FB02092A03D2042861
:10F73000F8D005207047A1F58272282A01D804204C
:10F740007047A1F22D12092A03D20328F8D0042011
:10F750007047A1F59B723C2A01D803207047A1F2A3
:10F760007311092903D20228F8D003207047022020
:10F770007047000010C500A00248006800F48070C7
:10F780007047000078C500A000281ED0028800F154
:10F790000801B2F5806F0CD0A2F58062013A0BD05F
:10F7A000022A0CD0032A10D1428A018A007900F083
:10F7B0000DB8007900F05CB8007900F051B9837899
:10F7C0000A460079194600F03FB87047FEB5054675
:10F7D0000F461446204607F088FB00282CD0184E10
:10F7E000184B0922B188384607F065FB01468DF8B1
:10F7F000015000208DF80000304600EB4500032941
:10F8000002D008290FD108E0012C04D004218DF882
:10F810000010C48007E00321F9E7012C0DD0062178
:10F820008DF8001044839DF80000002804D0316852
:10F83000002901D068468847FEBD0521F0E7000099
:10F84000E8C38000BEC002010EB5084B1B68002B48
:10F850000BD08DF80100002907D11078002804D1C1
:10F8600002208DF80000684698470EBDE8C380006E
:10F870003EB505460C881648164B0922818820465D
:10F8800007F019FBADF8004000228DF80420104964
:10F89000022301EB450103280BD0082810D0ADF856
:10F8A000022001208DF8040069462846FBF7B6FDCA
:10F8B0003EBDADF80230891D02918DF80420F3E7BA
:10F8C000ADF802301A3102918DF80420ECE7000007
:10F8D000E8C38000BEC0020113B584B00446002016
:10F8E0000C4901EB4402528B012A11D18DF804001E
:10F8F0008988094A072007F0C3FAADF806000120FD
:10F90000ADF8080005A8039001A92046FBF753FDB8
:10F9100006B010BDE8C38000BEC0020170B500286B
:10F9200022D0124C0068206004F130002C210546E2
:10F93000F6F706F80020A080211D21630C486063C3
:10F94000801EA063092084F83C00402084F85A00FF
:10F95000012084F85B000648103020642846BDE88A
:10F9600070400449FBF736BD022070BDE8C380003B
:10F97000C0C0020189F7010110B5044620780928AA
:10F9800049D2DFE800F0481128050B30363C420030
:10F990000121BDE8104008460AF05ABA0021BDE82E
:10F9A000104001200AF054BA21896068FCF7D8F8A9
:10F9B0001949606888600478112C04D11648052123
:10F9C0000C300AF0E5FA222C25D1BDE810400421C4
:10F9D00011480AF0DDBA012100200AF039FABDE829
:10F9E00010400AF0DDB90121BDE8104003200AF003
:10F9F0002FBA0021BDE8104003200AF029BA0021E7
:10FA0000BDE8104004200AF023BA0121BDE81040EF
:10FA100004200AF01DBA10BDFC468000FEB5044665
:10FA20000D4616461A200C4901EB4402D288012AE1
:10FA300010D100208DF800008988084A022007F0C4
:10FA40001FFAADF80200ADF8046002956946204641
:10FA5000FBF7B1FCFEBD0000E8C38000BEC00201A0
:10FA60002DE9FF4106460C4625782D4F2D4B0922E6
:10FA7000B988284607F01FFA8DF80560ADF80050E8
:10FA800000218DF80210394601EB4605032821D0EC
:10FA90000121052816D0072834D0082826D08DF853
:10FAA00002109DF80200012806D09DF8040018B14C
:10FAB000396809B101A8884769463046FBF70CFD53
:10FAC000BDE8FF818DF80410A0680290A088ADF811
:10FAD0000C00E6E7A06803F0E9FD012804D004214A
:10FAE0008DF80410E880DCE70321F9E7A06803F053
:10FAF000DDFD012804D006218DF804106883D0E7CD
:10FB00000521F9E7A068007828B10128C9D10820AB
:10FB10008DF80400C5E707208DF80400C1E7000058
:10FB2000E8C38000BEC0020105480068C00F00287D
:10FB300004D00448007908B10120704700207047C4
:10FB400040C500A0E4498000FEB50546002404201D
:10FB50008DF8000000260B4FE8070CD00120A040D4
:10FB6000019004EB440007EB80008168029141683A
:10FB700009B168468847641CA4B26D08761C082E3B
:10FB8000EADBFEBD2095800010B5EFF31084012163
:10FB900081F3108800F004F884F3108810BD000091
:10FBA0002DE9F0410446204603F06EFEE0B2EFF38B
:10FBB0001081012282F31088194A1368834303439A
:10FBC000136081F310881748446284634FF6FF7016
:10FBD00000EA0421E0B2124B0C3B1A68084382434E
:10FBE0001A6019E094FAA4F0B0FA80F1012088407C
:10FBF000611E0C40072290FAA0F1B1FA81F1890050
:10FC0000094D2E680F278F40BE438A4016432E6051
:10FC1000196821EA00401860002CE3D1BDE8F081AA
:10FC20005CC500A0002001A090E200A070B50546D0
:10FC30000648E8F713DFEFF31084012181F3108801
:10FC4000284600F005F884F3108870BD444B80000E
:10FC500000B585B001680091017901F003010191BF
:10FC600081680291C1680391406800090490684668
:10FC700003F07EFD05B000BD10B5FF20F8F762F877
:10FC800080B2002821D011498863EFF3108101224E
:10FC900082F310880E4A6FEA0043136081F31088E4
:10FCA0006FF0040111600A4940390968C1F300117D
:10FCB00039B1202805D0BDE8104020F02000E8F739
:10FCC000CF9EBDE81040E8F7CB9E10BD002001A0FC
:10FCD00044C500A030B4002910D0EFF310810122F8
:10FCE00082F31088074B1A684FF6FF7404EA00206D
:10FCF00002431A6081F3108830BC704730BC03F0B7
:10FD0000C3BD00005CC500A07047000070B505468B
:10FD10000648E8F7A7DEEFF31084012181F310888D
:10FD2000284600F005F884F3108870BD484B800029
:10FD300010B54FF47A71002803D0D0E900329A420E
:10FD400001D9012010BD00220272174A136823F066
:10FD500080731360154B04681B68A3FB0434DB0B32
:10FD600043EA4443104C38342360136843F0007373
:10FD700013600D4C6FF04003143C2360037914684A
:10FD800063F3DF641460406828B1094B4FF0805082
:10FD9000C3F8FC01D867491E481CFCD1106840F02C
:10FDA00080701060002010BD58C500A0644880001D
:10FDB00084E000E0FCB5002854D02C4A1168C1F35F
:10FDC0000061E9B30168D9B3037A012B4CD0012358
:10FDD0000372EFF3108583F31088254B1B68A3FB98
:10FDE0000113C90B41EA4341204B383319601368B2
:10FDF00043F0007313601D4B121D3C33146824F054
:10FE0000404444F0804414601C688C42F6D119A12F
:10FE100006C9CDE90012154954390968642201F078
:10FE200007011DF8011011FB02F3DFF850C0DCF8E8
:10FE3000006046F08071CCF8001011490F6800E0B6
:10FE400010E047F001020A604A684C68A41A9C421C
:10FE5000FBD30F60CCF8006085F31088002101729D
:10FE60000020FCBD0120FCBD0220FCBD58C500A047
:10FE7000644880004030101810200000FCED00E0C5
:10FE8000001000E00021F9F727BA000070B5054620
:10FE90000648E8F7E9DDEFF31084012181F31088CB
:10FEA000284600F005F884F3108870BD4C4B8000A4
:10FEB00010B50446002C18D00D48016821F001014E
:10FEC00001600C4A02211160BFF34F8FBFF36F8FA7
:10FED000C2F80011016821F440510160400D03F0A7
:10FEE00061FD00202077A07310BD012010BD00002F
:10FEF00018C500A084E100E02DE9F04F04462DED87
:10FF0000048B83B00E464FF0000ACDF808A0D0460F
:10FF100003F034FD814694B1207F80B17EB1A07B97
:10FF2000012812D00120A073EFF3108580F3108810
:10FF300002A8FCF793F90746380055D107E00120E5
:10FF400003B0BDEC048BBDE8F08F0220F8E703F0AE
:10FF500015FD484501D04FF0010801A92046FCF7E6
:10FF60003FF924489FED240B90ED008B51EC100BD2
:10FF700053EC182B0BF0CEF941EC190B40460BF06B
:10FF8000BAFB53EC192B0BF04BFC0BF087FB0199E0
:10FF900000EB010902980BF0AEFB8B46804653EC58
:10FFA000182B0BF0B7F90BF079FB8144CDF80490D6
:10FFB0004BEC108B53EC182B51EC100B0BF0AAF9F7
:10FFC0009FED0F1B53EC112B0BF02AFC0BF066FB83
:10FFD0004FF47A71B0FBF1F201FB1208494630464A
:10FFE000FCF778F8A6F8088085F3108884F80EA04E
:10FFF0003846A5E768488000000000000000F04196
:020000040102F7
:100000000000000000408F4070B505460648E8F744
:100010002BDDEFF31084012181F31088284600F0D6
:1000200005F884F3108870BD4C4B80002DE9F05F1B
:1000300004460026DFF8C8A05546002C4CD0B04638
:1000400084F80E80EFF31089012080F310882D4F83
:10005000386820F001003860002003F0A3FC03F0B2
:1000600069FC38B10020274978310860386840F0D1
:100070000200386003F05EFC08B16D1EFAD14FF04B
:10008000010B85B384F8008084F8018084F8028035
:1000900084F803B084F804B084F805800620A071C9
:1000A000A4F8088017486FF400712C30016038689C
:1000B00040F400503860386820F4805038601249AD
:1000C0000220C1F8FC01C867386840F001003860C0
:1000D00003F030FC18B108E00120BDE8F09FBAF150
:1000E000010AF5D101E0FFE7012689F310881EB16E
:1000F00084F81C803046F0E784F81CB0FAE7000072
:10010000A086010018C500A088E000E02DE9F04FAE
:1001100004462DED028B85B088464FF0000ACDF8DD
:1001200010A0D14603F02AFC8346002684B1207F2C
:1001300070B1B8F1000F05D098F80500632801D818
:100140000A2807D2012005B0BDEC028BBDE8F08F74
:100150000120F8E7207EC00612D569462046FFF749
:10016000CBFE03A96846FCF73BF80398BDF80810DE
:1001700000EB4002C2EBC01001EBC0002169461A3F
:10018000A07B01280CD00120A073EFF3108780F32F
:10019000108804A8FCF762F80546280046D101E063
:1001A0000220D0E703F0EAFB584501D04FF00109E7
:1001B000D8F800000090D8F804000190B8F80800C2
:1001C000ADF8080003A96846FCF70AF8DFF8A88034
:1001D00098ED000B53EC102B9FED280B51EC100BFE
:1001E0000BF098F841EC180B48460BF084FA53ECEE
:1001F000182B0BF015FB0BF051FA0399A1EB00093A
:1002000004980BF078FA98ED001B53EC112B0BF0CF
:1002100081F80BF043FAA9EB000103916846FBF764
:1002200059FF0A2269462046F5F736FB87F3108806
:1002300084F80EA0ADB9207EC00612D569462046CE
:10024000FFF75AFE03A96846FBF7CAFF0398BDF8FB
:10025000081000EB4002C2EBC01001EBC000801B95
:1002600020613DB9207EC00704D004F10A01204678
:1002700000F058F9284666E7684880000000000052
:100280000000F0412DE9F04F04462DED028B85B0C2
:10029000DFF864B2DBF80000C0F30030DFF858A2EA
:1002A00000280AF12C0A6ED0DAF80000C0056AD5E1
:1002B0000027B8466FF48070CAF8000002A92046F3
:1002C000FFF71AFE18B102A92046FFF715FE01A993
:1002D00002A8FBF785FF0198BDF8101000EB400263
:1002E000C2EBC01001EBC000019060690546217EA1
:1002F000CA074CD0E07A9DF80A2090420ED1A27A2B
:100300009DF809309A4209D18A0707D44A0705D4D3
:10031000012741F0020141F0040121769DF80A1005
:10032000884207D1A17A9DF80920914202D1217E0D
:10033000C90608D4217E11F0060F04D021F0020175
:1003400021F0040121768DF80A00A07A8DF80900C9
:10035000607E8DF80800694602A8FBF741FF00980F
:10036000618B00EB4002C2EBC01001EBC0010091B9
:10037000207EC206614809D5019A8A4206D0914280
:1003800002D9881A02E076E0891A08440546217EDF
:10039000C90614D50026D4E90413CA1801998A4263
:1003A00001D28D1A00E0551AAB4200D80126521F27
:1003B0008A4200D91EB14FF0010821611D468542D5
:1003C00000D30546EFF31089012080F3108803F075
:1003D0009FFA064601A8FBF741FF10B103F0AAFA05
:1003E00001909FED470B484853EC102B90ED000B0C
:1003F00051EC100B0AF08EFF41EC180B28460BF065
:100400007AF953EC182B0BF00BFA41EC100B9FED23
:100410003F1B51EC100B53EC112B0AF0C7FE0BF0F5
:100420003DF9014601F11403019A00E00E44B01AAF
:100430009842FBD81428F9D3304603F0A7FA42F2C9
:10044000107503F065FAB04201D06D1EF9D189F341
:10045000108857B1207B012842D0607B9DF80B109B
:10046000884202D12046FFF70DFDB8F1000F02D0FF
:10047000204600F025F9DBF80000C0F340300028EA
:1004800029D0DAF80000800525D56FF40070CAF88D
:10049000000004A92046FBF7A3FE1B4890ED000BCB
:1004A00053EC102B9FED1B0B51EC100B0AF032FF9D
:1004B00041EC180B04980BF01EF953EC182B0AF0C2
:1004C00075FE0BF0EBF8049001462046FBF702FEA8
:1004D000204600F023F805B0BDEC028BBDE8F08F9C
:1004E0009DF80E20607B012191400842BDD020463E
:1004F000FFF7C8FCB9E7000018C500A0005C26059E
:100500000000000000408F4068488000D31742CEB2
:10051000FBFFDF3F000000000000F0410221F8F780
:10052000DBBE00002DE9F04104462DED028B86B0C4
:100530000D46002C0DD0207F58B155B103A920469F
:10054000FFF7DAFC38B1012006B0BDEC028BBDE844
:10055000F0810120F8E702A903A8FBF741FE207E05
:1005600041070CD59DF80E106A78914204D19DF890
:100570000D102A78914202D020F004002076A07B52
:10058000012844D00120A073BDF8146068788DF86C
:100590000E0028788DF80D004FF000088DF80C80C3
:1005A000ADF8148084F81980BDF81400608301A9A7
:1005B00003A8FBF715FEDDE90101884202D839499D
:1005C000084401902868C4F80A00DDE90101401AD6
:1005D0000190618B00EB4002C2EBC01001EBC00543
:1005E000207E40F001002076C10612D5029901EB71
:1005F0004102C2EBC111226906EBC101891A62698D
:10060000511A8D4205D320F00200207645E00220E9
:100610009AE7EFF31087012181F3108820F00200A0
:1006200020766846FBF71AFE9FED1F0B204853EC1F
:10063000102B90ED000B51EC100B0AF06BFE41EC0F
:10064000180B28460BF057F853EC182B0BF0E8F872
:1006500041EC100B9FED171B51EC100B53EC112BC1
:100660000AF0A4FD0BF01AF800994618304603F082
:100670008DF942F2107503F04BF9B04201D06D1EB6
:10068000F9D187F310880D496FF4807008600B482A
:100690002C38016841F48051016084F80E800020FC
:1006A00052E70000805101000000000000408F4030
:1006B00068488000D31742CEFBFFDF3F44C500A04F
:1006C0000121F8F709BE000070B50446002C11D0D6
:1006D000134DD5F8A40220F08000C5F8A402114EF5
:1006E0002178304603F0E8FAD6F89803C0F300000A
:1006F00010B10FE0012070BD05F52875686840F065
:1007000080006860286840F080002860A86840F099
:100710000400A86000202834A0616070207070BDC3
:1007200000E000A0003001A030B58DB00446002CE0
:1007300004D094F82900002518B111E001200DB073
:1007400030BD84F828501948416821F0800141608B
:10075000016821F080010160816821F0040181605D
:10076000022084F8290001A814F46ED360680A906E
:10077000A0680B902069059060690690A0690790B9
:10078000E0690890E0680390206A0490606A0C9029
:10079000217801AA064803F029FB2564012084F88A
:1007A000290084F828500020C9E70000A0E200A03A
:1007B000003001A010B5EFF31083012282F31088FE
:1007C000094A1468002C02D01468641E1460126870
:1007D0003AB920F0807021F00101044A1160044907
:1007E000086083F3108810BD34488000001000E0DA
:1007F000FCED00E010B5EFF31082012383F31088C5
:10080000074B1C68641C1C60064B40F0807018602D
:1008100041F001000449086082F3108810BD000017
:1008200034488000FCED00E0001000E010B5044604
:10083000002C1DD0207A01281CD0012020721A48DB
:10084000006818B1416809B1204688471748016817
:1008500021F480610160EFF31081012080F31088A2
:100860001348026822F002020260006820B114E01E
:10087000012010BD022010BD0E48426842F0010266
:100880004260C26842F00072C260026842F0010237
:100890000260C26842F08072C26081F3108800205A
:1008A000E0606072207210BD8403800014C500A057
:1008B0002C4B8000A0E200A070B50446002C03D0B1
:1008C00023492068884201D0012070BD207A012888
:1008D00005D001252572607A002610B11EE00220A5
:1008E00070BD26721B48016821F00101016081681A
:1008F00021F000718160EFF31080012181F31088F5
:1009000015490A6842F002020A6080F31088134811
:10091000006818B1016809B120468847022060725A
:100920000F48016841F4806101606068012809D0C6
:100930002068016821F4805101603046E6606572EC
:10094000207270BD2068016841F480510160F4E7B5
:10095000006401A0A4E200A02C4B8000840380006E
:1009600014C500A0E8F7829810B50B460246002196
:100970000348E6F758DD08B1002010BD012010BD86
:10098000641F800010B500231A4601210348E6F7D2
:100990004ADD08B1002010BD012010BD641F800099
:1009A00038B5022000906846F6F75EFB114C2068CF
:1009B00080B91148206011490160012141608160C6
:1009C000EB21C1600E499DF8002051F82210016111
:1009D000002141615BF4CAD208B1012000E000208F
:1009E000A0720448E8F744D808B1002038BD0120BF
:1009F00038BD0000641F8000281F800000D000A0C8
:100A00009848800010B514460A460146234604481B
:100A1000FFF7A8FF08B1002010BD204610BD000060
:100A2000641F800070B504460D46164608F08CFA27
:100A3000324629462046FFF7E5FF044608F096FABD
:100A4000204670BD10B514460A46014623460448A8
:100A5000E6F7DFDB08B1002010BD204610BD000026
:100A6000641F80002DE9F047C0B081468A461746D2
:100A70003B46524649461748E6F7CBDB18BB0024F5
:100A80003D464FF48078474501D9464600E03E4652
:100A900009EB040133466A460E48FFF763FF90B93D
:100AA0000AEB040032466946F4F766FE58B9AD1BFE
:100AB0006DB134444646B54200D82E46BC4202D2FF
:100AC000A019B842E4D9002040B0BDE8F08738460C
:100AD000FAE70000641F800070B505460E4607481F
:100AE000E7F7C8DFEFF31084012282F31088314664
:100AF0002846E7F7C1DF84F3108870BD584B8000AB
:100B00002DE9FE4307460E463046FEF7ABFD85B2A3
:100B10000024DFF85490DFF8548059F83400B842CC
:100B20001DD105EB041085B205EB450218F8220033
:100B3000032807D08DF800400D48874206D13004C5
:100B4000019004E003208DF80000F5E7019608EB22
:100B500082008168029142680AB168469047641C2D
:100B6000032CDADBBDE8FE83DCBE0201A09380002B
:100B7000001001A070B505460E460748E7F77ADF7A
:100B8000EFF31084012282F3108831462846E7F7FC
:100B900075DF84F3108870BD584B80000321F7F790
:100BA000C3BD000070B505460648E7F769DFEFF3FF
:100BB0001084012181F31088284600F005F884F3A1
:100BC000108870BD5C4B800070B50446002C18D0B6
:100BD00094F835000025B0B3242084F8350020684F
:100BE00003F010FA204600F010FA194A206819495B
:100BF000904208D1D1F8AC0240F48060C1F8AC0258
:100C00000AE0012070BD144A904205D1D1F8AC022F
:100C100040F40060C1F8AC02D1F8A40200050CD584
:100C2000D1F8AC020D4A10400D4A824305D1D1F8EB
:100C3000A40240F48060C1F8A402A56384F8355092
:100C4000656284F8365084F83450002070BD00008E
:100C500000C300A000E000A000C400A000FF010A43
:100C600000FF01000021F7F75FBD90F835007047E5
:100C700070B505460648E7F703DFEFF3108401215E
:100C800081F31088284600F005F884F3108870BDC1
:100C90005C4B8000F8B50446002C04D094F8350075
:100CA000002510B125E00120F8BD84F834505349E7
:100CB000486820F480604860086820F4806008601C
:100CC000A1F528714E4A2068904206D1D1F8AC02B5
:100CD00020F48060C1F8AC0208E04A4A904205D195
:100CE000D1F8AC0220F40060C1F8AC02204600F05C
:100CF0008DF9242084F835002068C16E21F00101AF
:100D0000C166D4E90010404A904201D8022005E0B3
:100D10003E4A904201D8042000E006200A6822F0F2
:100D2000060202430A60F6F7D9F93948616800689B
:100D30004208B2FBF1F0401E364B994212D2B2FB90
:100D4000F1F62268D2F8A030DBB2F31ADB1F324E84
:100D5000B14203D25361216888610EE0D3612168FA
:100D600008620AE0B2FBF1F32168D1F8A420D2B204
:100D70009A1AD21F4A6221688862E068012829D045
:100D8000A1682068026842F0080202608160206861
:100D9000016841F0100101602069012827D0206816
:100DA00050F8981F21F0010101602068016C00914A
:100DB000016B6FF30B0101632068C16E41F001010B
:100DC000C166A563202084F83500656284F836503A
:100DD0000020F8BDA1682068026822F008020260C5
:100DE00081602068016821F010010160D4E720686B
:100DF00050F8981F41F001010160D6E7A0E200A081
:100E000000C300A000C400A0A086010040420F0063
:100E10000441800080841E00801A060078B40368B4
:100E2000D96A00224C0620D5D3F88020C2F31602DE
:100E30005C6D009402F4805402F480452C4303D08E
:100E4000846B44F00204846390F83540212C06D072
:100E5000446A112C09D190F83540602C05D1D3F8A3
:100E60008040E40D458B2C4444838C0705D59B6C56
:100E70000093836B43F008038363836B1BB1816B27
:100E800078BC01F099B9836A002B02D001B070BC24
:100E9000184778BC704770472DE9F04704468846EC
:100EA00017461D4694F83500202802D00220BDE8E0
:100EB000F087EFB3E5B3206803F0D6F801283ED001
:100EC000E06ADFF884900178484603F013F80126C1
:100ED00030B1E06A0078083006FA00F0C9F8A003E3
:100EE000206B0178484603F005F830B1206B00789C
:100EF000083006FA00F0C9F8A00394F8340001287D
:100F00001FD084F83460222084F83500102084F843
:100F100036000020A0636761258365830B4820624B
:100F20000B48A0624146204601F070FC204600E0DC
:100F300003E0BDE8F04701F09BBB0120B7E70220CA
:100F4000B5E70220B3E70000003001A00000FFFF7A
:100F5000232602010221F7F7E7BB00002DE9F0414B
:100F600004460F4616461D4694F83500202802D048
:100F70000220BDE8F0819EB395B3206803F074F8B9
:100F800001282FD0E06ADFF864800178404602F043
:100F9000B1FF012230B1E06A0078083002FA00F1B6
:100FA000C8F8A01394F8340001281DD084F8342028
:100FB000212084F83500102084F836000020A0633A
:100FC0006661258365830A4820620A48A062394623
:100FD000204601F01BFC2046BDE8F04101F0C0BBFB
:100FE0000120C6E70220C4E70220C2E7003001A0CA
:100FF0000000FFFF232602010121F7F795BB022124
:10100000F7F792BB0121F7F78FBB704770470000DD
:101010002DE9F04104460F46154694F83500202886
:1010200002D00220BDE8F081002F58D0002D56D00C
:10103000206803F019F8012853D0206BDFF8AC804A
:101040000178404602F056FF012230B1206B007853
:10105000083002FA00F1C8F8A01394F8340001280F
:1010600041D084F83420222084F83500202084F8F0
:1010700036000026A6636761258365831C482062CD
:101080001C48A062216B1C480863216B1B488863C5
:10109000206BC663204601F0D8FC21680320C1F80C
:1010A0009000206B4FF480420178404602F059FFD7
:1010B00021681031238B3A46206BE7F7E3DC668327
:1010C00084F834602068016B41F41071016320687A
:1010D00050F8881F41F0010101600020A2E70120C3
:1010E000A0E702209EE702209CE70000003001A05C
:1010F0000000FFFF91280201192102016120020175
:101100000221F7F711BB00002DE9F04104460F461C
:10111000154694F83500202802D00220BDE8F08161
:10112000002F52D0002D50D0206802F09DFF0128E2
:101130004DD0E06ADFF8A0800178404602F0DAFE88
:10114000012230B1E06A0078083002FA00F1C8F8F4
:10115000A01394F8340001283BD084F834202120D7
:1011600084F83500202084F836000026A6636761E5
:1011700025836583194820621948A062E16A1948ED
:101180000863E16A18488863E06AC663204601F094
:101190005CFC20680421C0F88C10E06A4FF4006207
:1011A0000178404602F0C5FE22681032238B394692
:1011B000E06AE7F767DC668384F834602068016BD7
:1011C00041F4187101630020A8E70120A6E702207E
:1011D000A4E70220A2E70000003001A00000FFFF0A
:1011E0009128020129210201612002010121F7F762
:1011F0009BBA000010B50648E7F746DCEFF3108411
:10120000012080F31088E7F741DC84F3108810BDDB
:101210003C4B8000F0B54FF0F85000EA01604FF40D
:10122000F81202EA0142254B1C680243944304432E
:101230001C6001F01F00EFF31082012484F310887A
:101240001C1D256885430543256082F310884FF4F3
:10125000F85202EA01221D6885431D60EFF31080F9
:10126000012383F3108823689343236080F310885D
:1012700020E091FAA1F0B0FA80F2012090404A1EDD
:101280001140072390FAA0F2B2FA82F292000C4EBB
:1012900035680F279740BD4393401D433560EFF3FA
:1012A0001082012383F31088236823EA8050206092
:1012B00082F310880029DCD1F0BD00003CC500A0FD
:1012C00094E200A0084602F0E1BE0846E7F7E09B82
:1012D00008461146E7F7DE9B7047704770B5044635
:1012E0000D460448E7F7D8DB29462046BDE87040A4
:1012F000E7F7D49BF91202012DE9F0410020F8F73D
:10130000CDF80546224FD5E90412C7E90412214859
:10131000081A72F11E0017D307F120000EE0D6E97B
:101320000412D7E90434B1EB030C72EB040C04D3C0
:10133000C91A62EB0402C6E90412006A066A002EAA
:10134000EDD1002139617961A87801280AD1D7E966
:101350000430D5E9021259185041C5E90410284655
:10136000F8F760F8F8F70CF9786840B1D0E9043183
:10137000D7E90402181A61EB020104F09BFDE96948
:1013800009B1A8698847BDE8F041F8F7C3B8000083
:10139000009680000010C32C70B50446002C1ED0AF
:1013A000207D01281DD0012626751E4D286820F0BD
:1013B00001002860A86820F00070A860A5F52975D4
:1013C000206814F457D6EFF3108186F3108816487E
:1013D000026822F010020260006820B115E00120CE
:1013E00070BD022070BD05F52875686840F00100E9
:1013F0006860E86840F00070E860286840F001002C
:101400002860E86840F08070E86081F31088074841
:10141000006818B1416809B120468847002060750E
:10142000207570BDA4E200A02C4B8000AC038000AE
:101430002DE9F74F86B004460D46142101A8F4F7B4
:101440007FFA4FF00008207D01280ED04FF0010AEE
:1014500084F814A0607D0027012808D04FF001080F
:101460002775404609B0BDE8F08F0220FAE7022058
:10147000607560680190A0680290E0680390206940
:101480000490059701A9206814F407D64FF0040BC7
:1014900020B16068B0F5C05F05D01FE084F815B0DA
:1014A00027750120DEE7CDB1A06870B329882068D8
:1014B0000162698820680162A98820680162E98860
:1014C00020680162298920680162698920680162B7
:1014D000A98920680162E9892068016220680168A1
:1014E00041F0010101604FF0E029D9F81460D9F80A
:1014F0001850F5F7F3FD1A484FF47A710068B0FB05
:10150000F1F1C8204143174B1EE0FFE7298820680E
:101510000162698820680162A98820680162E988FF
:1015200020680162DAE7D9F81800854201DB2A1A3F
:1015300001E0321A2A44891A0546002904DC84F89D
:1015400015B0277503208DE75868C0F30000002808
:10155000E9D09868A0610899086084F815A07FE731
:1015600004418000007801A070B50446002C08D02A
:10157000207D012807D001252575607D002620B13A
:1015800028E0012070BD022070BD26751748416813
:1015900021F001014160C16821F00071C160016862
:1015A00021F001010160C16821F08071C160EFF399
:1015B0001080012181F310880D490A6842F0100261
:1015C0000A6080F310880B48006818B1016809B1FF
:1015D00020468847022060752068016821F00101DB
:1015E000016065752675002070BD0000A0E200A0B6
:1015F0002C4B8000AC03800010B5032806D0FFF709
:101600006DFE034901200870002010BD012010BDAF
:101610004048800010B511488178002909D110494F
:10162000096801F0405101228270B1F1805F00D160
:101630004270407870B19FED0B0B0C4853EC102BAF
:1016400090ED000B51EC100B09F0B0FDBDE810401F
:101650000AF024B8BDE810405AF4DC9340488000FA
:1016600050C500A0000000000000E03F6848800076
:1016700008B50020009069464FF00040E4F7B8DB61
:1016800008B1002008BD009808BD0000014800789E
:10169000704700004048800010B500210320FFF78C
:1016A0001DFE02490020087010BD00004048800067
:1016B0001CB508F0E3FB05218DF800100649002257
:1016C00051F8203083F8002151F8200001680029EA
:1016D00001D0684688471CBDD04380001CB508F087
:1016E000CDFB04218DF800100649002251F820306E
:1016F00083F8002151F820000168002901D06846D4
:1017000088471CBDD04380001CB508F0B7FB0321FF
:101710008DF800100649002251F8203083F800218E
:1017200051F820000168002901D0684688471CBD97
:10173000D043800070B505460648E7F7B1D9EFF30E
:101740001084012181F310882846E7F7ABD984F390
:10175000108870BD884B80001CB50446204608F0F8
:101760008DFB00228DF80020E16B0191064951F8B4
:10177000203083F8002151F820000168002901D0B1
:10178000684688471CBD0000D0438000002804D074
:1017900010F8371F4078084370470020704700005A
:1017A00070B505460648E7F77BD9EFF310840121B1
:1017B00081F310882846E7F777D984F3108870BD45
:1017C000884B8000704770471CB50446204608F0DF
:1017D00055FB02218DF80010218D628D891AADF81C
:1017E0000410044951F820000168002901D068461E
:1017F00088471CBDD04380007CB50546284608F0CC
:101800003DFB044601208DF80000288C698C401AAD
:10181000ADF804000C4D55F8240090F8040118B1FF
:101820002046F8F7FBF802E02046F8F78BFA55F867
:10183000240090F80011002904D10168002901D08A
:10184000684688477CBD0000D043800070B50C46D8
:10185000154628460EF48ED52D0A3F281DD0284661
:10186000E7F724D90346A27821792846E7F720D95B
:101870000B4850F825008289FF2A09D0207808B14A
:10188000903000E00020C3B201212846E7F712D9CA
:10189000227961882846E7F70FD9002070BD000043
:1018A000CC0D80002DE9FC4104460F46217800262E
:1018B0000025601C30F4A6D1142808D20C4900EB96
:1018C000800001EB400090F82903C0F34005CDE90A
:1018D0000065237804F11702E11D601C29F42AD762
:1018E0000146384630F460D10020BDE8FC8100009C
:1018F000A41480002DE9F04104460E460C2504F0A6
:1019000079FAB0B32178012903D9FF2901D0122532
:1019100038E0601C30F476D105461E4F142D09D2F4
:1019200005EB850007EB400090F82903800706D5FA
:10193000122527E030F454D10546142D1AD005EBBA
:10194000850007EB400000F54870D4F801100160F5
:10195000B4F80510818021780172417A41F00101CB
:1019600041F0020141722178601C30F4DBD218B1E1
:1019700007E007E0072505E02278611C28462DF4E2
:1019800009D700252946304630F40ED10020BDE8A5
:10199000F0810000A414800010B50C4629F49ED7F5
:1019A0000021204630F400D1002010BD70B50E4655
:1019B0000C2404F01FFAF8B10024124D04EB84004B
:1019C00005EB400191F82903C20710D020F0020076
:1019D00081F82903420703D420F0010081F829038C
:1019E00091F8282301F5487120462DF421D7641C75
:1019F000E4B2142CE2D300242146304630F4D4D093
:101A0000002070BDA41480002DE9F84F06460C4656
:101A100093464FF00008DFF82CA15AF826700121F8
:101A20000C2E07D2384628B190F85000C0438007EA
:101A300004D0002121B14FF00C087AE00121F9E730
:101A400000214FF001090C2E09D2384638B190F828
:101A50003C0010F0020F01D0012100E0002119B973
:101A600097F84E00C00706D097F85100C00605D57C
:101A70004FF03A085DE04FF01A085AE020890090D4
:101A8000E3886288A188304615F402D548B92E490A
:101A9000C6EBC60011F81000800702D44FF0120800
:101AA00047E009EB062130230A4640F20B100EF402
:101AB00077D305460520287100223146284618F4C0
:101AC000ADD122482860A188A0894900884200D36E
:101AD00008466882618860894900884200D30846C8
:101AE0002882A08868816088288160882885E088AD
:101AF000A8812089E88100210C2E0AD25AF82600FC
:101B000038B190F83C0010F0020F01D0012100E044
:101B1000002181F0010085F82C0085F82D9085F8D2
:101B20002E9028460EF488D317F8510F40F010007D
:101B3000387042465946304615F4ACD30020BDE813
:101B4000F88F00003812800040088000B58B030039
:101B5000F8B50D4616466888E6F7B0DF0446FF2C58
:101B60004DD001212046E6F7ABDF0A2813D008202C
:101B700040EA04211E23324640F616600EF410D3CC
:101B80000B210170A989418269684161A96881615D
:101B90000EF452D333E000200090204638F4ACD746
:101BA0001849682290B151F8240090F84030302B49
:101BB00001D0009216E0312280F8402051F8240034
:101BC00001210269204638F4F9D70BE051F82400CE
:101BD00090F84000412801D0009203E00121204606
:101BE00036F462D59DF8000048B100221146204627
:101BF00038F4E4D76A460321204639F41DD000208A
:101C0000F8BD0000CC0D800070B504460E460C25D2
:101C100004F0F0F828B32178012903D9FF2901D075
:101C200012251EE0601C2FF4EDD7142808D21049AD
:101C300000EB800201EB420292F829138B0701D4DA
:101C400012250EE021F0020182F829134B0703D47C
:101C500021F0010182F829132278611C2DF4E8D5C6
:101C60000025294630462FF49FD7002070BD000084
:101C7000A414800070B502460D461078012817D8CC
:101C800000B101200E4981F812040024107850B1EF
:101C9000B1F8102464204243002106200EF488D6B7
:101CA00029F4FAD605E0002106200EF4F1D500E073
:101CB0001224214628462FF477D7002070BD00005B
:101CC000A414800010B50C46C279012A07D8017807
:101CD000012904D8401C29F499D6014600E01221BC
:101CE00020462FF461D7002010BD00002DE9F047F9
:101CF0008846132B40D112F445D007460025DFF863
:101D0000809031E008EB45067088E6F7D7DE0446A0
:101D1000FF2C27D059F8240028B97088422319A233
:101D20002146E6F76FDE8FB959F8240090F832109B
:101D300004290BD8406810B1002010B106E0012042
:101D4000FBE72046FDF730FC13490870B0881349C3
:101D50000A891044088159F82400327910F8321F9A
:101D6000891A01706D1CADB298F80000A842C9D85C
:101D700017B909200DF4CCD60020BDE8F08700008B
:101D8000180F80006C3263635F7461736B5F706106
:101D90007463682E63000000BD4B80004C0F800010
:101DA0002DE9F047064634460C3CDFF800A14FF021
:101DB00030494FF002089AF83000FF2808D0D9F8CF
:101DC0006410C20008FA02F081430143C9F86410AC
:101DD00037480078B0B1A42236A139A0E6F7E2DD99
:101DE00020460EF41FD29AF83000FF2808D0D9F808
:101DF0006410C00008FA00F821EA0801C9F864106C
:101E0000BDE8F087FF250A27A088A0F5885005388F
:101E100002D0012809D107E02089E6F753DE20B17E
:101E2000807800F00F0700E003270A2F2DD2DFE8AB
:101E300007F0050705072C2C2C2C2C2B002524E063
:101E40003078717840EA0120C0F30B00A0F5807172
:101E5000FF2901D8022518E00B2808D819490144A8
:101E6000097E21B1012101EB002085B20DE0A0889F
:101E7000A0F58851063902D17068E6F725DE1248D0
:101E80000178491C017000E00225FF2D04D0E58097
:101E900030460EF4D1D1A6E72189A0889A2305A265
:101EA000E6F714DE20460EF4BDD19CE7080880005A
:101EB000A30680006863695F70617463682E6300C5
:101EC0003000000050198000BC4B80002DE9F04725
:101ED00080468A461E464FF00009374662F30707E0
:101EE00000240025F0B204281DD006281DD00728A4
:101EF0001FD008281BD0A8F510600A2800D20E4D6C
:101F00003CB1A2884046216853F4CCD5FBF758F980
:101F100005462DB133463A4651464046A8478146CC
:101F20004846BDE8F087054CEAE7054CE8E7054C74
:101F3000E6E7054CE4E70000ADC60600A8228000F5
:101F4000BC228000002280009822800038B500204A
:101F50000090124C2078902808D015D294F82800D0
:101F600000F07F0000F14600009012E0684607F0A4
:101F700015FB94F82800BDF80010884209D900F03C
:101F80007F004630009004E0A07C00F07F00123813
:101F90000090BDF8000000F07F0038BD12328000D4
:101FA00070B50246D46A206850F8881F21F00201FB
:101FB0000160206850F8881F21F001010160E06A8B
:101FC000264D01781078814218D1284601F007FF8C
:101FD0006169884207D2E06A0178284601F0FFFE75
:101FE0006169081A06E0E06A0178284601F0F7FE08
:101FF0006169401A218B081A608319E0206B01780F
:10200000284601F0E4FE6169884207D2206B01781E
:10201000284601F0DCFE6169081A06E0206B0178B1
:10202000284601F0D4FE6169401A218B081A6083AA
:10203000E16A0020C863216BC86394F8350060280A
:1020400004D02046BDE87040FEF70CBE202084F886
:1020500035002046BDE87040FEF7A0BD003001A06D
:10206000C06A102100F0A8B870B5C46A206850F8A2
:10207000881F21F002010160206850F8881F21F0BC
:1020800001010160608B01281DD11923002202216A
:10209000204600F033FD202500B1A56320684FF4F1
:1020A00040710161192300220821204600F026FD1D
:1020B00000B1A563206801696069421C626101701A
:1020C000608B401E60832068016B41F400710163E6
:1020D00070BD10B5C46A206850F8881F21F0020155
:1020E0000160608B012811D11923002202212046B2
:1020F00000F004FD08B12020A06361692068097820
:1021000041F400710161608B401E60832068016BA7
:1021100041F40071016310BDC06A006850F8881F67
:1021200021F0010101607047C06A006850F8881F03
:1021300021F00201016070470021074A006802EBAC
:10214000C1035B68984202D112F831007047491C04
:102150000229F4DB02207047ACBF02010FB41CB5AA
:102160001448406801909DF818008DF80500032080
:102170008DF80400059800909DF811008DF8060078
:102180009DF810006946F6F773FC00280ED19DF803
:1021900024008DF80500089800909DF81D008DF82A
:1021A00006009DF81C006946F6F762FC1CBC5DF851
:1021B00014FB0000A4BF02012DE9F04104460025F4
:1021C00084F836504C482062A06B0843A06394F812
:1021D00035102026206828291AD094F8351029298E
:1021E00016D094F835102A2912D0016B6FF30B0129
:1021F000016394F83500602802D084F83560656288
:10220000A562206801F038FF3C4F01280CD030E077
:1022100040F25621026B8A430263282084F835007D
:1022200065623748A062ECE7206B10B3C76394F88F
:10223000360010280BD1E06A48B1C563E06AE6F7C2
:1022400047DC206850F8881F21F00201016084F803
:102250003450206BE6F73CDC00284AD0206850F868
:10226000881F21F001010160206BC16BBDE8F041C6
:102270000847206801F005FF012814D1E06A90B1F9
:10228000C76384F83450E06AE6F722DC002830D0D7
:10229000206850F8881F21F002010160E06AC16BDC
:1022A000BDE8F041084794F83500602806D084F86E
:1022B00034502046BDE8F041FEF7D4BC656284F896
:1022C000356008E0206801696069421C6261017044
:1022D000608B401E6083206801F0CAFE10B1608BE5
:1022E0000028EFD184F834502046BDE8F041FEF7D5
:1022F00055BCBDE8F08100000000FFFFA11F0201F6
:102300005D29020138B5044618482062002565623F
:10231000202084F8350084F83650A56208E0206853
:1023200001696069421C62610170608B401E6083BC
:10233000206801F09DFE10B1608B0028EFD1608B0A
:1023400018B1A06B40F00400A063206840F2762131
:10235000026B8A4302632068406D009084F8345019
:102360002046BDE83840FEF796BD00000000FFFFA4
:1023700038B504462068016E00910025A5623C49ED
:1023800021626562416BC1F38011002909D0D0F848
:102390008010C90605D0416D0091A16B41F0040188
:1023A000A16340F25621026B8A43026394F8350020
:1023B00021280FD12068406FC0B2618B0844608330
:1023C0000FE0206801696069421C62610170608BE6
:1023D000401E6083206801F04BFE10B1608B002826
:1023E000EFD1A06BD8B994F83500602817D094F8D5
:1023F00035102020212918D094F83510222935D104
:1024000084F8350094F83600402826D084F83650F9
:1024100084F834502046BDE83840FEF79BBDA16BE0
:102420002046BDE83840FFF7C7BE84F8350094F871
:102430003600402808D084F8365084F834502046BE
:10244000BDE83840FEF7D8BD84F8365084F83450E3
:102450002046BDE83840FEF7D5BD84F8365084F8F4
:1024600034502046BDE83840FEF7C9BD38BD0000F5
:102470000000FFFF38B504462068016E009140F26D
:102480007621026B8A430263206801F0FAFD01287D
:1024900004D0206801F0F0FD012838D194F835000F
:1024A0005D4D21280FD0206B0178284601F08FFC6C
:1024B0006169884221D2206B0178284601F087FCAF
:1024C0006169081A20E0E06A0178284601F087FC7B
:1024D0006169884207D2E06A0178284601F07FFCF2
:1024E0006169081A06E0E06A0178284601F077FC85
:1024F0006169401A218B081A08E0206B0178284690
:1025000001F065FC6169401A218B081A608394F818
:102510003500212814D12068406FC0B2618B084477
:10252000608314E0206801F0A7FD012815D0206821
:1025300001696069421C62610170608B401E6083AA
:10254000206801F095FD10B1608B0028EAD1206869
:1025500001F092FD012808D013E020680069218B6A
:10256000628B891A62695054E7E7206B48B1E6F73D
:10257000AFDAB0B9206850F8881F21F0010101607E
:102580000FE0206801F07DFD01280AD1E06A40B12A
:10259000E6F79EDA28B9206850F8881F21F002017A
:1025A00001600020606284F83600A062A16B61B116
:1025B000A16B2046FFF700FE94F83500282829D1AA
:1025C0002046BDE83840FFF79DBE236A134A20210C
:1025D000934209D0226284F8351084F834002046F2
:1025E000BDE83840FEF757BC94F83520222A08D0C1
:1025F00084F8351084F834002046BDE83840FEF7F2
:10260000F5BD84F8351084F834002046BDE8384024
:10261000FEF776BD38BD0000003001A00000FFFFCE
:10262000704710B5044694F8340001281ED00120EC
:1026300084F83400480610D5D00603D0A06B40F0D3
:102640000400A063D00303D420684FF440720261F9
:102650002068026B42F400720263880502D52046AE
:10266000FFF786FE002084F8340010BD022010BD64
:1026700070B504460025218B206B012961D93449AE
:102680000163216B33488863206BC563E06A05638F
:10269000E06A8563E06AC56320680321C0F8901092
:1026A000206B2D4E4FF480420178304601F059FCEA
:1026B00021680420C1F88C00E06A4FF400620178C0
:1026C000304601F036FCE06A4FF480620178304613
:1026D00001F053FCE06A10220178304601F059FC09
:1026E000E06A02220178304601F02FFC22681032A5
:1026F000238B1A495B1EE06AE6F7C4D921681031C2
:10270000238B62695B1E206BE6F7BCD9218B606965
:102710000844401E60610120608384F834502068C2
:10272000016B41F040010163206850F8881F41F0BF
:1027300002010160206850F8881F41F0010101602A
:1027400003E084F83450FFF78FFC002070BD0000D8
:102750006920020161200201003001A03C48800094
:1027600070B504460025218BE06A012941D924492E
:102770000163E16A23488863E06AC5632068042135
:10278000C0F88C10E06A204E4FF4006201783046A9
:1027900001F0CFFBE06A01780269304601F0EDFB01
:1027A000E06A01788269304601F0F3FBE06A017863
:1027B000C269304601F0C9FB22681032238B61697F
:1027C0005B1EE06AE6F75ED9218B60690844401E13
:1027D00060610120608384F834502068016B41F00F
:1027E00040010163206850F8881F41F00201016038
:1027F00003E084F83450FFF76CFC002070BD00004B
:10280000D320020161200201003001A008B5026856
:10281000D36E23F00103D3660268136843F04103CB
:102820001360026853686FF309030B435360016838
:10283000CA6E42F00102CA660068006C0090002077
:1028400008BD000070B50024104E56F82400B8B141
:1028500090F89810012913D1001DFEF706FA2028E0
:1028600002D008B1002070BDEFF31085012080F385
:10287000108856F82400001DE3F7F0DA85F310887D
:10288000641CE4B2022CE0D3012070BDDC43800064
:1028900070B504460D4694F8340001281BD0012081
:1028A00084F83400680641D5D0064CD094F8350041
:1028B000294E212811D0206B0178304601F087FA8B
:1028C0006169884223D2206B0178304601F07FFA9B
:1028D0006169081A22E0022070BDE06A0178304682
:1028E00001F07DFA6169884207D2E06A01783046DA
:1028F00001F075FA6169081A06E0E06A017830466D
:1029000001F06DFA6169401A218B081A08E0206B0A
:102910000178304601F05BFA6169401A218B081A90
:1029200088B1A06B40F00400A0630CE0A8060AD5B3
:102930002068016B21F020010163206850F8881F96
:1029400041F002010160A80502D52046FFF792FD83
:10295000002084F8340070BD003001A070B504463A
:102960000D4694F83400012811D0012084F8340079
:10297000680661D4A8060CD52068016B21F02001FF
:1029800001632068016B41F41471016354E002207B
:1029900070BD68072AD52068806FC0B208E0216842
:1029A00009696269531C63611170618B491E6183FF
:1029B000401E411C02D0618B0029F0D12068816B40
:1029C000C9B2628B491C914201D900218163608B9D
:1029D00090BB2068016B21F004010163206A10F5AF
:1029E000803F29D02046FFF71BFE25E0E80623D5CF
:1029F0002068406FC0B2C0F1080208E06069216839
:102A0000431C636100780861608B401E6083521E26
:102A1000501C02D0608B0028F0D1608B60B9206818
:102A2000016B21F010010163206A022801D0206AA5
:102A300010B92046FFF7F4FDA80502D52046FFF7A0
:102A400019FD002084F8340070BD08B50168CA6E15
:102A500022F00102CA6601680A6822F041020A6097
:102A600001680A6842F080020A600168CA6E42F09A
:102A70000102CA660068006C0090002008BD0000DA
:102A80002DE9F05F05460A9E884691469A464FF02A
:102A9000E02BDBF81470DBF81840F4F71FFB164846
:102AA0004FF47A710068B0FBF1F171431BE0701CC8
:102AB00019D0DBF81800844201DB221A01E03A1A2F
:102AC0002244891A04460EB100290CDC34356868AA
:102AD00040F020006860202068700020A8702870F6
:102AE0000320BDE8F09FD8F8000000EA0900504537
:102AF000DDD00020F5E700000441800038B50C4629
:102B000000930168134670312246FFF7B9FF38BDC4
:102B1000F0B5BDB04FF4B5713148F2F7EFFE482182
:102B20002BA8F2F70DFF2BA842F40ED630B12DA240
:102B300010210020E5F73CDF3DB0F0BD9DF8AC3042
:102B400030A210210020E5F733DF00242BAF244E04
:102B500040E0AC216846F2F7F3FEC4EBC400384411
:102B60000546401C694642F4A7D630B123462AA246
:102B700010210020E5F71CDF2AE0307855F8011F0E
:102B800000EBC00006EB8000C0F80210A988C180ED
:102B9000A97901729DF8000000070BD530781C223E
:102BA00000EBC00006EB80000A300DF14601F2F7A1
:102BB0002EFE0AE030781C2200EBC00006EB8000FD
:102BC0000A300DF12A01F2F722FE3078401C3070F5
:102BD000641CE4B29DF8AC00A042BAD8ACE7000097
:102BE00038A08100523A313A696E69742067657481
:102BF00020626F6E64206465766963657320666128
:102C0000696C0A00523A313A626F6E645F6E756D9C
:102C1000203D2025640A0000523A313A696E6974F9
:102C20002067657420626F6E642073656320696E2F
:102C3000666F206661696C2C20696E646578203D42
:102C40002025640A00000000F0B585B00446224F3C
:102C500021033868FDF788FE204E4FF40045D8B1B7
:102C60001F480168039140680490082203A938684E
:102C7000F9F770FE08281ED0B069717A40F26A2216
:102C8000CDE900210290174B17A229460020E5F755
:102C90008FDE092005B0F0BDB069717A4FF415726E
:102CA000CDE9002102900F4B0FA229460020E5F745
:102CB0007FDE0920EEE71848082101606FF013015C
:102CC00001EB04334360447214A229460020E5F767
:102CD0006FDE0020DEE70000CC238000641F800050
:102CE000ACD50700A9C30201523A353A25732C200E
:102CF0004C256420666C6173682073746174652070
:102D00003078253032582C206572726F72203078FE
:102D1000253038580D0A0000D8328000523A353A32
:102D2000496E697469616C697A6520756E75736541
:102D300064206E7664732C20617661696C5F7369C0
:102D40007A653D25640D0A002DE9FC5F4A490C684F
:102D500008344A4F7872082139606FF0130101EB93
:102D6000003808F1080078604FF001094FF0000AC0
:102D7000DFF80CB19BF80000002802D0002053F4CB
:102D80008FD0042269462046FDF73CFEBDF80010B6
:102D9000A1F57F40FF3826D0082269462046FDF77E
:102DA00031FEBDF8020000F1080552F405D5C6B2A7
:102DB000BDF8000000282BD0684607F0EDFBA8B155
:102DC0007868A919401A786000281BDA2DA24FF400
:102DD00000410020E5F7ECDD9BF8000053F460D0E3
:102DE0000120BDE8FC9F4FF0010A1AE033A24FF426
:102DF00000410020E5F7DCDD9BF8000053F450D0E3
:102E00000920EEE74FF000092146684606F080FEF3
:102E10003968A8190144396004443748006884427D
:102E2000AFD39BF8000053F43BD0BAF1000F05D0AC
:102E3000B9F1000F04D0C7F804800AE00120D0E700
:102E40007868082802D90838786002E038720020D3
:102E500078607B68434507D828A24FF400410020E2
:102E6000E5F7A6DD0020BCE72FA24FF400410020CB
:102E7000E5F79EDD0120B4E7CC238000D832800046
:102E8000C9238000523A353A4E56445320696E6940
:102E90007469616C697A6174696F6E206661696CCE
:102EA000656420666F722077726F6E672074616749
:102EB000206C656E6774680D0A000000523A353A5E
:102EC0004E56445320696E697469616C697A617405
:102ED000696F6E206661696C656420666F72206937
:102EE0006E76616C6964206461746120696E20464D
:102EF0006C6173680D0A0000D0238000523A353AA5
:102F0000496E697469616C697A65207573656420BE
:102F10006E7664732C20617661696C5F73697A6583
:102F20003D25750D0A000000523A353A4E5644537D
:102F300020696E697469616C697A6174696F6E2069
:102F40006661696C656420666F7220696C6C656788
:102F5000616C20617661696C5F73697A653D257586
:102F60000D0A00002DED048B82B0142007F0C2F989
:102F700007F014FF0190304C9FED309ADFED309A4E
:102F8000304D04F108062C48F8F7C6FE31462A48B1
:102F9000F8F74AFFB4F9000000EE100AB8EEC00AD4
:102FA00020EE090A84ED050AB4F9020000EE900A49
:102FB000F8EEE00A60EE890AC4ED060AB4F90400EE
:102FC00001EE100AB8EEC11A21EE291A84ED071A93
:102FD00020EE000A00EEA00A01EE010AF4F710F854
:102FE00084ED080A94ED071AC1EE000AB0EE600AFB
:102FF000F6F75EFF84ED090AA06908F095FE41EC42
:10300000180B606908F090FE41EC100BB0EE481A06
:10301000F0EE681AF4F78CFA51EC100B08F094F803
:10302000A062054904482C31F4F792FCA8710A21EA
:1030300001A807F079F9A6E7649D81000000003936
:10304000000000B91A47800010B50446FEF77EFF65
:10305000B4F5A37F10DA4FF48C718C4200DA0C4681
:10306000614201EB810140F6B24202EB41021121C3
:1030700092FBF1F1401AC0B203490A6822F0FE4205
:1030800042EA0060086010BD0CC500A0044890F83A
:103090009900002801D000207047012070470000EF
:1030A0007C27800070B503460E4615460848046824
:1030B000324621461846FDF7A5FC324629462046F1
:1030C000F2F75AFB08B1002070BD012070BD00006E
:1030D000B04880002DE9F04705460E461746984651
:1030E000EFF311840220F4F790F88146F4F7AAF880
:1030F000401C0121814009EB0100C0B280F311881E
:103100000B48406848B1E81B76EB08060AD2E0B2EB
:1031100080F311880120BDE8F087E0B280F31188C8
:103120000120F8E7E0B280F311880020F3E7000007
:1031300000968000002805D0C16919B1807818B1C7
:10314000012801D000207047012070472DE9F05F71
:10315000DFF818A14FF030494FF002089AF8060046
:10316000FF2808D0D9F86410C20008FA02F08143A1
:103170000143C9F864104FF0E027D7F80051D7F8A1
:1031800004B17E17C7F88061C7F88461BFF34F8F21
:10319000BFF36F8F3648E5F759DC0446C7F8005196
:1031A000C7F804B1002C2DD0266020460CF482D63E
:1031B00030B1E188A08847232EA2E5F723DC21E087
:1031C000E188A0880DF4E2D1F9F7FAFF054628005E
:1031D00005D1E188A088522326A2E5F777DC35B136
:1031E00021460C312389E288A088A84700E000200E
:1031F00078B3012806D0022830D072221DA121A068
:10320000E5F7D0DBD7F80041D7F80451C7F8806163
:10321000C7F88461BFF34F8FBFF36F8F1448006806
:1032200010B3002010B103200CF4CCD3C7F8004138
:10323000C7F804519AF80600FF2808D0D9F864109E
:10324000C00008FA00F821EA0801C9F86410BDE8D6
:10325000F09FFFE720460CF4E5D7D3E7044821466A
:103260001430E5F7C3DBCDE70120DBE70808800079
:10327000900980006B655F7461736B5F706174634C
:10328000682E630030000000282007F033F8012387
:1032900000220E490E48F8F7E0FE0E4A03210C48C2
:1032A000F8F7DAFD0C4A04210948F8F7D5FD0B4A76
:1032B00005210748F8F7D0FD0548F8F7EBFEF8F7C9
:1032C000FBFE052007F016F8F9E700003D7A010142
:1032D000CC9D8100A1C2010187C2010189C2010107
:1032E00030B58BB004460D46FF22282101A8F1F726
:1032F0007FFF40F60202ADF804200022ADF8062060
:103300008DF808402868039001A8F7F755FE0BB028
:1033100030BD70B58AB006460D461446FF222821FE
:103320006846F1F765FF40F60103ADF80030ADF8EF
:1033300002508DF804602068029060680390A068D5
:1033400004906846F7F738FE0AB070BD30B58BB010
:1033500005460C46FF22282101A8F1F749FF4FF44A
:103360000062ADF804200022ADF806208DF8085068
:10337000206803906068049001A8F7F71DFE0BB069
:1033800030BD70B58AB005460C461646FF2228218E
:103390006846F1F72DFF40F60603ADF80030ADF8B2
:1033A00002408DF80450ADF808606846F7F704FE57
:1033B0000AB070BD70B58AB005460C461646FF22AD
:1033C00028216846F1F714FF40F60303ADF80030FA
:1033D000ADF802408DF80450306802906846F7F767
:1033E000EBFD0AB070BD30B58BB005460C46FF2230
:1033F000282101A8F1F7FCFE40F60401ADF8041005
:103400000021ADF806108DF8085020680390A088C0
:10341000ADF81000A41D059401A8F7F7CDFD0BB081
:1034200030BD70B58AB005460C461646FF222821ED
:103430006846F1F7DDFE40F60503ADF80030ADF863
:1034400002408DF80450306802906846F7F7B4FDEA
:103450000AB070BDF8B50C46164630460CF48AD753
:1034600007460025204B21A240210020E5F7A0DAE5
:10347000202F35D0360A0096237A20A24021002042
:10348000E5F796DA207820B1342812D03F2810D002
:1034900026E021463046F7F75DF80546FF2D04D1BA
:1034A00021463046E5F716DB0546FF2D18D10025ED
:1034B00016E0207A400613D40620002700EB0623EE
:1034C00001220421304600970FF4AED04780217AC4
:1034D000417021783F2905D0042101710DF4D5D523
:1034E0002846F8BD0621F8E740C30201523A333AB4
:1034F0005B25735D20656E7465720A00523A333A3B
:103500006F70636F64653D307825782C20636F6E33
:103510006964783D307825780A0000002DE9F0478D
:1035200009200CF44FD2224E3568002D3ED0DFF832
:103530008480DFF8849098F86D0099F80010B1FB52
:10354000F0F200FB1217002411E03919B1FBF0F280
:1035500000FB1210C0B2FBF78BFF01218140294212
:1035600003D0164A317A12689047641CE4B298F886
:103570006D00A04202D931890029E6D199F80000F6
:10358000401CC0B289F8000098F86D10814202D149
:10359000002089F800003068002807D03089002812
:1035A00004D0BDE8F04709200CF4B292BDE8F087E2
:1035B0004C0F8000000E8000BD4B800098058000FD
:1035C000014909200CF4E0911D3502017CB5044647
:1035D000002000900190684606F058F800285ED15F
:1035E00006F036F880F0010020B306F011F8020072
:1035F0002B482C4909D090F8280008300A6822F09E
:10360000FE4242EA0060086014E090F82800322C84
:1036100007DB08300A6822F0FE4242EA00600860D8
:1036200008E0282C06DCC01C0A6822F0FE4242EAB0
:10363000006008609DF8040000F01F029DF8020081
:1036400000F01F050221042001233C2C02DD04218F
:10365000062007E0202C02DD0321052002E01B2CC0
:1036600000DB0023002B1AD029441F2900D31F217F
:10367000824201D9101A00E000200B4AD072094A98
:103680001832136823F41F0343EA0141116005490E
:10369000091D0A6822F4780242EAC04008607CBD35
:1036A000123280000CC500A0E44980000178407807
:1036B00041EA002070470178427841EA022182788D
:1036C00041EA0241C07841EA00607047642006F098
:1036D00011FE0223142264211948F4F72DFD194D1F
:1036E0002878D8B101281ED0154800220823114699
:1036F0000C30F4F7D7F9022006F0FCFD1049104811
:103700000C31F4F7C1F90E48F4F78DF90C48F4F7D1
:1037100009FD0B48008806F0EDFDE1E708210848A7
:10372000F4F796F9E7E7002405480823022221462A
:103730000C30F4F7B7F9641CE4B2042CF4D3DAE7E4
:103740009C9D81001A47800002680A6001607047F2
:10375000EFF31080012181F3108804490A6822F0F8
:1037600000420A6080F310887047000040C500A046
:103770002DE9F041044620683B4D1FE090FAA0F18E
:10378000B1FA81F201219140421E1040E26891FAA3
:10379000A1F3B3FA83F39B00DFF8D0C0DCF890729A
:1037A0000F269E40B74302FA03F31F43CCF89072F2
:1037B000072A25D02A6842EA014129600028DDD184
:1037C0002168A0684FF6FF7202EA0122C9B2B0F583
:1037D000807F1AD00023012819D000202E681143C1
:1037E0008E43184306432E606168022911D0206879
:1037F00000F05EF820681E494862606870B130E0F1
:103800002A6822EA01412960D8E71346E3E708461F
:10381000E4E70021206800F04BF8EBE720688863BC
:10382000206901280CD0022804D003280ED00428D7
:1038300017D111E02068486388622068086210E0B0
:10384000206808638862206808620AE020680863CC
:10385000C8622068086204E020684863C862206883
:1038600008620120BDE8F08150C500A000E000A082
:10387000002001A00349096A884301D00020704755
:1038800001207047002001A010B5EFF31081012244
:1038900082F31088054B1A684FF6FF7404EA002083
:1038A00082431A6081F3108810BD00005CC500A03F
:1038B00010B5C0B2EFF31082012383F31088054BDB
:1038C0001C688443002900D0002004431C6082F35C
:1038D000108810BD5CC500A00548016821F040417A
:1038E00041F08041016002483830006870470000B4
:1038F0005CC500A0EFF31080012181F31088034A1A
:103900006FF48071116080F31088704744C500A087
:10391000EFF31080012181F3108805490A6842F015
:1039200040420A6080F310880148383000687047D0
:103930005CC500A0EFF31080012181F310880549D8
:103940000A6822F040420A6080F31088014838304B
:10395000006870475CC500A0EFF31080012181F37F
:10396000108805490A6822F040420A6080F31088F6
:1039700001483830006870475CC500A00248006804
:10398000C0F303107047000018C500A00449086088
:1039900003487838016841F0040101607047000075
:1039A00090C500A003490A6822F4E06202430A605D
:1039B0007047000018C500A003490A6822F4E062BD
:1039C00002430A607047000018C500A02DE9F041CD
:1039D00007460E461446224850F82700002590F866
:1039E0004E00C00701D0242537E00121384616F4E7
:1039F000B9D108B1242530E0F08847F6FF71201ACC
:103A000080B2884201D2282527E0012000EB07215F
:103A100010230A4640F20D100CF4C2D304460621CE
:103A2000384600F0AFFD06202071032239462046BB
:103A300016F4F4D10B482060D6F80100A06070792C
:103A40002073F088E08122460121384616F4A4D183
:103A500000220321384616F4D9D22846BDE8F08169
:103A600038128000556803002DE9F84307460D46DB
:103A7000394850F827400121384616F473D108B16F
:103A8000242628E028890090EB886A88A98838468F
:103A900013F4FED468B105202EF476D358B194F80F
:103AA0004E00C00709D00521384616F403D106465A
:103AB00008E01E260FE01A260DE00521384600F02A
:103AC00061FD0646DFF8948046B1D8F800303246F2
:103AD0000B21384698473046BDE8F883012000EBBB
:103AE000072130230A4640F20B100CF459D3044648
:103AF0000520207107223946204616F48FD1184838
:103B0000206068882081A8886081E888A081288951
:103B1000E081A87A84F82700A889A082E889E08259
:103B2000288A2083688A6083A88AA083E88AE08341
:103B3000288B2084002184F82D1084F82E10224632
:103B40000121384616F428D10022D8F80030072188
:103B500038469847BFE7000038128000D40580003F
:103B6000B1A203002DE9F84380460C4617464E48A3
:103B700050F82850002620890090A188E3880A4642
:103B8000404613F485D428B195F84E00C00703D001
:103B9000242664E0202662E0608947F6FF71381A27
:103BA00080B2884201D2282659E00021404616F40E
:103BB000D9D0052807D009270121404616F4D2D0D4
:103BC000052818D01FE00021404616F4B1D0A18886
:103BD0000185E18881812189C18161898184618830
:103BE0004184617880F82610304B324603211B68EF
:103BF0004046984733E00121404616F499D016F428
:103C00000BD10A2809D00521404600F0BBFC012158
:103C1000404616F4A7D010B11AE024261FE0012276
:103C20003023114640F20B100CF4BAD202460520A4
:103C300010711F481060002182F82D1082F82E109C
:103C40004FF6FF70D0820121404616F4A5D0072719
:103C50000121404616F486D0052803D0242630469C
:103C6000BDE8F8830121404616F462D005463A4685
:103C70004146284616F4D2D0A0882885E088A8813D
:103C80002089E8816089A88460886884607885F8E4
:103C90002600012085F82C00064B002239461B68BF
:103CA00040469847DBE7000038128000D0058000CE
:103CB000B1A20300D40580002DE9F04704460F4669
:103CC0004FF001094FF0000817F5803F46D0394604
:103CD000204600F019F9012607F1080106FA01F55E
:103CE000A8B13946204600F060F93946204600F078
:103CF000F7F80028F9D0C4F8A0533946204600F060
:103D000003F90028F9D13946204600F007F904F5F7
:103D100044742560A5602561A5612562BE40A66248
:103D20002663A6632664A664A4F544744FF4606019
:103D300000EB471207EB470000EBC70104EBC100A3
:103D4000026404224264C0F81880C0F81C8044F861
:103D50003180C0F808804846BDE8F087C4F89883F1
:103D60000021204600F0D0F80028F9D1012120469A
:103D700000F0CAF80028F3D10221204600F0C4F870
:103D80000028EDD10321204600F0BEF80028E7D13D
:103D90000421204600F0B8F80028E1D10521204692
:103DA00000F0B2F80028DBD10621204600F0ACF884
:103DB0000028D5D10721204600F0A6F80028CFD151
:103DC000D4F89803C0F300000028C9D1C3E701EB81
:103DD000410202EBC10100EBC1008068704701EBBA
:103DE000410202EBC10150F8310070472DE9F0416A
:103DF00005460E461446D5F89803C0F30000012787
:103E0000002867D03146284600F07EF8C0B1314620
:103E1000284600F0CAF83146284600F061F800282C
:103E2000F9D006F108008740C5F8A073314628464E
:103E300000F06AF80028F9D13146284600F06EF803
:103E40004FF4606000EB461206EB460000EBC60044
:103E500005EBC0010A6404224A6400228A61CA6137
:103E60002369A2681A43D4E9053633431A43E36948
:103E70001A438B69194E334013438B610A6C22F449
:103E800040620A64E2680B6C23F0404313430B6406
:103E9000226845F8302060688860206ACA696FF33C
:103EA0000B020243CA61606A4A6C22F4F06242EA81
:103EB000C0104864A06A4A6C22F4F04242EAC02072
:103EC0004864E06A0A6C22F0E00202430A640120BE
:103ED000BDE8F081C5F89873B2E700004900CEFF55
:103EE00001EB410202EBC10100EBC100006CC0F329
:103EF00040207047D0F8A00301228A40104201D030
:103F00000120704700207047D0F8A00301228A40AA
:103F1000104201D0012070470020704701EB4102A0
:103F200002EBC10100EBC100016C21F4807101645E
:103F3000704701EB410303EBC10100EBC100816954
:103F400021F4605111438161704701EB410303EBA0
:103F5000C10100EBC100816921F0060111438161BB
:103F6000704701EB410303EBC10100EBC100816924
:103F700021F4E03111438161704701EB410303EB10
:103F8000C10100EBC100816921F4C061114381616D
:103F9000704701EB410303EBC10100EBC1008169F4
:103FA00021F0300111438161704701EB410202EBC6
:103FB000C10100EBC100016C41F4807101647047E4
:103FC00010B50E4B984201D1002000E01020814036
:103FD0000B4BD3F810428C43022A0DD0002004432F
:103FE000C3F81042D3F808028843012A00D0002108
:103FF0000843C3F8080210BD0846F0E7000001A01E
:1040000000E000A008B5C16E21F00101C1660021E9
:104010000163026C00927F2202605522426082603E
:104020004FF4C87242614FF4EB7282613C22C2616C
:104030008222026206224262102282628163C1638E
:10404000C0F88810C0F88C10C0F890100121C1672A
:104050006422C0F89420C0F898100522C0F8A0206F
:10406000C0F8A410084608BD006FC0F300007047F8
:10407000006FC0F3C0007047D0F88800C0F30000A4
:104080007047D0F88800C0F3400070472DE9F04138
:1040900004462168404D26E091FAA1F0B0FA80F282
:1040A000012090404A1E1140226990FAA0F3B3FA11
:1040B00083F39B00394F3E684FF00F0C0CFA03FC62
:1040C00026EA0C0602FA03F31E433E60072A19D0C3
:1040D000EFF31082012383F310882B6843EA8050AA
:1040E000286082F310880029D6D1E16820682A4E22
:1040F000361F29B34FF4F85202EA002201290DD0ED
:1041000000210CE0EFF31082012383F310882B6869
:1041100023EA8050286082F31088E4E71146336870
:1041200000F01F0083433360EFF31080012383F31B
:1041300010882B6893430B432B6080F3108804E0B6
:10414000316800F01F0001433160A168206800F071
:1041500027F8208862684FF0F85101EA00614FF4B7
:10416000F81303EA004082B1032A09D0336840EA19
:104170000104A343012A00D108460343336008E049
:10418000326808438243326003E0326808430243E6
:1041900032600120BDE8F08140C500A094E200A09B
:1041A00010B500F01F00012901D0002100E00146F8
:1041B000EFF31082012383F31088044B1C688443BF
:1041C0000C431C6082F3108810BD000040C500A0A5
:1041D0002DE9F04107460C462D4850F827500121A3
:1041E000384615F4BFD508B124261DE0A07858B193
:1041F000607848B195F84E00C00707D009213846CD
:1042000015F458D5064606E01E260DE0092138466D
:1042100000F0B8F90646DFF87C8046B1D8F80030E7
:1042200032460521384698473046BDE8F0810120E6
:1042300000EB072114230A464FF487700BF4B0D724
:1042400005460920287105223946284615F4E6D589
:10425000114828606078E872A078A872A078617828
:10426000884206D10D4A105C012802D1505C012819
:1042700000D00020E8732A460121384615F48CD579
:104280000022D8F80030052138469847CCE70000D6
:1042900038128000EC058000C5A90300B4D00500E9
:1042A0002DE9F0410646140A002000250C2C0BD203
:1042B000094F57F824403CB194F83C4014F0100FDB
:1042C00001D0012500E00025002D03D0304612F476
:1042D00065D2C0B2BDE8F081381280002DE9F0410E
:1042E0000646140A002000250C2C0BD2094F57F863
:1042F00024403CB194F83C4014F0100F01D001254B
:1043000000E00025002D03D0304612F479D2C0B26F
:10431000BDE8F0813812800004490348086005496F
:10432000034808607047000055440201D80580002A
:10433000E5450201D4058000024901480860704744
:10434000D9470201E00580002DE9F0410F461A46E9
:10435000002000240E4960C915E035F83410914260
:1043600010D13B78042101EBC401695800290CD01D
:10437000084600F00FF804463946A446BDE8F0416F
:1043800018466047641CA642E7D8BDE8F0810000EB
:10439000900280000249884200D102487047000024
:1043A000A5540200091A020110B504462046012155
:1043B0000C2809D20D4A52F820202AB192F8500058
:1043C000C04380070ED0002100290DD1204601F006
:1043D0009DF8002808D120460122BDE81040222186
:1043E00013F47C900121EFE710BD0000381280002B
:1043F0000B780C2B01D10A234B7014F4379000007A
:104400000249014808607047F1430201E805800055
:10441000024B0A4606211B6818470000D0058000A1
:1044200010B5100AFFF7C0FF002010BD024B0A466E
:1044300000211B6818470000F005800030B4044CD0
:104440002588CD8164888C8130BC15F429920000C8
:10445000284880002DE9F0418CB007460C463846CC
:1044600021F456D4218949000491618949000591BC
:10447000218A0222022900D8114606910699079145
:1044800094F8271049008DF82210ADF8207000F044
:1044900001018DF8231094F82D1029BBE18AA1F5B4
:1044A0007F42FF3A20D0DDE9041291421CD12189DC
:1044B0004900009106990191BDF82010ADF80C104B
:1044C000E18A00EB41062089450025B980222A496E
:1044D0002A48E4F767DAB6FBF5F005FB10600290B6
:1044E000684630F4C3D780B104A831F41FD24FF02E
:1044F0000008A8B1A4F82A8060892085F8F732F86E
:1045000084F827000CB0BDE8F081E08A608500984F
:10451000C0F34F002085F8F725F884F82700F1E76D
:104520000A9D174850F8270090F84E00C0070BD19D
:10453000099E6D1C26B980220F491048E4F732DA33
:10454000B5FBF6F006FB10550998CDF80080C0F3D6
:104550004F02ABB2A18A384620F4F8D040F2E241D3
:1045600090FBF1F060850998C0F34F002085F7F7C4
:10457000F9FF84F82700C5E7ECCD0201F8CD020170
:104580003812800070B505460C460021284615F407
:10459000E9D3A04201D1232400E02A24232C02D015
:1045A0002A2C16D019E0052802D009280FD107E0DF
:1045B000284600F0B7FF21462846FFF729FF06E00E
:1045C000284600F0AFFF21462846FFF72FFF0020C6
:1045D00070BD052803D0092801D0002070BD2046F9
:1045E00070BD00002DE9FE4F81468A461746002621
:1045F000B0460121484615F49BD304466E4850F856
:104600002950BAF10B0F08D10B224946204615F468
:1046100005D4E989484622F4C1D6204615F4FCD3D6
:10462000504508D0204615F4F7D39F2363A2514686
:10463000E4F74CDAA7E0204615F4EED3C01F4FF0A4
:10464000010A05287AD2DFE800F00D4003929200BB
:104650000FB1012697E000220121484615F43AD413
:1046600084F82CA0B5F84E0040F01000A5F84E00DC
:1046700094F82C00B8B1E189A08CA289CDE9002181
:104680000290238D628C94F82610484621F44ED473
:104690000746380001D0012675E00A224946204627
:1046A00015F4BCD36FE02189E889814217D862896B
:1046B000824214D3A2892B8A9A4210D1E2896B8A52
:1046C0009A420CD12081E8896081BFB100233A462B
:1046D0000F21484613F4F0D50126B04653E0E08997
:1046E0000090A3896289484613F40CD108224946F8
:1046F000204615F493D384F82EA044E095F84E009C
:10470000C0071CD00AEB092130230A4640F20B10E7
:104710000BF446D50646302221463046F1F7BCF868
:104720002B48306001224946304615F477D3304695
:104730000BF482D54FF00108012624E019E0254A48
:1047400021464846126890472146484613F422D431
:1047500009224946204615F461D3012211464846F4
:1047600015F4B8D32189484622F418D60BE0012667
:1047700009E0204615F450D3014640F217130FA26A
:104780004846E4F73FD9002E13D0B8F1000F04D10A
:1047900022463946484613F4D1D035F84E0F20F062
:1047A0001000288003B04846BDE8F04F012115F401
:1047B000EB93BDE8FE8F0000381280006C6C635FE5
:1047C000636F6E5F7570645F70617463682E630001
:1047D000B58B0300D80580002DE9F0478046894657
:1047E0001546A54850F828700121404615F4A0D27E
:1047F00004460026204615F40FD348450CD0B9F1E5
:10480000140F00D03D253D2D04D1012229464046FC
:1048100012F464D6012625E1204615F4FDD20A38AB
:104820000A287DD2DFE800F0054A596C99A5CCEA48
:10483000FCFB0021404620F435D1012200214046F6
:1048400015F4EED297F84E1094F83A00C1F34011E7
:1048500088420AD0894B24220321404613F42CD5E8
:1048600013224146204615F4D9D294F83A00B8B143
:104870000021404621F4C6D601220221404613F40D
:1048800055D60021404613F4BFD40B2241462046A2
:1048900015F4C4D201221146404615F41BD3E1E0C1
:1048A00002221146404613F441D6404613F412D278
:1048B0000D224146204615F4B1D2D3E000214046F6
:1048C00022F4BAD40C224146204615F4A7D2012284
:1048D0001146404615F4FED2C4E00222114640467D
:1048E00013F424D6404613F4F5D10D224146204658
:1048F00015F494D200220121404615F4EBD2B1E028
:1049000004202DF441D478B15D4B04F1240204F16C
:104910003001404613F4C4D30E224146204600E045
:1049200095E015F47BD29DE0544B062203214046CE
:1049300013F4C2D40021404621F464D6002140463D
:1049400022F47AD400220221404613F4EFD5132238
:104950004146204615F462D284E0218F04F108021A
:10496000404613F421D10F224146204615F456D279
:1049700078E0C5B1414B06220321404613F49CD494
:104980000021404621F43ED60021404622F454D472
:1049900000220221404613F4C9D513224146204685
:1049A00015F43CD25EE004F1280204F11001404607
:1049B00016F4A2D010224146204615F42FD251E021
:1049C00004F1200204F11001404620F419D2012123
:1049D000404621F417D6404613F49CD41122414698
:1049E000204615F41BD201221146404615F472D21E
:1049F00037F84E0F40F40070388033E00022012178
:104A0000404615F467D20121404622F415D4122203
:104A10004146204615F402D21A49404601E013E00F
:104A200010E013F497D400220221404613F47ED5FF
:104A30001549012001F8080002220121404613F423
:104A400075D50FE001260DE0012606250AE01F2599
:104A5000204615F4E1D101464FF4C6730BA240463F
:104A6000E3F7D0DF002E05D029464046BDE8F047E9
:104A700000F016B8BDE8F08738128000918203007C
:104A8000798003002D830300A2A181006C6C635F19
:104A9000656E63727970745F70617463682E630011
:104AA0002DE9F04106460F46DFF89C8058F8264075
:104AB0000121304615F43CD1054624490020885593
:104AC00028003DD001200C2E08D258F826202AB10B
:104AD00092F85000C043800702D0002010B126E0B9
:104AE0000120FBE7012130461FF4DCD70022022120
:104AF000304613F41BD517B195F83A0028B195F854
:104B00003A203946304612F4C7D7B4F84E0020F0A8
:104B10002001BFB1002041EA4010A4F84E00304609
:104B200013F482D100221146304615F479D10121C7
:104B3000304615F429D234F84E0F20F4007020804E
:104B4000BDE8F0810120E6E738128000A2A18100D3
:104B500010B5100AFFF728FC002010BD10B50A4C54
:104B60004FF4D27209482168F0F796FE07480849C9
:104B7000C160084901600849C0F8B4100749C0F88D
:104B80000811206010BD000020038000F89D810006
:104B9000CD390201653B0201693A0201D1410201AE
:104BA0002DE9F04107460C46164698460025300A86
:104BB00000F0ACFC28B12088E3F78EDF2846BDE882
:104BC000F081434632462146384616F485D10546E3
:104BD000F4E7000003460846114600290AD00129DF
:104BE0000DD0022913D004290ED040F2E72308A2E9
:104BF000E3F7089FC0B20022194600F011B8C0B216
:104C00000122194600F00CB8194618F4B990704703
:104C10006C6C645F6164765F70617463682E6300BE
:104C20002DE9F74F0E469146D8484FF0200A90F8EC
:104C30002000FF2808D04FF03042516EC3000AFA1E
:104C400003F0814301435166D148009950F8214057
:104C5000002C7DD004F1380594F89D0038B16868C7
:104C6000B04204D10121284630F4FED203E00121F4
:104C7000204630F4F9D294F88E00401CC0B284F87B
:104C80008E0094F89110022907D0B4F88010C1B1B9
:104C9000884202D215E027F435D0009827F418D0C6
:104CA0000028F8D1B4F8800028B194F88E10814221
:104CB00001D3432200E000220121009816F478D4A9
:104CC00053E194F88F0000F079F948B194F88F001F
:104CD00000F052FF00221146009816F469D444E116
:104CE000228D4FF0000862B1B4F87C00C10601D5F6
:104CF000400706D4A18D0123009816F47DD1A4F8B5
:104D00002880628D82B1B4F87C00C10601D481078D
:104D100003D4410708D4C00606D5E18D01230098CD
:104D200018F4BED6A4F82A8094F87C0010F0130F73
:104D300021D194F89C00F0B1206FB0B1F0F7E0FA07
:104D4000C0F30B07380B09D040F2262391A200E0F4
:104D500005E1394640F6FF70E3F754DEB4F87E0013
:104D60006FF30B003843A4F87E0094F88F0017F41B
:104D700029D084F89C80B4F87C008A4FDFF828B2F0
:104D800001071FD5B9F1000F03D0A07DF97B0844BE
:104D900000E0B87BA075F87B00F00F0040F42041E4
:104DA000A182216EE1606660DBF800102046884732
:104DB00028B13C220121009816F4FAD3D5E084F8FA
:104DC0009180D2E0C00609D494F89D0010B16968C2
:104DD000B14200D010B9009816F4A0D194F89D000B
:104DE000B0B16868B04213D1B9F1000F0DD0A06E18
:104DF000301A20F07041E06EB1EB400F03D3A87D74
:104E0000797C0844A875A66612E0387CA875FAE794
:104E1000B9F1000F22D0606E301A20F07041E06EC0
:104E2000B1EB400F03D3A07D797B0844A075666683
:104E30005C4894F89D20407B00F00F0040F4204136
:104E40007AB16268B2420CD1A182E06E69684042D8
:104E500001EB400020F07041E1600CE0397BA1756E
:104E6000E5E7226E521C03D0A182216EE16002E0D0
:104E700040F4C041A182F0F743FA1121B0FBF1F2F6
:104E800001FB12004FF6FF7101EA400094F89D10FB
:104E900031B110B1202802D002E0012000E01F2033
:104EA000E16E06EB4101084420F070416160DBF8DF
:104EB00000102046884798B194F89D0020B14FF02B
:104EC000FF31616084F89180206E411C3DD0E16823
:104ED00081424AD13C220121009816F469D344E072
:104EE00084F8918094F89D0070B36868B0423CD11A
:104EF00094F8970061684200E06E02FB001020F019
:104F000070402849226E497C521C01F00F010ED0DE
:104F100041F42041A982216EE960216E6FF078434F
:104F2000421A22F070429A4204D2084602E041F44A
:104F3000C041A9826860DBF800102846884718B194
:104F400084F89D80286920610FE094F89D0060B985
:104F500040F2C1220FA115A0E3F724DD05E040F2E5
:104F6000CB220CA111A0E3F71DDD084890F820002A
:104F7000FF2808D04FF03042516EC0000AFA00FA04
:104F800021EA0A015166BDE8FE8F00000808800092
:104F9000841380006C6C645F6164765F706174631D
:104FA000682E630083DB0500D4068000300000001B
:104FB0000149087070470000DC4C80002DE9F04F7B
:104FC00091B00646002010906C2106FB01F0FE49CE
:104FD0004FF0000900EB0108A5E1FC4890F8E8005B
:104FE000F94C00EB800004EB8005B5F86E0810F07A
:104FF0003D0F08D0F648B0F86011491CA0F86011C8
:1050000026F480D68FE1DFF8C8A3BAF86201401C0D
:10501000AAF86201B5F8700800F00F07052F7DD1DE
:10502000F5F7B2FFEB490978884277DABAF86401FC
:10503000401CAAF8640107ABB5F87E0822220119CA
:105040001846F0F7E4FB07A8E3F748DD002866D030
:10505000B5F87A0880B3A0F5FA613422B1FBF2F119
:10506000CFB2183005AB80B2062201191846F0F70E
:10507000CEFB342017FB00F000EB040ABAF8D0078F
:1050800000F00107BAF8D007C0F3400048B1BAF801
:10509000D007C0F3C00020B105A907A8E3F720DDC1
:1050A00058B1BAF8D007C0F3400098B1BAF8D007A9
:1050B000C0F3C02040B10DE011E047F00207DDE988
:1050C0000701CDE9030116E040F22112C2A1C64852
:1050D000E3F768DCCDF80C90CDF810900BE0B5F854
:1050E0007008C0F38017DDE90701CDE90501CDF8AF
:1050F0000C90CDF81090B8F85E01C0F38000002845
:1051000045D0B8F880A15FEADA3005D040F69702C2
:10511000B649B748E3F746DCB64801E0F4E0C1E041
:1051200000EB4A013420B1FBF0F000F0FF0ABAF1C5
:10513000030F05D34FF49C72A7A1AFA0E3F732DCB5
:1051400034200AFB004BBBF8D007C0F3401028B94D
:1051500040F23912A0A1AEA0E3F724DCBBF8D007DF
:10516000C0F3C01028B94FF49D729BA1B4A0E3F71F
:1051700019DC0AEB8A0101EBCA0140F2FE7202EB74
:10518000810101A806222144F0F741FB03E0CDF89C
:105190000490CDF80890394605A82CF4C3D68D4963
:1051A000497888437ED13C23FF22002140F207202A
:1051B0000AF4F6D70446B5F874B8B5F876A85FEAED
:1051C0001A3005D040F61B02A949AA48E3F7EADBEA
:1051D0004BEA0A42B5F87808C0F30900C0F51C7024
:1051E000B5F87218890BA44B33F81110494200EB43
:1051F000410000B2002806DA00F2712000B2521E0F
:1052000022F0704208E0B0F51C7F05DDA0F27120AD
:1052100000B2521C22F07042267084F801900121E5
:1052200084F83510954B53F8261091F87C10C90678
:1052300004D5B5F87018C1F3401101B1012184F80B
:105240003610DFF83CC29CF800C011EA0C0100D017
:10525000012184F8361053F82610B1F8803013B1CC
:1052600091F88E1000E00021183484F820100A997B
:1052700044F8161CBDF82C1024F8121C9DF82E10B2
:1052800004F8101C9DF82F10E170BDF83010A180BB
:10529000BDF83210E180BDF834102181BDF8361020
:1052A000618100E03DE00E99E1609DF83C102174C1
:1052B0009DF83D1001F01F0161749DF83D104909F2
:1052C000A174019944F80F1CBDF8081024F80B1CB8
:1052D000039944F8091CBDF8101024F8051C059921
:1052E00044F8031CBDF81810A4F80110E777A26178
:1052F000A082B5F87208800B2077183C20460AF48B
:105300009BD7012010900CE05C4850F8260090F8E4
:10531000920008B1032F10D0BAF86801401CAAF817
:10532000680126F4EFD4304626F4D2D400287FF466
:1053300054AE109811B0BDE8F08FBAF86601401C69
:10534000AAF866010DABB5F87E080C2201191846C3
:10535000F0F75DFAB5F87A08E0B1A0F5FA61342209
:10536000B1FBF2F1CDB218300BAB80B206220119BD
:105370001846F0F74CFA342015FB00F02044B0F842
:10538000D01701F00101B0F8D007C0F3400041EAA6
:10539000400407E0B5F87008C0F38014DDE90D01A2
:1053A000CDE90B010823FF22002140F202200AF47C
:1053B000F7D6067044700B99C0F80210BDF8301093
:1053C000C1800AF439D7ACE7008000B074128000C5
:1053D000400C8000DC4C80006C6C645F6164765F24
:1053E00070617463682E63006CD00201B0CF02015B
:1053F000ECD0020130F8FFFF72616C5F69647820C5
:105400003C20424C455F52414C5F4D4158000000EA
:10541000656D5F626C655F72616C5F696E666F5F20
:105420006C6F63616C5F69726B5F76616C69645FFE
:10543000676574662872616C5F6964782900000092
:10544000656D5F626C655F72616C5F696E666F5FF0
:105450006C6F63616C5F7270615F76616C69645FD1
:10546000676574662872616C5F6964782900000062
:10547000FCCF0201C0D0020104068000841380002A
:10548000100680000249014808607047D54B0201B0
:10549000140680002DE9F0470746884616469946CF
:1054A0000025300A01240C2809D20D4A52F8201098
:1054B00029B191F85010C943890702D0002414B1D2
:1054C0000BE00124FBE700F021F830B94B463246EF
:1054D000414638461CF4F8D105462846BDE8F08719
:1054E00038128000034A52F82000B0F87800088093
:1054F00000207047B4138000034951F8200090F851
:10550000940000F001007047B4138000044951F882
:105510002000002801D000207047012070470000C3
:10552000B4138000034951F82000002180F8561080
:1055300070470000B413800070B51E4951F8204038
:10554000B4F88600002826D01B48B0F8E410B4F860
:105550008A201A4BA06F1A4DB3FBF0F3EB1A1144DB
:10556000B3FBF1F56D1EE16F814205D840F23522A3
:1055700014A118A0E3F716DAD4E91E10B0FBF1F17C
:10558000491E8D4200D30D46B4F88600854200D2F4
:105590002846A4F88600B4F88600B0F5FA7F07D351
:1055A000BDE8704040F23D2206A114A0E3F7FA994D
:1055B00070BD0000B41380007412800000730A00F4
:1055C00020A107006C6C645F636F6E5F7061746331
:1055D000682E6300636F6E5F7061722D3E74696D3B
:1055E000656F7574203E20636F6E5F7061722D3E33
:1055F000696E74657276616C00000000636F6E5FA7
:105600007061722D3E6C6174656E6379203C3D2043
:10561000434F4E5F4C4154454E43595F4D415800F6
:105620002DE9F04707468846164699460025300A78
:1056300001240C2809D20D4A52F8201029B191F802
:105640005010C943890702D0002414B10BE0012493
:10565000FBE7FFF75BFF30B94B4632464146384621
:1056600020F49ED305462846BDE8F0873812800016
:105670002DE9F04106460F46154698460024280AB3
:10568000FFF744FF30B943462A463946304620F4F6
:10569000EDD304462046BDE8F081000007495A20BA
:1056A0000870084906480860084907480860094921
:1056B0000748086009490848086070471E068000CE
:1056C0007554800030068000E156020134068000E7
:1056D00035598000240680001D57020128068000ED
:1056E00070B50446204621F4F9D10546084804EB7C
:1056F000440100EB81020023537000F821309360D5
:10570000044850F8240008B10349C161284670BD1F
:105710009C9F8100B4138000435980002DE9FE4F07
:105720009D4951F820409D4890F83000FF2808D04E
:105730004FF03042516EC30008209840814301432E
:105740005166206C38B9E06A206420B1C088C0F38B
:105750000900A4F89200256C94F89400C00607D5BF
:1057600035B1B4F8920008B9286808B1012700E003
:105770000027A66A56EA070025D094F8A980B8F158
:10578000020F78D1A534E078401C0221B0FBF1F281
:1057900001FB12012078C0EBC0000844C0B2C0EB8E
:1057A000C00041007E480844B0F8E418C90B002945
:1057B00009D17C4909780029FAD1B0F8E61841F0FE
:1057C0001001A0F8E618D8E046B1B079B6F804B0F8
:1057D0004FF003090021A162002630E0002F7CD0A9
:1057E000B4F8920040B9286830B105462064E888D2
:1057F000C0F30900A4F89200E988A888C1F309025F
:105800000244B4F89200121A1FFA82FBC1F301326B
:10581000012A02D04FF0020901E04FF0010994F88B
:10582000A320904200D3104680B221F4405141F4AD
:105830008051E980B4F89210091AA4F892109434B7
:10584000617CC1EBC107217D7A18D3B2491C0222C9
:10585000B1FBF2FC02FB1C113944C9B2029134F8CD
:105860009419CA0608D53DB1B4F892200AB92A683D
:1058700012B1012701E07CE000274A0601D5001D96
:1058800080B2484A1278012A05D0890406D42FB183
:105890004FF0010A04E04FF0000A01E04FF0000A67
:1058A000C0B2CDE900306FF0100010EA0A1F04D03A
:1058B00090223D493D48E3F775D85FEA990004D04E
:1058C000932239493A48E3F76DD80198000240EA3B
:1058D0000A1141EA0901009800E04EE0304AC0EBAD
:1058E000C00002EB4000A0F8E618A0F8E8B8B4F851
:1058F0009410890411D40299C1EBC10102EB41015A
:10590000B1F8E428D20B42B9264A12782AB9B1F884
:10591000E62842F01002A1F8E628B0F8E41821F4D5
:105920000041A0F8E41814F8A80F401C0221B0FBB5
:10593000F1F201FB120020706078401CC0B2607070
:10594000A83C1649497DFF290FD04FF0304CDCF8B8
:1059500064204FF03009C90009FA01F309EA001088
:105960009A4388400243CCF8642008F1010808F00B
:10597000FF08B8F1020FFFF427AF084890F8300095
:10598000FF2807D04FF03042516EC30008209840E6
:1059900081435166BDE8FE8FB41380000808800083
:1059A000008000B01448800098CF0201FCCD0201B5
:1059B00034CE020170B5074D00EB400405EB8400C6
:1059C0000126467005F824108280C38002480170C9
:1059D00070BD00009C9F8100144880002DE9F041BB
:1059E00005460E461746984600F010F818B1064CCA
:1059F000012084F81E0343463A4631462846BDE856
:105A0000F04122F44D910000A41480000148407838
:105A100070470000BE4B80002DE9F0478CB08146F6
:105A20000C4617469A4600264FEA1728A18803A875
:105A30002222304B1944EFF7EAFE9DF80C50202D3E
:105A400002D0212D18D044E09DF80D109DF80E00D5
:105A50009DF80F2040EA02229DF810009DF81130B9
:105A600040EA03234046FFF7A5FFA088E3F734D8B8
:105A700000200CB0BDE8F0879DF80D009DF80E10D9
:105A800040EA01219DF80F009DF8102040EA022213
:105A90009DF811009DF814309DF8125040EA036300
:105AA0009DF81300000440EA052003439DF815000B
:105AB0009DF8165040EA05209DF817509DF818C033
:105AC00045EA0C2C0C4D2D681DB1CDE9000C40466B
:105AD000A8474046FFF71AFD48B94046F7F786FB4E
:105AE00053463A462146484623F4C0D70646304638
:105AF000BFE70000008000B0104880002DE9F041B1
:105B000006460F46154698460024280AFFF7FEFC75
:105B100030B943462A463946304624F4BBD00446C1
:105B20002046BDE8F08100002DE9F0470746884691
:105B3000164699460025300A01240C2809D20D4A40
:105B400052F8201029B191F85010C943890702D0AA
:105B5000002414B10BE00124FBE7FFF7D7FC30B9B8
:105B60004B4632464146384625F488D505462846F8
:105B7000BDE8F087381280000D4951F82010B1F8C7
:105B80007C1011F00C0F12D1C906C0EBC00001D57A
:105B9000C0B201E0401CC0B20649C0EBC00001EB3E
:105BA0004000B0F8E808002801D0E2F79B9F70475A
:105BB00084138000008000B010B5002000F002F8CF
:105BC000002010BD2DE9F84F07464FF00008C146F0
:105BD00025F4A4D5824600200090724D6C1F1AF463
:105BE000CFD1034600200126C0F3C70100F0070211
:105BF00014F801C02CFA02FC5FEACC7C1FD0DFF85D
:105C0000A8C19CF8ABC4BCF1000F38D053F820C039
:105C1000AAEB0C0C2CF0704CBCF5C85F18D203EB4F
:105C2000000C9CF994C01CF1020F28DC15F801C08F
:105C300006FA02F22CEA020C05F801C01FE015F882
:105C400001C006FA02F22CEA020C05F801C016E0C7
:105C500003EB000B4FF0000C8BF894C053F820C0FE
:105C6000AAEB0C0C2CF0704CBCF5FA4F07D915F8C8
:105C700001C006FA02F24CEA020C05F801C0401C11
:105C80002528B1DB0020494A295C135C19402954BE
:105C9000401C0528F8DB2846E2F726DF0246022AE8
:105CA0001AD20020C0F3C70100F0070314F801C0A6
:105CB0002CFA03FC5FEACC7C0BD015F801C006FA85
:105CC00003F34CEA030C05F801C0521CD2B2022ABD
:105CD00002D2401C2528E5DB28461BF4C5D500244C
:105CE000DFF8CCB0304800EB841A9AF84400092859
:105CF0002ED19AF8300058BB1BF80400401C0BF85A
:105D00000400E0B21FF454D1052800D2EFB1694677
:105D10002046FFF7E7FB1BF804004FF47A6110FB05
:105D200001F1BDF80000800800EB80008008B1FBA5
:105D3000F0F0252809D906EB042081B200220220C8
:105D40000AF498D200200BF804000FB94FF00109B3
:105D50009AF844000C2802D0142805D006E0E0B2DE
:105D6000294623F4F9D701E04FF00108641C0C2CFC
:105D7000B8DBB8F1000F04D00221002208460AF473
:105D800079D2B9F1000F07D04FF4C8720021042076
:105D90000AF40ED6BDE8F88F0349002081F81E03EF
:105DA000F8E70000BD178000A41480002C48800094
:105DB0002CA0810070B50E461D46002300210C4822
:105DC00014C811E032F83100A8420CD1042000EBD5
:105DD000C100105850B1F7F7DDF9024629463046A8
:105DE0009047034602E0491C8C42EBD8184670BD30
:105DF0009802800070B501200021114A114E54789C
:105E000006EB811393F84420022A01D0032A04D11F
:105E10009D68ED7C0DB1002070BD072A04D11CB136
:105E2000022C01D0002070BD052A04D19A68127896
:105E30000AB1002070BD491CC9B20C29E0D370BD65
:105E400092068000A414800070B5FBF711FC044694
:105E5000601C24D0FBF7DEFB00EE100A9FED131A46
:105E6000F8EE400A00EE104AB8EE400A20EE011AA1
:105E700081EE200A10EE100A05F0D2FF0C4A53689A
:105E800083B1D3E90463D2E90454721B63EB0403C6
:105E9000141A73EB010401D21046194670BD00209C
:105EA000014670BD0020014670BD00000024744909
:105EB000009680002DE9F04105462DED028B82B061
:105EC0000E460024FBF7A6FB05F015FC41EC180B71
:105ED0002846314605F022FC53EC182B05F0A0FCB7
:105EE0009FED1E1B53EC112B05F014FA9FED1D1BAB
:105EF00053EC112B05F05AF905F0D0FB01460120B7
:105F0000FBF77AFB194D1FE019A003C8CDE900018A
:105F10001948006800F007001DF80060174807687E
:105F2000D5F8008038464146FAF764FC686869682D
:105F3000091AB142FBD341463846FAF73BFC2046EA
:105F4000641CB0F57A7F03D2FBF7A0FB0028DBD0FE
:105F500002B0BDEC028BBDE8F08100000000000043
:105F600080842E41000000000000E03F001000E0AF
:105F7000403010181020000004C500A0FCED00E027
:105F80002DE9FC410024FBF787FB144D1FE014486A
:105F900003C8CDE900011348006800F007001DF8B0
:105FA000006011480768D5F8008038464146FAF786
:105FB00021FC6A686868831AB342FBD341463846BD
:105FC000FAF7F8FB2046641CB0F57A7F03D2FBF7A2
:105FD0005DFB0028DBD1BDE8FC810000001000E083
:105FE000705F020104C500A0FCED00E01CB5F3F7F2
:105FF00062F908490848F5F70DFD002000900346B6
:106000000190802205A1084804F06AFE04F038FAE5
:10601000FEE70000C4468000E1AF010163726561E4
:1060200074655F7461736B00C5A1020110B5F9F767
:10603000A3FB10B104F0DEFAFEE7BDE81040EEF776
:10604000FFBF10B54FF0FF342046E0F7C6DE204614
:10605000BDE81040E0F7E39E7CB504460D46002005
:1060600001900090694601A84FF4C0D64FF414D7B0
:1060700005FB00F11CB90098441A04F18074204615
:10608000FAF772FC08B100207CBD09207CBD00003D
:1060900070B588B00546012027490978002921D02C
:1060A00007A92846F7F714F8002843D000260696DB
:1060B000A0F10804022206A92046F6F74BFC80B2A4
:1060C000022811D01D488169407A40F20722CDE9AB
:1060D000002002911A4B1BA24FF400410020E2F76E
:1060E00067DC092008B070BD082204A92046F6F735
:1060F00017FC204C606878B1BDF812004FF45CD3F7
:10610000BDF81220616808301144084460602846D8
:1061100003F01AFD0020E5E7207A6060BDF8120068
:106120004FF44AD3BDF812206168114408446060FE
:106130002672ECE70220D5E7C8238000641F8000A8
:10614000A0C30201523A353A25732C204C25642015
:10615000666C6173682073746174652030782530D3
:1061600032582C206572726F722030782530385882
:106170000D0A0000D83280002DE9FF5F07460D466A
:1061800016464A48007800280CD03DB12C882CB126
:1061900026B11FB14FF6FF7A574505D1052004B04F
:1061A000BDE8F09F0120FAE74FF00009A5F8009044
:1061B00003A93846F6F78CFF80465FEA08001FD037
:1061C000BDF80C20944219D33146FAF71BFC8346E4
:1061D0000924082201A9A8F10800F6F7A1FB082864
:1061E0000FD101A804F0D8F958B1314601A804F044
:1061F000DEF930B1A5F800B0002402E0042400E08C
:106200000224022C50D1CDF80490CDF80890CDF89E
:1062100000906FF44040381802D0B02844D134E0E8
:1062200001A803F0F3F878BB9DF8040070B99DF85D
:10623000051059B99DF8061041B99DF8071029B904
:106240009DF8081011B99DF80910E9B1FF2813D184
:106250009DF80500FF280FD19DF80600FF280BD1FF
:106260009DF80700FF2807D19DF80800FF2803D1FB
:106270009DF80900FF2817D001983060BDF808008C
:10628000B0800620288000240EE0684603F0AEF8B7
:1062900050B9BDF8000038B1504505D0BDF8000038
:1062A0003080022028800024204678E7C823800020
:1062B00070B588B005460C46002C0AD006A907A880
:1062C0004FF494D52C4E8DB1280504D0062008B08B
:1062D00070BD0720FBE7069805EB043100F18070E4
:1062E000814201D8356008E00620F0E70699604257
:1062F00001EB003000F1807030604FF49E711F4858
:10630000EFF71EFB1E4D0020287030681D4900EB82
:10631000043008604FF476D51B490870082204A9A0
:106320003068F6F7FDFA082810D018488169407ADD
:106330004FF48972CDE900200291154B15A24FF45C
:1063400000410020E2F734DB0920C0E708221D49A4
:1063500004A8EFF711FA28B12046FCF775FC0028D5
:10636000B5D104E02046FCF7EFFC0028AFD10120B6
:1063700028700020ABE70000CC238000D8328000DA
:10638000C8238000D0238000C9238000641F8000C0
:1063900096C30201523A353A25732C204C256420CD
:1063A000666C617368207374617465203078253081
:1063B00032582C206572726F722030782530385830
:1063C0000D0A0000ACD5070010B5054C0121204690
:1063D000FFF742FE2046BDE810400121FFF768BFED
:1063E00000F007012DE9FE4306460C461746F4F778
:1063F000B0FD2C48007878B37FB374B340F6EC70EE
:1064000084422BD84EB3A6F57F40FF3826D002A990
:106410003046F6F75DFE0546002D3DD00822694660
:10642000A5F10800F6F77CFA684604F0B5F8C8B1A3
:10643000BDF808004FF40048A04221D13A46214659
:106440002846FCF72FFE78B117A241460020E2F75C
:10645000AFDA0020BDE8FE8302E0FFE70520F9E7A0
:106460000120F7E70920F5E716A241460020E2F7F0
:106470009FDA3B4622463146284601F07FFCE9E799
:106480001BA241460020E2F793DA3B462246314602
:10649000284601F073FCDDE73A4621463046F3F723
:1064A0008BFCD7E7C8238000523A353A6E76647386
:1064B0005F70757428292073616D65206461746153
:1064C0000D0A0000523A353A6E7664735F70757447
:1064D0002829207265706C61636520646174612095
:1064E000776974682073616D65206C656E0D0A00B4
:1064F000523A353A6E7664735F707574282920724B
:1065000065706C616365206461746120776974688B
:106510002064696666206C656E0D0A0010B5012165
:106520000348FFF7C5FE002801D0FFF74DFF10BD5F
:1065300000F0070100281ED0028800F10801B2F522
:10654000806F0CD0A2F58062013A0BD0022A0CD0E9
:10655000032A10D1428A018A007900F00DB800792F
:1065600000F0BCB8007900F01BB983780A460079C6
:10657000194600F09FB87047FEB505460E46144612
:10658000204600F0B2FC002819D0164F164B092205
:10659000B98D304600F08FFC394601EB45060328E3
:1065A0000ED008280BD1396841B18DF80150022C6A
:1065B00015D004208DF80000684688473483FEBD5E
:1065C000396841B18DF80150012C06D002208DF8B8
:1065D000000068468847B480FEBD0120F7E703202D
:1065E000E8E700008CC38000CC4580000EB58DF834
:1065F000010000208DF800000846FDF75CF808490E
:10660000884202D107208DF8000006480168002961
:1066100005D09DF80000002801D0684688470EBDCF
:10662000444F4F478CC38000017801290AD00F4A9C
:10663000052909D0062916D0072916D19069002806
:1066400013D0004748F48A959378D1785B1E19429D
:1066500003D10189406848F46B940221517001898B
:106660004068F6F719BD48F4779470478C45800070
:10667000FEB504460D4616461A200C4901EB4402AD
:106680009288012A10D100208DF80000898D084AD7
:10669000022000F0F5FBADF80200ADF804600295B1
:1066A00069462046F4F787FEFEBD00008CC38000DB
:1066B000CC4580000EB5084B1B68002B0BD08DF825
:1066C0000100002907D11078002804D106208DF898
:1066D0000000684698470EBD8CC380003EB5054655
:1066E0000C781448144B0922818D204600F0E3FBFE
:1066F000ADF8004000228DF804200E49022301EB82
:10670000450103280BD008280ED0ADF80220012047
:106710008DF8040069462846F4F780FE3EBDADF8CA
:106720000230091D0291F5E7ADF8023018310291EF
:10673000F0E700008CC38000CC45800070B50028D5
:1067400023D0134C0068206004F130002C21054652
:10675000EFF7F6F80020A08504F12C0121630D4825
:1067600060630D48A063092084F83C00402084F851
:106770005A00012084F85B00064810302064284647
:10678000BDE870400549F4F725BE022070BD000049
:106790008CC38000E8BF0201CC4580003565020152
:1067A0002DE9FF4105460C4626782E4F2E4B092237
:1067B000B98D304600F07FFBADF80C6000218DF8FC
:1067C0000E10394601EB450603281ED005280CD0D3
:1067D000072840D008282BD001208DF80E0003A9EF
:1067E0002846F4F779FEBDE8FF8139680029F6D024
:1067F0008DF8015005208DF80000A0680190A08858
:10680000ADF8080068468847E9E7A068FCF74EFF46
:106810000446396841B18DF80150012C06D00220A0
:106820008DF8000068468847B480D8E70120F7E774
:10683000A068FCF73BFF0446396841B18DF8015070
:10684000022C06D004208DF8000068468847348367
:10685000C5E70320F7E7A2882846A168FFF7C6FE30
:10686000BDE700008CC38000CC4580002DE9F041DD
:1068700004460D4616461F4602F060FF384601F0FA
:10688000A5FD3146284600F0C9F9284600F024FA53
:1068900000F014F80648074910F82420486962F30C
:1068A000030064F34710486103480470BDE8F081B9
:1068B000A4BE0201101F8000304B800010B5E0F72D
:1068C000D6D80128FBD0BDE810401320E0F7C698C9
:1068D00010B50549EB20086104490968C860034800
:1068E000E0F7EBD910BD0000101F8000641F80008E
:1068F00001460148E0F7749C641F80002DE9FC41CB
:106900004F4C2068000602D4206840061FD520683E
:1069100020F480502060206820F40060206020680F
:1069200040F040002060206840F4807020602068C3
:1069300020F040002060206840F080002060206847
:1069400040F400702060206820F0800020603C4807
:1069500040300168C1F3801121B13A490A7842F010
:1069600004020A70384901600020012341B2002965
:1069700009DB01F01F0503FA05F24909890001F15D
:10698000E021C1F88022401CC0B22228EED30020B2
:1069900003F038FE00252846F5F7FEF801462846A4
:1069A000F5F704F900F06EF8FFF74BFBFFF7B6FDC3
:1069B000642000F0B9F900234FF4FA72012118465F
:1069C000FFF754FF214854F4E9D6214849F488D40C
:1069D00000F0D6F847F2305002F050FF02F066FFA8
:1069E0000020F0F749FB002002F066FF002000F0D5
:1069F000B7F918A003C8CDE90001206800F007002E
:106A00001DF800501548454315480668154C276881
:106A100030463946F9F7EEFE60686168091AA94206
:106A2000FBD339463046F9F7C5FEDFF7BDDB01F091
:106A3000E1FDF6F7ABF9BDE8FC4100F015B8000048
:106A400004C500A000418000A0FEFFFFE04C8000D4
:106A500035D201014030101810200000A08601003E
:106A6000FCED00E0001000E00548016821F08071B5
:106A7000016003496FF0400014390860704700005E
:106A800058C500A04FF47A700F4A116821F0807148
:106A900011604FF4C0310C4B38331960116841F06C
:106AA00000711160084B6FF04001143B1960002128
:106AB000136861F3DF631360401E411CFCD1106852
:106AC00040F080701060704758C500A02DE9F0417B
:106AD00000242A4EDFF8A080274F08F17C0806F139
:106AE00058053868C0F30170012833D004EB8400E6
:106AF0007179B37905EB8000194401EBC103C268D9
:106B000003EB011102EB8102C260026902EB410159
:106B10000161D8F80000C00616D547F6122055F4DA
:106B20007FD104EB840005EB80004FF47A610161B2
:106B30004900C16002218171418801F57A7141806B
:106B4000818801F57A718180641CE4B20C2CC8D371
:106B5000BDE8F08104EB840005EB80007179B37926
:106B6000C2681944C1EB411102EB4102C2600269E3
:106B700011440161CDE7000050C500A0E449800048
:106B800008B51C49192002F0B9FB02F005FF0220EC
:106B900049F44AD3F5F7BAFBFFF753FA17491648F9
:106BA00088621748C8621749086002F0E5FDFFF7E0
:106BB0008DFF49F49BD3144801781048583051F4A4
:106BC000A1D7002049F45CD310494FF47A700880B3
:106BD00010490F480860002000906A4601214CF2DD
:106BE0001500FFF7FFFBF5F7EFFCBDE808400A488A
:106BF00052F4D697D1370600AD7D8000E44980007D
