:020000040100F9
:1020000000008400352300013D230001894B80003E
:10201000E33F0001E13F0001E54000010000000056
:10202000000000000000000000000000314D8000B2
:1020300047230001000000009D220001E93F00014C
:1020400000F002F800F0C4F80AA090E8000C824406
:102050008344AAF10107DA4501D100F0B9F8AFF2E3
:10206000090EBAE80F0013F0010F18BFFB1A43F076
:102070000103184788470100D84701000A444FF080
:10208000000C10F8013B13F0070408BF10F8014BD7
:102090001D1108BF10F8015B641E05D010F8016B1C
:1020A000641E01F8016BF9D113F0080F1EBF10F880
:1020B000014BAD1C0C1B09D16D1E58BF01F801CBA3
:1020C000FAD505E014F8016B01F8016B6D1EF9D526
:1020D0009142D6D370470000103A24BF78C878C127
:1020E000FAD8520724BF30C830C144BF04680C601E
:1020F000704700000023002400250026103A28BF66
:1021000078C1FBD8520728BF30C148BF0B60704769
:102110006E2900F0BA84702900F04182662913F01C
:102120006B81652913F06881672913F06581612946
:1021300013F0648103681B0A28BF41F080016929FC
:1021400000F0B281642900F0AF81752900F0AC8104
:102150006F2900F0BA85782900F00D82E92900F096
:102160005585E42900F05285F52900F04F85EF29C7
:1021700000F0B785F82900F00C820368DB0928BF5E
:1021800041F08001632900F0C484732900F0C98400
:10219000E32901F08D81F32901F09281002070473D
:1021A0001FB513F0F5F800F0DEFA01F0B9F90400FC
:1021B0000020002112F002FB401C60600020002182
:1021C00012F0E6FAE06000F0E3FB1FBD10B510BDB1
:1021D000DFF80CD0FFF7E4FF0DF00CFC01F056FA2D
:1021E0000000840003B4FFF7F1FF03BC02F02FF8F6
:1021F00002F0FF0343EA032242EA024200F080BBFE
:1022000058585247010000001555000000200001F9
:10221000002000016EED52490101000000000000A5
:1022200000000000000000000000000000000000AE
:10223000000000000000000000000000000000009E
:102240002C4B19680868B0E8F04F80F30988BFF399
:102250006F8F4FF0000080F311887047000000007E
:1022600008480068006880F308884FF0000080F399
:10227000148862B661B6BFF34F8FBFF36F8F00DF74
:1022800000BF00BF08ED00E0DFF80C00016841F47A
:1022900070010160704700BF88ED00E0EFF3098036
:1022A000BFF36F8F134B1A681EF0100F08BF20ED9D
:1022B000108A20E9F04F106009B44FF0300080F32D
:1022C0001188BFF34F8FBFF36F8F11F0A7FC4FF052
:1022D000000080F3118809BC19680868B0E8F04F65
:1022E0001EF0100F08BFB0EC108A80F30988BFF30E
:1022F0006F8F704734468000EFF305807047000011
:102300000B49D1F800C04A685CF8043B10681844D7
:1023100042F8040B8C4528BFA1F1DC0C8A4228BF8F
:10232000A1F1DC02C1F800C04A6020F00040704713
:102330005C8281000648804706480047FEE7FEE7CA
:10234000FEE7FEE7FEE7FEE7FEE7FEE7FEE700004A
:10235000B540000135FA00017CB51D4616460C005B
:10236000009001D02044401E074B7B442A4669461A
:102370000190304600F0A3FB05461CB100206946E1
:1023800000F0B0FB28467CBD810700000FB4044973
:1023900010B503AA029800F0C9FB10BC5DF814FB4D
:1023A000EC4380000FB41CB5084B06AA7B44694679
:1023B0000090059800F083FB04460020694600F079
:1023C00091FB20461CBC5DF814FB000035070000A3
:1023D0000FB47CB50C0009AA009001D02044401E27
:1023E000084B7B4469460190089800F068FB05465D
:1023F0001CB10020694600F075FB28467CBC5DF8E6
:1024000014FB00000907000070B5044685690068E8
:10241000C10601D5302600E02026C00707D070BDD8
:10242000D4E9012130469047206A401C20626D1E8D
:10243000F6D570BD70B5044685690078C00707D130
:1024400070BDD4E9012120209047206A401C206201
:102450006D1EF6D570BD70B50C460546012A05D037
:102460002878800600D5EA69002302E0012305E010
:102470005B1C934202D2E05C0028F9D1A869E618FF
:10248000C01AA861286A184428622846FFF7BCFFD2
:1024900004E0D5E9012114F8010B9047B442F8D3C8
:1024A0002846FFF7C7FF70BD2DE9F041064600241E
:1024B00010687529314616A510D000F07BFA002867
:1024C00002DA404213A507E031688A0701D512A558
:1024D00002E0490704D511A5012401E000F073FAD8
:1024E00000210A2206F1240709E0B0FBF2FCB0FB50
:1024F000F2F302FB1C00303078541846491C0028C7
:10250000F3D123462A463046BDE8F04100F064BAD4
:10251000000000002D0000002B0000002000000043
:10252000F0B40D460188090502D5214C7C4402E037
:102530001F4C7C440E34002100F1240608E002F018
:102540000F071209E75D42EA03721B097754491C21
:1025500052EA0307F3D102780023120704D5702D45
:1025600006D009B1022311342246F0BC00F034BA7F
:1025700001231034F8E770B504460D462146106873
:1025800000F021FA024629462046BDE870400023AB
:10259000C6E7D21D22F00703D3E90023C0E7036892
:1025A000126843F0200303600823C3610023B7E7E8
:1025B000003501002DE9F05F894604464FF0000A1E
:1025C000DFF874B1FB44C0F820A02046E1688847DA
:1025D000002874D0252806D0D4E901219047206A2C
:1025E000401C2062F1E700265F462046E1688847EC
:1025F0002028054607DB312D05D2781910F8200C6C
:1026000008B10643F1E7B00701D526F00406C4F887
:102610001CA00027C4F818A02A2D09D0284601F0D4
:102620000FFE38B304EB8708303DC8F8185019E0A6
:1026300059F8041B204604EB87029161E168884742
:10264000012F054618D1E069002820DA26F020067F
:102650001DE0D8F8180000EB800005EB4000303892
:10266000C8F818002046E1688847054601F0E8FDF3
:102670000028EED1012F0AD02E2D08D12046E16886
:1026800088477F1C0546022F46F02006C4DBA06960
:10269000002803DA404246F00106A061F00701D0AD
:1026A00026F010066C2D0BD0682D09D04C2D39D09A
:1026B0006A2D35D0742D35D07A2D33D016E038E020
:1026C000E1682F4620468847B842054609D16C2F5D
:1026D00026D04FF48060E1680643204688470546CF
:1026E00004E06C2F1AD04FF4807006430DB3A5F1AF
:1026F0004100192802D8203546F400664A4629468A
:10270000204626604E46FFF703FD80B101280BD01E
:10271000F61D26F0070000F1080956E74020E4E71F
:102720008020D8E70020D6E706F104094DE72846C7
:1027300052E7206ABDE8F09F903401000B4910B5C4
:10274000A1F17C020A4CC2E93712372106E000EB06
:10275000104342F82130074B00FB03400B1EA1F150
:102760000101F4DC10BD0120E8E70000FC818100DC
:10277000E119D666CD0D010040EA010310B59B07B3
:102780000FD1042A0DD310C808C9121F9C42F8D0DB
:1027900020BA19BA884201D9012010BD4FF0FF308C
:1027A00010BD1AB1D30703D0521C07E0002010BDA2
:1027B00010F8013B11F8014B1B1B07D110F8013B2E
:1027C00011F8014B1B1B01D1921EF1D1184610BD0F
:1027D00010B5431C02E010F8011B71B18107FAD15A
:1027E0004FF0013202C88C1A8C4314EAC211F9D09E
:1027F000C01A0A0603D0C01E10BDC01A10BD0A04BC
:1028000001D0801E10BD0902FCD0401E10BD032A5D
:1028100040F2308010F0030C00F0158011F8013BFD
:10282000BCF1020F624498BF11F801CB00F8013BE4
:1028300038BF11F8013BA2F1040298BF00F801CBA8
:1028400038BF00F8013B11F0030300F02580083A7F
:10285000C0F0088051F8043B083A51F804CBA0E8D6
:102860000810F5E7121D5CBF51F8043B40F8043B2B
:10287000AFF30080D20724BF11F8013B11F801CB60
:1028800048BF11F8012B24BF00F8013B00F801CB31
:1028900048BF00F8012B704710B5203AC0F00B80FC
:1028A000B1E81850203AA0E81850B1E81850A0E854
:1028B0001850BFF4F5AF5FEA027C24BFB1E81850AE
:1028C000A0E8185044BF18C918C0BDE810405FEA1E
:1028D000827C24BF51F8043B40F8043B08BF70479A
:1028E000D20728BF31F8023B48BF11F8012B28BF9F
:1028F00020F8023B48BF00F8012B70474FF0000260
:102900000429C0F0128010F0030C00F01B80CCF101
:10291000040CBCF1020F18BF00F8012BA8BF20F86F
:10292000022BA1EB0C0100F00DB85FEAC17C24BFC3
:1029300000F8012B00F8012B48BF00F8012B70476D
:102940004FF0000200B5134694469646203922BF48
:10295000A0E80C50A0E80C50B1F12001BFF4F7AF93
:10296000090728BFA0E80C5048BF0CC05DF804EB75
:10297000890028BF40F8042B08BF704748BF20F8E3
:10298000022B11F0804F18BF00F8012B7047000098
:1029900070B5064C7C44064D7D4403E0206820441D
:1029A0008047241DAC42F9D170BD0000E03F01001A
:1029B000E03F010009684A0501D540B27047C905EA
:1029C000FCD500B2704709684A0501D5C0B270470E
:1029D000C905FCD580B270472DE9F0470D469946F0
:1029E0009246044600F124080168880604D5E0698F
:1029F00021F01001216000E00120A84201DD471B09
:102A000000E00027A1697A1902EB0900081AA06109
:102A10002078C00602D42046FFF7F6FC002608E026
:102A2000D4E901211AF806009047206A401C761C60
:102A300020624E45F4DB2078C0060AD52046FFF719
:102A4000E3FC06E0D4E9012130209047206A401CD5
:102A50002062381EA7F10107F4DC07E0D4E9012168
:102A600018F805009047206A401C2062281EA5F136
:102A70000105F3DC2046FFF7DDFC2078000602D5D7
:102A80000220BDE8F0870120FBE711680268006AB8
:102A9000530501D508700AE0D30501D5088006E08A
:102AA000130603D5C217C1E9000200E00860012047
:102AB0007047000001694A1C02610878704700B540
:102AC0008FB0CDE901310021059105497944CDE967
:102AD000031011466846FFF76DFD0FB000BD000002
:102AE000E5FFFFFF0A6802F8010B0A607047D1E9B1
:102AF00000239A4202D2531C0B601070704710B52D
:102B0000436913B1AFF3008001E0FFF7A4FC01209B
:102B100010BD127800F124010A7000224A700122CF
:102B2000EDE711684FF0FF32E9E70000074B70B5A1
:102B30000D467B44FFF7C3FF0446284600F0C4FC63
:102B400010B14FF0FF3070BD204670BDC35E000075
:102B50002DE9FF5F15468A460446DFF8AC80F8444D
:102B60000027D8E900103E46CDE9001010E03AF801
:102B700016106A4602A800F0ABFC411C07D0217871
:102B8000890603D5E269391891420DD80744761CAD
:102B90002078800602D5E069B84205DDAE42E6DB6A
:102BA0003AF816000028E2D1A069C01BA0612046B7
:102BB000FFF72AFCD8E90010CDE90010002017E04B
:102BC0003AF818106A4602A800F082FCB0F1FF3F04
:102BD00081460BD000250DF1080B05E0D4E9012159
:102BE0001BF8050090476D1C4D45F7D308F1010017
:102BF000B0428046E4DB206A384420622046FFF77A
:102C000019FCBDE8FF9F00000A2F01002DE9F041EB
:102C10008046D21D22F007020025D2E90002F529E4
:102C200015A614D0011E72F1000106DA0023D0EBC4
:102C3000030063EB020211A608E0D8F800108B072E
:102C400001D50FA602E0490701D50EA601251146C0
:102C5000002408F1240704E000F04EF830323A5521
:102C6000641C50EA0102F7D12B4632462146404609
:102C7000BDE8F041FFF7B0BE000000002D000000ED
:102C80002B0000002000000030B4002100F12404DB
:102C900008E002F00705D208303542EA4372DB084B
:102CA0006554491C52EA0305F3D10468002310A2BD
:102CB000250707D5A40600D421B1C46901230DA2BC
:102CC000641EC46130BCFFF787BE10B504462146C0
:102CD0001068FFF778FE02462046BDE8104000234A
:102CE000D2E7D21D22F00701D1E90023CCE7000092
:102CF000000000003000000030B5B0F10A024FEAD9
:102D0000900E71F100034EEA817EB0EB0E0061EB94
:102D100091014FEA101E4EEA017E10EB0E0041EBCE
:102D200011114FEA102E4EEA016E10EB0E0041EB2E
:102D300011214FEA104E4EEA014E10EB0E0041EB0E
:102D40001141401841F100014FEAD00040EA4170C2
:102D50004FEAD10110EB80054FEA810444EA9074F8
:102D600044EB01046D1944EB0404521BA3414FF0E2
:102D7000000348BF0A3200D530BD401C41F10001BC
:102D800030BD70472DE9FF4F0C461E464FF0FF3710
:102D90008BB0D2E90001DDF860800A908A46C1F369
:102DA0000A5505B93D46002108464FF00000BAF12A
:102DB000000F00F4400005DA00EB80004FF4400102
:102DC00001EA50004FEA9059B9F1010F00DDB94610
:102DD0000A9850EA4A000ED044F61050A5F2FF358A
:102DE00045432F14B8F1000F1ED07542291E1EDD79
:102DF000C9F100021CE0B8F1010F4FF0000001D052
:102E0000302103E0F24305E02154401CB042FBDBDB
:102E100030460022002121540B99C1F80880C1E9F5
:102E200000200FB0BDE8F08FBD1B6D1CDEE74A46E9
:102E300000DA694206A800F0B7FB06AB93E807008A
:102E400003AB83E8070050460A9900F069FC8DE85F
:102E50000700A0F500501F3800900398002D0ADDF0
:102E600042F21F014A460844002303A90390684622
:102E700000F0D2FE09E0A0F500504A461F380023BA
:102E800003A90390684600F0DCFE8DE8070000040B
:102E9000000C03D04FF0FF30410800E01046B8F1BD
:102EA000000F03D00022009215461EE0751E05D4C7
:102EB000FFF722FF303262556D1EF9D5B34601226D
:102EC000084302D000227F1C04E02078302801D182
:102ED00000227F1E002A099784D01DE0112D07DAF9
:102EE000FFF70AFF303262556D1C50EA0102F5D13E
:102EF000084302D00098C8B10EE00021681E05E02A
:102F0000235C625C63542254401E491C8142F7DBFF
:102F1000AB46A81B401E0990002004F80B000B983C
:102F2000099AC0F80880C0E9002B7AE711264FF013
:102F3000000857E72DE9F04F88460446D21D22F0DD
:102F4000070191B0D1E90001CDE90A0101F0CBF808
:102F500002460B98C00F01D02D2007E020688107A2
:102F600001D52B2002E0202101EAC000032A0990AC
:102F700001D0072A05DB03464146204600F0D4FA7B
:102F80000BE12078800601D5E06900E00620B8F169
:102F9000650F814606D0B8F1660F18D0B8F1670FFB
:102FA00070D131E00020B9F1110F009001DB112345
:102FB00001E009F101030AAA01A90CA8FFF7E2FE4A
:102FC000DDE90C70002609F10105834647E0012088
:102FD0004B4600904FF000470AAA01A90CA8FFF742
:102FE000D1FEDDE90DB00C995D46002610B909F15E
:102FF00001000D18B9EB050003D4C0F1FF3609F14B
:103000000105A5EB09002BE0B9F1010F01DA4FF042
:1030100001090020B9F1110F0090484601DD11238C
:1030200000E003460AAA01A90CA8FFF7ABFEDDE900
:103030000C704D4600268346207800070AD4AB4525
:1030400000DA5D4601A8012D04DD411911F8011CCB
:10305000302907D04F4502DA17F1040F04DA0120B6
:1030600082460FE06D1EEEE7002F02DCED1B3E44B2
:1030700003E0781CA84200DD7D1CB81B00F1010AAA
:103080004FF000472078000703D4AA4501DB4FF03A
:10309000FF3A0021B7F1004F0DF143088DF84310BE
:1030A00024D002202B23002F01DA7F422D230A2176
:1030B000021EA0F1010000DC5FB197FBF1FC97FB61
:1030C000F1F201FB1C7C17460CF1300C08F801CD25
:1030D000EEE7A8F1010003702188090501D545211B
:1030E00000E06521A0F1010800F8011C09980FA972
:1030F000A1EB0807FF1D00B10120411901EBEA70A7
:10310000A1693844081A401EA0612078C00602D484
:103110002046FFF779F9099828B1D4E901219047B1
:10312000206A401C20622078C00622D52046FFF786
:103130006BF91EE0002E04DBB34502DD01A8805DC3
:1031400000E03020D4E901219047206A401C206231
:10315000761CAAF101005FEA000A0AD100F0E0F94A
:10316000C0680168405CD4E901219047206A401C96
:103170002062281EA5F10105DCDC07E0D4E901216D
:1031800018F8010B9047206A401C2062381EA7F1F6
:103190000107F3DC2046FFF74DF9032011B041E6AB
:1031A0002DE9F04F04460D46D21D22F0070089B0EC
:1031B000D0E900974846394600F095FF0246F80FDF
:1031C00001D02D2307E02068810701D52B2302E0E1
:1031D000202101EAC0038DF820300BB1012000E06E
:1031E0000020032A824601D0072A04DB2946204614
:1031F00000F09AF93FE12078800601D40D2500E027
:10320000E569C7F30A560D2D49DA00214FEA175B2D
:1032100008464FF00000002F00F4400007DA00EBF2
:1032200080004FF4400100EBD07001EA600081158E
:10323000012901DD4FF0FF3100224FEA850CBCF17E
:10324000180F06D31346ACF118004FF08052C2405D
:1032500003E04FF4801323FA0CF30CF10C0CBCF1D7
:10326000200F04D3ACF1200C09FA0CF001E007FAAE
:103270000CF000294FF0004801DD18B90FE00ED125
:1032800040450CD319EB02095F4121B9404502D1F9
:103290009F4329EA0209BBEB175F00D0761C208808
:1032A000000502D57B48784402E07A487844193812
:1032B00008AA302302F80A30037C0AF10101002E2B
:1032C0000AF1020A53546A4602DC4FF0300101E071
:1032D0004FF031014FF001088DF8001002D0A6F236
:1032E000FF3603E059EA470100D06B4E002D02DCA7
:1032F0002178090704D54FF002082E218DF801101E
:10330000C44600210BE0C7F303433F01C35C491CE3
:103310006D1E02F80830052908F1010801DA002DB8
:10332000F1DC00210CE000EB1973491C1B786D1EC9
:10333000082902F808304FEA091908F1010801DAF2
:10334000002DF0DC21688B0602D516E0A8F10108FB
:10335000E04505DD02EB080313F8013C302BF5D006
:10336000B8F1000F09DD02EB080313F8013C2E2B26
:1033700003D1090701D4A8F10108002D05DD3E2184
:1033800002F808106D1E08F10108407C002E02F8BA
:10339000080008F1010804DA2D20764202F808003E
:1033A00002E02B2002F808000A214FF47A708642CE
:1033B00008F101080BDB96FBF0F3303302F808301C
:1033C00096FBF0F308F1010800FB136601E0642EA0
:1033D0000CDB642096FBF0F3303302F8083096FBE8
:1033E000F0F308F1010800FB136601E00A2E06DB8A
:1033F00096FBF1F0303002F8080008F1010896FB66
:10340000F1F001FB1060303002F80800A16908F10A
:10341000010808EB050202EB0A00081AA0612078F7
:10342000C00602D42046FEF7EFFF216A08AE01EB8A
:103430000A00206204E0D4E9012116F8010B90474C
:10344000BAF1010AF7D22078C00602D52046FEF76D
:10345000DBFF6E4609E016F8010B3E280FD0D4E9D9
:1034600001219047206A401C2062B8F10108F2D285
:103470002046FEF7DFFF09B00320BDE8F08F206A89
:103480002844206203E0D4E90121302090476D1EDA
:10349000EBD3F8E7DD27010002FCFFFF10B543691D
:1034A00013B1AFF3008001E0FFF752FB012010BD24
:1034B000128800F1240182840022C2840122EDE7F7
:1034C00011684FF0FF32E9E7007B00F080007047A1
:1034D00070B516460C46054600F01AF8036893F8D6
:1034E0000101012806D0FF2C0FD8185D68B101201A
:1034F0002C7070BDD3F807013246214603F2071342
:1035000003442846BDE8704018474FF0FF3070BDB7
:1035100010B500F005F8001D10BD00BFA11201009C
:1035200000487047848281002DE9F0411F4604461F
:1035300003260168072A01F4006004DB08B116A520
:1035400005E016A503E008B115A500E015A521F0DA
:1035500010002060A069C01EA0610FB1401EA061D4
:103560002046FEF751FF4FB1D4E90121384690477C
:10357000206A401C2062C01C206206E0206AFAE734
:10358000D4E9012115F8010B9047761EF8D22046A8
:10359000FEF750FFBDE8F0814E414E006E616E00B7
:1035A000494E4600696E66002DE9F0478146164691
:1035B0008AB0354878440DC88DE80D00324878440B
:1035C000801C03AC0DC884E80D0041F69B30084414
:1035D000372190FBF1F290FBF1F5A5F1800501FB9D
:1035E00012041B3C02D56442012000E00020DFF8F9
:1035F00098A080460027FA44AAF1BE0A0EE0E00730
:103600000AD03246684607EB470101230AEB8101E5
:1036100000F017FB8DE8070064107F1C002CEED132
:10362000194F7F44AE3F19E0E80715D007EB0410AF
:103630000DF1180A90E80E008AE80E00C068F0420A
:1036400001D1981908903246012306A903A800F079
:10365000F8FA03AB83E807006D10641C002DE3D17A
:103660004FF0010332466946B8F1000F03A802D0BB
:1036700000F0D2FA01E000F0E4FAC9E90001C9F86B
:1036800008200AB0BDE8F0876025010010B50446A7
:10369000AFF300802046BDE81040FEF7A3BD000058
:1036A0004FF0013C50F8042B51F8043B9A4221D1D1
:1036B000A2EB0C03934313EACC1317D150F8042B5D
:1036C00051F8043B9A4215D1A2EB0C03934313EA41
:1036D000CC130BD150F8042B51F8043B9A4209D17A
:1036E000A2EB0C03934313EACC13DBD04FF00000A2
:1036F000704700BFD01A01BAB1FA81F101F0180188
:1037000022FA01F0CB40C1F12001DBB2C0B2C01AF5
:103710002CFA01F3D11A914311EAC311E6D1704793
:103720005FEA400C08BF91F0000F4FEA8C234FEA8C
:10373000C12243EA51514FEA1C5018BF00F5F04036
:103740004FEA300018BF41F000415FEA6C5C00F0C6
:103750002980BCF1FF3F08BF40F080407047130C48
:1037600006BF12044FF0100C4FF0000C130E04BFF4
:1037700012020CF1080C130F04BF12010CF1040C1F
:10378000930F04BF92000CF1020CD30F04BF520040
:103790000CF1010C11464FF00002A0F11F00A0EB4C
:1037A0000C00704711F0004F08BF704731F0004126
:1037B0003FF4D5AF0B0C06BF09044FF0100C4FF0CF
:1037C000000C0B0E04BF09020CF1080C0B0F04BF18
:1037D00009010CF1040C8B0F04BF89000CF1020CE1
:1037E000CB0F04BF49000CF1010CCCF12003A0EB7E
:1037F0000C0022FA03F302FA0CF241EA030100F191
:103800000100704720F07F4C80EA030023F07F47DF
:10381000ACEB070303F57C5300F0004003F1FF031A
:103820002DE980494FEA154B09B44FEA144325EAC4
:103830000B4E24EA03480FF2042606EB132749082F
:103840003E785FEA320203FB0667C7F5000707FB15
:1038500006F64FEA54374FEAD64606F1020607FB52
:10386000066CCCF1005C4FEA1C472CEA074C07FBC6
:1038700006F40CFB06F504EB15464FEA961634BF2A
:1038800000204FF000404FEAD13706FB07FC4FEA1B
:103890001C4C0CFB0BF7D21B03FB0CF761EB070175
:1038A0000CFB0EF7B0EB074072EB17420CFB08F76E
:1038B00034BFA2EB0742B2EB074261EB17414FEA7C
:1038C0000C444FEA910706FB07FC4FEA1C4C0CFB2B
:1038D0000BF7B0EBC74072EB573203FB0CF734BF6A
:1038E000A2EBC742B2EBC74261EB57310CFB0EF7BC
:1038F000B0EBC70072EB57720CFB08F734BFA2EBBA
:10390000C702B2EBC70261EB5771039F4FEA8161B7
:1039100041EA921104EBCC044FEAD1374FEA8262BC
:1039200006FB07FC42EA90124FEA80604FEA1C4C0B
:103930000CFB0BF7D21B03FB0CF761EB07010CFB35
:103940000EF7B0EB074072EB17420CFB08F734BFE1
:10395000A2EB0742B2EB074261EB17414FEA8C55ED
:103960004FEA910704EB9C2406FB07FC4FEA1C4C32
:103970000CFB0BF7B0EBC74072EB573203FB0CF7B5
:1039800034BFA2EBC742B2EBC74261EB57310CFB2D
:103990000EF7B0EBC70072EB57720CFB08F734BFA1
:1039A000A2EBC702B2EBC70261EB577115EB4C25D6
:1039B0004FEA816141EA92114FEA82624FEAD137C0
:1039C00042EA901206FB07FC44F100044FEA8060D3
:1039D0004FEA1C4C0CFB0BF7D21B03FB0CF761EB03
:1039E00007010CFB0EF7B0EB074072EB17420CFB24
:1039F00008F734BFA2EB0742B2EB074261EB174175
:103A000015EB1C154FEA813141EA92414FEA8232AF
:103A100042EA90424FEA80304FEA0C7644F10004CB
:103A200048EA03434EEA0B484FF0000EB2EB080C95
:103A300071EB030724BF624639464EEB0E0E4FF082
:103A4000000B0018524149414BEB0B0BB2EB080C39
:103A500071EB03077BF1000B24BF624639464EEB46
:103A60000E0E4FF0000B0018524149414BEB0B0B6F
:103A7000B2EB080C71EB03077BF1000B24BF62462D
:103A800039464EEB0E0E51EA020718BF46F001060A
:103A900016EB0E7655F1000254F1000103D5BDE896
:103AA0008901BDE80088BDE88901BDE80048B61974
:103AB000524141EB0101A3F10103704780807F7EF9
:103AC0007D7C7B7A79787776767574737271717094
:103AD0006F6E6E6D6C6C6B6A6A6968686766666546
:103AE0006464636362616160605F5F5E5E5D5D5CD4
:103AF0005C5B5B5A5A595958585757565655555545
:103B00005454535352525251515050504F4F4F4EA4
:103B10004E4D4D4D4C4C4C4B4B4B4A4A4A494949F2
:103B20004848484747474746464645454544444434
:103B3000444343434342424242414141002B9C465D
:103B400030D477002BD01CB54FEA370703B44FF0C1
:103B500010004FF01001BAF1000F06D0BCF1000FB9
:103B6000DCBF40F0080040F008014FF000000FBC3F
:103B7000BDE810400BF1010BBBF1010F08BF5FEA7C
:103B8000170722BF12F1010211F101014FF00041AC
:103B900043F1000300F0004043EA00007047F9D30E
:103BA0005708D0E746EA064613F1400F4FEA16469B
:103BB0001FDD13F1200FDFBF16430A46002120331B
:103BC0005B42BED0C3F1200746EA064602FA07F779
:103BD0004FEA164646EA0706C3F1200722FA03F227
:103BE00001FA07F721FA03F14FF0000342EA070256
:103BF000A7E746EA020646EA06464FEA164646EABE
:103C00000106BCBF46EA0646360C4FF000034FF0F3
:103C100000024FF0000194E72DE9804C9A4693464C
:103C200070B491E8380007C831EA400C48BF34EA64
:103C3000430C03D5FFF7E6FDFFF780FFF0BCBDE8BE
:103C4000008C2DE9804C9A46934670B491E8380078
:103C500007C810F0804F08BF13F0804F03D100F069
:103C600005F8FFF76BFFF0BCBDE8008C20F07F4744
:103C700080EA030023F07F4C07EB0C03A3F57C5391
:103C800000F00040A3F1FE0392F0000F00F0B380BB
:103C900095F0000F00F077802DE901494FEA1140BF
:103CA0004FEA144621EA004800FB06FC24EA0647D6
:103CB00008FB06F607FB08F800FB07F718EB0648B9
:103CC0004CEB164C4FEA124B18EB07484FEA1546DF
:103CD0004CEB174022EA0B4E0BFB06FC25EA06478D
:103CE0000EFB06F607FB0EFE0BFB07F71EEB064E60
:103CF0004CEB164C4FF000061EEB074E4CEB174BEF
:103D000018EB0B0840F1000018EB0E0B58EB000805
:103D100040F100008F1A4FF000013CBFC943661B01
:103D200014BFB5EB040C00213CBFC943F61B4FEA9E
:103D300017444EEA8E0E27EA04454FEA1C4704FB5F
:103D400007622CEA074C05FB07F70CFB05F604FBA2
:103D50000CFC16EB074642EB174216EB0C4642EB07
:103D60001C421BEB060658EB0202414146EA9E0646
:103D700001D5BDE80189B619524141EB0101A3F11A
:103D80000103BDE801894FEA14454FEA114724EACF
:103D9000054621EA074C05FB07F406FB07F70CFB79
:103DA00006F105FB0CFC11EB074144EB17444FEA0D
:103DB000124711EB0C4144EB1C4422EA074C05FB73
:103DC00007F206FB07F70CFB06F605FB0CFC16EBEF
:103DD000074642EB174216EB0C4642EB1C456A18AD
:103DE00054F1000148BF7047B619524141EB01013F
:103DF000A3F10103704795F0000F37D04FEA11424D
:103E00004FEA144721EA024624EA074C02FB07F175
:103E100006FB07F70CFB06F402FB0CFC14EB074453
:103E200041EB17414FEA154714EB0C4441EB1C41A1
:103E300025EA074C02FB07F506FB07F70CFB06F625
:103E400002FB0CFC16EB074645EB174516EB0C4640
:103E500045EB1C42121951F1000148BF7047B619D9
:103E6000524141EB0101A3F1010370474FEA1445B0
:103E70004FEA114724EA054621EA074C05FB07F102
:103E800006FB07F70CFB06F24FF0000605FB0CFCE7
:103E900012EB074241EB174112EB0C4251EB1C4174
:103EA00048BF7047921841EB0101A3F1010370472D
:103EB00010B51E480068002800D080471C4900202B
:103EC0000870811E1B4801601B494FF0007008609C
:103ED0001A4CD4F8C002800704D4F42218A11DA003
:103EE00004F474F32A480168D4F8C40261F31D3065
:103EF00040F00100C4F8C40201F4D4F600214FF0F0
:103F00003040C1608161C1174161016201F486F6F0
:103F100008484038016821F4800101601D480068AC
:103F2000002802D0BDE81040004710BD602480008A
:103F30007C4A800044C500A080E200E000E000A0D0
:103F4000727769705F736C6565705F636F6D6D6FBD
:103F50006E2E63004D43555F5355422D3E424C45F6
:103F60005F44534C4545505F434F52525F454E208E
:103F700026204D43555F5355425F424C455F4453A5
:103F80004C4545505F434F52525F48575F454E0086
:103F9000542480006424800000214FF03040C16030
:103FA0008161C117416101620649022004220A6051
:103FB000BFF34F8FBFF36F8F0860BFF34F8FBFF317
:103FC0006F8F704780E100E004490220C1F80001D2
:103FD0000860BFF34F8FBFF36F8F704780E100E041
:103FE000FEE7FEE71AF4789010B5302080F31188D0
:103FF000BFF34F8FBFF36F8F07480078012806D1BA
:1040000010F042FA18B105494FF0805008600020C6
:1040100080F3118810BD00000C46800004ED00E024
:104020000249096801F007010170704704C500A04A
:1040300030B4062821D212490A6802F007028242EF
:1040400012D00A680F4B1A400F4C22430A6000BF7F
:1040500000BF00BF00BF0A681A400C4B024333F890
:10406000203042EA83420A600849183951F820009A
:104070000749486030BC74F4BD9730BC70470000FD
:1040800004C500A0F8FFE3FF05000800205401016B
:104090000041800004480068044900F0070051F81E
:1040A000200003494860704704C500A0085401017E
:1040B000004180000248016841F4700101607047CE
:1040C00088ED00E002480068001D1DF4C592000064
:1040D000CC43800002484068001D1DF4BD920000E2
:1040E000CC438000FEE703B401984100009850EAF9
:1040F000C12018BF04204A0D18BF40F0010040F253
:10410000FF72B2EB515F08BF40F00200012808BF08
:10411000052002B07047002804DB00F1E02090F891
:104120000004704700F00F0000F1E02090F8140D3B
:104130007047002804DB00F1E02090F8000470478D
:1041400000F00F0000F1E02090F8140D704700001F
:1041500002480068C0F30220704700000CED00E048
:1041600010B52DED020B2DED088B84B09DED0C0BE1
:1041700051EC100B10F076FF41EC180B9DED0C0B81
:1041800053EC182B51EC100B10F0D2FF41EC190B33
:104190000D989FED290B10F0004F53EC102B51ECB4
:1041A000190B9FED21AB9FED22BB0ED010F0EAFD65
:1041B0000ED953EC1B2B51EC190B10F01DFF1CD228
:1041C00014E000BF41EC180B17E010F0DBFD06D245
:1041D00053EC1A2B51EC180B10F0AAFFF2E753EC3A
:1041E0001B2B51EC190B10F007FF06D853EC1A2BC0
:1041F00051EC180B10F004FBE4E78DED028B9DED04
:104200000C0B18EE901A10EE900A8DED000B61F376
:104210001E0003909DED020B04B0BDEC088B02B0B4
:1042200010BD000000000000000000000000F03F92
:10423000000000000000E03F000000000000E0BFC0
:1042400030380A2801D2012070470020704770479B
:104250002DE9F05F0746894693464FEA5B04A24684
:104260004D465F4EDFF87C81EFF31080012181F332
:104270001088D8F8A41221F02001C8F8A41280F305
:104280001088EFF31080012181F31088D8F8A01274
:1042900021F02001C8F8A01280F31088306820F0C7
:1042A00080403060504830603F20D8F8001160F303
:1042B0000501C8F80011306820F4601040EAC740DA
:1042C0003060306820F4E02040EA07403060052F7D
:1042D00003D1306840F400403060062F03D13068CD
:1042E00040F480403060306840F400503060306806
:1042F00020F060503060306820F00F0040F0030084
:104300003060EFF31080012181F31088344A383295
:10431000116821F0E04141F08041116080F3108884
:10432000306840F08040306001E0D8F80000D8F8F4
:104330000401C0F300200028F7D1EFF31080012121
:1043400081F31088116841F00041116080F31088FA
:1043500034E000204FF47A711AE0884217D93068AF
:1043600020F080403060306840F0004030603068BD
:1043700020F00040306009F0B7F81C480168491C83
:10438000016054464D46052077F439D46CE7401C53
:10439000D8F80421C2F30022002ADED0D8F80401A4
:1043A00000F07F01A14200D92146002003E0D8F8A7
:1043B000002004C5401C8842F9D3641A002CC8D1DF
:1043C0005FEACB7008D0D8F80401C0F300200028C1
:1043D000F9D0D8F800002880BDE8F05F09F084B873
:1043E00008C500A000E000A00A070807684B80008D
:1043F0002DE9F04107460E464FF000080024274DF6
:104400000BE004EBC40005EB8000801C072239465A
:10441000FEF7B2F940B1641CE4B22878A042F0D8AB
:10442000B8F1000F18D102E04FF00108F8E7287842
:104430000A21B0FBF1F201FB12040A2801D2401C50
:10444000287004EBC40105EB81003968C0F8021044
:10445000B988C180B97901722B7811A2102100208E
:1044600004F4B6F0307800070BD504EBC40005EB7C
:10447000800006F14601BDE8F0410A301C22FEF73B
:10448000C6B904EBC40005EB800006F12A01BDE8C3
:10449000F0410A301C22FEF7BAB90000F87C810016
:1044A000523A313A616464206C746B206974656DB2
:1044B0002C206E756D203D2025640A000449896B0F
:1044C000084004490A78104300220A70704700002F
:1044D000002001A00C478000104A114900280EDC82
:1044E0000868C0F34120012808D0506C401C50647B
:1044F000086820F4C06040F40070086070470A2823
:10450000FCDB086810F4C06FF8D0106C401C10641D
:10451000086820F4C060086070470000AC48800064
:104520000CC500A006460F46154672B63846FEF783
:104530004FF9402801D9402002E03846FEF748F9FB
:1045400080463046FEF744F9402801D9402002E079
:104550003046FEF73DF904469C211048FEF7F0F97D
:10456000424639460D48FEF752F90C48224631467C
:104570005C30FEF74CF909484FF0AA3101644564FC
:104580004FF0BB3181644FF0CC3101654FF0DD312C
:104590008165002000F004F8FEE7000034928000FE
:1045A00030B5ADF20C4D04464FF4806103A8FEF720
:1045B000C7F9184D202085F83F0085F89B003CB1D5
:1045C0002846012C436DC26C09D0022C0CD00FE0A0
:1045D000104A11A15C3203A8FDF7E4FE08E011A126
:1045E00003A8FDF7DFFE03E016A103A8FDF7DAFE3E
:1045F00003A90BA2686CCDE90121009018A3054A1C
:1046000018A1002000F0F2FD00F0BCFD0DF20C4DF1
:1046100030BD0000349280005B4552524F525D2005
:10462000257300005B5741524E494E475D20506153
:1046300072616D303A25642C506172616D313A259A
:10464000640000005B504152414D5D205061726139
:104650006D303A25642C506172616D313A256400E9
:10466000000000006170705F6173736572742E6387
:1046700000000000014877F4FF90000060458000D2
:1046800006460F4690461D4672B64046FEF7A0F815
:10469000402801D9402002E04046FEF799F8044640
:1046A0009C210D48FEF74CF9224641460A48FEF788
:1046B000AEF809484FF05531016445644FF066315A
:1046C0008164C6644FF0773101654765C9438165F0
:1046D0000220FFF765FFFEE7349280002DE9F041EC
:1046E00006460F4690461D464046FEF771F84028A4
:1046F00001D9402002E04046FEF76AF804469C21BA
:104700000D48FEF71DF9224641460B48FEF77FF89B
:1047100009484FF011310164456449008164C66461
:104720004FF03331016547654FF044318165BDE895
:10473000F0410120FFF734BF3492800010B50948E2
:10474000152141710C2101710121C170817000217D
:1047500041700170002000F06BFEBDE81040014880
:1047600000F084BE9C7A810010B588B0817AC27A4C
:10477000037B447BCDE90443CDE90621817BC07BEB
:1047800006A29E23CDE90032CDE90201114B12A20F
:1047900017A1022000F02AFD08B010BD436F6E6E15
:1047A0006563746564207769746820746865207037
:1047B00065657220253032583A253032583A253016
:1047C00032583A253032583A253032583A2530326C
:1047D000582E0000885601012E2E5C5372635C75C2
:1047E0007365725C757365725F6170702E63000033
:1047F0004E4F5F544147000010B586B004460FA2EB
:104800009623CDE900320291124B13A218A1022087
:1048100000F0ECFC1849204602F092FB0446002C04
:104820000AD014220B491C3101A8FEF735F8ADF867
:10483000084001A800F022F806B010BD4469736377
:104840006F6E6E6563746564202830782530325849
:10485000292E0000585601012E2E5C5372635C75A0
:104860007365725C757365725F6170702E630000B2
:104870004E4F5F5441470000D44680003EB5044689
:104880004FF400711A48FEF739F8207810B101286A
:1048900019D01DE000211748A28830F831309A4223
:1048A00007D100EBC10014A143681148FDF77AFD60
:1048B0000EE02E2902D0491CC9B2EEE714A10C4823
:1048C000FDF770FD04E01DA109486268FDF76AFD6F
:1048D000074921A22069CDE901210090D4E90223F2
:1048E0001EA1002000F082FCBDE83E4000F04ABC62
:1048F00034908000F04380004572726F7220636FC5
:104900006465203078253034583A20257300000043
:104910004572726F7220636F646520307825303481
:10492000583A204E6F20666F756E6420696E666F10
:10493000726D6174696F6E2E000000002825732966
:10494000206973206E6F742065737461626C697383
:104950006865642E00000000257300006170705FC0
:104960006572726F722E63002DE9F04101460029D5
:104970001BD000240F4E0E4A357814E002EB0410D1
:104980000F780378BB420CD14B684068034208D0D3
:10499000707808B900F0CAFB2046BDE8F04100F08D
:1049A000EBBA641CE4B2AC42E8D3BDE8F08100008D
:1049B000DC9280006C4580007CB505460E46002DDB
:1049C00001D0002418E005207CBD05EB04104168EF
:1049D0000091017A8DF80410417A8DF805100721B5
:1049E0008DF80610C26800780023694600F048F888
:1049F0000028E9D1641CE4B2B442E6D300207CBDB7
:104A000010B50C46062833D2DFE800F0030303108C
:104A10001E27184951F830002104090C04D018B1A0
:104A2000214607F0E9F81FE0042010BD2004000C27
:104A300003D0A1B2104807F0DFF8200C14D0210CED
:104A40000E4807F0D9F80FE014F0FF0F03D020460E
:104A500006F078FA08E0042010BD14F0FF0F05D02E
:104A60002146002007F03AF9002010BD042010BDB7
:104A7000062010BD4C540101000001A0001001A04F
:104A80002DE9F05F05460C469046994627680026BA
:104A9000052D13D039462846FFF7B2FF2146284698
:104AA00000F0ACF800280AD1042D0AD0032D2ED036
:104AB0004FF0100B2807060E002491E00620BDE8F9
:104AC000F09F4FF0080B2079042806D0052809D064
:104AD00006280DD0072815D110E00021384600F433
:104AE000D2F70FE040F20111384600F4CCF709E0AC
:104AF0004FF00111384600F4C6F703E03B49384651
:104B000000F4C1F74FF0007074F4F2D2D4E74FF024
:104B1000200BD1E7F80760D0052D65D2DFE805F05E
:104B2000030303254600324800EBC50090F904A0BA
:104B3000BAF1000F17D0EFF31081012080F3108835
:104B4000A01900EB40022B4800EB8200C0F8048063
:104B5000C0F8089081F31088504617F45DD3504692
:104B600017F478D339E00420A9E7EFF3108201208D
:104B700080F31088A0191F4B00EB400003EB80016D
:104B8000C1F80480C1F80890032103F8201082F3D3
:104B90001088062017F440D3062017F45BD30720B3
:104BA00017F43AD3072017F455D316E0EFF310812A
:104BB000012080F31088A01900EB40020E4800EBA2
:104BC0008200C0F80480C0F8089081F31088122099
:104BD00017F422D3122017F43DD37F08641CE4B2EB
:104BE0005C4597D300206AE7062068E701010100D1
:104BF0004C540101408C8000C08D800070B58EB097
:104C000005460C46564901F164004DC8CDE90A023B
:104C1000CDE90C36D1E91E23486F06AED1F88010DD
:104C20000DC6099114224E49843101A8FDF734FEC6
:104C3000ACB14C4906200EF075F84B4907200EF038
:104C400071F84A4912200EF06DF84549444A2C315A
:104C5000062D7CD2DFE805F0060606214159052025
:104C60000EB070BD207931F810000B90607932F8E9
:104C700010000C90A0790D9020680A9038481430EC
:104C800050F8350021880904090C04D018B10AA98C
:104C900007F000F859E00420E2E7207931F810002D
:104CA0000B90607932F810000C90A0790D9020687C
:104CB0000A9020680104090C05D080B20A900AA964
:104CC0002B4806F0E7FF2068010C3ED0000C0A904C
:104CD0000AA9284806F0DEFF37E0207901EB400002
:104CE000408A0790607902EB4000C0880890A07964
:104CF000099020680690207810F0FF0F03D006A8D6
:104D000006F072F921E00420AAE72079031F032BA3
:104D100001D80720A4E702281AD0012002902079A8
:104D200001EB4000808C0390607902EB40008089A9
:104D30000490A079059020680190207810F0FF0F72
:104D400009D001A9002007F021F8002088E704E03D
:104D500002200290E3E7042082E7062080E70000BB
:104D600038540101634D80005D4D8000594D800035
:104D7000000001A0001001A010B502460C46002062
:104D8000062A26D2DFE802F00303030B1A1F11489C
:104D900050F83200A1B2BDE8104014F498962104F6
:104DA000090C03D0A1B20C4814F491D6210C10D0F8
:104DB000210CBDE81040094814F48996A0B2BDE862
:104DC000104012F45796A1B2BDE81040002006F042
:104DD000E0BF10BD4C540101000001A0001001A073
:104DE000002803D002490860012070470020704766
:104DF0007845800070B505460024091F062917D2A2
:104E0000DFE801F003070C111315284600F0A4F8A1
:104E10000EE00124284600F09FF809E0022428460D
:104E200000F09AF804E0032402E0042400E00524E2
:104E3000034A214628461268BDE87040104700002A
:104E4000784580002DE9F0410446204600F0AEF898
:104E500001462E4800230826025D00F10A0700F1F2
:104E60001405AAB1052A33D0082A2AD1092945D028
:104E7000082926D1295D491CC9B22955142920D3F6
:104E80002B5506552046BDE8F0410821FFF7B2BF7B
:104E9000052913D0042916D0072914D0082910D1C8
:104EA000295D491CC9B2295514290AD32B55065529
:104EB0002046BDE8F0410821FFF79CBF3B55052186
:104EC0000155BDE8F0812046BDE8F041FFF792BFF3
:104ED00005290CD0395D491CC9B239553229F0D3A6
:104EE00003552046BDE8F0410521FFF783BF035578
:104EF0002046BDE8F0410621FFF77CBF0355204660
:104F0000BDE8F0410921FFF775BF000090938000D4
:104F100070B504460D4600F00FF808B100F018F91E
:104F20000348044A2946005D9268BDE87040104776
:104F3000D09280006C4580000020064911F81020B6
:104F40000AB100207047401CC0B20A28F6D30120E5
:104F500070470000AE9380000349002201F8102042
:104F600001EB400042707047AE938000014A02F8A6
:104F700010107047AE938000024A012102EB4000FE
:104F800041707047AE93800070B50024064D05EB6C
:104F90004400407810B12046FFF754FF641CE4B28F
:104FA0000A2CF4D370BD0000AE93800070B50021D0
:104FB0001D4B03F132051A5C002A09D0002403F1CD
:104FC0000A06012A0AD0022A12D0032A24D11FE09D
:104FD00015F8102002B301221A541DE015F8102014
:104FE0001AB1345402221A5416E01C54042113E05E
:104FF00015F810204AB1325C521CD2B23254642AE5
:105000000AD3072103221A5406E005211C5403E0A9
:1050100015F8101011B10821084670BD1C54FFF797
:105020009BFF0921F8E700007C9380007047000097
:10503000F8B50E4617460A2E02D80FB100231FE01E
:105040000020F8BD03EB430410F82410032901D01D
:10505000042913D100EB8405154AA97AD1541449C7
:1050600010F824200C3101EB031422706968616090
:10507000297A2172697A61720E49E1605B1CDBB2A8
:10508000B342DFD30A4831460C30FFF795FC0A4C97
:105090002670A7600948FFF7A3FE09480023009087
:1050A00001220A2118460FF013FB60600120F8BDB1
:1050B000D0928000694900016C458000114F0001C9
:1050C0001D5100012DE9F0410024124FDFF8488006
:1050D00019E0002607EB041528786968FFF74CFEF5
:1050E00010B9697A012902D0012802D005E0012611
:1050F00003E0687A022800D1012631462046FFF7F6
:1051000035FF641CE4B298F800008442E1D3BDE8A6
:10511000F0810000DC9280006C45800010B5FFF744
:10512000D1FFBDE81040FFF72FBF000038B50FF0EA
:10513000A5F902460020054C034600900621606850
:105140000FF0FCFA0120607038BD00006C45800053
:1051500038B50024044D009423462246082168688F
:105160000FF0ECFA6C7038BD6C458000002806D05A
:10517000002904D0024AD269002A00D010477047A3
:10518000109080000248006A002800D00047704755
:105190001090800070B50D4616460D4C00280AD0C0
:1051A0000178032911D80121A17601461A2220464F
:1051B000FDF72DFB05E00020A0761A210448FDF73D
:1051C000BFFBE5612662002070BD012070BD0000BC
:1051D00010908000044A1044807D084201D00120D4
:1051E0007047002070470000109080002DE9FE4FAE
:1051F000DDF830B006469246994600240027019714
:1052000002975A480178B14202D2807E00287DD1AF
:105210000DF13808CDF80080EFF311850220FEF77C
:1052200088FF014652480068C0F30220401C01225A
:1052300082408818C0B280F3118801213046FFF700
:10524000C9FF38B14B484C4950F82620204600F0A1
:10525000A5F804461C213046FFF7BCFF00285ED0AD
:1052600046A24549204600F099F8204484B2042122
:105270003046FFF7AFFFF8B152463F49204600F0F5
:105280008DF8204484B208213046FFF7A3FF38B1DF
:105290003BA23949204600F081F8204484B20BE05B
:1052A00010213046FFF796FF30B136A23249204632
:1052B00000F074F8204484B208213046FFF78AFFDA
:1052C00090B14A462C49204600F068F8204484B248
:1052D00010213046FFF77EFF30B12BA22649204631
:1052E00000F05CF8204484B210213046FFF772FFD2
:1052F00070B15B4626A2052101A8FDF769F801AA55
:105300001D49204600F04AF8204400E02BE084B21A
:1053100020A21949204600F041F8204484B21648E2
:10532000C4F58071204443460D9AFDF715F80097A7
:105330004FF48071002804DB2044884201DC86B2EF
:1053400000E00E46B01C884200D9FE2612A20A498F
:10535000304600F023F8304481B20748FFF706FFDB
:10536000E8B280F31188BDE8FE8F00001090800045
:105370000CED00E0DC438000108F8000280000006E
:10538000200000003A000000204C696E653A0000E1
:10539000256C6400292000000D0A000030B5054688
:1053A000002000290CD0002A0AD006E02B18FF2B81
:1053B00006D8CC54521C401C80B21478002CF5D175
:1053C00030BD000010B5094A06214CF201000AF078
:1053D0000DFD02F0C5FA00224FF08371104603F074
:1053E00019F8BDE81040022073F43C94CA5501013D
:1053F00008B5009103480168002901D06846884734
:1054000008BD0000748E800010B5084A92F8241080
:10541000002907D040B10146101D05F073FE002899
:10542000FFD110BD092010BD052010BD748E800075
:1054300010B50C4C20600C4921200DF073FC201D90
:1054400005F02AFE00280BD1201D05F0E3FE002800
:1054500006D1012084F82400C00673F449D6002048
:1054600010BD0000748E80000D4E800010B5084AFB
:1054700092F82410002907D040B10146101D05F014
:105480004BFF0028FFD110BD092010BD052010BD25
:10549000748E80002DE9F04104460D461746002D1C
:1054A00004D0012D02D00120BDE8F081CCB1C7B1FC
:1054B000EFF311860220FEF72EFE8046FEF748FE2F
:1054C000401C0121814008EB0100C0B280F311882B
:1054D00000206070A570E761F0B280F311880020B1
:1054E000E2E70120E0E710B50446002C0CD020468E
:1054F00000F0B0F9FF2060700021A160E16021613F
:1055000061610020E06110BD012010BDF0B5DDE952
:105510000745059981614FF47A76A2FB061C03FBCF
:1055200006C3002702FB0732C0E9021209196A41CB
:10553000C0E9041200210162F0BD00002DE9F04134
:105540000446002C13D0EFF311850220FEF7E3FD93
:105550000746FEF7FDFD401C012606FA00F0384420
:10556000C0B280F311881248002121620EE00020B1
:10557000BDE8F081D4E90432D1E9047CDB1B72EB95
:105580000C0202D2016A216203E00846016A002986
:10559000F0D104626670064820380168491C016039
:1055A000016C4160E8B280F311880120E0E700005F
:1055B000C08E80002DE9F04105460024EFF31186EE
:1055C0000220FEF7A8FD0746FEF7C2FD401C0121A0
:1055D00081407818C0B280F31188134A106CE8B18A
:1055E00015B102F1200010E00446206A1064106832
:1055F000401E10600CE0A94206D11168491E1160DE
:10560000296A01622C4603E00846016A0029F2D1AA
:1056100024B1002020626070106C5060F0B280F302
:1056200011882046BDE8F081A08E80002DE9F04170
:10563000EFF311870220FEF76EFD0446FEF788FDAA
:10564000401C012181406018C0B280F31188114DC7
:10565000002608E02078012804D1E16909B1A06999
:10566000884726702D6A2C6A002CF3D1094D203D05
:1056700007E0E16909B1A06988472670206AA8603F
:105680002662AC68002CF4D1F8B280F311880120B6
:10569000BDE8F081C08E80002DE9F041EFF3118765
:1056A0000220FEF738FD0446FEF752FD401C01269D
:1056B00006FA00F02044C0B280F311881B4DA5F11A
:1056C000200829E0D4E90420D8E90413521A60EB39
:1056D0000300D8E906319A1A814120D3267020466A
:1056E000FFF768FFA078012802D0104818380DE0B5
:1056F000D8E90430D4E902219A184841C4E90420C9
:105700002046FFF71BFF07E001F120000168002998
:10571000FAD12162006804622C6A002CD2D1F8B25E
:1057200080F311880120BDE8F0810000C08E800068
:105730002DE9FF5F82460E4693464FF00008BAF10E
:10574000000F20D0414886421DD8E6B1EFF3118703
:105750000220FEF7E0FC0446FEF7FAFC401C0121A3
:1057600081406018C0B280F31188504607F018FCE1
:1057700010B19AF8010040B1F8B280F311880F20FF
:1057800004B0BDE8F09F0120FAE70AF061F8044692
:105790000D464FF47A7106FB01F022462B4600219C
:1057A00007F0CEFBDFF8A890B0B1D9F8040048B1FB
:1057B000D0E90410091B60EB0500C9E904100AF0E8
:1057C000E3F804E00021C9F81010C9F814104FF0F4
:1057D0000108D9E9040106E0D9F80400D0E9042160
:1057E000101B61EB0501CDE9020132460023CDF823
:1057F00000B05046FFF78AFE5046FFF79FFE0DF0BF
:105800002FF94FF0E021D1F800014FF0806210F045
:10581000806F01D0012000E0002018B9C1F880227B
:10582000C1F80021B8F1000F0AD0D9F80400D0E97E
:105830000431D9E90402181A61EB02010AF03EF8BA
:10584000F8B280F3118800209AE70000008AB907B7
:10585000A08E80002DE9F04104460025002C39D0AF
:10586000EFF311870220FEF756FC0646FEF770FCA8
:10587000401C012181407018C0B280F3118860780B
:10588000012824D1144E7068A0420BD109F0E0FF2A
:10589000D4E90432181A62EB0102C6E904020AF0E4
:1058A00073F801252046FFF785FE5DB1706848B1A9
:1058B000D0E90421D6E90403101A61EB030109F0D1
:1058C000FDFF04E01DB9706808B90AF05DF8F8B290
:1058D00080F31188BDE8F081A08E800070B5044689
:1058E0001A4D55F8240070300CF002FB82B21646B7
:1058F000A2B155F8240090F8011101290ED0012120
:1059000080F80411802A0FD355F82400802200F17A
:10591000800170300CF001FB80260CE055F824105B
:10592000002081F8000170BD55F8240000F18001CD
:1059300070300CF0F2FA55F82400324600F1800184
:10594000001D1CF477D00028EDD170BDCC43800041
:10595000704700002DE9F8430446464F57F82400ED
:10596000061D022C7DD290F86C10002979D00129F7
:105970007ED180F80111002157F82400D0E90323DB
:105980001344027D02F00102D21D9D184268D36FBC
:10599000C3F38003002BFAD090F80421A2B1364A59
:1059A0001368491C90F83B20102A06D08268B3FB8C
:1059B000F2F26A43B1EBC21FF3D957F824007030FA
:1059C0000CF096FA85B226E0B0F82480C58C001D54
:1059D0001BF4A8D457F8240041F2883300EB0801E7
:1059E000491B8031001D2A461BF4E9D7E5E757F82B
:1059F00024000122703069460CF08FFA57F8240019
:105A00004068C16FC1F340010029FAD09DF8001031
:105A100001606D1EADB2002DE9D157F82400703041
:105A20000CF066FA0028C8D1306841694906FCD5F7
:105A3000EFF31085012080F3108857F824007030B0
:105A40000CF056FA58B1EFF31081012080F3108862
:105A50003068426842F08202426081F31088002080
:105A600000E005E057F8241081F8010185F3108863
:105A7000BDE8F883CC438000044180002DE9F04369
:105A800089B0054688462C78002D06D02AB1022C14
:105A900005D3082009B0BDE8F0830520FAE7384EA9
:105AA00005F1580046F82400D2E900310A4670306A
:105AB00019460CF008FA291D894624220C31684643
:105AC000FCF7EAFE291D286D0EC90DF035FE0028F1
:105AD000E0D12C490C200DF025F92B490D200DF0BB
:105AE00021F92A4800EBC40797F9010016F494D372
:105AF00097F9010016F4AED356F82400C0F864906C
:105B000056F82400C0F8008056F824001822083007
:105B100005F14001FCF7C0FE56F824107868486093
:105B200056F82400001D06F065FB56F82400001D01
:105B300006F096FB351F0127287850B92F701348BF
:105B4000032110300BF084FD6880002801DA042066
:105B5000A0E756F8240080F86C7056F82410002056
:105B600081F8000156F8241081F8010156F824103C
:105B700081F8020156F8241081F803018AE7000039
:105B8000CC438000C5400001D5400001D85401013C
:105B90002DE9F04104461A4D55F8240070300CF000
:105BA000A7F982B2164600277AB155F8240090F87A
:105BB0000111012909D0802A0ED300F18001703033
:105BC00080220CF0AAF980260BE055F8240080F81A
:105BD00000710020BDE8F08100F1800170300CF010
:105BE0009CF955F8240080F8047155F824003246D9
:105BF00000F18001001D1BF463D70028EAD1E9E71A
:105C0000CC43800070B5022801D3082070BD0C4D34
:105C100055F820407CB194F86C6066B169B162B10E
:105C2000002684F8026155F82000001D1BF4C7D639
:105C30000028EBD170BD052070BD042070BD0000B0
:105C4000CC4380002DE9F04106460C46174604F18E
:105C5000080520466FF4B0D5C3B21B48E11842686E
:105C6000914202DD0320BDE8F0811849184A00681E
:105C700009681268891A081A001FE91881421CD99C
:105C80004FF4004513A22946002002F4A1F402F0CB
:105C900031F830B118A22946002002F499F4082006
:105CA000E1E71DA22946002002F492F43A4621467B
:105CB0003046BDE8F0410EF015B93A46214630466F
:105CC000BDE8F0410EF00EB9D8328000D02380003C
:105CD000CC238000523A353A4E56445320617265C7
:105CE00061206973206265696E6720636F6D706102
:105CF000637465642E0D0A00523A353A436F6D7035
:105D0000616374696E67204E564453206661696C06
:105D100065640D0A00000000523A353A436F6D7019
:105D2000616374696E67204E5644532073756363D4
:105D300065737366756C0D0A000000007CB50D4636
:105D4000002200920192694602F444F4044634BBF6
:105D50004FF42051684602F43FF4B8B942F601010D
:105D6000684602F439F488B942F60301684602F441
:105D700033F458B942F60201684602F42DF428B90A
:105D80004FF42451684602F427F408B1062406E0D3
:105D90000098C5F30B01808808430099888020464D
:105DA0007CBD00002DE9F04782460E461746984616
:105DB0004FF001090025D8F80040002C18D11E48EA
:105DC000046815E03188A08881420BD3E0888142C5
:105DD00004D82146504600F031F808B1246807E0A5
:105DE000012505E02146504600F028F810B124684E
:105DF00025B105E00125A0883080F9E7002CE1D12C
:105E0000B5B14FF00009A0883188884204D1201D27
:105E100038600120387109E0081A401E00EB40008C
:105E200004EB40000E30386000203871C8F80040A4
:105E30004846BDE8F0870000F80E800070B586B0D7
:105E4000002200EB4003114C03EBC00304EB4305BD
:105E50002C7D17E035F8123093B18E889E420FD812
:105E6000CE889E420CD3CA8889888DE81F00084BD3
:105E7000084A4021002002F4ABF3012006B070BDB7
:105E8000521CD2B29442E5D80020F7E77C7E810014
:105E900066590101606301012DE9F04F8BB007469F
:105EA0000C46002500200890099060880790261F66
:105EB000E188A288CDE901210090614B61A24021D7
:105EC000002002F485F3308850B9384602F486F396
:105ED000401E30806088A188884200D800B9012522
:105EE000DFF89091002D60D104F10A000DF1200A35
:105EF0000DF1140B04F106080A90A088069004A87E
:105F0000CDE9020BCDE9008A022306AA07A938468B
:105F100000F0ACF90546280008D00A2D45D0062D22
:105F200043D0BDF81800401C079032E0E088B0F57F
:105F3000205F03D042F60101884208D1BDF810006D
:105F4000217AC3B2059A0A9802F44AF348B9228921
:105F5000BDF81000824218D105990A98FCF70CFC94
:105F600098B90221082029F4AFD70146BDF81C00DA
:105F70008880BDF81800C880083E59F827006030B6
:105F800002F430F3384602F42FF3BDF81800401C39
:105F90000790A088BDF81C10884206D3BDF81810E1
:105FA000884202D030880428A7D2062D36D059F86E
:105FB0002700603002F41AF340B300244FF6FF715B
:105FC00001EA8006062000EB072307220421384659
:105FD00000962CF429D301464E8059F82700006E14
:105FE0000EE083880A1913711B0A5371A41CA4B212
:105FF000C3880A1913711B0A5371A41CA4B2006848
:106000000028EED1084602F4F3F20AE021780A23D0
:10601000BDF81C20384602F4EDF202E0BDF81C0089
:106020006080074B14A240210020009502F4D0F2BA
:10603000062D03D000200BB0BDE8F08F0120FAE759
:106040002E590101523A333A5B25735D20656E7417
:1060500065722C2073683D307825782C2065683D6A
:10606000307825782C20747970653D307825780A51
:1060700000000000C40E8000523A333A5B25735D85
:1060800020657869742C207374617475733D307861
:1060900025780A002DE9F04F85B081460E46484626
:1060A00002F49CF2801E1FFA80FAD0460024B088C9
:1060B0007188CDE90010574B57A24021002002F40F
:1060C00087F27088B188DFF874B1884211D880B146
:1060D00070880490002002900390019001AB02AA06
:1060E00004A94846FFF75EFE0546280003D00A25AE
:1060F00042E0012540E0B088BDF81010884232D35C
:106100000221182029F4E0D6074601200090002340
:10611000FA1DB91D02A802F46FF20546280007D047
:1061200040F24E2346A22946BDF8100002F466F262
:10613000BDF81000B88004B9BC79B879A04203D08A
:10614000384629F441D517E05BF82900394660301C
:1061500002F448F2A8EB0400801E1FFA80F8BDF894
:106160001000401C0490B188BDF81000814203D398
:1061700010B1A01C8045B1D25BF82900006E18B1A7
:10618000002018B19DB334E00120FAE70026AAEB05
:1061900008081FFA88F00090062000EB092305226A
:1061A000042148462CF440D20746022C08D0022095
:1061B00078707888404478805BF82900046E10E09D
:1061C0000120F5E7A188B8198180B61CB6B2B819CC
:1061D000A279001DE11DFCF71AFBA079304486B2BC
:1061E0002468002CEED1384602F402F207E0FFE703
:1061F0000A25728831782B46484602F4FBF1054B9C
:1062000013A240210020009502F4E2F105B0002025
:10621000BDE8F08F15590101523A333A5B25735DA1
:1062200020656E7465722C2073683D307825782C5B
:106230002065683D307825780A000000C40E800093
:10624000617474735F70617463682E630000000092
:10625000523A333A5B25735D20657869742C20735C
:1062600074617475733D307825780A002DE9F04F1C
:1062700087B08346DDF844900C4615469A460026C2
:10628000B4F800800027019701AB4A4621465846E2
:10629000FFF788FD10B12888208026E02088298813
:1062A00088421BD8002302AA06A94846009702F498
:1062B000A3F1014629B1208840F269131AA202F421
:1062C0009DF19DF8183002AA5146109802F488F109
:1062D00008B1012602E02088401C20802EB92088C9
:1062E0002988884201D80028CED16EB122884B4639
:1062F0000021584602F484F1C6B22088494602F4CF
:1063000081F1288026B10AE00A26A4F8008006E080
:106310002188DDE91223584602F476F1C6B207B0AF
:106320003046BDE8F08F0000617474735F70617473
:1063300063682E63000000002DE9F04105460C461D
:10634000FF26217A1E2905D022480279521E52B218
:1063500000683AE004F10801284602F457F10646C5
:1063600035E010F832308B422DD11B4E56F8250007
:10637000406F30B300273B4618A24021002002F4B2
:1063800027F1062000EB052029F4F4D7C00605D537
:10639000002717A24021002002F41AF121460C39EF
:1063A00056F82500743002F41DF10020A08001266B
:1063B0006FB115A2402102F40BF1284602F428F136
:1063C00005E00127D7E7521E52B2002AC9DA30464B
:1063D000BDE8F0817C058000C40E8000523A333A5B
:1063E000657865637574653D307825780A0000002E
:1063F000523A333A636F6E6E656374206E6F742029
:1064000063666D0A00000000523A333A7374617299
:106410007420657865637574650A00000348024955
:1064200001600D2141607047745801017C058000B6
:106430002DE9F04F8BB082460C46002600200990D3
:106440000A9060880890251FB0462988A288CDE967
:10645000012100906D4B6EA24021002002F4B8F0A3
:10646000288850B9504602F4B9F0801E2880608810
:10647000A188884200D800B90126714850F82A0046
:10648000006E10B1002111B103E00121FBE790F88B
:106490000680002E5DD104F1080BA088079006A8A5
:1064A00005A909AACDE90210CDE900B2A37907AA8E
:1064B00008A95046FFF7DAFE0646300049D1BDF87C
:1064C0001410884502D0B8F1000F42D12888001F6F
:1064D000FB22FB2800D31046814200D2084687B237
:1064E000022107F10C0029F4EFD48146BDF8148095
:1064F000BDF82000A9F80400BDF81C00A9F80600AA
:1065000089F808703A4609F109000699FCF77FF905
:106510002888C01B001F28804948494650F82A0097
:10652000603002F45FF0BDF81400874202D150469B
:1065300002F45AF0BDF81C00411C89B20891A288EF
:106540008A4206D3824204D0298808F1040081429D
:10655000A3D2062E48D03A4D55F82A00603002F4F6
:1065600045F0C0B3002755F82A100C6E217A091D9A
:1065700041431FFA81F8062000EB0A23112204216F
:106580005046CDF800802CF44FD00546A5F8028087
:10659000217A091D697018E0A188E8190171090ABA
:1065A0004171BF1CBAB2E188A8180171090A417192
:1065B000921C97B2E819227A001D04F10901FCF738
:1065C00026F9207A384487B22468002CE4D1284682
:1065D00002F40EF00BE0FFE721783346BDF82020EF
:1065E000504602F407F002E0BDF820006080074B3F
:1065F00014A240210020009601F4EAF7062E03D0F1
:1066000000200BB0BDE8F08F0120FAE7F55801013A
:10661000523A333A5B25735D20656E7465722C20A7
:1066200073683D307825782C2065683D3078257872
:106630002C2072655F6C656E3D307825780A00000D
:10664000C40E8000523A333A5B25735D2065786949
:10665000742C207374617475733D307825780A004A
:106660002DE9F04F8BB082460C46002600200990A1
:106670000A9060880890251FB046A188694BCDE933
:10668000000169A24021002001F4A2F7288850B936
:10669000504601F4A3F7801E28806088A1888842B4
:1066A00000D800B90126694850F82A00016E11B1DE
:1066B000002010B103E00120FBE791F80680EEBB5B
:1066C00004F1080BA088079006A805AA09A9CDE93E
:1066D0000220CDE900B1A37907AA08A95046FFF727
:1066E000C5FD0646300047D1BDF81410884502D0DC
:1066F000B8F1000F40D12888801EFD22FD2800D36C
:106700001046814200D2084687B2022107F10800F4
:1067100029F4DAD38146BDF81480BDF82000A9F829
:10672000040089F806703A4609F107000699FCF75B
:106730006EF82888C01B801E288000E01CE04348BB
:10674000494650F82A00603001F44CF7BDF81400B7
:10675000874202D1504601F447F7BDF81C00411CA6
:1067600089B20891A2888A4206D3824204D029883D
:1067700008F102008142A5D2062E40D0334D55F8D3
:106780002A00603001F432F780B3002755F82A1050
:106790000C6EA179891C41431FFA81F8062000EB99
:1067A0000A23092204215046CDF800802BF43CD75F
:1067B0000546A5F80280A179891C697010E0A188BE
:1067C000E8190171090A4171BF1CBFB2E819A27929
:1067D000001DE11DFCF71BF8A079384487B224683E
:1067E000002CECD1284601F403F70BE0FFE72178F9
:1067F0003346BDF82020504601F4FCF602E0BDF817
:1068000020006080074B12A240210020009601F476
:10681000DFF6062E03D000200BB0BDE8F08F01207C
:10682000FAE700004A590101523A333A5B25735D99
:1068300020656E7465722C2073683D307825782C45
:106840002065683D307825780A000000C40E80007D
:10685000523A333A5B25735D20657869742C207356
:1068600074617475733D307825780A002DE9FF5FF7
:1068700081460F460024A246CDF808A0CDF80CA012
:10688000584850F82900603001F4B0F680463D1FAA
:1068900079882888544BCDE9001054A2402100206B
:1068A00001F496F62888E8BB484601F497F6401EA6
:1068B0002880002611E007EB460002AB8288002109
:1068C000484601F49DF6C4B2CDF808A0CDF80CA05E
:1068D0000CB1B0463BE0761CB6B27888B042EAD83C
:1068E00035E007EB48006B46818801AA484601F471
:1068F0008BF6C4B23CBBBDF804002988884200D3A3
:10690000084686B2022106F1080029F4DDD283464A
:10691000ABF8046032460BF106000099FBF777FFF5
:10692000304800E013E050F829005946603001F487
:1069300059F6484601F458F62888801B288008F14B
:1069400001081FFA88F8CDF808A0CDF80CA07888C7
:10695000404503D9288808B1002CC2D044BB484622
:1069600001F43CF62988401A401E86B20025062014
:1069700000EB09230F220421484600962BF454D63D
:106980008246AAF80260174850F82900066E0AE00D
:106990000AEB0500B288001DB11DFBF738FFB08877
:1069A000284485B23668002EF2D1504601F420F614
:1069B0004CB1062C07D007EB480039788288234673
:1069C000484601F417F6084B14A240210020009419
:1069D00001F4FEF5062C03D0002004B0BDE8F09FC2
:1069E0000120FAE7C40E8000DC580101523A333A24
:1069F0005B25735D20656E7465722C206E625F6826
:106A0000616E646C653D307825782C2072655F6C12
:106A1000656E3D307825780A00000000523A333A1E
:106A20005B25735D20657869742C207374617475BF
:106A3000733D307825780A0010B500210A4C0023F8
:106A4000002001EB410202EBC10204EB420222F8FA
:106A50001030401CC0B20A28F9D31375491CC9B2C2
:106A60000A29EDD310BD00007C7E81001FB50F48C0
:106A700090F80201002818D068464DF45BD4DDE997
:106A800000010B4CCDE90201E1680844094920F0FE
:106A90007040486008464DF4E3D6607818B1BDE810
:106AA0001F400BF0B1BB0BF0CBFB1FBDC01A800029
:106AB000404A8000B41A800002460020002152F8AB
:106AC00021300BB1401CC0B2491CC9B20C29F6D30D
:106AD000704710B508F0DAF9BDE8104003F02EB9A0
:106AE00007F06ABF10B58CB008A80CF025FBBDF804
:106AF000221009989DF82120CDE904109DF820303E
:106B00002EA040F27911CDE90232CDE90010354BCB
:106B100035A23BA10220FEF769FB0AA85FF448D228
:106B2000044654B114222F490E3103A8FBF7B4FEDA
:106B3000ADF8104003A8FDF7A1FE9DF828009DF8D0
:106B40002910CDE906109DF82A209DF82B30CDE9BB
:106B500004329DF82C109DF82D002BA24FF4BF732A
:106B6000CDE90032CDE902011E4B1FA224A1022073
:106B7000FEF73CFB2FA040F28511CDE90010194B28
:106B800019A21FA10220FEF731FB0BF02BFF02F030
:106B9000BDFD3149002000F0D3F90446002C0AD095
:106BA00014221049223103A8FBF776FEADF81040FD
:106BB00003A8FDF763FE0CB010BD0000476F6F64C3
:106BC000697820424C452053444B205625642E259D
:106BD000642E25642028636F6D6D697420257829E3
:106BE00000000000AE5601012E2E5C5372635C75EE
:106BF0007365725C757365725F6170702E630000FF
:106C00004E4F5F54414700004C6F63616C20426FF0
:106C100061726420253032583A253032583A253096
:106C200032583A253032583A253032583A253032E7
:106C3000582E000054656D706C6174652066726535
:106C40006572746F73206578616D706C6520737404
:106C500061727465642E0000D44680002DE9F04115
:106C600005468846284669F46BD2C0B224490978A3
:106C700088420DD200EB4000213040F400404246F3
:106C8000AC2109F0B3F80446200032D0012430E0F2
:106C900069F49AD2C7B207EB470606F1200040F428
:106CA00000402A46072109F0A1F810B10120BDE8F3
:106CB000F081384675F4D8D306F1210040F4004045
:106CC0004246AC2109F092F80446200001D0012090
:106CD000EDE7223646F4004008F0DEFE0949C7EB36
:106CE000C7000968084429680160A9888180A979DA
:106CF00081711CB941462846FDF77AFB2046D6E74C
:106D0000382380003C2380000020704710B50BF032
:106D1000F1FA0BF021FB0BF08BFA0AF0ABFE0CF052
:106D2000A7FB00F049FC0BF02BFB00F093FBBDE848
:106D3000104000F075BB0AF021BE10B506F0F0FF60
:106D400008F0B0F906F0FCFF07F00CFC07F05CF867
:106D500006F040FBFFF762FB03F0A0FB0BF0A4FB87
:106D60000BF0BEFFBDE81040FFF766BE0148FFF71D
:106D7000A3BE0000B413800010B5FFF7DCFF054987
:106D800003480860BDE81040034874F4DF95000034
:106D900017B8800474C500A00087930310B504469B
:106DA000002C0CD0204600F0D7FA002807D1044967
:106DB0004968002903D02046BDE81040084710BDAF
:106DC000084880003EB5028840F20933A2F209313A
:106DD0004FF480749A4239D032DC40F20D23A2F293
:106DE0000D219A4232D016DC40F20623A2F206218F
:106DF0009A422BD009DC40F202218A4226DAA242D2
:106E000024D1BDE83E40FFF76DBE03291ED2DFE866
:106E100001F01D324100F5294AD00ADC042915DDB4
:106E2000F32913D0F42911D1BDE83E400830FDF715
:106E30009BBCF639042909D2DFE801F008080841B3
:106E4000B1F5FF7F42D002DC40F2F7123EBD40F2C6
:106E5000F7439942FADAB1F57E7FF7D0F6DCA1F577
:106E60000071F739F2D141880029EFD1C088BDE81F
:106E70003E4068F48F9040880028E7D018A1B822DF
:106E8000CDE9002102901F4B1FA225A10320FEF790
:106E9000ADF93EBD007A0028FBD123A0BF21CDE98A
:106EA0000010184B18A21EA10320FEF79FF93EBD4B
:106EB000017A007903B0BDE83040FDF79DBC007950
:106EC00003B00121BDE830405FF46E96017A0129DC
:106ED000EDD18189007903B0BDE8304000F048B9B8
:106EE000416476657274696E67207374617274654B
:106EF00064206661696C65642830582530325829F1
:106F00002E0000009E5601012E2E5C5372635C75AC
:106F10007365725C757365725F6170702E630000DB
:106F20004E4F5F5441470000416476657274697347
:106F3000696E672074696D656F75742E00000000BE
:106F40002DE9F84307460D46EFF3118659480178BD
:106F500059480068C0F30220401C01228240881872
:106F6000C0B280F3118869F4C1D18046052F06D3E1
:106F700052A21021002001F42BF3152487E09DB1CB
:106F80005148C7EBC70100EB8104E06860B1607A4B
:106F900008B167F405D1607A68B14CA210210020D5
:106FA00001F416F30F2472E04BA21021002001F42B
:106FB0000FF302246BE02069F8B9E068017841B171
:106FC000012910D047A21021002001F401F323244D
:106FD0005DE08078400710D445A21021002001F424
:106FE000F7F2232453E08078800706D443A21021CF
:106FF000002001F4EDF2232449E0E06841888A078B
:1070000004D50278012A01D162691AB10278022AF4
:1070100007D008E03CA21021002001F4D9F2252479
:1070200035E0A26962B1090711D5298809B1802923
:107030000DD938A21021002001F4CAF2262426E03E
:1070400037A21021002001F4C3F224241FE040786D
:1070500002280CD1288818B144F25061884206D920
:1070600032A21021002001F4B3F226240FE0E069DF
:1070700028B90021042064F437D4E061B8B1E06994
:10708000296801603946002069F48CD200243B460F
:1070900029A210210020009401F49AF2404669F4DC
:1070A000EFD0F0B280F311882046BDE8F8831024B9
:1070B000EDE7000002E400E00CED00E0523A313A66
:1070C000453A310A000000007C278000523A313AEC
:1070D000453A330A00000000523A313A453A320A42
:1070E00000000000523A313A453A360A00000000EA
:1070F000523A313A453A340A00000000523A313AE5
:10710000453A350A00000000523A313A453A370A0A
:1071100000000000523A313A453A390A00000000B6
:10712000523A313A453A380A00000000523A313AB0
:10713000453A31300A000000523A313A6164765FD4
:1071400073746172745B25645D3A20453A3078252A
:107150003032780A000000000A2805D2034A0021D4
:1071600052F8200080F88F1070470000C40E800095
:1071700070B504460D4620460BF054F9002805D1A1
:1071800029462046BDE8704061F4149770BD70B583
:1071900004460D4620460BF045F9002804D1294647
:1071A000204662F4B3D780B270BD000070B50546CA
:1071B0000E46002D05D00D4867F4D6D184B214B127
:1071C00010E0022070BD142074F448D6014659B175
:1071D0000D61CE60064A50780871401C5070101D39
:1071E00006F07EF9204670BD102070BD5C5801018C
:1071F000A048800070B504460D4620460BF012F9F9
:10720000002805D129462046BDE8704063F4C490AB
:1072100070BD00002DE9F04119A24021002001F4C9
:10722000D7F1EFF311841E4801781E480068C0F3BF
:107230000220401C012505FA00F00844C0B280F38A
:10724000118869F453D006465EF4D0D30021164865
:107250000368164809E001EB410203EB821217783C
:10726000012F00D15572491CC9B202789142F2D364
:10727000304669F405D0E0B280F31188BDE8F081B2
:10728000523A333A73646B20676174747320736588
:107290007276206368616E676564210A00000000F1
:1072A00002E400E00CED00E0DC228000E42380003A
:1072B00070B504460D4620460BF0B4F8002804D102
:1072C0002946204663F454D380B270BD00B58BB01C
:1072D000094901200870FF22282101A8FAF788FF38
:1072E0004FF48070ADF804000020ADF8060001A84E
:1072F000FFF754FD0BB000BD0848800010B50648EC
:107300000068002800D08047FFF7AED908B10120FF
:1073100010BD002010BD0000844A800010B540F46C
:10732000404008F0B9FB10BD10B540F4404008F0F3
:107330005DFD10BD0449016004494160044981605C
:107340000449C1607047000041C2060015C2060032
:10735000297300011D73000170B50446002C1FD075
:107360004FF6FF731946228840F20155A2F20150F0
:107370004FF48076AA424CD01BDC40F20245A2F2C8
:107380000240AA4234D00DDCA2F54072013A25D069
:10739000012A23D0FF2A29D0B2422ED121892CE004
:1073A000002070BD012825D0022825D0FE2824D138
:1073B0002AE004282DD006DC01282AD0022828D073
:1073C00003281AD125E0052823D0062821D0B04271
:1073D00013D1204602F014FF002070BD204603F0B8
:1073E00043FB204603F0BCF9002070BD218904E076
:1073F000218902E0618900E0218A99420ED020466D
:1074000003F042FB012070BD204603F03DFA00204E
:1074100070BD204603F0B4F9002070BD002070BD9F
:1074200010B5212109480AF0DBF9072108480AF0C4
:10743000D1F90121054808380AF0C6F9FFF77DFCAB
:107440000520FFF74DFBFFF744FB10BD1441800002
:107450001C4280000449034808600549034808604D
:1074600070470000E59100010C228000219400018A
:107470001822800070B50026150A0E4805EB45025B
:1074800000EB0214098821800120A0702846FFF734
:1074900063FE002068F4F4D60748016829B10B6840
:1074A0001BB1228800212846984768F41FD7304630
:1074B00070BD0000D42E8000B82280003EB50024AC
:1074C0001D0A0A78122A02D0132A04D006E00020EE
:1074D0008DF8000002E001208DF800008888ADF8EA
:1074E00004004888ADF80200891D0291002068F46C
:1074F000C7D60B48016829B18A691AB1694628467E
:10750000904708E09DF80000012804D1BDF8041060
:107510002846FFF72DFE68F4E9D620463EBD000060
:10752000B422800001480078704700009C4A800027
:107530007CB50E46150A0020009001906946284649
:1075400072F41CD79DF806206946284602F068FEB2
:107550000446CCB162F41AD5C0B162F417D5C01C90
:1075600081B23288002320466DF4F8D0694628465F
:107570000AF0D6FF40B106A24021002001F428F015
:10758000214668465EF460D200207CBD0020E7E71B
:10759000523A333A7361766520636363640A00008C
:1075A0007CB5DDE90654CDE9005466F41BD3BDE893
:1075B0007C400AF09DB8000002490148086070470D
:1075C000A17500014823800010B588B0044666F418
:1075D00097D50020079007A854F43ED40798FFF7EA
:1075E000A9FE2068019060680290A0680390E0689E
:1075F0000490208AADF81400608AADF81600A08AC5
:10760000ADF81800E08AADF81A0001A854F44ED481
:1076100054F42ED40348016801614168416108B007
:1076200010BD0000300100B010B58AB00446FF2242
:1076300028216846FAF7DCFD40F20271ADF800102F
:107640000021ADF802108DF804406846FFF7A6FB54
:107650000AB010BD0A460146002008F00DBD30B545
:107660008568027B002D02D0002001210CE010462D
:1076700030BDCB0801F00704EB5CE340DB0701D031
:10768000401CC0B2491CC9B28A42F2D830BD0000C9
:1076900000230849496808E0CA88824204D80A8958
:1076A000824201D3CB6802E009680029F4D1184670
:1076B00070470000A048800001460548406803E08C
:1076C00002798A4202D000680028F9D17047000090
:1076D000A048800070B5104E3078FFF7EDFF0446EB
:1076E000200006D0206962F435D70546280002D074
:1076F0000DE00C2070BD2069FFF7B1FF0146206945
:1077000002681288E280006800880844208130788E
:10771000401C3070E8B270BDA048800070B51948B8
:107720000468194D2878002801D0002070BD4FF062
:10773000806071F4DDD4FEF767DA600872F4E8D394
:10774000124908608817114901262C390860104930
:107750007006C1F8FC01C8674FF03041086B40F07B
:1077600007000863094C303C206840F4E0202060AA
:10777000FEF78CDA2E70206820F4E02020600120D3
:1077800070BD00006C2480007C4A800070C500A0A1
:1077900084E000E070B50024EFF31086012080F350
:1077A0001088FEF78EDA104D28B102242968B9B18D
:1077B0000220884714E0FFF7A1FD20B1296879B1C4
:1077C000002088470CE0FFF7A9FF28B102242968B0
:1077D00031B10220884703E0296809B100208847B9
:1077E00086F31088204670BD5C24800010B5084ADE
:1077F0001378002B01D00F2010BD31B15060044828
:10780000243000F007F8002010BD022010BD000059
:10781000084880002DE9FC4705460C46FFF776FA3C
:1078200068F464D507463648006800B1804735499A
:1078300001200BF077FA344902200BF073FA012093
:10784000FAF77CFFA08E81B2206B02F063FADFF8BA
:10785000BC90DFF8BC80E16999F8000098F800203E
:107860000244B1FBF2F1CEB216FB00F1A06964F460
:107870009DD5286863F42CD168685FF439D02869F5
:1078800066F4D8D4A86861F4D1D2E86861F476D3FC
:1078900020484BF4FFD620484BF402D71F484BF446
:1078A00005D71F4854F42ED31E484BF4A9D61E48C2
:1078B0004BF4ACD61D484BF4AFD61D4864F44AD502
:1078C0004FF0806071F414D42046FFF77DFED4E9B8
:1078D0000A01CDE9000199F80010A06916FB01002A
:1078E00098F8001016FB01F1D4E90823114C246824
:1078F000A047384668F4C4D4BDE8FC4764F40E964B
:107900008026800039380600DD37060029D50700BB
:107910002AD50700119F0700B9C3060065C40600F9
:10792000EDAF070025ED060045ED060065ED06000C
:10793000799B070048238000034900EB800001EB9E
:10794000800080887047000004498000034A00EBF3
:10795000800002EB800081807047000004498000B5
:1079600010B500F065F800F047F8BDE8104000F0F1
:1079700001B8000000B58FB003228DF800204FF44D
:107980008050019005218DF8081001208DF8090024
:1079900000238DF80A308DF80C20430304938DF8F2
:1079A00014108DF815008DF816008DF81820C303FB
:1079B00007938DF820108DF821008DF822208DF886
:1079C000242082030A928DF82C108DF82D000222BB
:1079D0008DF82E2004238DF830300D928DF838105C
:1079E0008DF839008DF83A30024A6846FDF720FBE1
:1079F0000FB000BD2D5000017CB51026009602246A
:107A00008DF804408DF8054007258DF8065069462D
:107A10000320FDF7F3F800968DF804408DF805403B
:107A20008DF8065069460520FDF7E8F87CBD00009A
:107A300000B587B000F01EF803208DF800001D206F
:107A40008DF8160001208DF817008DF818008DF8BC
:107A50001900044A04496846FDF79CFBFCF70AFE3E
:107A600007B000BD6D7A0001C57A00010020FDF766
:107A700071BF00001CB5114800904FF48064019460
:107A800000F58060002101704FF4E13202640322AE
:107A900042648164C1640165012141650274CB02C5
:107AA0004361022343740176027184604371017360
:107AB0006A460349FDF7E2FF1CBD0000E086800036
:107AC000515900010A4601464FF47A730020FEF72F
:107AD00099B8000030B591B005460C461C223D49CE
:107AE0000AA8FAF7D9FE1C223A491C3103A8FAF772
:107AF000D3FE394884420AD33848B4FBF0F2A2F5E9
:107B00002852CD3AB4FBF0F100FB114101E0002214
:107B100000213C23B1FBF3F003FB10108DF80000B3
:107B2000B1FBF3F0B0FBF3F103FB11018DF8011091
:107B3000B0FBF3F08DF802004FF4FA63901D0721BB
:107B4000B0FBF1F401FB14008DF8060040F2B550D3
:107B5000B2FBF0F103EB81018BB2B2FBF0F100FB61
:107B600011214FF4B770814201D303AA00E00AAAA1
:107B700081420AD3491E40F26D10B1FBF0F4234458
:107B80009BB2B1FBF0F400FB14111F20B1FBF0F02D
:107B9000401CC4B28DF8044032F81400884202D868
:107BA000641C8DF804409DF80400401E12F810007B
:107BB000081A401C8DF80300A3F5FA638DF8053010
:107BC0000098286001986860BDF80800288111B00D
:107BD00030BD00005057010180436D3880510100D5
:107BE00070B54279642302F5FA62B2FBF3F403FB49
:107BF000142242F6CD2340F26D145443D51C04EBFD
:107C000095041C44037940F26F1513FB05F50C260F
:107C1000A5F5B57595FBF6F5022B01D8002202E01B
:107C2000920716D00222AA1A2244C378521E134485
:107C3000094A534382784FF4616412FB04F442789A
:107C40000078C2EB021204EB820218441044086070
:107C500070BD0122E7E700008051010070B50646C3
:107C600042F2107405F032FD054605F02FFDA842E2
:107C700001D0641EF6D114B13060002070BD002028
:107C80003060012070BDA0F18070B0F5005F01D2BE
:107C900001207047002070470E4910F1210F06DACD
:107CA000086820F4704040F440500860704710F1BC
:107CB0001D0206D3086820F4704040F4804008603C
:107CC00070470A28FCDD086820F4704040F4A040AA
:107CD0000860704724C500A010B50AF01FFB09F02A
:107CE000A1FC0BF05BFA00F035FBBDE810400AF098
:107CF00083BA00002DE9F04F87B07B48D0F80090A0
:107D000000240025A24600260BF0BAFB7748016844
:107D1000C9F800104068C9F80400754800680830C8
:107D2000059009F108000690042203A9059800F0C7
:107D3000DDFABDF80C10A1F57F40FF3843D00822D2
:107D400003A9059800F0D2FABDF80E006DF434D501
:107D500000F0FF08BDF80C00002867D00698A9EBDA
:107D6000000707F58057BDF80E1008F1080083469C
:107D70000844B84263D805AB082203A906A800F05E
:107D8000EBF8BDF80E00002300EB080205A906A8D9
:107D900009F004FD641CBDF80E005844B842C3D17C
:107DA0000020CDE9006053464A46214628460BF0A4
:107DB000AFFF002826D1824600260024CDF8189077
:107DC0006D1CEDB2B0E70020CDE9006053464A4695
:107DD000214628460BF09CFF002813D16D1CECB205
:107DE000434D4FF48057434E08E0286800EB0430C1
:107DF000394603F049FE40B1641CE4B2707AA042F7
:107E0000F3D8002007B0BDE8F08F3B488169407A85
:107E100040F27C42CDE900200291384B38A24FF469
:107E20000041002000F4D4F30920EBE7BDF80E0078
:107E3000059908F1080808444044059074E7082FA4
:107E400029D305AB082203A906A800F085F8083F4E
:107E50002FB100233A4605A906A809F09FFC611C32
:107E60000020CDE9006053464A4628460BF050FFFB
:107E70000028C7D18246BDF80E004044C61B00242E
:107E8000CDF818906D1CEDB20023324605A906A866
:107E900009F084FC48E705AB3A4603A906A800F0C0
:107EA0005BF8611C03A8CDE9006053464A462846AA
:107EB0000BF02EFF0028A5D1C7F1080ABDF80E006F
:107EC00000EB08060024CDF818906D1CEDB20123DC
:107ED000524605A906A809F061FC0023324605A90F
:107EE00006A809F05BFC1FE778478000ACD50700C7
:107EF000CC238000D8328000641F8000D857010155
:107F0000523A353A25732C204C256420666C6173F7
:107F100068207374617465203078253032582C20C5
:107F20006572726F72203078253038580D0A000063
:107F30000221B0FBF1F2FF2A04D8B0FBF1F201FB01
:107F400012022AB1491CC9B24029F2D3002070475D
:107F5000B0FBF1F0C0B2704770B5044615461E463E
:107F60002A462068FAF753FC3068284430602068BD
:107F70002844206070BD000010B50548017B491CF5
:107F80000173002071F432D6BDE8104000F050B803
:107F9000AC4880002DE9FE43FEF7CDFE1E48016887
:107FA00021F4003101601C4E083E30681B4980B24C
:107FB000084330601A4803C8CDE9000116482C3840
:107FC0000068C82100F007001DF8000010FB01F553
:107FD00014480768144CD4F800803846414603F032
:107FE00099FC62686068831AAB42FBD3414638460D
:107FF00003F070FC09F092FB02909DF8080028B194
:108000009DF80800094948618861C861306820F01E
:108010007F403060BDE8FE8330C500A000008F11B6
:10802000AC820001FCED00E0001000E0AC488000F4
:108030002DE9FC412D4E306820F07F4040F0885003
:1080400030602B4803C8CDE9000128482438006877
:1080500000F007011DF80100C82110FB01F52548BB
:108060000768254CD4F800803846414603F052FC9E
:1080700062686368981AA842FBD34146384603F009
:1080800029FC002509F04AFB0446DFF87080D8F887
:108090001800844201D9012700E0002771F44CD474
:1080A00040B91FB1D8F81800201A02E0D8F818001B
:1080B000001BC5B2D8F81800C8F82000B5EB900F27
:1080C00003D8292C01D8112C02D200F019F807E0AE
:1080D00000EBC00020440A21B0FBF1F0C8F8180002
:1080E000306820F07F403060BDE8FC8128C500A0EA
:1080F000AC820001FCED00E0001000E0AC48800024
:108100002DE9F04F87B0002006900824DFF8908119
:108110001A20C8F8140063480168634A89B2114301
:10812000016005A8FBF77CFF0220FBF781FFDFF869
:10813000749109F10809D9F8000020F47C3040F46A
:108140002030C9F8000059A003C8CDE90201DFF8CA
:1081500054A1AAF1240ADAF8000002A900F00700ED
:10816000085CC82110FB01F5DFF848B1DBF800001E
:108170000190514F3E680198314603F0CBFB78687F
:108180007968091AA942FBD33146019803F0A2FB92
:1081900009F0C4FA04909DF81010D8F81400814238
:1081A00004D99DF81020811C8A4263D99DF81010D3
:1081B000814204D29DF81020811E8A425AD29DF835
:1081C0001010814201D9012500E0002515B1641C81
:1081D00064B201E0641E64B2202C11D3D9F800000F
:1081E00020F47C3040F42030C9F80000D8F83C007E
:1081F000401CC8F83C00002004900120069039E0A3
:10820000D9F8000020F47C3040EA043040F400301B
:10821000C9F8000025A003C8CDE90201DAF8000082
:1082200002A900F00700085C642110FB01F6DBF8EE
:108230000000019038680090DDE9001003F06AFB4F
:1082400078687968091AB142FBD3DDE9001003F0C0
:1082500041FB09F063FA049035B19DF81000D8F89D
:1082600014108842B2D805E09DF81000D8F8141018
:108270008842ABD39DF81400FBF7DAFE0948016889
:1082800021F07F4101609DF81000C8F81800D8F86F
:108290002400401CC8F82400069807B0BDE8F08F01
:1082A000AC48800028C500A000008F114030101895
:1082B00010200000FCED00E0001000E00A49322828
:1082C00008DDD1F8200220F4706040F44070C1F85D
:1082D000200270472828FCDAD1F8200220F47060D0
:1082E000C1F820027047000000E000A02DE9F04135
:1082F00005460E461746094C2378002B02D0002075
:108300006DF4CED53A463146284603F00BFC0546BF
:1083100020786DF4C5D52846BDE8F081C9238000DA
:108320002DE9F04105460E461746094C2378002BEF
:1083300002D000206DF4B4D53A463146284603F009
:1083400021FC054620786DF4ABD52846BDE8F081C8
:10835000C92380000121024A002067F4059400002F
:108360002DAD000110B50446012160680170104870
:10837000636802785A7002886368120A9A70026809
:108380006368120CDA7000686268000E1071606831
:10839000417161682822891D064803F0D3FB2288B9
:1083A0003621606867F4A2D303490020087010BD2D
:1083B000C4938000002000014825800010B540686B
:1083C00001780F48012914D00E49C1620AF0EAFA77
:1083D0000D4C4FF48051204603F056FB30220849E3
:1083E000204603F0BFFB0AF0EFFABDE81040FDF7AE
:1083F000AD9B0649C16206490020087010BD00000F
:10840000C4938000424E425300300001425942441E
:108410004825800070B504460D46164630211448A4
:10842000FAF78EFA0CB113484460324612491148EB
:1084300067F43AD10E480560104A0121002067F424
:1084400093D30F4A2321062067F48ED30D4A2521AA
:10845000082067F489D30C4A41211C2067F484D397
:108460000A4A42211D2067F47FD3002070BD00001E
:10847000C493800098458000049C80007DAD00017D
:10848000090B0101B1090101BD83000165830001F0
:1084900010B567F4D3D2BDE8104000F09DB9FFF7E6
:1084A000F7FF64200BF0E4FAF9E7000008B50028B4
:1084B00001D00449886104480090684607F042FEF4
:1084C00008BD00007C4580003100010101200A49FF
:1084D0000968002901D0002070470849CA690AB11B
:1084E00000207047044A283212688968491E8A426F
:1084F000F7D1022070470000A0BD80003446800004
:1085000010B5104C02220421204605F0A1FA0122E8
:108510001021204605F09CFA02228021204605F019
:1085200097FA02224021204605F092FA02222021E9
:10853000204605F08DFA20460222BDE810400821B1
:1085400005F086BA001001A02DE9F04782462DED16
:10855000028B84B08946174698460020029003900B
:1085600000250026019001A80AF076FC3748016832
:1085700021F4C07141F080010160416821F4805113
:108580004160002450460AF031FA09F0E5F902F0A2
:1085900009FB02900298064448460AF027FA09F0BF
:1085A000DBF902F0FFFA0390DDE90210401A0544FE
:1085B000641C072CE6DB28460CF08BFB9FED248B1C
:1085C00053EC182B0CF0D0F941EC100BFBF7C8FD65
:1085D00051EC100B0CF050FB044630460CF079FBCC
:1085E00053EC182B0CF0C0F941EC100BFBF7B8FD65
:1085F00051EC100B0CF040FB03460020164A1CE027
:1086000000FB04F1B1FBF7F119440291134D0299FB
:10861000B5FBF1F108F80010114D0299B5FBF1F12D
:108620009DF804502944C9B21154802903D90D4D35
:108630002D7829441154401CC0B2B842E0D309F04F
:1086400067F904B0BDEC028BBDE8F087802001B073
:108650000000000000001C40F87F810000C0A8322C
:108660000080D725884A800070B505460C460AF080
:1086700099F922460949284666F45CD70AF0A4F91C
:108680000020064D064B05E0295C1A68114419606C
:10869000401C80B2A042F7D370BD0000049480005B
:1086A0009024800070B5144D0126144C2889E98867
:1086B000884215D01249096801EB0030310366F495
:1086C000B5D6022140B12889401C288126706170EE
:1086D000A070000AE07008E021700520607004E0DE
:1086E00000206870267003206070BDE8704023226F
:1086F0000421024867F4FA917C458000049C8000C4
:108700008C2480002DE9F041304809F0F1FB82B261
:108710004FF4006700262E4DBA421ED32B493A462D
:1087200010312A4809F0F9FB84B20AF03BF92749D5
:1087300022461031E86866F49DD70AF045F92146D3
:10874000E868FFF791FF686920446861E8682044A1
:10875000E860204667F4FAD029E068692969104486
:10876000884224D119491948103109F0D6FB84B246
:1087700084B10AF017F9154922461031E86866F409
:1087800079D70AF021F92146E868FFF76DFF68699B
:1087900020446861204667F4D9D00120A8700D49B3
:1087A0000870FF2201210B4867F4A0D16E70287871
:1087B000A978884308D0054809F0F3FBB84203D9EB
:1087C0005A200AF06DFC2E70BDE8F081F493800011
:1087D0007C458000049C800005484078012803D037
:1087E000022803D1FFF78EBFFFF75CBF7047000080
:1087F0007C45800010B50A460146094809F0E9FBAE
:10880000074809F0CEFBB0F5006F07D205480178A4
:10881000002903D1044A11700121017010BD00002C
:10882000F49380007C4580001E0680002DE9FE4FF9
:1088300007460D4602AA294638460AF0EBFE10B15B
:108840000298BDE8FE8F029C00260296DFF8688041
:1088500098F8000010B100206DF422D3DFF85CA07E
:108860004FF6FF7908226946204603F05BF9BDF810
:108870000000484502D12E80029617E0B84206D18A
:1088800015B1BDF802002880083402940EE0BDF84E
:1088900002006CF491D7BDF802100830214444184E
:1088A000DAF800008442DDD32E80029698F80000AA
:1088B0006DF4F6D20298C4E7C9238000D02380006B
:1088C00070B506460024094D0BE004EBC40005EB2F
:1088D0008000801C07223146F9F74EFF20B1641C4E
:1088E000E4B22878A042F0D8204670BDF87C810020
:1088F00010B50021084B5A681B8809E052F8314036
:10890000844203D102EBC100406810BD491C89B20A
:108910009942F3D310BD0000DC46800010B5002161
:10892000084B5A681B8809E052F83140844203D151
:1089300002EBC100406810BD491C89B29942F3D3D3
:1089400010BD0000F44680000349095C002902D0F4
:10895000002105F0A9BD7047627E810010B58842F4
:1089600010D808290ED2094B074A5A6006E003EBDB
:108970008002946844F001049460401C8842F6DD53
:108980000320186010BD000000400030002000E00F
:108990002DE9F047164F3868002826D04FF000091F
:1089A000002400250526DFF84C8013E005EB450187
:1089B000012018F8212090403A68104208D008EBB6
:1089C00081032246D3E90101641CE4B200F01CF8E3
:1089D0006D1CEDB2B54201D2062CE7D3641EE1B2A4
:1089E0004846BDE8F047FFF7B9BFBDE8F087000093
:1089F000D8468000F456010113B501216846FCF702
:108A0000B5FB01201CBD000070B505461446114899
:108A100040F8345000EBC4004160284602F0CEF923
:108A20000646FF2002F0E0F9014625F001000A4B5E
:108A3000850703EB8402094B06D0801E906006EB8D
:108A4000014043F8240002E0906043F824102046DF
:108A500070BD0000643D8000002000E00040003058
:108A60002DE9FC410C46474A6178A07852F8211064
:108A7000CDE90010237844A210210020FFF7A8DDE3
:108A8000607801264F4F052530B1012837D00228E4
:108A900049D0032872D15AE0207869F4FFD5C0B2DA
:108AA000C0EBC00107EB81014D72A278452A09D1C4
:108AB000CA681278022A17D091F82020022A01D021
:108AC00081F8206091F82020012A04D0022A02D0E7
:108AD000032281F8202091F82020022A4ED0C96874
:108AE0000978022906D102E007224A72EAE7A17852
:108AF000452943D0344A0021126890473EE087F868
:108B00009950A078452805D197F89C00022801D0FB
:108B100087F89C6097F89C0002282FD02B490020F2
:108B2000096888472AE087F8A550A078452805D12C
:108B300097F8A800062801D087F8A86097F8A80041
:108B400006281BD0224900200968884716E02078B3
:108B500069F406D6C0B207EB001181F8B150A278D3
:108B6000462A01D0CE2A01D181F8B35091F8B31032
:108B7000022903D0174A0021126890470020BDE85F
:108B8000FC81000068228000523A313A616374200F
:108B900073746F707065642C206163745F696478AE
:108BA0003A2025642C206163745F747970653A20E3
:108BB00025732C20726561736F6E3A2030782530F2
:108BC00032780A007C278000102280001422800066
:108BD000182280001C22800010B58AB00C46FF22AB
:108BE00028216846F9F704FB40F20A20ADF800009E
:108BF000ADF802406846FEF7D1F80AB010BD10B5D6
:108C00008AB00446FF2228216846F9F7F1FA40F2BB
:108C10000D20ADF800000020ADF802001C22214616
:108C200002A8F9F7F4FD1C3409946846FEF7B6F87B
:108C30000AB010BD30B58BB005460C46FF22282186
:108C400001A8F9F7D5FA40F20722ADF80420ADF8F3
:108C500006408DF8085001A8FEF7A0F80BB030BD13
:108C600037B58AB005460C46FF2228216846F9F739
:108C7000BFFA4FF40272ADF80020ADF802408DF853
:108C800004509DF830008DF808006846FEF786F81D
:108C90000DB030BD00B58BB0FF22282101A8F9F737
:108CA000A7FA4FF44170ADF804000020ADF80600BB
:108CB00001A8FEF773F80BB000BD00002DE9FF47D7
:108CC0000C4666788DF80D6020784FEA1329CDE9BF
:108CD00000905A4B5AA2102102960020FFF778DC30
:108CE00020786449644F4FF0000801EBC90509285A
:108CF00061D008DC092824D2DFE800F09A8B9A4A78
:108D00004A9A9A24240017282FD004DC0B2807D075
:108D1000142816D16AE0182814D0192811D111E0AE
:108D2000607822280DD1002067F4AAD25348006849
:108D300028B143681BB100220F214846984767F4C9
:108D4000D5D275E068F492D1044685F805800020FC
:108D500067F496D2386828B1436D1BB1224631467C
:108D60004846984767F4C2D262E068F47FD104466F
:108D700085F80480002067F483D2386828B18368BE
:108D80001BB1224631464846984767F4AFD24FE0C0
:108D900068F46CD1044685F80680002067F470D230
:108DA000386828B1836D1BB1224631464846984742
:108DB00067F49CD23CE068F459D1044685F80280FF
:108DC000002067F45DD2386830B1C36C23B136B18E
:108DD000224631464846984767F488D228E0002C5E
:108DE000FAD02246314648469847F5E768F43ED126
:108DF000044685F80380002067F442D2386828B121
:108E0000C36D1BB1224631464846984767F46ED27F
:108E10000EE0607860B1002067F432D2386828B183
:108E2000C36B1BB1617800224846984767F45ED255
:108E300068F422D104B00020BDE8F087E5570101B5
:108E4000523A313A25733A20636F6E696478203D57
:108E50002025642C206F70636F6465203D2030589E
:108E600025782C206572726F72203D20305825784D
:108E7000000000002A27800098218000EC23800059
:108E800010B58AB00446FF2228216846F9F7B0F9E8
:108E900040F20331ADF80010ADF802406846FDF72E
:108EA0007DFF0AB010BD70B58AB005460C46164667
:108EB000FF2228216846F9F79BF940F20131ADF80D
:108EC0000010ADF802408DF804501222314602A87D
:108ED000F9F79DFC6846FDF761FF0AB070BD70B5FB
:108EE0008AB006460D461446FF2228216846F9F747
:108EF0007FF94FF44273ADF80030ADF802508DF8B1
:108F0000046020680290A088ADF80C006846FDF768
:108F100045FF0AB070BD00002DE9F041ADF50E7DB2
:108F20000C461E0A30465FF455D7074630465FF4BC
:108F300051D7002834D04DA1009133464DA21021C5
:108F40000020FFF745DBFF2E5BD0574D208828809F
:108F500060886880A088A880E088E880207A2872ED
:108F6000607A68722F74D4F80A00C5F80A00E089A4
:108F7000E8814E4A002102EBC60001604160218871
:108F800022F836104FF4CA7129A8F9F7D9FC29A89C
:108F90005CF448D4687ADFF81881012816D101E022
:108FA00044A1C9E7E87B0121B1EB901F0ED198F8ED
:108FB0001C0140070AD59DF8A40038B1A02101A8E2
:108FC000F9F7BEFC002429AD01AF3DE004F10A022F
:108FD000617A1546304671F4EFD1617A2A463046FF
:108FE00001F06AF9354C6FB1002067F449D120686F
:108FF00028B1836B1BB12C4A00213046984767F497
:1090000075D12DE0032088F8A800D8F8AC000078CE
:10901000012825D1002067F433D1216829B18B6B59
:109020001BB1214A00213046984767F45FD117E011
:1090300004EB840005EBC001093107EB041010229A
:10904000F9F7E5FB641CE4B29DF8A400A042EFD858
:1090500015499DF8A43001AA0A3130466AF452D06D
:109060000DF50E7D0020BDE8F0810000534C415607
:1090700045000000523A313A636F6E6E6563746961
:109080006F6E5F7265715F696E645F68616E646C5C
:1090900065723A20636F6E6964782025642C2072B3
:1090A0006F6C652025730A00182780002A2780002E
:1090B0007C2780004D415354455200009821800088
:1090C00070B58AB006460D461446FF222821684630
:1090D000F9F78EF840F20533ADF80030ADF80250E4
:1090E0008DF8046020680290A088ADF80C006846F6
:1090F000FDF754FE0AB070BD30B58BB005460C4686
:10910000FF22282101A8F9F773F840F20632ADF8E2
:1091100004200022ADF806208DF808502068039046
:109120006068049001A8FDF739FE0BB030BD000067
:109130002DE9F0410D46E879FF2819D01B4FB96899
:1091400089B3002469F48AD2C6B216B1032E05D0C1
:1091500008E0E87969F4A2D2C4B203E0E87969F4DE
:10916000FFD2C4B2BB682A462146304698471AE06F
:1091700000210E2062F4B8D30446A4B1012020706F
:109180002868C4F80300A888A4F80700A8796072CA
:10919000E87969F483D2A0700E21204667F47AD76B
:1091A000204662F49FD30020BDE8F0814447800050
:1091B00030B58BB004460D46FF22282101A8F9F7EF
:1091C00017F840F20622ADF80420ADF806400E2252
:1091D000294603A8F9F71BFB01A8FDF7DFFD0BB03B
:1091E00030BD000030B58FB006200E9000250795E9
:1091F000514C032020700F20607084F82F5084F8A9
:109200002E504FF40070E08420850A2084F82A0054
:109210001B2060844FF4A470A0840CAA0EA9012026
:1092200062F4F8D738B108A809F04AFE18B907A8BF
:1092300009F088FFD0B1A5764FF461706080208C72
:1092400040F08000208405A84BF474D0059806995E
:109250000844F9F773FA019502950395049508A857
:1092600009F02EFE344C0A34E8B35EE00120A0760B
:109270003248007820B39DF82000412813D09DF893
:109280002A0020719DF82D0060719DF82E00A071BC
:109290009DF82F00E071BDF81C002072C02141EA4A
:1092A00010206072C8E79DF8280020719DF8290001
:1092B00060719DF82A00A0719DF82B00E071EAE72B
:1092C0009DF82000412815D09DF82A00A0719DF836
:1092D0002D00E0719DF82E0020729DF82F0040F0C7
:1092E000C000607200E014E0BDF81C006071000A6C
:1092F0002071A1E79DF82800A0719DF82900E07178
:109300009DF82A0020729DF82B0040F0C00060728A
:10931000E8E7102201A908A8F9F72EFA28B11022CF
:1093200008A92046F9F773FA02E0204670F490D7B6
:1093300003F096FB0FB030BD7E28800044478000CC
:1093400070B58AB005460C461646FF2228216846AD
:10935000F8F74EFF40F20233ADF80030ADF80240AE
:109360008DF804508DF808606846FDF717FD0AB0C7
:1093700070BD000070B50D46EFF311801D490A78ED
:109380001D490968C1F30221491C01248C401119AF
:10939000C9B281F311881C0A1849002301EBC402E9
:1093A000136053604FF6FF7221F83420C0B280F38F
:1093B0001188AB7812A210210020FFF709D92046AE
:1093C00071F492D020466BF407D5204670F494D700
:1093D000002066F455D7114802683AB1D36B2BB11F
:1093E000A8789030C2B200212046984766F47ED714
:1093F000002070BD02E400E00CED00E02A278000B0
:10940000523A313A646973636F6E6E2072656173AC
:109410006F6E203D20307825780A0000982180006A
:109420002DE9FC5F0446EFF311877048017870481E
:109430000068C0F30220401C4FF0010B0BFA00F053
:109440000844C0B280F3118866F450D78146694D54
:109450000094DFF8A48195F8A50068A2102158F8BF
:1094600020300020FFF7B4D88DF8054095F8A530DE
:1094700007200C210D2200264FF0090A0A2B74D276
:10948000DFE803F0050C9C9C9C19283C424D68F4D5
:1094900099D285F8A5B085F8A86095E0002C09D090
:1094A00085F8A56085F8A6608DF8041001A9002054
:1094B00066F4E2D788E095F8A600A22804D068F404
:1094C0006FD485F8A5A07FE06AF43CD3062085F828
:1094D000A50079E04CB168F463D485F8A5A0042018
:1094E00085F8A80085F8A9406EE085F8A5008DF8FC
:1094F000041001A9002066F4BFD765E06AF474D4B3
:10950000082085F8A5005FE0002C5DD085F8A50057
:109510008DF8042001A9002066F4AED754E0A435EC
:109520006E70FF2028702879A43D042807D00628F3
:1095300012D03F4C012819D0032824D044E085F8EC
:10954000A8608DF8041095F8A9008DF8050001A910
:10955000002066F491D737E085F8A8608DF80420E4
:1095600001A9002066F488D72EE027E085F8A860DE
:10957000002066F485D6206810B1406C00B18047A9
:1095800066F4B4D620E085F8A860D5F8AC00007881
:10959000012819D0002066F473D6206858B1806B7A
:1095A00048B1244800886CF43DD12168C0B2214AFA
:1095B0008B6B0021984766F499D605E040F2C232E1
:1095C0001DA123A0FFF702D895F8A50021A2102124
:1095D00058F820300020FEF7FBDF484666F450D6EE
:1095E000F8B280F31188BDE8FC9F000002E400E0BF
:1095F0000CED00E07C27800028228000523A313AAE
:10960000696E69745F66736D20656E7465722C2077
:10961000696E69745F73746174653A2025732C20D8
:10962000737461747573203D2025640A0000000086
:109630009821800018278000626C655F73646B5FFF
:109640006761706D5F70617463682E630000000075
:1096500030000000523A313A696E69745F66736D8A
:1096600020657869742C20696E69745F7374617405
:10967000653A20257300000070B58AB006460D4695
:109680001446FF2228216846F8F7B2FD40F20A335B
:10969000ADF80030ADF802508DF8046020680290FB
:1096A000606803906846FDF779FB0AB070BD30B57D
:1096B0008BB005460C46FF22282101A8F8F798FD3B
:1096C0004FF6FF72ADF80420ADF8065034B1012C0E
:1096D00009D0022C0CD0032C13D10EE04FF40070F3
:1096E000ADF804000DE040F20120ADF8040008E000
:1096F00040F20220ADF8040003E040F20320ADF890
:10970000040001A8FDF74AFB0BB030BD30B585B0B1
:1097100000205EF415D10D222CA100205DF480D430
:1097200004464CB114222D496846F9F7B5F8ADF856
:1097300004406846FBF7A2F82948A02181814181B5
:109740000025057007218173012141708570024653
:10975000002108465CF46CD5044654B114221F491C
:1097600014316846F9F798F8ADF804406846FBF7FD
:1097700085F81A4A00211823283A08465CF4D0D408
:10978000044654B11422154928316846F9F784F883
:10979000ADF804406846FBF771F8104A0F23103A01
:1097A000012100205CF4BCD4044654B114220B49BE
:1097B0003C316846F9F770F8ADF804406846FBF7AD
:1097C0005DF808480580857005B030BD476F6F644F
:1097D00069785F54656D5F4F5300000008560101C2
:1097E000A67A8100D446800070B58AB006460D4640
:1097F0001446FF2228216846F8F7FAFC40F20933A4
:10980000ADF80030ADF802508DF804602068029089
:10981000606803902089ADF810006846FDF7BEFA35
:109820000AB070BD30B58BB005460C46FF2228212A
:1098300001A8F8F7DDFC40F20731ADF80410002173
:10984000ADF806108DF80850206803906068049009
:109850000834059401A8FDF7A1FA0BB030BD70B52E
:109860008AB005460C461646FF2228216846F8F7BE
:10987000BFFC4FF44073ADF80030ADF802408DF8F6
:1098800004503088ADF808006846FDF787FA0AB042
:1098900070BD30B58BB004460D46FF22282101A8CB
:1098A000F8F7A6FC4FF6FF72ADF80420ADF80640BD
:1098B00045B140F20520ADF8040001A8FDF76EFAAD
:1098C0000BB030BD4FF40170ADF80400F5E730B5D2
:1098D0008BB005460C46FF22282101A8F8F788FC2A
:1098E00040F21122ADF80420ADF806502068039034
:1098F000A088ADF81000A0798DF8120001A8FDF73E
:109900004DFA0BB030BD10B58AB00C46FF222821AD
:109910006846F8F76DFC40F20920ADF80000002021
:10992000ADF8020020680290A088ADF80C00A07984
:109930008DF80E006846FDF731FA0AB010BD10B57B
:109940008AB00446FF2228216846F8F751FC40F20D
:109950000B21ADF80010ADF802406846FDF71EFA85
:109960000AB010BD13B58AB00446FF22282168460C
:10997000F8F73EFC4FF40371ADF80010ADF802406B
:109980009DF82C008DF808006846FDF707FA0CB02A
:1099900010BD30B58BB005460C46FF22282101A82A
:1099A000F8F726FC40F20F22ADF80420ADF806408F
:1099B0008DF8085001A8FDF7F1F90BB030BD70B576
:1099C0008AB004460D461646FF2228216846F8F75D
:1099D0000FFC40F20E20ADF80000ADF8025010224E
:1099E000314602A8F8F713FF8DF804406846FDF7EA
:1099F000D5F90AB070BD10B58AB00446FF222821FF
:109A00006846F8F7F5FB4FF40471ADF8001000213B
:109A1000ADF802108DF804406846FDF7BFF90AB0B2
:109A200010BD00002DE9F041044618460026002331
:109A300000256FF48857E4191C4F06D0012C07D07D
:109A4000022C0CD0032C0CD105E03B687D6808E0AB
:109A5000BB68FD6805E0BB69FD69087801E03B690A
:109A60007D6900241CE033F83470874217D103EB82
:109A7000C4035C68B4B10E4B9C4204D1034602F0AF
:109A8000C7FD06460EE00B4B9C4204D1034602F094
:109A90003DFC064606E00346A047064602E0641C7D
:109AA000AC42E0D33046BDE8F08100007002800097
:109AB000116F02009D3E020070B540240221C5884E
:109AC000584BEA0704D093F86D100A2909D00A21EF
:109AD0004279042A0CD354A210210020FEF778DD2D
:109AE0009EE043245C4A10210020FEF771DD97E0E0
:109AF00012B1032A00D00A2193F86C30994306D0A2
:109B0000422456A210210020FEF762DD88E003798E
:109B1000022B05D95DA210210020FEF759DD7FE060
:109B2000690706D52AB1664A10210020FEF750DDEC
:109B300076E053B125F01001C1800D0730D5614AA0
:109B400010210020FEF744DD6AE045F01001C180DD
:109B50008D0601D44D0605D55B4A10210020FEF785
:109B600037DD5DE0CD0711D04D0707D48D070DD44B
:109B7000564A10210020FEF72BDD51E08D0705D558
:109B8000534A10210020FEF723DD49E04D0730D570
:109B9000C9072ED14F4A10210020FEF719DD3FE002
:109BA000012B02D0CD071ED119E0CD0707D08D07BC
:109BB00005D5494A10210020FEF70ADD30E08D0668
:109BC00017D5012A05D0022A03D0CD0701D1890774
:109BD0000FD5414A10210020FEF7FADC20E08D0766
:109BE00001D4890605D53D4A10210020FEF7F0DC9E
:109BF00016E0022B13D2407A032805D938A210218F
:109C00000020FEF7E5DC0BE0012A01D0022A06D194
:109C100028B13F4A10210020FEF7DADC00E00024E2
:109C2000204670BD000E8000523A313A5B455252D8
:109C30005F494E56414C49445F504152414D5D3A57
:109C400020436865636B20646973636F766572791E
:109C5000206D6F6465210A0090650101523A313A26
:109C60005B4552525F4E4F545F535550504F5254C4
:109C700045445D3A20726F6C65206E6F7420737579
:109C800070706F72746564210A000000523A313AB4
:109C90005B4552525F494E56414C49445F504152D8
:109CA000414D5D3A20436865636B2061647665725F
:109CB000746973696E672074797065210A00000009
:109CC00030660101D865010164640101506701013A
:109CD000F0660101AC6701018C660101C4640101F9
:109CE000523A313A5B4552525F494E56414C4944D3
:109CF0005F504152414D5D3A20436865636B206679
:109D0000696C74657220706F6C696379210A000058
:109D10002465010100280CD059B1092909D9064A46
:109D200090600A20B1FBF0F050800020908001206C
:109D30007047002070470000604A800002490148D7
:109D400008607047B99A0001F4038000F0B5ADB027
:109D500004460D4616461F462878032804D00128DD
:109D600009D0172812D008E00220FEF753DCF821B2
:109D7000FBF7E4FF01E003F02DFB2DB03B4632463C
:109D800029462046BDE8F0406AF4549267F46ED14B
:109D9000044620780A2825D300202B902C90687840
:109DA00070B96946E01D5BF4A1D59DF829008DF8D6
:109DB000B200DDF823002B90BDF82700ADF8B0000D
:109DC000244E706848B1002066F45AD27368227835
:109DD00068782BA9984766F489D267F44DD10020A2
:109DE0002DB0F0BD68781C4E20B330886BF41AD5C6
:109DF000C4B202A80090184B69780A33727A1D46E3
:109E0000204671F43DD0717A2A46204600F054FA7B
:109E1000002066F435D21148016829B18B6B1BB163
:109E20000D4A00212046984766F460D267F424D199
:109E30000020D5E702A9E01D5BF458D59DF831005C
:109E40007072DDF82B00C6F80A00BDF82F00F08113
:109E50002478CEE7444780001827800098218000AE
:109E60002DE9FC5F0C4692A00068019001AA2146F2
:109E70000020FEF7D1DB8346BBF1010F7DD1002628
:109E8000607800F00F07DFF82C8298F86C006070A3
:109E9000002008B14226FBE0A18C608CFEF7BEDBFF
:109EA00008B14026F4E04FF0000A88F86EA088F868
:109EB0006CA0FEF7B5DB0A20B8434FF4006902D06E
:109EC0000520B8437ED17C480078C0077BD01F2096
:109ED00094F82010490606D57F2098F86E1041F0BE
:109EE000200188F86E1017F0050F04D0A17E4907F5
:109EF00001D540F4C07040F4C06588F880A0208C83
:109F0000000402D5012088F88000208C400405D58B
:109F100098F8800040F0020088F88000A08B294665
:109F2000FEF780DB064630007ED194F8200010F06A
:109F3000380F15D00420FEF76DDB94F82010C1F324
:109F4000C202521E4FF6FF7101EA82020C21FEF797
:109F50006BDB0420FEF75EDB49460A46FEF764DB56
:109F600094F82000400717D00220FEF753DB94F846
:109F7000201001F00702521E00E08FE04FF6FF7143
:109F800001EA82020C21FEF74FDB0220FEF742DBE2
:109F900049460A46FEF748DB15F4C06F1AD0002187
:109FA000002005F001021144C9B26D08401CC0B286
:109FB0002028F6D3B8F8500028B1CDF800A0491EEB
:109FC000084401E01EE005E080B26B46002201215A
:109FD000FEF72CDB38480078800713D594F8200072
:109FE000000605D598F86E0040F0400088F86E0035
:109FF00094F82000C0F3C011E08BFEF719DB064691
:10A00000300045D1022048F4CBD688F86C70FEF7BA
:10A0100011DB88F875A094F82A0088F8740098F885
:10A020006C00800822D000E032E04120E17E88F818
:10A030006F108A0704D421F0020088F86F001720FF
:10A04000E18C494500D349468946484500D98146B7
:10A050001FFA89F1A8F87010228D8A4200D21146A9
:10A06000884200D80846A8F8720001E088F86FA07E
:10A070001048102204F10A015630F8F7C8FBA07E00
:10A08000C00705D06068C8F866002089A8F86A0093
:10A090003EB10A4A31460020126890475846BDE852
:10A0A000FC9F074A0021084612689047F6E7000027
:10A0B00003000000000E8000F8038000EC03800025
:10A0C000FC0380002DE9FE4F824688469146002021
:10A0D000019002902F4B30A24021FEF779DA3248EE
:10A0E0000068002854D005684AE0A888401C84B263
:10A0F000EF8828896EF494D0064623462BA240218F
:10A1000000200097FEF764DA37E001A920465AF4F0
:10A11000F9D628BB42F6021101A85AF4F9D6F8B1D3
:10A1200023462BA240210020FEF752DA5FF42ED7FF
:10A1300080B15FF42BD7C01CA04204D12146484611
:10A140006AF4A4D340B15EB1306948B1B8F1000FF0
:10A150000CD106E00020EFE7002150465EF43CD62B
:10A1600009E0214648466AF491D320B933690022B8
:10A17000214650469847641CA4B2BC42C5D92D68FC
:10A18000002DB2D1034B1AA240210020FEF720DAA5
:10A19000BDE8FE8F25580101523A333A5B25735DC5
:10A1A00020656E7465720A00E0228000523A333AEC
:10A1B00073746172745F68646C3D307825782C200C
:10A1C000656E645F68646C3D307825780A00000035
:10A1D000523A333A636C6561722063636364206151
:10A1E000742068616E646C653D307825780A0000E3
:10A1F000523A333A5B25735D20657869740A000032
:10A2000070B505460548446804E0E16809B1284690
:10A2100088472468002CF8D170BD0000A048800059
:10A2200010B50E4B1B78984210D200EB40030C483F
:10A23000006800EB83100B68C0F803308988A0F831
:10A2400007108270012100F8021B10BD05A24021F9
:10A250000020FEF7BDD9002010BD0000E4238000DF
:10A26000DC228000523A333A676174742066696E6A
:10A2700064206974656D2C206E6F7420666F756E36
:10A28000640A000070B58AB005460C461646FF22E7
:10A2900028216846F7F7ACFF4FF4C063ADF80030F3
:10A2A000ADF802408DF80450ADF806606846FCF742
:10A2B00075FD0AB070BD00002DE9FC4107460E4651
:10A2C0001446234B23A240210020FEF781D900250C
:10A2D00038466BF401D18DF8066020680090A088A4
:10A2E000ADF80400324621463846FFF799FF044690
:10A2F0007CB1214668465BF455D203465BB119A296
:10A3000040210020FEF764D9384600F0EBF8012523
:10A310000EE001250CE0237A19A240210020FEF76F
:10A3200057D9207A88B12246694638466AF4B2D5B0
:10A33000224629463846FFF7C5FE054B1AA24021A2
:10A340000020FEF745D9BDE8FC810125F0E70000BB
:10A350003B580101523A333A5B25735D20656E74B8
:10A3600065720A00523A333A626F6E64206D67720A
:10A3700020676574206572723D307825780A000088
:10A38000523A333A626F6E64206465762072656378
:10A390006F6E6E6563742C2063636364206E756DED
:10A3A0003D307825780A0000523A333A5B25735DD8
:10A3B00020657869740A00003EB505461B4B1CA257
:10A3C00040210020FEF704D901A9284608F0A8F88A
:10A3D00000281DD01AA240210020FEF7F9D89DF8D0
:10A3E0000A2001A92846FFF71BFF044684B118A2E2
:10A3F00040210020FEF7ECD8207A0090E3791AA2E1
:10A4000040210020FEF7E4D8214601A85BF41CD3CC
:10A41000284600F067F828466BF476D0034B1BA261
:10A4200040210020FEF7D4D83EBD000004580101B1
:10A43000523A333A5B25735D20656E7465720A008B
:10A44000523A333A626F6E646564206465760A003E
:10A45000523A333A73617665206363636420696EB0
:10A46000206E7664730A0000523A333A7570645F66
:10A47000666C6167203D2025642C20636363645F04
:10A480006E756D203D2025640A000000523A333A73
:10A490005B25735D20657869740A000002490148F4
:10A4A00008607047B9A30001D822800030B58BB096
:10A4B00004460D460A4B00221A70FF22282101A8EB
:10A4C000F7F796FE40F20162ADF80420ADF80640C1
:10A4D0008DF80A5001A8FCF761FC0BB030BD0000FC
:10A4E000A048800070B504460BA240210020FEF772
:10A4F0006FD81048007884420DD20F4D04EB44040D
:10A50000C021286800EB8410F8F7F8F929680020CA
:10A5100001EB8411087070BD523A333A676174746C
:10A520002072656D6F7665206974656D20656E7447
:10A5300065720A00E4238000DC22800070B58AB0D6
:10A5400006460D461446FF2228216846F7F750FEBE
:10A5500040F20452ADF80020ADF802508DF80460CE
:10A5600034F8040BADF8080003946846FCF716FCB9
:10A570000AB070BD70B58AB006460D461446FF227B
:10A5800028216846F7F734FE40F20352ADF8002068
:10A59000ADF802508DF8046034F8040BADF80800F3
:10A5A00003946846FCF7FAFB0AB070BD2DE9FF5F23
:10A5B0000D4602984FEA102902214846FEF73CD882
:10A5C000002876D00178152901D0162971D14FF0D5
:10A5D00000088088C0B100218A46604E56F82920C4
:10A5E00034321068002430B18788A7F540631A3BE5
:10A5F00001D10C3004462878801E062819D2DFE8E5
:10A6000000F01111131618064FF0440890E03CB109
:10A610001046FEF713D8204625F40ED6002401E09C
:10A620004FF04108012104E04FF0050A01E04FF02E
:10A63000070AE9BB5FE0FEF701D80746B888A0F536
:10A640004061043905D04FF04108384625F4EAD579
:10A6500051E03D460C3568882988401A86B2642E40
:10A6600000D9642606EB460000EBC601162000EB7D
:10A6700041008346022125F4E7D048B30221484631
:10A68000FDF7DEDF01461FFA8BF340F61A40029A0F
:10A6900025F486D50446288860826888A0822879B7
:10A6A00020702A79691D601CF8F7B1F8384601E07E
:10A6B00018E04CE025F4B6D586B121460C39274880
:10A6C00050F829003430FDF7BDDF4FF0040A12E0E6
:10A6D0004FF04B08384625F4A5D50CE0204625F46C
:10A6E000ABD500241D4850F8290034300168D9B199
:10A6F000002100299FD0BAF1000F19D0B4B1029AFD
:10A700000A23114640F6034025F44AD580F800A0FC
:10A71000618A491C8180A18AC18002214170002187
:10A72000018125F489D503E00121E2E74FF04108DA
:10A73000B8F1000F06D1094850F82900406B50B11C
:10A74000002020B1424602214846FDF77DDF04B0DB
:10A750000020BDE8F09F0120F3E70000C40E800058
:10A7600070B505460548846804E0E16809B12846EB
:10A7700088472468002CF8D170BD0000A0488000F4
:10A7800070B505460548846804E0E16809B12846CB
:10A7900088472468002CF8D170BD0000A0488000D4
:10A7A00070B58AB006460D461446FF222821684639
:10A7B000F7F71EFD40F20252ADF80020ADF802504E
:10A7C0008DF8046034F8040BADF808000394684673
:10A7D000FCF7E4FA0AB070BD30B58BB005460C4604
:10A7E000FF22282101A8F7F703FD40F20752ADF838
:10A7F00004200022ADF806208DF80850D4E90102AB
:10A800002168CDE90402039101A8FCF7C7FA0BB057
:10A8100030BD70B58AB006460D461446FF22282189
:10A820006846F7F7E5FC40F20552ADF80020ADF8B8
:10A8300002508DF8046034F8040BADF8080003945E
:10A840006846FCF7ABFA0AB070BD70B58AB0064630
:10A850000D461446FF2228216846F7F7C9FC4FF43D
:10A86000A061ADF80010ADF802508DF8046016221A
:10A87000214602A8F7F7CBFF163408946846FCF788
:10A880008DFA0AB070BD000070B50546002D12D0DB
:10A89000FCF748FE0C48846805F1090609E02079B8
:10A8A0002A7A904204D13146A068F7F765FF18B1C3
:10A8B0002468002CF3D170BDE1680029FBD0284644
:10A8C000BDE8704008470000A048800070B58AB01D
:10A8D00006460D461446FF2228216846F7F788FCF5
:10A8E00040F20152ADF80020ADF802508DF804603E
:10A8F00034F8040BADF8080003946846FCF74EFAF0
:10A900000AB070BD70B58AB005460C461646FF22E7
:10A9100028216846F7F76CFC40F20653ADF800308A
:10A92000ADF802408DF80450ADF808606846FCF7B9
:10A9300035FA0AB070BD00002DE9FF410D46002731
:10A94000D6B2140A00200290039000900190E0B269
:10A9500069466FF413D530466DF462D4804600200A
:10A9600065F48ED4B8F1000F3AD0D8F80420002A4C
:10A9700036D0E0B229469047288802A95AF4C2D2BC
:10A9800000282DD142F6021102A85AF4C1D238B3E0
:10A99000304661F4D5D480469DF80620E0B2694681
:10A9A000FFF73EFC0646DEB1A879E979434640EA66
:10A9B00001222988304669F4D1D6E0B2694607F011
:10A9C000AFFD68B109A240210020FDF701DE65F46A
:10A9D0008DD4314668465BF437D0002065F450D4FE
:10A9E00065F484D404B03846BDE8F081523A333A75
:10A9F000636F6D6D6F6E20736572766963653A2063
:10AA0000706565722077726974657320636363642F
:10AA10002C207361766520697420696E206E7664DF
:10AA2000730A000070B58AB006460C461546FF2230
:10AA300028216846F7F7DCFB40F20443ADF800300C
:10AA40000023ADF802308DF80460FF22072102A830
:10AA5000F7F7CEFBADF81040ADF812506846FCF7A2
:10AA60009DF90AB070BD000070B505460548446800
:10AA700004E0E16809B1284688472468002CF8D131
:10AA800070BD0000A048800010B504460846FCF7E1
:10AA9000FFFD0146002903D02046BDE810400847CD
:10AAA00010BD30B58BB004461546FF22282101A801
:10AAB000F7F79EFB40F20341ADF804100021ADF81A
:10AAC00006108DF808402868039001A8FCF766F985
:10AAD0000BB030BD30B58BB004460D46FF222821A7
:10AAE00001A8F7F785FB40F20242ADF804200022EE
:10AAF000ADF806208DF808402888ADF80C0001A8B4
:10AB0000FCF74CF90BB030BD30B58BB004460D46A8
:10AB1000FF22282101A8F7F76BFB4FF48062ADF804
:10AB200004200022ADF806208DF808402888ADF8F2
:10AB30000C0001A8FCF732F90BB030BD30B58BB07A
:10AB400005460C46FF22282101A8F7F751FB40F2E9
:10AB50000141ADF804100021ADF806108DF8085041
:10AB600020680390A088ADF81000A41D059401A8EA
:10AB7000FCF714F90BB030BD017882781144C9B2EA
:10AB800001710846704730B500224271438805E0E4
:10AB900044798D5C2C444471521C92B29342F7D894
:10ABA000407930BD0748C169C1F31401026AC2F39C
:10ABB00014030068C0F3C112581A034951F8221057
:10ABC00048437047802001B08C4A800030B502466F
:10ABD000002400200021084B53F820502DB1914251
:10ABE00001D1044605E0491CC9B2401CC0B20A2884
:10ABF000F2D3204630BD0000CC0D800070B5064673
:10AC00002DED068B88B00D469FED368B20216846D2
:10AC1000F7F796FE0024102269463046F9F718FB34
:10AC20000020694600F1080231F81220224494B253
:10AC3000401CC0B20828F5D3E408052E02D0062E29
:10AC400024D046E068880AF044F841EC180B2888C4
:10AC50000AF03FF841EC190B20460AF03AF853ECA1
:10AC6000192B0AF065FA53EC182B09F07DFE9FEDC5
:10AC70001F1B53EC112B09F077FE9FED1E1B53ECAD
:10AC8000112B0AF049FA41EC180B22E09FED1B0B47
:10AC900051EC100B09F0A8FD41EC190B68880AF083
:10ACA00018F841EC1A0BA8880AF013F841EC180BBD
:10ACB00020460AF00EF853EC182B0AF039FA53EC40
:10ACC0001A2B09F051FE53EC192B0AF097F841ECBE
:10ACD000180B08B0B0EE480AF0EE680ABDEC068B1F
:10ACE00070BD0000000000000000000079E926317E
:10ACF00008AC5CBF0000000000003940B76DDBB657
:10AD00006DDB0E4010B5024600200021064B53F8C3
:10AD100021401CB1914205D0401CC0B2491CC9B2AF
:10AD20000A29F4D310BD0000CC0D80001CB5426888
:10AD30000121117000214FF48A2205E012F8013B35
:10AD40004468491C6354C9B20829F7D3094906C9A4
:10AD5000CDE900124168009A41F8092F019A4A6032
:10AD600002884068112164F4C1D6034900200870AC
:10AD70001CBD0000185A0101482580001CB504467E
:10AD80000120616808706068401C00F021F8684686
:10AD900008F0D2F96068009940F8091F01994160F4
:10ADA00061680220487422881421606864F49ED689
:10ADB0000149002008701CBD4825800000887047AC
:10ADC000002101E0491C4008C207FBD0084670473B
:10ADD00000214FF48A2204E012F8013B4354491C3D
:10ADE000C9B20829F8D3704740F45F4070470000AB
:10ADF000014617480068C0F3C220DC2901DA0620AA
:10AE00007047A1F1DC020A2A03D20428F8D00620F8
:10AE10007047A1F1E602142A01D804207047A1F17D
:10AE2000FB02092A03D20328F8D004207047A1F5B9
:10AE30008272282A01D803207047A1F22D11092916
:10AE400003D20228F8D00320704702207047000088
:10AE500010C500A001461E480068C0F3C220DC29CE
:10AE600001DA07207047A1F1DC020A2A03D2052883
:10AE7000F8D007207047A1F1E602142A01D8052076
:10AE80007047A1F1FB02092A03D20428F8D005205B
:10AE90007047A1F58272282A01D804207047A1F2D8
:10AEA0002D12092A03D20328F8D004207047A1F5F7
:10AEB0009B723C2A01D803207047A1F27311092923
:10AEC00003D20228F8D00320704702207047000008
:10AED00010C500A00248006800F4807070470000B0
:10AEE00078C500A005480068C00F002804D00448B9
:10AEF000007908B1012070470020704740C500A0CC
:10AF0000AC488000FEB50546002404208DF8000002
:10AF100000260B4FE8070CD00120A040019004EB65
:10AF2000440007EB800081680291416809B16846DE
:10AF30008847641CA4B26D08761C082EEADBFEBDAF
:10AF4000C08D800010B5EFF31084012181F31088CB
:10AF500000F004F884F3108810BD00002DE9F041E2
:10AF60000446204602F05CFBE0B2EFF310810122C0
:10AF700082F31088194A136883430343136081F3F3
:10AF800010881748446284634FF6FF7000EA04217A
:10AF9000E0B2124B0C3B1A68084382431A6019E076
:10AFA00094FAA4F0B0FA80F101208840611E0C40B0
:10AFB000072290FAA0F1B1FA81F18900094D2E68BB
:10AFC0000F278F40BE438A4016432E60196821EA3E
:10AFD00000401860002CE3D1BDE8F0815CC500A002
:10AFE000002001A090E200A070B5054606480CF4D0
:10AFF0004DD5EFF31084012181F31088284600F02D
:10B0000005F884F3108870BD0C4A800000B585B047
:10B0100001680091017901F00301019181680291B9
:10B02000C1680391406800090490684602F06CFA18
:10B0300005B000BD10B5FF20F9F740FA80B2002836
:10B0400021D011498863EFF31081012282F3108827
:10B050000E4A6FEA0043136081F310886FF0040119
:10B0600011600A4940390968C1F3001139B120283B
:10B0700005D0BDE8104020F020000CF47F94BDE81E
:10B0800010400CF47B9410BD002001A044C500A02A
:10B090000021FAF7ADB9000070B5054606480CF47A
:10B0A000F9D6EFF31084012181F31088284600F0CF
:10B0B00005F884F3108870BD104A800010B504466E
:10B0C000002C18D00D48016821F0010101600C4AE4
:10B0D00002211160BFF34F8FBFF36F8FC2F80011D1
:10B0E000016821F440510160400D02F027FB00206F
:10B0F0002077A07310BD012010BD000018C500A06E
:10B1000084E100E02DE9F04F04462DED048B83B07F
:10B110000E464FF0000ACDF808A0D04602F0FAFA29
:10B12000814694B1207F80B17EB1A07B012812D0EE
:10B130000120A073EFF3108580F3108802A8FCF7BC
:10B140008DFD0746380055D107E0012003B0BDEC66
:10B15000048BBDE8F08F0220F8E702F0DBFA4845E7
:10B1600001D04FF0010801A92046FCF739FD244821
:10B170009FED240B90ED008B51EC100B53EC182B32
:10B1800009F0F2FB41EC190B404609F0A2FD53EC2B
:10B19000192B09F033FE09F06FFD019900EB01094D
:10B1A000029809F096FD8B46804653EC182B09F067
:10B1B000DBFB09F061FD8144CDF804904BEC108B72
:10B1C00053EC182B51EC100B09F0CEFB9FED0F1B2D
:10B1D00053EC112B09F012FE09F04EFD4FF47A7179
:10B1E000B0FBF1F201FB120849463046FCF772FC55
:10B1F000A6F8088085F3108884F80EA03846A5E7E5
:10B2000030478000000000000000F0410000000016
:10B2100000408F4070B5054606480CF43BD6EFF36E
:10B220001084012181F31088284600F005F884F38A
:10B23000108870BD104A80002DE9F05F044600269A
:10B24000DFF8C8A05546002C4CD0B04684F80E80DC
:10B25000EFF31089012080F310882D4F386820F01B
:10B2600001003860002002F069FA02F02FFA38B1CC
:10B270000020274978310860386840F002003860C3
:10B2800002F024FA08B16D1EFAD14FF0010B85B31C
:10B2900084F8008084F8018084F8028084F803B088
:10B2A00084F804B084F805800620A071A4F8088012
:10B2B00017486FF400712C300160386840F400507A
:10B2C0003860386820F48050386012490220C1F894
:10B2D000FC01C867386840F00100386002F0F6F9F8
:10B2E00018B108E00120BDE8F09FBAF1010AF5D1DC
:10B2F00001E0FFE7012689F310881EB184F81C8065
:10B300003046F0E784F81CB0FAE70000A0860100A0
:10B3100018C500A088E000E02DE9F04F04462DEDAF
:10B32000028B85B088464FF0000ACDF810A0D146B8
:10B3300002F0F0F98346002684B1207F70B1B8F1A5
:10B34000000F05D098F80500632801D80A2807D215
:10B35000012005B0BDEC028BBDE8F08F0120F8E7BD
:10B36000207EC00612D569462046FFF7CBFE03A912
:10B370006846FCF735FC0398BDF8081000EB400266
:10B38000C2EBC01001EBC0002169461AA07B012866
:10B390000CD00120A073EFF3108780F3108804A86D
:10B3A000FCF75CFC0546280046D101E00220D0E70E
:10B3B00002F0B0F9584501D04FF00109D8F800006B
:10B3C0000090D8F804000190B8F80800ADF8080023
:10B3D00003A96846FCF704FCDFF8A88098ED000B91
:10B3E00053EC102B9FED280B51EC100B09F0BCFA1D
:10B3F00041EC180B484609F06CFC53EC182B09F093
:10B40000FDFC09F039FC0399A1EB0009049809F04F
:10B4100060FC98ED001B53EC112B09F0A5FA09F024
:10B420002BFCA9EB000103916846FCF753FB0A22B1
:10B4300069462046F7F730FA87F3108884F80EA0A3
:10B44000ADB9207EC00612D569462046FFF75AFEE8
:10B4500003A96846FCF7C4FB0398BDF8081000EB8D
:10B460004002C2EBC01001EBC000801B20613DB95F
:10B47000207EC00704D004F10A01204600F058F9EC
:10B48000284666E730478000000000000000F041D9
:10B490002DE9F04F04462DED028B85B0DFF864B244
:10B4A000DBF80000C0F30030DFF858A200280AF1F2
:10B4B0002C0A6ED0DAF80000C0056AD50027B8461D
:10B4C0006FF48070CAF8000002A92046FFF71AFE48
:10B4D00018B102A92046FFF715FE01A902A8FCF742
:10B4E0007FFB0198BDF8101000EB4002C2EBC010CA
:10B4F00001EBC000019060690546217ECA074CD06F
:10B50000E07A9DF80A2090420ED1A27A9DF8093087
:10B510009A4209D18A0707D44A0705D4012741F086
:10B52000020141F0040121769DF80A10884207D1FA
:10B53000A17A9DF80920914202D1217EC90608D442
:10B54000217E11F0060F04D021F0020121F0040148
:10B5500021768DF80A00A07A8DF80900607E8DF8BA
:10B560000800694602A8FCF73BFB0098618B00EBE2
:10B570004002C2EBC01001EBC0010091207EC20668
:10B58000614809D5019A8A4206D0914202D9881AA7
:10B5900002E076E0891A08440546217EC90614D5E2
:10B5A0000026D4E90413CA1801998A4201D28D1ADF
:10B5B00000E0551AAB4200D80126521F8A4200D93A
:10B5C0001EB14FF0010821611D46854200D305469A
:10B5D000EFF31089012080F3108802F065F8064629
:10B5E00001A8FCF73BFB10B102F070F801909FED51
:10B5F000470B484853EC102B90ED000B51EC100B0F
:10B6000009F0B2F941EC180B284609F062FB53EC43
:10B61000182B09F0F3FB41EC100B9FED3F1B51EC95
:10B62000100B53EC112B09F0EBF809F025FB014648
:10B6300001F11403019A00E00E44B01A9842FBD8BD
:10B640001428F9D3304602F06DF842F2107502F07A
:10B650002BF8B04201D06D1EF9D189F3108857B193
:10B66000207B012842D0607B9DF80B10884202D1DC
:10B670002046FFF70DFDB8F1000F02D0204600F084
:10B6800025F9DBF80000C0F34030002829D0DAF8B3
:10B690000000800525D56FF40070CAF8000004A9E9
:10B6A0002046FCF79DFA1B4890ED000B53EC102B45
:10B6B0009FED1B0B51EC100B09F056F941EC180BE8
:10B6C000049809F006FB53EC182B09F099F809F0DF
:10B6D000D3FA049001462046FCF7FCF9204600F01E
:10B6E00023F805B0BDEC028BBDE8F08F9DF80E206D
:10B6F000607B012191400842BDD02046FFF7C8FC85
:10B70000B9E7000018C500A0005C26050000000095
:10B7100000408F4030478000D31742CEFBFFDF3F11
:10B72000000000000000F0410221F9F761BE0000B6
:10B730002DE9F04104462DED028B86B00D46002C1C
:10B740000DD0207F58B155B103A92046FFF7DAFC90
:10B7500038B1012006B0BDEC028BBDE8F0810120BC
:10B76000F8E702A903A8FCF73BFA207E41070CD5B5
:10B770009DF80E106A78914204D19DF80D102A7838
:10B78000914202D020F004002076A07B012844D012
:10B790000120A073BDF8146068788DF80E00287839
:10B7A0008DF80D004FF000088DF80C80ADF8148076
:10B7B00084F81980BDF81400608301A903A8FCF780
:10B7C0000FFADDE90101884202D8394908440190A5
:10B7D0002868C4F80A00DDE90101401A0190618B74
:10B7E00000EB4002C2EBC01001EBC005207E40F030
:10B7F00001002076C10612D5029901EB4102C2EB8D
:10B80000C111226906EBC101891A6269511A8D4280
:10B8100005D320F00200207645E002209AE7EFF3FE
:10B820001087012181F3108820F0020020766846FD
:10B83000FCF714FA9FED1F0B204853EC102B90EDF2
:10B84000000B51EC100B09F08FF841EC180B284657
:10B8500009F03FFA53EC182B09F0D0FA41EC100B29
:10B860009FED171B51EC100B53EC112B08F0C8FF88
:10B8700009F002FA00994618304601F053FF42F2EF
:10B88000107501F011FFB04201D06D1EF9D187F3A0
:10B8900010880D496FF4807008600B482C380168DF
:10B8A00041F48051016084F80E80002052E70000CE
:10B8B000805101000000000000408F4030478000B0
:10B8C000D31742CEFBFFDF3F44C500A00121F9F7AB
:10B8D0008FBD000010B5EFF31083012282F31088B2
:10B8E000094A1468002C02D01468641E146012689F
:10B8F0003AB920F0807021F00101044A1160044936
:10B90000086083F3108810BD08478000001000E035
:10B91000FCED00E010B5EFF31082012383F31088F3
:10B92000074B1C68641C1C60064B40F0807018605C
:10B9300041F001000449086082F3108810BD000046
:10B9400008478000FCED00E0001000E010B5044660
:10B95000002C1DD0207A01281CD0012020721A480A
:10B96000006818B1416809B1204688471748016846
:10B9700021F480610160EFF31081012080F31088D1
:10B980001348026822F002020260006820B114E04D
:10B99000012010BD022010BD0E48426842F0010295
:10B9A0004260C26842F00072C260026842F0010266
:10B9B0000260C26842F08072C26081F31088002089
:10B9C000E0606072207210BD8403800014C500A086
:10B9D000F4498000A0E200A070B50446002C03D01A
:10B9E00023492068884201D0012070BD207A0128B7
:10B9F00005D001252572607A002610B11EE00220D4
:10BA000070BD26721B48016821F001010160816848
:10BA100021F000718160EFF31080012181F3108823
:10BA200015490A6842F002020A6080F31088134840
:10BA3000006818B1016809B1204688470220607289
:10BA40000F48016841F4806101606068012809D0F5
:10BA50002068016821F4805101603046E66065721B
:10BA6000207270BD2068016841F480510160F4E7E4
:10BA7000006401A0A4E200A0F449800084038000D7
:10BA800014C500A00DF4D69410B50B460246002153
:10BA90000348FBF7DCDA08B1002010BD012010BD1F
:10BAA000641F800010B500231A4601210348FBF7EC
:10BAB000CEDA08B1002010BD012010BD641F800047
:10BAC00038B5022000906846F8F7AAFA114C2068B1
:10BAD00080B91148206011490160012141608160F5
:10BAE000EB21C1600E499DF8002051F82210016140
:10BAF0000021416170F43AD208B1012000E0002039
:10BB0000A07204480DF42AD408B1002038BD0120E9
:10BB100038BD0000641F8000281F800000D000A0F6
:10BB20006047800010B514460A4601462346044883
:10BB3000FFF7A8FF08B1002010BD204610BD00008F
:10BB4000641F800070B504460D46164606F02AFFB5
:10BB5000324629462046FFF7E5FF044606F034FF4B
:10BB6000204670BD10B514460A46014623460448D7
:10BB7000FBF763D908B1002010BD204610BD0000BE
:10BB8000641F80002DE9F047C0B081468A46174601
:10BB90003B46524649461748FBF74FD918BB00248D
:10BBA0003D464FF48078474501D9464600E03E4681
:10BBB00009EB040133466A460E48FFF763FF90B96C
:10BBC0000AEB040032466946F6F7D6FD58B9AD1BBC
:10BBD0006DB134444646B54200D82E46BC4202D22E
:10BBE000A019B842E4D9002040B0BDE8F08738463B
:10BBF000FAE70000641F800070B505460E4607484E
:10BC00000DF46ED7EFF31084012282F310883146D1
:10BC100028460DF42DD784F3108870BD1C4A80008F
:10BC20002DE9FE4307460E463046FFF7C9F885B2B8
:10BC30000024DFF85490DFF8548059F83400B842FB
:10BC40001DD105EB041085B205EB450218F8220062
:10BC5000032807D08DF800400D48874206D13004F4
:10BC6000019004E003208DF80000F5E7019608EB51
:10BC700082008168029142680AB168469047641C5C
:10BC8000032CDADBBDE8FE834C540101408C8000BC
:10BC9000001001A070B505460E4607480DF420D7E8
:10BCA000EFF31084012282F31088314628460DF408
:10BCB0000CD784F3108870BD1C4A800010B506486C
:10BCC00013F42ED6EFF31084012080F3108810F4C3
:10BCD000CFD184F3108810BD044A8000F0B54FF036
:10BCE000F85000EA01604FF4F81202EA0142254BD5
:10BCF0001C680243944304431C6001F01F00EFF3EF
:10BD00001082012484F310881C1D25688543054397
:10BD1000256082F310884FF4F85202EA01221D6870
:10BD200085431D60EFF31080012383F3108823689F
:10BD30009343236080F3108820E091FAA1F0B0FAD9
:10BD400080F2012090404A1E1140072390FAA0F291
:10BD5000B2FA82F292000C4E35680F279740BD432D
:10BD600093401D433560EFF31082012383F3108865
:10BD7000236823EA8050206082F310880029DCD1F8
:10BD8000F0BD00003CC500A094E200A0084601F010
:10BD900081BE084610F4FA917047704770B50446AA
:10BDA0000D46044812F4ECD029462046BDE8704008
:10BDB00012F4A690B9BD00012DE9F0410020F9F779
:10BDC000F9FB0546224FD5E90412C7E904122148C0
:10BDD000081A72F11E0017D307F120000EE0D6E911
:10BDE0000412D7E90434B1EB030C72EB040C04D356
:10BDF000C91A62EB0402C6E90412006A066A002E40
:10BE0000EDD1002139617961A87801280AD1D7E9FB
:10BE10000430D5E9021259185041C5E904102846EA
:10BE2000F9F78CFBF9F738FC786840B1D0E90431B8
:10BE3000D7E90402181A61EB020103F03FFDE9693A
:10BE400009B1A8698847BDE8F041F9F7EFBB0000E8
:10BE5000A08E80000010C32C70B50446002C1ED0AC
:10BE6000207D01281DD0012626751E4D286820F052
:10BE700001002860A86820F00070A860A5F5297569
:10BE800020682AF4F7D0EFF3108186F31088164863
:10BE9000026822F010020260006820B115E0012063
:10BEA00070BD022070BD05F52875686840F001007E
:10BEB0006860E86840F00070E860286840F00100C1
:10BEC0002860E86840F08070E86081F310880748D7
:10BED000006818B1416809B12046884700206075A4
:10BEE000207570BDA4E200A0F4498000AC0380007E
:10BEF0002DE9F74F86B004460D46142101A8F6F748
:10BF00001FFD4FF00008207D01280ED04FF0010AE0
:10BF100084F814A0607D0027012808D04FF00108A4
:10BF20002775404609B0BDE8F08F0220FAE70220ED
:10BF3000607560680190A0680290E06803902069D5
:10BF40000490059701A920682AF4A7D04FF0040BAC
:10BF500020B16068B0F5C05F05D01FE084F815B06F
:10BF600027750120DEE7CDB1A06870B3298820686D
:10BF70000162698820680162A98820680162E988F5
:10BF8000206801622989206801626989206801624C
:10BF9000A98920680162E989206801622068016836
:10BFA00041F0010101604FF0E029D9F81460D9F89F
:10BFB0001850F8F76FF81A484FF47A710068B0FB20
:10BFC000F1F1C8204143174B1EE0FFE729882068A4
:10BFD0000162698820680162A98820680162E98895
:10BFE00020680162DAE7D9F81800854201DB2A1AD5
:10BFF00001E0321A2A44891A0546002904DC84F833
:10C0000015B0277503208DE75868C0F3000000289D
:10C01000E9D09868A0610899086084F815A07FE7C6
:10C0200004418000007801A070B50446002C08D0BF
:10C03000207D012807D001252575607D002620B1CF
:10C0400028E0012070BD022070BD267517484168A8
:10C0500021F001014160C16821F00071C1600168F7
:10C0600021F001010160C16821F08071C160EFF32E
:10C070001080012181F310880D490A6842F01002F6
:10C080000A6080F310880B48006818B1016809B194
:10C0900020468847022060752068016821F0010170
:10C0A000016065752675002070BD0000A0E200A04B
:10C0B000F4498000AC03800010B5032806D0FFF7D8
:10C0C0006DFE034901200870002010BD012010BD45
:10C0D0000D47800010B511488178002909D1104919
:10C0E000096801F0405101228270B1F1805F00D1F6
:10C0F0004270407870B19FED0B0B0C4853EC102B45
:10C1000090ED000B51EC100B08F07AFBBDE81040ED
:10C1100008F0B2BDBDE810406FF47C960D4780007A
:10C1200050C500A0000000000000E03F3047800044
:10C1300008B50020009069464FF00040F9F7D0DCC8
:10C1400008B1002008BD009808BD00000148007833
:10C15000704700000D47800010B500210320FFF755
:10C160001DFE02490020087010BD00000D47800030
:10C170001CB507F0CFFA05218DF800100649002202
:10C1800051F8203083F8002151F82000016800297F
:10C1900001D0684688471CBDCC4380001CB507F021
:10C1A000B9FA04218DF800100649002251F8203018
:10C1B00083F8002151F820000168002901D0684669
:10C1C00088471CBDCC4380001CB507F0A3FA0321AF
:10C1D0008DF800100649002251F8203083F8002124
:10C1E00051F820000168002901D0684688471CBD2D
:10C1F000CC43800070B50546064815F489D3EFF3AB
:10C200001084012181F31088284615F435D184F378
:10C21000108870BD204A80001CB50446204607F0F7
:10C2200079FA00228DF80020E16B0191064951F85E
:10C23000203083F8002151F820000168002901D046
:10C24000684688471CBD0000CC438000002804D00D
:10C2500010F8371F407808437047002070470000EF
:10C2600070B50546064815F453D3EFF31084012149
:10C2700081F31088284615F4EDD184F3108870BD41
:10C28000204A8000704770471CB50446204607F0DE
:10C2900041FA02218DF80010218D628D891AADF8C6
:10C2A0000410044951F820000168002901D06846B3
:10C2B00088471CBDCC4380007CB50546284607F066
:10C2C00029FA044601208DF80000288C698C401A58
:10C2D000ADF804000C4D55F8240090F8040118B195
:10C2E0002046F9F7FBFA02E02046F9F751FC55F831
:10C2F000240090F80011002904D10168002901D020
:10C30000684688477CBD0000CC43800070B50C4671
:10C310001546284624F42ED02D0A3F281DD0284645
:10C32000FCF794D90346A27821792846FCF790D9E6
:10C330000B4850F825008289FF2A09D0207808B1DF
:10C34000903000E00020C3B201212846FCF782D9DA
:10C35000227961882846FCF77FD9002070BD000053
:10C36000CC0D80002DE9FC4104460F4621780026C3
:10C370000025601C45F446D4142808D20C4900EB73
:10C38000800001EB400090F82903C0F34005CDE99F
:10C390000065237804F11702E11D601C3FF4CAD147
:10C3A0000146384645F400D40020BDE8FC81000079
:10C3B000A41480002DE9F04104460E460C2503F03C
:10C3C0001DFAB0B32178012903D9FF2901D0122524
:10C3D00038E0601C45F416D405461E4F142D09D2D2
:10C3E00005EB850007EB400090F82903800706D590
:10C3F000122527E045F4F4D30546142D1AD005EB99
:10C40000850007EB400000F54870D4F8011001608A
:10C41000B4F80510818021780172417A41F0010160
:10C4200041F0020141722178601C45F47BD518B1BE
:10C4300007E007E0072505E02278611C284643F461
:10C44000A9D100252946304645F4AED30020BDE8E9
:10C45000F0810000A414800010B50C463FF43ED2D9
:10C460000021204645F4A0D3002010BD70B50E4633
:10C470000C2403F0C3F9F8B10024124D04EB84003E
:10C4800005EB400191F82903C20710D020F002000B
:10C4900081F82903420703D420F0010081F8290321
:10C4A00091F8282301F54871204643F4C1D1641C5A
:10C4B000E4B2142CE2D300242146304645F474D370
:10C4C000002070BDA41480002DE9F84F06460C46EC
:10C4D00093464FF00008DFF82CA15AF8267001218E
:10C4E0000C2E07D2384628B190F85000C043800780
:10C4F00004D0002121B14FF00C087AE00121F9E7C6
:10C5000000214FF001090C2E09D2384638B190F8BD
:10C510003C0010F0020F01D0012100E0002119B908
:10C5200097F84E00C00706D097F85100C00605D511
:10C530004FF03A085DE04FF01A085AE02089009069
:10C54000E3886288A18830462AF4A2D748B92E49E8
:10C55000C6EBC60011F81000800702D44FF0120895
:10C5600047E009EB062130230A4640F20B1023F482
:10C5700017D60546052028710022314628462DF49D
:10C580004DD422482860A188A0894900884200D360
:10C5900008466882618860894900884200D308465D
:10C5A0002882A08868816088288160882885E08842
:10C5B000A8812089E88100210C2E0AD25AF8260091
:10C5C00038B190F83C0010F0020F01D0012100E0DA
:10C5D000002181F0010085F82C0085F82D9085F868
:10C5E0002E90284623F428D617F8510F40F010005B
:10C5F00038704246594630462AF44CD60020BDE8F1
:10C60000F88F00003812800040088000B58B0300CE
:10C61000F8B50D4616466888FCF720D80446FF2C6E
:10C620004DD001212046FCF71BD80A2813D0082042
:10C6300040EA04211E23324640F6166023F4B0D5AA
:10C640000B210170A989418269684161A9688161F2
:10C6500023F4F2D533E00020009020464EF44CD273
:10C660001849682290B151F8240090F84030302BDE
:10C6700001D0009216E0312280F8402051F82400C9
:10C680000121026920464EF499D20BE051F82400B2
:10C6900090F84000412801D0009203E0012120469B
:10C6A0004CF402D09DF8000048B10022114620460B
:10C6B0004EF484D26A46032120464EF4BDD20020B7
:10C6C000F8BD0000CC0D800070B504460E460C2568
:10C6D00003F094F828B32178012903D9FF2901D068
:10C6E00012251EE0601C45F48DD2142808D2104992
:10C6F00000EB800201EB420292F829138B0701D470
:10C7000012250EE021F0020182F829134B0703D411
:10C7100021F0010182F829132278611C43F488D0AA
:10C7200000252946304645F43FD2002070BD000068
:10C73000A414800070B502460D461078012817D861
:10C7400000B101200E4981F812040024107850B184
:10C75000B1F81024642042430021062024F428D19B
:10C760003FF49AD105E00021062024F491D000E0A6
:10C7700012242146284645F417D2002070BD00003F
:10C78000A414800010B50C46C279012A07D801789C
:10C79000012904D8401C3FF439D1014600E01221A0
:10C7A000204645F401D2002010BD00002DE9F047DD
:10C7B0008846132B40D127F4E5D207460025DFF841
:10C7C000809031E008EB45067088FBF747DF0446B0
:10C7D000FF2C27D059F8240028B97088422319A2C9
:10C7E0002146FBF70BDF8FB959F8240090F832107F
:10C7F00004290BD8406810B1002010B106E00120D8
:10C80000FBE72046FEF77EFA13490870B08813490B
:10C810000A891044088159F82400327910F8321F2F
:10C82000891A01706D1CADB298F80000A842C9D8F1
:10C8300017B9092023F46CD10020BDE8F08700006F
:10C84000180F80006C3263635F7461736B5F70619B
:10C850007463682E63000000554A80004C0F80000E
:10C860002DE9F047064634460C3CDFF800A14FF0B6
:10C8700030494FF002089AF83000FF2808D0D9F864
:10C880006410C20008FA02F081430143C9F8641041
:10C8900037480078B0B1A42236A139A0FBF796DE64
:10C8A000204623F4BFD49AF83000FF2808D0D9F8E6
:10C8B0006410C00008FA00F821EA0801C9F8641001
:10C8C000BDE8F087FF250A27A088A0F58850053825
:10C8D00002D0012809D107E020891EF46BD420B1D1
:10C8E000807800F00F0700E003270A2F2DD2DFE841
:10C8F00007F0050705072C2C2C2C2C2B002524E0F9
:10C900003078717840EA0120C0F30B00A0F5807107
:10C91000FF2901D8022518E00B2808D8194901443D
:10C92000097E21B1012101EB002085B20DE0A08834
:10C93000A0F58851063902D17068FBF793DE1248E2
:10C940000178491C017000E00225FF2D04D0E5802C
:10C95000304623F471D4A6E72189A0889A2305A242
:10C96000FBF782DE204623F45DD49CE708088000B4
:10C97000A30680006863695F70617463682E63005A
:10C980003000000050198000544A80002DE9F04723
:10C9900080468A461E464FF00009374662F3070775
:10C9A00000240025F0B204281DD006281DD0072839
:10C9B0001FD008281BD0A8F510600A2800D20E4D01
:10C9C0003CB1A2884046216869F46CD0FBF7A6FF11
:10C9D00005462DB133463A4651464046A847814662
:10C9E0004846BDE8F087054CEAE7054CE8E7054C0A
:10C9F000E6E7054CE4E70000ADC60600A82280008B
:10CA0000BC228000002280009822800038B50020DF
:10CA10000090124C2078902808D015D294F8280065
:10CA200000F07F0000F14600009012E0684606F03A
:10CA3000C9FA94F82800BDF80010884209D900F01E
:10CA40007F004630009004E0A07C00F07F001238A8
:10CA50000090BDF8000000F07F0038BD1232800069
:10CA6000F0B5BDB04FF4B5713148F5F747FF482137
:10CA70002BA8F5F765FF2BA858F466D630B12DA288
:10CA800010210020FBF7A4DD3DB0F0BD9DF8AC30D7
:10CA900030A210210020FBF79BDD00242BAF244E99
:10CAA00040E0AC216846F5F74BFFC4EBC4003844C6
:10CAB0000546401C694658F4FFD630B123462AA2E9
:10CAC00010210020FBF784DD2AE0307855F8011FA3
:10CAD00000EBC00006EB8000C0F80210A988C180FE
:10CAE000A97901729DF8000000070BD530781C224F
:10CAF00000EBC00006EB80000A300DF14601F5F7AF
:10CB000086FE0AE030781C2200EBC00006EB8000B5
:10CB10000A300DF12A01F5F77AFE3078401C3070AA
:10CB2000641CE4B29DF8AC00A042BAD8ACE70000A7
:10CB3000F87C8100523A313A696E697420676574F5
:10CB400020626F6E64206465766963657320666138
:10CB5000696C0A00523A313A626F6E645F6E756DAD
:10CB6000203D2025640A0000523A313A696E69740A
:10CB70002067657420626F6E642073656320696E40
:10CB8000666F206661696C2C20696E646578203D53
:10CB90002025640A00000000F0B585B00446224F4D
:10CBA00021033868FEF770FF204E4FF40045D8B1DE
:10CBB0001F480168039140680490082203A938685F
:10CBC000FBF7AEFB08281ED0B069717A40F26A22EA
:10CBD000CDE900210290174B17A229460020FBF750
:10CBE000F7DC092005B0F0BDB069717A4FF4157219
:10CBF000CDE9002102900F4B0FA229460020FBF740
:10CC0000E7DC0920EEE71848082101606FF0130106
:10CC100001EB04334360447214A229460020FBF761
:10CC2000D7DC0020DEE70000CC238000641F8000FA
:10CC3000ACD5070099570101523A353A25732C209B
:10CC40004C256420666C6173682073746174652080
:10CC50003078253032582C206572726F722030780F
:10CC6000253038580D0A0000D8328000523A353A43
:10CC7000496E697469616C697A6520756E75736552
:10CC800064206E7664732C20617661696C5F7369D1
:10CC90007A653D25640D0A002DE9FC5F4A490C6860
:10CCA00008344A4F7872082139606FF0130101EBA4
:10CCB000003808F1080078604FF001094FF0000AD1
:10CCC000DFF80CB19BF80000002802D0002069F4C6
:10CCD000E7D0042269462046FEF724FFBDF8001085
:10CCE000A1F57F40FF3826D0082269462046FEF78E
:10CCF00019FFBDF8020000F1080568F45DD5C6B261
:10CD0000BDF8000000282BD0684606F0C5FFA8B18A
:10CD10007868A919401A786000281BDA2DA24FF410
:10CD200000410020FBF754DC9BF8000069F4B8D008
:10CD30000120BDE8FC9F4FF0010A1AE033A24FF436
:10CD400000410020FBF744DC9BF8000069F4A8D008
:10CD50000920EEE74FF000092146684606F09EFBE9
:10CD60003968A8190144396004443748006884428E
:10CD7000AFD39BF8000069F493D0BAF1000F05D04F
:10CD8000B9F1000F04D0C7F804800AE00120D0E711
:10CD90007868082802D90838786002E038720020E4
:10CDA00078607B68434507D828A24FF400410020F3
:10CDB000FBF70EDC0020BCE72FA24FF4004100205F
:10CDC000FBF706DC0120B4E7CC238000D8328000DA
:10CDD000C9238000523A353A4E56445320696E6951
:10CDE0007469616C697A6174696F6E206661696CDF
:10CDF000656420666F722077726F6E67207461675A
:10CE0000206C656E6774680D0A000000523A353A6E
:10CE10004E56445320696E697469616C697A617415
:10CE2000696F6E206661696C656420666F72206947
:10CE30006E76616C6964206461746120696E20465D
:10CE40006C6173680D0A0000D0238000523A353AB5
:10CE5000496E697469616C697A65207573656420CF
:10CE60006E7664732C20617661696C5F73697A6594
:10CE70003D25750D0A000000523A353A4E5644538E
:10CE800020696E697469616C697A6174696F6E207A
:10CE90006661696C656420666F7220696C6C656799
:10CEA000616C20617661696C5F73697A653D257597
:10CEB0000D0A000010B50446FFF7A8FDB4F5A37FE6
:10CEC00010DA4FF48C718C4200DA0C46614201EBAF
:10CED000810140F6B24202EB4102112192FBF1F1D5
:10CEE000401AC0B203490A6822F0FE4242EA0060DA
:10CEF000086010BD0CC500A0044890F899000028F7
:10CF000001D0002070470120704700007C2780007E
:10CF100070B503460E461546084804683246214659
:10CF20001846FEF7FFFD324629462046F5F724FC59
:10CF300008B1002070BD012070BD0000784780005E
:10CF40002DE9F04705460E4617469846EFF3118443
:10CF50000220F7F7E0F88146F7F7FAF8401C0121C4
:10CF6000814009EB0100C0B280F311880B48406892
:10CF700048B1E81B76EB08060AD2E0B280F31188CC
:10CF80000120BDE8F087E0B280F311880120F8E7C6
:10CF9000E0B280F311880020F3E70000A08E80004B
:10CFA000002805D0C16919B1807818B1012801D0D5
:10CFB00000207047012070472DE9F05FDFF818A1CD
:10CFC0004FF030494FF002089AF80600FF2808D0C9
:10CFD000D9F86410C20008FA02F081430143C9F88D
:10CFE00064104FF0E027D7F80051D7F804B17E174E
:10CFF000C7F88061C7F88461BFF34F8FBFF36F8FAD
:10D000003648FBF71BDB0446C7F80051C7F804B1EC
:10D01000002C2DD02660204622F44CD730B1E18878
:10D02000A08847232EA2FBF7E9DA21E0E188A08857
:10D0300023F4ACD2FBF772FC0546280005D1E18849
:10D04000A088522326A2FBF70FDB35B121460C3115
:10D050002389E288A088A84700E0002078B301284F
:10D0600006D0022830D072221DA121A0FBF7AEDA33
:10D07000D7F80041D7F80451C7F88061C7F8846138
:10D08000BFF34F8FBFF36F8F1448006810B30020B9
:10D0900010B1032022F496D4C7F80041C7F8045118
:10D0A0009AF80600FF2808D0D9F86410C00008FAE2
:10D0B00000F821EA0801C9F86410BDE8F09FFFE715
:10D0C000204623F4AFD0D3E7044821461430FBF7C1
:10D0D00089DACDE70120DBE70808800090098000AD
:10D0E0006B655F7461736B5F70617463682E63005E
:10D0F0003000000030B58BB004460D46FF222821D9
:10D1000001A8F5F775F840F60202ADF804200022F8
:10D11000ADF806208DF808402868039001A8F9F7BB
:10D120003DFE0BB030BD70B58AB006460D461446C4
:10D13000FF2228216846F5F75BF840F60103ADF8B9
:10D140000030ADF802508DF80460206802906068ED
:10D150000390A06804906846F9F720FE0AB070BDFD
:10D1600030B58BB005460C46FF22282101A8F5F703
:10D170003FF84FF40062ADF804200022ADF806201D
:10D180008DF80850206803906068049001A8F9F7B2
:10D1900005FE0BB030BD70B58AB005460C4616468C
:10D1A000FF2228216846F5F723F840F60603ADF87C
:10D1B0000030ADF802408DF80450ADF808606846C4
:10D1C000F9F7ECFD0AB070BD70B58AB005460C46A3
:10D1D0001646FF2228216846F5F70AF840F60303B1
:10D1E000ADF80030ADF802408DF804503068029080
:10D1F0006846F9F7D3FD0AB070BD30B58BB005466F
:10D200000C46FF22282101A8F4F7F2FF40F60401A2
:10D21000ADF804100021ADF806108DF80850206814
:10D220000390A088ADF81000A41D059401A8F9F79B
:10D23000B5FD0BB030BD70B58AB005460C4616463C
:10D24000FF2228216846F4F7D3FF40F60503ADF826
:10D250000030ADF802408DF8045030680290684606
:10D26000F9F79CFD0AB070BDF8B50C46164630467D
:10D2700023F480D007460025204B21A24021002026
:10D28000FBF7A6D9202F35D0360A0096237A20A2A4
:10D2900040210020FBF79CD9207820B1342812D0FF
:10D2A0003F2810D026E021463046F9F745F80546DC
:10D2B000FF2D04D121463046FBF7D8D90546FF2D76
:10D2C00018D1002516E0207A400613D40620002746
:10D2D00000EB0623012204213046009725F4A4D157
:10D2E0004780217A417021783F2905D004210171BE
:10D2F00023F4CBD62846F8BD0621F8E730570101C4
:10D30000523A333A5B25735D20656E7465720A008C
:10D31000523A333A6F70636F64653D307825782CEC
:10D3200020636F6E6964783D307825780A000000CC
:10D330002DE9F047092022F445D3224E3568002D0F
:10D340003ED0DFF88480DFF8849098F86D0099F87B
:10D350000010B1FBF0F200FB1217002411E03919A4
:10D36000B1FBF0F200FB1210C0B2FDF72FFC01215F
:10D370008140294203D0164A317A12689047641CD2
:10D38000E4B298F86D00A04202D931890029E6D1B3
:10D3900099F80000401CC0B289F8000098F86D10A0
:10D3A000814202D1002089F800003068002807D0AF
:10D3B0003089002804D0BDE8F047092022F4A89362
:10D3C000BDE8F0874C0F8000000E8000554A8000B9
:10D3D000980580000149092022F4D69231D300013A
:10D3E0007CB50446002000900190684605F062FE7E
:10D3F00000285ED105F040FE80F0010020B305F06A
:10D400001BFE02002B482C4909D090F82800083058
:10D410000A6822F0FE4242EA0060086014E090F8D8
:10D420002800322C07DB08300A6822F0FE4242EA6C
:10D430000060086008E0282C06DCC01C0A6822F0A6
:10D44000FE4242EA006008609DF8040000F01F02FE
:10D450009DF8020000F01F050221042001233C2C4E
:10D4600002DD0421062007E0202C02DD0321052037
:10D4700002E01B2C00DB0023002B1AD029441F29BB
:10D4800000D31F21824201D9101A00E000200B4A6C
:10D49000D072094A1832136823F41F0343EA01418A
:10D4A00011600549091D0A6822F4780242EAC04069
:10D4B00008607CBD123280000CC500A0AC48800022
:10D4C0000178407841EA002070470178427841EACB
:10D4D0000221827841EA0241C07841EA0060704747
:10D4E00002680A6001607047EFF31080012181F348
:10D4F000108804490A6822F000420A6080F310880C
:10D500007047000040C500A02DE9F04104462068A6
:10D510003B4D1FE090FAA0F1B1FA81F20121914058
:10D52000421E1040E26891FAA1F3B3FA83F39B0024
:10D53000DFF8D0C0DCF890720F269E40B74302FAA5
:10D5400003F31F43CCF89072072A25D02A6842EAD9
:10D55000014129600028DDD12168A0684FF6FF72E3
:10D5600002EA0122C9B2B0F5807F1AD00023012857
:10D5700019D000202E6811438E43184306432E60B5
:10D580006168022911D0206800F05EF820681E4909
:10D590004862606870B130E02A6822EA014129607F
:10D5A000D8E71346E3E70846E4E70021206800F0E7
:10D5B0004BF8EBE720688863206901280CD002282B
:10D5C00004D003280ED0042817D111E02068486346
:10D5D00088622068086210E020680863886220681A
:10D5E00008620AE020680863C8622068086204E0F4
:10D5F00020684863C862206808620120BDE8F081A5
:10D6000050C500A000E000A0002001A00349096A65
:10D61000884301D00020704701207047002001A0FE
:10D6200010B5EFF31081012282F31088054B1A68C0
:10D630004FF6FF7404EA002082431A6081F31088D9
:10D6400010BD00005CC500A010B5C0B2EFF31082A1
:10D65000012383F31088054B1C688443002900D004
:10D66000002004431C6082F3108810BD5CC500A03C
:10D670000548016821F0404141F0804101600248C5
:10D6800038300068704700005CC500A0EFF31080E0
:10D69000012181F31088034A6FF48071116080F3D7
:10D6A0001088704744C500A0EFF31080012181F37A
:10D6B000108805490A6842F040420A6080F31088E9
:10D6C00001483830006870475CC500A0EFF3108057
:10D6D000012181F3108805490A6822F040420A605E
:10D6E00080F3108801483830006870475CC500A09E
:10D6F000EFF31080012181F3108805490A6822F0B8
:10D7000040420A6080F31088014838300068704752
:10D710005CC500A002480068C0F303107047000019
:10D7200018C500A00449086003487838016841F032
:10D73000040101607047000090C500A003490A6819
:10D7400022F4E06202430A607047000018C500A09E
:10D7500003490A6822F4E06202430A60704700004D
:10D7600018C500A02DE9F04107460E461446224890
:10D7700050F82700002590F84E00C00701D024255E
:10D7800037E0012138462CF4EDD208B1242530E0F1
:10D79000F08847F6FF71201A80B2884201D228250E
:10D7A00027E0012000EB072110230A4640F20D106C
:10D7B00022F4F6D404460621384600F0E7FB0620A2
:10D7C00020710322394620462CF428D30B482060D0
:10D7D000D6F80100A06070792073F088E0812246BD
:10D7E000012138462CF4D8D20022032138462CF4EB
:10D7F0000DD42846BDE8F08138128000556803003A
:10D800002DE9F84307460D46394850F827400121D5
:10D8100038462CF4A7D208B1242628E028890090A5
:10D82000EB886A88A988384629F432D668B1052081
:10D8300044F4AAD458B194F84E00C00709D0052189
:10D8400038462CF437D2064608E01E260FE01A268A
:10D850000DE00521384600F099FB0646DFF894807C
:10D8600046B1D8F8003032460B213846984730464A
:10D87000BDE8F883012000EB072130230A4640F27F
:10D880000B1022F48DD4044605202071072239465E
:10D8900020462CF4C3D21848206068882081A888CC
:10D8A0006081E888A0812889E081A87A84F827002F
:10D8B000A889A082E889E082288A2083688A608318
:10D8C000A88AA083E88AE083288B2084002184F83A
:10D8D0002D1084F82E102246012138462CF45CD2FB
:10D8E0000022D8F80030072138469847BFE70000EB
:10D8F00038128000D4058000B1A203002DE9F8435E
:10D9000080460C4617464E4850F82850002620897D
:10D910000090A188E3880A46404629F4B9D528B189
:10D9200095F84E00C00703D0242664E0202662E06C
:10D93000608947F6FF71381A80B2884201D22826E2
:10D9400059E0002140462CF40DD2052807D00927C4
:10D95000012140462CF406D2052818D01FE00021F2
:10D9600040462CF4E5D1A1880185E1888181218997
:10D97000C1816189818461884184617880F8261041
:10D98000304B324603211B684046984733E0012163
:10D9900040462CF4CDD12CF43FD20A2809D00521E1
:10D9A000404600F0F3FA012140462CF4DBD110B1DF
:10D9B0001AE024261FE001223023114640F20B100A
:10D9C00022F4EED30246052010711F48106000219A
:10D9D00082F82D1082F82E104FF6FF70D0820121B0
:10D9E00040462CF4D9D10727012140462CF4BAD166
:10D9F000052803D024263046BDE8F883012140469F
:10DA00002CF496D105463A46414628462CF406D2D7
:10DA1000A0882885E088A8812089E8816089A88479
:10DA200060886884607885F82600012085F82C00DD
:10DA3000064B002239461B6840469847DBE700004A
:10DA400038128000D0058000B1A20300D405800008
:10DA500010B50E4B984201D1002000E0102081400B
:10DA60000B4BD3F810428C43022A0DD00020044304
:10DA7000C3F81042D3F808028843012A00D00021DD
:10DA80000843C3F8080210BD0846F0E7000001A0F3
:10DA900000E000A02DE9F04104462168404D26E059
:10DAA00091FAA1F0B0FA80F2012090404A1E114094
:10DAB000226990FAA0F3B3FA83F39B00394F3E68D2
:10DAC0004FF00F0C0CFA03FC26EA0C0602FA03F3E3
:10DAD0001E433E60072A19D0EFF31082012383F31F
:10DAE00010882B6843EA8050286082F31088002950
:10DAF000D6D1E16820682A4E361F29B34FF4F85278
:10DB000002EA002201290DD000210CE0EFF310827F
:10DB1000012383F310882B6823EA8050286082F366
:10DB20001088E4E71146336800F01F008343336038
:10DB3000EFF31080012383F310882B6893430B438A
:10DB40002B6080F3108804E0316800F01F0001436F
:10DB50003160A168206800F027F8208862684FF0E3
:10DB6000F85101EA00614FF4F81303EA004082B172
:10DB7000032A09D0336840EA0104A343012A00D1F3
:10DB800008460343336008E032680843824332604A
:10DB900003E032680843024332600120BDE8F081AF
:10DBA00040C500A094E200A010B500F01F000129BC
:10DBB00001D0002100E00146EFF31082012383F33E
:10DBC0001088044B1C6884430C431C6082F310884B
:10DBD00010BD000040C500A02DE9F04107460C46ED
:10DBE0002D4850F82750012138462CF4BBD008B1FD
:10DBF00024261DE0A07858B1607848B195F84E0011
:10DC0000C00707D0092138462CF454D0064606E058
:10DC10001E260DE00921384600F0B8F90646DFF867
:10DC20007C8046B1D8F80030324605213846984706
:10DC30003046BDE8F081012000EB072114230A469D
:10DC40004FF4877022F4ACD20546092028710522D2
:10DC5000394628462CF4E2D0114828606078E872F2
:10DC6000A078A872A0786178884206D10D4A105C2D
:10DC7000012802D1505C012800D00020E8732A4618
:10DC8000012138462CF488D00022D8F80030052134
:10DC900038469847CCE7000038128000EC05800039
:10DCA000C5A90300B4D005002DE9F0410646140AC9
:10DCB000002000250C2C0BD2094F57F824403CB112
:10DCC00094F83C4014F0100F01D0012500E000252D
:10DCD000002D03D0304628F461D5C0B2BDE8F081F4
:10DCE000381280002DE9F0410646140A0020002574
:10DCF0000C2C0BD2094F57F824403CB194F83C400F
:10DD000014F0100F01D0012500E00025002D03D0F4
:10DD1000304628F475D5C0B2BDE8F08138128000D5
:10DD2000044903480860054903480860704700003B
:10DD30005DDE0001D8058000EDDF0001D405800024
:10DD40000249014808607047E1E10001E0058000F8
:10DD50002DE9F0410F461A46002000240E4960C903
:10DD600015E035F83410914210D13B78042101EBD5
:10DD7000C401695800290CD0084600F00FF8044689
:10DD80003946A446BDE8F04118466047641CA642E7
:10DD9000E7D8BDE8F0810000900280000249884287
:10DDA00000D1024870470000A5540200C9C4000118
:10DDB00010B50446204601210C2809D20D4A52F81C
:10DDC00020202AB192F85000C04380070ED00021D5
:10DDD00000290DD1204601F09DF8002808D12046E9
:10DDE0000122BDE81040222129F478930121EFE7B8
:10DDF00010BD0000381280000B780C2B01D10A23D3
:10DE00004B702AF4339300000249014808607047C0
:10DE1000F9DD0001E8058000024B0A4606211B6877
:10DE200018470000D005800010B5100AFFF7C0FFAA
:10DE3000002010BD024B0A4600211B681847000055
:10DE4000F005800030B4044C2588CD8164888C8135
:10DE500030BC2BF425950000FC4680002DE9F041F4
:10DE60008CB007460C46384637F452D72189490012
:10DE70000491618949000591218A0222022900D872
:10DE8000114606910699079194F8271049008DF8DC
:10DE90002210ADF8207000F001018DF8231094F8E5
:10DEA0002D1029BBE18AA1F57F42FF3A20D0DDE9A0
:10DEB000041291421CD121894900009106990191D7
:10DEC000BDF82010ADF80C10E18A00EB4106208966
:10DED000450025B980222A492A48FAF777DBB6FBA4
:10DEE000F5F005FB10600290684647F4BFD280B1A0
:10DEF00004A847F41BD54FF00008A8B1A4F82A8065
:10DF000060892085FAF714F884F827000CB0BDE882
:10DF1000F081E08A60850098C0F34F002085FAF711
:10DF200007F884F82700F1E70A9D174850F8270002
:10DF300090F84E00C0070BD1099E6D1C26B98022B7
:10DF40000F491048FAF742DBB5FBF6F006FB105517
:10DF50000998CDF80080C0F34F02ABB2A18A3846D1
:10DF600036F4F4D340F2E24190FBF1F06085099879
:10DF7000C0F34F002085F9F7DBFF84F82700C5E7E1
:10DF800038610101446101013812800070B5054615
:10DF90000C46002128462BF4E5D6A04201D12324CB
:10DFA00000E02A24232C02D02A2C16D019E00528C0
:10DFB00002D009280FD107E0284600F0B7FF21461C
:10DFC0002846FFF729FF06E0284600F0AFFF21466C
:10DFD0002846FFF72FFF002070BD052803D0092831
:10DFE00001D0002070BD204670BD00002DE9FE4F1D
:10DFF00081468A4617460026B046012148462BF442
:10E0000097D604466E4850F82950BAF10B0F08D144
:10E010000B22494620462BF401D7E989484639F4BA
:10E02000BDD120462BF4F8D6504508D020462BF41D
:10E03000F3D69F2363A25146FAF716DBA7E02046EA
:10E040002BF4EAD6C01F4FF0010A05287AD2DFE888
:10E0500000F00D40039292000FB1012697E00022DC
:10E06000012148462BF436D784F82CA0B5F84E0091
:10E0700040F01000A5F84E0094F82C00B8B1E189EA
:10E08000A08CA289CDE900210290238D628C94F8A6
:10E090002610484637F44AD70746380001D00126F3
:10E0A00075E00A22494620462BF4B8D66FE0218954
:10E0B000E889814217D86289824214D3A2892B8AC7
:10E0C0009A4210D1E2896B8A9A420CD12081E88968
:10E0D0006081BFB100233A460F2148462AF4ECD0B4
:10E0E0000126B04653E0E0890090A3896289484642
:10E0F00029F408D40822494620462BF48FD684F808
:10E100002EA044E095F84E00C0071CD00AEB092170
:10E1100030230A4640F20B1022F442D00646302249
:10E1200021463046F4F7B8FB2B48306001224946BF
:10E1300030462BF473D6304622F47ED04FF00108DF
:10E14000012624E019E0254A2146484612689047F6
:10E150002146484629F41ED70922494620462BF479
:10E160005DD60122114648462BF4B4D62189484693
:10E1700039F414D10BE0012609E020462BF44CD6EB
:10E18000014640F217130FA24846FAF737DA002E7D
:10E1900013D0B8F1000F04D122463946484629F47D
:10E1A000CDD335F84E0F20F01000288003B048463C
:10E1B000BDE8F04F01212BF4E796BDE8FE8F00008B
:10E1C000381280006C6C635F636F6E5F7570645FA4
:10E1D00070617463682E6300B58B0300D8058000FE
:10E1E0002DE9F047804689461546A54850F8287025
:10E1F000012140462BF49CD50446002620462BF4F2
:10E200000BD648450CD0B9F1140F00D03D253D2D5B
:10E2100004D101222946404629F460D1012625E196
:10E2200020462BF4F9D50A380A287DD2DFE800F021
:10E23000054A596C99A5CCEAFCFB0021404636F40E
:10E2400031D40122002140462BF4EAD597F84E1034
:10E2500094F83A00C1F3401188420AD0894B242235
:10E26000032140462AF428D01322414620462BF4AD
:10E27000D5D594F83A00B8B10021404638F4C2D15F
:10E280000122022140462AF451D10021404629F4BE
:10E29000BBD70B22414620462BF4C0D501221146A4
:10E2A00040462BF417D6E1E00222114640462AF4FC
:10E2B0003DD1404629F40ED50D22414620462BF48F
:10E2C000ADD5D3E00021404638F4B6D70C22414604
:10E2D00020462BF4A3D50122114640462BF4FAD553
:10E2E000C4E00222114640462AF420D1404629F4D7
:10E2F000F1D40D22414620462BF490D50022012175
:10E3000040462BF4E7D5B1E0042043F43DD778B183
:10E310005D4B04F1240204F13001404629F4C0D6DB
:10E320000E224146204600E095E02BF477D59DE093
:10E33000544B06220321404629F4BED70021404613
:10E3400038F460D10021404638F476D7002202210B
:10E3500040462AF4EBD01322414620462BF45ED5EA
:10E3600084E0218F04F10802404629F41DD40F22D5
:10E37000414620462BF452D578E0C5B1414B0622E8
:10E380000321404629F498D70021404638F43AD179
:10E390000021404638F450D70022022140462AF49A
:10E3A000C5D01322414620462BF438D55EE004F157
:10E3B000280204F1100140462CF49ED3102241465D
:10E3C00020462BF42BD551E004F1200204F110017A
:10E3D000404636F415D50121404638F413D1404665
:10E3E00029F498D71122414620462BF417D5012253
:10E3F000114640462BF46ED537F84E0F40F40070AE
:10E40000388033E00022012140462BF463D50121FE
:10E41000404638F411D71222414620462BF4FED450
:10E420001A49404601E013E010E029F493D7002296
:10E43000022140462AF47AD01549012001F808004B
:10E440000222012140462AF471D00FE001260DE09E
:10E45000012606250AE01F2520462BF4DDD40146BF
:10E460004FF4C6730BA24046FAF7C8D8002E05D069
:10E4700029464046BDE8F04700F016B8BDE8F087F1
:10E480003812800091820300798003002D830300FD
:10E49000627E81006C6C635F656E63727970745F1D
:10E4A00070617463682E63002DE9F04106460F46E3
:10E4B000DFF89C8058F82640012130462BF438D4F0
:10E4C000054624490020885528003DD001200C2E07
:10E4D00008D258F826202AB192F85000C04380078D
:10E4E00002D0002010B126E00120FBE701213046D8
:10E4F00036F4D8D20022022130462AF417D017B1C0
:10E5000095F83A0028B195F83A203946304629F472
:10E51000C3D2B4F84E0020F02001BFB1002041EA80
:10E520004010A4F84E00304629F47ED40022114653
:10E5300030462BF475D4012130462BF425D534F820
:10E540004E0F20F400702080BDE8F0810120E6E746
:10E5500038128000627E810010B5100AFFF728FC97
:10E56000002010BD10B50A4C4FF4D2720948216842
:10E57000F4F792F907480849C16008490160084961
:10E58000C0F8B4100749C0F80811206010BD0000A1
:10E5900020038000B87A810065D70001FDD8000112
:10E5A00001D80001D9DB00012DE9F04107460C46F6
:10E5B000164698460025300A00F0ACFC28B12088A9
:10E5C000FAF756D82846BDE8F08143463246214640
:10E5D00038462CF481D40546F4E70000034608468B
:10E5E000114600290AD001290DD0022913D004298F
:10E5F0000ED040F2E72308A2FAF70098C0B200223A
:10E60000194600F011B8C0B20122194600F00CB84A
:10E6100019462EF4B59370476C6C645F6164765F45
:10E6200070617463682E63002DE9F74F0E469146C2
:10E63000D8484FF0200A90F82000FF2808D04FF06B
:10E640003042516EC3000AFA03F081430143516620
:10E65000D148009950F82140002C7DD004F13805B4
:10E6600094F89D0038B16868B04204D10121284671
:10E6700046F4FAD503E00121204646F4F5D594F896
:10E680008E00401CC0B284F88E0094F891100229CC
:10E6900007D0B4F88010C1B1884202D215E03DF431
:10E6A00031D300983DF414D30028F8D1B4F8800099
:10E6B00028B194F88E10814201D3432200E0002259
:10E6C000012100982CF474D753E194F88F0000F0E6
:10E6D00079F948B194F88F0000F052FF00221146FA
:10E6E00000982CF465D744E1228D4FF0000862B108
:10E6F000B4F87C00C10601D5400706D4A18D0123E2
:10E7000000982CF479D4A4F82880628D82B1B4F8F2
:10E710007C00C10601D4810703D4410708D4C00698
:10E7200006D5E18D012300982FF4BAD1A4F82A80F0
:10E7300094F87C0010F0130F21D194F89C00F0B1F4
:10E74000206FB0B1F3F7DCFDC0F30B07380B09D035
:10E7500040F2262391A200E005E1394640F6FF7021
:10E76000F9F74CDFB4F87E006FF30B003843A4F8E0
:10E770007E0094F88F002DF425D384F89C80B4F8A3
:10E780007C008A4FDFF828B201071FD5B9F1000FCE
:10E7900003D0A07DF97B084400E0B87BA075F87B2E
:10E7A00000F00F0040F42041A182216EE16066601C
:10E7B000DBF800102046884728B13C220121009850
:10E7C0002CF4F6D6D5E084F89180D2E0C00609D4C6
:10E7D00094F89D0010B16968B14200D010B900985A
:10E7E0002CF49CD494F89D00B0B16868B04213D169
:10E7F000B9F1000F0DD0A06E301A20F07041E06E1C
:10E80000B1EB400F03D3A87D797C0844A875A666B8
:10E8100012E0387CA875FAE7B9F1000F22D0606EDB
:10E82000301A20F07041E06EB1EB400F03D3A07DB1
:10E83000797B0844A07566665C4894F89D20407B0F
:10E8400000F00F0040F420417AB16268B2420CD16E
:10E85000A182E06E6968404201EB400020F0704107
:10E86000E1600CE0397BA175E5E7226E521C03D014
:10E87000A182216EE16002E040F4C041A182F3F781
:10E880003FFD1121B0FBF1F201FB12004FF6FF71C9
:10E8900001EA400094F89D1031B110B1202802D057
:10E8A00002E0012000E01F20E16E06EB4101084478
:10E8B00020F070416160DBF800102046884798B175
:10E8C00094F89D0020B14FF0FF31616084F8918091
:10E8D000206E411C3DD0E16881424AD13C22012199
:10E8E00000982CF465D644E084F8918094F89D005B
:10E8F00070B36868B0423CD194F8970061684200F8
:10E90000E06E02FB001020F070402849226E497C26
:10E91000521C01F00F010ED041F42041A982216E5A
:10E92000E960216E6FF07843421A22F070429A42F9
:10E9300004D2084602E041F4C041A9826860DBF8D5
:10E9400000102846884718B184F89D802869206106
:10E950000FE094F89D0060B940F2C1220FA115A00C
:10E96000F9F734DE05E040F2CB220CA111A0F9F753
:10E970002DDE084890F82000FF2808D04FF03042E4
:10E98000516EC0000AFA00FA21EA0A015166BDE898
:10E99000FE8F000008088000841380006C6C645FA8
:10E9A0006164765F70617463682E630083DB0500C9
:10E9B000D406800030000000014908707047000054
:10E9C000744B80002DE9F04F91B006460020109066
:10E9D0006C2106FB01F0FE494FF0000900EB010835
:10E9E000A5E1FC4890F8E800F94C00EB800004EB4E
:10E9F0008005B5F86E0810F03D0F08D0F648B0F865
:10EA00006011491CA0F860113DF47CD18FE1DFF862
:10EA1000C8A3BAF86201401CAAF86201B5F87008F0
:10EA200000F00F07052F7DD1F8F7A0F9EB49097821
:10EA3000884277DABAF86401401CAAF8640107AB8F
:10EA4000B5F87E08222201191846F3F7E0FE07A860
:10EA5000F9F710DE002866D0B5F87A0880B3A0F583
:10EA6000FA613422B1FBF2F1CFB2183005AB80B2BB
:10EA7000062201191846F3F7CAFE342017FB00F0EE
:10EA800000EB040ABAF8D00700F00107BAF8D00783
:10EA9000C0F3400048B1BAF8D007C0F3C00020B1BD
:10EAA00005A907A8F9F7E8DD58B1BAF8D007C0F30F
:10EAB000400098B1BAF8D007C0F3C02040B10DE0D3
:10EAC00011E047F00207DDE90701CDE9030116E097
:10EAD00040F22112C2A1C648F9F778DDCDF80C90BA
:10EAE000CDF810900BE0B5F87008C0F38017DDE9A1
:10EAF0000701CDE90501CDF80C90CDF81090B8F8DC
:10EB00005E01C0F38000002845D0B8F880A15FEA1C
:10EB1000DA3005D040F69702B649B748F9F756DD26
:10EB2000B64801E0F4E0C1E000EB4A013420B1FB5B
:10EB3000F0F000F0FF0ABAF1030F05D34FF49C7216
:10EB4000A7A1AFA0F9F742DD34200AFB004BBBF8C8
:10EB5000D007C0F3401028B940F23912A0A1AEA0EE
:10EB6000F9F734DDBBF8D007C0F3C01028B94FF473
:10EB70009D729BA1B4A0F9F729DD0AEB8A0101EB94
:10EB8000CA0140F2FE7202EB810101A80622214473
:10EB9000F3F73DFE03E0CDF80490CDF80890394638
:10EBA00005A843F4BFD18D49497888437ED13C23E1
:10EBB000FF22002140F2072021F4F2D20446B5F8EA
:10EBC00074B8B5F876A85FEA1A3005D040F61B0293
:10EBD000A949AA48F9F7FADC4BEA0A42B5F87808DD
:10EBE000C0F30900C0F51C70B5F87218890BA44B6E
:10EBF00033F81110494200EB410000B2002806DA58
:10EC000000F2712000B2521E22F0704208E0B0F50E
:10EC10001C7F05DDA0F2712000B2521C22F0704270
:10EC2000267084F80190012184F83510954B53F833
:10EC3000261091F87C10C90604D5B5F87018C1F3F8
:10EC4000401101B1012184F83610DFF83CC29CF874
:10EC500000C011EA0C0100D0012184F8361053F8ED
:10EC60002610B1F8803013B191F88E1000E0002129
:10EC7000183484F820100A9944F8161CBDF82C109A
:10EC800024F8121C9DF82E1004F8101C9DF82F106B
:10EC9000E170BDF83010A180BDF83210E180BDF800
:10ECA00034102181BDF83610618100E03DE00E99FD
:10ECB000E1609DF83C1021749DF83D1001F01F01AA
:10ECC00061749DF83D104909A174019944F80F1C25
:10ECD000BDF8081024F80B1C039944F8091CBDF872
:10ECE000101024F8051C059944F8031CBDF81810F1
:10ECF000A4F80110E777A261A082B5F87208800B32
:10ED00002077183C204621F497D2012010900CE087
:10ED10005C4850F8260090F8920008B1032F10D0FC
:10ED2000BAF86801401CAAF868013CF4EBD73046F9
:10ED30003CF4CED700287FF454AE109811B0BDE853
:10ED4000F08FBAF86601401CAAF866010DABB5F861
:10ED50007E080C2201191846F3F759FDB5F87A0818
:10ED6000E0B1A0F5FA613422B1FBF2F1CDB2183076
:10ED70000BAB80B2062201191846F3F748FD342088
:10ED800015FB00F02044B0F8D01701F00101B0F8F5
:10ED9000D007C0F3400041EA400407E0B5F870082E
:10EDA000C0F38014DDE90D01CDE90B010823FF223A
:10EDB000002140F2022021F4F3D1067044700B9937
:10EDC000C0F80210BDF83010C18021F435D2ACE794
:10EDD000008000B074128000400C8000744B8000F2
:10EDE0006C6C645F6164765F70617463682E63004D
:10EDF000B8630101FC6201013864010130F8FFFFD2
:10EE000072616C5F696478203C20424C455F5241DE
:10EE10004C5F4D4158000000656D5F626C655F722C
:10EE2000616C5F696E666F5F6C6F63616C5F697266
:10EE30006B5F76616C69645F676574662872616C8C
:10EE40005F69647829000000656D5F626C655F72C0
:10EE5000616C5F696E666F5F6C6F63616C5F72702F
:10EE6000615F76616C69645F676574662872616C66
:10EE70005F69647829000000486301010C640101A6
:10EE800004068000841380001006800002490148B7
:10EE900008607047DDE50001140680002DE9F047A9
:10EEA00007468846164699460025300A01240C2854
:10EEB00009D20D4A52F8201029B191F85010C943D7
:10EEC000890702D0002414B10BE00124FBE700F015
:10EED00021F830B94B4632464146384632F4F4D434
:10EEE00005462846BDE8F08738128000034A52F8EC
:10EEF0002000B0F87800088000207047B41380002C
:10EF0000034951F8200090F8940000F00100704788
:10EF1000B4138000044951F82000002801D00020DB
:10EF20007047012070470000B4138000034951F876
:10EF30002000002180F8561070470000B4138000B4
:10EF400070B51E4951F82040B4F88600002826D03C
:10EF50001B48B0F8E410B4F88A201A4BA06F1A4D81
:10EF6000B3FBF0F3EB1A1144B3FBF1F56D1EE16F47
:10EF7000814205D840F2352214A118A0F9F726DB0A
:10EF8000D4E91E10B0FBF1F1491E8D4200D30D46AD
:10EF9000B4F88600854200D22846A4F88600B4F86A
:10EFA0008600B0F5FA7F07D3BDE8704040F23D22FD
:10EFB00006A114A0F9F70A9B70BD0000B4138000ED
:10EFC0007412800000730A0020A107006C6C645F5B
:10EFD000636F6E5F70617463682E6300636F6E5F52
:10EFE0007061722D3E74696D656F7574203E20638B
:10EFF0006F6E5F7061722D3E696E74657276616CC2
:10F0000000000000636F6E5F7061722D3E6C617472
:10F01000656E6379203C3D20434F4E5F4C41544523
:10F020004E43595F4D4158002DE9F0470746884649
:10F03000164699460025300A01240C2809D20D4AAB
:10F0400052F8201029B191F85010C943890702D015
:10F05000002414B10BE00124FBE7FFF75BFF30B99C
:10F060004B4632464146384636F49AD6054628463F
:10F07000BDE8F087381280002DE9F04106460F46C2
:10F08000154698460024280AFFF744FF30B9434646
:10F090002A463946304636F4E9D604462046BDE8CD
:10F0A000F081000007495A200870084906480860A6
:10F0B000084907480860094907480860094908489D
:10F0C000086070471E068000655180003006800091
:10F0D000E9F00001340680002556800024068000F7
:10F0E00025F100012806800070B50446204637F45B
:10F0F000F5D40546084804EB440100EB81020023E7
:10F10000537000F821309360044850F8240008B18F
:10F110000349C161284670BD5C7C8100B413800046
:10F12000335680002DE9FE4F9D4951F820409D48FF
:10F1300090F83000FF2808D04FF03042516EC300E5
:10F1400008209840814301435166206C38B9E06A39
:10F15000206420B1C088C0F30900A4F89200256C97
:10F1600094F89400C00607D535B1B4F8920008B9F8
:10F17000286808B1012700E00027A66A56EA0700C0
:10F1800025D094F8A980B8F1020F78D1A534E078A1
:10F19000401C0221B0FBF1F201FB12012078C0EB10
:10F1A000C0000844C0B2C0EBC00041007E48084423
:10F1B000B0F8E418C90B002909D17C490978002965
:10F1C000FAD1B0F8E61841F01001A0F8E618D8E03E
:10F1D00046B1B079B6F804B04FF003090021A1623E
:10F1E000002630E0002F7CD0B4F8920040B92868A7
:10F1F00030B105462064E888C0F30900A4F8920005
:10F20000E988A888C1F309020244B4F89200121AEE
:10F210001FFA82FBC1F30132012A02D04FF002092A
:10F2200001E04FF0010994F8A320904200D310466A
:10F2300080B221F4405141F48051E980B4F8921039
:10F24000091AA4F892109434617CC1EBC107217DA6
:10F250007A18D3B2491C0222B1FBF2FC02FB1C114A
:10F260003944C9B2029134F89419CA0608D53DB19F
:10F27000B4F892200AB92A6812B1012701E07CE0B3
:10F2800000274A0601D5001D80B2484A1278012A9B
:10F2900005D0890406D42FB14FF0010A04E04FF0E5
:10F2A000000A01E04FF0000AC0B2CDE900306FF073
:10F2B000100010EA0A1F04D090223D493D48F9F79A
:10F2C00085D95FEA990004D0932239493A48F9F781
:10F2D0007DD90198000240EA0A1141EA090100982B
:10F2E00000E04EE0304AC0EBC00002EB4000A0F866
:10F2F000E618A0F8E8B8B4F89410890411D402997B
:10F30000C1EBC10102EB4101B1F8E428D20B42B9D3
:10F31000264A12782AB9B1F8E62842F01002A1F87C
:10F32000E628B0F8E41821F40041A0F8E41814F835
:10F33000A80F401C0221B0FBF1F201FB120020706B
:10F340006078401CC0B26070A83C1649497DFF2916
:10F350000FD04FF0304CDCF864204FF03009C9007A
:10F3600009FA01F309EA00109A4388400243CCF8F5
:10F37000642008F1010808F0FF08B8F1020FFFF45B
:10F3800027AF084890F83000FF2807D04FF03042F0
:10F39000516EC3000820984081435166BDE8FE8F3E
:10F3A000B413800008088000008000B0E8468000A8
:10F3B000E4620101486101018061010170B5074DFE
:10F3C00000EB400405EB84000126467005F824108C
:10F3D0008280C3800248017070BD00005C7C8100A7
:10F3E000E84680002DE9F04105460E46174698464E
:10F3F00000F010F818B1064C012084F81E034346B3
:10F400003A4631462846BDE8F04138F449940000B8
:10F41000A41480000148407870470000564A8000DC
:10F420002DE9F0478CB081460C4617469A460026D7
:10F430004FEA1728A18803A82222304B1944F3F77A
:10F44000E6F99DF80C50202D02D0212D18D044E073
:10F450009DF80D109DF80E009DF80F2040EA022245
:10F460009DF810009DF8113040EA03234046FFF755
:10F47000A5FFA088F9F7FCD800200CB0BDE8F08704
:10F480009DF80D009DF80E1040EA01219DF80F0037
:10F490009DF8102040EA02229DF811009DF81430DA
:10F4A0009DF8125040EA03639DF81300000440EAFF
:10F4B000052003439DF815009DF8165040EA0520ED
:10F4C0009DF817509DF818C045EA0C2C0C4D2D687E
:10F4D0001DB1CDE9000C4046A8474046FFF71AFD94
:10F4E00048B94046F9F730FA53463A46214648466D
:10F4F0003AF4BCD206463046BFE70000008000B0B8
:10F50000E44680002DE9F04106460F461546984630
:10F510000024280AFFF7FEFC30B943462A46394644
:10F5200030463AF4B7D304462046BDE8F0810000E7
:10F530002DE9F04707468846164699460025300AC9
:10F5400001240C2809D20D4A52F8201029B191F853
:10F550005010C943890702D0002414B10BE00124E4
:10F56000FBE7FFF7D7FC30B94B46324641463846F9
:10F570003CF484D005462846BDE8F0873812800068
:10F580000D4951F82010B1F87C1011F00C0F12D178
:10F59000C906C0EBC00001D5C0B201E0401CC0B23A
:10F5A0000649C0EBC00001EB4000B0F8E8080028B5
:10F5B00001D0F9F76398704784138000008000B091
:10F5C00010B5002000F002F8002010BD2DE9F84F22
:10F5D00007464FF00008C1463CF4A0D08246002008
:10F5E0000090724D6C1F30F4CBD4034600200126EE
:10F5F000C0F3C70100F0070214F801C02CFA02FCA6
:10F600005FEACC7C1FD0DFF8A8C19CF8ABC4BCF18A
:10F61000000F38D053F820C0AAEB0C0C2CF0704C23
:10F62000BCF5C85F18D203EB000C9CF994C01CF128
:10F63000020F28DC15F801C006FA02F22CEA020CCF
:10F6400005F801C01FE015F801C006FA02F22CEA25
:10F65000020C05F801C016E003EB000B4FF0000CA4
:10F660008BF894C053F820C0AAEB0C0C2CF0704C13
:10F67000BCF5FA4F07D915F801C006FA02F24CEAB8
:10F68000020C05F801C0401C2528B1DB0020494AC6
:10F69000295C135C19402954401C0528F8DB2846D6
:10F6A000F8F7EEDF0246022A1AD20020C0F3C701A3
:10F6B00000F0070314F801C02CFA03FC5FEACC7CCD
:10F6C0000BD015F801C006FA03F34CEA030C05F859
:10F6D00001C0521CD2B2022A02D2401C2528E5DB0E
:10F6E000284632F4C1D00024DFF8CCB0304800EB1B
:10F6F000841A9AF8440009282ED19AF8300058BB91
:10F700001BF80400401C0BF80400E0B235F450D4A0
:10F71000052800D2EFB169462046FFF7E7FB1BF84A
:10F7200004004FF47A6110FB01F1BDF8000080087D
:10F7300000EB80008008B1FBF0F0252809D906EB2A
:10F74000042081B20022022020F494D500200BF87E
:10F7500004000FB94FF001099AF844000C2802D0B8
:10F76000142805D006E0E0B229463AF4F5D201E0CB
:10F770004FF00108641C0C2CB8DBB8F1000F04D06A
:10F7800002210022084620F475D5B9F1000F07D0F8
:10F790004FF4C8720021042021F40AD1BDE8F88F8B
:10F7A0000349002081F81E03F8E70000BD17800020
:10F7B000A414800000478000EC7C810070B50E46E8
:10F7C0001D46002300210C4814C811E032F8310016
:10F7D000A8420CD1042000EBC100105850B1F9F739
:10F7E00087F80246294630469047034602E0491C06
:10F7F0008C42EBD8184670BD9802800070B501208D
:10F800000021114A114E547806EB811393F84420DD
:10F81000022A01D0032A04D19D68ED7C0DB100209D
:10F8200070BD072A04D11CB1022C01D0002070BD8C
:10F83000052A04D19A6812780AB1002070BD491CCB
:10F84000C9B20C29E0D370BD92068000A4148000D8
:10F8500070B5FCF76DFC0446601C24D0FCF73AFC44
:10F8600000EE100A9FED131AF8EE400A00EE104A5F
:10F87000B8EE400A20EE011A81EE200A10EE100ABE
:10F8800005F08CFD0C4A536883B1D3E90463D2E9D7
:10F890000454721B63EB0403141A73EB010401D2CA
:10F8A0001046194670BD0020014670BD002001467B
:10F8B00070BD000000247449A08E80002DE9F04145
:10F8C00005462DED028B82B00E460024FCF702FCAB
:10F8D00005F0FFF941EC180B2846314605F00CFA0B
:10F8E00053EC182B05F08AFA9FED1E1B53EC112BDD
:10F8F00005F03AF89FED1D1B53EC112B04F080FF2F
:10F9000005F0BAF901460120FCF7D6FB194D1FE0BE
:10F9100019A003C8CDE900011948006800F00700EC
:10F920001DF8006017480768D5F800803846414642
:10F93000FBF7F0FF68686968091AB142FBD34146DA
:10F940003846FBF7C7FF2046641CB0F57A7F03D228
:10F95000FCF7FCFB0028DBD002B0BDEC028BBDE85D
:10F96000F08100000000000080842E4100000000B3
:10F970000000E03F001000E04030101810200000B0
:10F9800004C500A0FCED00E02DE9FC410024FCF7DB
:10F99000E3FB144D1FE0144803C8CDE900011348F0
:10F9A000006800F007001DF8006011480768D5F8EE
:10F9B000008038464146FBF7ADFF6A686868831AE5
:10F9C000B342FBD341463846FBF784FF2046641C14
:10F9D000B0F57A7F03D2FCF7B9FB0028DBD1BDE894
:10F9E000FC810000001000E078F9000104C500A0CF
:10F9F000FCED00E01CB5F5F7E5FC08490848F7F711
:10FA0000F5FE00200090034601904FF4007205A11E
:10FA1000074804F0EFFC04F0C3F8FEE79C468000C2
:10FA2000C56D00016372656174655F7461736B001D
:10FA3000113A010110B5FBF74DFA10B104F05AF973
:10FA4000FEE7BDE81040F2F7FBBA10B54FF0FF3407
:10FA50002046F6F7D6DF2046BDE81040F6F7F39FC4
:10FA60007CB504460D46002001900090694601A82F
:10FA700066F4BCD166F410D205FB00F11CB9009805
:10FA8000441A04F180742046FBF7FEFF08B1002001
:10FA90007CBD09207CBD000070B588B00546012002
:10FAA00027490978002921D007A92846F8F7BEFE82
:10FAB000002843D000260696A0F10804022206A9D9
:10FAC0002046F8F72DFC80B2022811D01D4881692C
:10FAD000407A40F20722CDE9002002911A4B1BA286
:10FAE0004FF400410020F8F773DD092008B070BD25
:10FAF000082204A92046F8F7F9FB204C606878B189
:10FB0000BDF8120065F458D6BDF8122061680830BF
:10FB1000114408446060284603F0DCFC0020E5E75F
:10FB2000207A6060BDF8120065F446D6BDF8122058
:10FB300061681144084460602672ECE70220D5E752
:10FB4000C8238000641F800090570101523A353A63
:10FB500025732C204C256420666C617368207374B7
:10FB6000617465203078253032582C206572726FB0
:10FB700072203078253038580D0A0000D8328000C5
:10FB80002DE9FF5F07460D4616464A4800780028D3
:10FB90000CD03DB12C882CB126B11FB14FF6FF7AA5
:10FBA000574505D1052004B0BDE8F09F0120FAE7D4
:10FBB0004FF00009A5F8009003A93846F8F736FE83
:10FBC00080465FEA08001FD0BDF80C20944219D38C
:10FBD0003146FBF7A7FF83460924082201A9A8F1B3
:10FBE0000800F8F783FB08280FD101A804F054F8A7
:10FBF00058B1314601A804F05AF830B1A5F800B068
:10FC0000002402E0042400E00224022C50D1CDF8AC
:10FC10000490CDF80890CDF800906FF4404038186B
:10FC200002D0B02844D134E001A803F003F978BB36
:10FC30009DF8040070B99DF8051059B99DF806109B
:10FC400041B99DF8071029B99DF8081011B99DF820
:10FC50000910E9B1FF2813D19DF80500FF280FD145
:10FC60009DF80600FF280BD19DF80700FF2807D15B
:10FC70009DF80800FF2803D19DF80900FF2817D040
:10FC800001983060BDF80800B0800620288000246C
:10FC90000EE0684603F0BEF850B9BDF8000038B178
:10FCA000504505D0BDF80000308002202880002497
:10FCB000204678E7C823800070B588B005460C461A
:10FCC000002C0AD006A907A866F490D02C4E8DB15E
:10FCD000280504D0062008B070BD0720FBE7069871
:10FCE00005EB043100F18070814201D8356008E0F5
:10FCF0000620F0E70699604201EB003000F18070C9
:10FD000030604FF49E711F48F2F71AFE1E4D00201E
:10FD1000287030681D4900EB0430086066F472D02A
:10FD20001B490870082204A93068F8F7DFFA082890
:10FD300010D018488169407A4FF48972CDE90020CB
:10FD40000291154B15A24FF400410020F8F740DC5A
:10FD50000920C0E708221D4904A8F2F70DFD28B1CB
:10FD60002046FCF719FF0028B5D104E02046FCF737
:10FD700093FF0028AFD1012028700020ABE70000DE
:10FD8000CC238000D8328000C8238000D02380009C
:10FD9000C9238000641F800086570101523A353A1A
:10FDA00025732C204C256420666C61736820737465
:10FDB000617465203078253032582C206572726F5E
:10FDC00072203078253038580D0A0000ACD5070075
:10FDD00010B5054C01212046FFF742FE2046BDE844
:10FDE00010400121FFF768BF00F00F012DE9FE432D
:10FDF00006460C461746F6F79EFF2C48007878B367
:10FE00007FB374B340F6EC7084422BD84EB3A6F5A2
:10FE10007F40FF3826D002A93046F8F707FD054697
:10FE2000002D3DD008226946A5F10800F8F75EFADA
:10FE3000684603F031FFC8B1BDF808004FF4004830
:10FE4000A04221D13A4621462846FDF761F878B113
:10FE500017A241460020F8F7BBDB0020BDE8FE8377
:10FE600002E0FFE70520F9E70120F7E70920F5E7C1
:10FE700016A241460020F8F7ABDB3B46224631464E
:10FE8000284601F0B3FCE9E71BA241460020F8F741
:10FE90009FDB3B4622463146284601F0A7FCDDE7C2
:10FEA0003A4621463046F5F7CDFED7E7C823800015
:10FEB000523A353A6E7664735F70757428292073F0
:10FEC000616D6520646174610D0A0000523A353A33
:10FED0006E7664735F7075742829207265706C612A
:10FEE0006365206461746120776974682073616D53
:10FEF00065206C656E0D0A00523A353A6E76647371
:10FF00005F7075742829207265706C616365206468
:10FF100061746120776974682064696666206C6525
:10FF20006E0D0A0010B501210348FFF7C5FE002839
:10FF300001D0FFF74DFF10BD00F00F0100281ED0CB
:10FF4000028800F10801B2F5806F0CD0A2F5806242
:10FF5000013A0BD0022A0CD0032A10D1428A018A1E
:10FF6000007900F00DB8007900F0BCB8007900F01D
:10FF70001BB983780A460079194600F09FB870478C
:10FF8000FEB505460E461446204600F0B2FC002899
:10FF900019D0164F164B0922B98D304600F08FFC50
:10FFA000394601EB450603280ED008280BD13968E5
:10FFB00041B18DF80150022C15D004208DF80000BD
:10FFC000684688473483FEBD396841B18DF80150D9
:10FFD000012C06D002208DF8000068468847B480C6
:10FFE000FEBD0120F7E70320E8E700002CBC8000FD
:10FFF000BC4580000EB58DF8010000208DF8000092
:020000040101F8
:100000000846FDF762FA0849884202D107208DF8B8
:10001000000006480168002905D09DF8000000286E
:1000200001D0684688470EBD444F4F472CBC800026
:10003000017801290AD00F4A052909D0062916D0CE
:10004000072916D19069002813D000475FF48690E5
:100050009378D1785B1E194203D1018940685EF420
:1000600067970221517001894068F8F7C3BB5EF4BD
:10007000739770477C458000FEB504460D461646D2
:100080001A200C4901EB44029288012A10D1002069
:100090008DF80000898D084A022000F0F5FBADF8CC
:1000A0000200ADF80460029569462046F7F76FF844
:1000B000FEBD00002CBC8000BC4580000EB5084B86
:1000C0001B68002B0BD08DF80100002907D1107898
:1000D000002804D106208DF80000684698470EBD20
:1000E0002CBC80003EB505460C781448144B092200
:1000F000818D204600F0E3FBADF8004000228DF832
:1001000004200E49022301EB450103280BD00828E7
:100110000ED0ADF8022001208DF804006946284673
:10012000F7F768F83EBDADF80230091D0291F5E71A
:10013000ADF8023018310291F0E700002CBC8000CD
:10014000BC45800070B5002823D0134C00682060A7
:1001500004F130002C210546F2F7F2FB0020A085C7
:1001600004F12C0121630D4860630D48A063092050
:1001700084F83C00402084F85A00012084F85B0099
:100180000648103020642846BDE870400549F7F75E
:100190000DB8022070BD00002CBC8000F454010199
:1001A000BC4580003DFF00012DE9FF4105460C469E
:1001B00026782E4F2E4B0922B98D304600F07FFB5A
:1001C000ADF80C6000218DF80E10394601EB4506A4
:1001D00003281ED005280CD0072840D008282BD093
:1001E00001208DF80E0003A92846F7F761F8BDE855
:1001F000FF8139680029F6D08DF8015005208DF86F
:100200000000A0680190A088ADF808006846884703
:10021000E9E7A068FDF754F90446396841B18DF863
:100220000150012C06D002208DF800006846884756
:10023000B480D8E70120F7E7A068FDF741F904464C
:10024000396841B18DF80150022C06D004208DF898
:100250000000684688473483C5E70320F7E7A28893
:100260002846A168FFF7C6FEBDE700002CBC800051
:10027000BC4580002DE9F04104460D4616461F4658
:1002800002F070FF384601F0D9FD3146284600F0F3
:10029000C9F9284600F024FA00F014F80648074986
:1002A00010F82420486962F3030064F347104861A2
:1002B00003480470BDE8F08120540101101F800044
:1002C000F849800010B5F6F7E6D90128FBD0BDE863
:1002D00010401320F6F7D69910B50549EB200861B8
:1002E00004490968C8600348F6F7FBDA10BD00004E
:1002F000101F8000641F800001460148F6F7849DAE
:10030000641F80002DE9FC414F4C2068000602D498
:10031000206840061FD5206820F4805020602068A7
:1003200020F400602060206840F0400020602068D9
:1003300040F480702060206820F040002060206839
:1003400040F080002060206840F400702060206849
:1003500020F0800020603C4840300168C1F38011EB
:1003600021B13A490A7842F004020A703849016022
:100370000020012341B2002909DB01F01F0503FA27
:1003800005F24909890001F1E021C1F88022401CF1
:10039000C0B22228EED3002003F0B4FC002528468A
:1003A000F7F7CAFA01462846F7F7D0FA00F06EF8D8
:1003B000FFF74BFBFFF7B6FD642000F0B9F900230F
:1003C0004FF4FA7201211846FFF754FF21486BF4ED
:1003D000E5D121485FF484D700F0D6F847F23050D9
:1003E00002F060FF02F076FF0020F3F721FE00200C
:1003F00002F076FF002000F0B7F918A003C8CDE99D
:100400000001206800F007001DF800501548454322
:1004100015480668154C276830463946FBF77AFAC6
:1004200060686168091AA942FBD339463046FBF778
:1004300051FAF5F7CDDC01F00BFEF8F761F8BDE8F5
:10044000FC4100F015B8000004C500A00041800088
:10045000A0FEFFFF784B800091890001403010180A
:1004600010200000A0860100FCED00E0001000E07C
:100470000548016821F08071016003496FF0400078
:10048000143908607047000058C500A04FF47A7016
:100490000F4A116821F0807111604FF4C0310C4B8C
:1004A00038331960116841F000711160084B6FF02A
:1004B0004001143B19600021136861F3DF6313608E
:1004C000401E411CFCD1106840F0807010607047E5
:1004D00058C500A02DE9F04100242A4EDFF8A08085
:1004E000274F08F17C0806F158053868C0F3017001
:1004F000012833D004EB84007179B37905EB8000D7
:10050000194401EBC103C26803EB011102EB810244
:10051000C260026902EB41010161D8F80000C00627
:1005200016D547F612206BF47BD404EB840005EB60
:1005300080004FF47A6101614900C160022181713C
:10054000418801F57A714180818801F57A71818055
:10055000641CE4B20C2CC8D3BDE8F08104EB840029
:1005600005EB80007179B379C2681944C1EB411180
:1005700002EB4102C260026911440161CDE7000053
:1005800050C500A0AC48800008B51C49192002F0F5
:10059000C9FB02F015FF02205FF446D6F7F79CFB7B
:1005A000FFF753FA1749164888621748C862174977
:1005B000086002F0F5FDFFF78DFF5FF497D6144851
:1005C00001781048583068F49DD200205FF458D666
:1005D00010494FF47A70088010490F4808600020D5
:1005E00000906A4601214CF21500FFF7FFFBF7F778
:1005F000D1FCBDE808400A4869F4D292D137060020
:10060000D5798000AC4880001B7A80006C078000A0
:10061000F84980004624800045C30700A8268000D2
:10062000797F00012DE9FE430E4602274FF4FA714F
:100630000291254A116821F0405101280CD0106820
:1006400008431060002E05D002AA39464CF207007C
:10065000FFF7CCFBBDE8FE8302961B4830380368E9
:1006600043F08003036041F0805010601648283842
:10067000016841F080010160144840884FF47A71AC
:10068000484313A106C9CDE900120F494C39096846
:1006900001F007011DF8015045430028D2D00E4853
:1006A000D0F800800D4CD4F8009040464946FBF746
:1006B00031F962686068801AA842FBD34946404617
:1006C000FBF708F9BEE7000050C500A0F84980001C
:1006D0004030101810200000FCED00E0001000E099
:1006E00010B51249096801280AD0022811D0F5F77F
:1006F000D2DF0128FBD0BDE810400620F5F7C29FED
:10070000F5F7C9DF0128FBD0BDE810400720F5F759
:10071000B99FF5F7C0DF0128FBD00820F5F7B2DF5D
:10072000BDE8104046F290506BF47A9350C500A09B
:10073000642801D30149488070470000F8498000CF
:1007400010B500F011F8064906480A6800688242B0
:1007500004D00860BDE8104001F07ABC10BD000074
:10076000D8438000DC4880002DE9F04F87B0182185
:1007700001A8F2F7E5F8EFF311853C4801783C4811
:100780000068C0F30220401C012282408818C0B2D9
:1007900080F31188FAF7A6FB002860D1DFF8D4A017
:1007A000DAF80060DFF8CCB00BF1380BDBF80000B2
:1007B00000F07047DFF8C090D9F8008101A802F07E
:1007C000B9FA98BBBDF8040080B369F4B5D008B19C
:1007D000F7F72EFC01F0C7F801A90520FAF70EFA89
:1007E00051EC100B04F018FA244C206300F1360190
:1007F0009A2902D202F052FF02E0607B401C607333
:1008000001A90620FAF7FAF99FED1D1B51EC100B18
:1008100053EC112B04F0F2FA04F0FEF96063A0F13E
:10082000AB01E52903D203F01DFA03E005E0607B8C
:10083000401C6073A06B401CA063C9F80081CAF81B
:100840000060EFF31080012181F31088DBF80010C5
:1008500021F070413943CBF8001080F31088E8B2E2
:1008600080F3118807B0BDE8F08F000002E400E0DB
:100870000CED00E008C500A000E000A0AC4880003E
:10088000000000000000594070B5044600200B46EF
:10089000002C01D001210FE0084670BDCD0801F009
:1008A0000706555DF540ED0704D05B1C9BB2A142E5
:1008B00000D11846491CC9B2A142EFD970BDF0B5AC
:1008C0000646491C89B2002701200EE0C40800F04A
:1008D00007051C5DEC40E40705D0B14201D1074695
:1008E00005E0491C89B2401CC0B29042EED33846A4
:1008F000F0BD002805D0012803D0022801D0002037
:1009000070470120704700008AB0124C54254FF404
:100910007A761048F4F778FD03F0AAFD6378218910
:100920002278A778CDE90573CDE90721E17822790E
:1009300009A3CDE90053CDE903210290144B15A280
:1009400019A10220F4F752FCF4F71CFC304603F026
:100950008FF8DEE79C7A81005469636B436F756E94
:10096000743A2025642C2054696D653A2025303274
:10097000642F2530326420253032643A25303264C9
:100980003A253032642E253033640D0A0000000011
:10099000D05501012E2E5C5372635C757365725CD9
:1009A0006D61696E2E6300004E4F5F544147000039
:1009B0002DE9FC470025002641680A7802F00F0463
:1009C0004A780B798F7842EA0363CA78120442EAC4
:1009D00007221343404A1768BB4200D1012515B1D5
:1009E00001230B7001E002230B7041684C703B4FF8
:1009F0004FF00008F978B1B1436811785970118847
:100A00004368090A997011684368090CD970116824
:100A10004268090E11710288406805215FF466D0B2
:100A200087F8038004E00288406801215FF45ED00B
:100A3000012D45D1012C01D0032C41D1F6F7EAFB61
:100A400028465EF469D701F0ADFF254AA2F5215191
:100A5000D06801C1526810442822FBF763F8214F87
:100A60004FF480513846FBF70FF830221E493846C4
:100A7000FBF778F801F0A8FF012C21D101261BA07B
:100A800003C8CDE900011B48006800F007001DF80D
:100A90000070194847431948D0F80090184CD4F812
:100AA00000A048465146FAF735FF60686168091AA8
:100AB000B942FBD351464846FAF70CFFF5F746D842
:100AC00016B928465EF428D700205EF459D50D48A3
:100AD00080F80080BDE8FC87902480007C45800081
:100AE00004BC800000300001C49380004030101826
:100AF0001020000004C500A0400D0300FCED00E044
:100B0000001000E0482580002DE9F05F0446616890
:100B1000087800F00F054FEA1018894E4FF0000AD0
:100B200086F803A0DFF81C92874F4FF0020B002DD0
:100B300002D1608829282BD0022D58D0032D56D001
:100B400048780A798B7840EA0260CA78120442EA4F
:100B50000322104338604A790B7A42EA0362CB7968
:100B600089791B0443EA01210A433261C9F80C0068
:100B7000002D75D001205EF403D54FF48051386804
:100B80005EF454D400286CD0616801200870C4E081
:100B9000491C28226B48F1F73AFEB9F80000A0F58D
:100BA0008E41443906D1D9F80C00010502D1F7F77E
:100BB0006AF848B1606880F800B022886068BDE8D3
:100BC000F05F01215EF492975EF440D728B1D9F826
:100BD000040000F56270306103E0D9F804003030A1
:100BE0003061D9F80C006FF30B003860C0E74FF0AC
:100BF000010B86F803B0608829281ED048780A794E
:100C00008B7840EA0260CA78120442EA0322104359
:100C100038604A790B7A42EA0362CB7989791B04FE
:100C200043EA01210A433261C9F80C003069010529
:100C30002FD00BEB1030F0802DE0491C28224148CA
:100C4000F1F7E5FDD9F80C006FF30B0038605EF4A6
:100C5000FDD638B1D9F8040000F562703061E5E7DF
:100C600054E057E0B8F1010F07D0B8F1020F0AD0F5
:100C7000D9F8040030303061D8E7D9F8040000F525
:100C800062703061D2E7D9F8040000F5627030611B
:100C9000CCE7000BF080022D34D001205EF470D43C
:100CA0003868F060606880F800B0606880F801B073
:100CB0006168F08888706168000AC8702288042121
:100CC00060685EF413D786F801B086F800A0C6F815
:100CD00014A0A6F808A01D48C0F800A086F802A03D
:100CE0001B494FF40052A1F5016001F0ECF81948DE
:100CF00001F0DCF830695EF41BD6174880F800A0DC
:100D0000BDE8F09F00205EF43BD4C9E700205EF40C
:100D100037D432E7606880F800B00C48C0F800A013
:100D20002288012160685EF4E1D60B4880F800A0BB
:100D300030695EF4FDD5BDE8F05F00205EF42094DC
:100D40007C45800004BC80008C24800090248000BE
:100D5000049C8000F4938000482580002DE9F04138
:100D600004460F46174EF5683068001D02F076FD08
:100D700038B9306890F82C100120884031698143DF
:100D80003161601C07D137B13168BDE8F041091D00
:100D90000D4802F09CBD2C4430684460AC4206D241
:100DA0003168F06C091DBDE8F04102F078BD316892
:100DB000B06C091D02F073FDB06A844200D2B462C7
:100DC000BDE8F08134468000C8BD800070B504469F
:100DD00002F08AFD1D4DA868401CA860286810B16B
:100DE000686938B10CE02C60A868012808D100F0CF
:100DF000D3F905E02868E16AC06A884200D82C600F
:100E0000686A401C6862A065E06A01212A69814025
:100E1000114329610E4900EB800001EB8000211D88
:100E200002F055FD02F06EFD686900280CD02868BC
:100E3000E16AC06A884207D206494FF080500860D4
:100E4000BFF34F8FBFF36F8F70BD0000344680003B
:100E5000B0BC800004ED00E010B502F045FD0E4C82
:100E60002068A0B90D4802F00CFD0C48143002F0C7
:100E700008FD0A48E0601430206100220C210A209D
:100E800003F010F9206010B105A102F08BFDBDE860
:100E9000104002F037BD00002046800088BC800072
:100EA000546D72510000000070B50C4D0C4E11E0F5
:100EB00002F01AFDF068C468201D02F0CFFCA8689B
:100EC000401EA8606868401E686002F01BFD204656
:100ED00000F053F868680028EAD170BD34468000FD
:100EE000B4BD800030B40B46026C002A0CD0C1683F
:100EF0001144C1604468A14201D30168C160C16866
:100F000030BC1846F1F783BC30BC70472DE9F04186
:100F1000044617460026A56B226C002A10D0C7B1E4
:100F2000E068F1F774FCE168206C091AE16022685E
:100F3000914202D26168081AE060022F16D017E0D1
:100F40002068A8B9606803F0FBFA064600206060DC
:100F50000EE0A068F1F75BFC216CA0680844A0607B
:100F60006168884204D32068A06001E005B16D1E6D
:100F70006D1CA5633046BDE8F08110B50446206BBA
:100F800002F0CCFC2046BDE8104002F0C7BC0000D7
:100F900000200B490A69012A00D901200A68D26A97
:100FA0000AB100207047074A1268012A01D90020BF
:100FB000704708B100207047886AC968401A7047B6
:100FC00034468000B0BC80000749CA681168002917
:100FD00004D00021016019B1002070470121F9E718
:100FE000D068006870470000204680004FF4004140
:100FF0000F48420706D0C01D20F007000C49411AD7
:10100000C1F500410B4A10600023536001440839C8
:1010100021F00701103A11604B600B600B1A43601E
:1010200001604068906050604FF00040D0607047B1
:101030001CBE8000944680001C4D1D4CFFF734FF01
:101040002868012807D91B494FF080500860BFF37A
:101050004F8FBFF36F8F02F0D9FD03F009FA2064C0
:10106000FFF796FF022802D3F4F756D800E030BF0E
:1010700003F0FEF96064606C216C401AA16B0844B7
:10108000A063606C616B401A64280BD3A16B411A9A
:1010900064225143B1FBF0F0E06303F0E9F96063CF
:1010A0000020A06303F0BAFAC8E70000B0BC8000DB
:1010B0003446800004ED00E070B51D46049C002914
:1010C00009D02260E06321640121204603F004F886
:1010D00084F84C5070BD2460F4E72DE9F05F814640
:1010E000DDE90A570C9C0E4693469A464FEA8B015F
:1010F000A522206BF1F77CF8216BABF1010001EB2D
:10110000800020F00708C4F854B000202218315C99
:1011100082F83410315C11B1401C2028F6D300262F
:1011200084F853600A2D00D30925E56225666666BA
:10113000201D02F0B1FB04F1180002F0ADFB2461A8
:10114000C5F10A00A0616462A66684F86C6052462C
:101150004946404600F0BAFA2060002F00D03C60BB
:10116000BDE8F09F2DE9F0470546DDE908940E46FD
:1011700017469846002C0DD0FFF76EFE2560A6613D
:10118000E761C4F82080C4F82490201DBDE8F04732
:1011900002F082BBBDE8F08770B50024114D04EB6E
:1011A000840005EB800002F06CFB641C0A2CF6D373
:1011B0000C48C83002F065FB0A48DC3002F061FBE5
:1011C0000848F03002F05DFB074802F05AFB064881
:1011D000143002F056FB044904483C398164143150
:1011E000C16470BDB0BC8000B4BD800034468000D6
:1011F00030B5134900E011460A688242FBD34B68C0
:101200005C18844203D140681844486008460D6861
:1012100044682318AB420DD1094B103B1B689A421E
:1012200006D05268224442600A681268026002E0F6
:10123000036000E00260814200D0086030BD000021
:101240009446800070B50024416000610C4D9142CD
:101250000AD8D11A8269914201D301240EE0011DFE
:10126000286902F01CFB09E09A4203D2994201D39B
:10127000012403E0011DE86802F011FB204670BD67
:101280002046800010B5044602F02EFBA06B20B172
:10129000002402F037FB204610BD0124F9E710B509
:1012A000044602F021FBA06BE16B884201D10124CE
:1012B00000E0002402F026FB204610BDF8B50546EC
:1012C0000E461048C068C068C468201D02F0C6FA07
:1012D000E06901280FD1A0692B464119324620460A
:1012E000FFF7B0FF38B100200346014600902A46C0
:1012F000204603F023FA616A01B02046BDE8F040C1
:10130000084700002046800030B585B0224D3AE005
:101310000298002837DB049C606910B1201D02F0A0
:101320009DFA01A800F082F8024602980A282AD203
:10133000DFE800F0050505291E260505291E03988E
:10134000A169034601442046FFF77CFFD8B1616ADA
:1013500020468847E069012815D1002000900398B5
:10136000A169002342181946204603F0E7F90AE074
:101370000398A061811813462046FFF763FF02E03F
:10138000204602F0CBFA002202A9286802F090FF62
:101390000028BDD105B030BD20468000F8B5064616
:1013A0000D4602F033FC684600F040F80446009811
:1013B00010B103F033F9F8BD45B9A64206D803F0E1
:1013C0002DF921463046FFF779FFF8BD0C481DB1D5
:1013D0000169096891B10025311B2A46006802F0B5
:1013E000F3FA03F01BF90028EFD106494FF08050C3
:1013F0000860BFF34F8FBFF36F8FF8BD0125EBE798
:101400002046800004ED00E00748816C096800294F
:1014100005D0816CC968C9684968816270474FF01E
:10142000FF318162704700003446800070B5054688
:1014300003F01EF80446074EB068844204D200F060
:101440000BF80120286001E000202860B4602046ED
:1014500070BD000020468000F8B5154E1EE0C06843
:101460000568C468201D02F0F9F9616A20468847C2
:10147000E069012812D1A0692844A84206D9606019
:101480002461211DF06802F00AFA07E000200346FB
:10149000014600902A46204603F050F9F0680168A2
:1014A0000029DCD1F0683169F1603061F8BD0000DD
:1014B00020468000302080F31188BFF34F8FBFF3A8
:1014C0006F8FFEE708B56846FFF77EFD0099FFF7CE
:1014D00065FFFFF719FFF6E72DE9F041044602F03A
:1014E00003FA94F9455004F1240609E0606A48B112
:1014F000304603F05DF808B102F028FB6D1E6DB2B6
:10150000002DF3DC4FF0FF3684F8456002F0FAF965
:1015100002F0EAF994F9445004F1100709E0206957
:1015200048B1384603F044F808B102F00FFB6D1ED5
:101530006DB2002DF3DC84F84460BDE8F04102F0A8
:10154000E1B900002DE9F0410546002602F05EFBFE
:10155000214F386808B9FFF749FDF868054236D1D0
:101560003DB10835680704D005F00700C0F1080058
:10157000054465B37868854229D817491031084673
:10158000046801E0214604466068A84202D220684F
:101590000028F7D13868844219D00E6808362068D0
:1015A00008606068411B102904D9601941606560BA
:1015B000FFF71EFE61687868401A7860BA6890424A
:1015C00000D2B860F868014361600020206003F039
:1015D00025F83046BDE8F0818446800070B50126CC
:1015E0000F240F4D55F8241019B1096809B1884727
:1015F00028B1641E24B2002CF4DA16B10EE00026E5
:10160000FBE7641C24B207E055F8241011B14968C7
:1016100001B18847641C24B2102CF5DB304670BD44
:10162000208E80000249014808607047D73700309B
:10163000A026800010B505480078002802D0F4F7F5
:101640008BDF10BDF4F771DF10BD00005047800044
:101650002DE9F04781460E464FF0FF380024EFF3A6
:101660001087012080F31088154D95F85000002850
:1016700009D1144867F446D10021134867F4A4D374
:10168000012085F85000B9F1000F13D0032E11D8B6
:1016900086B101E0641CE4B2102C03D255F824009A
:1016A0000028F7D1102C05D245F82490281980F88D
:1016B0004060A04687F310884046BDE8F0870000F0
:1016C000208E8000794D8000DD15010124384FF017
:1016D0008073036221F00101C161044981614260AC
:1016E0006FF0020140F8201970470000B5140101A5
:1016F00010B5002408480068C00600D5012400F099
:101700004BFDF6F7BFDF00F047FD51F415D620463C
:10171000BDE8104000F01CBDF44980002DE9FC5FDD
:1017200000250024DFF85CA0174FEB46DAF83402FE
:1017300005EB106515A003C8CDE900011548006848
:1017400000F007001BF8000000EB80004600124884
:10175000D0F80080D7F8009040464946FAF7DAF80A
:1017600078687968091AB142FBD349464046FAF7CE
:10177000B1F8641C0A2CD9DB0A20B5FBF0F0C0B22A
:10178000BDE8FC9F00E000A0001000E04030101811
:101790001020000004C500A0FCED00E070B5044678
:1017A0000D46164628682168002B03D03246F6F70E
:1017B0009DFD02E03246FAF7B5F92868304428600A
:1017C00020683044206070BD014A5060118070472D
:1017D000EC468000014A506011807047DC46800072
:1017E000014A506011807047F44680002DE9F043B3
:1017F00087B00F469046994600250695A0F1080649
:101800000324022206A93046F6F78AFD022803D0F7
:10181000641E14F0FF04F4D1022812D01B48816921
:10182000407A40F26932CDE900200291184B19A2AA
:101830004FF400410020F6F7CBDE092007B0BDE8E9
:10184000F083082204A93046F6F750FDBDF81200D7
:1018500063F4B2D7C0B21B4A516871B1BDF81230FF
:101860000830194408445060384601F033FE4A46B7
:1018700041463846F4F7E6F9E0E7117ABDF8123050
:101880001944084450601572EEE70000641F8000A0
:10189000AA570101523A353A25732C204C25642071
:1018A000666C6173682073746174652030782530CC
:1018B00032582C206572726F72203078253038587B
:1018C0000D0A0000D8328000104A104948322828FA
:1018D00008DD086840F4C0500860106840F470608B
:1018E00010607047002808DD086820F4C0500860C8
:1018F000106840F4706010607047086840F4C05091
:101900000860106840F47060106070470CC500A05B
:101910001048C16A21F00051C162C16A21F400512E
:10192000C162C16A21F08051C162C16A21F4805153
:10193000C162C16A41F40051C162C16A21F400511F
:10194000C162C16A41F48051C162C16A21F480510F
:10195000C1627047002001B010B567F4FDD5BDE845
:10196000104067F44D9610B567F476D1022804D084
:10197000BDE81040012068F4399110BD10B53C4815
:101980000168C1F38011002904D00168C1F3C011BE
:1019900000296CD1016841F400710160016841F0D7
:1019A00080010160016821F400710160016841F06B
:1019B00040010160016821F4807101602C496031AF
:1019C0000A6822F04C6242F04C620A60091D0A6803
:1019D00022F04C6242F008620A6025497C310A68B4
:1019E000C2F34002002AFAD1214B0A2280331A6046
:1019F0000A6842F001020A600A68C2F34002002A43
:101A0000FAD1016821F400610160016821F480517C
:101A10000160016841F400610160016841F4805196
:101A2000016001206AF4EBD0EFF31081012080F314
:101A300010880F483C30026822F48022026081F353
:101A40001088EFF31081012282F31088026822F4DB
:101A50008032026081F31088EFF31081012282F35B
:101A60001088026822F40032026081F3108810BDF1
:101A700004C500A0044903480860054903480860FC
:101A800070470000F51A01017823800091798000E9
:101A90007C23800038B5002400200090684601F0C7
:101AA000EBF99DF80000104902281AD0052818D03B
:101AB000062816D00520087009780C4A0B39105DED
:101AC0008B2801D908441055641CE4B2282CF6D3A5
:101AD00007490878401D087067F496D600F0D0F8E2
:101AE00038BD0B200870E7E7884A80003C3480004E
:101AF0003B34800010B50446204667F4ADD5F5F7B9
:101B00001AF967F475D61048016841F00C010160BC
:101B10000E4BA02240F6D81140F63810F6F714FD0F
:101B200000F01AF867F434D767F488D568F476D0F3
:101B3000074860610748A061F5F71CDFFFF7AAFFBF
:101B4000BDE81040F5F7F69E842001B0587F810073
:101B5000C91D0101591D01012DE9F0432DED028B35
:101B6000A9B000250026A02101A8F0F7E9FE3C4815
:101B7000016821F4C07141F080010160416821F4E5
:101B8000805141600024002067F40CD5FFF7E4FE8B
:101B9000F9F708F8019001980644272067F402D568
:101BA000FFF7DAFEF8F7FEFF289001992898401A0F
:101BB0000544641C072CE6DB284603F08AF89FEDF9
:101BC000298B53EC182B02F0CFFE41EC100BF2F7EF
:101BD000C7FA51EC100B03F04FF80446304603F0FF
:101BE00078F853EC182B02F0BFFE41EC100BF2F723
:101BF000B7FA51EC100B03F03FF8054600200090B7
:101C0000684601F029F90020184FDFF864C0DFF8BA
:101C10006480194A01AB272600FB04F1B1FBF6F101
:101C2000294443F82010B7FBF1F90CF80090B8FBF9
:101C3000F1F19DF800904944C9B21154802901D9AD
:101C40000B311154401CC0B22828E5D3FFF760FEC9
:101C50000A490520086029B0BDEC028BBDE8F0837D
:101C6000802001B00000000000001C4000C0A8322D
:101C7000143480000080D7253C34800000CD00A0C3
:101C80002DE9F04100201849184C164FDFF860C0CC
:101C9000251D184ADFF860800968261F57F8203094
:101CA00023F47C3343EA013323605CF820302B605B
:101CB00000F1280343F48063336052F8203023F4AA
:101CC0007C3343EA0133236058F820302B6000F165
:101CD000500343F480633360401C2828DED3BDE802
:101CE000F0810000F4D707000424800008CD00A094
:101CF00094D8070034D90700D4D90700012801D1AE
:101D0000192902D0022804D005E01D2010700E48C9
:101D10007047192902D0012804D005E01020107066
:101D20000A487047642902D0022804D005E0152033
:101D3000107007487047642902D000201070704767
:101D40000E20107003487047A2590101E8DA07001D
:101D500028DB07007CDB070038B5044667F47CD736
:101D6000054667F409D6C1B26A4668B2FFF7C6FFF6
:101D700070B11149097811B1104991F90040002161
:101D80000F4AB2F9002002EB84039DF8002008E01E
:101D90000C48007838BD30F921409C4203DA491CD8
:101DA000C9B29142F7D3521E914200D31146C9B233
:101DB00000EB8100807838BDFB238000FA2380008F
:101DC00000248000F8238000F8B50546002467F45D
:101DD00043D7064667F4D0D5C1B26A4670B2FFF762
:101DE0008DFF1349097819B1124890F90000F8BD28
:101DF00000219DF8002016E000EB81039B78AB42A8
:101E00000FD130F92100C11700EB917081100A4801
:101E1000B0F90000C21700EB9270A1EBA00044B231
:101E200003E0491CC9B29142E6D32046F8BD000048
:101E3000FB238000FA2380000024800011B583B0CA
:101E40000020029002210191BDF80C204CF2B10457
:101E5000002A03D003AA2046FDF7C8FF02AA01A961
:101E60002046FDF78DFE78B14FF480200B490A68BB
:101E70000B4B1A4002430A6008680A49C0F38820E5
:101E80000880F4F755DA1FBD9DF808009DF8091089
:101E900040EA0120044901EA8020E7E738C500A0B4
:101EA000FF03F8FFBC488000FFFF0700EFF310813D
:101EB000012282F31088002802D000228260C260D2
:101EC00081F31088704710B500290FD070B16AB146
:101ED000EFF31083012484F3108802604160002135
:101EE0008160C16083F31088012010BD002010BD07
:101EF00000280AD0EFF31083012181F31088816854
:101F0000C2688A4203D8881A04E00020704700683B
:101F1000801A084483F3108870472DE9F04705467E
:101F20008A464FF00008EFF31089012080F31088F3
:101F3000AF68EE68002D2ED0696861B3BAF1000F6A
:101F400029D0B74204D3BC1BA2420DD814460BE0E3
:101F50002868831BDC19A24200D814463219824239
:101F600002D3A219A2EB0008A4EB080231445046A8
:101F7000F0F74DFC0AEB0400A0EB0800424669684C
:101F8000F0F745FC30192968814202D8B84200D9DF
:101F9000401AE86000E0002489F310882046BDE87C
:101FA000F08710B501460020EFF31084012282F380
:101FB00010888A68CB68002908D0934202D9981A01
:101FC000401E03E00868801A1844401E84F31088FD
:101FD00010BD2DE9F047044689460027EFF310882D
:101FE000012080F31088A668E068002C2AD063687E
:101FF00043B3B9F1000F25D0B04205D9851B6D1E42
:10200000AA420CD815460AE021688D1B05446D1EB6
:10201000AA4200D815467019884200D3471AEA1B15
:1020200098194946F0F7F3FB09EB0500C11B3A4646
:102030006068F0F7ECFB70192168814200D8401A03
:10204000A06000E0002588F310882846BDE8F087EE
:102050002DE9F04F2DED028B81B000260027354889
:102060000068C0F3006000285ED0FBF701FBB0F50C
:10207000967F59D330490868304D20B16868304A9E
:10208000C043904250D3EFF310800090012080F3C2
:1020900010884FF000094FF0000B086840B9012686
:1020A0002848D0F8009049F080710160D5F800B060
:1020B00000244EB1286820F00100286000206860EC
:1020C000286840F001002860FBF7D2FA8046D5F876
:1020D00004A0FBF7CDFAA8EB00006428F9D96868E2
:1020E000A0EB0A000744641CA4B2002CE1D026B186
:1020F000C5F800B01348C0F80090009880F310882D
:10210000384602F0E6FD41EC180B0F4864210068E8
:10211000A0FB010102F0F0FD53EC182B02F024FCAF
:1021200002F0AAFD0949486001B0BDEC028BBDE890
:10213000F08F000058C500A008478000001000E0A4
:1021400000350C00FCED00E00441800028478000D1
:1021500001281CD10E48416821F001014160C1688D
:1021600021F00071C160016821F001010160C168C6
:1021700021F08071C160EFF31080012181F310889C
:1021800004490A6842F010020A6080F31088704720
:10219000A0E200A0F449800010B58EB000240D9498
:1021A000134890E80E00C068CDE90A2309910C900D
:1021B000202101A8F0F7C4FB0E48019005944FF4CC
:1021C00080500290C01003900420049001A8F9F7F9
:1021D00043FE01A8F9F728FF0DAA09A901A8F9F7FC
:1021E00087FE01A8F9F738FE0D980EB010BD00006B
:1021F000205A0101007801A0024901480860704797
:102200006B5D80000005800000214FF030400268C7
:1022100042F080720260026842F00072026003487D
:10222000C288521CC280417070470000404A800042
:1022300002490148086070470B7E800080238000BF
:102240002DE9FE4326484FF4A071C1604FF030469F
:10225000306820F4807030600020224FE84600EBA8
:10226000800107EB8101B1F86C18C1F30E0128F869
:102270001010401CC0B20628F1D30120316860F371
:10228000DF7131603068C00F0028FBD10024A14607
:1022900038F81450E80B04D0552213491348F6F7C8
:1022A00095D909EB890007EB8000B0F86C186FF343
:1022B0000E012943A0F86C18641CE4B2062CE6D386
:1022C0000120F4F723DC0A48F060306840F48070A5
:1022D000306000F073F8BDE8FE4342F41D9000004A
:1022E000404A8000008000B0486301010C63010196
:1022F0007E0001000549044808600649044808605A
:10230000054869F4239300003F7880008024800012
:10231000717580006824800000C2EB0B07490648F5
:1023200008600849064808600849074808600949E4
:1023300007480860F4F720BD9577000180248000ED
:10234000FF5C8000682480002B5D8000802380007B
:10235000155D80009C238000044900200880054909
:10236000034808600549044808607047B2068000C9
:102370008D7C8000D4068000717A8000D8068000B1
:1023800007490648086008490648086008490748A0
:10239000886009490748086070470000216D800087
:1023A000040780008D6B80000C0780006D6A0001BF
:1023B000B41A8000D96A8000080780002DE9F04136
:1023C000154E96F8004100271BE0144800EB04105E
:1023D000028822F0380242F030020280491E86F85C
:1023E000021106EB04156B682BB1287B18B104228F
:1023F000A968286898472F73641C04F00F0486F8B6
:10240000004196F802110029DFD105490888401CD7
:102410000880BDE8F0810000C01A8000008000B094
:10242000E8068000014600200A2906D2044A32F854
:102430003110A1F57F42FF3A00D103207047000020
:102440002A2780007FB50020009001900290039021
:102450000024124D124E05EB0410D0E9052301694A
:10246000C0698DE80E0003900198B04212D20D4968
:102470000398884205D1DDE901020099F0F7C7F918
:1024800008E0084903981C31884203D1DDE90101C5
:10249000F0F734FA641C032CDDD37FBD80E907001C
:1024A00000408000042D06000020084940F6154237
:1024B00031F83030934204D101EBC000044A42604D
:1024C0007047401CC0B20428F2D370470823800034
:1024D00039A9000130B5ADB0104DC0EB001000EBD4
:1024E0004004286800EB840050F8011F2B9181887C
:1024F000ADF8B01080798DF8B20069462BA853F47E
:10250000DBD1296801EB8401097AC90703D010B136
:1025100001202DB030BD0020FBE70000E823800043
:10252000F8B50C46154EC0EB001202EB42053168BF
:10253000034601EB850112A2097A009120210020B7
:10254000F6F746D8306800EB8500017AC90713D04A
:10255000417A890707D550F82B1F21608188A18017
:102560008079A07106E050F8011F21608188A18068
:102570008079A0710120F8BD0020F8BDE82380001B
:10258000523A323A636865636B20626F6E6420630F
:102590006F6E646978203D2025642C206175746815
:1025A000203D2025640A000070B58AB00546164615
:1025B000002902D06031CCB200E00C46FF22282175
:1025C0006846EFF715FE40F20170ADF80000ADF877
:1025D00002408DF804508DF805606846F4F7DEFB84
:1025E0000AB070BD30B58BB004460D46FF222821DD
:1025F00001A8EFF7FDFD4FF4E062ADF804200022E2
:10260000ADF806208DF80840212229460DF1090079
:10261000F0F7FDF801A8F4F7C1FB0BB030BD0000E6
:102620002DE9F0470E46994661A220210020F5F7DA
:10263000CFDF4FEA192812234B22494640F6186093
:1026400059F478D1044620001CD0002020705D4D44
:102650006870601C68601030A8604046F4F7E4FFC2
:1026600069784FEA1920C0EB0010DFF85C91012770
:1026700000EB400549B155A220210020F5F7A8DF65
:10268000277071E00020BDE8F087D9F8000010F84D
:102690002510012941D100EB8500407AC0073CD0CC
:1026A000404656F48DD3000712D54EA220210020BB
:1026B000F5F78EDF2770D9F8001001EB850191F84E
:1026C000680060744E311022601CF0F7A0F824E01E
:1026D000D9F80010082201EB85004430B11CF0F756
:1026E0004BF8D0B9D9F8001001EB85003188B0F86B
:1026F0004200884211D141A220210020F5F768DF75
:102700002770D9F8001001EB850191F84C00607436
:1027100032311022601CF0F77AF8207820BB3DA2FD
:1027200020210020F5F754DFD9F8001001EB8500D7
:10273000401CF6F7C5F80646DFF8F0A09AF800004E
:10274000B04211D93AA220210020F5F741DF2770CD
:1027500006EBC6000AEB800191F8240060740A3190
:102760001022601CF0F753F8204659F429D1207844
:10277000B8B9D9F8000010F82510A1B100EB850018
:10278000407AC00711D0022400205DF479D530488A
:10279000006820B1C26812B12146404690475DF4FE
:1027A000A5D500206FE70024EEE70124ECE7000048
:1027B000523A323A726376206C746B207265710AF9
:1027C0000000000038478000E8238000523A323A87
:1027D000676574206C746B2066726F6D2061707019
:1027E0000A000000523A323A73632066696E642030
:1027F0006D61746368206C746B0A0000523A323A5F
:102800006C652066696E64206D61746368206C7409
:102810006B0A0000523A323A66696E64206C746B3F
:102820002074727920616761696E0A00F87C81000A
:10283000523A323A66696E64206C746B2073756329
:10284000636573732062792072657472790A00007F
:10285000EC23800030B58BB004460D46FF222821C2
:1028600001A8EFF7C5FC40F20472ADF80420002285
:10287000ADF806208DF808408DF8095001A8F4F74E
:102880008DFA0BB030BD30B58BB004460D46FF223B
:10289000282101A8EFF7ACFC40F20372ADF8042048
:1028A0000022ADF806208DF808408DF8095001A8E7
:1028B000F4F774FA0BB030BD2DE9F0418CB01F0A6B
:1028C0000D7800242B462EA220210020F5F780DE73
:1028D000DFF8C880C7EB071000EB4006D8F80010FF
:1028E00011F82600012808D101EB8600407AC007C4
:1028F00003D03846FFF7EEFD28B101243CB338463B
:1029000068F48ED238E0D8F8000000EB8601087A2F
:1029100025EA0000C207224804D0C27842F0010232
:10292000C27001240A7A520706D46A0704D5C27815
:1029300042F00402C2700124097A0907DED4290793
:10294000DCD5C17841F00801C1700124D6E7D8F880
:102950000000102200EB86014E310C460C31684617
:10296000EFF755FF21461C2205A8EFF750FF05A9F8
:1029700038460EC967F4E4D40CB00020BDE8F081FD
:10298000523A323A72637620736563207265712021
:1029900061757468203D2025640A0000E8238000EA
:1029A000F023800010B569F4E1D2002808D063F468
:1029B00029D204490871BDE81040002063F47092E8
:1029C00010BD00007C45800010B569F4CFD200280E
:1029D00005D003480079BDE8104063F4619210BD52
:1029E0007C4580000020F5F761BD000010B5002394
:1029F000002201090404A4EB015444EA0151174CDC
:102A00002160B0F5146F26D0B0F5156F23D0B0F566
:102A1000166F20D0B0F5176F1DD0B0F5186F1AD013
:102A2000B0F5196F17D0B0F51A6F14D0B0F51B6F51
:102A300011D0B0F51C6F0ED0B0F51D6F0BD0012278
:102A400002EBC3000549E030091F08600349082074
:102A50001C39086010BD0123F2E700001CCD00A066
:102A600010B5054C2078002805D104491A2000F043
:102A700059F90120207010BDD4438000E53F0001CA
:102A80002DE9F0410446884616460025664F57F862
:102A9000240090F84000312819D0402817D0412850
:102AA0007ED1002208212046F5F7EEDD01212046E7
:102AB000F5F7D6DD0A2804D0A6225CA15FA0F5F7C1
:102AC00085DD57F82400006900286AD09AE0204686
:102AD00048F412D050B901212046F5F7C1DD0B288A
:102AE00004D03A2251A163A0F5F770DD002208213D
:102AF0002046F5F7C9DD062E13D0112E13D0222E55
:102B000013D00EB19036F5B2002685B157F82400E7
:102B100080F840602A462046BDE8F0410121F5F7E3
:102B2000B59D2225F0E72325EEE72425ECE7204696
:102B300047F4E2D7082141EA042528B157F82400D8
:102B400090F84010312920D057F8240080F84060D8
:102B50002046F5F77BDD01462A46012340F6196041
:102B60001DF41ED305462046F5F792DD4F49204659
:102B700009688847287028461DF45ED332462046EF
:102B8000BDE8F0410121F5F7819D80F840602046C5
:102B9000F5F77EDD57F8240010220169444801E072
:102BA0003FE02AE0EFF733FE2046F5F74FDD014620
:102BB0002A461E2340F615601DF4F2D20546072072
:102BC000287057F824001C220169A81CEFF71FFE8B
:102BD0006E61AE616E8228461DF42ED3B8F1000FEF
:102BE00005D02046BDE8F041012148F4CF952046AC
:102BF000BDE8F041002148F4DD94A7220BA12DA0EF
:102C0000F5F7E4DCB8F1000F05D02046BDE8F0414F
:102C1000012148F4BB952046BDE8F041002148F46D
:102C2000C994BDE8F0810000CC0D8000736D706325
:102C30005F70617463682E630000000067617063F9
:102C40005F6765745F6F7065726174696F6E28632A
:102C50006F6E6964782C20474150435F4F505F533B
:102C60004D5029203D3D20474150435F424F4E4447
:102C700000000000676170635F6765745F6F706577
:102C8000726174696F6E28636F6E6964782C204777
:102C90004150435F4F505F534D5029203D3D2047E9
:102CA0004150435F454E435259505400E003800069
:102CB00060818100676170635F656E765B636F6ED4
:102CC0006964785D2D3E736D70632E696E666F2E3C
:102CD0007061697220213D204E554C4C000000006F
:102CE0000249014808607047812A010114058000EB
:102CF00010B500F0E5FCF8F7E3FE68B1FDF7ECFA7B
:102D00000020FDF7F9FAFDF7FDFAF8F7D7FF0348C1
:102D100000680349886010BDFEE700000020000144
:102D200000418000024A103042F820107047000035
:102D30000043800070B50446002C05D000F0D4F8A4
:102D40000646300002D050E0022070BD284D688C4D
:102D50002080A88C6080E88CA080287813282AD84E
:102D6000A88C01F0B6FF9FED231B53EC112B01F053
:102D7000FBFD01F081FFE080E88C2081A88C01F050
:102D8000A8FF9FED1E1B53EC112B01F0EDFD01F090
:102D900073FF6081E88CA081A88C01F09AFF9FED01
:102DA000191B53EC112B01F0DFFD01F065FFE081F1
:102DB000E88C208215E0A889E08068892081288934
:102DC0006081E888A081288901F083FF9FED0F1BB7
:102DD00053EC112B01F0C8FD01F04EFFE081E888B3
:102DE0002082288A6082E889A082304670BD000077
:102DF0001232800098A432C51CC4F73F50340F60D3
:102E0000919FFD3F7F86376BF09E03406E693524AE
:102E1000EE31F53F10B50446002C07D000F064F801
:102E2000002802D10249498B218010BD022010BD2B
:102E30001232800010B50446002C09D000F054F87E
:102E4000002804D103494A692260098BA18010BD82
:102E5000022010BD1232800010B50446002C07D0AD
:102E600000F042F8002802D10249C97C217010BD4F
:102E7000022010BD1232800010B50446002C09D08B
:102E800000F032F8002804D10349897801F01F01CD
:102E9000217010BD022010BD1232800010B5044612
:102EA000002C08D000F020F8002803D1034909685D
:102EB000890F217010BD022010BD00008423800006
:102EC00070B50546002D04D000F00EF8044614B18C
:102ED00006E0022070BD102202492846EFF797FC59
:102EE000204670BD3E3280002DE9FF4100240025C0
:102EF00000950195029503952F4F44F24478B88BC5
:102F000000284FD100950195029503952B4800901C
:102F1000012001906846F8F719FD6846F8F75CFD56
:102F20000F233A464421684605F46AD70123244A10
:102F30005321684605F464D76846F8F707FD3878EA
:102F40004FF6FF72E0B1B88B40452AD1BE1C00207D
:102F500036F8101021448CB2401C80B20928F7D3F7
:102F600015492031002031F8103023449CB2401C18
:102F700080B20628F7D3F88BA04213D0BA8311E0B1
:102F800097F8280040B997F8290028B997F82A003F
:102F900010B997F82B0010B1A7F81C8002E0BA8393
:102FA00000E0BA83B88B404503D1002004B0BDE8EF
:102FB000F081BD831020F9E712328000006401A087
:102FC0008423800030B587B00546002D0CD0002446
:102FD0002C80FFF789FF002804D11548007890283D
:102FE00004D0012007B030BD0220FBE70394049415
:102FF00005940694019402940E48039001200490D5
:1030000003A862F4A3D603A862F4ACD6022301AAF3
:10301000562103A805F4F4D603A862F497D69DF8C8
:103020000A009DF80B1040EA012028802046D9E7CD
:1030300012328000006401A008B5002000906846AC
:10304000FFF71AFF0B48417801F001020078912840
:1030500001D2012100E000219DF80000042805D0E4
:10306000082803D0114203D0072801D0012008BD51
:10307000002008BD1232800008B50020009068468C
:10308000FFF7FAFE0548407800F00101C0F3C000E8
:1030900001B108B1002008BD012008BD1232800036
:1030A000A0F13201322901D80149087070470000AF
:1030B0001E06800010B50446002C04D0FFF714FF54
:1030C000014611B134E0022010BD1A4A5078C0F315
:1030D000400020705078C00702D0907C607002E001
:1030E00092F82800607092F82900030606D500F0D7
:1030F0001F03C0F34110181AA07005E000F01F0371
:10310000C0F341101844A07092F82A00030606D5B7
:1031100000F01F03C0F34110181AE07005E000F042
:103120001F03C0F341101844E07092F82B00207187
:10313000084610BD12328000014906C906C070471A
:103140000054010110B50446002C07D0FFF7CCFE57
:10315000002802D10249C98B218010BD022010BD78
:10316000123280000A480021016040F6EB520262F0
:1031700040F6AB42426207228262064AC2620163A3
:1031800005490A6842F4F0620A600221016470474E
:1031900080E200A004FF010700D000A000F09ABD6B
:1031A00070B54FF04050416A41F010014162314822
:1031B000016801F07F4101602E4900201439086048
:1031C0002C4D2D1F286820F4FE0040F47C10286050
:1031D000284C4C3C2068284E284930400843206049
:1031E000642068F40CD520682549304008432060ED
:1031F000642068F404D520682249304008432060E8
:103200001C483838016841F040710160642068F45E
:10321000F6D420681C49304008432060206840F004
:10322000F0002060286840F470602860114934394B
:10323000086820F470421548437A42EA03320A6073
:10324000211D0A6842F480420A60017AC2790906A7
:1032500041EA02418279407941EA0221014305486D
:103260001038016003485438016841F400110160CE
:1032700070BD000058C500A0FF0000FF00F70B0064
:1032800000EF0B0000FA0B0000FA0300AC488000CE
:1032900010B500F0F1FCFFF7D5F8BDE81040FFF7DE
:1032A00027BD000010B500280FD004460748F2F7EC
:1032B0001AF9074A01210548F2F7ECF82146BDE862
:1032C000104000220148F2F733BA10BDE88E8000AA
:1032D0004107010110B5002000F002F810BD000008
:1032E0002DE9FC4115240E2607253148016821F4FB
:1032F000706141F4407101600020009001906846C7
:10330000FFF7D8FE2B4FA8B9FFF7B6FE18B1F9F7B3
:103310007DFB054604E097F8280000F07F0508359E
:103320009DF8040030B19DF8021019B100F01F049F
:1033300001F01F067878C0F3C00040B11E48016854
:1033400041F48001016097F8280000F07F051A48D9
:103350004838016821F0FE4141EA056101601648E4
:103360003438016821F080610160361D1F2E00D3C2
:103370001F26062C01D9A41F00E000240F48C472A8
:103380000D484438016821F4780141EAC4410160E4
:1033900009483038016821F41F0141EA0641016003
:1033A00005484038016841F400310160BDE8FC8106
:1033B00020E200A01232800054C500A0AC4880007A
:1033C000274908684FF6FF021040264A40F4407033
:1033D0001043086000208022002341B2002904DB52
:1033E00001F1E02181F8002405E001F00F0101F175
:1033F000E02181F8142D401C2228EED31848133008
:1034000003702020184981F80004184908706020D2
:103410001549491C81F80004A02014490D39087091
:1034200011490B3181F80004C0201049113908708E
:103430000D49C91D81F800040C490F3908700A496B
:10344000183181F80004FF2005491631087006493B
:103450000D3181F8140D05491839087070470000C6
:103460000CED00E00000FA0502E000E019E400E0E5
:103470000249014808607047E73500309C2380000E
:1034800010B54FF496710448EFF75AFA024900203C
:103490000C3981F8380110BDE432800010B50B4BB7
:1034A00093F838211E2A10D202EB820203EB42026B
:1034B0000468D4604068106105480088081A90824A
:1034C00093F83801401C83F8380110BDD8328000D1
:1034D000CC2380002DE9F047CAB04A4DA5F10C0776
:1034E00097F83861002488E004EB840135F8111066
:1034F00081427DD1701E81464FF6FF78844216DAF4
:10350000301B401E00EB800008EA400A601C00EB04
:10351000800005EB4001524601A8EFF778F904EB73
:10352000840005EB4000524601A9EFF770F909EB62
:10353000890005EB4000002101604160018197F89E
:103540003801401E87F838011E2E4FD1D5F81801DA
:103550004790D5F81C014890B5F82001ADF824013A
:103560004899479846914590BDF8160162F424D1D8
:10357000254EBDF8162131680844BDF824111144C8
:1035800044180834DFF8849099F8000010B1002046
:1035900062F486D4DFF878A0082245A92046F8F71F
:1035A000C1FABDF8140140451CD070B105F5917504
:1035B00045982860469868603088201A288197F8D6
:1035C0003801401C87F838010CE0BDF8160162F4A0
:1035D000F3D0BDF81611083021444418DAF8000081
:1035E0008442D9D399F8000062F45AD44AB000E07A
:1035F00001E0BDE8F087641CE4B2B442FFF474AFAC
:10360000F4E70000E4328000CC238000C92380006E
:10361000D02380002DE9F04116461E4CA4F10C0287
:1036200092F838510022002D02D000231A4F19E0E1
:103630000A8032600120BDE8F08103EB830C34F88E
:103640001CC084450CD103EB830004EB400042888E
:103650000A80018938680830084430600120EAE7B0
:103660005B1CDBB2AB42E8D31E2D03D20A80326072
:103670000120E0E704F59174608862F49DD0396818
:1036800062880844218911440844083030600020D1
:10369000D1E70000E4328000CC23800010B504465E
:1036A0002046F0F719FF2046F9F79AFE2046FEF76C
:1036B0000BF92046F4F702FE2046F4F7EDFA10BDB0
:1036C00002490348034AEFF7E7B800007C690101AB
:1036D000CC350030D805000010B50C494978C1F34D
:1036E0008001002902D0F7F783FB01E0F7F7B2FB76
:1036F00007490A6822F4605242EAC0200860081DA7
:10370000016841F40031016010BD000012328000F8
:1037100010C500A00021074A006802EBC1035B68E6
:10372000984202D112F831007047491C0229F4DB9B
:1037300002207047D85401010FB41CB50446264836
:10374000406801909DF81C008DF8050003208DF85D
:103750000400069800909DF815008DF806009DF86D
:1037600014006946F1F74AFA002832D19DF8280082
:103770008DF80500099800909DF821008DF806004D
:103780009DF820006946F1F739FA002821D1222C52
:103790001FD19DF834008DF805000C9800909DF81D
:1037A0002D008DF806009DF82C006946F1F726FAE9
:1037B00000280ED19DF840008DF805000F9800906C
:1037C0009DF839008DF806009DF838006946F1F73C
:1037D00015FA1CBC5DF814FBD054010170B500242F
:1037E000104E56F82400B8B190F86C10012913D18E
:1037F000001DF8F72BFD18B1102801D0002070BD76
:10380000EFF31085012080F3108856F82400001D86
:103810000EF4B6D085F31088641CE4B2022CE0D319
:10382000012070BDCC4380001CB5044600200090F0
:1038300001906846FFF73EFC00280CD1064840780E
:10384000C0F3C000002806D1FFF716FC002802D004
:103850002046F9F72FFB1CBD123280000169D0E928
:1038600001329A60D0E901235A604A68824201D14C
:1038700082684A60002202610868401E0860086889
:10388000704700F1080141604FF0FF328260C16073
:10389000016100210160704700210161704730B56E
:1038A0000C68621C02D000F1080202E0026904E028
:1038B0001A4653681D68A542FAD953684B6099604F
:1038C0008A60516008610168491C016030BD42682E
:1038D0004A6093688B6093685960916008610168E1
:1038E000491C016070470000302080F31188BFF34D
:1038F0004F8FBFF36F8F02484168491C416070478A
:103900000C46800004494868401E4860002801D1E8
:1039100080F31188704700000C46800070B50028C5
:1039200018D0083804460C4D6068E968084211D088
:103930002268002A0ED18843606000F067F9606851
:103940006968084468602046FDF752FCBDE8704095
:1039500000F064BE70BD00008446800010B50F48C2
:103960004FF47A730E4A0068B0FBF3F191606FF088
:103970007F44B4FBF1F1D160B0FBF0F12D24B4FB36
:10398000F1F111614FF0E02100220A618A61B0FB80
:10399000F3F0401E48610720086110BD044180001B
:1039A0000C46800010B50022064B53F832401CB183
:1039B000521C082AF9D310BD43F8321003EBC201A0
:1039C000486010BDDCBD800070B504460D4616464B
:1039D000FFF78AFF94F944304FF000005B1C01D1DF
:1039E00084F8440094F94510491C01D184F845003D
:1039F000FFF788FFA06B28B93246294604F124005E
:103A000000F0BAF82046BDE87040FDF765BD000043
:103A10001CB5F0F793FE00240920CDE900042346ED
:103A20004FF4806208A10B4800F0E4FC0820CDE9C7
:103A300000044202002308A10C4800F0DBFCBDE8B2
:103A40001C40002000F02EB87072696E745F7461C3
:103A5000736B0000090901016466755F7363686533
:103A600064756C655F7461736B0000009F84000176
:103A700010B502460020002A07D000F0C7F8002148
:103A80001046FDF76BF900F0C9FD002807D1044985
:103A90004FF080500860BFF34F8FBFF36F8F10BDA2
:103AA00004ED00E070B50446FFF71EFF1F4D04B99A
:103AB0002C68201DFFF7D2FE58B9E06A1C4A00EBC3
:103AC000800152F8211021B90121814028698843E1
:103AD0002861A06A18B104F11800FFF7BFFE686AF8
:103AE000401C68622868844207D1211D1148FFF7F5
:103AF000EEFE6868401C686007E0A868401EA86089
:103B00002046FDF73AFAFDF77FFCFFF7FBFE6869F8
:103B100000280AD02868844207D107494FF0805016
:103B20000860BFF34F8FBFF36F8F70BD34468000C6
:103B3000B0BC8000B4BD800004ED00E002490A6A18
:103B40000260C96841607047344680000149012025
:103B5000C86170473446800010B50C4605490968B5
:103B60001831FFF79CFE2046BDE810400121FDF70B
:103B7000F5B800003446800070B50D46144607497C
:103B800009681831FFF7A3FE0CB14FF0FF3521464D
:103B90002846BDE87040FDF7E1B8000034468000DB
:103BA0001CB512480024CDE9004023464FF40072B2
:103BB0000FA1114800F01EFC012801D100F0A0FD6A
:103BC000012812D1302080F31188BFF34F8FBFF34B
:103BD0006F8F06484FF0FF312C388162012141611F
:103BE000C460BDE81C4000F035BA1CBD60468000D2
:103BF00049444C4500000000391001010249CA68DF
