:020000040100F9
:1020000000008400DD200001E92000017943800008
:1020100087438000894380008B43800000000000DC
:10202000000000000000000000000000514380009C
:10203000F320000100000000F5200001FB21000159
:10204000F720000139380600DD370600D54380004F
:10205000EF448000E744800043448000494480000E
:10206000F7200001F7200001F7200001F720000110
:10207000634580006B458000F7200001F7200001D8
:10208000F7200001F72000014F448000F7200001F5
:10209000F7200001F7200001F7200001F7200001E0
:1020A000F7200001D13706008D438000F7200001A2
:1020B000F7200001F7200001F7200001F7200001C0
:1020C000F7200001F7200001DFF80CD000F052FCEF
:1020D00000480047EF2900010000840006488047BF
:1020E0000648804706480047FEE7FEE7FEE7FEE7B2
:1020F000FEE7FEE7FEE7FEE7D5800001C12B000109
:10210000457000012DE9F05F0546002092469B4690
:1021100088460646814640241BE0284641464746FD
:10212000224600F070FB53465A46C01A914110D324
:1021300011461846224600F057FB2D1A67EB01089E
:102140004F4622460120002100F04EFB17EB00090C
:102150004E41201EA4F10104DFDC484631462A46E8
:102160004346BDE8F09F40EA01039B0703D009E026
:1021700008C9121F08C0042AFAD203E011F8013B73
:1021800000F8013B521EF9D27047D2B201E000F8CC
:10219000012B491EFBD270470022F6E710B513460B
:1021A0000A4604461946FFF7F0FF204610BD421CC0
:1021B00010F8011B0029FBD1801A704730B5044686
:1021C0000020034600E05B1C934203D2E05CCD5C40
:1021D000401BF8D030BD96230022114600F03EBBD4
:1021E0000EB540F2334102910021CDE900110A46BB
:1021F0000B4600F070FB03B000BD7047704770479E
:102200005858524701000000000000000020000163
:10221000002000015998524901010000000000000F
:1022200000000000000000000000000000000000AE
:10223000000000000000000000000000000000009E
:10224000F0B480EA0102D40F4200B2EB410F02D297
:102250000246084611464A0042D0C30DDDB2C1F322
:10226000C752AD1A202D35DAC1F3160141F4000230
:1022700004B15242C5F1200602FA06F12A41104487
:10228000B3EBD05F23D0C4B1012DA0EBC35009DC68
:10229000F0BC4FF0004202EAC352DBB200F500008E
:1022A00000F0DCBA400000F1807000EBC350A0F1F8
:1022B000807040EAD170490009E0490841EAC071E4
:1022C000A0EBC35000F50000400800EBC350F0BC89
:1022D00000F0BBBA6142012202EB4101001BF6E7AC
:1022E000F0BC704781F00041AAE780F00040A7E70A
:1022F00030B480EA010202F0004530F0004221F0E3
:10230000004013D090B1C30DD40DC2F31601C0F339
:102310001600E41A41F4000140F400027D349142B9
:1023200001D3641C00E04900002C02DA30BC00201C
:1023300070474FF400000023914201D3891A0343F0
:1023400040084FEA4101F7D151B1914202D14FF01B
:10235000004105E002D24FF0010101E06FF0010100
:1023600003EBC450284430BC00F06FBA2DE9FE4F97
:10237000804681EA0300C00F0C46009021F0004126
:1023800023F00045B8EB0200A94105D240462146A2
:1023900090461C460B46024623F00040104347D0AF
:1023A000270DC7F30A00C3F30A510290401A0190A7
:1023B00040286BDAC3F3130040F4801B0098924668
:1023C00020B10023D2EB030A63EB0B0B01985946B3
:1023D000C0F14002504600F007FA06460D4650464E
:1023E0005946019A00F01FFA10EB080061410024E1
:1023F00087EA115284EAE7731A4340D0009A62B325
:10240000019A012A4FEA075215DC001B61EB020119
:102410004FF0004202EA0752CDE90042001C41F5AC
:10242000801132462B4600F056FA03B0BDE8F08F1B
:1024300040462146F9E7001B61EB0201001C41F513
:10244000801300185B412018A2F5001747EB030129
:1024500040EAD570B6196D4111E06D084FEA3606B5
:1024600045EAC0754FEA0752001B61EB0201001CF0
:1024700041F5801149084FEA3000001951413246B8
:102480002B4603B0BDE8F04F00F016BA00980122C9
:1024900040000023D0EB020263EBE073009821467A
:1024A0004FEAE074B8EB000061EB0401E9E783F068
:1024B00000435BE781F0004158E72DE9FE4F81EAD8
:1024C000030404F0004421F0004100944FF0000B9D
:1024D00023F0004350EA01045ED052EA03045BD0CB
:1024E000C3F30A54C1F30A552C44A4F2F334019403
:1024F000A0FB0254C1F3130141F48011C3F3130391
:1025000043F4801301FB024400FB034E840A970A44
:1025100044EA815447EA8357A4FB076802958D0A71
:1025200005FB07854FEA932C04FB0C542705029DFD
:102530004FEA065847EA1637B5EB08056EEB070C6D
:10254000870E920E47EA811742EA8312A7FB020127
:10255000B6EB0B0164EB00042B0D43EA0C335E1861
:1025600044EB1C50DA465146E7FB0201C5F3130465
:102570004FEA0B3343EA14534FEA0432019C43EA17
:102580000603A4F10C040294009CCDE900B400F011
:10259000A2F903B0BDE8F08F00200146F9E72DE96C
:1025A000F04D81EA030404F0004B21F0004514468D
:1025B0004FF0000A23F0004150EA050220D054EA0F
:1025C00001021DD0C5F30A570246C5F31303C1F338
:1025D0001300C1F30A5640F4801543F48013A7EBAF
:1025E0000608101BD64608F2FD3873EB050002D32F
:1025F00008F1010801E092185B41B8F1000F03DA1D
:1026000000200146BDE8F08D00204FF48011064601
:1026100084460EE0171B73EB050705D3121B63EB13
:10262000050306434CEA010C49084FEA30009218B2
:102630005B4150EA0107EDD152EA030012D082EA71
:10264000040083EA0501084305D0101BAB4106D204
:102650000122002306E000224FF0004302E06FF069
:10266000010253101AEB06004CEB085110EB0A0064
:1026700041EB0B01BDE8F04D00F01EB90EB540F284
:10268000334202920022CDE90022134600F023F9E2
:1026900003B000BD20F00040C10DC0F3160040F4AF
:1026A00000007F2901DA00207047962903DCC1F180
:1026B0009601C840704796398840704770B5C1F39D
:1026C0000A5201F000450024C1F3130140F2FF3328
:1026D00041F480119A4201DA002070BD40F2334388
:1026E0009A42A2F2334203DC524200F08CF800E03E
:1026F00090402C43F1D0404270BDC1F30A5210B556
:10270000C1F3130140F2FF3341F480119A4201DA20
:10271000002010BD40F233439A42A2F2334203DC60
:10272000524200F070F810BD904010BDC1F30A5243
:10273000C1F3130140F2FF3341F480119A4202DAEF
:1027400000200146704740F233439A42A2F23342DE
:1027500002DC524200F057B800F046B830B5041E13
:1027600071F1000404DB4FF00044404264EB0101CE
:10277000141E73F1000405DB1C464FF00043524267
:1027800063EB04038B4208BF824230BD30B5041EA8
:1027900071F1000404DB4FF00044404264EB01019E
:1027A000141E73F1000405DB1C464FF00043524237
:1027B00063EB0403994208BF904230BD30B50B462D
:1027C000014600202022012409E021FA02F59D4261
:1027D00005D303FA02F5491B04FA02F52844151E35
:1027E000A2F10102F1DC30BD202A04DB203A00FA1C
:1027F00002F1002070479140C2F1200320FA03F358
:10280000194390407047202A04DB203A21FA02F055
:102810000021704721FA02F3D040C2F1200291401A
:10282000084319467047202A06DBCB17203A41FAA5
:1028300002F043EAE07306E041FA02F3D040C2F14D
:10284000200291400843194670470029A8BF7047ED
:10285000401C490008BF20F00100704710B4B0FAD6
:1028600080FC00FA0CF050EA010404BF10BC704771
:1028700049B1CCF1200421FA04F411FA0CF118BF8B
:10288000012121430843A3EB0C01CB1D4FEA00615A
:102890004FEA102042BF002010BC704700EBC3502D
:1028A00010440029A4BF10BC7047401C490008BF59
:1028B00020F0010010BC704710B5141E73F1000425
:1028C00008DA401C41F1000192185B411A4301D122
:1028D00020F0010010BD2DE9F04D92469B4611B14C
:1028E000B1FA81F202E0B0FA80F220329046FFF7AE
:1028F0007BFF04460F4640EA0A0041EA0B015346BB
:102900005A46084313D0114653EA010019D0C8F1C2
:1029100040025046FFF777FF05460E46504659469F
:102920004246FFF761FF084305D0012004E020463E
:102930003946BDE8F08D0020054346EAE0762C4399
:1029400037430A986305E40AA0EB08000022FD0A59
:1029500044EA47540A3002D500200146E9E7010560
:1029600010196941DDE9084500196941BDE8F04DDC
:10297000A2E70000064C074D06E0E06840F00103C6
:1029800094E8070098471034AC42F6D3FFF7A0FB59
:102990002C9500017C95000170B58C1810F8015B36
:1029A00015F0070301D110F8013B2A1106D110F8E8
:1029B000012B03E010F8016B01F8016B5B1EF9D1EC
:1029C0002B0705D40023521E0DD401F8013BFAE772
:1029D00010F8013BCB1A921C03E013F8015B01F8DD
:1029E000015B521EF9D5A142D8D3002070BD10B5AD
:1029F00005F0E0FEBDE8104004F094B910B51E48A3
:102A00000068002800D080471C4900200870811E03
:102A10001B4801601B494FF0007008601A4CD4F845
:102A2000C002800704D4F42218A11DA003F4E0F32F
:102A30002A480168D4F8C40261F31D3040F0010057
:102A4000C4F8C40203F4D3F200214FF03040C16057
:102A50008161C1174161016203F48AF2084840387C
:102A6000016821F4800101601D480068002802D03F
:102A7000BDE81040004710BD602480005C4280002B
:102A800044C500A080E200E000E000A07277697019
:102A90005F736C6565705F636F6D6D6F6E2E630045
:102AA0004D43555F5355422D3E424C455F44534C78
:102AB0004545505F434F52525F454E2026204D43BF
:102AC000555F5355425F424C455F44534C4545501A
:102AD0005F434F52525F48575F454E005424800079
:102AE0006424800000214FF03040C1608161C11733
:102AF000416101620649022004220A60BFF34F8F40
:102B0000BFF36F8F0860BFF34F8FBFF36F8F7047B6
:102B100080E100E004490220C1F800010860BFF331
:102B20004F8FBFF36F8F704780E100E00249096863
:102B300001F007010170704704C500A030B40628F9
:102B400021D212490A6802F00702824212D00A68B2
:102B50000F4B1A400F4C22430A6000BF00BF00BF5A
:102B600000BF0A681A400C4B024333F8203042EA97
:102B700083420A600849183951F820000749086063
:102B800030BC76F4379230BC7047000004C500A01A
:102B9000F8FFE3FF050008002491000120408000B9
:102BA00004480068044900F0070051F82000034978
:102BB0000860704704C500A00C910001204080000F
:102BC0000648016841F4700101600548006800F49E
:102BD0008070002801D105F051BA704788ED00E0FF
:102BE00078C500A00FB4054B10B503A9044A02989C
:102BF00000F028F910BC5DF814FB0000ED5700014F
:102C0000944080000FB41CB50246002007AC002998
:102C10000BD0491ECDE90021054B6A462146069896
:102C200000F010F9009A002111701CBC5DF814FB33
:102C3000733500010FB4084B10B504A902AA03981C
:102C400000F000F9044602A9002000F09DFC204697
:102C500010BC5DF814FB0000893500017CB504460A
:102C600000201D46164600290BD0491ECDE9004123
:102C7000044B6A462946304600F0E4F8009A0021E9
:102C800011707CBD73350001002804DB00F1E020E9
:102C900090F80004704700F00F0000F1E02090F879
:102CA000140D704702E008C8121F08C1002AFAD1AB
:102CB0007047002001E001C1121F002AFBD17047BC
:102CC0002DE9FF5F82B00021DDE90430020DDDF85F
:102CD00040B0034318D044F61050A2F2FF324243F2
:102CE0001514119801281FD0A5EB0B00401C5FEABA
:102CF000000A4FF000064E4FDFF83891B0465046BC
:102D000015D5CAF1000413E0119801244AA3012843
:102D100001D16FEA0B010298119AC0E90031C0E9B4
:102D2000024206B0BDE8F09FCBF10000DFE70446A9
:102D30000021404A491842EB0450CDE9001012E04E
:102D4000E00707D032463B4640464946FFF7B5FB11
:102D50008046894632463B4610461946FFF7ADFB92
:102D600006460F466410002CEAD1DDE90401DDE9D6
:102D70000023BAF1000F06DAFFF79FFB42464B46ED
:102D8000FFF79BFB05E0FFF70AFC42464B46FFF7C7
:102D900006FC04460E460022284BFFF7F7FC03D83A
:102DA0004FF0FF30014607E00022254B2046314618
:102DB000FFF7DCFAFFF7BAFC102409E0002C0ADB6D
:102DC0000A220023FFF79EF9039B30321A55641E36
:102DD00050EA0102F2D1641C039AC4F111031444B5
:102DE000119A012A03D0012208430DD10AE00843B9
:102DF00004D000204FF0110B119072E7A3EB0B05EC
:102E00006D1E0DE05B4504DD4FF0000205F101058C
:102E100004E003DA4FF00002A5F10105002AECD02E
:102E200002981199C0E90231C0E9004579E7000034
:102E3000000014400000F03F300000000000F043AC
:102E40000000E03F2DE9FF4F95B09B4689460646BE
:102E500000250FE2252877D100242746F84A0121D2
:102E6000059400E0044316F8013F203B01FA03F00B
:102E70001042F7D130782A2811D06FF02F03307824
:102E8000A0F13002092A16D8059A44F0020402EB98
:102E9000820203EB42021044761C0590EFE759F8DA
:102EA000042B0592002A03DA504244F400540590A2
:102EB00044F00204761C30782E2816D116F8010F43
:102EC00044F004042A280DD06FF02F023078A0F1CE
:102ED0003003092B09D807EB870302EB4303C7181C
:102EE000761CF3E759F8047B761C30786C280FD0F9
:102EF00006DC4C2817D068280DD06A2814D104E0CD
:102F0000742810D07A280FD10DE044F400140AE0A0
:102F100044F4801401E044F440147278824202D1F7
:102F200004F58014761C761C307866280BD013DCF0
:102F3000582877D009DC002875D04528F6D04628D7
:102F4000F4D047281AD19DE118E0632835D06428D1
:102F500079D0652812D195E1702873D008DC6728F4
:102F6000F1D069286FD06E280DD06F2806D1B5E05A
:102F700073282CD0752875D0782874D05A461799A4
:102F800090476D1C75E1C4F30250022809D0032854
:102F90000DD0D9F8001004280DD00D6009F10409F6
:102FA00067E1D9F80010EA17C1E90052F6E7D9F84D
:102FB00000100D80F2E70D70F0E719F8041B8DF892
:102FC000001000208DF80100EA46012003E059F8C6
:102FD00004AB4FF0FF3061074FF0000102D40DE069
:102FE00008F101018846B9420FDA8045F8DB1AF88A
:102FF00008100029F4D108E008F101018846814257
:10300000FADB1AF808100029F6D105985B46A0EB08
:10301000080721463846179A00F094FA284400EB36
:10302000080507E04DE029E10DE01AF8010B5A46CA
:1030300017999047B8F10108F7D25B462146384608
:10304000179A13E142E00A220092C4F302524FF0B1
:10305000000A022A08D059F804CB032A4FEAEC717F
:103060000AD00DE029E02AE009F1070121F007026A
:10307000F2E802C1914609E00FFA8CFC4FEAEC71CC
:10308000042A03D14FFA8CFC4FEAEC71002907DACD
:103090000A460021DCF1000C61EB02012D2202E066
:1030A000220504D52B228DF80420012203E0E2073B
:1030B00001D02022F7E7904659E00A2102E01022D1
:1030C0000DE010214FF0000A00910BE010224FF0AC
:1030D000000A44F004040827009203E008224FF09D
:1030E000000A0092C4F30252022A05D059F804CB18
:1030F0000021032A08D009E009F1070121F00702A5
:10310000F2E802C1914605E01FFA8CFC042A01D1C5
:103110000CF0FF0C4FF00008220728D5702806D0CD
:10312000009B83F0100353EA0A0305D00EE040220F
:103130008DF80420012208E05CEA010206D030226A
:103140008DF804208DF8050002229046009B83F044
:10315000080353EA0A030AD15CEA010201D16207BB
:1031600005D530228DF804204FF001087F1E582825
:1031700004D034A003900EA802900DE036A0F9E729
:1031800053466046009AFEF7BDFF84460398825C72
:103190000298401E029002705CEA0100F0D1029891
:1031A00006A9081A00F1200A600702D524F4803429
:1031B00000E00127574502DDA7EB0A0000E00020F0
:1031C00000EB0A01009005984144401A0590E00385
:1031D00006D45B462146179A059800F0B3F90544DA
:1031E000002706E001A85A46C05D179990476D1C5C
:1031F0007F1C4745F6DBE0030CD55B462146179A5A
:10320000059800F09FF9054404E030205A461799CC
:1032100090476D1C0099481E00900029F5DC08E0DD
:10322000029802995A460078491C029117999047D2
:103230006D1CBAF10001AAF1010AF1DC65E10000A0
:10324000092801003031323334353637383961627C
:103250006364656600000000303132333435363740
:1032600038394142434445460000000000F058F917
:103270000544761C307800287FF4ECAD19B0284660
:10328000BDE8F08F620700D4062709F1070222F09B
:10329000070CFCE80223E14603F000485FEA080C53
:1032A00002D00FF2702C0DE05FEA045C02D50FF241
:1032B000682C07E05FEAC47C02D00FF2602C01E0CA
:1032C000AFF2700C4FF0FF3823F00043CDF850C040
:1032D00065280CD006DC452809D046281DD0472893
:1032E0003DD13DE0662818D067287ED138E0002126
:1032F000112F01DB112000E0781CCDE9000106A9A7
:103300000EA8FFF7DDFCDDE90F010E9A0391002105
:10331000009207F1010A04914DE04FF00040009740
:10332000CDE9011006A90EA8FFF7CAFCDDE90F02DE
:1033300003920E9B11990022DDF80CA000930492D9
:1033400011B9791C00EB010AB7EB0A0004D4C0F1F3
:10335000FF3007F1010A0490AAEB0700019044E056
:10336000012F00DA01270021112F01DD112000E0DB
:103370003846CDE9000106A90EA8FFF7A1FCDDE95A
:103380000F010E9A0391002104910092BA46210781
:103390000CD40399514500DA8A46BAF1010F05DDD4
:1033A000009AAAF10101515C302908D0B84202DA32
:1033B00010F1040F06DA0121CDE9011015E0AAF1A0
:1033C0000101E9E7002805DC049901440491AAEB16
:1033D000000102E0411C514500DD8A460499401A73
:1033E000401C01904FF000400290200704D4019847
:1033F000504501DBCDF8048000208DF84F00029885
:103400000DF14F07B0F1004F25D02B200E90029800
:103410004FF0020800280CDA404202902D200E9056
:1034200007E00A210298FFF7C9F93031029007F846
:10343000011DB8F10001A8F10108F2DC0298002892
:10344000EFD1791E0E980870307800F0200040F01F
:10345000450007F8020D12A8C01B00F107081498D8
:10346000007800B1012000EB0A01019801EBE07146
:1034700005984144401A401E0590E00306D45B467F
:103480002146179A059800F05DF8054414980078D5
:1034900018B15A46179990476D1CE00324D55B4636
:1034A0002146179A059800F04DF805441CE0049851
:1034B000002807DBDDE90301884203DD0098405C5A
:1034C000179901E0179930205A469047049805F162
:1034D0000105401C04900198401E019004D12E204B
:1034E0005A46179990476D1CBAF10001AAF1010ADA
:1034F000DDDC05E017F8010B5A46179990476D1C63
:10350000B8F10001A8F10108F4DC5B462146179AE6
:103510000598ABE62D0000002B0000002000000005
:103520002DE9F041044600251E461746880404D4C0
:1035300005E039462020B0476D1C641EF9D52846A9
:10354000BDE8F0812DE9F041044600251E46904675
:10355000C80301D5302700E02027880404D505E002
:1035600041463846B0476D1C641EF9D52846BDE873
:10357000F0814A68002A06D00A68531C0B6010705C
:103580004868401E486070470A68531C0B60107002
:10359000704700002DE9F05F0746894693464FEAE1
:1035A0005B04A2464D465F4EDFF87C81EFF310804E
:1035B000012181F31088D8F8A41221F02001C8F865
:1035C000A41280F31088EFF31080012181F310889A
:1035D000D8F8A01221F02001C8F8A01280F31088BA
:1035E000306820F080403060504830603F20D8F88C
:1035F000001160F30501C8F80011306820F4601074
:1036000040EAC7403060306820F4E02040EA0740DC
:103610003060052F03D1306840F400403060062F41
:1036200003D1306840F480403060306840F400508E
:103630003060306820F060503060306820F00F005B
:1036400040F003003060EFF31080012181F3108817
:10365000344A3832116821F0E04141F08041116074
:1036600080F31088306840F08040306001E0D8F886
:103670000000D8F80401C0F300200028F7D1EFF3D0
:103680001080012181F31088116841F00041116020
:1036900080F3108834E000204FF47A711AE08842F9
:1036A00017D9306820F080403060306840F000402A
:1036B0003060306820F00040306003F0C3F81C48F0
:1036C0000168491C016054464D46052078F497D2A4
:1036D0006CE7401CD8F80421C2F30022002ADED097
:1036E000D8F8040100F07F01A14200D92146002052
:1036F00003E0D8F8002004C5401C8842F9D3641ABE
:10370000002CC8D15FEACB7008D0D8F80401C0F310
:1037100000200028F9D0D8F800002880BDE8F05F2C
:1037200003F090B808C500A000E000A00A07080751
:103730003C4380002DE9F04107460E464FF000085B
:103740000024274D0BE004EBC40005EB8000801C37
:1037500007223946FEF732FD40B1641CE4B22878F6
:10376000A042F0D8B8F1000F18D102E04FF00108E4
:10377000F8E728780A21B0FBF1F201FB12040A28CD
:1037800001D2401C287004EBC40105EB81003968AC
:10379000C0F80210B988C180B97901722B7811A2E2
:1037A0001021002009F4FAD2307800070BD504EB81
:1037B000C40005EB800006F14601BDE8F0410A3087
:1037C0001C22FEF7D0BC04EBC40005EB800006F120
:1037D0002A01BDE8F0410A301C22FEF7C4BC0000FB
:1037E00008718000523A313A616464206C746B2035
:1037F0006974656D2C206E756D203D2025640A006E
:103800000449896B084004490A78104300220A7071
:1038100070470000002001A0B84080002DE9F04171
:1038200004460D46154F164E0022134620462946E3
:10383000FEF794FF0FD83068C0F34120012808D06C
:10384000786C401C7864306820F4C06040F40070EC
:103850003060BDE8F08100220A4B20462946FEF781
:1038600095FFF6D8306810F4C06FF2D0386C401C69
:103870003864306820F4C0603060EAE7DC408000E3
:103880000CC500A00000244006460F46154672B63F
:103890003846FEF78CFC402801D9402002E038462B
:1038A000FEF785FC80463046FEF781FC402801D9B2
:1038B000402002E03046FEF77AFC04469C21104886
:1038C000FEF76AFC424639460D48FEF74CFC0C48B0
:1038D000224631465C30FEF746FC09484FF0AA31DB
:1038E000016445644FF0BB3181644FF0CC31016518
:1038F0004FF0DD318165002000F004F8FEE70000A4
:103900006C70800030B5ADF20C4D04464FF4806110
:1039100003A8FEF741FC184D202085F83F0085F8EC
:103920009B003CB12846012C436DC26C09D0022C8F
:103930000CD00FE0104A11A15C3203A8FFF77AF90E
:1039400008E011A103A8FFF775F903E016A103A889
:10395000FFF770F903A90BA2686CCDE90121009073
:1039600018A3054A18A1002000F016FA00F0E0F9AB
:103970000DF20C4D30BD00006C7080005B45525262
:103980004F525D20257300005B5741524E494E4710
:103990005D20506172616D303A25642C5061726116
:1039A0006D313A25640000005B504152414D5D206D
:1039B000506172616D303A25642C506172616D31D5
:1039C0003A256400000000006170705F61737365E8
:1039D00072742E6300000000014877F44D970000D8
:1039E0009840800006460F4690461D4672B64046F7
:1039F000FEF7DDFB402801D9402002E04046FEF7FB
:103A0000D6FB04469C210D48FEF7C6FB22464146E4
:103A10000A48FEF7A8FB09484FF055310164456498
:103A20004FF066318164C6644FF0773101654765B8
:103A3000C94381650220FFF765FFFEE76C708000D7
:103A40002DE9F04106460F4690461D464046FEF7DA
:103A5000AEFB402801D9402002E04046FEF7A7FB1C
:103A600004469C210D48FEF797FB224641460B4831
:103A7000FEF779FB09484FF01131016445644900B4
:103A80008164C6644FF03331016547654FF04431BE
:103A90008165BDE8F0410120FFF734BF6C70800004
:103AA000082808D200EB4001044800EB41100178DF
:103AB00009B1001D704700207047000000628000BF
:103AC0002DE9F0470646894600244FF0FF38474667
:103AD0000121002E67D0307880B101280ED0022855
:103AE0000CD003280AD0042808D0052806D00628C0
:103AF00004D0072802D04046BDE8F087EFF31083DA
:103B0000012282F310882A4D944604EB440205EB0F
:103B1000421292F800A0BAF1000F03D092F804A06C
:103B200082450DD104EB440005EB401090F82D00C8
:103B3000022803D0274682F800C005E0082403E0ED
:103B4000641CE4B2082CE0D383F31088082C2AD23A
:103B5000DFF860A09AF8000038B98AF800C00321A5
:103B6000154803F045FEAAF8020004EB440105EBFA
:103B700041153078287105F108002422311DFEF727
:103B8000F2FA0E4868630E48E86300202864C5F81E
:103B90005C90032018F440D3032018F45BD3281D55
:103BA00002F002F9014601B147463846A4E7000099
:103BB00000628000744080003C91000109560001C1
:103BC0008955000110B58EB00C46002C07D040B1CD
:103BD00001282BD0022841D006200EB010BD0520B0
:103BE000FBE7207907281FD0304951F820000B90BF
:103BF000A1F12400617950F821000C90A0790D907A
:103C000020680104090C05D080B20A900AA928484E
:103C100002F098FA2068010C45D0000C0A900AA91D
:103C2000244802F08FFA3EE00720D6E720790728E3
:103C300012D01E49203151F820000790A1F1380020
:103C4000617950F821000890A079099020780690B9
:103C500006A802F03BF826E00720BEE72079C11E47
:103C6000032901D80720B8E7072809D00F494031B8
:103C700051F8200002902079072803D0012002E0AB
:103C80000120F7E700200390084861790C3850F8CC
:103C900021000490A0790590207800F01F00019089
:103CA00001A802F073FA002097E700006C91000170
:103CB000000001A0001001A070B50C461546002DB3
:103CC00003D0012D01D0042070BD28B1012813D0EC
:103CD000022816D0062070BD2004000C04D0A1B22A
:103CE0002A460B4815F406D7200C0ED0210C2A4684
:103CF000084815F4FFD608E0A0B2294602F03AF8C9
:103D000003E0A0B2294618F459D2002070BD00008B
:103D1000000001A0001001A0002806D0002904D056
:103D2000024AD269002A00D01047704748708000CC
:103D30000248006A002800D00047704748708000A1
:103D400070B50D4616460D4C00280AD0017803299F
:103D500011D80121A17601461A222046FEF703FA66
:103D600005E00020A0761A210448FEF715FAE56167
:103D70002662002070BD012070BD000048708000E8
:103D8000044A1044807D084201D001207047002081
:103D900070470000487080002DE9FE4FDDF830B01C
:103DA00006469246994600240027019702975A48F2
:103DB0000178B14202D2807E00287DD10DF1380811
:103DC000CDF80080EFF311850220FEF75DFF01467C
:103DD00052480068C0F30220401C0122824088182B
:103DE000C0B280F3118801213046FFF7C9FF38B116
:103DF0004B484C4950F82620204600F0A5F80446D0
:103E00001C213046FFF7BCFF00285ED046A2454982
:103E1000204600F099F8204484B204213046FFF790
:103E2000AFFFF8B152463F49204600F08DF82044DC
:103E300084B208213046FFF7A3FF38B13BA23949CD
:103E4000204600F081F8204484B20BE01021304677
:103E5000FFF796FF30B136A23249204600F074F8E1
:103E6000204484B208213046FFF78AFF90B14A46C9
:103E70002C49204600F068F8204484B210213046D6
:103E8000FFF77EFF30B12BA22649204600F05CF8F8
:103E9000204484B210213046FFF772FF70B15B46B8
:103EA00026A2052101A8FEF7ADFE01AA1D49204664
:103EB00000F04AF8204400E02BE084B220A2194927
:103EC000204600F041F8204484B21648C4F58071C1
:103ED000204443460D9AFEF7C1FE00974FF48071CF
:103EE000002804DB2044884201DC86B200E00E4654
:103EF000B01C884200D9FE2612A20A49304600F0C2
:103F000023F8304481B20748FFF706FFE8B280F398
:103F10001188BDE8FE8F0000487080000CED00E0C5
:103F200084408000486F80002800000020000000CE
:103F30003A000000204C696E653A0000256C640070
:103F4000292000000D0A000030B505460020002998
:103F50000CD0002A0AD006E02B18FF2B06D8CC5430
:103F6000521C401C80B21478002CF5D130BD0000EA
:103F700003780121064A012B00D111700378022B2E
:103F800000D151700078002801D111705170704734
:103F9000A44080002DE9F04F95B0044694F8350018
:103FA0008DF82C000F270C972078002817D00020C0
:103FB0000D904FF480100E9000250F950013109077
:103FC000A06B4FF002084FF010094FF0200A4FF09D
:103FD000040BB0F5E02F04D8119512950DE00220E6
:103FE000E6E7B0F5702F04D8CDF84490CDF84880BE
:103FF00003E0CDF844A0CDF848B013951495002106
:104000000BA8FFF75DFD2178364EC1EB011101EBE6
:10401000410106EB8101A1F8AC00002803DA04207D
:1040200015B0BDE8F08FFFF73BFD2178C1EB011122
:1040300001EB410106EB810148642178C1EB0111DC
:1040400001EB410106EB8101091DC16294F83600C4
:104050008DF80400207878B10120029003974FF486
:1040600000100490C01205900695A06BB0F5E02FEB
:1040700004D8079508950DE00320EEE7B0F5702F02
:1040800004D8CDF81C90CDF8208003E0CDF81CA01A
:10409000CDF820B009950A95002101A8FFF710FD81
:1040A0002178C1EB011101EB410106EB8101A1F87F
:1040B000AE00002801DA0420B2E7FFF7F1FC217816
:1040C000C1EB011101EB410106EB8101886421780C
:1040D000C1EB011101EB410106EB8101091DC16238
:1040E00000209DE7786780007CB502222E4C036893
:1040F000A34201D1002203E02C4CA34200D10122B3
:104100008DF800102A4D012331B1012910D0022968
:104110001CD0032928D02CE0C06C0190C2EB021007
:1041200000EB400005EB800000F8B23F437020E058
:10413000016A406A081AADF80400C2EB021000EBF5
:10414000400005EB800080F8B33012E0C16A006BDC
:10415000081AADF80400C2EB021000EB400005EBBA
:10416000800080F8B23004E0C16A006B081AADF834
:104170000400C2EB021000EB400405EB84000021B8
:1041800080F8B1104AB190F88510012905D17C3032
:10419000012241680078FFF78FFD55F824100029AF
:1041A00001D0684688477CBD00C100A000C000A0C7
:1041B000786780002DE9F04389B004460F462678E1
:1041C000002C05D0022E05D3082009B0BDE8F083ED
:1041D0000520FAE700F000FA242204F110016846F5
:1041E000FDF7C1FF211D20780EC903F0AFFF0028A5
:1041F000EBD194F8340002280BD1EFF310850120A5
:1042000080F310882046FFF7C5FE85F3108800284C
:10421000DBD194F83400012806D0234DA85717F4B9
:10422000FBD7A85718F416D0C6EB0610DFF87C9021
:1042300000EB400809EB880514F8341F05F8781FD7
:10424000A078A8706078343C6870783D05F17C00F7
:104250003022211DFDF787FF49F8287005F108007D
:10426000182204F13801FDF77EFF0F48001D50F8B9
:1042700026006860281D01F08FFF281D01F0A2FFB5
:104280000B4C0126207850B92670074803211430C2
:1042900003F0AEFA6080002801DA042095E705F803
:1042A000B06F0020687090E7CC91000178678000C3
:1042B000784080002DE9F04105460F4690460126E2
:1042C000022D17D2B7B1B8F1000F13D0C5EB05100E
:1042D00000EB4001284800EB810494F8B00048B19D
:1042E00094F87800012805D094F8B11021B102208B
:1042F000BDE8F0810420FBE7012184F8B11010B182
:10430000022825D112E055B194F88500012806D184
:1043100094F87C000022D4F88010FFF7CDFC201D1B
:104320004246394601F062FF064611E055B194F865
:104330008500012806D194F87C000022D4F8801072
:10434000FFF7BAFC201D424639461CF48DD10646C3
:104350007EB1002084F8B1004DB194F885000128A9
:1043600005D17C34012220786168FFF7A5FC304636
:10437000BEE70020BCE70000786780002DE9F0412F
:1043800005460F4690460126022D17D2B7B1B8F167
:10439000000F13D0C5EB051000EB4001284800EBDF
:1043A000810494F8B00048B194F87800012805D051
:1043B00094F8B11021B10220BDE8F0810420FBE7A0
:1043C000012184F8B11010B1022825D112E055B1B5
:1043D00094F88500012806D194F87C000022D4F8D6
:1043E0008010FFF769FC201D4246394601F04DFF61
:1043F000064611E055B194F88500012806D194F8DD
:104400007C000022D4F88010FFF756FC201D4246A5
:1044100039461CF4BBD206467EB1002084F8B100B8
:104420004DB194F88500012805D17C340122207813
:104430006168FFF741FC3046BEE70020BCE70000A2
:10444000786780002DE9F041ADF58A6D5022324940
:104450000DF58060FDF787FE304831490068B0FBFC
:10446000F1F0CDF844044FF4007842462A49503127
:1044700080A8FDF778FE41466846FDF78DFE0027CF
:104480008DF8347427490DF58060FFF793FE30B145
:1044900025A0FEF7A7FB0DF58A6DBDE8F08131A0E0
:1044A000FEF7A0FB374D2F70424680A90120FFF791
:1044B00065FF28780028FCD033A0FEF793FB00248A
:1044C00080AE38A0315DFEF78DFB641C4445F8D307
:1044D00023A0FEF787FB35A0FEF784FB4646314656
:1044E0006846FDF759FE6F70324669460120FFF7B6
:1044F000E1FE68780028FCD033A0FEF773FB0024AF
:104500006D4628A0295DFEF76DFB641CB442F8D30C
:1045100013A0FEF767FBBEE7189200012040800061
:1045200000093D00713F00010D0A5350494D2069BB
:104530006E697469616C206661696C6564212050E4
:104540006C6561736520636865636B2074686520C2
:10455000696E70757420706172616D656E74732E12
:104560000D0A00000D0A5350494D20696E746572A2
:1045700072757074207772697465207374617274D7
:104580002E0D0A00A4408000506C656173652063A5
:104590006865636B205350494D2053656E646564B4
:1045A0003A20000030782530325820000D0A535050
:1045B000494D20646D61207265616420737461727D
:1045C000742E0D0A000000005350494D20526563BF
:1045D00065697665643A200010B50B4C4720207061
:1045E000607800280ED14FF0E0200069C00701D1AB
:1045F00001F0BCFD01206070BDE8104003210348BC
:1046000003F0F6B810BD00007C408000EC91000182
:10461000F0B595B0044694F835008DF82C000F27BE
:104620000C970A200D904FF480100E9000250F95E6
:1046300000131090119512951395149500210BA855
:10464000FFF73EFA21784D2211FB02F1264E06EBD0
:104650008101A1F89800002802DA042015B0F0BD0D
:10466000FFF71EFA21784D2211FB02F106EB8101C2
:104670000863217811FB02F106EB8101091DC1627B
:1046800094F836008DF804000B20029003974FF445
:1046900000100490C012059006950795089509959D
:1046A000A0200A90002101A8FFF70AFA21784D22E4
:1046B00011FB02F106EB8101A1F89A00002801DA52
:1046C0000420CBE7FFF7ECF921784D2211FB02F132
:1046D00006EB81014863217811FB02F106EB8101B1
:1046E000091DC1620020B9E7E06880007CB50224A2
:1046F000304B02689A4201D1002403E02E4B9A42CB
:1047000000D101248DF800102C4D002281B1012927
:104710001DD0022932D003293ED0042907D14D20D3
:10472000444355F82410002901D0684688477CBDD1
:10473000C06B01904D20444305EB840080F830218C
:1047400055F824100029F2D0684688477CBD018CBA
:10475000408C081AADF80400204600F04DF94D20B9
:10476000444305EB840090F830010028EED155F861
:1047700024100029EAD0684688477CBD018D408D11
:10478000081AADF804004D20444355F824100029C0
:10479000F3D0684688477CBD4D20444305EB840038
:1047A00080F8302155F824100029F4D06846884755
:1047B0007CBD000000C600A000C700A0E06880002B
:1047C0002DE9F8434D21404A414302EB8104271D66
:1047D000022876D294F89C00002872D0FFF7FCFEE5
:1047E00094F89C0001286CD184F8310194F864207D
:1047F000012A4DD00025D4E903010144207D00F0B9
:104800000100C01D0E186068C16FC1F3800100294E
:10481000FAD0BAB1DFF8B4806D1C201D01F09FFD05
:10482000102808D0A068D8F80010B1FBF0F0704351
:10483000B5EBC01FF0D904F1A006304603F0DCF957
:1048400085B21EE0A68CE58C201D1CF46BD5A0194A
:10485000411BB031201D41F288332A461DF4AFD0F0
:10486000E9E730460122694603F0D4F96068C16F78
:10487000C1F340010029FAD09DF8001001606D1EBF
:10488000ADB2002DEDD1304603F0B6F90028D4D1F9
:104890006068C16FC1F380010029FAD094F8640008
:1048A00001280BD0EFF31081012080F310883868C5
:1048B000426842F08202426081F31088002084F84E
:1048C0003101BDE8F8830000E068800020408000EE
:1048D0002DE9F04389B004460F4615462678002C92
:1048E00005D0022E05D3082009B0BDE8F0830520CD
:1048F000FAE794F83400012800D09DB1FFF76CFE70
:10490000242204F110016846FDF72DFC211DA06C46
:104910000EC904F083F90028E6D194F83400022887
:1049200002D010E00420DFE70EB10820DCE7EFF34F
:104930001088012080F310882046FFF769FE88F375
:1049400010880028D0D194F83400DFF8A080012826
:104950000ED04D20704308EB800006CDA03003F050
:104960003FF9234DA85717F457D4A85717F472D41A
:104970004D2206FB02F008EB800514F8341F814637
:1049800005F8641FA078A8706078343C6870643DB6
:1049900005F168003022211DFDF7E5FB48F829707C
:1049A00005F10800182204F13801FDF7DCFB10487E
:1049B000001D50F826006860281D01F0BBFC281D72
:1049C00001F0D6FC0B4C0126207850B9267008481F
:1049D0000321143002F00CFF6080002801DA04206B
:1049E00082E785F89C6000207EE70000E068800098
:1049F000F89100017E4080002DE9F04105464D20F0
:104A00001F49684301EB800404F1A006304603F01F
:104A1000F3F882B2174692B194F8310101280ED012
:104A20004D204543164800EB8505B035802A0BD351
:104A300029463046802203F0EDF8802708E0002068
:104A400084F83001BDE8F0812946304603F0E2F8F1
:104A500094F8640018B1022809D00420F2E729462E
:104A6000201D3A461DF42CD00028EBD106E0294643
:104A7000201D3A461CF4DED70028E3D10020E1E7F0
:104A8000E068800070B50546022D15D2A1B19AB13B
:104A90004D20164B684303EB800494F89C0058B1FA
:104AA00094F86400012807D004F1A00003F0F6F8A0
:104AB00094F8300110B117E0042070BD94F8310172
:104AC00090B994F89C0001280ED16068D0F8980045
:104AD00050B1012084F830012846FFF78DFF18B14E
:104AE000002184F8301170BD002070BDE0688000A6
:104AF0002DE9F04106460C46174604F1080520460C
:104B000070F45AD6C3B21B48E1184268914202DDE4
:104B10000320BDE8F0811849184A00680968126846
:104B2000891A081A001FE91881421CD94FF4004560
:104B300013A22946002008F431D100F0F1F930B178
:104B400018A22946002008F429D10820E1E71DA277
:104B50002946002008F422D13A4621463046BDE8D5
:104B6000F04104F01BBA3A4621463046BDE8F04118
:104B700004F014BAD8328000D0238000CC23800007
:104B8000523A353A4E56445320617265612069733A
:104B9000206265696E6720636F6D70616374656420
:104BA0002E0D0A00523A353A436F6D706163746995
:104BB0006E67204E564453206661696C65640D0A29
:104BC00000000000523A353A436F6D7061637469BA
:104BD0006E67204E56445320737563636573736626
:104BE000756C0D0A000000002DE9F041054688466D
:104BF00028466BF4A5D2C0B22449097888420DD268
:104C000000EB4000213040F400404246AC2102F06D
:104C100035FA0446200032D0012430E06BF4D4D2BF
:104C2000C7B207EB470606F1200040F400402A46D1
:104C3000072102F023FA10B10120BDE8F0813846C7
:104C400077F412D406F1210040F400404246AC2132
:104C500002F014FA0446200001D00120EDE72236CC
:104C600046F4004072F4D2D40949C7EBC700096882
:104C7000084429680160A9888180A97981711CB9DB
:104C800041462846FEF756FD2046D6E738238000E9
:104C90003C23800002F0F0BE10B5FFF7FBFF054992
:104CA00003480860BDE81040034876F44F960000C2
:104CB00017B8800474C500A00087930310B5064898
:104CC0000068002800D0804700F4F6F108B1012008
:104CD00010BD002010BD00006442800070B519486E
:104CE0000468194D2878002801D0002070BD4FF0CD
:104CF000806074F4FDD101F431F1600875F408D1DD
:104D0000124908608817114901262C39086010499A
:104D10007006C1F8FC01C8674FF03041086B40F0E5
:104D200007000863094C303C206840F4E020206014
:104D300001F451F12E70206820F4E0202060012061
:104D400070BD00006C2480005C42800070C500A033
:104D500084E000E070B50024EFF31086012080F3BA
:104D6000108801F453F1104D28B102242968B9B11B
:104D70000220884714E0FFF7A1FF20B1296879B12C
:104D8000002088470CE0FFF7A9FF28B1022429681A
:104D900031B10220884703E0296809B10020884723
:104DA00086F31088204670BD5C248000034900EB28
:104DB000800001EB80008088704700003441800053
:104DC000034A00EB800002EB800081807047000006
:104DD0003441800000B587B000F01EF803208DF844
:104DE00000001D208DF8160001208DF817008DF8A9
:104DF00018008DF81900044A04496846FEF7A0FF20
:104E0000FEF7EAFD07B000BD114E00017D4E000126
:104E10000020FFF7D5BC000000B597B015481590ED
:104E20004FF48063169300208DF804004FF4E131B5
:104E30000F91032110911190129013900121149160
:104E40008DF81400CA02069202228DF815208DF802
:104E50001C108DF8080003938DF809208DF81010B0
:104E60008DF8380015AA044901A8FFF731FD17B0E5
:104E700000BD0000486B8000FF2100010A4601468A
:104E80000020FFF7FFBD000070B504460D46194E27
:104E90000022194B20462946FDF760FC06D23068F7
:104EA00020F4704040F44050306070BD0022134B3D
:104EB00020462946FDF76AFC0DD200221346204603
:104EC0002946FDF74BFC06D2306820F4704040F4D0
:104ED0008040306070BD0022094B20462946FDF716
:104EE00055FCF7D2306820F4704040F4A0403060A8
:104EF00070BD000024C500A0008040C000003EC07E
:104F00000000244010B503F09BF802F05BFC03F0B6
:104F1000D7FB00F031FBBDE8104002F079BF000084
:104F20002DE9F04F87B07B48D0F800900024002591
:104F3000A246002603F026FD77480168C9F8001054
:104F40004068C9F80400754800680830059009F108
:104F500008000690042203A9059800F0D9FABDF8CC
:104F60000C10A1F57F40FF3843D0082203A9059813
:104F700000F0CEFABDF80E0070F41ED400F0FF0869
:104F8000BDF80C00002867D00698A9EB000707F5CC
:104F90008057BDF80E1008F1080083460844B84257
:104FA00063D805AB082203A906A800F0D7F8BDF81E
:104FB0000E00002300EB080205A906A802F096FCEB
:104FC000641CBDF80E005844B842C3D10020CDE99E
:104FD000006053464A462146284603F0F5FE002865
:104FE00026D1824600260024CDF818906D1CEDB223
:104FF000B0E70020CDE9006053464A4621462846E6
:1050000003F0E2FE002813D16D1CECB2434D4FF4C7
:105010008057434E08E0286800EB0430394600F022
:10502000E1FF40B1641CE4B2707AA042F3D80020E2
:1050300007B0BDE8F08F3B488169407A40F2624298
:10504000CDE900200291384B38A24FF400410020F6
:1050500007F4A4D60920EBE7BDF80E00059908F186
:10506000080808444044059074E7082F29D305AB8D
:10507000082203A906A800F071F8083F2FB1002309
:105080003A4605A906A802F031FC611C0020CDE9D2
:10509000006053464A46284603F096FE0028C7D1D2
:1050A0008246BDF80E004044C61B0024CDF818907F
:1050B0006D1CEDB20023324605A906A802F016FCCD
:1050C00048E705AB3A4603A906A800F047F8611C7B
:1050D00003A8CDE9006053464A46284603F074FE13
:1050E0000028A5D1C7F1080ABDF80E0000EB08069C
:1050F0000024CDF818906D1CEDB20123524605A98D
:1051000006A802F0F3FB0023324605A906A802F028
:10511000EDFB1FE770428000ACD50700CC23800078
:10512000D8328000641F8000F6940001523A353A6C
:1051300025732C204C256420666C61736820737481
:10514000617465203078253032582C206572726F7A
:1051500072203078253038580D0A000070B50446AA
:1051600015461E462A462068FCF7FDFF3068284495
:10517000306020682844206070BD000010B50548EC
:10518000017B491C0173002074F430D5BDE8104048
:1051900000F050B8DC4080002DE9FE43FFF77AFDB7
:1051A0001E48016821F4003101601C4E083E306841
:1051B0001B4980B2084330601A4803C8CDE900019A
:1051C00016482C380068C82100F007001DF80000C0
:1051D00010FB01F514480768144CD4F800803846D9
:1051E000414600F047FE62686068831AAB42FBD319
:1051F0004146384600F01EFE02F038FB02909DF852
:10520000080028B19DF80800094948618861C86113
:10521000306820F07F403060BDE8FE8330C500A0DC
:1052200000008F11B0540001FCED00E0001000E020
:10523000DC4080002DE9FC412D4E306820F07F409D
:1052400040F0885030602B4803C8CDE90001284861
:105250002438006800F007011DF80100C82110FB88
:1052600001F525480768254CD4F8008038464146AA
:1052700000F000FE62686368981AA842FBD34146BA
:10528000384600F0D7FD002502F0F0FA0446DFF8BA
:105290007080D8F81800844201D9012700E0002767
:1052A00074F44AD340B91FB1D8F81800201A02E0AC
:1052B000D8F81800001BC5B2D8F81800C8F82000AC
:1052C000B5EB900F03D8292C01D8112C02D200F095
:1052D00019F807E000EBC00020440A21B0FBF1F010
:1052E000C8F81800306820F07F403060BDE8FC81CD
:1052F00028C500A0B0540001FCED00E0001000E063
:10530000DC4080002DE9F04F87B000200690082493
:10531000DFF890811A20C8F8140063480168634AD6
:1053200089B21143016005A8FDF700FC0220FDF7DA
:1053300005FCDFF8749109F10809D9F8000020F4A0
:105340007C3040F42030C9F8000059A003C8CDE9F2
:105350000201DFF854A1AAF1240ADAF8000002A938
:1053600000F00700085CC82110FB01F5DFF848B128
:10537000DBF800000190514F3E680198314600F083
:1053800079FD78687968091AA942FBD331460198FA
:1053900000F050FD02F06AFA04909DF81010D8F861
:1053A0001400814204D99DF81020811C8A4263D9DF
:1053B0009DF81010814204D29DF81020811E8A426F
:1053C0005AD29DF81010814201D9012500E0002534
:1053D00015B1641C64B201E0641E64B2202C11D3C8
:1053E000D9F8000020F47C3040F42030C9F80000E7
:1053F000D8F83C00401CC8F83C0000200490012074
:10540000069039E0D9F8000020F47C3040EA0430FE
:1054100040F40030C9F8000025A003C8CDE902011E
:10542000DAF8000002A900F00700085C642110FB14
:1054300001F6DBF80000019038680090DDE900100B
:1054400000F018FD78687968091AB142FBD3DDE9EC
:10545000001000F0EFFC02F009FA049035B19DF85D
:105460001000D8F814108842B2D805E09DF810005A
:10547000D8F814108842ABD39DF81400FDF75EFBFA
:105480000948016821F07F4101609DF81000C8F8CB
:105490001800D8F82400401CC8F82400069807B06B
:1054A000BDE8F08FDC40800028C500A000008F110F
:1054B0004030101810200000FCED00E0001000E06B
:1054C00070B504460D460F4E00220F4B204629466C
:1054D000FDF75CF908D2D6F8200220F4706040F4A1
:1054E0004070C6F8200270BD0022084B20462946B5
:1054F000FDF734F9F7D2D6F8200220F47060C6F830
:10550000200270BD00E000A00000494000004440BF
:105510002DE9F04105460E461746094C2378002B2D
:1055200002D0002070F4BCD43A463146284600F040
:1055300099FD0546207870F4B3D42846BDE8F08183
:10554000C92380002DE9F04105460E461746094C57
:105550002378002B02D0002070F4A2D43A463146C2
:10556000284600F08FFD0546207870F499D428462F
:10557000BDE8F081C92380000121024A00206AF4BD
:10558000F39200006159000130B400210D4B01EB92
:10559000410203EB42121478012C0DD112790478E8
:1055A000A24209D101EB410003EB4010C16D00297B
:1055B00006D030BC00200847491CC9B20829E6D3F0
:1055C00030BC70470062800070B500240C4E04EBC4
:1055D000440006EB4015287801280AD1281D12F452
:1055E0003DD718B1012801D0002070BD281D13F44B
:1055F0008FD1641CE4B2082CE9D3012070BD0000F7
:10560000006280007047000030B400210D4B01EBB8
:10561000410203EB42121478012C0DD11279047867
:10562000A24209D101EB410003EB4010C16D0029FA
:1056300006D030BC01200847491CC9B20829E6D36E
:1056400030BC70470062800010B5104C022204216B
:10565000204601F0A3FA01221021204601F09EFA13
:1056600002228021204601F099FA022240212046A0
:1056700001F094FA02222021204601F08FFA204600
:105680000222BDE81040082101F088BA001001A0F4
:105690002DE9FE4F07460D4602AA2946384603F07B
:1056A0003BFA10B10298BDE8FE8F029C00260296DC
:1056B000DFF8688098F8000010B1002070F4F0D393
:1056C000DFF85CA04FF6FF7908226946204600F01B
:1056D000C9FCBDF80000484502D12E80029617E0B3
:1056E000B84206D115B1BDF80200288008340294F2
:1056F0000EE0BDF8020070F45FD0BDF80210083073
:1057000021444418DAF800008442DDD32E8002964A
:1057100098F8000070F4C4D30298C4E7C92380004D
:10572000D023800010B50021084B5A681B8809E07F
:1057300052F83140844203D102EBC100406810BDF1
:10574000491C89B29942F3D310BD0000AC408000DF
:1057500010B5884210D808290ED2094B074A5A6062
:1057600006E003EB8002946844F001049460401C5E
:105770008842F6DD0320186010BD000000400030B4
:10578000002000E02DE9F047164F3868002826D0A9
:105790004FF00009002400250526DFF84C8013E0B7
:1057A00005EB4501012018F8212090403A6810428D
:1057B00008D008EB81032246D3E90101641CE4B25E
:1057C00000F01CF86D1CEDB2B54201D2062CE7D3F7
:1057D000641EE1B24846BDE8F047FFF7B9BFBDE837
:1057E000F0870000A84080006894000113B50121F3
:1057F0006846FEF791FA01201CBD000070B5054611
:105800001446114840F8345000EBC400416028466B
:1058100000F0CEF80646FF2000F0CCF8014625F057
:1058200001000A4B850703EB8402094B06D0801E5A
:10583000906006EB014043F8240002E0906043F8DA
:105840002410204670BD0000643D8000002000E070
:1058500000400030017882781144C9B201710846D5
:10586000704730B500224271438805E044798D5C71
:105870002C444471521C92B29342F7D8407930BD07
:105880002DE9F04389B081460E46002425462021AB
:1058900001A8FCF781FC0027102201A94846FDF76A
:1058A00079FE002001A900F1080231F812203A44E3
:1058B00097B2401CC0B20828F5D34FEAD708B9F117
:1058C000050F03D0B9F1060F20D03AE07088FCF73D
:1058D00087FC04460D463088FCF782FC06460F46DE
:1058E0004046FCF77DFC32463B46FCF7E0FD224695
:1058F0002B46FCF754FE154A154BFCF750FE0022D0
:10590000144BFCF7D7FD04460D461AE07088FCF7EF
:1059100067FC04460D46B088FCF762FC06460F465D
:105920004046FCF75DFC32463B46FCF7C0FD224694
:105930002B46FCF734FE084A084BFCF7BEFD044634
:105940000D4609B020462946BDE8F08379E92631A5
:1059500008AC5CBF00003940B76DDBB66DDB0EC034
:105960001CB542680121117000214FF48A2205E024
:1059700012F8013B4468491C6354C9B20829F7D3A3
:10598000094906C9CDE900124168009A41F8092F7A
:10599000019A4A600288406811216AF4A7D003493D
:1059A000002008701CBD00000495000148258000FF
:1059B0000088704740F45F40704700002DE9F05FB9
:1059C00004460D46374FDFF8E080DFF8E0B04FF0D7
:1059D000663A4FEA670936480068C0F3C2263A467D
:1059E000434620462946FCF7B9FE01D2062656E07A
:1059F0003A46434620462946FCF7C8FE0AD8524696
:105A00005B4620462946FCF7A9FE03D2042E46D069
:105A1000062644E052465B4620462946FCF7B6FE81
:105A200008D80022234B20462946FCF797FE01D8D0
:105A3000042634E000221F4B20462946FCF7A6FE30
:105A40000AD24A461C4B20462946FCF787FE03D261
:105A5000032E24D0042622E04A46174B204629462E
:105A6000FCF794FE08D80022144B20462946FCF788
:105A700075FE01D8032612E00022104B204629466D
:105A8000FCF784FE0AD24A460D4B20462946FCF715
:105A900065FE03D2022E02D0032600E00226304625
:105AA000BDE8F09F9A9999999999014066660240DC
:105AB00010C500A000000440CCCC04400000084009
:105AC000CCCC08402DE9F05F04460D46DFF82CA150
:105AD000DFF82081DFF820B14FF066394FEA4A073E
:105AE00047480068C0F3C2263A4643462046294646
:105AF000FCF734FE01D2072678E03A4643462046BA
:105B00002946FCF743FE0AD84A465B46204629460A
:105B1000FCF724FE03D2052E68D0072666E04A462D
:105B20005B4620462946FCF731FE08D80022354B5B
:105B300020462946FCF712FE01D8052656E0002231
:105B4000304B20462946FCF721FE0AD252462E4B06
:105B500020462946FCF702FE03D2042E46D0052635
:105B600044E05246284B20462946FCF70FFE08D851
:105B70000022264B20462946FCF7F0FD01D80426DA
:105B800034E00022214B20462946FCF7FFFD0AD2D3
:105B900052461F4B20462946FCF7E0FD03D2032E58
:105BA00024D0042622E05246194B20462946FCF711
:105BB000EDFD08D83A46174B20462946FCF7CEFDA6
:105BC00001D8032612E03A46124B20462946FCF73C
:105BD000DDFD0AD24A46104B20462946FCF7BEFDA1
:105BE00003D2022E02D0032600E002263046BDE892
:105BF000F09F00009999014066660240CDCCCCCC64
:105C000010C500A000000440CCCC044000000840B7
:105C1000CCCC084099990D4066660E400548006856
:105C2000C00F002804D00448007908B10120704753
:105C30000020704740C500A0DC4080002DE9FE4FE9
:105C400081460024002601258DF80050CDF80490EF
:105C500072F44ED701280BD08DF8085020211A4835
:105C6000FCF79AFA0025DFF86080A8F5017A25E0B4
:105C700000208DF80800F1E70AEB051738790128B4
:105C80001AD1B86810EA090F16D03A69A2B10021FA
:105C900008E058F82100904201D1012604E00026D6
:105CA000491CC9B2A142F4D336B968469047386955
:105CB00048F82400641CE4B26D1CEDB29AF80000B0
:105CC000A842D9D8BDE8FE8F0467800070B50546AC
:105CD000064811F4DBD6EFF31084012181F310881C
:105CE000284600F005F884F3108870BD3440800029
:105CF00000B585B001680091017901F003010191BF
:105D000081680291C1680391406800090490684667
:105D100000F0A8FD05B000BD10B5FF20FDF770FD37
:105D200080B2002821D011498863EFF3108101224D
:105D300082F310880E4A6FEA0043136081F31088E3
:105D40006FF0040111600A4940390968C1F300117C
:105D500039B1202805D0BDE8104020F0200011F412
:105D60000D96BDE8104011F4099610BD002001A069
:105D700044C500A030B4002910D0EFF310810122F7
:105D800082F31088074B1A684FF6FF7404EA00206C
:105D900002431A6081F3108830BC704730BC00F0B9
:105DA000EDBD00005CC500A030B58DB00446002CF0
:105DB00004D094F82900002518B111E001200DB09D
:105DC00030BD84F828501948416821F080014160B5
:105DD000016821F080010160816821F00401816087
:105DE000022084F8290001A82FF42ED060680A90C0
:105DF000A0680B902069059060690690A0690790E3
:105E0000E0690890E0680390206A0490606A0C9052
:105E1000217801AA064800F01DFE2564012084F8BF
:105E2000290084F828500020C9E70000A0E200A063
:105E3000003001A010B5EFF31083012282F3108827
:105E4000094A1468002C02D01468641E1460126899
:105E50003AB920F0807021F00101044A1160044930
:105E6000086083F3108810BDB4408000001000E08B
:105E7000FCED00E010B5EFF31082012383F31088EE
:105E8000074B1C68641C1C60064B40F08070186057
:105E900041F001000449086082F3108810BD000041
:105EA000B4408000FCED00E0001000E010B50446B6
:105EB000002C1DD0207A01281CD0012020721A4805
:105EC000006818B1416809B1204688471748016841
:105ED00021F480610160EFF31081012080F31088CC
:105EE0001348026822F002020260006820B114E048
:105EF000012010BD022010BD0E48426842F0010290
:105F00004260C26842F00072C260026842F0010260
:105F10000260C26842F08072C26081F31088002083
:105F2000E0606072207210BD8403800014C500A080
:105F300024428000A0E200A070B50446002C03D0EB
:105F400023492068884201D0012070BD207A0128B1
:105F500005D001252572607A002610B11EE00220CE
:105F600070BD26721B48016821F001010160816843
:105F700021F000718160EFF31080012181F310881E
:105F800015490A6842F002020A6080F3108813483B
:105F9000006818B1016809B1204688470220607284
:105FA0000F48016841F4806101606068012809D0F0
:105FB0002068016821F4805101603046E660657216
:105FC000207270BD2068016841F480510160F4E7DF
:105FD000006401A0A4E200A02442800084038000A9
:105FE00014C500A010B50B46024600210348FFF778
:105FF000C8DB08B1002010BD012010BD641F800067
:1060000038B5022000906846FCF790FD114C2068DE
:1060100080B911482060114901600121416081600F
:10602000EB21C1600E499DF8002051F8221001615A
:106030000021416175F49AD708B1012000E00020E9
:10604000A072044813F48AD108B1002038BD0120A1
:1060500038BD0000641F8000281F800000D000A011
:10606000C440800010B514460A4601462346044841
:10607000FEF790D908B1002010BD204610BD0000E9
:10608000641F80002DE9F047C0B081468A4617465C
:106090003B46524649461748FFF769DA18BB0024C9
:1060A0003D464FF48078474501D9464600E03E46DC
:1060B00009EB040133466A460E48FEF76BD990B9E6
:1060C0000AEB040032466946FCF778F858B9AD1B74
:1060D0006DB134444646B54200D82E46BC4202D289
:1060E000A019B842E4D9002040B0BDE8F087384696
:1060F000FAE70000641F8000FEB50D460F4A90428B
:1061000000D10D0400208DF80000019501208DF8CC
:10611000080000240A4E0CE006EB0410017931B9A6
:106120008168A94203D102690AB168469047641C9C
:10613000E4B23078A042EFD8FEBD0000001001A00C
:106140000065800070B505460E46074813F4C8D4B4
:10615000EFF31084012282F310883146284613F4AD
:10616000B4D484F3108870BD3040800010B5064868
:1061700019F4D6D3EFF31084012080F3108815F4BE
:1061800077D784F3108810BD2840800000F028BD28
:10619000704770477047000070B5054606481AF40E
:1061A00043D3EFF31084012181F31088284619F4BA
:1061B000CDD684F3108870BD384080000021FDF7F3
:1061C00093BF000070B5054606481AF42DD3EFF3CF
:1061D0001084012181F31088284619F4AFD784F385
:1061E000108870BD38408000704770472DE9F04737
:1061F00004468946174694F8480001280ED04FF00F
:10620000010884F8488094F849000026012807D046
:10621000022584F848602846BDE8F0870220FBE7A5
:10622000E664022084F84900002201212046236D03
:1062300002F042F80546280004D084F8498084F82A
:106240004860E8E74FF400723946204601F043FF0A
:106250002763E762C4F8289066622662E66122201E
:1062600084F8490084F848602068C16A41F0180148
:10627000C162034920688842CDD1C1170166CAE7CF
:1062800000C000A00221FDF72FBF2DE9F047044612
:106290008946174694F8480001280ED04FF00108AF
:1062A00084F8488094F849000026012807D0022588
:1062B00084F848602846BDE8F0870220FBE7E664E2
:1062C000022084F84900002201212046236D01F0BC
:1062D000F3FF0546280004D084F8498084F848601C
:1062E000E8E74FF480723946204601F0F4FE676219
:1062F0002762C4F81C902663E662A662122084F826
:10630000490084F848602068042181612068C16ADE
:1063100041F00101C162CDE70121FDF7E5BE032196
:10632000FDF7E2BE70470421FEF7E0B90321FEF756
:10633000DDB9000070B5054606481BF4E9D2EFF35D
:106340001084012181F3108828461BF495D084F332
:10635000108870BD544080000021FEF7C7B90028A6
:1063600004D010F8371F407808437047002070476A
:1063700070B5054606481BF4CBD2EFF3108401211B
:1063800081F3108828461BF465D184F3108870BD12
:1063900054408000704770470221FEF7A7B90121E1
:1063A000FEF7A4B92DE9F047064634460C3CDFF869
:1063B00000A14FF030494FF002089AF83000FF2852
:1063C00008D0D9F86410C20008FA02F081430143F2
:1063D000C9F8641037480078B0B1A42236A139A0BA
:1063E000FFF706DF204629F41DD79AF83000FF2872
:1063F00008D0D9F86410C00008FA00F821EA0801B2
:10640000C9F86410BDE8F087FF250A27A088A0F529
:106410008850053802D0012809D107E0208924F4EA
:10642000C9D620B1807800F00F0700E003270A2FBB
:106430002DD2DFE807F0050705072C2C2C2C2C2B80
:10644000002524E03078717840EA0120C0F30B0089
:10645000A0F58071FF2901D8022518E00B2808D883
:1064600019490144097E21B1012101EB002085B2C7
:106470000DE0A088A0F58851063902D1706804F4B7
:1064800043D312480178491C017000E00225FF2D1A
:1064900004D0E580304629F4CFD6A6E72189A0882C
:1064A0009A2305A2FFF7A6DE204629F4BBD69CE777
:1064B00008088000A30680006863695F70617463E8
:1064C000682E630030000000501980003C428000BC
:1064D00038B500200090124C2078902808D015D2B2
:1064E00094F8280000F07F0000F14600009012E0D0
:1064F000684602F019F894F82800BDF800108842A8
:1065000009D900F07F004630009004E0A07C00F044
:106510007F0012380090BDF8000000F07F0038BD09
:106520001232800070B504460D46FFF7D1FF0646D3
:106530000022164B20462946FCF728F91DD34FF0C0
:10654000C042134B20462946FCF720F902D82046CA
:10655000294602E00E494FF0C04000220D4BFBF7E8
:10656000ACFF00220C4BFBF7A5FF00220B4BFCF706
:1065700016F8FCF7DBF8301AC6B20948016821F0BA
:10658000FE4141EA0661016070BD000000000A4062
:106590006666064000408F400064A940000031401C
:1065A0000CC500A070B503460E46154608480468A1
:1065B000324621461846FFF755FD32462946204609
:1065C000FBF7FCFD08B1002070BD012070BD00008C
:1065D000704280002DE9F05FDFF818A14FF03049DC
:1065E0004FF002089AF80600FF2808D0D9F8641086
:1065F000C20008FA02F081430143C9F864104FF069
:10660000E027D7F80051D7F804B17E17C7F88061AA
:10661000C7F88461BFF34F8FBFF36F8F364805F41F
:106620002CD70446C7F80051C7F804B1002C2DD070
:106630002660204629F43ED430B1E188A088472363
:106640002EA2FFF7D9DD21E0E188A08829F49ED7AA
:10665000FFF768F80546280005D1E188A088522395
:1066600026A2FFF7C7DD35B121460C312389E28828
:10667000A088A84700E0002078B3012806D00228AF
:1066800030D072221DA121A0FFF7B2DDD7F8004162
:10669000D7F80451C7F88061C7F88461BFF34F8F02
:1066A000BFF36F8F1448006810B3002010B10320AF
:1066B00029F488D1C7F80041C7F804519AF80600B8
:1066C000FF2808D0D9F86410C00008FA00F821EAC1
:1066D0000801C9F86410BDE8F09FFFE7204629F4DF
:1066E000A1D5D3E704482146143005F4EBD6CDE715
:1066F0000120DBE708088000900980006B655F746B
:1067000061736B5F70617463682E6300300000001A
:106710002DE9FC4704460D46002000900190684694
:1067200001F070FF00287BD101F058FF80F00100DC
:10673000F8B101F033FF01003A483B4F09D090F81F
:1067400028000830396821F0FE4141EA00603860D5
:106750001DE090F828600022344B20462946FCF7C3
:1067600015F807D80836386820F0FE4040EA066081
:1067700038600CE000222E4B20462946FBF7EEFF46
:1067800005D8386820F0FE4040EA066038609DF881
:10679000040000F01F089DF8020000F01F0A022705
:1067A00004264FF001090022224B20462946FBF720
:1067B000EDFF02D20427062612E000221E4B2046DF
:1067C0002946FBF7E3FF02D20327052608E0002253
:1067D0001A4B20462946FBF7C1FF01D34FF00009B1
:1067E000B9F1000F1CD00AEB07011F2900D31F21AC
:1067F000B04502D9A8EB060000E00020104AD07294
:10680000094A1832136823F41F0343EA0141116057
:106810000549091D0A6822F4780242EAC04008606E
:10682000BDE8FC87123280000CC500A00000494082
:106830000000444000004E400000404000003B404B
:10684000DC408000EFF31080012181F310880449BF
:106850000A6822F000420A6080F310887047000046
:1068600040C500A02DE9F041044620683B4D1FE0E3
:1068700090FAA0F1B1FA81F201219140421E10403C
:10688000E26891FAA1F3B3FA83F39B00072A31D0AF
:10689000334FD7F890C20F269E402CEA060C9A4040
:1068A0004CEA020CC7F890C22A6842EA014129600A
:1068B0000028DDD12168A0684FF6FF7202EA0122AC
:1068C000C9B2B0F5807F1AD00023012819D000206A
:1068D0002E6811438E43184306432E6061680229D7
:1068E00011D0206800F05EF820681E494862606898
:1068F00070B130E02A6822EA01412960D8E71346E6
:10690000E3E70846E4E70021206800F04BF8EBE7F6
:1069100020688863206901280CD0022804D003284D
:106920000ED0042817D111E02068486388622068DF
:10693000086210E0206808638862206808620AE044
:1069400020680863C8622068086204E02068486321
:10695000C862206808620120BDE8F08150C500A02F
:1069600000E000A0002001A00349096A884301D08B
:106970000020704701207047002001A010B5EFF300
:106980001081012282F31088054B1A684FF6FF74BC
:1069900004EA002082431A6081F3108810BD0000D1
:1069A0005CC500A010B5C0B2EFF31082012383F3E1
:1069B0001088054B1C688443002900D00020044344
:1069C0001C6082F3108810BD5CC500A005480168FA
:1069D00021F0404141F080410160024838300068B8
:1069E000704700005CC500A0EFF31080012181F327
:1069F0001088034A6FF48071116080F3108870472B
:106A000044C500A0EFF31080012181F310880549EF
:106A10000A6822F040420A6080F31088014838304A
:106A2000006870475CC500A00449086003487838D6
:106A3000016841F0020101607047000090C500A0AC
:106A400003490A6822F4E06202430A6070470000CA
:106A500018C500A02DE9F04105460E461446D5F8AC
:106A60009803C0F300000127002867D0314628466C
:106A700000F074F8C0B13146284600F084F8314681
:106A8000284600F061F80028F9D006F10800874098
:106A9000C5F8A0733146284600F060F80028F9D107
:106AA0003146284600F064F84FF4606000EB46126F
:106AB00006EB460000EBC60005EBC0010A640422A9
:106AC0004A6400228A61CA612369A2681A43D4E930
:106AD000053633431A43E3691A438B69194E334031
:106AE00013438B610A6C22F440620A64E2680B6C07
:106AF00023F0404313430B64226845F8302060685C
:106B00008860206ACA696FF30B020243CA61606A37
:106B10004A6C22F4F06242EAC0104864A06A4A6CEF
:106B200022F4F04242EAC0204864E06A0A6C22F093
:106B3000E00202430A640120BDE8F081C5F89873C1
:106B4000B2E700004900CEFF01EB410202EBC101B8
:106B500000EBC100006CC0F340207047D0F8A003E8
:106B600001228A40104201D0012070470020704766
:106B700001EB410202EBC10100EBC100016C21F409
:106B800080710164704701EB410202EBC10100EB2F
:106B9000C100016C41F480710164704710B50E4B67
:106BA000984201D1002000E0102081400B4BD3F827
:106BB00010428C43022A0DD000200443C3F8104237
:106BC000D3F808028843012A00D000210843C3F803
:106BD000080210BD0846F0E7000001A000E000A098
:106BE0002DE9F04104462168404D25E091FAA1F0DD
:106BF000B0FA80F2012090404A1E1140226990FABA
:106C0000A0F3B3FA83F39B00072A24D0384E3768E9
:106C10004FF00F0C0CFA03FC27EA0C079A401743BD
:106C20003760EFF31082012383F310882B6843EA67
:106C30008050286082F310880029D7D1E16820684D
:106C40002A4E361F29B34FF4F85202EA00220129D6
:106C50000DD000210CE0EFF31082012383F31088A4
:106C60002B6823EA8050286082F31088E4E71146FD
:106C7000336800F01F0083433360EFF3108001237B
:106C800083F310882B6893430B432B6080F31088A9
:106C900004E0316800F01F0001433160A168206802
:106CA00000F028F8208862684FF0F85101EA00618E
:106CB0004FF4F81303EA004082B1032A09D0336885
:106CC00040EA0104A343012A00D10846034333608C
:106CD00008E0326808438243326003E032680843C8
:106CE000024332600120BDE8F081000040C500A0F1
:106CF00094E200A010B500F01F00012901D000218E
:106D000000E00146EFF31082012383F31088044B67
:106D10001C6884430C431C6082F3108810BD000083
:106D200040C500A0FEF756F819A0FBF75BFF19A0BD
:106D3000FBF758FF26A0FBF755FF34A0FBF752FFE7
:106D400041A0FBF74FFF31A0FBF74CFF4DA0FBF735
:106D500049FF5BA0FBF746FF68A0FBF743FF76A067
:106D6000FBF740FF83A0FBF73DFF28A0FBF73AFFAE
:106D70008FA0FBF737FF9DA0FBF734FF05A0FBF7C3
:106D800031FFFDF75FFBA8A0FBF72CFFFEE700003B
:106D90000D0A00002A2A2A2A2A2A2A2A2A2A2A2AE4
:106DA0002A2A2A2A2A2A2A2A2A2A2A2A2A2A2A2A43
:106DB0002A2A2A2A2A2A2A2A2A2A2A2A2A2A2A2A33
:106DC0002A2A2A2A2A2A2A2A2A2A0D0A0000000008
:106DD0002A20202020202020202020202020205376
:106DE00050495F4D415354455220444D41206578F0
:106DF000616D706C652E2020202020202020202016
:106E000020202020202A0D0A000000002A20202017
:106E10002020202020202020202020202020202072
:106E20002020202020202020202020202020202062
:106E30002020202020202020202020202020202052
:106E4000202A0D0A000000002A20436F6E66696741
:106E50003A20324D2C204D4F4445302C204D53428A
:106E60002C20382D626974732C204C4F572D4143D0
:106E7000544956452020202020202020202A0D0A79
:106E8000000000002A202020202020202020202078
:106E900020202020205350494D2020203C2D2D2DF6
:106EA0002D2D3E20202020534C41564520202020CF
:106EB0002020202020202020202A0D0A0000000071
:106EC0002A202020202020202020435330284750F3
:106ED000494F313729202020202D2D2D2D2D3E20CA
:106EE000202020435320202020202020202020204C
:106EF00020202020202A0D0A000000002A20202027
:106F0000202020202053434C4B284750494F3234F7
:106F100029202020202D2D2D2D2D3E2020202053D6
:106F2000434C4B20202020202020202020202020E7
:106F3000202A0D0A000000002A20202020202020E6
:106F4000204D4F5349284750494F323529202020A2
:106F5000202D2D2D2D2D3E20202020534449202052
:106F6000202020202020202020202020202A0D0A40
:106F7000000000002A20202020202020204D4953FE
:106F80004F284750494F3136292020203C2D2D2DA8
:106F90002D2D202020202053444F20202020202051
:106FA0002020202020202020202A0D0A0000000080
:106FB0002A20546869732073616D706C6520636F5B
:106FC00064652077696C6C2073686F772053504933
:106FD000204D415354455220444D41202020202033
:106FE00020202020202A0D0A000000002A20747290
:106FF000616E736D697373696F6E2C20616E6420AE
:1070000073656E6420776861742072657665697651
:1070100065642E20202020202020202020202020D9
:10702000202A0D0A000000000D0A546869732065CB
:1070300078616D706C652064656D6F20656E642E7F
:107040000D0A000010B50648006800F480700028A2
:1070500002D000F0BFFBFEE7BDE81040FBF734B8FC
:1070600078C500A010B54FF0FF342046FEF7F1D9E7
:107070002046BDE81040FEF70E9A00002DE9FE43C1
:1070800006460C461746FDF705FE2C48007878B3F7
:107090007FB374B340F6EC7084422BD84EB3A6F5A0
:1070A0007F40FF3826D002A93046FEF7F1FA0546A8
:1070B000002D3DD008226946A5F10800FEF728FA08
:1070C000684601F05FFEC8B1BDF808004FF4004803
:1070D000A04221D13A4621462846FFF763FA78B10B
:1070E00017A24146002005F459D60020BDE8FE83D2
:1070F00002E0FFE70520F9E70120F7E70920F5E7BF
:1071000016A24146002005F449D63B4622463146A8
:10711000284600F001FCE9E71BA24146002005F4E7
:107120003DD63B4622463146284600F0F5FBDDE7DA
:107130003A4621463046FDF7DBFCD7E7C8238000FE
:10714000523A353A6E7664735F70757428292073ED
:10715000616D6520646174610D0A0000523A353A30
:107160006E7664735F7075742829207265706C6127
:107170006365206461746120776974682073616D50
:1071800065206C656E0D0A00523A353A6E7664736E
:107190005F7075742829207265706C616365206466
:1071A00061746120776974682064696666206C6523
:1071B0006E0D0A0010B501210D4870F443D300286C
:1071C00015D0012802D0092800D0FEE770F434D38E
:1071D00004466EF461D601462046FEF703FF28B14F
:1071E0000121204670F42ED3002800D0FEE710BD08
:1071F00000F00F012DE9F04104460D4616461F46EA
:1072000001F042FA384600F0B3FC3146284600F05F
:10721000B3F9284600F00EFA00F014F806480749C2
:1072200010F82420486962F3030064F347104861B2
:1072300003480470BDE8F08124910001101F800014
:107240003042800010B5FDF74EDF0128FBD0BDE8CD
:1072500010401320FDF73E9F10B50549EB20086153
:1072600004490968C8600348FEF763D810BD0000F0
:10727000101F8000641F800001460148FEF75E99E0
:10728000641F80002DE9FC41484C2068000602D4B0
:10729000206840061FD5206820F4805020602068B8
:1072A00020F400602060206840F0400020602068EA
:1072B00040F480702060206820F04000206020684A
:1072C00040F080002060206840F40070206020685A
:1072D00020F08000206035493548403108600020AA
:1072E000012341B2002909DB01F01F0503FA05F271
:1072F0004909890001F1E021C1F88022401CC0B297
:107300002228EED3002001F059FD00252846FDF784
:107310004DFD01462846FDF753FD00F067F8FFF7E5
:10732000A1FEFFF747FF642000F0ACF900234FF403
:10733000FA7201211846FFF75DFF1E4874F42ED241
:107340001D4868F4CDD700F0CFF801F049FA0020CD
:10735000FBF7F4FB002001F049FA002000F09AF955
:1073600016A003C8CDE90001206800F007001DF851
:1073700000501448454314480668144C27683046AA
:107380003946FEF777FD60686168091AA942FBD3A8
:1073900039463046FEF74EFD00F042FD00F0BEFCDF
:1073A000FEF752F9BDE8FC4100F012B804C500A098
:1073B000A0FEFFFF404380008557000140301018B9
:1073C00010200000A0860100FCED00E0001000E0AD
:1073D0000548016821F08071016003496FF04000A9
:1073E000143908607047000058C500A04FF47A7047
:1073F0000F4A116821F0807111604FF4C0310C4BBD
:1074000038331960116841F000711160084B6FF05A
:107410004001143B19600021136861F3DF631360BE
:10742000401E411CFCD1106840F080701060704715
:1074300058C500A02DE9F04100242A4EDFF8A080B5
:10744000274F08F17C0806F158053868C0F3017031
:10745000012833D004EB84007179B37905EB800007
:10746000194401EBC103C26803EB011102EB810275
:10747000C260026902EB41010161D8F80000C00658
:1074800016D547F6122074F4CBD404EB840005EB38
:1074900080004FF47A6101614900C160022181716D
:1074A000418801F57A714180818801F57A71818086
:1074B000641CE4B20C2CC8D3BDE8F08104EB84005A
:1074C00005EB80007179B379C2681944C1EB4111B1
:1074D00002EB4102C260026911440161CDE7000084
:1074E00050C500A0DC40800008B501F0EFF9022093
:1074F00068F49AD6FDF706FDFFF7B4FD1649154866
:1075000088621648C8621649086001F0DBF8FFF788
:1075100091FF68F4EBD6134801780F48583071F4A6
:10752000F1D2002068F4ACD60F494FF47A7008808D
:107530000F490E480860002000906A4601214CF275
:107540001500FFF79BFDFDF727FEBDE80840094841
:1075500072F4269359618000DC4080009F618000B6
:107560006C078000304280004624800045C307003D
:10757000A82680007D5100012DE9FE430E4602271A
:107580004FF4FA710291254A116821F04051012807
:107590000CD0106808431060002E05D002AA3946AE
:1075A0004CF20700FFF76AFDBDE8FE8302961B4818
:1075B0003038036843F08003036041F0805010606E
:1075C00016482838016841F080010160144840885D
:1075D0004FF47A71484313A106C9CDE900120F494F
:1075E0004C39096801F007011DF801504543002896
:1075F000D2D00E48D0F800800D4CD4F80090404610
:107600004946FEF737FC62686068801AA842FBD3DF
:1076100049464046FEF70EFCBEE7000050C500A0FC
:10762000304280004030101810200000FCED00E0D7
:10763000001000E010B51249096801280AD002289C
:1076400011D0FDF750DD0128FBD0BDE81040062029
:10765000FDF7409DFDF747DD0128FBD0BDE8104058
:107660000720FDF7379DFDF73EDD0128FBD0082000
:10767000FDF730DDBDE8104046F2905074F4D09331
:1076800050C500A0642801D301494880704700001C
:10769000304280002DE9F04786B018216846FAF79D
:1076A0007BFDEFF311843048017830480068C0F367
:1076B0000220401C012282408818C0B280F3118849
:1076C000FEF7ACFAF0BBDFF8A880D8F80050DFF87E
:1076D000A0A00AF1380ADAF8000000F07046DFF8DE
:1076E0009490D9F80071684600F024FEC8B9BDF83E
:1076F0000000B0B172F420D108B1FDF79BFD00F09D
:10770000AFF969460520FEF7BBF801F049FA694672
:107710000620FEF7B5F801F021FB1748816B491CE4
:107720008163C9F80071C8F80050EFF3108001219F
:1077300081F31088DAF8001021F070413143CAF863
:10774000001000E001E080F310880948483000682C
:10775000C0F30170032801D101F0F8FAE0B280F320
:10776000118806B0BDE8F08702E400E00CED00E00F
:1077700008C500A000E000A0DC40800070B5012634
:107780000F240F4D55F8241019B1096809B1884725
:1077900028B1641E24B2002CF4DA16B10EE00026E3
:1077A000FBE7641C24B207E055F8241011B14968C6
:1077B00001B18847641C24B2102CF5DB304670BD43
:1077C000246780000249014808607047873700300D
:1077D000A026800010B505480078002802D0FDF7EB
:1077E000E3DB10BDFDF7C9DB10BD0000684280007F
:1077F0002DE9F04781460E464FF0FF380024EFF3A5
:107800001087012080F31088154D95F8500000284E
:1078100009D1144871F476D00021134871F4D4D200
:10782000012085F85000B9F1000F13D0032E11D8B4
:1078300086B101E0641CE4B2102C03D255F8240098
:107840000028F7D1102C05D245F82490281980F88B
:107850004060A04687F310884046BDE8F0870000EE
:1078600024678000614480007D7700012DE9FC5F82
:1078700000250024DFF85CA0174FEB46DAF834024D
:1078800005EB106515A003C8CDE900011548006897
:1078900000F007001BF8000000EB800046001248D3
:1078A000D0F80080D7F8009040464946FEF7E2FA4B
:1078B00078687968091AB142FBD349464046FEF719
:1078C000B9FA641C0A2CD9DB0A20B5FBF0F0C0B26F
:1078D000BDE8FC9F00E000A0001000E04030101860
:1078E0001020000004C500A0FCED00E070B50446C7
:1078F0000D46164628682168002B03D03246FDF756
:1079000007FE02E03246FEF7ADFB286830442860EF
:1079100020683044206070BD2DE9F04387B00F46E9
:107920009046994600250695A0F1080603240222F8
:1079300006A93046FDF706FE022803D0641E14F0A7
:10794000FF04F4D1022812D01B488169407A40F22A
:107950004F32CDE900200291184B19A24FF400419B
:10796000002005F41BD2092007B0BDE8F0830822EF
:1079700004A93046FDF7CCFDBDF812006DF41CD70C
:10798000C0B21B4A516871B1BDF8123008301944B9
:1079900008445060384601F01FF84A4641463846D0
:1079A000FDF7A6F8E0E7117ABDF812301944084453
:1079B00050601572EEE70000641F8000C89400015B
:1079C000523A353A25732C204C256420666C61733D
:1079D00068207374617465203078253032582C200B
:1079E0006572726F72203078253038580D0A0000A9
:1079F000D83280002DE9F04104460D46164E164F50
:107A000048360022154B20462946FAF7BFFE09D218
:107A1000386840F4C0503860306840F470603060BE
:107A2000BDE8F0810022134620462946FAF7AEFE53
:107A300008D2386820F4C0503860306840F4706074
:107A40003060EDE7386840F4C0503860306840F48A
:107A500070603060E4E700000CC500A00000444006
:107A600010B571F4F9D0022804D0BDE8104001200F
:107A700072F4BC9010BD000010B53C480168C1F321
:107A80008011002904D00168C1F3C01100296CD114
:107A9000016841F400710160016841F080010160FA
:107AA000016821F400710160016841F0400101604A
:107AB000016821F4807101602C4960310A6822F06C
:107AC0004C6242F04C620A60091D0A6822F04C6266
:107AD00042F008620A6025497C310A68C2F340021C
:107AE000002AFAD1214B0A2280331A600A6842F038
:107AF00001020A600A68C2F34002002AFAD1016852
:107B000021F400610160016821F480510160016885
:107B100041F400610160016841F48051016001207D
:107B200074F46DD0EFF31081012080F310880F48BA
:107B30003C30026822F48022026081F31088EFF367
:107B40001081012282F31088026822F480320260E0
:107B500081F31088EFF31081012282F3108802680C
:107B600022F40032026081F3108810BD04C500A029
:107B700011B583B00020029002210191BDF80C20C4
:107B80004CF2B104002A03D003AA2046FFF776FA8C
:107B900002AA01A920466FF4ADD578B14FF4802038
:107BA0000B490A680B4B1A4002430A6008680A49ED
:107BB000C0F388200880FDF7E3D81FBD9DF80800BA
:107BC0009DF8091040EA0120044901EA8020E7E716
:107BD00038C500A0FF03F8FFEC408000FFFF07005E
:107BE000002907D030B10260416000218160C1608E
:107BF00001207047002070478168C268002803D0C8
:107C00008A4203D8881A7047002070470068801A9B
:107C1000084470472DE9F04705468A464FF00008B2
:107C2000AF68EE68EFF31089012080F31088002D13
:107C30002ED0696861B3BAF1000F29D0B74204D3DE
:107C4000BC1BA2420DD814460BE02868831BDC192C
:107C5000A24200D814463219824202D3A219A2EBE2
:107C60000008A4EB080231445046FAF77CFA0AEB0C
:107C70000400A0EB080042466968FAF774FA30196C
:107C80002968814202D8B84200D9401AE86000E071
:107C9000002489F310882046BDE8F0872DE9F047DD
:107CA000044689460027A668E068EFF310880121A2
:107CB00081F31088002C2AD0636843B3B9F1000F18
:107CC00025D0B04205D9851B6D1EAA420CD8154699
:107CD0000AE021688D1B05446D1EAA4200D8154696
:107CE0007019884200D3471AEA1B98194946FAF7D7
:107CF0003AFA09EB0500C11B3A466068FAF733FA15
:107D000070192168814200D8401AA06000E0002567
:107D100088F310882846BDE8F08700002DE9F84F69
:107D20000026002733480068C0F3006000285ED0BA
:107D3000FEF74CFEB0F5967F59D32F4908682F4DBA
:107D400020B168682E4AC043904250D3EFF31080B0
:107D50000090012080F310884FF000094FF0000BD5
:107D6000086840B901262748D0F8009049F0807192
:107D70000160D5F800B000244EB1286820F0010061
:107D8000286000206860286840F001002860FEF745
:107D90001DFE8046D5F804A0FEF718FEA8EB0000F3
:107DA0006428F9D96868A0EB0A000744641CA4B2EF
:107DB000002CE1D026B1C5F800B01248C0F8009000
:107DC000009880F310883846FAF70AFA04460E48FD
:107DD0000D4664210068A0FB0101FAF74FFC224622
:107DE0002B46FAF7DCFBFAF788FC08490860BDE887
:107DF000F88F000058C500A0B4408000001000E0DB
:107E000000350C00FCED00E020408000284280009E
:107E10000249014808607047B56080000005800095
:107E20002DE9FC5F7A48076847F080710160DFF850
:107E3000E481D8F8000001904FF00009764C2068EA
:107E400020F0010020600020FEF7FAFDFEF7DAFDC9
:107E500010B10020FEF7E8FDFEF7D4FD0028FBD1AD
:107E6000FEF7C2FD206820F4805020606B4802219C
:107E70000160BFF34F8FBFF36F8F6948C0F8801266
:107E8000206840F001002060FEF7BCFD0028FBD018
:107E9000EFF310800090012080F3108800255E4EE3
:107EA00042F2107B2C365C46D8F8000020F001002E
:107EB000C8F800000020C8F80400DFF85CA1DAF878
:107EC000000020F00100CAF80000FEF79BFD10B191
:107ED0000020FEF7A9FDFEF795FD0028FBD1C82084
:107EE0004D4978310860DAF8000040F00400CAF823
:107EF0000000494A44320B1DEFF31080012181F349
:107F00001088116841F04041116080F310881868B2
:107F1000C828F1D1FEF768FDDAF8000040F480507F
:107F2000CAF80000DAF8000040F00100CAF80000CA
:107F3000D8F8000040F00100C8F80000FEF762FD2C
:107F40000028FBD0D8F804A007E0641E601C04D110
:107F50005C46FEF757FDD22804D23068C0F30020FB
:107F60000028F2D0D8F80440FEF73EFD35B1A4EB6E
:107F70000A0081444FF47A70401EFDD16D1C082D1B
:107F800091D3009880F310884846FAF729F9002227
:107F9000244BFAF704FB044623480D460068FAF721
:107FA0001FF922462B46FAF7FAFA00221F4BFAF77E
:107FB00084FA1F4A1F4BFAF7D9F9FAF79EFB1E49BC
:107FC0000860154C206820F0010020600020FEF7BA
:107FD00037FD206820F480502060206820F4005095
:107FE0002060FEF701FDEFF31080012181F310887E
:107FF0006FF40071316080F3108810480221016035
:108000000198C8F8000002480760BDE8FC9F000026
:10801000FCED00E0001000E018C500A084E100E0E5
:1080200004E000E000001C402040800000006940A7
:10803000D31742CEFBFFDF3F2C42800084E200E0FA
:108040000749064808600849064808600849074883
:108050000860094907480860FCF71EBE554D00013D
:108060008024800049608000682480007560800062
:10807000802380005F6080009C2380007FB500200B
:1080800000900190029003900024104D104E05EBDB
:108090000410D0E905230169C0698DE80E00039042
:1080A0000398B04205D1DDE901020099FAF75BF8C7
:1080B00008E0074903981C31884203D1DDE901013A
:1080C000FAF76AF8641C032CE1D37FBD80E907004E
:1080D000042D0600704710B503689C6824F0010465
:1080E0009C6003681C6824F4407414431C60B2F55F
:1080F000007F02D0B2F5407F21D14268B2F5E02F77
:1081000007D80268491E53686FF30F030B4353608F
:1081100015E04FF0FF33B2F5702F08D8026803EB7B
:10812000510153686FF30F030B43536007E002687C
:1081300003EB910153686FF30F030B435360006827
:10814000816841F00101816010BD00000FB401465B
:108150007CB542480269C068CDE9000200249DF860
:108160002500022601282FD19DF824009DF81C50DF
:10817000C1B18DF8050001208DF804000898009029
:1081800007208DF8060069462846FBF71BFD0446CC
:10819000012228460899FBF78FFDACB120467CBC34
:1081A0005DF814FB8DF805008DF8046008980090C8
:1081B0009DF81D008DF8060069462846FBF702FD74
:1081C00004460CB12046EAE79DF83100012814D19D
:1081D0009DF830008DF805008DF804600B98009034
:1081E0009DF829008DF806009DF828006946FBF7E8
:1081F000E9FC04460CB12046D1E79DF83D0001287A
:1082000012D19DF83C008DF805000E9800909DF865
:1082100035008DF806009DF834006946FBF7D2FC66
:1082200004460CB12046BAE79DF84900012812D156
:108230009DF848008DF80500119800909DF84100C8
:108240008DF806009DF840006946FBF7BBFC04462C
:108250000CB12046A3E72046A1E70000CC91000125
:108260002DE9F0410024124FC4EB041000EB400054
:1082700007EB800595F8B000012812D1281D17F4EE
:108280007CD6012803D010B10020BDE8F081EFF3C7
:108290001086012080F31088281D18F429D386F356
:1082A0001088641CE4B2022CDED30120EDE700004C
:1082B00078678000704700002DE9F05F0746894627
:1082C00092461E464FF0E02BDBF81480DBF8185086
:1082D000FAF766FC16484FF47A710068B0FBF1F0CB
:1082E00070433A6819E0711C17D0DBF81840A542BA
:1082F00001DB291B02E0A8EB04012944401A2546B2
:108300000EB1002809DC042087F84900F86C40F021
:108310000100F8640120BDE8F09F916A11EA090F9D
:1083200001D0012100E000215145DCD10020F2E71D
:108330002040800070B50446002C05D000F086F87F
:108340000646300002D048E0022070BD244D688C03
:108350002080A88C6080E88CA0802878132824D8FE
:10836000A88CF9F73DFF1F4A1F4BFAF718F9FAF7E7
:10837000C4F9E080E88C2081A88CF9F731FF1B4A12
:108380001B4BFAF70CF9FAF7B8F96081E88CA08179
:10839000A88CF9F725FF174A174BFAF700F9FAF7F7
:1083A000ACF9E081E88C208213E0A889E08068893C
:1083B000208128896081E888A0812889F9F710FF49
:1083C0000E4A0F4BFAF7EBF8FAF797F9E081E888D5
:1083D0002082288A6082E889A082304670BD000031
:1083E0001232800098A432C51CC4F73F50340F608D
:1083F000919FFD3F7F86376BF09E03406E69352469
:10840000EE31F53F10B50446002C09D000F01EF8FF
:10841000002804D10349897801F01F01217010BDA3
:10842000022010BD1232800010B50446002C08D086
:1084300000F00CF8002803D103490968890F217066
:1084400010BD022010BD0000842380002DE9FF41F3
:108450000024002500950195029503952F4F44F2C5
:108460004478B88B00284FD100950195029503956B
:108470002B480090012001906846FDF717FD6846E3
:10848000FDF75AFD0F233A464421684610F4B8D44C
:108490000123244A5321684610F4B2D46846FDF7FC
:1084A00005FD38784FF6FF72E0B1B88B40452AD110
:1084B000BE1C002036F8101021448CB2401C80B243
:1084C0000928F7D315492031002031F81030234412
:1084D0009CB2401C80B20628F7D3F88BA04213D080
:1084E000BA8311E097F8280040B997F8290028B915
:1084F00097F82A0010B997F82B0010B1A7F81C8044
:1085000002E0BA8300E0BA83B88B404503D1002073
:1085100004B0BDE8F081BD831020F9E7123280007D
:10852000006401A08423800030B587B00546002D8B
:108530000CD000242C80FFF789FF002804D11548B7
:108540000078902804D0012007B030BD0220FBE75E
:108550000394049405940694019402940E480390A5
:108560000120049003A86DF4F1D303A86DF4FAD3AD
:10857000022301AA562103A810F442D403A86DF4E3
:10858000E5D39DF80A009DF80B1040EA01202880F1
:108590002046D9E712328000006401A008B500200F
:1085A00000906846FFF72EFF0B48417801F001026A
:1085B0000078912801D2012100E000219DF80000FF
:1085C000042805D0082803D0114203D0072801D081
:1085D000012008BD002008BD1232800008B500202F
:1085E00000906846FFF70EFF0548407800F0010153
:1085F000C0F3C00001B108B1002008BD012008BDD2
:108600001232800010B50446002C04D0FFF71EFF84
:10861000014611B134E0022010BD1A4A5078C0F36F
:10862000400020705078C00702D0907C607002E05B
:1086300092F82800607092F82900030606D500F031
:108640001F03C0F34110181AA07005E000F01F03CB
:10865000C0F341101844A07092F82A00030606D512
:1086600000F01F03C0F34110181AE07005E000F09D
:108670001F03C0F341101844E07092F82B002071E2
:10868000084610BD123280000A480021016040F601
:10869000EB52026240F6AB42426207228262064A15
:1086A000C262016305490A6842F4F0620A6002216D
:1086B0000164704780E200A004FF010700D000A021
:1086C00000F06CBB70B54FF04050416A41F01001B2
:1086D00041623148016801F07F4101602E4900206C
:1086E000143908602C4D2D1F286820F4FE0040F43A
:1086F0007C102860284C4C3C2068284E284930408B
:1087000008432060642073F47AD220682549304001
:1087100008432060642073F472D2206822493040FC
:10872000084320601C483838016841F040710160FE
:10873000642073F464D220681C49304008432060F0
:10874000206840F0F0002060286840F470602860E5
:1087500011493439086820F470421548437A42EAD6
:1087600003320A60211D0A6842F480420A60017ADD
:10877000C279090641EA02418279407941EA02213F
:10878000014305481038016003485438016841F43A
:108790000011016070BD000058C500A0FF0000FF7F
:1087A00000F70B0000EF0B0000FA0B0000FA0300CB
:1087B000DC40800010B5FDF723FC58B1FEF74CFDFE
:1087C0000020FEF759FDFEF75DFD034800680349F0
:1087D000486010BDFEE7000000200001204080003E
:1087E00010B5002000F002F810BD00002DE9FC419A
:1087F00015240E2607253148016821F4706141F4E3
:10880000407101600020009001906846FFF7FAFE79
:108810002B4FA8B9FFF7E2FE18B1FDF759FE054648
:1088200004E097F8280000F07F0508359DF8040063
:1088300030B19DF8021019B100F01F0401F01F06BD
:108840007878C0F3C00040B11E48016841F480014F
:10885000016097F8280000F07F051A484838016841
:1088600021F0FE4141EA0561016016483438016893
:1088700021F080610160361D1F2E00D31F26062CBB
:1088800001D9A41F00E000240F48C4720D484438E9
:10889000016821F4780141EAC44101600948303897
:1088A000016821F41F0141EA064101600548403892
:1088B000016841F400310160BDE8FC8120E200A0C4
:1088C0001232800054C500A0DC40800027490868AF
:1088D0004FF6FF021040264A40F4407010430860F3
:1088E00000208022002341B2002904DB01F1E021B5
:1088F00081F8002405E001F00F0101F1E02181F889
:10890000142D401C2228EED3184813300370202069
:10891000184981F800041849087060201549491C5D
:1089200081F80004A02014490D39087011490B3159
:1089300081F80004C0201049113908700D49C91D83
:1089400081F800040C490F3908700A49183181F880
:108950000004FF2005491631087006490D3181F8E1
:10896000140D054918390870704700000CED00E03F
:108970000000FA0502E000E019E400E00120704781
:108980007047000010B54FF496710448F9F704FCE5
:10899000024900200C3981F8380110BDE432800012
:1089A00010B50B4B93F838211E2A10D202EB82022D
:1089B00003EB42020468D4604068106105480088F7
:1089C000081A908293F83801401C83F8380110BDD2
:1089D000D8328000CC2380002DE9F047CAB04A4D40
:1089E000A5F10C0797F83861002488E004EB8401B6
:1089F00035F8111081427DD1701E81464FF6FF7807
:108A0000844216DA301B401E00EB800008EA400A60
:108A1000601C00EB800005EB4001524601A8F9F70D
:108A2000A2FB04EB840005EB4000524601A9F9F7D4
:108A30009AFB09EB890005EB4000002101604160D1
:108A4000018197F83801401E87F838011E2E4FD15A
:108A5000D5F818014790D5F81C014890B5F82001C9
:108A6000ADF824014899479846914590BDF8160104
:108A70006CF4A2D6254EBDF8162131680844BDF825
:108A80002411114444180834DFF8849099F8000048
:108A900010B100206DF404D2DFF878A0082245A9B7
:108AA0002046FDF7DFFABDF8140140451CD070B137
:108AB00005F5917545982860469868603088201AB9
:108AC000288197F83801401C87F838010CE0BDF880
:108AD00016016CF471D6BDF8161108302144441803
:108AE000DAF800008442D9D399F800006DF4D8D1A7
:108AF0004AB000E001E0BDE8F087641CE4B2B44293
:108B0000FFF474AFF4E70000E4328000CC2380006F
:108B1000C9238000D02380002DE9F04116461E4C69
:108B2000A4F10C0292F838510022002D02D000234B
:108B30001A4F19E00A8032600120BDE8F08103EB92
:108B4000830C34F81CC084450CD103EB830004EB88
:108B5000400042880A800189386808300844306043
:108B60000120EAE75B1CDBB2AB42E8D31E2D03D247
:108B70000A8032600120E0E704F5917460886CF4AB
:108B80001BD639686288084421891144084408309A
:108B900030600020D1E70000E4328000CC23800068
:108BA00070B504460D4620462946F9F787FD0B4966
:108BB000086320462946FAF731FE20462946FDF78C
:108BC000A7FD20462946FEF715FF20462946FCF75B
:108BD00077FC20462946FCF757F970BDDC40800041
:108BE00010B50C4A5278C2F38002002A02D0FCF77A
:108BF000E5FE01E0FCF766FF07490A6822F46052CF
:108C000042EAC0200860081D016841F4003101609B
:108C100010BD00001232800010C500A00FB41CB5BA
:108C200004462648006901909DF81C008DF8050057
:108C300002208DF80400069800909DF815008DF82C
:108C400006009DF814006946FAF7BCFF002832D1EF
:108C50009DF828008DF80500099800909DF82100E6
:108C60008DF806009DF820006946FAF7ABFF002852
:108C700021D1222C1FD19DF834008DF805000C98CD
:108C800000909DF82D008DF806009DF82C00694697
:108C9000FAF798FF00280ED19DF840008DF80500E6
:108CA0000F9800909DF839008DF806009DF8380067
:108CB0006946FAF787FF1CBC5DF814FBF8910001C8
:108CC0002DE9F0410024114F4D2104FB01F007EB89
:108CD000800595F89C00012812D1281DFDF73FFB67
:108CE00020B1102802D00020BDE8F081EFF31086FB
:108CF000012080F31088281D18F442D686F31088CE
:108D0000641CE4B2022CDFD30120EDE7E0688000B0
:108D1000704700007CB504460D460020009001908D
:108D20006846FFF76FFC00280DD107484078C0F374
:108D3000C000002807D1FFF751FC002803D02046CF
:108D40002946FDF7EFFB7CBD1232800002488068A7
:108D5000002800D0004770473042800070B50446BC
:108D60000D4620462946F9F7A9FC054948632046E7
:108D70002946FFF7CFFF20462946FFF731FF70BD98
:108D8000DC408000017882781144C9B200798842C1
:108D900001D1012070470020704700004FF48A2065
:108DA0004068A0F53061883904D10349086820F48F
:108DB0000070086070470000241F8000014948606F
:108DC00070470000BC4080002DE9F04385B00446A8
:108DD000DDE90C590F4690461E46CDF810804E48EE
:108DE000006800EB043003904FF48051FDF7FAF86F
:108DF00008B19CB11DE049488169407A40F2CF3208
:108E0000CDE900200291464B46A24FF400410020DC
:108E100003F4C4D7092005B0BDE8F0834D49002014
:108E200008600123082204A903A800F095F800288F
:108E3000F1D13EB10123324604A903A800F08CF819
:108E40000028E8D13DB100232A4604A903A800F078
:108E500083F80028DFD1002F5CD000247F1E1CE0A7
:108E6000049D68886CF4A8D46988461801230822F8
:108E700004A903A800F070F80028CCD100233246E2
:108E800004A903A800F068F80028C4D10398811B46
:108E900008392846FFF784FD641CBC42E0D3B9F1D1
:108EA000000F12D00498A8EB000404F580540123AD
:108EB000224604A903A800F04FF80028ABD103987C
:108EC000011B4846FFF76CFD24E0049D68886CF4A4
:108ED00073D4698846180123082204A903A800F066
:108EE0003BF8002897D10498A8EB000404F58054BF
:108EF000B44200D334463CB10023224604A903A85F
:108F000000F02AF8002886D10398011B083928466A
:108F1000FFF746FD00207EE7CC238000641F800021
:108F2000E0940001523A353A25732C204C256420F8
:108F3000666C6173682073746174652030782530C5
:108F400032582C206572726F722030782530385874
:108F50000D0A0000D832800070B505460E46144652
:108F600028683168002B03D02246FCF7EBFA02E0B8
:108F70002246FDF787F8A04201D0082070BD28687E
:108F80002044286030682044306003480168214450
:108F90000160002070BD0000D83280002DE9F74F3D
:108FA00086B004460D4628466CF406D4C6B2ADF829
:108FB0001040ADF8125004A8FCF74CFC04A8089926
:108FC000FCF74FFC4FF00008ADF816800324DFF8E3
:108FD000FC903F4F0822D9F800103868084404A9D3
:108FE000FCF7B0FA082803D0641E14F0FF04F1D196
:108FF000384C4FF4004A082826D0A169607A4FF413
:109000005E72CDE900200291334B34A2514600201C
:1090100003F4C4D6ADF81080ADF812808DF814803A
:109020008DF815803868D9F800100822084404A982
:10903000FCF788FA38680830386078680838786053
:10904000092009B0BDE8F08F05F108001FFA80FB88
:10905000D9F8000039680830354408442A46089990
:10906000FDF710F8A84208D13868D9F8001001447B
:1090700004A8FFF795FC002017E0A069617A40F290
:109080009632CDE900210290134B14A251460020E4
:1090900003F484D6ADF810803868D9F8001008229F
:1090A000084404A9FCF74EFA09203A680BEB0601C4
:1090B0000A443A607A680832511A082902D90839F4
:1090C0007960BEE73972C7F80480BAE7CC23800024
:1090D000D8328000641F8000D5940001523A353A9E
:1090E00025732C204C256420666C61736820737492
:1090F000617465203078253032582C206572726F8B
:1091000072203078253038580D0A00000090D003C6
:10911000006CDC020024F40000366E010024F40030
:109120000048E80100000000010000000400000009
:10913000030000000400000002000000C955000107
:109140000556000199438000010000000200000064
:10915000000000000100000000010000000000000D
:1091600000000000010000000200000000000000FC
:1091700001000000020000001000000020000000BC
:10918000300000004000000000000000000000006F
:10919000010000000200000010000000200000009C
:1091A000300000004000000000000000010000004E
:1091B00002000000010000000000000000000000AC
:1091C0000000000000000000000000000504000096
:1091D00000C100A000C000A0FFFFFFFF00020700C9
:1091E00061820001B5820001954480007D89000103
:1091F00081890001014580000C0D000000C600A01F
:1092000000C700A0FFFFFFFF00020700C18C0001A4
:10921000118D0001154580000100000000070000CD
:10922000000002000001000000000000000000013A
:10923000000100000000000000000002000100002A
:109240000000000000000100000100000200010019
:109250000000070000000000000000000000000007
:109260000000000001000000313233343536373859
:1092700039303132333435363738393031323334AE
:109280003536373839303132000000000000000038
:1092900000000000000000000000000000000000CE
:1092A00000000000000000000000000000000000BE
:1092B00000000000000000000000000000000000AE
:1092C000000000000000000000000000000000009E
:1092D000000000000000000000000000000000008E
:1092E000000000000000000000000000000000007E
:1092F000000000000000000000000000000000006E
:10930000000000000000000000000000000000005D
:10931000000000000000000000000000000000004D
:10932000000000000000000000000000000000003D
:10933000000000000000000000000000000000002D
:10934000000000000000000000000000000000001D
:10935000000000000000000000000000000000000D
:1093600000000000000000000000000000000000FD
:1093700000000000000000000000000000000000ED
:1093800000000000000000000000000000000000DD
:1093900000000000000000000000000000000000CD
:1093A00000000000000000000000000000000000BD
:1093B00000000000000000000000000000000000AD
:1093C000000000000000000000000000000000009D
:1093D000000000000000000000000000000000008D
:1093E000000000000000000000000000000000007D
:1093F000000000000000000000000000000000006D
:10940000000000000000000000000000000000005C
:10941000000000000000000000000000000000004C
:10942000000000000000000000000000000000003C
:10943000000000000000000000000000000000002C
:10944000000000000000000000000000000000001C
:10945000000000000000000000000000000000000C
:10946000000000000000000000000000A1B90200A0
:10947000A5630001030000006D9701006F55800097
:1094800004000000F99001008357800006000000EE
:109490007D5A0600E94B000107000000C1060300E9
:1094A000D56500016E7664735F696E6974006E76CF
:1094B00064735F64656C00696E69745F756E757363
:1094C00065645F6E766473007265706C6163655F7E
:1094D0006974656D0077726974655F6974656D00A4
:1094E00077726974655F636F6D7061637465645FE3
:1094F0006974656D7300636F6D706163745F6E7620
:109500006473000001060800813000004150505F84
:10951000443A20004150505F453A20004150505F8E
:10952000493A20004150505F573A20007C95000195
:10953000CC35003038050000A42C0001B49A00019D
:109540000040003020000000A42C0001D49A00014B
:109550002040800030030000982900012C9C00016D
:1095600050438000AC1E0000A42C0001D8BA0001BA
:10957000006280003C110000B22C000110B5EFF336
:109580001081012080F31088FE480268C2F3C032C7
:10959000002A17D0FB4A34321268C2F38A22F94BF0
:1095A00030331B68F84C24682244521C9A4209D27A
:1095B000F44A3C3A1368C3F380531BB9136843F46D
:1095C0008003136081F310880168C1F3C031002962
:1095D000FAD1EE48006810F0007F01D0012000E0D1
:1095E000002008B100F0F2F9012010BDE549E84A79
:1095F0001431904204D9086820F480100860704744
:10960000086840F48010086070472DE9FF474FF06C
:10961000020900200390DF4806684768D0F808A0D8
:109620004FF0FF34029401940094DFF86C83DB4D1B
:10963000D8F80400000126D501A9002000F0CBF9DC
:109640006946A00700F0C7F9DDE90010884202D89A
:10965000081A019001E0C043019003A9019800F0AD
:10966000BFF90190A04200D20446504507D22968B4
:1096700009B104208847012004B0BDE8F0872968BB
:1096800009B105208847D8F80400C0011BD5C4489B
:109690000078C0B902A94FF0004000F09CF903A97E
:1096A000029800F09DF90290A04200D20446B04218
:1096B00005D2296809B1042088470120DCE7296820
:1096C00009B105208847D8F8040040010ED500F004
:1096D0008CF94100A14200D321460C46B84205D284
:1096E000296809B1062088470120C5E74FF0E0212D
:1096F000D1F8000210F0806F01D0012000E00020BE
:1097000090B9A248001D006810F0020F01D001209E
:1097100000E0002040B9D1F8000210F0007F01D035
:10972000012000E0002008B10120A5E72046FFF756
:109730005DFF4846A0E770B59A4800688047022858
:109740001CD1012000F056F900F059F99648006844
:1097500080479648406800B18047FFF756FF944C19
:1097600002280CD02068804700F04EF900F051F933
:1097700000F054F9002000F03DF9012070BD4FF4D5
:109780008A25686841F6A866B04202D0894800F090
:109790004AF900F04DF96868B04202D0854800F0FF
:1097A0004CF92068804700F02FF900F032F900F002
:1097B00035F9002000F01EF94FF0E025D5F8000241
:1097C0004FF0006610F0006F01D0012000E0002093
:1097D00020B36C483C380068C0F3001010B1202062
:1097E00000F030F9674C241D216840F25F10014001
:1097F00048070DD5206863491831096801EA10400F
:109800006D490870FF2000F01DF96FF00400206022
:109810002068C0F3001008B1C5F80061002070BDD9
:10982000054600F014F96048006880475548203824
:10983000016841F080010160016821F47841016014
:10984000504C3C3C206820F0745020600DB32068E0
:1098500040F08070206000F0FFF80128FBD013205A
:1098600000F0FFF84FF47A70684300F0FFF84549C4
:109870005031086000F0F0F80128FBD0022000F021
:10988000F0F800F0E9F80128FBD0102000F0E9F82A
:1098900006E000F0E1F80128FBD0132000F0E1F829
:1098A00038481C38016821F400010160206820F468
:1098B000DE5040F4DE51216040F440702060314DB4
:1098C0001435286820F4800028602E4800242430B5
:1098D00004602C493948283108602A48383004602F
:1098E000344800F0A0F8286820F0807028602868CC
:1098F00040F000702860234D2D1D2C6000F0ACF866
:109900000128FBD0032000F0ACF800F0A5F80128F6
:10991000FBD0F2E770B500F0AEF8244901200870E2
:1099200000F0AEF800F093F8054600F0AEF8244CD5
:1099300002280AD000F0A9F8012801D12068804748
:109940002846BDE8704000F0A5B800F0A8F858B16E
:109950001C490398086000F0A7F801280BD028469E
:10996000BDE8704000F096B8206880472846BDE802
:10997000704000F08FB8206880472846BDE87040EE
:1099800022E0000040C500A000E200A000E200E0EC
:1099900000093D00B0268000BC268000842680009F
:1099A000742680008024800004418000684280008A
:1099B00008418000641F8000B8408000AAAA2A22C3
:1099C000A8268000AC26800000F064B843F2D17C69
:1099D000C0F2060C604744F2F95CC0F2800C6047AC
:1099E0004BF6496CC0F2070C604746F2C50CC0F25A
:1099F000800C604748F6D55CC0F2070C604745F61E
:109A0000F16CC0F2800C604744F69B6CC0F2800C95
:109A1000604744F6815CC0F2800C604745F6177CD5
:109A2000C0F2800C604745F6931CC0F2800C604782
:109A30004DF6057CC0F2010C604745F6F51CC0F2FE
:109A4000800C604746F22F1CC0F2800C604748F63D
:109A5000414CC0F2070C604746F2491CC0F2800C32
:109A6000604746F21D1CC0F2800C60474CF2590C56
:109A7000C0F2070C604742F6C95CC0F2060C6047B2
:109A800045F2B14CC0F2800C604748F6594CC0F228
:109A9000070C604748F6ED7CC0F2070C604748F6BB
:109AA000251CC0F2070C604749F6357CC0F2070C54
:109AB00060470000000000000000000000000000FF
:109AC0000000000000000000000000000000000096
:109AD00000000000114490D0031393611B01910416
:109AE00013F96014013D5C1B01EB0C1AE9041ABD6B
:109AF000041A9504138562140119631B011F041ACB
:109B000097041A95041A9F041A99041A59041A25DD
:109B1000041A2D041A2704214BFFFF0449061314CD
:109B2000951B0124041A1C041A0C044113893814CF
:109B300001E5394C01413A100221D9320432105A60
:109B40000C08120815101F01012008030F0303055C
:109B500001152240130108321A2904297D3981B1E7
:109B600009121401142F6801A401200397125A232B
:109B7000401F4BA00F143CDE03021E095A14097249
:109B800078515A800411022D64F2961390E614B0B5
:109B900004C513A0041C01A010041A28041A3004E0
:109BA0001A20041B04101419041A28041A30042A59
:109BB000200C1A200C19041A20041340E21BA044A4
:109BC000041A48041A4C041A90041A94041A8004C3
:109BD0001AA0041AA4041AA8041AAC041AB0041196
:109BE00012D01BA010081A08041A18041A50781A68
:109BF0003C041A40041AC0101A20041A24042AC46F
:109C00002012ED1BE01C041A20041112E41BE004D6
:109C1000041A08041A0C041A10041A14041A18045A
:109C20001A1C042A20182928011300001EF0040F12
:109C300014BFEFF3098CEC460FB560465FF4A8F251
:109C40008446BDE80F40BCF1000F18BFE0477047E5
:109C5000FEE700007046694600F002F8FFF7FEFFDD
:109C6000FEE7FEE7FEE7FEE719F4A4B600F0F4B95C
:109C700015F44EB070B500210024164D04EB4400DD
:109C800005EB40100278012A03D1001D14F4E0F125
:109C90000121641CE4B2082CF0D3002907D0032072
:109CA00017F428F7BDE87040032017F441B770BDE2
:109CB00070B50024074D04EB440005EB401001781B
:109CC000012902D1001D14F481F0641CE4B2082CB7
:109CD000F1D370BD0062800070B500220024002026
:109CE000134B1D780DE003EB00110E7946B989681E
:109CF0000E04360C01D0012202E0090C00D0012430
:109D0000401C8542EFDC12B1062017F411F7002C3D
:109D100004D0BDE87040072017F40AB770BD0548AD
:109D200015F424B3044815F421B301F0639C00003A
:109D300000658000000001A0001001A070B503259F
:109D40000A4E002456F8240038B1806828B1311931
:109D500091F84010A94200D18047641CE4B2102C55
:109D6000F0D36D1EEDB2002DEBD170BD24678000E5
:109D70002DE9F0410024174FC4EB041000EB400024
:109D800007EB800595F8B000012814D1EFF3108699
:109D900080F31088281D1CF4BBF186F3108895F819
:109DA000780008B1022806D10B4D285717F4A2F607
:109DB000285717F4BDF6641CE4B2022CDCD3BDE8CE
:109DC000F0810448001D1BF429B60248B8301BF48A
:109DD00025B6000078678000CC9100010348007828
:109DE000472801D101F0309E704700007C40800080
:109DF0002DE9F0410024154F4D20604307EB80050D
:109E000095F89C00012814D1EFF3108680F3108898
:109E1000281D1DF4F1F186F3108895F8640008B14F
:109E2000022806D10A4D285717F464F6285717F46C
:109E30007FF6641CE4B2022CDED3BDE8F081034857
:109E4000001D1DF477B003481DF474B0E068800075
:109E5000F8910001186A800010B50446204600F011
:109E60005DF8EFF31081012080F31088324A10680A
:109E7000A043106081F3108810BD70B504460D46F4
:109E8000204600F04BF8E9054FEA042001D50146D1
:109E900000E000210B46E90301D5210400E0002188
:109EA000EFF31082012585F3108840EA044622482A
:109EB00005680B43B5431D43056082F31088EFF33B
:109EC0001081012282F3108802682243026081F32C
:109ED000108870BD70B500220123002911D0EFF366
:109EE0001084012585F31088134D2D1D2E6826F052
:109EF000404606432E6084F3108810480E4C3C34D4
:109F000005E0012070BD38B1401E226823689A42E6
:109F1000F9D10A60002070BD032070BDEFF31081FD
:109F2000012282F31088044A6FEA0040143A10605C
:109F300081F310887047000058C500A018FC7F3ED0
:109F400010B50268136843F00103136000BF00BF3F
:109F500000BF00BF00BF00BF00BF00BF00BFD2F8FE
:109F60000C3C23F00103C2F80C3CD2F8103C03F087
:109F70000103002BF9D1012906D00021C2F8701489
:109F80008068012804D05AE00121C2F87014F7E774
:109F9000FB490868C0F34053086820F400100860CB
:109FA000106800F4F064106820F4F060106010682D
:109FB00040F008001060106840F00200106000BF20
:109FC00000BF00BF00BF00BF00BF00BF00BF00BF99
:109FD00000BF00BF00BF00BF00BF00BF00BF00BF89
:109FE00000BF00BF00BF00BF00BF00BF00BF00BF79
:109FF00000BF00BF00BF106900F001000028FAD1C7
:10A00000106820F008001060106820F00200106056
:10A01000106820F00100106000BF00BF00BF00BF4B
:10A0200000BF00BF00BF00BF00BF106820F4F06099
:10A03000204310601BB1086840F400100860D2F89B
:10A040000C0C40F00100C2F80C0CD2F8100C00F01F
:10A0500001000028F9D010BDF0B589B004460025F4
:10A06000002C0BD094F8300001280AD0012784F886
:10A07000307094F83100002628B10EE0012009B0BC
:10A08000F0BD0220FBE784F8306020461DF4B2F3F7
:10A090004FF47A7120461DF405F42068D0F8100CB6
:10A0A00000F0010030B9002201212046A36B58F4D2
:10A0B00015F00546D5B960680190A0680290E06887
:10A0C000039020690890207DC0F340000690207D19
:10A0D00000F001000790102004900420059001A9D1
:10A0E000206801F01BFA012804D0012584F83060B3
:10A0F0002846C4E76068012806D12068D0F83C14DF
:10A1000041F00101C0F83C14666384F83170EDE75A
:10A110002DE9F74F044600680D4600F2044800F5AB
:10A12000806700F21446D0F870B4301F016821F047
:10A130000801016020680121C0F87014A06A4FF086
:10A14000FF3A102847D9A06A702100F0030920685F
:10A1500000F0EDF8A06A800821E0E06A102801D93B
:10A16000102200E0E26A5146104600E03960401ECD
:10A17000FCD211460FE030688006FCD4D8F800000D
:10A18000030E05F8013B030C05F8013B030A05F833
:10A19000023B05F8010C491EEDD2E06A801AE0622C
:10A1A000E06A0028D9D1B9F1000F0FD0C7F800A09C
:10A1B00030688006FCD4D8F80010002004E00A0EB5
:10A1C0002A540902401CC0B24845F8D31021206827
:10A1D00000F0ADF812E0E06A514600E03960401E40
:10A1E000FCD2E06A06E031688906FCD498F80010D9
:10A1F00005F8011B401EF6D20020E0622168C1F87C
:10A2000070B4029B03B02046BDE8F04F002201214C
:10A2100057F464B72DE9F04704460D469046994639
:10A2200094F8300001280CD0012684F8306094F8AE
:10A2300031000027012806D0022084F83070BDE8E4
:10A24000F0870220FBE76763022084F831004B4669
:10A2500000220121204657F441F7F8B9222084F862
:10A260003100C4F82480E869A062E869E0622068EF
:10A27000D0F8181441F00101C0F8181429462046FE
:10A2800057F477F64A4641462046FFF741FF2168DA
:10A29000D1F8182422F00102C1F8182484F83160A2
:10A2A000CBE72DE9F04704460D469046994694F8D1
:10A2B000300001280BD0012684F8306094F831007A
:10A2C0000027012805D0022084F83070B7E702206B
:10A2D000B5E76763022084F831004B460022012174
:10A2E000204657F4FBF6F8B9222084F83100C4F870
:10A2F0002480E869A062E869E0622068D0F8181458
:10A3000041F00101C0F818142946204657F431F6EF
:10A310004A464146204600F012F82168D1F8182438
:10A3200022F00102C1F8182484F83160CCE7D0F89B
:10A33000102422F070020A43C0F8102470472DE95F
:10A34000F04704460068924600F2044800F5806732
:10A3500000F21446D0F870940D46301F016821F0C9
:10A360000801016021680120C1F870047021206893
:10A37000FFF7DDFFA06A8008E0624FF0FF3319E0CD
:10A3800004C500A0E06A102801D9102200E0E26AAA
:10A39000104600E03B60401EFCD2114605E03068EC
:10A3A0008006FCD4D8F8000001C5491EF7D2E06A47
:10A3B000801AE062E06A0028E4D110212068FFF7EB
:10A3C000B6FF2168C1F8709453462046BDE8F047B7
:10A3D0000022012157F482B62DE9FC5F04460025D6
:10A3E0000026002C0AD0207A01280AD04FF001085C
:10A3F00084F80880607A002728B10BE00120BDE8CE
:10A40000FC9F0220FBE7E760276127725C4920463A
:10A4100014F47AF520680168D1F8101C01F00101EC
:10A4200011B12169F1B36CE0DFF858A1DAF800004E
:10A4300040F02000CAF800002068C0F804802068BE
:10A44000FFF714FCC5B2002D5CD1DFF83CB1DFF89A
:10A450003C91204609F408F64D4840684DA106C9D4
:10A46000CDE90012DAF8001001F007021DF80250E1
:10A470004543B0B1DBF8000040F08071CBF800102C
:10A48000D9F8001041F00102C9F80020D9F80420E1
:10A49000D9F804309B1AAB42FAD3C9F80010CBF8B4
:10A4A000000000E013E0204600F099FEC5B2761CE3
:10A4B000B6B215B1B6F5FA7FCBD3606828B920687B
:10A4C00047602068FFF7D2FBC5B2A7611AE0E168D8
:10A4D000B9B9EFF31086012181F31088C0F8048028
:10A4E0002068FFF7C3FB204609F4F6F3C5B20DB1AF
:10A4F0000320A061206847602068FFF7B7FB86F360
:10A500001088676084F809802772284677E72DE96C
:10A51000F0411C4874300068850AAD021F4C204889
:10A5200000682049884202D11F482AF4EFF5184EEE
:10A5300001203070C70575B177F486F158B1D4E9C0
:10A540000201884212D1A0F18070B8420ED21748A1
:10A55000FFF742FF0AE0D4E90201884206D1A0F1E8
:10A560008070B84202D21148FFF736FF00203070E9
:10A5700001F0F9F9E068BDE8F0412AF4C7B5000040
:10A58000801A060004C500A0FCED00E0001000E009
:10A59000BC4080004030101810200000101F8000C8
:10A5A00080218000444F4F47002C0600641F80002C
:10A5B0002DE9F04705460E46EE4F3868C0F3882473
:10A5C000DFF8B483DFF8B49310E0281BB04201DA5F
:10A5D0002C4601E0A01984B2386800EA080040EA7D
:10A5E0008420386099F8020076F477F7AC42ECD317
:10A5F00010E0601BB04201DA2C4601E0A01B84B2DF
:10A60000386800EA080040EA8420386099F80200BF
:10A6100076F463F7AC42ECD8BDE8F08770B5D74D5F
:10A62000698AE889FFF7C4FFD24E361F306800F010
:10A630001F040FE0E978021B8A4201DA044601E0B8
:10A640006018C4B2306820F01F0020433060A87842
:10A6500076F443F768788442ECD370BD70B5C74D8B
:10A66000698A288AFFF7A4FFC24E361F306800F0BF
:10A670001F040FE0E978221A8A4201DA044601E059
:10A68000601AC4B2306820F01F0020433060A87800
:10A6900076F423F728788442ECD870BD0020B849BE
:10A6A0008A8BA2F58E43443B02D1887800F01F00CC
:10A6B000082803D0092801D00020704701207047E6
:10A6C00070B5FFF7EBFF002854D0AD49888BA0F59B
:10A6D0008E42443A4ED191F82900020605D5C0F3C6
:10A6E0004112801A00F01F0304E0C0F3411210442D
:10A6F00000F01F0391F82B0000F01F029D4D143D48
:10A7000028689E4CC0F30440A0649A4E283E3068EE
:10A71000C0F3C440E064206BFF2804D03C2805DD72
:10A720000C21082009E00A21062006E0202802DD8D
:10A730000B21072001E00A21062019441F2900D31C
:10A740001F21824201D9101A00E000202A6822F459
:10A75000F81242EA01412960316821F4780141EAA6
:10A76000C04030602868C0F3044020653068C0F302
:10A77000C440606570BD10B5FFF790FF002819D088
:10A780007F48808BA0F58E41443913D17948143825
:10A79000016821F4F812794948310B8842EA0342F2
:10A7A0000260744828380268898822F4780242EAF4
:10A7B000C141016010BD70472DE9F0414FF0E02428
:10A7C0004FF08060C4F800010227C4F80071D4F88B
:10A7D0000002BD0610F0006F01D0012000E0002053
:10A7E0004FF4802640B3634834380068C0F300104B
:10A7F00010B1202000F0B1F800F0A5F86149087010
:10A80000087801F01FDD18B1C4F80062C4F80061D7
:10A81000DFF8608108F10C08D8F80000C0F30010E0
:10A8200008B1C4F80051FF2000F097F86FF0040061
:10A83000C8F80000C4F880525348007808B1C4F842
:10A840000051C4F800614FF08050C4F800014F4837
:10A850000760BDE8F08110B501F021F94B484FF0D9
:10A860008071001FC0F8801149000160042101605F
:10A8700001F034D8FFF79FFF73F4BAF4BDE810403D
:10A880005DF4F8B62DE9F04101F009F93F4C4FF0C5
:10A890008070241FC4F8800140002060042002263C
:10A8A000206001F01BD82660FFF785FF73F4A0F449
:10A8B000D4F80001B506A4F5807410F0006F01D043
:10A8C000012000E000204FF4802740B329483438AD
:10A8D0000068C0F3001010B1202000F03EF800F036
:10A8E00032F828490870087801F0ACDC18B1C4F8D7
:10A8F0000072C4F80071DFF87C8008F10C08D8F809
:10A900000000C0F3001008B1C4F80051FF2000F0AF
:10A9100024F86FF00400C8F80000C4F880521A4808
:10A92000007808B1C4F8005104F5807427604FF036
:10A9300080502060801020601548C0F80061BDE89C
:10A94000F0415DF497B60B480C3000680949C0F33C
:10A9500007402031096808407047EFF31081012259
:10A9600082F31088034A6FEA00400C32106081F3D2
:10A970001088704738C500A0FF03F8FFDC40800056
:10A9800012328000B84080003D42800004E100E0C7
:10A9900004E000E008B50E480068009000988007C9
:10A9A00004D00098C00301D4012008BD002008BDD8
:10A9B0000849C0B20860081F016841F00101016048
:10A9C00070470448001F0068C0F340007047000053
:10A9D00038E200A084C500A0F0B589B006460C4658
:10A9E0000025009505200190029501200390049513
:10A9F000059506950795089025804FF47A773B4694
:10AA00006A4601A930681CF4CBF520889DF8001037
:10AA1000084320803520019000953B466A4601A9F5
:10AA200030681CF4BDF520889DF8001040EA012034
:10AA3000208009B00020F0BDFEB505460020019041
:10AA400000903A2002904FF47A763346012202A910
:10AA500028681CF4DFF70446E4BB69462846FFF784
:10AA6000BBFFBDF800004FF00407400620D40620CD
:10AA700002903346012202A928681CF4CBF7044651
:10AA8000FCB901208DF80400BDF8000040F0400042
:10AA90008DF805003346022201A928681CF4BAF794
:10AAA000044674B98749284609F4A2F2044644B919
:10AAB00002973346012202A928681CF4ABF704462A
:10AAC00044B102973346012202A928681CF4A2F778
:10AAD0002046FEBDFFE72046FBE738B505460C469D
:10AAE000284609F477F1002816D101208DF80000DE
:10AAF0008DF80140022040EA14208DF802004FF446
:10AB00007A730322694628681CF484F7002803D16D
:10AB10006C49284609F46CF238BD38B5044600206B
:10AB2000009031208DF80000022040EA11208DF8BD
:10AB30000100204609F44EF100280CD14FF47A733D
:10AB40000222694620681CF465F7002803D15D499C
:10AB5000204609F44DF238BD38B504460021009175
:10AB600069462046FFF738FFBDF8001041F4007138
:10AB70000091204609F486F238BDF8B50646002457
:10AB800000250095F068504988420DD1009569462E
:10AB90003046FFF721FFBDF80010880525D4304668
:10ABA000FFF79BFF044620E03046FFF7D5FF044641
:10ABB00020001AD169463046FFF70EFFBDF800109D
:10ABC000880512D43046FFF7A8FF044620000CD1B8
:10ABD000009569463046FFF7FFFEBDF80010880576
:10ABE00003D43046FFF779FF04462046F8BD10B580
:10ABF000C168C9B2C268C2F30742202A04D116292B
:10AC000002D9FFF719FF10BDFFF7B7FF10BD2DE9FF
:10AC1000F0410446EFF3118620680168D1F8101C5A
:10AC200001F0010101254FF00208002919D0274940
:10AC30000A7827490968C1F30221491C05FA01F184
:10AC40001144C9B281F31188EFF3108785F310889E
:10AC500045602068FFF70AF884F8098087F31088B8
:10AC60000BE0204609F400F2204609F435F010B15B
:10AC70000320A06101E084F809802046FFF7B7FFB8
:10AC80008046606830B1204609F464F06572404641
:10AC9000BDE8F081EFF31087012080F31088216870
:10ACA000002048602068FEF7E1FF657287F3108896
:10ACB000F0B280F31188EAE7064800F057BB054878
:10ACC00000F07DBB801A06001760850002E400E0FA
:10ACD0000CED00E0641F800008B5684603F012D850
:10ACE00028B99DF80000022803D0012803D00020D5
:10ACF00008BD022008BD012008BD70B504460D4600
:10AD0000FFF7EAFF02280AD0012807D1206820F4C3
:10AD10007F102060286820F47F10286070BD2848CC
:10AD200021680140216029680140296070BD1CB57F
:10AD300001900020009001A96846FFF7DEFF01980E
:10AD4000204900F0AA3008601E4818300168C1F39D
:10AD500040010029FAD11B4A0A211C321160016806
:10AD600041F0010101600168C1F340010029FAD1FD
:10AD70001CBD1CB500210191009001A96846FFF798
:10AD8000BCFF10490098091F08601CBD70B50D4834
:10AD900005680024FFF7A0FF022802D0012803D095
:10ADA00004E0074CE44301E04FF47F14254206D051
:10ADB0002846FFF7BCFF2846BDE87040D9E770BDC4
:10ADC000FF03C0FF68C500A0F848416821F00101F9
:10ADD0004160C16821F00071C160016821F001018A
:10ADE0000160C16821F08071C1607047F04800685F
:10ADF000002810D1ED48416841F001014160C1686F
:10AE000041F00071C160016841F001010160C16859
:10AE100041F08071C160704710B5002200280CD04D
:10AE2000037A012B0BD001230372447A0023012CF7
:10AE300007D002220372104610BD012010BD02206F
:10AE400010BD8361DB4C2160F4E72DE9F04FADF5D7
:10AE5000077D044690461D460027A1F18076EFF35A
:10AE600011800690EFF310800590B1F1807F0ED332
:10AE700020694A1900F18070824208D8B8F1000FA9
:10AE800005D025B1A07A012808D1880706D008206E
:10AE9000A06101200DF5077DBDE8F08F207A012823
:10AEA00009D001202072607A012806D002270020F4
:10AEB00020723846EEE70220ECE70020A06120680F
:10AEC0000068D0F8100C00F0010068B9204609F4C1
:10AED000CBF0204608F400F70746380002D00320E4
:10AEE000A061B2E00220607206EB050AAAE0F0B2AF
:10AEF000C0F580757019824501D2AAEB06050020C5
:10AF00000DF58E7904E018F8001009F80010401CC7
:10AF1000A842F8D347AF21680868D0F8100C00F0B9
:10AF20000100C0B1A3480068C8B1A34A1268C2F3C7
:10AF30000222521C9040C0B280F31188EFF3108BB4
:10AF4000012080F3108848602068FEF78FFE022001
:10AF500060728BF31088A07A012804D03AE00120B7
:10AF600080F31088EAE776F46FF498B305F0F00701
:10AF7000FFF72AFF0F2D06D925F00F0207AB47A9CF
:10AF8000304676F459F4280721D000200190029031
:10AF90000390049049460DF1040B05F00F0904E0FD
:10AFA0003A188A5C0BF80020401C8145F8D8F0194B
:10AFB00001AB102201A976F43FF4002007A904E0B8
:10AFC0003B181BF80020CA54401C8145F8D807AF35
:10AFD000FFF70CFF4FF47A7000902B463A4631464B
:10AFE000204608F467F707466068D8B9206801680A
:10AFF000D1F8101C01F00101A1B9EFF31089012172
:10B0000081F31088002141602068FEF72FFE0120A7
:10B01000607289F310886748006838B10698C0B23A
:10B0200080F3118867B10120A0610EE0059818B186
:10B03000012080F31088F5E7002080F31088F1E705
:10B040002E44A844B2453FF652AF606801287FF411
:10B050002EAF204608F47EF60120607227E72DE926
:10B06000F05F04460E469B460025A2F1807AEFF37E
:10B070001188EFF31089002E0CD1B2F1807F17D325
:10B08000206902EB0B0100F18070814210D8BBF106
:10B09000000F0DD0207A01280ED001272772607A88
:10B0A00001280BD00225002020722846BDE8F09F21
:10B0B0000820A0610120F9E70220F7E70020A06145
:10B0C00020680068D0F8100C00F0010068B9204634
:10B0D00008F4CAF7204608F4FFF50546280002D018
:10B0E0000320A06172E002206072012E05D04FEAB9
:10B0F0001A364FEA0636DA4466E0204608F478F657
:10B100000546280062D0A76160E021680868D0F891
:10B11000100C00F00100C0B126480068E8B1264AD2
:10B120001268C2F30222521C9040C0B280F3118810
:10B13000EFF31085012080F310884F602068FEF740
:10B1400095FD0220607285F310883146204608F490
:10B150007DF60546606820B11EE0012080F310886E
:10B16000E6E720680168D1F8101C01F0010199B9E7
:10B17000EFF3108B012181F31088002141602068DA
:10B18000FEF774FD67728BF310880A48006830B1CF
:10B1900008F0FF0080F31188A5B1A76116E0B9F1AE
:10B1A000000F0BD0012080F31088F5E7A0E200A08B
:10B1B00024428000404280000CED00E0002080F33B
:10B1C0001088E9E706F58056B2459ED860680128E8
:10B1D0007FF469AF204608F4BDF5677263E710B5E8
:10B1E0008AB004469F200290002003900121049120
:10B1F0000590069007900890032009904FF47A7309
:10B2000001AA02A920681CF4CBF1002811D1E06842
:10B2100008B9206978B19DF805009DF80410000276
:10B2200000EB01409DF806100844E16881421CD102
:10B2300000200AB010BD9DF80400A0B1FF2812D074
:10B240009DF80510090201EB00409DF80610084426
:10B25000E0609DF8060000F00F014FF48030884058
:10B2600020610020E5E70120E3E70120E1E72DE987
:10B27000F04104460020217A012906D001252572DB
:10B28000617A0027012903D020E00220BDE8F08187
:10B29000EFF31086012080F31088A761022060720E
:10B2A00020680168D1F8101C01F0010119B1456056
:10B2B0002068FEF7DBFC204608F44CF5002800D09F
:10B2C000A56100D0A561657286F310882772DDE75D
:10B2D0002DE9F047044600250026207A012806D0F3
:10B2E00001272772607AA946012803D03AE002209C
:10B2F000BDE8F087EFF31088012080F31088C4F8D0
:10B3000018900220607220680168D1F8101C01F0CA
:10B31000010119B147602068FEF7A8FC4FF4FA7AE2
:10B32000204608F4A1F62046FFF759FF0546761C93
:10B33000B6B20DB15645F3D305B1A761606860B9E7
:10B3400020680168D1F8101C01F0010129B9C0F88A
:10B3500004902068FEF78AFC677205B1A7616772E6
:10B3600088F3108884F808902846C1E710B5044691
:10B370006068002801D0012010BD607A022807D043
:10B38000607A222804D0607A422801D0012010BDC2
:10B39000607A022809D0204608F400F60028F6D189
:10B3A000607A222809D0412060722168002048601C
:10B3B0002068FEF75BFC002010BD2120F4E710B5EB
:10B3C00004466068002801D0012010BD607A022880
:10B3D00007D0607A212804D0607A412801D001206A
:10B3E00010BD2168012048602068FEF73FFC607AAC
:10B3F000022809D0204608F4C3F50028F0D1607A6D
:10B40000212803D042206072002010BD2220FAE7DC
:10B410002DE9F05F04460D46EFF31187EFF3108935
:10B42000002D0ED0207A01280DD001262672607AD8
:10B430004FF0000A012808D0022584F808A0284609
:10B4400034E6012032E6022030E6C4F818A0216874
:10B450000868D0F8100C00F001004FF0020BD0B1DA
:10B460002C480068F8B12C4A1268C2F30222521C20
:10B470009040C0B280F31188EFF31088012080F370
:10B4800010884E602068FEF7F1FB2046A84705466D
:10B49000280010D10BE02046A8470546280028D1F7
:10B4A00084F809B007E0012080F31088E4E784F80D
:10B4B00009B088F310886068C8B920680168D1F8BD
:10B4C000101C01F0010191B9EFF31088012181F303
:10B4D0001088C0F804A02068FEF7C8FB667288F3E5
:10B4E00010880C48006848B1F8B280F3118805B1A3
:10B4F000A66160680128A0D166729EE7B9F1000FCD
:10B5000003D0012080F31088F1E7002080F3108839
:10B51000EDE70000404280000CED00E070B504460D
:10B520000D46A84E2868012852D004F58264E06ACE
:10B5300020F00100E062A868D4F8F01721F0FF01C4
:10B540000143C4F8F017D4F8F40720F00100C4F860
:10B55000F407D4F8F40720F01E0040F00200C4F80D
:10B56000F407A869D4F8F41721F0200141EA40104B
:10B57000C4F8F4076869D4F8F41721F0400141EAEF
:10B580008010C4F8F407D4F8F40740F48070C4F8CD
:10B59000F407D4F8F80720F0FF0040F03300C4F8B7
:10B5A000F807206840F0700020600020E064206808
:10B5B00040F008002060A4F58264A8686B2864D07D
:10B5C00057DC03285AD00B285FD03B286ED15CE0B3
:10B5D000D4F8100C00F0010070B1204600F0E4F83F
:10B5E000D4F80C0C20F00100C4F80C0CD4F8100CAA
:10B5F00000F001000028F9D104F20C44206820F486
:10B60000404040F480402060206820F4405020609A
:10B610006869216821F0100141EA00102060A869E2
:10B62000216821F0080141EAC000206028692168F2
:10B6300021F0040101432160206840F001002060F6
:10B64000606840F080006060E868616821F0700127
:10B650000143616001202065606840F0080060607F
:10B66000606840F003006060606920F0FF00606186
:10B6700094E0BB2802D0EB2818D10FE0D4F8080CD6
:10B6800020F47060C4F8080C10E0D4F8080C20F422
:10B69000706040F48070C4F8080C07E0D4F8080C1F
:10B6A00020F4706040F40070C4F8080C204600F0EC
:10B6B0007BF86868012865D13068C0F34052306873
:10B6C00020F400103060206800F4F063206820F45B
:10B6D000F0602060206840F008002060206840F0A2
:10B6E00010002060606820F00F006060606840F02B
:10B6F000100060603448017819B9206840F00200F9
:10B70000206000BF00BF00BF00BF00BF00BF00BF80
:10B7100000BF00BF00BF00BF00BF00BF00BF00BF31
:10B7200000BF00BF00BF00BF00BF00BF00BF00BF21
:10B7300000BF00BF00BF00BF00BF206900F00100D4
:10B740000028FAD1206820F00800206019B920688C
:10B7500020F002002060206820F00100206000BF7F
:10B7600000BF00BF00BF00BF00BF00BF00BF00BFE1
:10B77000206820F4F060184320601AB1306840F46B
:10B7800000103060D4F80C0C40F00100C4F80C0C30
:10B79000D4F8100C00F001000028F9D0306840F017
:10B7A00020003060012070BD016841F0010101609E
:10B7B00000BF00BF00BF00BF00BF00BF00BF00BF91
:10B7C00000BF704704C500A0BC40800080480168ED
:10B7D000C1F3C01100290BD0016821F48051016030
:10B7E000016841F480710160016821F0400101604D
:10B7F000704777480168C1F3C01100290BD0016878
:10B8000041F040010160016821F48071016001682C
:10B8100041F480510160704740F080406D490860FC
:10B82000086840F0804041F8F409D1F8F400C0F312
:10B8300080700028F9D170471CB568464EF4E8F1D5
:10B840006548DDE90012C0E902121CBD7CB56846FE
:10B850004EF4DEF1604CDDE90001C4E9040104F1BD
:10B86000100004F1080500682968401A20F07040B3
:10B870006FF0784188421BD3002001905748006840
:10B8800001A973F48DF72060FCF313F15449FCF324
:10B890009DF14FF07C51FCF341F1FCF369F3296811
:10B8A000084420F07040FFF7B7FF6068401C6060FC
:10B8B0007CBD4FF03041086BC0F3C0300028FAD097
:10B8C0008A6B886B9042FCD0704741483C300168DD
:10B8D000C1F3C0310029FAD14FF03041086BC0F3F9
:10B8E000C0300028FAD1704739480068C0F3C01052
:10B8F00000280FD03B48007880B135483C300068C4
:10B90000C0F3C03050B13848006810F0007F03D059
:10B91000012002E001207047002008B1002070479C
:10B920000120704710B53148FFF720FDFCF3D4F437
:10B93000BDE810402D48FFF742BD10B52B48FFF77A
:10B9400015FDFCF355F5BDE810402848FFF737BD5D
:10B9500010B52648FFF70AFDFCF332F5BDE81040AC
:10B960002248FFF72CBD10B5FEF778FEFFF741FF28
:10B970001D48006810F0007F01D0012000E0002089
:10B98000002804D01A480068BDE81040004710BDE8
:10B990001848006880F30888BFF36F8FFEF7B7BDC3
:10B9A00008B50B483C300068C0F3C03000280CD00C
:10B9B0000020009006486C30006808490968401A69
:10B9C000694673F4EDF6400808BD002008BD00008C
:10B9D00004C500A0F40000B04442800000E200A0D2
:10B9E00000401C445C42800000E200E0641F8000D4
:10B9F00068248000244080000D49C0B20860081F00
:10BA0000016841F0010101607047EFF310810122EC
:10BA100082F31088064A6FEA0040403A106081F3D2
:10BA2000108870470248001F0068C0F3400070474C
:10BA300084C500A010B5FEF7F1FDFEF741FE002021
:10BA40001D4A1E4952F820301B6841F82030401C26
:10BA50003128F7D31A4800681A4A80B21043C1F857
:10BA6000C4001948016821F47F01016016481038AC
:10BA7000016821F0F861016010BD10B500200F4A87
:10BA80000D4952F8203051F820402360401C2528F1
:10BA9000F7D308F479F3BDE81040FEF76CBE10B59B
:10BAA0002520064A044952F8203051F820402360EE
:10BAB000401C3228F7D310BD74428000747280009D
:10BAC0000CED00E00000FA0550C500A000F486B6B9
:08BAD00000F4B2B600F498B6D0
:04000005010020C90D
:00000001FF
