


ARM Macro Assembler    Page 1 


    1 00000000         ;/******************************************************
                       ********************//**
    2 00000000         ; * @file     startup_gr55xx.s
    3 00000000         ; * @brief    CMSIS Cortex-M ARMv7-M based Core Device S
                       tartup File for
    4 00000000         ; *           Device GR55xx
    5 00000000         ; * @version  V1.00
    6 00000000         ; * @date     12. June 2018
    7 00000000         ; *
    8 00000000         ; * @note
    9 00000000         ; *
   10 00000000         ; ******************************************************
                       ************************/
   11 00000000         ;/* Copyright (c) 2016-2018, Shenzhen Huiding Technology
                        Co., Ltd
   12 00000000         ;
   13 00000000         ;   All rights reserved.
   14 00000000         ;   Redistribution and use in source and binary forms, w
                       ith or without
   15 00000000         ;   modification, are permitted provided that the follow
                       ing conditions are met:
   16 00000000         ;   - Redistributions of source code must retain the abo
                       ve copyright
   17 00000000         ;     notice, this list of conditions and the following 
                       disclaimer.
   18 00000000         ;   - Redistributions in binary form must reproduce the 
                       above copyright
   19 00000000         ;     notice, this list of conditions and the following 
                       disclaimer in the
   20 00000000         ;     documentation and/or other materials provided with
                        the distribution.
   21 00000000         ;   - Neither the name of ARM nor the names of its contr
                       ibutors may be used
   22 00000000         ;     to endorse or promote products derived from this s
                       oftware without
   23 00000000         ;     specific prior written permission.
   24 00000000         ;   *
   25 00000000         ;   THIS SOFTWARE IS PROVIDED BY THE COPYRIGHT HOLDERS A
                       ND CONTRIBUTORS "AS IS"
   26 00000000         ;   AND ANY EXPRESS OR IMPLIED WARRANTIES, INCLUDING, BU
                       T NOT LIMITED TO, THE
   27 00000000         ;   IMPLIED WARRANTIES OF MERCHANTABILITY AND FITNESS FO
                       R A PARTICULAR PURPOSE
   28 00000000         ;   ARE DISCLAIMED. IN NO EVENT SHALL COPYRIGHT HOLDERS 
                       AND CONTRIBUTORS BE
   29 00000000         ;   LIABLE FOR ANY DIRECT, INDIRECT, INCIDENTAL, SPECIAL
                       , EXEMPLARY, OR
   30 00000000         ;   CONSEQUENTIAL DAMAGES (INCLUDING, BUT NOT LIMITED TO
                       , PROCUREMENT OF
   31 00000000         ;   SUBSTITUTE GOODS OR SERVICES; LOSS OF USE, DATA, OR 
                       PROFITS; OR BUSINESS
   32 00000000         ;   INTERRUPTION) HOWEVER CAUSED AND ON ANY THEORY OF LI
                       ABILITY, WHETHER IN
   33 00000000         ;   CONTRACT, STRICT LIABILITY, OR TORT (INCLUDING NEGLI
                       GENCE OR OTHERWISE)
   34 00000000         ;   ARISING IN ANY WAY OUT OF THE USE OF THIS SOFTWARE, 
                       EVEN IF ADVISED OF THE
   35 00000000         ;   POSSIBILITY OF SUCH DAMAGE.
   36 00000000         ;   ----------------------------------------------------



ARM Macro Assembler    Page 2 


                       -----------------------*/
   37 00000000         ;/*
   38 00000000         ;//-------- <<< Use Configuration Wizard in Context Menu
                        >>> ------------------
   39 00000000         ;*/
   40 00000000                 IF               :DEF:NO_SCATTER
   64                          ENDIF                        ; NO_SCATTER
   65 00000000         
   66 00000000         
   67 00000000                 PRESERVE8
   68 00000000                 THUMB
   69 00000000         
   70 00000000         
   71 00000000         ; Vector Table Mapped to Address 0 at Reset
   72 00000000         
   73 00000000                 AREA             RESET, DATA, READONLY
   74 00000000                 EXPORT           __Vectors
   75 00000000                 EXPORT           __Vectors_End
   76 00000000                 EXPORT           __Vectors_Size
   77 00000000                 IF               :DEF:NO_SCATTER
   82 00000000         
   83 00000000                 IMPORT           |Image$$ARM_LIB_STACK$$ZI$$Limi
t|
   84 00000000         
   85 00000000 00000000 
                       __Vectors
                               DCD              |Image$$ARM_LIB_STACK$$ZI$$Limi
t| 
                                                            ; Top of Stack
   86 00000004         
   87 00000004                 ENDIF
   88 00000004         
   89 00000004 00000000        DCD              Reset_Handler ; Reset Handler
   90 00000008 00000000        DCD              NMI_Handler ; NMI Handler
   91 0000000C 00000000        DCD              HardFault_Handler ; Hard Fault 
                                                            Handler
   92 00000010 00000000        DCD              MemManage_Handler 
                                                            ; MPU Fault Handler
                                                            
   93 00000014 00000000        DCD              BusFault_Handler 
                                                            ; Bus Fault Handler
                                                            
   94 00000018 00000000        DCD              UsageFault_Handler ; Usage Faul
                                                            t Handler
   95 0000001C 00000000        DCD              0           ; Reserved
   96 00000020 00000000        DCD              0           ; Reserved
   97 00000024 00000000        DCD              0           ; Reserved
   98 00000028 00000000        DCD              0           ; Reserved
   99 0000002C 00000000        DCD              SVC_Handler ; SVCall Handler
  100 00000030 00000000        DCD              DebugMon_Handler ; Debug Monito
                                                            r Handler
  101 00000034 00000000        DCD              0           ; Reserved
  102 00000038 00000000        DCD              PendSV_Handler ; PendSV Handler
                                                            
  103 0000003C 00000000        DCD              SysTick_Handler 
                                                            ; SysTick Handler
  104 00000040         __Vectors_End
  105 00000040         
  106 00000040 00000040 



ARM Macro Assembler    Page 3 


                       __Vectors_Size
                               EQU              __Vectors_End - __Vectors
  107 00000040         
  108 00000040                 AREA             |.text|, CODE, READONLY
  109 00000000         
  110 00000000         
  111 00000000         ; Reset Handler
  112 00000000         
  113 00000000         Reset_Handler
                               PROC
  114 00000000                 EXPORT           Reset_Handler             [WEAK
]
  115 00000000                 IMPORT           SystemInit
  116 00000000                 IMPORT           main_init
  117 00000000 4806            LDR              R0, =SystemInit
  118 00000002 4780            BLX              R0
  119 00000004 4806            LDR              R0, =main_init
  120 00000006 4700            BX               R0
  121 00000008                 ENDP
  122 00000008         
  123 00000008         ; Dummy Exception Handlers (infinite loops which can be 
                       modified)
  124 00000008         
  125 00000008         NMI_Handler
                               PROC
  126 00000008                 EXPORT           NMI_Handler               [WEAK
]
  127 00000008 E7FE            B                .
  128 0000000A                 ENDP
  130 0000000A         HardFault_Handler
                               PROC
  131 0000000A                 EXPORT           HardFault_Handler         [WEAK
]
  132 0000000A E7FE            B                .
  133 0000000C                 ENDP
  135 0000000C         MemManage_Handler
                               PROC
  136 0000000C                 EXPORT           MemManage_Handler         [WEAK
]
  137 0000000C E7FE            B                .
  138 0000000E                 ENDP
  140 0000000E         BusFault_Handler
                               PROC
  141 0000000E                 EXPORT           BusFault_Handler          [WEAK
]
  142 0000000E E7FE            B                .
  143 00000010                 ENDP
  145 00000010         UsageFault_Handler
                               PROC
  146 00000010                 EXPORT           UsageFault_Handler        [WEAK
]
  147 00000010 E7FE            B                .
  148 00000012                 ENDP
  150 00000012         DebugMon_Handler
                               PROC
  151 00000012                 EXPORT           DebugMon_Handler          [WEAK
]
  152 00000012 E7FE            B                .
  153 00000014                 ENDP



ARM Macro Assembler    Page 4 


  154 00000014         PendSV_Handler
                               PROC
  155 00000014                 EXPORT           PendSV_Handler            [WEAK
]
  156 00000014 E7FE            B                .
  157 00000016                 ENDP
  158 00000016         SVC_Handler
                               PROC
  159 00000016                 EXPORT           SVC_Handler               [WEAK
]
  160 00000016 E7FE            B                .
  161 00000018                 ENDP
  162 00000018         SysTick_Handler
                               PROC
  163 00000018                 EXPORT           SysTick_Handler           [WEAK
]
  164 00000018 E7FE            B                .
  165 0000001A                 ENDP
  166 0000001A 00 00           ALIGN
  167 0000001C         
  168 0000001C                 IF               :DEF:NO_SCATTER
  195                          ENDIF                        ; NO_SCATTER
  196 0000001C         
  197 0000001C         
  198 0000001C                 END
              00000000 
              00000000 
Command Line: --debug --xref --diag_suppress=9931 --cpu=Cortex-M4.fp.sp --apcs=
interwork --depend=.\objects\startup.d -o.\objects\startup.o -IC:\IT_APP\keil\A
RM\CMSIS\5.8.0\Device\ARM\ARMCM4\Include --predefine="__UVISION_VERSION SETA 53
6" --predefine="ARMCM4_FP SETA 1" --list=.\listings\startup.lst ..\..\..\..\..\
platform\arch\arm\cortex-m\keil\Startup.S



ARM Macro Assembler    Page 1 Alphabetic symbol ordering
Relocatable symbols

RESET 00000000

Symbol: RESET
   Definitions
      At line 73 in file ..\..\..\..\..\platform\arch\arm\cortex-m\keil\Startup
.S
   Uses
      None
Comment: RESET unused
__Vectors 00000000

Symbol: __Vectors
   Definitions
      At line 85 in file ..\..\..\..\..\platform\arch\arm\cortex-m\keil\Startup
.S
   Uses
      At line 74 in file ..\..\..\..\..\platform\arch\arm\cortex-m\keil\Startup
.S
      At line 106 in file ..\..\..\..\..\platform\arch\arm\cortex-m\keil\Startu
p.S

__Vectors_End 00000040

Symbol: __Vectors_End
   Definitions
      At line 104 in file ..\..\..\..\..\platform\arch\arm\cortex-m\keil\Startu
p.S
   Uses
      At line 75 in file ..\..\..\..\..\platform\arch\arm\cortex-m\keil\Startup
.S
      At line 106 in file ..\..\..\..\..\platform\arch\arm\cortex-m\keil\Startu
p.S

3 symbols



ARM Macro Assembler    Page 1 Alphabetic symbol ordering
Relocatable symbols

.text 00000000

Symbol: .text
   Definitions
      At line 108 in file ..\..\..\..\..\platform\arch\arm\cortex-m\keil\Startu
p.S
   Uses
      None
Comment: .text unused
BusFault_Handler 0000000E

Symbol: BusFault_Handler
   Definitions
      At line 140 in file ..\..\..\..\..\platform\arch\arm\cortex-m\keil\Startu
p.S
   Uses
      At line 93 in file ..\..\..\..\..\platform\arch\arm\cortex-m\keil\Startup
.S
      At line 141 in file ..\..\..\..\..\platform\arch\arm\cortex-m\keil\Startu
p.S

DebugMon_Handler 00000012

Symbol: DebugMon_Handler
   Definitions
      At line 150 in file ..\..\..\..\..\platform\arch\arm\cortex-m\keil\Startu
p.S
   Uses
      At line 100 in file ..\..\..\..\..\platform\arch\arm\cortex-m\keil\Startu
p.S
      At line 151 in file ..\..\..\..\..\platform\arch\arm\cortex-m\keil\Startu
p.S

HardFault_Handler 0000000A

Symbol: HardFault_Handler
   Definitions
      At line 130 in file ..\..\..\..\..\platform\arch\arm\cortex-m\keil\Startu
p.S
   Uses
      At line 91 in file ..\..\..\..\..\platform\arch\arm\cortex-m\keil\Startup
.S
      At line 131 in file ..\..\..\..\..\platform\arch\arm\cortex-m\keil\Startu
p.S

MemManage_Handler 0000000C

Symbol: MemManage_Handler
   Definitions
      At line 135 in file ..\..\..\..\..\platform\arch\arm\cortex-m\keil\Startu
p.S
   Uses
      At line 92 in file ..\..\..\..\..\platform\arch\arm\cortex-m\keil\Startup
.S
      At line 136 in file ..\..\..\..\..\platform\arch\arm\cortex-m\keil\Startu
p.S

NMI_Handler 00000008




ARM Macro Assembler    Page 2 Alphabetic symbol ordering
Relocatable symbols

Symbol: NMI_Handler
   Definitions
      At line 125 in file ..\..\..\..\..\platform\arch\arm\cortex-m\keil\Startu
p.S
   Uses
      At line 90 in file ..\..\..\..\..\platform\arch\arm\cortex-m\keil\Startup
.S
      At line 126 in file ..\..\..\..\..\platform\arch\arm\cortex-m\keil\Startu
p.S

PendSV_Handler 00000014

Symbol: PendSV_Handler
   Definitions
      At line 154 in file ..\..\..\..\..\platform\arch\arm\cortex-m\keil\Startu
p.S
   Uses
      At line 102 in file ..\..\..\..\..\platform\arch\arm\cortex-m\keil\Startu
p.S
      At line 155 in file ..\..\..\..\..\platform\arch\arm\cortex-m\keil\Startu
p.S

Reset_Handler 00000000

Symbol: Reset_Handler
   Definitions
      At line 113 in file ..\..\..\..\..\platform\arch\arm\cortex-m\keil\Startu
p.S
   Uses
      At line 89 in file ..\..\..\..\..\platform\arch\arm\cortex-m\keil\Startup
.S
      At line 114 in file ..\..\..\..\..\platform\arch\arm\cortex-m\keil\Startu
p.S

SVC_Handler 00000016

Symbol: SVC_Handler
   Definitions
      At line 158 in file ..\..\..\..\..\platform\arch\arm\cortex-m\keil\Startu
p.S
   Uses
      At line 99 in file ..\..\..\..\..\platform\arch\arm\cortex-m\keil\Startup
.S
      At line 159 in file ..\..\..\..\..\platform\arch\arm\cortex-m\keil\Startu
p.S

SysTick_Handler 00000018

Symbol: SysTick_Handler
   Definitions
      At line 162 in file ..\..\..\..\..\platform\arch\arm\cortex-m\keil\Startu
p.S
   Uses
      At line 103 in file ..\..\..\..\..\platform\arch\arm\cortex-m\keil\Startu
p.S
      At line 163 in file ..\..\..\..\..\platform\arch\arm\cortex-m\keil\Startu
p.S

UsageFault_Handler 00000010



ARM Macro Assembler    Page 3 Alphabetic symbol ordering
Relocatable symbols


Symbol: UsageFault_Handler
   Definitions
      At line 145 in file ..\..\..\..\..\platform\arch\arm\cortex-m\keil\Startu
p.S
   Uses
      At line 94 in file ..\..\..\..\..\platform\arch\arm\cortex-m\keil\Startup
.S
      At line 146 in file ..\..\..\..\..\platform\arch\arm\cortex-m\keil\Startu
p.S

11 symbols



ARM Macro Assembler    Page 1 Alphabetic symbol ordering
Absolute symbols

__Vectors_Size 00000040

Symbol: __Vectors_Size
   Definitions
      At line 106 in file ..\..\..\..\..\platform\arch\arm\cortex-m\keil\Startu
p.S
   Uses
      At line 76 in file ..\..\..\..\..\platform\arch\arm\cortex-m\keil\Startup
.S
Comment: __Vectors_Size used once
1 symbol



ARM Macro Assembler    Page 1 Alphabetic symbol ordering
External symbols

Image$$ARM_LIB_STACK$$ZI$$Limit 00000000

Symbol: Image$$ARM_LIB_STACK$$ZI$$Limit
   Definitions
      At line 83 in file ..\..\..\..\..\platform\arch\arm\cortex-m\keil\Startup
.S
   Uses
      At line 85 in file ..\..\..\..\..\platform\arch\arm\cortex-m\keil\Startup
.S
Comment: Image$$ARM_LIB_STACK$$ZI$$Limit used once
SystemInit 00000000

Symbol: SystemInit
   Definitions
      At line 115 in file ..\..\..\..\..\platform\arch\arm\cortex-m\keil\Startu
p.S
   Uses
      At line 117 in file ..\..\..\..\..\platform\arch\arm\cortex-m\keil\Startu
p.S
Comment: SystemInit used once
main_init 00000000

Symbol: main_init
   Definitions
      At line 116 in file ..\..\..\..\..\platform\arch\arm\cortex-m\keil\Startu
p.S
   Uses
      At line 119 in file ..\..\..\..\..\platform\arch\arm\cortex-m\keil\Startu
p.S
Comment: main_init used once
3 symbols
359 symbols in table
