:020000040100F9
:1040000000008400594000016140000131458000FA
:104010007D4100017B410001F541000100000000ED
:104020000000000000000000000000003545800096
:104030006B400001000000006D4000017140000174
:10404000DFF810D000F05CF800F04AF800480047B4
:104050005D4600010000840006488047064800478E
:10406000FEE7FEE7FEE7FEE7FEE7FEE7FEE7FEE728
:10407000FEE70000414200016F46000140EA0103F3
:104080009B0703D009E008C9121F08C0042AFAD20E
:1040900003E011F8013B00F8013B521EF9D27047D2
:1040A000D2B201E000F8012B491EFBD2704700227A
:1040B000F6E710B513460A4604461946FFF7F0FF27
:1040C000204610BD30B504460020034600E05B1CCE
:1040D000934203D2E05CCD5C401BF8D030BD0000C1
:1040E00070B5054C054D03E0206820448047241D31
:1040F000AC42F9D170BD00007C4A0001804A000149
:10410000064C074D06E0E06840F0010394E8070024
:1041100098471034AC42F6D3FFF796FF4C4A0001A3
:104120007C4A000170B58C1810F8015B15F007038C
:1041300001D110F8013B2A1106D110F8012B03E040
:1041400010F8016B01F8016B5B1EF9D12B0705D448
:104150000023521E0DD401F8013BFAE710F8013B91
:10416000CB1A921C03E013F8015B01F8015B521EAD
:10417000F9D5A142D8D3002070BDFEE7FEE70000CC
:104180000249096801F007010170704704C500A0E9
:1041900030B4062821D212490A6802F0070282428E
:1041A00012D00A680F4B1A400F4C22430A6000BF1E
:1041B00000BF00BF00BF0A681A400C4B024333F82F
:1041C000203042EA83420A600849183951F8200039
:1041D0000749486030BC74F40D9730BC704700004C
:1041E00004C500A0F8FFE3FF05000800344A000101
:1041F00000418000FEE7704700F070BB70477047D9
:1042000058585247010000001555000000400001B9
:10421000004000016E2D5349010100000000000024
:10422000000000000000000000000000000000008E
:10423000000000000000000000000000000000007E
:104240000248016841F470010160704788ED00E0A8
:1042500002E008C8121F08C1002AFAD170470020E6
:1042600001E001C1121F002AFBD170470249014839
:104270000860704704FF0104ACE200A010B5FFF72E
:10428000F5FFFFF7BBFFBDE81040002074F4EA948F
:10429000034900EB800001EB80008088704700003C
:1042A00044438000034A00EB800002EB80008180E1
:1042B000704700004443800007488168006801445B
:1042C000054818300269914201D900207047D0E9B1
:1042D0000212006800F0B0B8605C80002DE9F04187
:1042E00028211D48FFF7E3FE28221B491B4800F048
:1042F00057F919480C221C3019A10746FFF7E2FEB6
:10430000154D40B9D5E90112E86800F095F810B1F3
:104310000120BDE8F0810024154E04EB840006EB7B
:10432000C00028220C4900F02BF90C220CA13846C1
:10433000FFF7C8FE50B9D5E90112E86800F07CF833
:1043400020B1054800F016F80120E2E7641CE4B251
:104350000A2CE2D30020DCE7A85C800000200001EA
:10436000626C655F6170705F74656D700000000065
:104370004000000170B5054600F076FA074C4FF496
:104380008051204600F0BCF828222946204600F043
:1043900017F9BDE8704000F079BA00000020000174
:1043A0004FF48051014800F0ABB80000003000012C
:1043B00010B5302209490A4800F0F2F8302801D03F
:1043C000002010BD05480749C06A884204D006494C
:1043D000884201D0002010BD012010BD785C800013
:1043E0000030000142594244424E425310B500F0A1
:1043F00035F8FFF7DDFF002819D00D4C0D49E06AB4
:10440000884214D1FFF758FF68B1A268216820697B
:1044100000F4A4F0201DFFF7ADFFFFF7C1FFBDE8DA
:10442000104000F4DBB0BDE81040FFF7B9BF10BD8D
:10443000785C80004259424470B504460D461646E9
:1044400077F494D528B932462946204607F4F6D4A5
:1044500008B1012070BD002070BD000010B5182209
:1044600004494FF0807000F08BF8BDE8104001481F
:1044700000F03AB8605C800003484078002802D021
:104480000248FFF7B9BE7047C8428000AC5C8000AC
:1044900010B5FFF723FF0149487010BDC8428000E6
:1044A00010B5104C02220421204600F0B5F801227C
:1044B0001021204600F0B0F802228021204600F0B2
:1044C000ABF802224021204600F0A6F8022220216B
:1044D000204600F0A1F820460222BDE81040082145
:1044E00000F09AB8001001A0704700000248006870
:1044F00000F480707047000078C500A014F49A970B
:1045000010B50B4602460021034800F44CF508B1F3
:10451000002010BD012010BD641F800038B50220AE
:1045200000906846FFF72CFE114C206880B91148B6
:10453000206011490160012141608160EB21C1606F
:104540000E499DF8002051F82210016100214161BF
:1045500077F40CD508B1012000E00020A0720448D7
:1045600014F4FCD608B1002038BD012038BD00008D
:10457000641F8000281F800000D000A0D44280006B
:1045800010B514460A46014623460448FFF7B6FF15
:1045900008B1002010BD204610BD0000641F80003F
:1045A00070B504460D46164600F05EF932462946BF
:1045B0002046FFF7E5FF044600F068F9204670BD8D
:1045C00010B514460A4601462346044800F4E1F3B8
:1045D00008B1002010BD204610BD0000641F8000FF
:1045E00010B506481BF49CD1EFF31084012080F332
:1045F000108817F43DD584F3108810BD384480002E
:10460000704770470349096A884301D0002070470A
:1046100001207047002001A010B50E4B984201D137
:10462000002000E0102081400B4BD3F810428C4357
:10463000022A0DD000200443C3F81042D3F8080228
:104640008843012A00D000210843C3F8080210BDA6
:104650000846F0E7000001A000E000A0FFF70EFE12
:10466000FFF7C4FEFFF714FFFFF706FFFEE710B5E4
:10467000FFF73CFF10B100F0BFF9FEE7BDE81040C6
:10468000FFF7DEBC10B50549EB2008610449096855
:10469000C860034800F4D7F210BD0000101F80006E
:1046A000641F80000146014800F45AB3641F800073
:1046B00010B530480168090602D4016849061FD5C3
:1046C000016821F480510160016821F400610160FA
:1046D000016841F040010160016841F480710160AE
:1046E000016821F040010160016841F08001016032
:1046F000016841F400710160016821F080010160EE
:104700001C4840300168C1F3801121B11A490A7870
:1047100042F004020A70194901600020012341B2ED
:10472000002909DB01F01F0403FA04F2490989009A
:1047300001F1E021C1F88022401CC0B22228EED352
:10474000002000F061F900242046FFF7A1FD01469A
:104750002046FFF7A7FD00F023F8094877F41ED0A4
:104760000020FFF715FDFFF79BFEBDE8104000F0AD
:1047700009B8000004C500A000418000A0FEFFFFB2
:10478000204580000548016821F0807101600349DF
:104790006FF04000143908607047000058C500A051
:1047A0004FF47A700F4A116821F0807111604FF454
:1047B000C0310C4B38331960116841F00071116041
:1047C000084B6FF04001143B19600021136861F33E
:1047D000DF631360401E411CFCD1106840F0807004
:1047E0001060704758C500A010B505480078002833
:1047F00002D000F485F010BD00F46BF010BD000095
:10480000504480007FB500200090019002900390FA
:104810000024124D124E05EB0410D0E90523016966
:10482000C0698DE80E0003900198B04212D20D4984
:104830000398884205D1DDE901020099FFF71EFCCB
:1048400008E0084903981C31884203D1DDE90101E1
:10485000FFF72DFC641C032CDDD37FBD80E907002E
:1048600000408000042D060010B577F47FD30028A7
:1048700008D071F4C7D204490870BDE81040002088
:1048800071F40E9310BD0000C842800010B577F49B
:104890006DD3002805D003480078BDE8104071F4BE
:1048A000FF9210BDC842800010B500F089F8FFF7F4
:1048B00035FE68B1FFF7E6FE0020FFF7F3FEFFF7D5
:1048C000F7FEFFF78DFE034800680349886010BDBE
:1048D000FEE70000004000010041800070B5044682
:1048E000D4E90210884202D02268FFF7C7FB72B6F3
:1048F00000204FF0E02108610022012553B2002B77
:104900000FDB03F01F0105FA01F04FEA53114FEAE4
:10491000810101F1E021C1F88001BFF34F8FBFF3A6
:104920006F8F0BDB03F01F0105FA01F04FEA531103
:104930004FEA810101F1E021C1F8800202F1010298
:10494000D2B2222ADAD362B6164A106820F4805016
:104950001060106820F400601060106840F04000A3
:104960001060106840F480701060106820F0400003
:104970001060106840F080001060106840F4007013
:104980001060106820F08000106057F47DD7182266
:1049900021460548FFF772FBA068BDE870402AF485
:1049A0004797000004C500A0101F800010B500F05C
:1049B00013F8FFF727FFBDE81040FFF775BF0000B1
:1049C00002490348034AFFF759BB0000804A00012F
:1049D000CC35003000000000BFF35F8F0448016851
:1049E0000A6804490A600160BFF34F8F70470000F6
:1049F00008ED00E00042800010B5FFF7EDFFBDE8D4
:104A00001040FFF7F1BE0000014948607047000008
:104A1000CC42800002000200D5202D500090D0032F
:104A2000006CDC020024F40000366E010024F40067
:104A30000048E80100000000010000000400000040
:104A4000030000000400000002000000804A000192
:104A5000004180003004000024410001984B000117
:104A6000304580001817000050420001B06200017C
:104A7000605C8000381100005E42000131FFFFFFE2
:104A80005104FC90D0031359401B016104143145BB
:104A900080137D411B017B041AF50401101A352097
:104AA0001A6B28411A6D085A710C019632043210A3
:104AB0005A0C08120815101F01012008030F0303E8
:104AC0000501152240130108321A29045AFF04C1B6
:104AD000091214011430086801A401200301125ABC
:104AE00023401F4BA00F143CDE03021E095A140979
:104AF0007278411303461B01010401181304C51306
:104B0000A0041C01A010041A28041A30041A20045E
:104B10001B04101419041A28041A30042A200C1A31
:104B2000200C19041A20041340E21BA044041A4864
:104B3000041A4C041A90041A94041A80041AA0044B
:104B40001AA4041AA8041AAC041AB0041112D01B37
:104B5000A010081A08041A18041A50781A3C041AEB
:104B600040041AC0101A20041A24042AC42012ED8A
:104B70001BE01C041A20041112E41BE004041A08B0
:104B8000041A0C041A10041A14041A18041A1C0427
:104B90002A20182928F10000FEE700001EF0040F6B
:104BA00014BFEFF3098CEC460FB560465FF4B6F125
:104BB0008446BDE80F40BCF1000F18BFE0477047C6
:104BC000FEE700002DE9F05F8046894602F13004DF
:104BD00077F400F508B104F55674C4F30F35C4F347
:104BE0000B070FB16D1CADB272B6FFF33CF600F0CF
:104BF0006FD900244FF4805A19E0681E844202D114
:104C00000FB13E4600E0564608EB0430834651465D
:104C1000FFF3AAF709EB043032460949FFF3E4F742
:104C2000584632460649FFF3FFF7641CA4B2AC4273
:104C3000E3D300F05FD9BDE8F05FFFF314B60000E6
:104C4000D05C8000012080F310880F48016821F0BB
:104C50008071016001210C4A38321160016841F015
:104C600000710160084A6FF04001143A11600021A0
:104C7000026861F3DF620260054A0449116001685D
:104C800041F080710160FEE758C500A0646F6F6756
:104C9000007080002DE9F04705460E46EE4F38685B
:104CA000C0F38824DFF8B483DFF8B49310E0281B46
:104CB000B04201DA2C4601E0A01984B2386800EA5B
:104CC000080040EA8420386099F8020077F4CBF2BB
:104CD000AC42ECD310E0601BB04201DA2C4601E09C
:104CE000A01B84B2386800EA080040EA84203860DB
:104CF00099F8020077F4B7F2AC42ECD8BDE8F0873F
:104D000070B5D74D698AE889FFF7C4FFD24E361FC8
:104D1000306800F01F040FE0E978021B8A4201DAD4
:104D2000044601E06018C4B2306820F01F00204340
:104D30003060A87877F497F268788442ECD370BD3D
:104D400070B5C74D698A288AFFF7A4FFC24E361F87
:104D5000306800F01F040FE0E978221A8A4201DA75
:104D6000044601E0601AC4B2306820F01F002043FE
:104D70003060A87877F477F228788442ECD870BD58
:104D80000020B8498A8BA2F58E43443B02D1887833
:104D900000F01F00082803D0092801D00020704728
:104DA0000120704770B5FFF7EBFF002854D0AD49E4
:104DB000888BA0F58E42443A4ED191F82900020624
:104DC00005D5C0F34112801A00F01F0304E0C0F3C0
:104DD0004112104400F01F0391F82B0000F01F0255
:104DE0009D4D143D28689E4CC0F30440A0649A4E2B
:104DF000283E3068C0F3C440E064206BFF2804D034
:104E00003C2805DD0C21082009E00A21062006E0E7
:104E1000202802DD0B21072001E00A210620194489
:104E20001F2900D31F21824201D9101A00E000205F
:104E30002A6822F4F81242EA01412960316821F41B
:104E4000780141EAC04030602868C0F30440206522
:104E50003068C0F3C440606570BD10B5FFF790FFC7
:104E6000002819D07F48808BA0F58E41443913D19A
:104E700079481438016821F4F812794948310B88CF
:104E800042EA03420260744828380268898822F4A2
:104E9000780242EAC141016010BD70472DE9F0413E
:104EA0004FF0E0244FF08060C4F800010227C4F8FE
:104EB0000071D4F80002BD0610F0006F01D001208F
:104EC00000E000204FF4802640B363483438006887
:104ED000C0F3001010B1202000F0B1F800F0A5F8E8
:104EE000614908700878FFF3C1F618B1C4F8006290
:104EF000C4F80061DFF8608108F10C08D8F8000000
:104F0000C0F3001008B1C4F80051FF2000F097F87A
:104F10006FF00400C8F80000C4F8805253480078CD
:104F200008B1C4F80051C4F800614FF08050C4F8D3
:104F300000014F480760BDE8F08110B500F0FBFDAF
:104F40004B484FF08071001FC0F88011490001608C
:104F500004210160FFF316F6FFF79FFF74F40EF0D3
:104F6000BDE810405EF44CB22DE9F04100F0E3FDE5
:104F70003F4C4FF08070241FC4F880014000206037
:104F8000042002262060FFF3FDF573F4F7F7266096
:104F9000FFF783FFD4F80001B506A4F5807410F084
:104FA000006F01D0012000E000204FF4802740B3C3
:104FB000294834380068C0F3001010B1202000F0F8
:104FC0003EF800F032F8284908700878FFF34EF6F2
:104FD00018B1C4F80072C4F80071DFF87C8008F1E1
:104FE0000C08D8F80000C0F3001008B1C4F8005154
:104FF000FF2000F024F86FF00400C8F80000C4F8A7
:1050000080521A48007808B1C4F8005104F5807441
:1050100027604FF080502060801020601548C0F855
:105020000061BDE8F0415EF4EBB10B480C30006864
:105030000949C0F307402031096808407047EFF381
:105040001081012282F31088034A6FEA00400C327B
:10505000106081F31088704738C500A0FF03F8FF87
:10506000EC42800012328000CA428000404480003E
:1050700004E100E004E000E0F0B589B006460C462B
:1050800000250095052001900295012003900495CC
:10509000059506950795089025804FF47A773B464D
:1050A0006A4601A930681DF441F120889DF800107E
:1050B000084320803520019000953B466A4601A9AF
:1050C00030681DF433F120889DF8001040EA01207B
:1050D000208009B00020F0BDFEB5054600200190FB
:1050E00000903A2002904FF47A763346012202A9CA
:1050F00028681DF455F30446E4BB69462846FFF7CB
:10510000BBFFBDF800004FF00407400620D4062086
:1051100002903346012202A928681DF441F3044697
:10512000FCB901208DF80400BDF8000040F04000FB
:105130008DF805003346022201A928681DF430F3DA
:10514000044674B98749284609F418F6044644B958
:1051500002973346012202A928681DF421F3044670
:1051600044B102973346012202A928681DF418F3BE
:105170002046FEBDFFE72046FBE738B505460C4656
:10518000284609F4EDF4002816D101208DF800001E
:105190008DF80140022040EA14208DF802004FF4FF
:1051A0007A730322694628681DF4FAF2002803D1B5
:1051B0006C49284609F4E2F538BD38B504460020AC
:1051C000009031208DF80000022040EA11208DF877
:1051D0000100204609F4C4F400280CD14FF47A737E
:1051E0000222694620681DF4DBF2002803D15D49E4
:1051F000204609F4C3F538BD38B5044600210091B6
:1052000069462046FFF738FFBDF8001041F40071F1
:105210000091204609F4FCF538BDF8B50646002497
:1052200000250095F068504988420DD100956946E7
:105230003046FFF721FFBDF80010880525D4304621
:10524000FFF79BFF044620E03046FFF7D5FF0446FA
:1052500020001AD169463046FFF70EFFBDF8001056
:10526000880512D43046FFF7A8FF044620000CD171
:10527000009569463046FFF7FFFEBDF8001088052F
:1052800003D43046FFF779FF04462046F8BD10B539
:10529000C168C9B2C268C2F30742202A04D11629E4
:1052A00002D9FFF719FF10BDFFF7B7FF10BD2DE9B9
:1052B000F0410446EFF3118620680168D1F8101C14
:1052C00001F0010101254FF00208002919D02749FA
:1052D0000A7827490968C1F30221491C05FA01F13E
:1052E0001144C9B281F31188EFF3108785F3108858
:1052F0004560206800F036FC84F8098087F3108848
:105300000BE0204609F476F5204609F4ABF310B122
:105310000320A06101E084F809802046FFF7B7FF71
:105320008046606830B1204609F4DAF36572404681
:10533000BDE8F081EFF31087012080F31088216829
:1053400000204860206800F00DFC657287F310882B
:10535000F0B280F31188EAE7064800F0DFBA0548AA
:1053600000F005BB801A06001760850002E400E02B
:105370000CED00E0641F8000F848416821F0010155
:105380004160C16821F00071C160016821F0010134
:105390000160C16821F08071C1607047F048006809
:1053A000002810D1ED48416841F001014160C16819
:1053B00041F00071C160016841F001010160C16804
:1053C00041F08071C160704710B5002200280CD0F8
:1053D000037A012B0BD001230372447A0023012CA2
:1053E00007D002220372104610BD012010BD02201A
:1053F00010BD8361DB4C2160F4E72DE9F04FADF582
:10540000077D044690461D460027A1F18076EFF304
:1054100011800690EFF310800590B1F1807F0ED3DC
:1054200020694A1900F18070824208D8B8F1000F53
:1054300005D025B1A07A012808D1880706D0082018
:10544000A06101200DF5077DBDE8F08F207A0128CD
:1054500009D001202072607A012806D0022700209E
:1054600020723846EEE70220ECE70020A0612068B9
:105470000068D0F8100C00F0010068B9204609F46B
:10548000B9F4204609F4EEF20746380002D00320B2
:10549000A061B2E00220607206EB050AAAE0F0B259
:1054A000C0F580757019824501D2AAEB060500206F
:1054B0000DF58E7904E018F8001009F80010401C72
:1054C000A842F8D347AF21680868D0F8100C00F064
:1054D0000100C0B1A3480068C8B1A34A1268C2F372
:1054E0000222521C9040C0B280F31188EFF3108B5F
:1054F000012080F310884860206800F033FB022010
:1055000060728BF31088A07A012804D03AE0012061
:1055100080F31088EAE777F45DF098B305F0F007C0
:10552000FFF72AFF0F2D06D925F00F0207AB47A979
:10553000304677F447F0280721D0002001900290F0
:105540000390049049460DF1040B05F00F0904E0A7
:105550003A188A5C0BF80020401C8145F8D8F019F5
:1055600001AB102201A977F42DF0002007A904E077
:105570003B181BF80020CA54401C8145F8D807AFDF
:10558000FFF70CFF4FF47A7000902B463A463146F5
:10559000204609F455F307466068D8B920680168C9
:1055A000D1F8101C01F00101A1B9EFF3108901211C
:1055B00081F3108800214160206800F0D3FA0120B7
:1055C000607289F310886748006838B10698C0B2E5
:1055D00080F3118867B10120A0610EE0059818B131
:1055E000012080F31088F5E7002080F31088F1E7B0
:1055F0002E44A844B2453FF652AF606801287FF4BC
:105600002EAF204609F46CF20120607227E72DE9E5
:10561000F05F04460E469B460025A2F1807AEFF328
:105620001188EFF31089002E0CD1B2F1807F17D3CF
:10563000206902EB0B0100F18070814210D8BBF1B0
:10564000000F0DD0207A01280ED001272772607A32
:1056500001280BD00225002020722846BDE8F09FCB
:105660000820A0610120F9E70220F7E70020A061EF
:1056700020680068D0F8100C00F0010068B92046DE
:1056800009F4B8F3204609F4EDF10546280002D0EC
:105690000320A06172E002206072012E05D04FEA63
:1056A0001A364FEA0636DA4466E0204609F466F216
:1056B0000546280062D0A76160E021680868D0F83C
:1056C000100C00F00100C0B126480068E8B1264A7D
:1056D0001268C2F30222521C9040C0B280F31188BB
:1056E000EFF31085012080F310884F60206800F0F0
:1056F00039FA0220607285F310883146204609F499
:105700006BF20546606820B11EE0012080F310882E
:10571000E6E720680168D1F8101C01F0010199B991
:10572000EFF3108B012181F3108800214160206884
:1057300000F018FA67728BF310880A48006830B1DD
:1057400008F0FF0080F31188A5B1A76116E0B9F158
:10575000000F0BD0012080F31088F5E7A0E200A035
:10576000344480004C4480000CED00E0002080F3C5
:105770001088E9E706F58056B2459ED86068012892
:105780007FF469AF204609F4ABF1677263E710B5A7
:105790008AB004469F2002900020039001210491CA
:1057A0000590069007900890032009904FF47A73B3
:1057B00001AA02A920681CF4B9F5002811D1E068FB
:1057C00008B9206978B19DF805009DF80410000221
:1057D00000EB01409DF806100844E16881421CD1AD
:1057E00000200AB010BD9DF80400A0B1FF2812D01F
:1057F0009DF80510090201EB00409DF806100844D1
:10580000E0609DF8060000F00F014FF48030884002
:1058100020610020E5E70120E3E70120E1E72DE931
:10582000F04104460020217A012906D00125257285
:10583000617A0027012903D020E00220BDE8F08131
:10584000EFF31086012080F31088A76102206072B8
:1058500020680168D1F8101C01F0010119B1456000
:10586000206800F07FF9204609F43AF1002800D0C2
:10587000A56100D0A561657286F310882772DDE707
:105880002DE9F047044600250026207A012806D09D
:1058900001272772607AA946012803D03AE0022046
:1058A000BDE8F087EFF31088012080F31088C4F87A
:1058B00018900220607220680168D1F8101C01F075
:1058C000010119B14760206800F04CF94FF4FA7AF1
:1058D000204609F48FF22046FFF759FF0546761C53
:1058E000B6B20DB15645F3D305B1A761606860B992
:1058F00020680168D1F8101C01F0010129B9C0F835
:105900000490206800F02EF9677205B1A7616772F4
:1059100088F3108884F808902846C1E710B504463B
:105920006068002801D0012010BD607A022807D0ED
:10593000607A222804D0607A422801D0012010BD6C
:10594000607A022809D0204609F4EEF10028F6D149
:10595000607A222809D041206072216800204860C6
:10596000206800F0FFF8002010BD2120F4E710B5FA
:1059700004466068002801D0012010BD607A02282A
:1059800007D0607A212804D0607A412801D0012014
:1059900010BD216801204860206800F0E3F8607ABB
:1059A000022809D0204609F4B1F10028F0D1607A2C
:1059B000212803D042206072002010BD2220FAE787
:1059C0002DE9F05F04460D46EFF31187EFF31089E0
:1059D000002D0ED0207A01280DD001262672607A83
:1059E0004FF0000A012808D0022584F808A02846B4
:1059F00034E6012032E6022030E6C4F818A021681F
:105A00000868D0F8100C00F001004FF0020BD0B184
:105A10002C480068F8B12C4A1268C2F30222521CCA
:105A20009040C0B280F31188EFF31088012080F31A
:105A300010884E60206800F095F82046A84705467B
:105A4000280010D10BE02046A8470546280028D1A1
:105A500084F809B007E0012080F31088E4E784F8B7
:105A600009B088F310886068C8B920680168D1F867
:105A7000101C01F0010191B9EFF31088012181F3AD
:105A80001088C0F804A0206800F06CF8667288F3F3
:105A900010880C48006848B1F8B280F3118805B14D
:105AA000A66160680128A0D166729EE7B9F1000F77
:105AB00003D0012080F31088F1E7002080F31088E4
:105AC000EDE700004C4480000CED00E010B5FFF75E
:105AD00017F9FFF767F900201D4A1E4952F82030D8
:105AE0001B6841F82030401C3128F7D31A48006861
:105AF0001A4A80B21043C1F8C4001948016821F461
:105B00007F01016016481038016821F0F8610160DA
:105B100010BD10B500200F4A0D4952F8203051F841
:105B200020402360401C2528F7D309F4F3F1BDE899
:105B30001040FFF792B910B52520064A044952F8E3
:105B4000203051F820402360401C3228F7D310BD8C
:105B500058448000D06C80000CED00E00000FA0595
:105B600050C500A000F08CB810B50268136843F06F
:105B70000103136000BF00BF00BF00BF00BF00BF34
:105B800000BF00BF00BFD2F80C3C23F00103C2F8F5
:105B90000C3CD2F8103C03F00103002BF9D1012991
:105BA00006D00021C2F870148068012804D05AE0A1
:105BB0000121C2F87014F7E7FB490868C0F34053AD
:105BC000086820F400100860106800F4F0641068A1
:105BD00020F4F0601060106840F008001060106859
:105BE00040F00200106000BF00BF00BF00BF00BF58
:105BF00000BF00BF00BF00BF00BF00BF00BF00BFAD
:105C000000BF00BF00BF00BF00BF00BF00BF00BF9C
:105C100000BF00BF00BF00BF00BF00BF00BF1069D2
:105C200000F001000028FAD1106820F00800106090
:105C3000106820F002001060106820F00100106071
:105C400000BF00BF00BF00BF00BF00BF00BF00BF5C
:105C500000BF106820F4F060204310601BB108689A
:105C600040F400100860D2F80C0C40F00100C2F8BB
:105C70000C0CD2F8100C00F001000028F9D010BD77
:105C8000F0B589B004460025002C0BD094F8300004
:105C900001280AD0012784F8307094F831000026DA
:105CA00028B10EE0012009B0F0BD0220FBE784F826
:105CB000306020461CF464F44FF47A7120461CF4E2
:105CC000B7F42068D0F8100C00F0010030B90022C1
:105CD00001212046A36B57F4C7F00546D5B960688B
:105CE0000190A0680290E068039020690890207DF0
:105CF000C0F340000690207D00F0010007901020C6
:105D000004900420059001A9206800F079F9012889
:105D100004D0012584F830602846C4E76068012873
:105D200006D12068D0F83C1441F00101C0F83C14C1
:105D3000666384F83170EDE72DE9F74F044600689B
:105D40000D4600F2044800F5806700F21446D0F8D2
:105D500070B4301F016821F0080101602068012142
:105D6000C0F87014A06A4FF0FF3A102847D9A06A13
:105D7000702100F00309206800F0EDF8A06A8008A7
:105D800021E0E06A102801D9102200E0E26A5146C1
:105D9000104600E03960401EFCD211460FE030682A
:105DA0008006FCD4D8F80000030E05F8013B030C74
:105DB00005F8013B030A05F8023B05F8010C491EF2
:105DC000EDD2E06A801AE062E06A0028D9D1B9F128
:105DD000000F0FD0C7F800A030688006FCD4D8F8B8
:105DE0000010002004E00A0E2A540902401CC0B230
:105DF0004845F8D31021206800F0ADF812E0E06AC1
:105E0000514600E03960401EFCD2E06A06E031688D
:105E10008906FCD498F8001005F8011B401EF6D244
:105E20000020E0622168C1F870B4029B03B02046F4
:105E3000BDE8F04F0022012157F416B02DE9F047DC
:105E400004460D469046994694F8300001280CD03F
:105E5000012684F8306094F831000027012806D02C
:105E6000022084F83070BDE8F0870220FBE767630A
:105E7000022084F831004B4600220121204656F4CE
:105E8000F3F7F8B9222084F83100C4F82480E869D7
:105E9000A062E869E0622068D0F8181441F00101BE
:105EA000C0F818142946204656F429F74A464146B8
:105EB0002046FFF741FF2168D1F8182422F00102A3
:105EC000C1F8182484F83160CBE72DE9F047044687
:105ED0000D469046994694F8300001280BD00126D3
:105EE00084F8306094F831000027012805D00220A2
:105EF00084F83070B7E70220B5E76763022084F8C2
:105F000031004B4600220121204656F4ADF7F8B986
:105F1000222084F83100C4F82480E869A062E8698E
:105F2000E0622068D0F8181441F00101C0F818149C
:105F30002946204656F4E3F64A464146204600F0FC
:105F400012F82168D1F8182422F00102C1F81824AF
:105F500084F83160CCE7D0F8102422F070020A43B4
:105F6000C0F8102470472DE9F047044600689246B7
:105F700000F2044800F5806700F21446D0F87094EF
:105F80000D46301F016821F00801016021680120E1
:105F9000C1F8700470212068FFF7DDFFA06A800857
:105FA000E0624FF0FF3319E004C500A0E06A10285A
:105FB00001D9102200E0E26A104600E03B60401E7A
:105FC000FCD2114605E030688006FCD4D8F8000009
:105FD00001C5491EF7D2E06A801AE062E06A002833
:105FE000E4D110212068FFF7B6FF2168C1F8709452
:105FF00053462046BDE8F0470022012156F434B74D
:1060000070B504460D46A84E2868012852D004F504
:106010008264E06A20F00100E062A868D4F8F0171A
:1060200021F0FF010143C4F8F017D4F8F40720F081
:106030000100C4F8F407D4F8F40720F01E0040F083
:106040000200C4F8F407A869D4F8F41721F020017D
:1060500041EA4010C4F8F4076869D4F8F41721F055
:10606000400141EA8010C4F8F407D4F8F40740F482
:106070008070C4F8F407D4F8F80720F0FF0040F06F
:106080003300C4F8F807206840F07000206000205A
:10609000E064206840F008002060A4F58264A868ED
:1060A0006B2864D057DC03285AD00B285FD03B28DC
:1060B0006ED15CE0D4F8100C00F0010070B1204605
:1060C00000F0E4F8D4F80C0C20F00100C4F80C0C3B
:1060D000D4F8100C00F001000028F9D104F20C44AF
:1060E000206820F4404040F480402060206820F484
:1060F000405020606869216821F0100141EA0010D9
:106100002060A869216821F0080141EAC0002060F0
:106110002869216821F0040101432160206840F0D2
:1061200001002060606840F080006060E86861689D
:1061300021F070010143616001202065606840F03A
:1061400008006060606840F003006060606920F0F3
:10615000FF00606194E0BB2802D0EB2818D10FE06B
:10616000D4F8080C20F47060C4F8080C10E0D4F8DF
:10617000080C20F4706040F48070C4F8080C07E04C
:10618000D4F8080C20F4706040F40070C4F8080CD7
:10619000204600F07BF86868012865D13068C0F3BC
:1061A0004052306820F400103060206800F4F06342
:1061B000206820F4F0602060206840F00800206033
:1061C000206840F010002060606820F00F006060E0
:1061D000606840F0100060603448017819B92068A8
:1061E00040F00200206000BF00BF00BF00BF00BF42
:1061F00000BF00BF00BF00BF00BF00BF00BF00BFA7
:1062000000BF00BF00BF00BF00BF00BF00BF00BF96
:1062100000BF00BF00BF00BF00BF00BF00BF2069BC
:1062200000F001000028FAD1206820F0080020606A
:1062300019B9206820F002002060206820F00100D9
:10624000206000BF00BF00BF00BF00BF00BF00BF95
:1062500000BF00BF206820F4F060184320601AB12E
:10626000306840F400103060D4F80C0C40F00100AD
:10627000C4F80C0CD4F8100C00F001000028F9D080
:10628000306840F020003060012070BD016841F0AE
:106290000101016000BF00BF00BF00BF00BF00BF21
:1062A00000BF00BF00BF704704C500A0CC42800003
:040000050100404175
:00000001FF
