:020000040100F9
:104000000000820059400001614000014D498000DC
:1040100041490001FF4100010D4A0001000000007C
:104020000000000000000000000000005149800076
:104030006B400001000000006D4000014349000199
:10404000DFF810D000F0A6FB00F094F8004800471D
:10405000ADCF0001000082000648804706480047B7
:10406000FEE7FEE7FEE7FEE7FEE7FEE7FEE7FEE728
:10407000FEE70000DD490001C3CF00012DE9F05F3C
:104080000546002092469B468846064681464024C7
:104090001BE0284641464746224600F06FFA534649
:1040A0005A46C01A914110D311461846224600F0D4
:1040B00097F82D1A67EB01084F4622460120002190
:1040C00000F08EF817EB00094E41201EA4F1010408
:1040D000DFDC484631462A464346BDE8F09F0000F3
:1040E0000649074A0868504343F239021044086001
:1040F0004008704701490860704700003849800057
:104100006D4EC64140EA01039B0703D009E008C990
:10411000121F08C0042AFAD203E011F8013B00F88C
:10412000013B521EF9D27047D2B201E000F8012BD8
:10413000491EFBD270470022F6E710B513460A4627
:1041400004461946FFF7F0FF204610BD421C10F848
:10415000011B0029FBD1801A704730B504460020AE
:10416000034600E05B1C934203D2E05CCD5C401B45
:10417000F8D030BD70B5054C054D03E020682044F3
:104180008047241DAC42F9D170BD0000980C01019C
:104190009C0C01010EB540F2334102910021CDE9A2
:1041A00000110A460B4600F01AFA03B000BDC1F335
:1041B0000A5210B5C1F3130140F2FF3341F48011EC
:1041C0009A4201DA002010BD40F233439A42A2F233
:1041D000334203DC524200F0D1F910BD904010BDD3
:1041E000202A04DB203A00FA02F1002070479140B7
:1041F000C2F1200320FA03F3194390407047FEE711
:1042000058585247010000001555000000400001B9
:10421000004000016E2D5349010100000000000024
:10422000000000000000000000000000000000008E
:10423000000000000000000000000000000000007E
:104240002DE9FE4F804681EA0300C00F0C46009026
:1042500021F0004123F00045B8EB0200A94105D24E
:104260004046214690461C460B46024623F000403D
:10427000104347D0270DC7F30A00C3F30A51029039
:10428000401A019040286BDAC3F3130040F4801BFE
:104290000098924620B10023D2EB030A63EB0B0B8C
:1042A00001985946C0F140025046FFF799FF064673
:1042B0000D4650465946019A00F070F910EB08007F
:1042C0006141002487EA115284EAE7731A4340D01F
:1042D000009A62B3019A012A4FEA075215DC001BCB
:1042E00061EB02014FF0004202EA0752CDE90042C1
:1042F000001C41F5801132462B4600F070F903B0E6
:10430000BDE8F08F40462146F9E7001B61EB020152
:10431000001C41F5801300185B412018A2F500171E
:1043200047EB030140EAD570B6196D4111E06D0805
:104330004FEA360645EAC0754FEA0752001B61EBAB
:104340000201001C41F5801149084FEA30000019B4
:10435000514132462B4603B0BDE8F04F00F030B972
:104360000098012240000023D0EB020263EBE073CF
:10437000009821464FEAE074B8EB000061EB0401BD
:10438000E9E783F000435BE781F0004158E72DE95E
:10439000FE4F81EA030404F0004421F00041009440
:1043A0004FF0000B23F0004350EA01045ED052EAC4
:1043B00003045BD0C3F30A54C1F30A552C44A4F29E
:1043C000F3340194A0FB0254C1F3130141F48011B2
:1043D000C3F3130343F4801301FB024400FB034EB9
:1043E000840A970A44EA815447EA8357A4FB076882
:1043F00002958D0A05FB07854FEA932C04FB0C54AC
:104400002705029D4FEA065847EA1637B5EB08051F
:104410006EEB070C870E920E47EA811742EA831271
:10442000A7FB0201B6EB0B0164EB00042B0D43EA82
:104430000C335E1844EB1C50DA465146E7FB020190
:10444000C5F313044FEA0B3343EA14534FEA043223
:10445000019C43EA0603A4F10C040294009CCDE9FC
:1044600000B400F0BCF803B0BDE8F08F00200146B6
:10447000F9E72DE9F04D81EA030404F0004B21F047
:10448000004514464FF0000A23F0004150EA0502AF
:1044900020D054EA01021DD0C5F30A570246C5F3E5
:1044A0001303C1F31300C1F30A5640F4801543F41B
:1044B0008013A7EB0608101BD64608F2FD3873EBF5
:1044C000050002D308F1010801E092185B41B8F140
:1044D000000F03DA00200146BDE8F08D00204FF404
:1044E0008011064684460EE0171B73EB050705D3C3
:1044F000121B63EB050306434CEA010C49084FEA23
:10450000300092185B4150EA0107EDD152EA0300F6
:1045100012D082EA040083EA0501084305D0101B8B
:10452000AB4106D20122002306E000224FF00043F7
:1045300002E06FF0010253101AEB06004CEB085139
:1045400010EB0A0041EB0B01BDE8F04D00F038B86C
:1045500030B50B46014600202022012409E021FA53
:1045600002F59D4205D303FA02F5491B04FA02F550
:104570002844151EA2F10102F1DC30BD202A04DB23
:10458000203A21FA02F00021704721FA02F3D040CC
:10459000C2F120029140084319467047202A06DBE9
:1045A000CB17203A41FA02F043EAE07306E041FA01
:1045B00002F3D040C2F120029140084319467047EF
:1045C00010B5141E73F1000408DA401C41F100011B
:1045D00092185B411A4301D120F0010010BD2DE972
:1045E000F04D92469B4611B1B1FA81F202E0B0FA69
:1045F00080F220329046FFF7F3FD04460F4640EA72
:104600000A0041EA0B0153465A46084313D01146AB
:1046100053EA010019D0C8F140025046FFF7AEFF3F
:1046200005460E46504659464246FFF7D9FD084317
:1046300005D0012004E020463946BDE8F08D002079
:10464000054346EAE0762C4337430A986305E40ABB
:10465000A0EB08000022FD0A44EA47540A3002D5C4
:1046600000200146E9E7010510196941DDE9084527
:1046700000196941BDE8F04DA2E700002DE9F041C5
:10468000054621F000400C46284309D0C4F30A50E7
:1046900040F23341884205DD28462146BDE8F081DD
:1046A0002846FBE740F2FE31884210DC0CDB4FEA83
:1046B000043040EA155050EA053105D0104804F0A6
:1046C000004101430020E9E700200146E6E7A0F2AF
:1046D00033404642C6F1400228462146FFF780FD9E
:1046E00007468846284621463246FFF747FF43469D
:1046F0003A46FFF765FF3246BDE8F041FFF770BD6F
:104700000000F03FC1F30A52C1F3130140F2FF333E
:1047100041F480119A4202DA00200146704740F2CB
:1047200033439A42A2F2334202DC5242FFF726BFE1
:10473000FFF756BD30B5041E71F1000404DB4FF0E5
:104740000044404264EB0101141E73F1000405DBD8
:104750001C464FF00043524263EB04038B4208BFF8
:10476000824230BD30B5041E71F1000404DB4FF00D
:104770000044404264EB0101141E73F1000405DBA8
:104780001C464FF00043524263EB0403994208BFBA
:10479000904230BD064C074D06E0E06840F0010352
:1047A00094E8070098471034AC42F6D3FFF74CFC6E
:1047B000580C0101980C010170B58C1810F8015BC0
:1047C00015F0070301D110F8013B2A1106D110F8AA
:1047D000012B03E010F8016B01F8016B5B1EF9D1AE
:1047E0002B0705D40023521E0DD401F8013BFAE734
:1047F00010F8013BCB1A921C03E013F8015B01F89F
:10480000015B521EF9D5A142D8D3002070BD000033
:1048100010B51E480068002800D080471C490020C1
:104820000870811E1B4801601B494FF00070086032
:104830001A4CD4F8C002800704D4F42218A11DA099
:1048400003F40CF32A480168D4F8C40261F31D3064
:1048500040F00100C4F8C40202F452F100214FF00C
:104860003040C1608161C1174161016202F404F10D
:1048700008484038016821F4800101601D48006843
:10488000002802D0BDE81040004710BD6024800021
:104890003C48800044C500A080E200E000E000A0A9
:1048A000727769705F736C6565705F636F6D6D6F54
:1048B0006E2E63004D43555F5355422D3E424C458D
:1048C0005F44534C4545505F434F52525F454E2025
:1048D00026204D43555F5355425F424C455F44533C
:1048E0004C4545505F434F52525F48575F454E001D
:1048F000542480006424800000214FF03040C160C7
:104900008161C117416101620649022004220A60E7
:10491000BFF34F8FBFF36F8F0860BFF34F8FBFF3AD
:104920006F8F704780E100E004490220C1F8000168
:104930000860BFF34F8FBFF36F8F704780E100E0D7
:10494000FEE703F075BE00000249096801F00701A7
:104950000170704704C500A030B4062821D2124966
:104960000A6802F00702824212D00A680F4B1A400E
:104970000F4C22430A6000BF00BF00BF00BF0A689F
:104980001A400C4B024333F8203042EA83420A605B
:104990000849183951F820000749486030BC74F4C0
:1049A000299330BC7047000004C500A0F8FFE3FF66
:1049B000050008000C040101004180000448006863
:1049C000044900F0070051F820000349486070478F
:1049D00004C500A0F4030101004180000248016801
:1049E00041F470010160704788ED00E00248006802
:1049F000001D1CF431960000D0428000024840683F
:104A0000001D1CF429960000D0428000FEE7000043
:104A10000FB4054B10B503A9044A029800F09AF9A7
:104A200010BC5DF814FB0000519200010C438000A3
:104A30000FB41CB50246002007AC00290BD0491E5C
:104A4000CDE90021054B6A462146069800F082F91F
:104A5000009A002111701CBC5DF814FB8354000106
:104A60000FB4084B10B504A902AA039800F072F91C
:104A7000044602A9002000F00FFD204610BC5DF89E
:104A800014FB0000995400017CB5044600201D462B
:104A9000164600290BD0491ECDE90041044B6A4659
:104AA0002946304600F056F9009A002111707CBD6D
:104AB00083540001002804DB00F1E02090F800049A
:104AC000704700F00F0000F1E02090F8140D7047DF
:104AD00010B52DED020B2DED088B84B09DED0C0B68
:104AE00051EC100BFFF7CAFD41EC180B9DED0C0BC0
:104AF00053EC182B51EC100BFFF743FC41EC190B56
:104B00000D989FED290B10F0004F53EC102B51EC3A
:104B1000190B9FED21AB9FED22BB0ED0FFF70AFED4
:104B20000ED953EC1B2B51EC190BFFF71BFE1CD2BB
:104B300014E000BF41EC180B17E0FFF7FBFD06D2B5
:104B400053EC1A2B51EC180BFFF71BFCF2E753EC5C
:104B50001B2B51EC190BFFF705FE06D853EC1A2B53
:104B600051EC180BFFF76CFBE4E78DED028B9DED2C
:104B70000C0B18EE901A10EE900A8DED000B61F3FD
:104B80001E0003909DED020B04B0BDEC088B02B03B
:104B900010BD000000000000000000000000F03F19
:104BA000000000000000E03F000000000000E0BF47
:104BB00002E008C8121F08C1002AFAD170477047E6
:104BC000002001E001C1121F002AFBD17047000044
:104BD0002DE9FF5F82B00021DDE90430020DDDF830
:104BE00040B0034318D044F61050A2F2FF324243C3
:104BF0001514119801281FD0A5EB0B00401C5FEA8B
:104C0000000A4FF000064E4FDFF83891B04650468C
:104C100015D5CAF1000413E0119801244AA3012814
:104C200001D16FEA0B010298119AC0E90031C0E985
:104C3000024206B0BDE8F09FCBF10000DFE704467A
:104C40000021404A491842EB0450CDE9001012E01F
:104C5000E00707D032463B4640464946FFF797FB00
:104C60008046894632463B4610461946FFF78FFB81
:104C700006460F466410002CEAD1DDE90401DDE9A7
:104C80000023BAF1000F06DAFFF781FB42464B46DC
:104C9000FFF77DFB05E0FFF7ECFB42464B46FFF7D5
:104CA000E8FB04460E460022284BFFF75BFD03D8C5
:104CB0004FF0FF30014607E00022254B20463146E9
:104CC000FFF7BEFAFFF71EFD102409E0002C0ADBF7
:104CD0000A220023FFF7D2F9039B30321A55641ED3
:104CE00050EA0102F2D1641C039AC4F11103144486
:104CF000119A012A03D0012208430DD10AE008438A
:104D000004D000204FF0110B119072E7A3EB0B05BC
:104D10006D1E0DE05B4504DD4FF0000205F101055D
:104D200004E003DA4FF00002A5F10105002AECD0FF
:104D300002981199C0E90231C0E9004579E7000005
:104D4000000014400000F03F300000000000F0437D
:104D50000000E03F2DE9FF4F95B09B46894606468F
:104D600000250FE2252877D100242746F84A0121A3
:104D7000059400E0044316F8013F203B01FA03F0DC
:104D80001042F7D130782A2811D06FF02F033078F5
:104D9000A0F13002092A16D8059A44F0020402EB69
:104DA000820203EB42021044761C0590EFE759F8AB
:104DB000042B0592002A03DA504244F40054059073
:104DC00044F00204761C30782E2816D116F8010F14
:104DD00044F004042A280DD06FF02F023078A0F19F
:104DE0003003092B09D807EB870302EB4303C718ED
:104DF000761CF3E759F8047B761C30786C280FD0CA
:104E000006DC4C2817D068280DD06A2814D104E09D
:104E1000742810D07A280FD10DE044F400140AE071
:104E200044F4801401E044F440147278824202D1C8
:104E300004F58014761C761C307866280BD013DCC1
:104E4000582877D009DC002875D04528F6D04628A8
:104E5000F4D047281AD19DE118E0632835D06428A2
:104E600079D0652812D195E1702873D008DC6728C5
:104E7000F1D069286FD06E280DD06F2806D1B5E02B
:104E800073282CD0752875D0782874D05A46179975
:104E900090476D1C75E1C4F30250022809D0032825
:104EA0000DD0D9F8001004280DD00D6009F10409C7
:104EB00067E1D9F80010EA17C1E90052F6E7D9F81E
:104EC00000100D80F2E70D70F0E719F8041B8DF863
:104ED000001000208DF80100EA46012003E059F897
:104EE00004AB4FF0FF3061074FF0000102D40DE03A
:104EF00008F101018846B9420FDA8045F8DB1AF85B
:104F000008100029F4D108E008F101018846814227
:104F1000FADB1AF808100029F6D105985B46A0EBD9
:104F2000080721463846179A00F094FA284400EB07
:104F3000080507E04DE029E10DE01AF8010B5A469B
:104F400017999047B8F10108F7D25B4621463846D9
:104F5000179A13E142E00A220092C4F302524FF082
:104F6000000A022A08D059F804CB032A4FEAEC7150
:104F70000AD00DE029E02AE009F1070121F007023B
:104F8000F2E802C1914609E00FFA8CFC4FEAEC719D
:104F9000042A03D14FFA8CFC4FEAEC71002907DA9E
:104FA0000A460021DCF1000C61EB02012D2202E037
:104FB000220504D52B228DF80420012203E0E2070C
:104FC00001D02022F7E7904659E00A2102E01022A2
:104FD0000DE010214FF0000A00910BE010224FF07D
:104FE000000A44F004040827009203E008224FF06E
:104FF000000A0092C4F30252022A05D059F804CBE9
:105000000021032A08D009E009F1070121F0070275
:10501000F2E802C1914605E01FFA8CFC042A01D196
:105020000CF0FF0C4FF00008220728D5702806D09E
:10503000009B83F0100353EA0A0305D00EE04022E0
:105040008DF80420012208E05CEA010206D030223B
:105050008DF804208DF8050002229046009B83F015
:10506000080353EA0A030AD15CEA010201D162078C
:1050700005D530228DF804204FF001087F1E5828F6
:1050800004D034A003900EA802900DE036A0F9E7FA
:1050900053466046009AFEF7F1FF84460398825C0F
:1050A0000298401E029002705CEA0100F0D1029862
:1050B00006A9081A00F1200A600702D524F48034FA
:1050C00000E00127574502DDA7EB0A0000E00020C1
:1050D00000EB0A01009005984144401A0590E00356
:1050E00006D45B462146179A059800F0B3F90544AB
:1050F000002706E001A85A46C05D179990476D1C2D
:105100007F1C4745F6DBE0030CD55B462146179A2A
:10511000059800F09FF9054404E030205A4617999D
:1051200090476D1C0099481E00900029F5DC08E0AE
:10513000029802995A460078491C029117999047A3
:105140006D1CBAF10001AAF1010AF1DC65E1000071
:10515000092801003031323334353637383961624D
:105160006364656600000000303132333435363711
:1051700038394142434445460000000000F058F9E8
:105180000544761C307800287FF4ECAD19B0284631
:10519000BDE8F08F620700D4062709F1070222F06C
:1051A000070CFCE80223E14603F000485FEA080C24
:1051B00002D00FF2702C0DE05FEA045C02D50FF212
:1051C000682C07E05FEAC47C02D00FF2602C01E09B
:1051D000AFF2700C4FF0FF3823F00043CDF850C011
:1051E00065280CD006DC452809D046281DD0472864
:1051F0003DD13DE0662818D067287ED138E00021F7
:10520000112F01DB112000E0781CCDE9000106A977
:105210000EA8FFF7DDFCDDE90F010E9A03910021D6
:10522000009207F1010A04914DE04FF00040009711
:10523000CDE9011006A90EA8FFF7CAFCDDE90F02AF
:1052400003920E9B11990022DDF80CA000930492AA
:1052500011B9791C00EB010AB7EB0A0004D4C0F1C4
:10526000FF3007F1010A0490AAEB0700019044E027
:10527000012F00DA01270021112F01DD112000E0AC
:105280003846CDE9000106A90EA8FFF7A1FCDDE92B
:105290000F010E9A0391002104910092BA46210752
:1052A0000CD40399514500DA8A46BAF1010F05DDA5
:1052B000009AAAF10101515C302908D0B84202DA03
:1052C00010F1040F06DA0121CDE9011015E0AAF171
:1052D0000101E9E7002805DC049901440491AAEBE7
:1052E000000102E0411C514500DD8A460499401A44
:1052F000401C01904FF000400290200704D4019818
:10530000504501DBCDF8048000208DF84F00029855
:105310000DF14F07B0F1004F25D02B200E900298D1
:105320004FF0020800280CDA404202902D200E9027
:1053300007E00A210298FFF70BF93031029007F8D5
:10534000011DB8F10001A8F10108F2DC0298002863
:10535000EFD1791E0E980870307800F0200040F0F0
:10536000450007F8020D12A8C01B00F107081498A9
:10537000007800B1012000EB0A01019801EBE07117
:1053800005984144401A401E0590E00306D45B4650
:105390002146179A059800F05DF8054414980078A6
:1053A00018B15A46179990476D1CE00324D55B4607
:1053B0002146179A059800F04DF805441CE0049822
:1053C000002807DBDDE90301884203DD0098405C2B
:1053D000179901E0179930205A469047049805F133
:1053E0000105401C04900198401E019004D12E201C
:1053F0005A46179990476D1CBAF10001AAF1010AAB
:10540000DDDC05E017F8010B5A46179990476D1C33
:10541000B8F10001A8F10108F4DC5B462146179AB7
:105420000598ABE62D0000002B00000020000000D6
:105430002DE9F041044600251E461746880404D491
:1054400005E039462020B0476D1C641EF9D528467A
:10545000BDE8F0812DE9F041044600251E46904646
:10546000C80301D5302700E02027880404D505E0D3
:1054700041463846B0476D1C641EF9D52846BDE844
:10548000F0814A68002A06D00A68531C0B6010702D
:105490004868401E486070470A68531C0B601070D3
:1054A000704700000449896B084004490A7810439A
:1054B00000220A7070470000002001A0C044800054
:1054C00006460F46154672B63846FEF73FFE4028A0
:1054D00001D9402002E03846FEF738FE80463046CB
:1054E000FEF734FE402801D9402002E03046FEF7A6
:1054F0002DFE04469C211048FEF71DFE424639460B
:105500000D48FEF7FFFD0C48224631465C30FEF7A1
:10551000F9FD09484FF0AA31016445644FF0BB31F1
:1055200081644FF0CC3101654FF0DD3181650020A1
:1055300000F004F8FEE700001489800030B5ADF2F9
:105540000C4D04464FF4806103A8FEF7F4FD184D9E
:10555000202085F83F0085F89B003CB12846012CAF
:10556000436DC26C09D0022C0CD00FE0104A11A17F
:105570005C3203A8FFF774FA08E011A103A8FFF753
:105580006FFA03E016A103A8FFF76AFA03A90BA2BA
:10559000686CCDE90121009018A3054A18A10020EC
:1055A00000F000FB00F0CAFA0DF20C4D30BD000017
:1055B000148980005B4552524F525D2025730000D4
:1055C0005B5741524E494E475D20506172616D30CC
:1055D0003A25642C506172616D313A2564000000F7
:1055E0005B504152414D5D20506172616D303A25F2
:1055F000642C506172616D313A2564000000000036
:105600006170705F6173736572742E6300000000D7
:10561000014876F431910000F042800006460F46C2
:1056200090461D4672B64046FEF790FD402801D9CF
:10563000402002E04046FEF789FD04469C210D48CB
:10564000FEF779FD224641460A48FEF75BFD094810
:105650004FF05531016445644FF066318164C66492
:105660004FF0773101654765C94381650220FFF737
:1056700065FFFEE7148980002DE9F04106460F46DC
:1056800090461D464046FEF761FD402801D9402066
:1056900002E04046FEF75AFD04469C210D48FEF705
:1056A0004AFD224641460B48FEF72CFD09484FF0C3
:1056B00011310164456449008164C6644FF033319F
:1056C000016547654FF044318165BDE8F041012037
:1056D000FFF734BF14898000024901480860704711
:1056E00004FF0104ACE200A00AF078BA2DE9F04111
:1056F000082802D30820BDE8F0811A4D00EB4000D5
:1057000005EB40142078D0B1EFF31086012080F330
:105710001088201D04F0BEFE00272770FF20207196
:10572000002000EB400105EB41110978012903D06D
:10573000401CC0B20828F4D3082802D00DE009208C
:10574000D9E7094CB4F9020008F032FA4FF0FF3003
:1057500060802770032016F46CD586F31088002033
:10576000C9E70000E0838000C8428000082801D318
:105770000020704700EB4001044800EB4110017825
:1057800009B1001D7047002070470000E0838000D1
:105790002DE9F0470646894600244FF0FF3847467A
:1057A0004FF0010A002E16D03949032009F048FCB9
:1057B000307990B1012810D002280ED003280CD0E7
:1057C00004280AD0052808D0062806D0072804D0C7
:1057D0004046BDE8F0870520FBE7EFF3108201218A
:1057E00081F310882B4D012304EB440105EB41119B
:1057F00091F800C0BCF1000F03D091F804C08445BB
:105800000CD104EB440005EB401090F82D00022869
:1058100002D027460B7005E0082403E0641CE4B2C4
:10582000082CE1D382F31088082C2BD2DFF868A073
:105830009AF8000038B98AF800300321174808F0B8
:1058400079F9AAF8020004EB440105EB411530791F
:10585000287105F10800242206F10801FEF752FC28
:105860000F4868630F48E86300202864C5F85C901F
:10587000032016F4D1D4032016F4ECD4281D04F030
:1058800039FE8246BAF1000F00D047463846A0E7FD
:1058900079498000E0838000C8428000240401012F
:1058A000518E0001D58D000110B50C46062833D26B
:1058B000DFE800F0030303101E27184951F83000F9
:1058C0002104090C04D018B1214604F0FBFF1FE0AD
:1058D000042010BD2004000C03D0A1B2104804F035
:1058E000F1FF200C14D0210C0E4804F0EBFF0FE068
:1058F00014F0FF0F03D0204604F04EFC08E0042013
:1059000010BD14F0FF0F05D02146002005F04CF823
:10591000002010BD042010BD062010BD440401016C
:10592000000001A0001001A070B58EB005460C4625
:10593000564901F164004DC8CDE90A02CDE90C36A3
:10594000D1E91E23486F06AED1F880100DC609912B
:1059500014224E49843101A8FEF7D4FBACB14C4966
:10596000062009F06DFB4B49072009F069FB4A4905
:10597000122009F065FB4549444A2C31062D7CD2A2
:10598000DFE805F006060621415905200EB070BD7E
:10599000207931F810000B90607932F810000C90EB
:1059A000A0790D9020680A903848143050F83500DE
:1059B00021880904090C04D018B10AA904F0D0FF09
:1059C00059E00420E2E7207931F810000B9060796B
:1059D00032F810000C90A0790D9020680A90206891
:1059E0000104090C05D080B20A900AA92B4804F0E2
:1059F000B7FF2068010C3ED0000C0A900AA9284885
:105A000004F0AEFF37E0207901EB4000408A0790B8
:105A1000607902EB4000C0880890A0790990206866
:105A20000690207810F0FF0F03D006A804F006FCC3
:105A300021E00420AAE72079031F032B01D80720C7
:105A4000A4E702281AD001200290207901EB40003F
:105A5000808C0390607902EB400080890490A079EB
:105A6000059020680190207810F0FF0F09D001A95F
:105A7000002004F0F1FF002088E704E002200290FB
:105A8000E3E7042082E7062080E7000030040101FC
:105A9000DB498000D5498000D1498000000001A089
:105AA000001001A070B50C461546002D03D0012D45
:105AB00001D0042070BD06282BD2DFE800F00303DC
:105AC000030E1E23144951F8300020B1A1B22A461A
:105AD00014F410D01BE0042070BD2004000C04D08E
:105AE000A1B22A460D4814F405D0200C0FD0210C89
:105AF0002A460B4813F4FED709E0A0B2294604F069
:105B0000F1FB04E0A1B22A46002004F0A8FF002027
:105B100070BD062070BD000044040101000001A01A
:105B2000001001A0002806D0002904D0024AD26942
:105B3000002A00D010477047B08A80000248006AEF
:105B4000002800D000477047B08A800070B50D462D
:105B500016460D4C00280AD00178032911D80121DE
:105B6000A17601461A222046FEF7CCFA05E0002075
:105B7000A0761A210448FEF7DEFAE56126620020CD
:105B800070BD012070BD0000B08A8000044A10443E
:105B9000807D084201D0012070470020704700003E
:105BA000B08A80002DE9FE4FDDF830B006469246FF
:105BB000994600240027019702975A480178B1427C
:105BC00002D2807E00287DD10DF13808CDF800800A
:105BD000EFF311850220FEF76DFF01465248006881
:105BE000C0F30220401C012282408818C0B280F31A
:105BF000118801213046FFF7C9FF38B14B484C49A5
:105C000050F82620204600F0A5F804461C21304616
:105C1000FFF7BCFF00285ED046A24549204600F0B1
:105C200099F8204484B204213046FFF7AFFFF8B161
:105C300052463F49204600F08DF8204484B20821A6
:105C40003046FFF7A3FF38B13BA23949204600F0A8
:105C500081F8204484B20BE010213046FFF796FF14
:105C600030B136A23249204600F074F8204484B2A4
:105C700008213046FFF78AFF90B14A462C4920465A
:105C800000F068F8204484B210213046FFF77EFF10
:105C900030B12BA22649204600F05CF8204484B2A3
:105CA00010213046FFF772FF70B15B4626A2052136
:105CB00001A8FEF7BDFE01AA1D49204600F04AF8E2
:105CC000204400E02BE084B220A21949204600F0D5
:105CD00041F8204484B21648C4F5807120444346FC
:105CE0000D9AFEF7D1FE00974FF48071002804DB77
:105CF0002044884201DC86B200E00E46B01C884297
:105D000000D9FE2612A20A49304600F023F830449A
:105D100081B20748FFF706FFE8B280F31188BDE8BB
:105D2000FE8F0000B08A80000CED00E0FC42800095
:105D3000B089800028000000200000003A00000028
:105D4000204C696E653A0000256C64002920000033
:105D50000D0A000030B50546002000290CD0002AAD
:105D60000AD006E02B18FF2B06D8CC54521C401C3E
:105D700080B21478002CF5D130BD000010B5FFF7CB
:105D8000ABFC02F02DFC02F059FC002072F46AD743
:105D9000BDE81040024A0349002002F06DBE000039
:105DA00058448000983A00010078012207490128F0
:105DB00000D10A70022800D14A70002804D10A706C
:105DC0004A7003A0FEF724BE704700006C438000B9
:105DD00051535049206572726F72206576656E74FA
:105DE0002121000030B58BB004462C216846FEF717
:105DF000A2F9E06C009094F850008DF804004FF484
:105E000080100490002005904FF480710691079057
:105E1000089009900A9000216846FFF7B9FC2178A4
:105E20000A4D55F82110A1F86800002802DA042074
:105E30000BB030BDFFF79AFC217855F821100863AC
:105E4000217855F82110C1620020F1E7DC42800082
:105E5000024B53F8200005F093BB0000DC428000A9
:105E60002DE9F0410446022C02D30820BDE8F08160
:105E7000504D55F8240038B190F86A1021B1406EA9
:105E8000817A012902D007E00920EFE74168007814
:105E9000FFF70AFD0028E9D155F82400406E817D06
:105EA000012905D10169007BFFF7FEFC0028DDD147
:105EB00055F82400406E90F82210012905D1C169DF
:105EC000007EFFF7F1FC0028D0D155F82400406E89
:105ED00090F82E10012906D1816A90F82400FFF76E
:105EE000E3FC0028C2D155F82400406E90F83A1027
:105EF000012906D1416B90F83000FFF7D5FC00284E
:105F0000B4D155F82400406E90F84610012906D10E
:105F1000016C90F83C00FFF7C7FC0028A6D126488A
:105F2000005716F486D155F82400002680F86A60E0
:105F300055F8240080F86C6055F8240080F87660ED
:105F400055F8240080F8756055F8240080F87460D6
:105F5000EFF31087012080F31088002055F82010FF
:105F600011B191F86A1019B9401CC0B20228F5D3DA
:105F700002280DD1DFF83C80A8F10408B8F902002E
:105F800007F016FE4FF0FF30A8F8020088F8006016
:105F900087F3108855F8240005F00EFB002886D101
:105FA00055F8240090F86B0008B945F824600020EB
:105FB0005CE70000DC428000EC04010170B504469F
:105FC0000E46022C01D3082070BD1D4D55F824004B
:105FD00040B190F86A1029B136B190F86C1029B12F
:105FE000022070BD092070BD052070BD012180F820
:105FF0006C1055F82400406E817A012904D1416863
:1060000000780022FFF74EFD55F82400314604F0D9
:1060100079FD0646300011D055F82400406E817A93
:10602000012904D1416800780122FFF73BFD55F8B2
:106030002410002081F86C00304670BD002070BD37
:10604000DC4280002DE9F04104460E461746022C42
:1060500002D30820BDE8F0811D4D55F8240048B159
:1060600090F86A1031B13EB137B190F86C1029B197
:106070000220EFE70920EDE70420EBE7012180F89B
:106080006C1055F82400406E817A012904D14168D2
:1060900000780022FFF706FD55F824003A46314605
:1060A00004F05EFE06468EB155F82400406E817AFB
:1060B000012904D1416800780122FFF7F3FC55F86B
:1060C0002410002081F86C003046C3E70020C1E7AF
:1060D000DC4280002DE9F04104460E461746022CB2
:1060E00002D30820BDE8F081224D55F8240048B1C4
:1060F00090F86A1031B13EB137B190F86C1029B107
:106100000220EFE70920EDE70420EBE7012180F80A
:106110006C1055F82400406E817A012904D1416841
:1061200000780022FFF7BEFC002211462046FFF750
:106130008FFE55F824003A46314604F045FF0646E6
:10614000002211462046FFF783FE8EB155F8240049
:10615000406E817A012904D1416800780122FFF75D
:10616000A1FC55F82410002081F86C003046B9E7F6
:106170000020B7E7DC42800070B50446022C01D352
:10618000082070BD114D55F8240018B190F86B101F
:10619000012901D0092070BDB0F96800FFF7A6FA07
:1061A000EFF31080012181F3108855F8242000219D
:1061B00082F86B1080F3108855F8240090F86A007C
:1061C00008B945F82410002070BD0000DC428000B2
:1061D00010B50178002803D0022903D3082010BD90
:1061E000052010BD0B4A52F8211089B191F86A20A0
:1061F00072B1EFF31084012282F31088921EA1F88D
:106200006820FFF7EFFD84F310880028E9D110BD66
:10621000092010BDDC4280002DE9F0410446069FB4
:106220001E46022C02D30820BDE8F0811D4D55F812
:10623000240048B190F86A1031B13EB137B190F8FE
:106240006C1029B10220EFE70920EDE70420EBE70D
:10625000012180F86C1055F82400406E817A0129E4
:1062600004D1416800780022FFF71CFC55F8240097
:106270003A46314605F098FB06468EB155F82400A3
:10628000406E817A012904D1416800780122FFF72C
:1062900009FC55F82410002081F86C003046C3E753
:1062A0000020C1E7DC4280007CB50224344B026848
:1062B0009A4201D1002403E0324B9A4200D10124DA
:1062C0008DF800100122304D002631B1012917D080
:1062D000022923D003292FD03AE0806B019055F892
:1062E000240080F8762055F8240080F8742055F8B2
:1062F000240080F87520214624A0FEF789FB27E0C2
:1063000041698069081AADF8040055F8240080F846
:10631000766055F8240080F8752019E0016A406A1B
:10632000081AADF8040055F8240080F8766055F896
:10633000240080F874200BE055F8240080F87620C3
:1063400055F8240080F8742055F8240080F8752052
:1063500055F8240080F86C6055F82400406E817A6E
:10636000012904D1416800780122FFF79BFB55F811
:106370002400016F002901D0684688477CBD0000D9
:1063800000C200A000C800A0DC4280002B2B2B2004
:106390004552523A2051535049256420786665721F
:1063A00020457272202E2E2E0D0A00002DE9F0439A
:1063B0008FB005460F462C78002D05D0022C05D352
:1063C00008200FB0BDE8F0830520FAE7354E05F14F
:1063D000600046F8240034490B2008F031FE3349B0
:1063E000172008F02DFE291D8846382210316846F6
:1063F000FDF788FE281D0FC807F050FD0028E0D1EA
:10640000DFF8AC9019F9040015F406D719F9040067
:1064100015F420D756F82400C0F8648056F82400FC
:106420000767543556F824000ECD001D0EC009F143
:10643000040056F8241050F82400086056F8240090
:1064400005F0BAF80028BCD156F8240005F066F92A
:106450000028B6D156F82400002580F8765056F86A
:10646000240080F8755056F8240080F87450371FC7
:106470004FF00108387858B987F80080032109F1F6
:10648000140007F057FB7880002801DA042098E711
:1064900056F8240080F86A8056F8240080F86C5082
:1064A00000208EE7DC428000C14A8000C94A80009B
:1064B000EC04010110B50446114822784FF0FF3179
:1064C00050F82220A2F87C10227850F82200A0F880
:1064D0007E10606B002801D1A16B71B120B1204604
:1064E00000F060F8002807D1A06B20B1204600F032
:1064F00009F8002800D1002010BD042010BD0000C4
:10650000E842800030B58BB004462C216846FDF788
:1065100012FEA06B009094F83D008DF804000F204F
:106520000390207878B1012002904FF4001004907D
:10653000C012059000210691206CB0F5E02F04D820
:10654000079108910DE00320EEE7B0F5702F04D815
:10655000102007900220089003E0202007900420DC
:10656000089009910A9100216846FFF711F92178F6
:106570000B4D55F82110A1F87E00002802DA042006
:106580000BB030BDFFF7F2F8217855F82110886480
:10659000217855F82110091DC1620020F0E70000A4
:1065A000E842800030B58BB004462C216846FDF7E8
:1065B000C2FD606B009094F83C008DF804000F2041
:1065C0000290207878B1002003904FF4801004905E
:1065D0000021059100130690206CB0F5E02F04D83F
:1065E000079108910DE00220EEE7B0F5702F04D876
:1065F000102007900220089003E02020079004203C
:10660000089009910A9100216846FFF7C1F82178A6
:106610000B4D55F82110A1F87C00002802DA042067
:106620000BB030BDFFF7A2F8217855F8211048646F
:10663000217855F82110091DC1620020F0E7000003
:10664000E84280002DE9F0410446022C02D30820E4
:10665000BDE8F081374D55F8240038B190F880102E
:1066600021B1806F817A012902D005E00920EFE78E
:1066700041680078FFF718F955F82400806F817D94
:10668000012903D10169007BFFF70EF955F82400B9
:10669000806F90F82210012903D1C169007EFFF7B5
:1066A00003F955F82400806F90F82E10012904D1C9
:1066B000816A90F82400FFF7F7F81F48005715F497
:1066C000B8D555F82400002680F8806055F82400DD
:1066D00080F88260EFF31087012080F3108800209B
:1066E00055F8201011B191F8801019B9401CC0B2B2
:1066F0000228F5D302280DD1DFF83880A8F104086C
:10670000B8F9020007F054FA4FF0FF30A8F8020081
:1067100088F8006087F3108855F82400001D05F004
:10672000CDFB55F8240090F8810008B945F82460A5
:1067300000208DE7E84280000C05010170B5047867
:10674000002803D0022C03D3082070BD052070BDA3
:106750000C4E56F8241059B191F8801041B1EFF366
:106760001085012181F31088FFF7A4FE38B901E0FC
:10677000092070BD56F82420012182F8811085F38C
:10678000108870BDE84280002DE9F8430446089D5A
:106790000F4690469946022C02D30820BDE8F883A4
:1067A000234E56F8240078B190F8801061B16FB193
:1067B000B8F1000F0AD0B9F1000F07D035B190F849
:1067C000821029B10220E9E70920E7E70420E5E784
:1067D000012180F8821054B156F82400806F817A2C
:1067E000012904D1416800780022FFF75BF9009588
:1067F00056F824004B46001D4246394605F0B4FBCE
:106800000546280012D056F82410002081F8820096
:1068100054B156F82400806F817A012904D141686F
:1068200000780122FFF73EF92846B7E70020B5E7D8
:10683000E84280002DE9F04104460D461746022C3F
:1068400002D30820BDE8F0811F4E56F8240048B15D
:1068500090F8801031B13DB137B190F8821029B174
:106860000220EFE70920EDE70420EBE7012180F8A3
:10687000821054B156F82400806F817A012904D126
:10688000416800780022FFF70DF956F824003A46D7
:10689000001D29461AF47AD0054695B156F8241001
:1068A000002081F8820054B156F82400806F817A6C
:1068B000012904D1416800780122FFF7F3F8284646
:1068C000C0E70020BEE70000E84280002DE9F04369
:1068D00089B005460F462C78002D05D0022C05D333
:1068E000082009B0BDE8F0830520FAE7314E05F134
:1068F0005C0046F824003049052008F0A1FB2F4930
:10690000042008F09DFB56F8241095F8580081F8F3
:106910008300291D884624220C316846FDF7F2FBCE
:10692000291D28780EC908F05FFF0028D9D1DFF8AB
:10693000909019F9040015F46FD419F9040015F4B6
:1069400089D456F82400C0F8788056F824000760EF
:1069500056F824001822083005F14001FDF7D2FB5B
:1069600009F1040056F8241050F82400486056F845
:106970002400001D05F0A2FA56F82400001D05F0C1
:10698000DFFA351F0127287850B92F70032109F14C
:10699000140007F0CFF86880002801DA0420A0E78F
:1069A00056F8240080F8807056F82410002081F8F2
:1069B000820096E7E8428000214B8000174B800060
:1069C0000C0501012DE9F8430F46089C90461E4630
:1069D000012802D00820BDE8F8831D4D686848B141
:1069E00090F8801031B13EB134B190F8821029B1E5
:1069F0000220F0E70920EEE70420ECE7012180F80F
:106A000082106868806F817A012904D1416800781A
:106A10000022FFF747F8009468683346001D42469D
:106A2000394605F0B9FB04467CB16968002081F85D
:106A300082006868826F907A012804D110785168CA
:106A40000122FFF72FF82046C5E70020C3E700002A
:106A5000E842800010B50446114822784FF0FF311B
:106A600050F82220A2F86810227850F82200A0F8EE
:106A70006A10606B002801D1A16B71B120B1204672
:106A800000F05EF8002807D1A06B20B1204600F08E
:106A900009F8002800D1002010BD042010BD00001E
:106AA000D042800030B58BB004462C216846FDF7FB
:106AB00042FBA06B009094F83D008DF804001D4847
:106AC0000099814205D121781B4A02EB01114968E6
:106AD00002910299F9B10099814201D10F200390EE
:106AE0004FF400100490C01205900020069007900B
:106AF00008900990A0200A9000216846FEF748FE01
:106B000021780E4D55F82110A1F86A00002804DA0A
:106B100004200BB030BD0720FBE7FEF727FE2178ED
:106B200055F821104863217855F82110091DC162DC
:106B30000020EEE7003001A02C050101D0428000CA
:106B400030B58BB004462C216846FDF7F4FA606B33
:106B5000009094F83C008DF804001D480099814293
:106B600002D14FF00F00029005D12078194901EBB6
:106B70000010006803900398D8B14FF4801004907F
:106B80004FF0000005904FF4807106910790089037
:106B900009900A9001466846FEF7FAFD21780E4DED
:106BA00055F82110A1F86800002804DA04200BB081
:106BB00030BD0720FBE7FEF7D9FD217855F82110FD
:106BC0000863217855F82110091DC1620020EEE705
:106BD000003001A02C050101D042800070B50446B0
:106BE000022C01D3082070BD144D55F8240018B1B3
:106BF00090F86D10012901D0092070BDB0F968002E
:106C0000FEF774FD55F82400B0F96A00FEF76EFD3A
:106C1000EFF31080012181F3108855F82420002122
:106C200082F86D1080F3108855F8240090F86C00FD
:106C300008B945F82410002070BD0000D042800043
:106C40002DE9F04106463478002E04D0022C04D3FE
:106C50000820BDE8F0810520FBE7134F57F824001A
:106C600048B190F86C1031B1012C06D090F86D004D
:106C7000012804D006E00920EBE70820E9E72046D8
:106C8000FFF7ACFFEFF31085012080F3108830464A
:106C9000FFF7E0FE20B957F82420012182F86D109B
:106CA00085F31088D5E70000D042800070B5044617
:106CB0001A4D55F82400703007F08AFE82B216464D
:106CC000A2B155F8240090F8011101290ED001213C
:106CD00080F80411802A0FD355F82400802200F197
:106CE0008001703007F089FE80260CE055F82410F2
:106CF000002081F8000170BD55F8240000F18001EA
:106D0000703007F07AFE55F82400324600F1800119
:106D1000001D1AF48FD60028EDD170BDD04280003E
:106D200070B50446022C01D3082070BD184D55F8EB
:106D3000240090B190F86C307BB181B17AB100261B
:106D400080F8026155F82400703007F0B2FE55F863
:106D5000240090F8001121B10AE0052070BD042044
:106D600070BD90F8011119B990F86C10012901D08B
:106D7000022070BD012180F800112046FFF796FF28
:106D800020B155F8241081F8006170BD002070BD5D
:106D9000D0428000704700002DE9F8430446464F7A
:106DA00057F82400061D022C7DD290F86C100029A3
:106DB00079D001297ED180F80111002157F82400F3
:106DC000D0E903231344027D02F00102D21D9D1875
:106DD0004268D36FC3F38003002BFAD090F80421EC
:106DE000A2B1364A1368491C90F83B20102A06D0FD
:106DF0008268B3FBF2F26A43B1EBC21FF3D957F8D2
:106E00002400703007F0E4FD85B226E0B0F824805D
:106E1000C58C001D1AF486D257F8240041F288333D
:106E200000EB0801491B8031001D2A461AF4C7D522
:106E3000E5E757F8240001227030694607F0DDFDD0
:106E400057F824004068C16FC1F340010029FAD00F
:106E50009DF8001001606D1EADB2002DE9D157F80C
:106E60002400703007F0B4FD0028C8D130684169B3
:106E70004906FCD5EFF31085012080F3108857F800
:106E80002400703007F0A4FD58B1EFF31081012009
:106E900080F310883068426842F08202426081F3D9
:106EA0001088002000E005E057F8241081F8010167
:106EB00085F31088BDE8F883D0428000044180004B
:106EC0002DE9F04389B0054688462C78002D06D080
:106ED0002AB1022C05D3082009B0BDE8F0830520B3
:106EE000FAE7384E05F1580046F82400D2E900319F
:106EF0000A467030194607F056FD291D894624229E
:106F00000C316846FDF7FEF8291D286D0EC909F001
:106F10002BF80028E0D12C490C2008F091F82B49DF
:106F20000D2008F08DF82A4800EBC40797F90100FE
:106F300015F472D197F9010015F48CD156F824009C
:106F4000C0F8649056F82400C0F8008056F8240079
:106F50001822083005F14001FDF7D4F856F8241046
:106F60007868486056F82400001D05F067FA56F866
:106F70002400001D05F098FA351F0127287850B924
:106F80002F7013480321103006F0D4FD68800028CC
:106F900001DA0420A0E756F8240080F86C7056F857
:106FA0002410002081F8000156F8241081F8010116
:106FB00056F8241081F8020156F8241081F80301D4
:106FC0008AE70000D0428000ED490001FD49000140
:106FD000D00401012DE9F04104461A4D55F8240072
:106FE000703007F0F5FC82B2164600277AB155F8EA
:106FF000240090F80111012909D0802A0ED300F154
:1070000080017030802207F0F8FC80260BE055F8F4
:10701000240080F800710020BDE8F08100F18001BB
:10702000703007F0EAFC55F8240080F8047155F838
:107030002400324600F18001001D1AF441D50028D9
:10704000EAD1E9E7D04280002DE9F04106460C463E
:10705000174604F1080520466EF4AED3C3B21B48B0
:10706000E1184268914202DD0320BDE8F081184931
:10707000184A006809681268891A081A001FE91876
:1070800081421CD94FF4004513A22946002000F488
:10709000E7F601F037FB30B118A22946002000F4D2
:1070A000DFF60820E1E71DA22946002000F4D8F60B
:1070B0003A4621463046BDE8F04109F0DFB83A468D
:1070C00021463046BDE8F04109F0D8B8D8328000FA
:1070D000D0238000CC238000523A353A4E56445398
:1070E0002061726561206973206265696E67206343
:1070F0006F6D7061637465642E0D0A00523A353A03
:10710000436F6D70616374696E67204E56445320FF
:107110006661696C65640D0A00000000523A353AF8
:10712000436F6D70616374696E67204E56445320DF
:107130007375636365737366756C0D0A00000000F8
:107140001FB50F4890F80201002818D068464DF48A
:10715000F1D0DDE900010B4CCDE90201E168084402
:10716000094920F07040486008464DF479D36078B2
:1071700018B1BDE81F4007F02FBD07F049FD1FBD46
:10718000C01A800000488000B41A800000207047B8
:1071900010B507F097FD07F0A9FD07F031FD07F0E6
:1071A00011FA08F0ADFD00F08FFB07F0B3FD00F021
:1071B00069FBBDE8104000F063BB07F087B9000031
:1071C00010B50446002C0CD0204600F0F5FA00283B
:1071D00007D104494968002903D02046BDE8104082
:1071E000084710BDA44580001CB5018840F2023359
:1071F000A1F2023299422FD00ADCB1F5807F15D07E
:10720000A1F5407101393DD1BDE81C4000F022BD1F
:10721000042A31D0A2F50072FE3A33D14188002908
:1072200030D1C088BDE81C4067F4B49616A0A021F8
:10723000CDE900101B4B1CA223A10320FEF7B2FCDA
:1072400001F080F901F0D4F800F0F0FCBDE81C403A
:107250001F49002000F0D0B81EA0AC21CDE90010DD
:10726000104B11A218A10320FEF79CFCBDE81C40A6
:107270001749002000F0C0B80079BDE81C4001218A
:107280005FF492941CBD00003E3E3E20456E746546
:107290007220626F6F746C6F61646572204F54412D
:1072A00000000000400801012E2E5C5372635C75E3
:1072B0007365725C626F6F746C6F616465725F6F2F
:1072C00074612E63000000004E4F5F544147000080
:1072D000664480003E3E3E20446973636F6E6E6577
:1072E0006374656420616E64207265737461727486
:1072F000206164762E0000002DE9FC410446002543
:10730000EFF311863348017833480068C0F3022058
:10731000401C012282408818C0B280F3118868F4B2
:10732000E5D70746002000900190B4B106226946D7
:107330002046FCF712FF48B1A079012806D80ED1EB
:1073400061794FF00302B2EB911F08D023A2102104
:10735000002000F485F51D2532E0022530E0DFF83D
:10736000948010B1012822D02AE022460621012073
:1073700000F00AFA98F81C0120F0010088F81C01BE
:10738000B8F8020040F00200A8F8020006234B22E1
:10739000072140F6B35064F4CDD230B121680160CA
:1073A000A188818064F40CD30AE0102508E020460F
:1073B00061F4EAD198F81C0140F0010088F81C0142
:1073C000384668F45DD7F0B280F311882846BDE8EE
:1073D000FC81000002E400E00CED00E0523A313A9A
:1073E0006164647220697320696E76616C69640AF5
:1073F000000000007C2780002DE9F84307460D4679
:10740000EFF311865948017859480068C0F302200B
:10741000401C012282408818C0B280F3118868F4B1
:1074200065D78046052F06D352A21021002000F414
:1074300017F5152487E09DB15148C7EBC70100EB54
:107440008104E06860B1607A08B166F4A9D6607A18
:1074500068B14CA21021002000F402F50F2472E064
:107460004BA21021002000F4FBF402246BE0206901
:10747000F8B9E068017841B1012910D047A2102184
:10748000002000F4EDF423245DE08078400710D460
:1074900045A21021002000F4E3F4232453E0807877
:1074A000800706D443A21021002000F4D9F423243D
:1074B00049E0E06841888A0704D50278012A01D1B1
:1074C00062691AB10278022A07D008E03CA21021B2
:1074D000002000F4C5F4252435E0A26962B1090753
:1074E00011D5298809B180290DD938A21021002091
:1074F00000F4B6F4262426E037A21021002000F480
:10750000AFF424241FE0407802280CD1288818B159
:1075100044F25061884206D932A21021002000F4C2
:107520009FF426240FE0E06928B90021042064F4C8
:10753000DBD1E061B8B1E06929680160394600201B
:1075400069F430D000243B4629A210210020009489
:1075500000F486F4404668F493D6F0B280F31188C4
:107560002046BDE8F8831024EDE7000002E400E0C7
:107570000CED00E0523A313A453A310A0000000081
:107580007C278000523A313A453A330A0000000025
:10759000523A313A453A320A00000000523A313A42
:1075A000453A360A00000000523A313A453A340A68
:1075B00000000000523A313A453A350A0000000016
:1075C000523A313A453A370A00000000523A313A0D
:1075D000453A390A00000000523A313A453A380A31
:1075E00000000000523A313A453A31300A000000BA
:1075F000523A313A6164765F73746172745B2564E8
:107600005D3A20453A3078253032780A0000000093
:1076100070B504460D46204607F0CEFB002804D185
:107620002946204662F472D580B270BD70B5054619
:107630000E46002D05D00D4866F496D784B214B1DD
:1076400010E0022070BD142074F408D4014659B132
:107650000D61CE60064A50780871401C5070101DB4
:1076600005F0F6F8204670BD102070BDCC09010170
:107670003C46800070B504460D46204607F09CFB52
:10768000002805D129462046BDE8704062F4849662
:1076900070BD00002DE9F04119A24021002000F446
:1076A000DFF3EFF311841E4801781E480068C0F331
:1076B0000220401C012505FA00F00844C0B280F306
:1076C000118868F413D606465EF490D1002116485E
:1076D0000368164809E001EB410203EB82121778B8
:1076E000012F00D15572491CC9B202789142F2D3E0
:1076F000304668F4C5D5E0B280F31188BDE8F0816A
:10770000523A333A73646B20676174747320736503
:107710007276206368616E676564210A000000006C
:1077200002E400E00CED00E0DC228000E4238000B5
:1077300070B504460D46204607F03EFB002804D1F4
:107740002946204663F414D180B270BD00B58BB0D9
:10775000094901200870FF22282101A8FCF7E4FC58
:107760004FF48070ADF804000020ADF8060001A8C9
:10777000FFF726FD0BB000BDA445800010B540F416
:10778000404005F029FC10BD10B540F4404005F024
:1077900097FC10BD044901600449416004498160BF
:1077A0000449C1607047000041C2060015C20600CE
:1077B000897700017D77000170B50446002C1FD049
:1077C0004FF6FF731946228840F20155A2F201508C
:1077D0004FF48076AA424CD01BDC40F20245A2F264
:1077E0000240AA4234D00DDCA2F54072013A25D005
:1077F000012A23D0FF2A29D0B2422ED121892CE0A0
:10780000002070BD012825D0022825D0FE2824D1D3
:107810002AE004282DD006DC01282AD0022828D00E
:1078200003281AD125E0052823D0062821D0B0420C
:1078300013D1204602F018FA002070BD204602F055
:107840009DFB204602F08EFA002070BD218904E0E5
:10785000218902E0618900E0218A99420ED0204608
:1078600002F09CFB012070BD204602F00FFB0020BF
:1078700070BD204602F086FA002070BD002070BD69
:107880007047000004490348086005490348086040
:1078900070470000899500010C22800019970001B3
:1078A000182280000148007870470000644880007A
:1078B0007CB5DDE90654CDE9005466F493D1BDE80A
:1078C0007C4006F03DBD0000024901480860704759
:1078D000B17800014823800010B588B0044666F4F2
:1078E0000FD40020079007A854F4B6D20798FFF7EA
:1078F00051FF2068019060680290A0680390E068E2
:107900000490208AADF81400608AADF81600A08AB1
:10791000ADF81800E08AADF81A0001A854F4C6D2F8
:1079200054F4A6D20348016801614168416108B07E
:1079300010BD0000300100B02DE9F04104460025E3
:10794000EFF311862748017827480068C0F302202A
:10795000401C012282408818C0B280F3118868F46C
:10796000C5D407462CB12179C81F0A2803D30125A5
:107970002BE0022529E02078022801D0052804D137
:10798000E278520701D401251FE003280AD1E278EA
:10799000530701D5120701D4012516E0102901D2A1
:1079A000012512E0042801D0052807D1607940F0B4
:1079B00004006071A07940F00400A0710B482168B8
:1079C0000160A1888180A179817101205FF4B8D71D
:1079D000384668F455D4F0B280F311882846BDE8E3
:1079E000F081000002E400E00CED00E0F0238000F4
:1079F0000A460146002005F09DBC30B58568027B33
:107A0000002D02D0002001210CE0104630BDCB0833
:107A100001F00704EB5CE340DB0701D0401CC0B27F
:107A2000491CC9B28A42F2D830BD0000002308497F
:107A3000496808E0CA88824204D80A89824201D390
:107A4000CB6802E009680029F4D1184670470000AD
:107A50003C46800001460548406803E002798A42BE
:107A600002D000680028F9D1704700003C46800031
:107A700070B5104E3078FFF7EDFF0446200006D0B9
:107A8000206962F467D50546280002D00DE00C207D
:107A900070BD2069FFF7B1FF0146206902681288B6
:107AA000E28000680088084420813078401C3070F3
:107AB000E8B270BD3C46800010B5084A1378002B30
:107AC00001D00F2010BD31B150600448243000F0C7
:107AD00007F8002010BD022010BD0000A445800062
:107AE0002DE9FC4705460C46FFF752FB68F4FED330
:107AF00007463648006800B180473549012007F045
:107B00009FFA3449022007F09BFA0120FCF7F2FAB1
:107B1000A08E81B2206B02F093F8DFF8BC90DFF802
:107B2000BC80E16999F8000098F800200244B1FB9C
:107B3000F2F1CEB216FB00F1A06964F437D42868E4
:107B400062F4C6D768685EF4D3D6286966F472D347
:107B5000A86861F46BD1E86861F410D220484BF456
:107B600099D520484BF49CD51F484BF49FD51F480E
:107B700054F4C8D11E484BF443D51E484BF446D5A7
:107B80001D484BF449D51D4864F4E4D34FF08060A0
:107B900071F4AED22046FFF79FFED4E90A01CDE989
:107BA000000199F80010A06916FB010098F8001078
:107BB00016FB01F1D4E90823114C2468A04738468C
:107BC00068F45ED3BDE8FC4764F4A8948026800086
:107BD00039380600DD37060029D507002AD5070009
:107BE000119F0700B9C3060065C40600EDAF07008A
:107BF00025ED060045ED060065ED0600799B0700C2
:107C000048238000034900EB800001EB800080885E
:107C100070470000A0468000034A00EB800002EBA2
:107C20008000818070470000A046800010B50848A1
:107C30005EF4BED1064C2078401C20702046FFF731
:107C40005BFBA079002802D10120A11F087010BDA4
:107C50006A44800010B5084C207800280BD0A01D85
:107C60000178491E0170024606214CF2010005F020
:107C700027FA0020207010BD644480001CB50E4817
:107C80008168006801440C481830026991420BD9A0
:107C90000AA0A321CDE90010184B19A222A10320AC
:107CA000FDF780FF00201CBDD0E90212006802B081
:107CB000BDE8104000F00CBB30FB800020202020ED
:107CC00041707020646675206669726D77617265B7
:107CD000206C6F61642061646472657373206F76D9
:107CE00065726C6F616420626F6F746C6F61646544
:107CF00072206669726D7761726500009A080101F1
:107D00002E2E5C5372635C757365725C626F6F7468
:107D10006C6F616465725F626F6F745F76656E64CD
:107D20006F722E63000000004E4F5F544147000009
:107D30002DE9FC4128212F48FCF7FDF928222D4987
:107D40002D4802F065FD2B480C221C302BA1074664
:107D5000FCF703FA274D002813D1D5E90112E86892
:107D600000F0B6FA68B129A04FF48771CDE9001090
:107D7000334B34A23DA10320FDF714FF0120BDE8E1
:107D8000FC8100243B4E04EB840006EBC00028225B
:107D9000184902F01DFD0C2218A13846FCF7DDF948
:107DA000002821D1D5E90112E86800F091FA0028F5
:107DB0001AD0104800F096F82FA04FF48D71CDE93D
:107DC00000101F4B1FA229A10320FDF7EBFE38A0D6
:107DD00040F21B11CDE90010194B1AA223A1032078
:107DE000FDF7E0FE0120CAE7641CE4B20A2CCAD306
:107DF0000020C4E778FB800000200001626C655F12
:107E00006170705F74656D7000000000202020209C
:107E1000466F756E6420617070206669726D77615F
:107E2000726520696D61676520696E666F20696E95
:107E30002041505020494E464F20415245410000BC
:107E4000E90801012E2E5C5372635C757365725CE8
:107E5000626F6F746C6F616465725F626F6F745F85
:107E600076656E646F722E63000000004E4F5F54A3
:107E7000414700004000000120202020466F756E21
:107E80006420617070206669726D77617265206927
:107E90006D61676520696E666F20696E2053595366
:107EA00054454D20434F4E464947204152454100DD
:107EB00020202020557064617465206170702066F8
:107EC00069726D7761726520696D61676520696EA1
:107ED000666F20746F2041505020494E464F20411C
:107EE0005245410070B5054607F028F8074C4FF49D
:107EF0008051204602F01EFC28222946204602F02E
:107F000097FCBDE8704007F039B800000020000180
:107F10004FF48051014802F00DBC00000030000118
:107F20001CB5302219491A4802F072FC30280BD0D7
:107F300018A0AE21CDE900101F4B20A229A10320DB
:107F4000FDF730FE00201CBD10482849C06A884259
:107F50000AD127A0B421CDE90010174B17A221A107
:107F60000320FDF71FFE0CE02B4988420BD12BA00C
:107F7000B821CDE90010104B10A21AA10320FDF783
:107F800011FE01201CBD00201CBD000048FB80002C
:107F90000030000120202020426F6F746C6F6164FC
:107FA00065722064667520696E666F20676574204F
:107FB0006661696C21000000B70801012E2E5C5338
:107FC00072635C757365725C626F6F746C6F616411
:107FD00065725F626F6F745F76656E646F722E6339
:107FE000000000004E4F5F54414700004259424498
:107FF00020202020446F75626C652062616E6B2CBE
:10800000204261636B67726F756E64204446552031
:108010004D6F646500000000424E42532020202036
:1080200053696E676C652062616E6B2C204E6F6EBB
:108030002D6261636B67726F756E642044465520D4
:108040004D6F6465000000001CB54BA040F22F117D
:10805000CDE90010524B53A25CA10320FDF7A2FD15
:1080600000F07CF95BA04FF49971CDE900104C4B06
:108070004CA256A10320FDF795FDFFF751FF002804
:108080005ED0594C5949E06A884246D158A040F226
:108090003B11CDE90010424B42A24CA10320FDF759
:1080A00081FDFFF7EBFD002856D058A04FF4A271D8
:1080B000CDE900103A4B3BA244A10320FDF772FD2D
:1080C000A26821682069FCF735DD5CA040F2471109
:1080D000CDE90010324B33A23CA10320FDF762FD35
:1080E000201DFFF7FFFE5CA04FF4A571CDE9001045
:1080F0002B4B2CA235A10320FDF754FDFFF708FF01
:108100005AA040F24D11CDE90010254B25A22FA118
:108110000320FDF747FDFDF7B1DA5949E06A8842CF
:1081200019D158A04FF4AA71CDE900101C4B1DA223
:1081300026A10320FDF736FDBDE81C4000F006BA7D
:1081400055A040F23511CDE90010154B15A21FA125
:108150000320FDF727FD1CBD58A040F23F11CDE9DB
:1081600000100F4B0FA219A10320FDF71BFDBDE866
:108170001C40FFF7CDBE00003E3E3E204765742008
:10818000626F6F746C6F61646572206669726D777F
:1081900061726520626F6F7420696E666F00000007
:1081A000020901012E2E5C5372635C757365725C6B
:1081B000626F6F746C6F616465725F626F6F745F22
:1081C00076656E646F722E63000000004E4F5F5440
:1081D000414700003E3E3E20566572696679204464
:1081E000465520696E666F0048FB80004259424444
:1081F0003E3E3E205665726966792061707020644B
:108200006675206669726D77617265003E3E3E203C
:10821000436F7079206170702064667520666972A2
:108220006D776172652066726F6D2062616E6B3171
:1082300020746F2062616E6B300000003E3E3E2075
:108240005570646174652061707020696D61676547
:1082500020696E666F0000003E3E3E20436C656103
:10826000722044465520696E666F00003E3E3E20F7
:10827000526573657420446576696365000000008B
:10828000424E42533E3E3E205374617274204F541E
:1082900041207461736B00003E3E3E20546865725D
:1082A00065206973206E6F20444655207461736B9E
:1082B000206E65656420746F20646F003E3E3E2032
:1082C000436C6561722064667520696E666F00009C
:1082D0007CB504460D46164673F448D628B9324696
:1082E00029462046FFF7BEDD08B101207CBD06A06F
:1082F0008021CDE900100C4B0CA216A10320FDF744
:1083000051FC00207CBD0000202020204669726DB9
:108310007761726520636865636B73756D20696E44
:1083200076616C6964000000630801012E2E5C53C5
:1083300072635C757365725C626F6F746C6F61649D
:1083400065725F626F6F745F76656E646F722E63C5
:10835000000000004E4F5F54414700001CB518223A
:108360000A494FF0807002F033FA182809D008A0AB
:108370009821CDE90010114B11A21BA10320FDF79C
:1083800011FCBDE81C40014800F06ABF30FB8000D2
:1083900020202020426F6F746C6F616465722066CC
:1083A00069726D7761726520626F6F7420696E66A5
:1083B0006F20676574206661696C21007E08010189
:1083C0002E2E5C5372635C757365725C626F6F74A2
:1083D0006C6F616465725F626F6F745F76656E6407
:1083E0006F722E63000000004E4F5F544147000043
:1083F00010B500205FF4A4D20020FFF79DFA1948C1
:108400002021818141810024047007218173012191
:10841000417084700E2214A100205EF401D6002168
:10842000104A08465DF404D700211823124A084672
:108430005DF476D6104A10231832012100205DF435
:108440006FD60E480480847040F64801FB205EF42D
:10845000ADD4F72060F466D50021BDE81040084691
:108460005FF4A8961CFB8000426F6F746C6F6164B0
:1084700065725F4F54410000180801016644800096
:108480001CB514481449C06A884222D01348407869
:1084900080B113A04FF4B971CDE90010174B18A2A9
:1084A00021A10320FDF77EFBBDE81C4009483430C4
:1084B000FDF71AB91EA04FF4BC71CDE900100F4BA7
:1084C0000FA219A10320FDF76DFBBDE81C4000F0D1
:1084D0003DB81CBD48FB8000424E4253AC44800076
:1084E0003E3E3E204A756D7020746F206170702092
:1084F0006669726D776172652E0000002D090101B9
:108500002E2E5C5372635C757365725C626F6F7460
:108510006C6F616465725F626F6F745F76656E64C5
:108520006F722E63000000004E4F5F544147000001
:108530003E3E3E205374617274204F54412074615A
:10854000736B0000002000F071BB0000014902487D
:10855000FFF7B2BA74448000E97100011CB50A4803
:108560000A49C06A88420ED009A040F26311CDE9E1
:1085700000100D4B0DA217A10320FDF713FBFFF711
:10858000D7FB164948701CBD48FB8000424E425341
:108590003E3E3E20566572696679206170702066A5
:1085A00069726D7761726500160901012E2E5C53A8
:1085B00072635C757365725C626F6F746C6F61641B
:1085C00065725F626F6F745F76656E646F722E6343
:1085D000000000004E4F5F5441470000AC44800053
:1085E00010B510484FF4202101600024446001F0D0
:1085F00095FEFCF7E3F90C480A210068B0FBF1F1A5
:10860000491E601EB1F1807F08D24FF0E022516117
:10861000064BFF211970946107211161BDE81040DC
:1086200013F41896C0B480000441800023ED00E0EC
:10863000014801F0C7BE0000C0B4800000B587B09B
:1086400000F01EF803208DF800001D208DF81600A4
:1086500001208DF817008DF818008DF81900044AD4
:1086600004496846FDF772FAFCF7D2FF07B000BD77
:1086700079860001E98600010020FEF78DBB00002D
:108680001CB5154800904FF48060019013480021FC
:1086900001704FF4E1320264032343648164C164D6
:1086A000016501224265037410244461417402761D
:1086B00003710823836041710273094B8363436331
:1086C00080F83D2080F83C106A460649FEF7F8FB2A
:1086D0000248FEF7B5FA1CBD807E800080828000D3
:1086E000003001A0956D00010A4601460020FEF70A
:1086F00017BBA0F18070B0F5005F01D20120704778
:10870000002070472DE9F04F87B07B48D0F80090EB
:1087100000240025A246002607F0FAFA77480168EF
:10872000C9F800104068C9F80400754800680830AE
:10873000059009F108000690042203A9059800F0AD
:108740000FF9BDF80C10A1F57F40FF3843D0082287
:1087500003A9059800F004F9BDF80E006DF42CD0C3
:1087600000F0FF08BDF80C00002867D00698A9EBC0
:10877000000707F58057BDF80E1008F10800834682
:108780000844B84263D805AB082203A906A800F044
:10879000D7F8BDF80E00002300EB080205A906A8D3
:1087A00005F0E4FD641CBDF80E005844B842C3D186
:1087B0000020CDE9006053464A462146284607F08E
:1087C00073FC002826D1824600260024CDF818909C
:1087D0006D1CEDB2B0E70020CDE9006053464A467B
:1087E0002146284607F060FC002813D16D1CECB22E
:1087F000434D4FF48057434E08E0286800EB0430A7
:10880000394601F097FF40B1641CE4B2707AA0428F
:10881000F3D8002007B0BDE8F08F3B488169407A6B
:1088200040F27C42CDE900200291384B38A24FF44F
:1088300000410020FFF714DB0920EBE7BDF80E0034
:10884000059908F1080808444044059074E7082F8A
:1088500029D305AB082203A906A800F071F8083F48
:108860002FB100233A4605A906A805F07FFD611C3B
:108870000020CDE9006053464A46284607F014FC24
:108880000028C7D18246BDF80E004044C61B002414
:10889000CDF818906D1CEDB20023324605A906A84C
:1088A00005F064FD48E705AB3A4603A906A800F0C9
:1088B00047F8611C03A8CDE9006053464A462846A4
:1088C00007F0F2FB0028A5D1C7F1080ABDF80E0099
:1088D00000EB08060024CDF818906D1CEDB20123C2
:1088E000524605A906A805F041FD0023324605A918
:1088F00006A805F03BFD1FE714458000ACD5070036
:10890000CC238000D8328000641F8000BE090101A2
:10891000523A353A25732C204C256420666C6173DD
:1089200068207374617465203078253032582C20AB
:108930006572726F72203078253038580D0A000049
:1089400070B5044615461E462A462068FBF7DAFB3A
:1089500030682844306020682844206070BD0000E2
:108960002DE9F04105460E461746094C2378002BA9
:1089700002D000206DF494D23A463146284601F0E8
:1089800027FF054620786DF48BD22846BDE8F0819C
:10899000C92380002DE9F04105460E461746094CD3
:1089A0002378002B02D000206DF47AD23A4631466B
:1089B000284601F04DFF054620786DF471D2284617
:1089C000BDE8F081C923800070B5044601206168CC
:1089D0000870104862680178517001886268090A5D
:1089E000917001686268090CD17000686168000EBE
:1089F000087160680025457161682822891D064854
:108A000001F0F6FE22883621606867F46FD00348D3
:108A1000057070BDD48A80000020000148258000C8
:108A200010B5406801780F48012914D00E49C16281
:108A300006F072FA0D4C4FF48051204601F07AFE98
:108A400030220849204601F0F3FE06F089FABDE81D
:108A50001040FCF7139E0649C162064900200870C9
:108A600010BD0000D48A8000424E42530030000105
:108A7000425942444825800070B504460D461646CA
:108A800030211648FBF757FB0CB1154844603246BD
:108A90001449134866F408D610480560124A0121AB
:108AA000002067F461D0114A2321062067F45CD0CE
:108AB0000F4A2521082067F457D00E4A41211C2077
:108AC00067F452D00C4A42211D2067F44DD004486F
:108AD000243067F48DD0002070BD0000D48A80005F
:108AE0002C43800014938000E1A000017DD8000198
:108AF00015D70001218A0001C98900011CB505A014
:108B00005921CDE90010094B09A212A10320FDF75C
:108B100049F81CBD20202020444655204F544120B8
:108B2000636F6D706C6574652E000000FF070101B6
:108B30002E2E5C5372635C706C6174666F726D5C38
:108B4000757365725F7065726970685F736574755F
:108B5000702E63004E4F5F54414700001CB505A0C6
:108B60004F21CDE90010084B08A211A10320FDF709
:108B700019F81CBD202020205374617274204446D3
:108B800055204F54412E0000CC0701012E2E5C537E
:108B900072635C706C6174666F726D5C7573657224
:108BA0005F7065726970685F73657475702E6300BD
:108BB0004E4F5F54414700000EB506A15422CDE947
:108BC00000210290094B0AA212A10320FCF7EAFF40
:108BD0000EBD000020202020444655204F54412E39
:108BE0002E2E2E202564252500000000E707010118
:108BF0002E2E5C5372635C706C6174666F726D5C78
:108C0000757365725F7065726970685F736574759E
:108C1000702E63004E4F5F544147000010B566F45C
:108C20000DD7BDE8104000F09FBA000008B500283D
:108C300001D00449886104480090684604F0E0FBD4
:108C400008BD000010438000EDD2000106F090BA8C
:108C500006F0FCBA30B5B9B00446257855A00068D6
:108C600024908022544904A8FBF74CFA53A0D0E981
:108C700000128068CDE901120390002324A804A902
:108C800001AA012D4DD0022D7ED16578455D8DF86C
:108C90009850A57851F825502795E578555D8DF8C1
:108CA000A0502579455D8DF8A450657951F825507F
:108CB0002A95A579555D8DF8AC50E579455D8DF81F
:108CC000B050257A51F825502D95657A555D8DF86F
:108CD000B850A57A455D8DF8BC50E57A51F825501D
:108CE0003095257B555D8DF8C450657B455D8DF8CD
:108CF000C850A57B51F825503395E57B555D8DF81F
:108D0000D050257C405D8DF8D400607C51F8200067
:108D10003690A07C105C8DF8DC00E07CA8B30220CB
:108D20003EE06578455D8DF89850A57851F825505E
:108D30002795E578555D8DF8A0502579455D8DF82E
:108D4000A450657951F825502A95A579555D8DF87F
:108D5000AC50E579455D8DF8B050257A51F8255035
:108D60002D95657A555D8DF8B850A57A405D8DF8E2
:108D7000BC00E07A51F820003090207B105C8DF828
:108D8000C4008DF8943001E007E008E08DF8E03091
:108D90008DF8E13025A806F0CDFA39B030BD0120BC
:108DA0008DF894008DF8E0308DF8E13025A806F0BC
:108DB000C1FAF2E7030405004C05010100010203BA
:108DC000040506070800000006F022BC06F064BC9B
:108DD00006F08CBC30B400210D4B01EB410203EBDB
:108DE00042121478012C0DD112790478A24209D1D3
:108DF00001EB410003EB4010C16D002906D030BCEF
:108E000000200847491CC9B20829E6D330BC704786
:108E1000E083800070B500240C4E04EB440006EBA8
:108E20004015287801280AD1281D0FF417D318B14E
:108E3000012801D0002070BD281D0FF469D5641CE5
:108E4000E4B2082CE9D3012070BD0000E08380006B
:108E500030B400210D4B01EB410203EB42121478B8
:108E6000012C0DD112790478A24209D101EB410005
:108E700003EB4010C16D002906D030BC012008472B
:108E8000491CC9B20829E6D330BC7047E083800092
:108E900010B5104C02220421204603F03DFF0122B0
:108EA0001021204603F038FF02228021204603F0E3
:108EB00033FF02224021204603F02EFF0222202110
:108EC000204603F029FF20460222BDE81040082179
:108ED00003F022BF001001A02DE9F04782462DEDDE
:108EE000028B84B089461746984600200290039072
:108EF00000250026019001A806F0BAFD3748016858
:108F000021F4C07141F080010160416821F4805179
:108F100041600024504606F03FF805F0CFFA01F01A
:108F2000CBF8029002980644484606F035F805F062
:108F3000C5FA01F0C1F80390DDE90210401A0544BA
:108F4000641C072CE6DB2846FBF724F99FED248BF5
:108F500053EC182BFBF78DFA41EC100BFBF7B8FD27
:108F600051EC100BFBF723F904463046FBF712F9DE
:108F700053EC182BFBF77DFA41EC100BFBF7A8FD27
:108F800051EC100BFBF713F903460020164A1CE0C6
:108F900000FB04F1B1FBF7F119440291134D029962
:108FA000B5FBF1F108F80010114D0299B5FBF1F194
:108FB0009DF804502944C9B21154802903D90D4D9C
:108FC0002D7829441154401CC0B2B842E0D305F0BA
:108FD00051FA04B0BDEC028BBDE8F087802001B0EF
:108FE0000000000000001C40480E810000C0A832B4
:108FF0000080D7254848800070B505460C4605F02E
:109000008BFF22460949284666F494D205F0A8FF52
:109010000020064D064B05E0295C1A6811441960D2
:10902000401C80B2A042F7D370BD0000148B8000BA
:109030009024800070B5144D0126144C2889E988CD
:10904000884215D01249096801EB0030310366F4FB
:10905000EDD1022140B12889401C28812670617021
:10906000A070000AE07008E021700520607004E044
:1090700000206870267003206070BDE870402322D5
:109080000421024866F43295104380001493800056
:109090008C2480002DE9F041304805F099FC82B223
:1090A0004FF4006700262E4DBA421ED32B493A4694
:1090B00010312A4805F0A1FC84B205F02DFF2749A4
:1090C00022461031E86866F4D5D205F049FF214602
:1090D000E868FFF791FF686920446861E868204408
:1090E000E860204666F432D429E0686929691044B2
:1090F000884224D119491948103105F07EFC84B208
:1091000084B105F009FF154922461031E86866F47C
:10911000B1D205F025FF2146E868FFF76DFF6869C9
:1091200020446861204666F411D40120A8700D49DE
:109130000870FF2201210B4866F4D8D46E7028789D
:10914000A978884308D0054805F09BFCB84203D9AC
:109150005A2006F0ABFD2E70BDE8F081048B800034
:10916000104380001493800005484078012803D004
:10917000022803D1FFF78EBFFFF75CBF70470000E6
:109180001043800010B50A460146094805F091FCDD
:10919000074805F076FCB0F5006F07D20548017866
:1091A000002903D1044A11700121017010BD000093
:1091B000048B8000104380001E0680002DE9FE4FC6
:1091C00007460D4602AA2946384606F06BFE10B146
:1091D0000298BDE8FE8F029C00260296DFF86880A8
:1091E00098F8000010B100206CF45AD6DFF85CA0AB
:1091F0004FF6FF7908226946204601F0E9FABDF8EA
:109200000000484502D12E80029617E0B84206D1F0
:1092100015B1BDF802002880083402940EE0BDF8B4
:1092200002006CF4C9D2BDF8021008302144441881
:10923000DAF800008442DDD32E80029698F8000010
:109240006CF42ED60298C4E7C9238000D023800096
:1092500013B501216846FCF765FC01201CBD000028
:109260003EB50446002C2FD0A06818A15722CDE9A6
:10927000002102901C4B1DA226A10320FCF792FCAA
:10928000E06826A15822CDE900210290164B17A2D2
:1092900020A10320FCF786FC206827A15922CDE9F4
:1092A00000210290104B11A21AA10320FCF77AFCB6
:1092B000606828A15A22CDE9002102900A4B0BA236
:1092C00014A10320FCF76EFC3EBD000020202020EE
:1092D0004C6F61642041646472657373203D20307B
:1092E0007825303878000000500801012E2E5C539C
:1092F00072635C757365725C626F6F746C6F6164CE
:1093000065725F626F6F745F76656E646F722E63F5
:10931000000000004E4F5F544147000020202020F5
:1093200052756E204164647265737320203D203055
:1093300078253038780000002020202042696E20F7
:1093400053697A6520202020203D20307825303850
:109350007800000020202020436865636B53756D02
:1093600020202020203D2030782530387800000053
:1093700010B58AB00C46FF2228216846FAF7D4FEC1
:1093800040F20A20ADF80000ADF802406846FDF753
:1093900017FF0AB010BD10B58AB00446FF2228217D
:1093A0006846FAF7C1FE40F20D20ADF8000000203B
:1093B000ADF802001C22214602A8FAF7A3FE1C34D5
:1093C00009946846FDF7FCFE0AB010BD30B58BB0BD
:1093D00005460C46FF22282101A8FAF7A5FE40F217
:1093E0000722ADF80420ADF806408DF8085001A81A
:1093F000FDF7E6FE0BB030BD37B58AB005460C462A
:10940000FF2228216846FAF78FFE4FF40272ADF86A
:109410000020ADF802408DF804509DF830008DF822
:1094200008006846FDF7CCFE0DB030BD00B58BB02E
:10943000FF22282101A8FAF777FE4FF44170ADF81A
:1094400004000020ADF8060001A8FDF7B9FE0BB03E
:1094500000BD10B58AB00446FF2228216846FAF7FD
:1094600063FE40F20331ADF80010ADF802406846EB
:10947000FDF7A6FE0AB010BD70B58AB005460C46D1
:109480001646FF2228216846FAF74EFE40F20131C7
:10949000ADF80010ADF802408DF8045012223146AC
:1094A00002A8FAF72FFE6846FDF78AFE0AB070BDE3
:1094B00070B58AB006460D461446FF22282168463C
:1094C000FAF732FE4FF44273ADF80030ADF80250B7
:1094D0008DF8046020680290A088ADF80C00684602
:1094E000FDF76EFE0AB070BD70B58AB006460D4637
:1094F0001446FF2228216846FAF716FE40F205338B
:10950000ADF80030ADF802508DF80460206802908C
:10951000A088ADF80C006846FDF752FE0AB070BD99
:1095200030B58BB005460C46FF22282101A8FAF77A
:10953000FBFD40F20632ADF804200022ADF8062013
:109540008DF80850206803906068049001A8FDF72A
:1095500037FE0BB030BD30B58BB004460D46FF2250
:10956000282101A8FAF7E0FD40F20622ADF8042018
:10957000ADF806400E22294603A8FAF7C3FD01A85C
:10958000FDF71EFE0BB030BD30B58FB006200E903B
:1095900000250795514C032020700F20607084F83F
:1095A0002F5084F82E504FF40070E08420850A205C
:1095B00084F82A001B2060844FF4A470A0840CAAB5
:1095C0000EA9012062F426D638B108A806F084FA64
:1095D00018B907A806F07AFBD0B1A5764FF46170F0
:1095E0006080208C40F08000208405A84AF4A2D638
:1095F000059806990844FAF77DFD019502950395B3
:10960000049508A806F068FA344C0A34E8B35EE022
:109610000120A0763248007820B39DF82000412830
:1096200013D09DF82A0020719DF82D0060719DF8DF
:109630002E00A0719DF82F00E071BDF81C00207273
:10964000C02141EA10206072C8E79DF8280020710F
:109650009DF8290060719DF82A00A0719DF82B00EB
:10966000E071EAE79DF82000412815D09DF82A0016
:10967000A0719DF82D00E0719DF82E0020729DF8DC
:109680002F0040F0C000607200E014E0BDF81C0044
:109690006071000A2071A1E79DF82800A0719DF873
:1096A0002900E0719DF82A0020729DF82B0040F0FF
:1096B000C0006072E8E7102201A908A8FAF74DFD82
:1096C00028B1102208A92046FAF71CFD02E0204626
:1096D00070F4BED502F03EFF0FB030BD7E28800092
:1096E000E844800070B58AB005460C461646FF2255
:1096F00028216846FAF718FD40F20233ADF8003031
:10970000ADF802408DF804508DF808606846FDF70A
:1097100057FD0AB070BD00002DE9FC5F0446EFF371
:1097200011877048017870480068C0F30220401C1F
:109730004FF0010B0BFA00F00844C0B280F311881F
:1097400066F4D4D58146694D0094DFF8A48195F87C
:10975000A50068A2102158F820300020FEF780DB19
:109760008DF8054095F8A53007200C210D22002624
:109770004FF0090A0A2B74D2DFE803F0050C9C9C19
:109780009C19283C424D68F41DD185F8A5B085F898
:10979000A86095E0002C09D085F8A56085F8A66042
:1097A0008DF8041001A9002066F466D688E095F8CB
:1097B000A600A22804D068F4F3D285F8A5A07FE023
:1097C0006AF4C0D1062085F8A50079E04CB168F4B0
:1097D000E7D285F8A5A0042085F8A80085F8A9405F
:1097E0006EE085F8A5008DF8041001A9002066F44C
:1097F00043D665E06AF4F8D2082085F8A5005FE05A
:10980000002C5DD085F8A5008DF8042001A900206A
:1098100066F432D654E0A4356E70FF2028702879A3
:10982000A43D042807D0062812D03F4C012819D0A7
:10983000032824D044E085F8A8608DF8041095F83A
:10984000A9008DF8050001A9002066F415D637E0BF
:1098500085F8A8608DF8042001A9002066F40CD6D4
:109860002EE027E085F8A860002066F409D520687E
:1098700010B1406C00B1804766F438D520E085F81F
:10988000A860D5F8AC000078012819D0002066F453
:10989000F7D4206858B1806B48B1244800886BF435
:1098A000C1D72168C0B2214A8B6B0021984766F46A
:1098B0001DD505E040F2C2321DA123A0FEF7CEDA8D
:1098C00095F8A50021A2102158F820300020FEF7BD
:1098D000C7DA484666F4D4D4F8B280F31188BDE8FC
:1098E000FC9F000002E400E00CED00E07C2780001B
:1098F00028228000523A313A696E69745F66736D4E
:1099000020656E7465722C20696E69745F73746172
:1099100074653A2025732C20737461747573203D2F
:109920002025640A0000000098218000182780008C
:10993000626C655F73646B5F6761706D5F706174AB
:1099400063682E630000000030000000523A313A94
:10995000696E69745F66736D20657869742C20691F
:109960006E69745F73746174653A2025730000003A
:1099700070B58AB006460D461446FF222821684677
:10998000FAF7D2FB40F20A33ADF80030ADF80250DE
:109990008DF8046020680290606803906846FDF7C7
:1099A0000FFC0AB070BD30B58BB005460C46FF22E7
:1099B000282101A8FAF7B8FB4FF6FF72ADF8042092
:1099C000ADF8065034B1012C09D0022C0CD0032C78
:1099D00013D10EE04FF40070ADF804000DE040F23A
:1099E0000120ADF8040008E040F20220ADF80400C8
:1099F00003E040F20320ADF8040001A8FDF7E0FB0E
:109A00000BB030BD70B58AB006460D461446FF2235
:109A100028216846FAF788FB40F20933ADF8003098
:109A2000ADF802508DF804602068029060680390E1
:109A30002089ADF810006846FDF7C2FB0AB070BD82
:109A400030B58BB005460C46FF22282101A8FAF755
:109A50006BFB40F20731ADF804100021ADF80610A1
:109A60008DF80850206803906068049008340594CD
:109A700001A8FDF7A5FB0BB030BD70B58AB0054657
:109A80000C461646FF2228216846FAF74DFB4FF494
:109A90004073ADF80030ADF802408DF804503088C6
:109AA000ADF808006846FDF78BFB0AB070BD30B515
:109AB0008BB004460D46FF22282101A8FAF734FB9B
:109AC0004FF6FF72ADF80420ADF8064045B140F204
:109AD0000520ADF8040001A8FDF772FB0BB030BD06
:109AE0004FF40170ADF80400F5E730B58BB00546D2
:109AF0000C46FF22282101A8FAF716FB40F211229A
:109B0000ADF80420ADF8065020680390A088ADF8A9
:109B10001000A0798DF8120001A8FDF751FB0BB0E1
:109B200030BD10B58AB00C46FF2228216846FAF7EE
:109B3000FBFA40F20920ADF800000020ADF8020069
:109B400020680290A088ADF80C00A0798DF80E0076
:109B50006846FDF735FB0AB010BD10B58AB0044663
:109B6000FF2228216846FAF7DFFA40F20B21ADF810
:109B70000010ADF802406846FDF722FB0AB010BDA8
:109B800013B58AB00446FF2228216846FAF7CCFABA
:109B90004FF40371ADF80010ADF802409DF82C00B1
:109BA0008DF808006846FDF70BFB0CB010BD30B512
:109BB0008BB005460C46FF22282101A8FAF7B4FA1B
:109BC00040F20F22ADF80420ADF806408DF80850A1
:109BD00001A8FDF7F5FA0BB030BD70B58AB00446A8
:109BE0000D461646FF2228216846FAF79DFA40F2F4
:109BF0000E20ADF80000ADF802501022314602A848
:109C0000FAF780FA8DF804406846FDF7D9FA0AB0F1
:109C100070BD10B58AB00446FF2228216846FAF7C5
:109C200083FA4FF40471ADF800100021ADF8021072
:109C30008DF804406846FDF7C3FA0AB010BD000075
:109C400000280CD059B1092909D9064A90600A2088
:109C5000B1FBF0F050800020908001207047002080
:109C600070470000B044800070B505460548446860
:109C700004E0E16809B1284688472468002CF8D13F
:109C800070BD00003C46800070B58AB005460C46A9
:109C90001646FF2228216846FAF746FA4FF4C063B9
:109CA000ADF80030ADF802408DF80450ADF8066014
:109CB0006846FDF785FA0AB070BD000030B58BB07C
:109CC00004460D460A4B00221A70FF22282101A8E3
:109CD000FAF72AFA40F20162ADF80420ADF8064026
:109CE0008DF80A5001A8FDF76BFA0BB030BD0000EB
:109CF0003C46800070B58AB006460D461446FF22E9
:109D000028216846FAF710FA40F20452ADF8002014
:109D1000ADF802508DF8046034F8040BADF808007B
:109D200003946846FDF74CFA0AB070BD70B58AB06E
:109D300006460D461446FF2228216846FAF7F4F934
:109D400040F20352ADF80020ADF802508DF80460E7
:109D500034F8040BADF8080003946846FDF730FAB8
:109D60000AB070BD70B505460548846804E0E16836
:109D700009B1284688472468002CF8D170BD00003E
:109D80003C46800070B505460548846804E0E168FB
:109D900009B1284688472468002CF8D170BD00001E
:109DA0003C46800070B58AB006460D461446FF2238
:109DB00028216846FAF7B8F940F20252ADF80020BF
:109DC000ADF802508DF8046034F8040BADF80800CB
:109DD00003946846FDF7F4F90AB070BD30B58BB056
:109DE00005460C46FF22282101A8FAF79DF940F20A
:109DF0000752ADF804200022ADF806208DF8085077
:109E0000D4E901022168CDE90402039101A8FDF71C
:109E1000D7F90BB030BD70B58AB006460D46144672
:109E2000FF2228216846FAF77FF940F20552ADF883
:109E30000020ADF802508DF8046034F8040BADF842
:109E4000080003946846FDF7BBF90AB070BD70B511
:109E50008AB006460D461446FF2228216846FAF7C6
:109E600063F94FF4A061ADF80010ADF802508DF821
:109E700004601622214602A8FAF744F91634089421
:109E80006846FDF79DF90AB070BD000070B5054643
:109E9000002D12D0FDF706FD0C48846805F1090677
:109EA00009E020792A7A904204D13146A068FAF775
:109EB00054F918B12468002CF3D170BDE168002971
:109EC000FBD02846BDE87040084700003C468000B3
:109ED00070B58AB006460D461446FF222821684612
:109EE000FAF722F940F20152ADF80020ADF8025025
:109EF0008DF8046034F8040BADF80800039468464C
:109F0000FDF75EF90AB070BD70B58AB005460C4623
:109F10001646FF2228216846FAF706F940F2065352
:109F2000ADF80030ADF802408DF80450ADF808608F
:109F30006846FDF745F90AB070BD70B58AB00646AF
:109F40000C461546FF2228216846FAF7EDF840F244
:109F50000443ADF800300023ADF802308DF8046002
:109F6000FF22072102A8FAF7DFF8ADF81040ADF89C
:109F700012506846FDF724F90AB070BD70B5054669
:109F80000548446804E0E16809B128468847246828
:109F9000002CF8D170BD00003C46800010B504468E
:109FA0000846FDF743FD0146002903D02046BDE8E1
:109FB0001040084710BD30B58BB004461546FF224F
:109FC000282101A8FAF7B0F840F20341ADF80410D7
:109FD0000021ADF806108DF808402868039001A80C
:109FE000FDF7EEF80BB030BD30B58BB004460D4632
:109FF000FF22282101A8FAF797F840F20242ADF8B3
:10A0000004200022ADF806208DF808402888ADF81D
:10A010000C0001A8FDF7D4F80BB030BD30B58BB003
:10A0200004460D46FF22282101A8FAF77DF84FF4D7
:10A030008062ADF804200022ADF806208DF80840BB
:10A040002888ADF80C0001A8FDF7BAF80BB030BDB8
:10A0500030B58BB005460C46FF22282101A8FAF73F
:10A0600063F840F20141ADF804100021ADF806108C
:10A070008DF8085020680390A088ADF81000A41D4A
:10A08000059401A8FDF79CF80BB030BD01788278EB
:10A090001144C9B201710846704730B500224271BF
:10A0A000438805E044798D5C2C444471521C92B283
:10A0B0009342F7D8407930BD0748C169C1F3140114
:10A0C000026AC2F314030068C0F3C112581A0349AC
:10A0D00051F8221048437047802001B04C4880005E
:10A0E0001CB504460120616808706068401C00F0DF
:10A0F0001FF8684605F0E4FD6068009940F8091F04
:10A1000001994160616802204874228814216068C6
:10A1100065F4ECD40149002008701CBD482580007E
:10A12000002101E0491C4008C207FBD008467047E7
:10A1300000214FF48A2204E012F8013B4354491CE9
:10A14000C9B20829F8D370470248006800F480704B
:10A150007047000078C500A0FEB505460024042025
:10A160008DF8000000260B4FE8070CD00120A0401E
:10A17000019004EB440007EB800081680291416884
:10A1800009B168468847641CA4B26D08761C082E85
:10A19000EADBFEBD6088800010B5EFF3108401217A
:10A1A00081F3108800F004F884F3108810BD0000DB
:10A1B0002DE9F0410446204602F0DAFBE0B2EFF36D
:10A1C0001081012282F31088194A136883430343E4
:10A1D000136081F310881748446284634FF6FF7060
:10A1E00000EA0421E0B2124B0C3B1A680843824398
:10A1F0001A6019E094FAA4F0B0FA80F101208840C6
:10A20000611E0C40072290FAA0F1B1FA81F1890099
:10A21000094D2E680F278F40BE438A4016432E609B
:10A22000196821EA00401860002CE3D1BDE8F081F4
:10A230005CC500A0002001A090E200A070B505461A
:10A2400006480DF423D4EFF31084012181F3108824
:10A25000284600F005F884F3108870BD9C47800004
:10A2600000B585B001680091017901F00301019109
:10A2700081680291C16803914068000904906846B2
:10A2800002F0EAFA05B000BD10B5FF20FBF70AF9AD
:10A2900080B2002821D011498863EFF31081012298
:10A2A00082F310880E4A6FEA0043136081F310882E
:10A2B0006FF0040111600A4940390968C1F30011C7
:10A2C00039B1202805D0BDE8104020F020000DF461
:10A2D0005593BDE810400DF4519310BD002001A02E
:10A2E00044C500A030B4002910D0EFF31081012242
:10A2F00082F31088074B1A684FF6FF7404EA0020B7
:10A3000002431A6081F3108830BC704730BC02F001
:10A310002FBB00005CC500A07047000070B505466B
:10A3200006480DF479D4EFF31084012181F31088ED
:10A33000284600F005F884F3108870BDA04780001F
:10A3400010B54FF47A71002803D0D0E900329A4258
:10A3500001D9012010BD00220272174A136823F0B0
:10A3600080731360154B04681B68A3FB0434DB0B7C
:10A3700043EA4443104C38342360136843F00073BD
:10A3800013600D4C6FF04003143C23600379146894
:10A3900063F3DF641460406828B1094B4FF08050CC
:10A3A000C3F8FC01D867491E481CFCD1106840F076
:10A3B00080701060002010BD58C500A0DC448000F3
:10A3C00084E000E0FCB5002854D02C4A1168C1F3A9
:10A3D0000061E9B30168D9B3037A012B4CD00123A2
:10A3E0000372EFF3108583F31088254B1B68A3FBE2
:10A3F0000113C90B41EA4341204B383319601368FC
:10A4000043F0007313601D4B121D3C33146824F09D
:10A41000404444F0804414601C688C42F6D119A179
:10A4200006C9CDE90012154954390968642201F0C2
:10A4300007011DF8011011FB02F3DFF850C0DCF832
:10A44000006046F08071CCF8001011490F6800E000
:10A4500010E047F001020A604A684C68A41A9C4266
:10A46000FBD30F60CCF8006085F3108800210172E7
:10A470000020FCBD0120FCBD0220FCBD58C500A091
:10A48000DC4480004030101810200000FCED00E09B
:10A49000001000E070B50446002C11D0134DD5F823
:10A4A000A40220F08000C5F8A402114E21783046A5
:10A4B00002F086FAD6F89803C0F3000010B10FE05E
:10A4C000012070BD05F52875686840F0800068605F
:10A4D000286840F080002860A86840F00400A86068
:10A4E00000202834A0616070207070BD00E000A0E2
:10A4F000003001A030B58DB00446002C04D094F893
:10A500002900002518B111E001200DB030BD84F8FC
:10A5100028501948416821F080014160016821F00C
:10A5200080010160816821F004018160022084F8CB
:10A53000290001A82AF488D460680A90A0680B90CA
:10A540002069059060690690A0690790E06908900D
:10A55000E0680390206A0490606A0C90217801AA58
:10A56000064802F0B9FA2564012084F8290084F82D
:10A5700028500020C9E70000A0E200A0003001A0A0
:10A5800010B5EFF31083012282F31088094A146892
:10A59000002C02D01468641E146012683AB920F0CE
:10A5A000807021F00101044A11600449086083F3BE
:10A5B000108810BDBC448000001000E0FCED00E0FD
:10A5C00010B5EFF31082012383F31088074B1C684A
:10A5D000641C1C60064B40F08070186041F0010064
:10A5E0000449086082F3108810BD0000BC4480005C
:10A5F000FCED00E0001000E010B50446002C1DD07A
:10A60000207A01281CD0012020721A48006818B155
:10A61000416809B1204688471748016821F48061E4
:10A620000160EFF31081012080F310881348026865
:10A6300022F002020260006820B114E0012010BD87
:10A64000022010BD0E48426842F001024260C2681A
:10A6500042F00072C260026842F001020260C26809
:10A6600042F08072C26081F310880020E060607266
:10A67000207210BD8403800014C500A090478000A4
:10A68000A0E200A070B50446002C03D02349206846
:10A69000884201D0012070BD207A012805D0012513
:10A6A0002572607A002610B11EE0022070BD26726D
:10A6B0001B48016821F001010160816821F00071EF
:10A6C0008160EFF31080012181F3108815490A6839
:10A6D00042F002020A6080F310881348006818B143
:10A6E000016809B120468847022060720F4801685E
:10A6F00041F4806101606068012809D02068016828
:10A7000021F4805101603046E6606572207270BDB0
:10A710002068016841F480510160F4E7006401A001
:10A72000A4E200A0904780008403800014C500A02C
:10A730000EF4809610B50B46024600210348FBF745
:10A74000FCDE08B1002010BD012010BD641F800098
:10A7500010B500231A4601210348FBF7EEDE08B1CD
:10A76000002010BD012010BD641F800038B50220FC
:10A7700000906846FAF7E8F8114C206880B9114853
:10A78000206011490160012141608160EB21C160BD
:10A790000E499DF8002051F822100161002141610D
:10A7A00071F4E4D308B1012000E00020A072044855
:10A7B0000EF4D4D508B1002038BD012038BD00000A
:10A7C000641F8000281F800000D000A0FC4480008F
:10A7D00010B514460A46014623460448FFF7A8FF71
:10A7E00008B1002010BD204610BD0000641F80008D
:10A7F00070B504460D46164604F08EFB32462946D7
:10A800002046FFF7E5FF044604F0AAFB204670BD92
:10A8100070B504460D46164604F090FB32462946B4
:10A820002046FFF7D5FF044604F0A8FB204670BD84
:10A8300010B514460A46014623460448FBF773DD6B
:10A8400008B1002010BD204610BD0000641F80002C
:10A850002DE9F047C0B081468A4617463B4652462E
:10A8600049461748FBF75FDD18BB00243D464FF40F
:10A870008078474501D9464600E03E4609EB040191
:10A8800033466A460E48FFF753FF90B90AEB0400BF
:10A8900032466946F9F761FC58B9AD1B6DB13444D5
:10A8A0004646B54200D82E46BC4202D2A019B84254
:10A8B000E4D9002040B0BDE8F0873846FAE7000050
:10A8C000641F800070B505460E4607480FF408D196
:10A8D000EFF31084012282F31088314628460FF4EA
:10A8E000C7D084F3108870BDA44780002DE9FE43D3
:10A8F00007460E463046FFF713FC85B20024DFF80A
:10A900005490DFF8548059F83400B8421DD105EB5B
:10A91000041085B205EB450218F82200032807D081
:10A920008DF800400D48874206D13004019004E0C4
:10A9300003208DF80000F5E7019608EB820081689E
:10A94000029142680AB168469047641C032CDADB26
:10A95000BDE8FE8344040101E0868000001001A0F0
:10A9600070B505460E4607480FF4BAD0EFF31084D1
:10A97000012282F31088314628460FF4A6D084F3D2
:10A98000108870BDA447800010B5064814F4C8D7DD
:10A99000EFF31084012080F3108811F469D384F35D
:10A9A000108810BD94478000F0B54FF0F85000EAD1
:10A9B00001604FF4F81202EA0142254B1C68024381
:10A9C000944304431C6001F01F00EFF31082012444
:10A9D00084F310881C1D256885430543256082F398
:10A9E00010884FF4F85202EA01221D6885431D6069
:10A9F000EFF31080012383F31088236893432360CF
:10AA000080F3108820E091FAA1F0B0FA80F20120E2
:10AA100090404A1E1140072390FAA0F2B2FA82F247
:10AA200092000C4E35680F279740BD4393401D435D
:10AA30003560EFF31082012383F31088236823EA43
:10AA40008050206082F310880029DCD1F0BD000026
:10AA50003CC500A094E200A0084602F07FB9084679
:10AA6000114611F4AB93704770470321FBF71CBCF0
:10AA700070B5002490F8351089072AD5002280F897
:10AA800034200168CA620168CD6C08234DB1CA64E4
:10AA900080F83530026B1049D163006B0DF452D44D
:10AAA00017E090F83550122D04D090F83550222D33
:10AAB00008D00EE080F835308261C86A40F00100AD
:10AAC000C86206E080F835304262C86A40F0100083
:10AAD000C862204670BD0000ADDC00010068064A77
:10AAE0000649904201D108787047054A904201D149
:10AAF000487870470020704700C200A0C44480001E
:10AB000000C800A02DE9F04F8BB004460D464FF071
:10AB10000009CDF8289094F8340001280ED04FF0A9
:10AB2000010884F8348094F83500012808D0022602
:10AB300084F8349030460BB0BDE8F08F0220FAE77D
:10AB4000C4F838904FF0020B84F835B00022012190
:10AB50002046E36B03F0B6FB0646300004D084F8D1
:10AB6000358084F83490E5E7C4F81490A8680DF1B6
:10AB7000280AB0F5407F0ED029786069421C6261D6
:10AB80000AF80010206B714F816991B110292AD009
:10AB900020294ED072E02888020A6069411C616158
:10ABA0000AF8002029786069421C62610AF80010E6
:10ABB000E8E76169A16101780022384602F095F862
:10ABC000206B00220178384602F051F8206B0022F9
:10ABD0000178384602F019F8206B002201783846D7
:10ABE00002F051F84AE06169C90705D0A06B40F056
:10ABF0000800A063012641E061694908A16101786C
:10AC00001022384602F071F8206B02220178384693
:10AC100002F02DF8206B4FF400620178384601F005
:10AC2000F4FF206B4FF480420178384602F02BF895
:10AC300024E06169890705D0A06B40F00800A0639B
:10AC400001261BE061698908A1610178202238464C
:10AC500002F04BF8206B04220178384602F007F826
:10AC6000206B4FF400620178384601F0CEFF206B74
:10AC70004FF480420178384602F005F826B184F896
:10AC8000358084F8349055E7A8680390CDF810908B
:10AC9000CDF814904FF4E0200690CDF81CB0E86990
:10ACA0000890CDF824804FF480752A4601A92046EB
:10ACB00002F088FFC4F810A0122084F83500216B40
:10ACC00023480863216B23488863206BC0F83C90BD
:10ACD000216B2803C860206B00220178384601F000
:10ACE000DEFF206B2A460178384601F09AFF1A49A8
:10ACF0002068884206D1206B04220178384601F092
:10AD00009CFF08E01549884205D1206B0C22017890
:10AD1000384601F092FF636922680AA96032206B0D
:10AD20000DF48AD5EFF31081012080F3108884F8A8
:10AD300034902068C26C42F00202C264206802694A
:10AD400042F00102026181F31088F3E6003001A0B5
:10AD50002DDD0001EDDC000100C200A000C800A054
:10AD60002DE9F74F82B004460D462F6A4FF00008D8
:10AD7000CDF80480E86900280BD101A9284603F02A
:10AD8000C7F930B1A16B41F00801A16305B0BDE87E
:10AD9000F08F94F8340001280CD04FF0010A84F8A9
:10ADA00034A094F83500012806D0022684F83480B7
:10ADB0003046EBE70220E9E7C4F83880022084F847
:10ADC0003500002201212046E36B03F07BFA0646A2
:10ADD000300004D084F835A084F83480E8E768694E
:10ADE000DFF8D091B0F5E02F19D86762206B002210
:10ADF0000178484601F079FF206B0022017848462F
:10AE000001F035FF206B00220178484601F0FDFE7D
:10AE1000206B00220178484601F035FF4EE04FF4E8
:10AE2000006BB0F5702F23D8F80705D0A06B40F069
:10AE30000800A063012641E078086062206B1022C0
:10AE40000178484601F051FF206B02220178484604
:10AE500001F00DFF206B5A460178484601F0D5FEFF
:10AE6000206B4FF480420178484601F00CFF25E04A
:10AE7000B0F5F81F22D8B80705D0A06B40F0080045
:10AE8000A06301261AE0B8086062206B20220178D6
:10AE9000484601F02AFF206B04220178484601F061
:10AEA000E6FE206B5A460178484601F0AEFE206B64
:10AEB0004FF480420178484601F0E5FE26B184F85F
:10AEC00035A084F8348073E7E86930B14FF400723C
:10AED0002946204602F076FE05E04FF440722946EE
:10AEE000204602F06FFE606A20620498E061222032
:10AEF00084F83500216B30480863216B2F48886344
:10AF0000206BC0F83C80216B4FF40010C860206BB0
:10AF10004FF480620178484601F0C1FE206B0022A8
:10AF20000178484601F07DFE25492068884206D117
:10AF3000206B05220178484601F0BDFE08E021495A
:10AF4000884205D1206B0D220178484601F0B3FEFE
:10AF5000236A2168206B6031049A0DF46DD4E8698E
:10AF600050B1A86810B1216828680866E86840B147
:10AF700021686868086604E02946204603F066F800
:10AF80000646EFF31081012080F3108884F83480A6
:10AF90002068C26C42F00102C2642068026942F07B
:10AFA000010202612068C26A42F00802C26281F3B3
:10AFB0001088FDE6003001A0FFDC0001EDDC00019F
:10AFC00000C200A000C800A02DE9F04F89B00446DF
:10AFD0000D461646E869002807D068694FF4F8194D
:10AFE000484502D1286A082807D232462946204619
:10AFF00000F0A0F909B0BDE8F08F94F83400012802
:10B000000ED0012784F8347094F835004FF0000A10
:10B01000012807D04FF0020884F834A04046E9E741
:10B020000220E7E7C4F838A0022084F835000022A7
:10B0300001212046E36B03F045F980465FEA0800F2
:10B0400004D084F8357084F834A0E7E72046FFF791
:10B0500045FD371DDFF8C8B200287DD02868009074
:10B06000A868029068680190E8680390CDF810A085
:10B070004FF4F8100590A8690690E869079004203D
:10B08000089082016946204602F09CFD4FF01209AB
:10B0900084F83590E86960B13146204600F0F2FA54
:10B0A0002268296811662268696811662168086645
:10B0B00003E06946204602F0C9FF2068016941F0BB
:10B0C000010101614FF47A7301220421204603F04B
:10B0D000F9F84FF47A7300220121204603F0F2F8C8
:10B0E0002068016921F001010161CDF808A020204C
:10B0F00003904FF4F810059002200690286A001F74
:10B100000890286A001F8008A061206B2022017827
:10B11000584601F0EAFD206B04220178584601F000
:10B12000A6FD206B4FF400620178584601F06DFDDA
:10B13000206B4FF480420178584601F0A4FDA069CD
:10B140006061276184F83590216B76480863216B34
:10B1500075488863206B00E040E0C0F83CA0216B9C
:10B160004FF48010C860206B00220178584601F02F
:10B1700096FD206B4FF480752A460178584601F001
:10B1800050FD6A492068884206D1206B042201786C
:10B19000584601F052FD08E06549884205D1206B10
:10B1A0000C220178584601F048FD2A46694620469F
:10B1B00002F008FD63692268311D6032206B0DF4D6
:10B1C0003BD384F834A02068016941F0010101619A
:10B1D0002068C16C41F00201C1641FE7286800903B
:10B1E000A868029068680190E8680390CDF810A004
:10B1F000CDF81490A8690690E8690790286A001FA6
:10B200000890286A001F8008A061206B2022017826
:10B21000584601F06AFD206B04220178584601F07F
:10B2200026FD206B4FF400620178584601F0EDFCDA
:10B23000206B4FF480420178584601F024FD4FF412
:10B2400080794A466946204602F0BCFCA0696061EC
:10B250002761122084F83500216B32480863216B86
:10B2600031488863206BC0F83CA0216B4FF48010FC
:10B27000C860206B00220178584601F010FD206B59
:10B280004A460178584601F0CCFC2849206888429B
:10B2900006D1206B04220178584601F0CEFC08E06C
:10B2A0002349884205D1206B0C220178584601F0D1
:10B2B000C4FC63692268311D6032206B0DF4BCD27E
:10B2C000EFF31087012080F310882068016921F0D6
:10B2D00001010161E86980B13146204600F0D2F9F0
:10B2E000A96811B1226829681166E96811B122685C
:10B2F000696811662168086603E06946204602F025
:10B30000A5FE84F834A02068C16C41F00201C1643C
:10B310002068016941F00101016187F310887DE631
:10B32000003001A02DDD0001EDDC000100C200A015
:10B3300000C800A02DE9F74F82B004460D462F6AE1
:10B340004FF00008CDF80480E86900280BD101A96E
:10B35000284602F0DDFE30B1A16B41F00801A16387
:10B3600005B0BDE8F08F94F8340001280CD04FF000
:10B37000010A84F834A094F83500012806D002268A
:10B3800084F834803046EBE70220E9E7C4F83880DF
:10B39000022084F83500002201212046E36B02F0F0
:10B3A00091FF0646300004D084F835A084F834803C
:10B3B000E8E76869DFF8B491B0F5E02F19D8A76124
:10B3C000206B00220178484601F08FFC206B0022A0
:10B3D0000178484601F04BFC206B0022017848467A
:10B3E00001F013FC206B00220178484601F04BFC71
:10B3F0004EE04FF4006BB0F5702F23D8F80705D05E
:10B40000A06B40F00800A063012641E07808A0612D
:10B41000206B10220178484601F067FC206B022265
:10B420000178484601F023FC206B5A4601784846D3
:10B4300001F0EBFB206B4FF480420178484601F0AD
:10B4400022FC25E0B0F5F81F22D8B80705D0A06B84
:10B4500040F00800A06301261AE0B808A061206B44
:10B4600020220178484601F040FC206B042201783C
:10B47000484601F0FCFB206B5A460178484601F033
:10B48000C4FB206B4FF480420178484601F0FBFB7F
:10B4900026B184F835A084F8348073E74FF48077C0
:10B4A0003A462946204602F08DFBA0696061049867
:10B4B0002061122084F83500216B2D480863216B30
:10B4C0002C488863206BC0F83C80216B3803C8602F
:10B4D000206B00220178484601F0E1FB206B3A46E0
:10B4E0000178484601F09DFB23492068884206D137
:10B4F000206B04220178484601F09FFB08E01F49B9
:10B50000884205D1206B0C220178484601F095FB5A
:10B5100063692268206B603204990DF48DD1E8696B
:10B5200050B1A86810B1216828680866E86840B181
:10B5300021686868086604E02946204602F086FD16
:10B540000646EFF31081012080F3108884F83480E0
:10B550002068C26C42F00202C2642068026942F0B4
:10B560000102026181F310880CE70000003001A0A5
:10B570002DDD0001EDDC000100C200A000C800A02C
:10B5800030B50B4C0068094D231DA84205D1217030
:10B59000032A00D900221A6030BD064DA842FBD113
:10B5A0006170032A00D900225A6030BD00C200A099
:10B5B000C444800000C800A070B50546064813F4D6
:10B5C00081D7EFF31084012181F31088284600F021
:10B5D00005F884F3108870BDA847800070B5044654
:10B5E000002C1CD094F8340001281AD0012084F8D3
:10B5F000340094F83500002590B320682AF496D4DE
:10B60000204600F0C9F9184A2068184990420AD12A
:10B61000D1F8AC0240F48040C1F8AC020CE001204B
:10B6200070BD022070BD124A904205D1D1F8AC0223
:10B6300040F40040C1F8AC02D1F8A40200050CD5DA
:10B64000D1F8AC020B4A10400B4A824305D1D1F825
:10B65000A40240F48060C1F8A402A56384F83550C8
:10B6600084F83450002070BD00C200A000E000A0AB
:10B6700000C800A000FF010A00FF01000021FAF746
:10B6800013BE704730B50346002000221B681E4DD4
:10B690001E4CAB4201D1226803E01D4DAB4200D1EC
:10B6A000626882B1012A19D0022A22D0032A09D164
:10B6B0008878CA7840EA02200A784978120442EA77
:10B6C0000161084330BD08784A7840EA02208A7850
:10B6D000C978120442EA0161084330BD48780A780B
:10B6E00040EA0220CA788978120442EA01610843DC
:10B6F00030BDC8788A7840EA02204A780978120476
:10B7000042EA0161084330BD00C200A0C844800085
:10B7100000C800A090F835007047000070B50546DD
:10B72000064813F4CFD6EFF31084012181F310887B
:10B73000284600F005F884F3108870BDA847800003
:10B74000F0B58BB0044628223E4901A8F8F7DAFC90
:10B750003D483E490068B0FBF1F009905CB194F8B7
:10B76000340001280AD0012784F8347094F8350099
:10B77000002628B12DE001200BB0F0BD0220FBE730
:10B7800084F834603249486820F480604860086872
:10B7900020F480600860A1F528712E4A206890424C
:10B7A00006D1D1F8AC0220F48040C1F8AC0208E028
:10B7B000294A904205D1D1F8AC0220F40040C1F8EA
:10B7C000AC02204600F0E9F841F28831204600F052
:10B7D000E8F82068002181612068C16120680421A7
:10B7E0000165206800214165002201212046E36BAC
:10B7F00002F068FD0546280017D160680990207A9C
:10B8000000F080000790207A00F040000890E06887
:10B810000A902068816821F00101816001A92068F7
:10B820002AF494D3012804D0012584F834602846F2
:10B83000A2E72068816841F001018160A66384F875
:10B840003570F2E7440901010441800040420F00D5
:10B85000A0E200A000C200A000C800A0F8B5044605
:10B860002068056B4FF0010615F02E0F1FD0816C7C
:10B870000091C16A21F03F01C1622068016921F095
:10B8800001010161A06B40F00200A0632068C16C5F
:10B8900041B10021C164216B3E48C863206B0CF4A8
:10B8A00051D504E084F835602046FFF7E7FEE8064E
:10B8B00032D5E16A20468847606A68BB2068C16A61
:10B8C00021F01801C1620121206801F0E9FA002885
:10B8D000F9D12068016921F00101016194F8350076
:10B8E000222804D094F83500082806D014E084F803
:10B8F0003560204600F052F80EE084F8356020688C
:10B90000816821F0010181602068816841F00101B6
:10B9100081602046FFF7A9F8E8070AD0A06948B17E
:10B92000A16A20468847A069002802D1206800212A
:10B930008161F8BD2068C16A21F00101C162012165
:10B94000206801F0ADFA0028F9D12068016921F0E2
:10B950000101016194F83500122814D094F83500E3
:10B960000828E6D184F835602068816821F001015B
:10B9700081602068816841F0010181602046BDE856
:10B98000F840FFF772B884F835602046BDE8F8400B
:10B9900000F00EB9ADDC0001704770470221FAF7E4
:10B9A00083BCC163704700002DE9F74F8AB004469D
:10B9B000154694F8340001280FD04FF0010984F89F
:10B9C000349094F835000027012808D0022684F826
:10B9D000347030460DB0BDE8F08F0220FAE7A7635F
:10B9E000022084F83500002201212046E36B02F09A
:10B9F00069FC0646300004D084F8359084F8347031
:10BA0000E7E7206BDFF89481816941B14FF4006A68
:10BA10004FF4804B10291BD020293BD05BE0A5615F
:10BA200001780022404601F060F9206B0022017885
:10BA3000404601F01CF9206B00220178404601F0DD
:10BA4000E4F8206B00220178404601F01CF942E046
:10BA5000E90705D0A06B40F00800A06301263AE09A
:10BA60006908A16101781022404601F03EF9206B7F
:10BA700002220178404601F0FAF8206B5246017824
:10BA8000404601F0C2F8206B5A460178404601F06A
:10BA9000FAF820E0A90705D0A06B40F00800A063E9
:10BAA000012618E0A908A16101782022404601F092
:10BAB0001CF9206B04220178404601F0D8F8206B75
:10BAC00052460178404601F0A0F8206B5A460178B2
:10BAD000404601F0D8F826B184F8359084F83470E7
:10BAE00077E70397049705974FF4E02006900897AF
:10BAF00009954FF480752A4601A9204602F062F8A4
:10BB0000A06960610B982061122084F83500216BD8
:10BB100023480863216B23488863206BC763216B2C
:10BB20002803C860206B00220178404601F0B7F876
:10BB3000206B2A460178404601F073F81A492068C4
:10BB4000884206D1206B04220178404601F075F846
:10BB500008E01649884205D1206B0C220178404646
:10BB600001F06BF863692268206B60320B990CF46A
:10BB700063D6EFF31081012080F3108884F83470CD
:10BB80002068C26C42F00202C2642068026942F07E
:10BB90000102026181F310881BE70000003001A060
:10BBA0002DDD0001EDDC000100C200A000C800A0F6
:10BBB0000121FAF779BB000070B50446002C1ED0B5
:10BBC000207D01281DD0012626751E4D286820F0F5
:10BBD00001002860A86820F00070A860A5F529750C
:10BBE00020682AF447D2EFF3108186F310881648B4
:10BBF000026822F010020260006820B115E0012006
:10BC000070BD022070BD05F52875686840F0010020
:10BC10006860E86840F00070E860286840F0010063
:10BC20002860E86840F08070E86081F31088074879
:10BC3000006818B1416809B1204688470020607546
:10BC4000207570BDA4E200A090478000AC03800086
:10BC50002DE9F74F86B004460D46142101A8F8F7E8
:10BC60006AFA4FF00008207D01280ED04FF0010A3B
:10BC700084F814A0607D0027012808D04FF0010847
:10BC80002775404609B0BDE8F08F0220FAE7022090
:10BC9000607560680190A0680290E0680390206978
:10BCA0000490059701A920682AF4F7D14FF0040BFE
:10BCB00020B16068B0F5C05F05D01FE084F815B012
:10BCC00027750120DEE7CDB1A06870B32988206810
:10BCD0000162698820680162A98820680162E98898
:10BCE00020680162298920680162698920680162EF
:10BCF000A98920680162E9892068016220680168D9
:10BD000041F0010101604FF0E029D9F81460D9F841
:10BD10001850F8F753FE1A484FF47A710068B0FBD8
:10BD2000F1F1C8204143174B1EE0FFE72988206846
:10BD30000162698820680162A98820680162E98837
:10BD400020680162DAE7D9F81800854201DB2A1A77
:10BD500001E0321A2A44891A0546002904DC84F8D5
:10BD600015B0277503208DE75868C0F30000002840
:10BD7000E9D09868A0610899086084F815A07FE769
:10BD800004418000007801A070B50446002C08D062
:10BD9000207D012807D001252575607D002620B172
:10BDA00028E0012070BD022070BD2675174841684B
:10BDB00021F001014160C16821F00071C16001689A
:10BDC00021F001010160C16821F08071C160EFF3D1
:10BDD0001080012181F310880D490A6842F0100299
:10BDE0000A6080F310880B48006818B1016809B137
:10BDF00020468847022060752068016821F0010113
:10BE0000016065752675002070BD0000A0E200A0ED
:10BE100090478000AC03800010B51148817800295C
:10BE200009D11049096801F0405101228270B1F135
:10BE3000805F00D14270407870B19FED0B0B0C48D1
:10BE400053EC102B90ED000B51EC100BF8F7F8F9B8
:10BE5000BDE81040F8F7ABB9BDE810406FF4DA97D1
:10BE6000D044800050C500A0000000000000E03F6A
:10BE7000E04480007CB503F0A5FC044604208DF866
:10BE800000000D4D002055F8241081F8820054B1B7
:10BE900055F82400806F817A012904D14168007827
:10BEA0000122F9F7FFFD55F824000168002901D0AF
:10BEB000684688477CBD0000E842800070B50546B2
:10BEC000064814F4B1D4EFF31084012181F31088F3
:10BED000284614F43BD084F3108870BDC44780001A
:10BEE0007CB50546284603F06DFC044600218DF81C
:10BEF0000010E86C0190114D012055F8242082F8C3
:10BF0000840055F8242082F8850055F8240080F834
:10BF1000821054B155F82400806F817A012904D130
:10BF2000416800780122F9F7BDFD55F82400016849
:10BF3000002901D0684688477CBD0000E8428000A7
:10BF400070B50546064814F46FD4EFF31084012150
:10BF500081F31088284614F4F1D084F3108870BD62
:10BF6000C4478000704770472DE9F05F04460A9F80
:10BF70008A4693461E466A492068884204D10820B2
:10BF8000E0640120BDE8F09F94F8480001280ED03D
:10BF90004FF0010984F8489094F849004FF00008E8
:10BFA000012806D0022584F848802846EAE70220C6
:10BFB000E8E7C4F84C80022084F8490000220121FF
:10BFC0002046236D03F0C0FC0546280004D084F809
:10BFD000499084F84880E8E7206C806920B11028F7
:10BFE00004D020280DD016E0666214E0F00705D0DA
:10BFF000E06C40F00800E06401250CE0700860622D
:10C0000009E0B00705D0E06C40F00800E0640125CD
:10C0100001E0B0086062606C806920B1102804D033
:10C0200020280DD016E0276314E0F80705D0E06C57
:10C0300040F00800E06401250CE07808206309E086
:10C04000B80705D0E06C40F00800E064012501E08D
:10C05000B808206325B184F8499084F84880A4E7A3
:10C060004FF440723946204603F014F82068C16A44
:10C0700041F00801C162606A2062C4F81CA0206B14
:10C08000E062C4F828B0322084F84900216C2548C9
:10C090000863216C24488863216CC1F83C80626C81
:10C0A00022491163616C8863606CC0F83C80204950
:10C0B0002068204E88420CD1206C00220178304646
:10C0C00000F0C8FD606C01220178304600F000FEEF
:10C0D0000BE0206C02220178304600F0BBFD606C62
:10C0E00003220178304600F0F3FD236A22685146AE
:10C0F0006032206C0CF4A0D3E36A21685A466031A8
:10C10000606C0CF499D384F848802068C16C41F0CD
:10C110000101C1642068C16C41F00201C16444E7BF
:10C1200000C100A055F1000109F1000117F1000163
:10C1300000C000A0003001A07CB50546284603F0F1
:10C1400041FB044602208DF80000E86A296B401A82
:10C15000ADF804000F4D012055F8241081F884003B
:10C1600055F82400002180F8821020000AD055F8EC
:10C170002400806F817A012904D14168007801226E
:10C18000F9F790FC55F824000168002901D06846B1
:10C1900088477CBDE84280002DE9F0470446089FAF
:10C1A0009A4661F31F62154694F8480001280FD0A3
:10C1B0004FF0010984F8489094F849004FF00008C6
:10C1C000012807D0022684F848803046BDE8F08771
:10C1D0000220FBE7C4F84C80022084F849000022CA
:10C1E00001212046236D03F0AFFB0646300004D04A
:10C1F00084F8499084F84880E7E7206C806920B192
:10C20000102804D020280DD016E0676214E0F8074B
:10C2100005D0E06C40F00800E06401260CE07808EE
:10C22000606209E0B80705D0E06C40F00800E06407
:10C23000012601E0B808606226B184F8499084F8CC
:10C240004880C2E74FF480723946204602F022FF50
:10C25000606A2062C4F81CA0122084F84900216C96
:10C2600024480863216C24488863206CC0F83C8013
:10C27000224A21682248914205D1216C0022097886
:10C2800000F0E8FC04E0216C0222097800F0E2FCF6
:10C29000236A226851466032206C0CF4CDD284F8B7
:10C2A00048806068B0F5E02F06D0B0F5702F12D04E
:10C2B000B0F5F81F16D017E02168280E086621682F
:10C2C000C5F3074008662168C5F3072008662168A2
:10C2D000E8B2086608E02168280C08662168A8B260
:10C2E000086601E0206805662068C16C41F0020123
:10C2F000C1646AE755F1000109F1000100C000A026
:10C30000003001A07CB50546284603F05BFA0446E0
:10C3100001208DF80000296A6A6A891AADF80410B4
:10C320000F4D55F8241081F8850055F824000021A0
:10C3300080F8821020000AD055F82400806F817A9E
:10C34000012904D1416800780122F9F7ABFB55F8C7
:10C3500024000168002901D0684688477CBD0000A0
:10C36000E84280007CB50546284603F02BFA0446D7
:10C3700003208DF80000E86A296B401AADF804002C
:10C380000C4D002055F8241081F8820054B155F866
:10C390002400806F817A012904D14168007801224C
:10C3A000F9F780FB55F824000168002901D06846A0
:10C3B00088477CBDE84280001CB503F0C3FD052121
:10C3C0008DF800100649002251F8203083F8002132
:10C3D00051F820000168002901D0684688471CBD3B
:10C3E000D04280001CB503F0ADFD04218DF8001093
:10C3F0000649002251F8203083F8002151F820002E
:10C400000168002901D0684688471CBDD0428000E1
:10C410001CB503F097FD03218DF80010064900229A
:10C4200051F8203083F8002151F8200001680029DC
:10C4300001D0684688471CBDD042800070B50546D3
:10C44000064815F465D2EFF31084012181F31088BA
:10C45000284615F411D084F3108870BDE0478000A1
:10C460001CB50446204603F06DFD00228DF8002027
:10C47000E16B0191064951F8203083F8002151F811
:10C4800020000168002901D0684688471CBD0000D3
:10C49000D0428000002804D010F8371F40780843AD
:10C4A000704700207047000070B50546064815F437
:10C4B0002FD2EFF31084012181F31088284615F460
:10C4C000C9D084F3108870BDE04780007047704782
:10C4D0001CB50446204603F035FD02218DF80010FE
:10C4E000218D628D891AADF80410044951F820009D
:10C4F0000168002901D0684688471CBDD0428000F1
:10C500007CB50546284603F01DFD044601208DF844
:10C510000000288C698C401AADF804000C4D55F8C9
:10C52000240090F8040118B12046FAF7BFFB02E09E
:10C530002046FAF74FFD55F8240090F80011002925
:10C5400004D10168002901D0684688477CBD0000FD
:10C55000D0428000F0B5BDB04FF4B5713148F7F767
:10C56000EAFD48212BA8F7F7E6FD2BA859F4ECD0FB
:10C5700030B12DA210210020FBF772DC3DB0F0BDE0
:10C580009DF8AC3030A210210020FBF769DC0024BC
:10C590002BAF244E40E0AC216846F7F7CCFDC4EB4E
:10C5A000C40038440546401C694659F485D130B171
:10C5B00023462AA210210020FBF752DC2AE0307823
:10C5C00055F8011F00EBC00006EB8000C0F8021018
:10C5D000A988C180A97901729DF8000000070BD5D8
:10C5E00030781C2200EBC00006EB80000A300DF111
:10C5F0004601F7F787FD0AE030781C2200EBC00007
:10C6000006EB80000A300DF12A01F7F77BFD307848
:10C61000401C3070641CE4B29DF8AC00A042BAD853
:10C62000ACE70000300C8100523A313A696E69740F
:10C630002067657420626F6E642064657669636547
:10C6400073206661696C0A00523A313A626F6E6417
:10C650005F6E756D203D2025640A0000523A313A24
:10C66000696E69742067657420626F6E64207365FB
:10C670006320696E666F206661696C2C20696E6448
:10C680006578203D2025640A0000000070B503464F
:10C690000E46154608480468324621461846FEF7FD
:10C6A00097F8324629462046F7F757FD08B1002093
:10C6B00070BD012070BD00001445800030B58BB006
:10C6C00004460D46FF22282101A8F7F72DFD40F66C
:10C6D0000202ADF804200022ADF806208DF80840D3
:10C6E0002868039001A8FAF76BFD0BB030BD70B558
:10C6F0008AB006460D461446FF2228216846F7F701
:10C7000013FD40F60103ADF80030ADF802508DF88E
:10C7100004602068029060680390A06804906846F6
:10C72000FAF74EFD0AB070BD30B58BB005460C4629
:10C73000FF22282101A8F7F7F7FC4FF40062ADF8BB
:10C7400004200022ADF806208DF8085020680390E0
:10C750006068049001A8FAF733FD0BB030BD70B5E6
:10C760008AB005460C461646FF2228216846F7F790
:10C77000DBFC40F60603ADF80030ADF802408DF862
:10C780000450ADF808606846FAF71AFD0AB070BDAB
:10C7900070B58AB005460C461646FF222821684629
:10C7A000F7F7C2FC40F60303ADF80030ADF80240E5
:10C7B0008DF80450306802906846FAF701FD0AB01F
:10C7C00070BD30B58BB005460C46FF22282101A86C
:10C7D000F7F7AAFC40F60401ADF804100021ADF80B
:10C7E00006108DF8085020680390A088ADF810005E
:10C7F000A41D059401A8FAF7E3FC0BB030BD70B599
:10C800008AB005460C461646FF2228216846F7F7EF
:10C810008BFC40F60503ADF80030ADF802408DF812
:10C820000450306802906846FAF7CAFC0AB070BD3E
:10C830000178407841EA002070470178427841EA67
:10C840000221827841EA0241C07841EA00607047E3
:10C8500002680A60016070472DE9F04104462068D3
:10C860003B4D1FE090FAA0F1B1FA81F20121914015
:10C87000421E1040E26891FAA1F3B3FA83F39B00E1
:10C88000DFF8D0C0DCF890720F269E40B74302FA62
:10C8900003F31F43CCF89072072A25D02A6842EA96
:10C8A000014129600028DDD12168A0684FF6FF72A0
:10C8B00002EA0122C9B2B0F5807F1AD00023012814
:10C8C00019D000202E6811438E43184306432E6072
:10C8D0006168022911D0206800F05EF820681E49C6
:10C8E0004862606870B130E02A6822EA014129603C
:10C8F000D8E71346E3E70846E4E70021206800F0A4
:10C900004BF8EBE720688863206901280CD00228E7
:10C9100004D003280ED0042817D111E02068486302
:10C9200088622068086210E02068086388622068D6
:10C9300008620AE020680863C8622068086204E0B0
:10C9400020684863C862206808620120BDE8F08161
:10C9500050C500A000E000A0002001A00349096A22
:10C96000884301D00020704701207047002001A0BB
:10C9700010B5EFF31081012282F31088054B1A687D
:10C980004FF6FF7404EA002082431A6081F3108896
:10C9900010BD00005CC500A010B5C0B2EFF310825E
:10C9A000012383F31088054B1C688443002900D0C1
:10C9B000002004431C6082F3108810BD5CC500A0F9
:10C9C0002DE9F04704460F464FF001094FF00008EB
:10C9D00017F5803F46D03946204600F001F9012680
:10C9E00007F1080106FA01F5A8B13946204600F022
:10C9F00088F93946204600F0E9F80028F9D0C4F853
:10CA0000A0533946204600F0EBF80028F9D139460A
:10CA1000204600F0EFF804F544742560A560256118
:10CA2000A5612562BE40A6622663A6632664A6644D
:10CA3000A4F544744FF4606000EB471207EB470025
:10CA400000EBC70104EBC100026404224264C0F899
:10CA50001880C0F81C8044F83180C0F8088048462F
:10CA6000BDE8F087C4F898830021204600F0B8F8AC
:10CA70000028F9D10121204600F0B2F80028F3D1B6
:10CA80000221204600F0ACF80028EDD10321204619
:10CA900000F0A6F80028E7D10421204600F0A0F815
:10CAA0000028E1D10521204600F09AF80028DBD1CA
:10CAB0000621204600F094F80028D5D10721204611
:10CAC00000F08EF80028CFD1D4F89803C0F300000E
:10CAD0000028C9D1C3E700002DE9F04105460E4604
:10CAE0001446D5F89803C0F300000127002867D04A
:10CAF0003146284600F074F8C0B13146284600F0AF
:10CB000000F93146284600F061F80028F9D006F116
:10CB100008008740C5F8A0733146284600F060F849
:10CB20000028F9D13146284600F064F84FF46060DF
:10CB300000EB461206EB460000EBC60005EBC00119
:10CB40000A6404224A6400228A61CA612369A268D5
:10CB50001A43D4E9053633431A43E3691A438B6910
:10CB6000194E334013438B610A6C22F440620A640D
:10CB7000E2680B6C23F0404313430B64226845F8D2
:10CB8000302060688860206ACA696FF30B02024334
:10CB9000CA61606A4A6C22F4F06242EAC0104864DA
:10CBA000A06A4A6C22F4F04242EAC0204864E06A7B
:10CBB0000A6C22F0E00202430A640120BDE8F08121
:10CBC000C5F89873B2E700004900CEFF01EB4102BF
:10CBD00002EBC10100EBC100006CC0F340207047C4
:10CBE000D0F8A00301228A40104201D001207047F2
:10CBF0000020704701EB410202EBC10100EBC100D4
:10CC0000016C21F480710164704701EB410303EB77
:10CC1000C10100EBC100816921F4605111438161C0
:10CC2000704701EB410303EBC10100EBC1008169D7
:10CC300021F4C07111438161704701EB410303EBA3
:10CC4000C10100EBC100416C21F4F04141EAC22175
:10CC50004164704701EB410303EBC10100EBC100EC
:10CC6000416C21F4F04141EAC2214164704701EB7B
:10CC7000410303EBC10100EBC100816921F0060112
:10CC800011438161704701EB410303EBC10100EBEC
:10CC9000C100816921F4E03111438161704701EBEA
:10CCA000410303EBC10100EBC100816921F4C061C4
:10CCB00011438161704701EB410303EBC10100EBBC
:10CCC000C100416C21F4F06141EAC2114164704736
:10CCD00001EB410303EBC10100EBC100416C21F406
:10CCE000F06141EAC2114164704701EB410303EB7B
:10CCF000C10100EBC100816921F030011143816164
:10CD0000704701EB410202EBC10100EBC100016C75
:10CD100041F480710164704710B50E4B984201D107
:10CD2000002000E0102081400B4BD3F810428C43D0
:10CD3000022A0DD000200443C3F81042D3F80802A1
:10CD40008843012A00D000210843C3F8080210BD1F
:10CD50000846F0E7000001A000E000A02DE9F04146
:10CD600004462168404D26E091FAA1F0B0FA80F225
:10CD7000012090404A1E1140226990FAA0F3B3FAB4
:10CD800083F39B00394F3E684FF00F0C0CFA03FC05
:10CD900026EA0C0602FA03F31E433E60072A19D066
:10CDA000EFF31082012383F310882B6843EA80504D
:10CDB000286082F310880029D6D1E16820682A4EC5
:10CDC000361F29B34FF4F85202EA002201290DD090
:10CDD00000210CE0EFF31082012383F310882B680D
:10CDE00023EA8050286082F31088E4E71146336814
:10CDF00000F01F0083433360EFF31080012383F3BF
:10CE000010882B6893430B432B6080F3108804E059
:10CE1000316800F01F0001433160A168206800F014
:10CE200027F8208862684FF0F85101EA00614FF45A
:10CE3000F81303EA004082B1032A09D0336840EABC
:10CE40000104A343012A00D108460343336008E0EC
:10CE5000326808438243326003E032680843024389
:10CE600032600120BDE8F08140C500A094E200A03E
:10CE700010B500F01F00012901D0002100E001469B
:10CE8000EFF31082012383F31088044B1C68844362
:10CE90000C431C6082F3108810BD000040C500A048
:10CEA000806A814301D00020704701207047000054
:10CEB000034951F8200090F8940000F001007047F9
:10CEC000B413800070B51E4951F82040B4F88600B4
:10CED000002826D01B48B0F8E410B4F88A201A4B7A
:10CEE000A06F1A4DB3FBF0F3EB1A1144B3FBF1F54D
:10CEF0006D1EE16F814205D840F2352214A118A0C1
:10CF0000FAF7ACDFD4E91E10B0FBF1F1491E8D42F7
:10CF100000D30D46B4F88600854200D22846A4F816
:10CF20008600B4F88600B0F5FA7F07D3BDE87040FC
:10CF300040F23D2206A114A0FAF7909F70BD0000B8
:10CF4000B41380007412800000730A0020A107004F
:10CF50006C6C645F636F6E5F70617463682E6300F6
:10CF6000636F6E5F7061722D3E74696D656F75746D
:10CF7000203E20636F6E5F7061722D3E696E746536
:10CF80007276616C00000000636F6E5F7061722DDD
:10CF90003E6C6174656E6379203C3D20434F4E5F6B
:10CFA0004C4154454E43595F4D415800F8F7E6FE59
:10CFB000FBF74AF8FBF7D2FAFBF762FAFBF72EFE13
:10CFC000FCE710B5FDF7C0F810B103F060F8FEE71C
:10CFD000BDE81040F7F734B870B588B005460120B9
:10CFE00027490978002921D007A92846FCF7E6F847
:10CFF000002843D000260696A0F10804022206A9C4
:10D000002046FBF7C7FC80B2022811D01D48816979
:10D01000407A40F20722CDE9002002911A4B1BA270
:10D020004FF400410020FAF71BDF092008B070BD63
:10D03000082204A92046FBF793FC204C606878B1D5
:10D04000BDF8120068F4B8D3BDF81220616808304A
:10D05000114408446060284602F084FE0020E5E7A1
:10D06000207A6060BDF8120068F4A6D3BDF81220E3
:10D0700061681144084460602672ECE70220D5E73D
:10D08000C8238000641F800076090101523A353AB6
:10D0900025732C204C256420666C617368207374A2
:10D0A000617465203078253032582C206572726F9B
:10D0B00072203078253038580D0A0000D8328000B0
:10D0C0002DE9FE4306460C461746FAF776F82C483B
:10D0D000007878B37FB374B340F6EC7084422BD8F9
:10D0E0004EB3A6F57F40FF3826D002A93046FCF7A4
:10D0F00065F80546002D3DD008226946A5F10800D7
:10D10000FBF72EFC684602F0B7FFC8B1BDF8080077
:10D110004FF40048A04221D13A4621462846FFF765
:10D12000B5FA78B117A241460020FAF799DE00203F
:10D13000BDE8FE8302E0FFE70520F9E70120F7E7FD
:10D140000920F5E716A241460020FAF789DE3B46A2
:10D1500022463146284601F01FF9E9E71BA2414665
:10D160000020FAF77DDE3B4622463146284601F094
:10D1700013F9DDE73A4621463046F9F765FFD7E770
:10D18000C8238000523A353A6E7664735F707574C6
:10D1900028292073616D6520646174610D0A0000A7
:10D1A000523A353A6E7664735F707574282920722E
:10D1B00065706C616365206461746120776974686F
:10D1C0002073616D65206C656E0D0A00523A353A28
:10D1D0006E7664735F7075742829207265706C6157
:10D1E000636520646174612077697468206469668E
:10D1F00066206C656E0D0A0000281ED0028800F1C2
:10D200000801B2F5806F0CD0A2F58062013A0BD014
:10D21000022A0CD0032A10D1428A018A007900F038
:10D220000DB8007900F0BCB8007900F01BB9837824
:10D230000A460079194600F09FB87047FEB50546CA
:10D240000E461446204600F05AFA002819D0164F10
:10D25000164B0922B98D304600F037FA394601EBFA
:10D26000450603280ED008280BD1396841B18DF846
:10D270000150022C15D004208DF800006846884724
:10D280003483FEBD396841B18DF80150012C06D0C0
:10D2900002208DF8000068468847B480FEBD01205A
:10D2A000F7E70320E8E700003CB380006843800014
:10D2B0000EB58DF8010000208DF800000846FFF73C
:10D2C000BCFA0849884202D107208DF800000648C0
:10D2D0000168002905D09DF80000002801D06846AB
:10D2E00088470EBD444F4F473CB380000178012969
:10D2F0000AD00F4A052909D0062916D0072916D1C8
:10D300009069002813D0004761F428979378D1786A
:10D310005B1E194203D10189406861F4099602211C
:10D32000517001894068FBF72DBF61F41596704775
:10D3300010438000FEB504460D4616461A200C49DF
:10D3400001EB44029288012A10D100208DF80000E0
:10D35000898D084A022000F09DF9ADF80200ADF871
:10D360000460029569462046FAF752F9FEBD0000B6
:10D370003CB38000684380000EB5084B1B68002B4F
:10D380000BD08DF80100002907D11078002804D1B6
:10D3900006208DF80000684698470EBD3CB380001B
:10D3A0003EB505460C781448144B0922818D204661
:10D3B00000F08BF9ADF8004000228DF804200E49F2
:10D3C000022301EB450103280BD008280ED0ADF84D
:10D3D000022001208DF8040069462846FAF74AF930
:10D3E0003EBDADF80230091D0291F5E7ADF80230FF
:10D3F00018310291F0E700003CB3800068438000E0
:10D4000070B5002823D0134C0068206004F1300070
:10D410002C210546F6F78FFE0020A08504F12C0193
:10D4200021630D4860630D48A063092084F83C0027
:10D43000402084F85A00012084F85B000648103030
:10D4400020642846BDE870400549FAF7EFB802208D
:10D4500070BD00003CB38000CC0501016843800032
:10D46000F9D100012DE9FF4105460C4626782E4FE3
:10D470002E4B0922B98D304600F027F9ADF80C602B
:10D4800000218DF80E10394601EB450603281ED009
:10D4900005280CD0072840D008282BD001208DF873
:10D4A0000E0003A92846FAF743F9BDE8FF81396861
:10D4B0000029F6D08DF8015005208DF80000A068F5
:10D4C0000190A088ADF8080068468847E9E7A068A1
:10D4D000FFF7AEF90446396841B18DF80150012CCF
:10D4E00006D002208DF8000068468847B480D8E74F
:10D4F0000120F7E7A068FFF79BF90446396841B1BE
:10D500008DF80150022C06D004208DF800006846EA
:10D5100088473483C5E70320F7E7A2882846A16837
:10D52000FFF7C6FEBDE700003CB380006843800003
:10D5300010B50549EB20086104490968C860034833
:10D54000F8F7BDDC10BD0000101F8000641F8000D4
:10D5500001460148F8F7CE9E641F800010B53048A0
:10D560000168090602D4016849061FD5016821F443
:10D5700080510160016821F400610160016841F09F
:10D5800040010160016841F480710160016821F08F
:10D5900040010160016841F080010160016841F4CF
:10D5A00000710160016821F0800101601C48403079
:10D5B0000168C1F3801121B11A490A7842F00402CE
:10D5C0000A70194901600020012341B2002909DBDA
:10D5D00001F01F0403FA04F24909890001F1E02176
:10D5E000C1F88022401CC0B22228EED3002002F0F5
:10D5F00055FD00242046FAF705FB01462046FAF7C0
:10D600000BFB00F023F809486EF4C8D00020F7F7B0
:10D61000A3F9FBF73DFCBDE8104000F009B800009D
:10D6200004C500A000418000A0FEFFFF3C4980002F
:10D630000548016821F08071016003496FF04000E6
:10D64000143908607047000058C500A04FF47A7084
:10D650000F4A116821F0807111604FF4C0310C4BFA
:10D6600038331960116841F000711160084B6FF098
:10D670004001143B19600021136861F3DF631360FC
:10D68000401E411CFCD1106840F080701060704753
:10D6900058C500A070B5044600200B46002C01D0F0
:10D6A00001210FE0084670BDCD0801F00706555D69
:10D6B000F540ED0704D05B1C9BB2A14200D1184697
:10D6C000491CC9B2A142EFD970BDF0B50646491C4C
:10D6D00089B2002701200EE0C40800F007051C5D98
:10D6E000EC40E40705D0B14201D1074605E0491CF2
:10D6F00089B2401CC0B29042EED33846F0BD00283B
:10D7000005D0012803D0022801D000207047012055
:10D71000704700002DE9FC470025002641680A7883
:10D7200002F00F044A780B798F7842EA0363CA78D3
:10D73000120442EA07221343444A1768BB4200D14D
:10D74000012515B101230B7001E002230B70416824
:10D750004C703F4F4FF00008F978B1B14368117831
:10D76000597011884368090A997011684368090C57
:10D77000D97011684268090E11710288406805214C
:10D7800062F4B4D187F8038004E002884068012184
:10D7900062F4ACD1012D4CD1012C01D0032C48D125
:10D7A000F9F778FF284662F4B7D001F0B5FB2949B4
:10D7B000A1F52157C8683860496808442822391DF6
:10D7C000FDF706F84FF4805949462348FCF7B2FFAD
:10D7D0004946DFF888904846FCF7ACFF2822391DFF
:10D7E0004846FDF725F801F0BBFB012C21D10126AD
:10D7F0001BA003C8CDE900011B48006800F007002A
:10D800001DF80070194847431948D0F80090194C8A
:10D81000D4F800A048465146FCF7D2FE6068616823
:10D82000091AB942FBD351464846FCF7A9FEF7F75F
:10D8300025DF16B9284662F46FD0002061F4A0D627
:10D840000D4880F80080BDE8FC870000902480002F
:10D850001043800014B3800000300001002000015C
:10D86000403010181020000004C500A0400D030037
:10D87000FCED00E0001000E0482580002DE9F05F9D
:10D8800004466168087800F00F054FEA1018894EC9
:10D890004FF0000A86F803A0DFF81C92874F4FF084
:10D8A000020B002D02D1608829282BD0022D58D0E0
:10D8B000032D56D048780A798B7840EA0260CA78FE
:10D8C000120442EA0322104338604A790B7A42EA92
:10D8D0000362CB7989791B0443EA01210A4332614F
:10D8E000C9F80C00002D75D0012061F449D64FF421
:10D8F0008051386861F49AD500286CD061680120A5
:10D900000870C4E0491C28226B48F6F7FBFBB9F805
:10D910000000A0F58E41443906D1D9F80C0001056C
:10D9200002D1FAF7E6FE48B1606880F800B02288BC
:10D930006068BDE8F05F012162F4D89062F486D09F
:10D9400028B1D9F8040000F56270306103E0D9F81D
:10D95000040030303061D9F80C006FF30B003860F0
:10D96000C0E74FF0010B86F803B0608829281ED06D
:10D9700048780A798B7840EA0260CA78120442EA51
:10D980000322104338604A790B7A42EA0362CB796A
:10D9900089791B0443EA01210A433261C9F80C006A
:10D9A000306901052FD00BEB1030F0802DE0491CC1
:10D9B00028224148F6F7A6FBD9F80C006FF30B00BC
:10D9C000386062F443D038B1D9F8040000F56270D1
:10D9D0003061E5E754E057E0B8F1010F07D0B8F146
:10D9E000020F0AD0D9F8040030303061D8E7D9F8F6
:10D9F000040000F562703061D2E7D9F8040000F548
:10DA000062703061CCE7000BF080022D34D0012031
:10DA100061F4B6D53868F060606880F800B060687E
:10DA200080F801B06168F08888706168000AC87089
:10DA300022880421606862F459D086F801B086F823
:10DA400000A0C6F814A0A6F808A01D48C0F800A0C1
:10DA500086F802A01B494FF40052A1F5016000F0C6
:10DA6000A2FF194800F092FF306961F461D71748AE
:10DA700080F800A0BDE8F09F002061F481D5C9E7DF
:10DA8000002061F47DD532E7606880F800B00C4872
:10DA9000C0F800A022880121606862F427D00B48FA
:10DAA00080F800A0306961F443D7BDE8F05F002042
:10DAB00061F466951043800014B380008C248000CC
:10DAC0009024800014938000048B800048258000FF
:10DAD00070B501260F240F4D55F8241019B10968AF
:10DAE00009B1884728B1641E24B2002CF4DA16B1BB
:10DAF0000EE00026FBE7641C24B207E055F8241072
:10DB000011B1496801B18847641C24B2102CF5DBBF
:10DB1000304670BDC088800010B5054800780028E8
:10DB200002D0F8F729D810BDF8F70FD810BD0000C3
:10DB30005C4880002DE9F04781460E464FF0FF38E3
:10DB40000024EFF31087012080F31088154D95F81D
:10DB50005000002809D114486AF4D4D60021134893
:10DB60006BF432D1012085F85000B9F1000F13D0C9
:10DB7000032E11D886B101E0641CE4B2102C03D24C
:10DB800055F824000028F7D1102C05D245F8249030
:10DB9000281980F84060A04687F310884046BDE809
:10DBA000F0870000C0888000F1498000D1DA0001D0
:10DBB000102803D2024A002142F8201070470000CA
:10DBC000C088800010B503689C6824F001049C6044
:10DBD00003681C6824F4407414431C6002684B6999
:10DBE000146824F4F8141C4314604A69B2F5E02F59
:10DBF0000BD80B6A02685B1E54686FF30F041C435A
:10DC0000546002680023536520E04FF0FF33B2F503
:10DC1000702F0CD80C6A026803EB540354686FF33E
:10DC20000F041C4354600268032353650EE0B2F5F1
:10DC3000F81F0BD80C6A026803EB940354686FF367
:10DC40000F041C435460026803235365CA6902B37E
:10DC500002688B6852F8F44F24F440741C4314603B
:10DC60000268CB6852F8F44F24F03C041C43146063
:10DC700002688B6952F8F44F24F003041C431460CB
:10DC800002680B6952F8F44F24F4784444EAC32341
:10DC900013600268C969136823F4C0030B4313605F
:10DCA0000068816841F00101816010BDC06A0021F7
:10DCB0004162816101688A6822F001028A6001681C
:10DCC0008A6842F001028A6001680A6922F0010252
:10DCD0000A6190F835200121082A03D080F8351018
:10DCE000FDF7CCBC80F83510FCF7BFBE10B5C06A9C
:10DCF000816B41F004018163FCF7BAFE10BDC06A7C
:10DD0000002141620168CA6C22F00102CA64016804
:10DD10000A6922F001020A6190F83510222904D123
:10DD2000012180F83510FDF739BE7047C06A002127
:10DD300081610168CA6C22F00202CA640068C16A8B
:10DD400041F00101C162704770B58AB004460E46C9
:10DD5000154624220B4901A8F6F7D4F90294099537
:10DD6000094C00206070A078324601A9F8F76AF9E2
:10DD700010B100200AB070BD60780028FCD02846A1
:10DD8000F8E70000840701016C43800070B58AB099
:10DD900004460E46154624220B4901A8F6F7B2F9AF
:10DDA00002940995094C00202070A078324601A900
:10DDB000F8F790F910B100200AB070BD2078002863
:10DDC000FCD02846F8E700003C0701016C438000C6
:10DDD00070B58AB004460E46154624220B4901A8A8
:10DDE000F6F790F902940995094C00206070A0782C
:10DDF000324601A9F8F726F910B100200AB070BD2B
:10DE000060780028FCD02846F8E700006007010190
:10DE10006C4380001CB50021019120228DF8042064
:10DE2000020C8DF80520020A8DF806208DF80700F7
:10DE3000084C217004200090A07801AB4FF4E02240
:10DE4000F8F7EAF908B100201CBD20780028FCD0C2
:10DE500001201CBD6C43800070B58AB004460E469C
:10DE6000154624220B4901A8F6F74CF902940995AE
:10DE7000094C00202070A078324601A9F8F72AF951
:10DE800010B100200AB070BD20780028FCD02846D0
:10DE9000F8E70000180701016C4380000FB47CB55F
:10DEA00057480169C068CDE9000100249DF82200AF
:10DEB00001281CD19DF821008DF8050002208DF865
:10DEC00004000798009007208DF806009DF8185070
:10DED00069462846F7F728FD04461CB120467CBC5D
:10DEE0005DF814FB012228460799F7F7DBFD9DF842
:10DEF0002E00012816D19DF82D008DF805000A98F6
:10DF000000909DF825008DF806009DF82C008DF8F6
:10DF100004009DF824006946F7F706FD04460CB19D
:10DF20002046DCE79DF83A00012816D19DF839001B
:10DF30008DF805000D9800909DF831008DF80600D1
:10DF40009DF838008DF804009DF830006946F7F719
:10DF5000EBFC04460CB12046C1E79DF846000128C1
:10DF600016D19DF845008DF80500109800909DF899
:10DF70003D008DF806009DF844008DF804009DF8E2
:10DF80003C006946F7F7D0FC04460CB12046A6E7F2
:10DF90009DF85200012816D19DF851008DF805001A
:10DFA000139800909DF849008DF806009DF85000E8
:10DFB0008DF804009DF848006946F7F7B5FC044663
:10DFC0000CB120468BE79DF85E00012816D19DF824
:10DFD0005D008DF80500169800909DF855008DF8AD
:10DFE00006009DF85C008DF804009DF85400694619
:10DFF000F7F79AFC04460CB1204670E720466EE71E
:10E00000EC04010170B500240F4E56F82400A8B1AD
:10E0100090F86A10012911D1FDF77CFB18B1012895
:10E0200001D0002070BDEFF31085012080F310882F
:10E0300056F82400F7F7E8DA85F31088641CE4B298
:10E04000022CE2D3012070BDDC428000F0B5CA6929
:10E050000826520DD6404A69B2F5F81F07D0B2F52E
:10E06000702F08D0B2F5E02F09D00120F0BD202399
:10E070004FF0FF3405E010234FF6FF7401E0082352
:10E08000FF248A68BAB1B2F5407F04D0B2F5007FB0
:10E0900003D00120F0BD102200E008229A4208D2ED
:10E0A0000120F0BD0D68D21A0768D54025403D66B5
:10E0B000D2B2002AF6D1CA68EAB1202A07D0182ABB
:10E0C00007D0102A07D0082A07D00120F0BD20224F
:10E0D00004E0182202E0102200E008229A4208D24E
:10E0E0000120F0BD4D68D21A0768D54025403D6635
:10E0F000D2B2002AF6D1096941B1C9B2FF2203E0C8
:10E1000003681A66891BC9B20029F9D10020F0BD45
:10E110002DE9F04300230025C2690024002A03D022
:10E120000C600020BDE8F08302694FF470264FF4C4
:10E13000E0286AB14569454501D1082A05D0B542B4
:10E1400001D1102A03D00120ECE7012500E00125D0
:10E1500042694FF4F819424505D0B24203D04A450E
:10E1600001D0C0F8148042694FF4007C4FF440772E
:10E17000424513D001254FF02008B24232D04A4523
:10E1800070D18268624502D1C668182E7BD0BA422F
:10E1900002D1C668102E7DD092B385E00024002203
:10E1A000866836B1664501D1012402E0BE420CD139
:10E1B0000224C06890B1082809D0102809D0182876
:10E1C00009D0202809D0012379E0012377E001223A
:10E1D00004E0022202E0032200E00422A018284406
:10E1E00008606CE082680AB9C6680EB112B104E03A
:10E1F0000C6064E0C668102E03D002261AB107E056
:10E200004FE00D605BE0D0F80C90B9F1200F1DD00D
:10E21000624504D1D0F80C90B9F1080F18D06245CE
:10E2200004D1D0F80CC0BCF1180F1ED0BA4201D1F5
:10E23000C4680CB3BA4202D1C468102C1ED0BA42D2
:10E2400002D1C06820281BD0012338E00E6036E0E0
:10E2500084601022C2600478426864F31F22426026
:10E260000D602CE02AE00EE014E08460C0F80C8021
:10E270000278C2710E6022E00D6020E00E601EE0A8
:10E28000032008601BE08460C0F80C800278C27133
:10E290000D6014E08460C0F80C800288C2800D60BC
:10E2A0000DE0C668202E01D012B103E00D6006E03B
:10E2B000C06808B1012302E00C6000E001231846A9
:10E2C00030E700002DE9F05F0746894692461E467A
:10E2D0004FF0E02BDBF81480DBF81850F6F76EFBFC
:10E2E00016484FF47A710068B0FBF1F070433A6859
:10E2F00019E0711C17D0DBF81840A54201DB291B7F
:10E3000002E0A8EB04012944401A25460EB100287A
:10E3100009DC042087F83500B86B40F00100B863D1
:10E320000120BDE8F09F916A11EA090F01D0012197
:10E3300000E000215145DCD10020F2E704418000DB
:10E3400010B5002408480068C00600D5012400F07C
:10E3500013FCF9F789DD00F00FFC54F4EDD72046EB
:10E36000BDE8104000F0E4BB9047800070B5044663
:10E370000D46164628682168002B03D03246FAF76E
:10E38000EFFA02E03246FCF723FA286830442860AE
:10E3900020683044206070BD2DE9F04387B00F46FF
:10E3A0009046994600250695A0F10806032402220E
:10E3B00006A93046FAF7EEFA022803D0641E14F0DC
:10E3C000FF04F4D1022812D01B488169407A40F240
:10E3D0006932CDE900200291184B19A24FF4004197
:10E3E0000020F9F73DDD092007B0BDE8F0830822E1
:10E3F00004A93046FAF7B4FABDF8120067F4DCD18C
:10E40000C0B21B4A516871B1BDF8123008301944CE
:10E4100008445060384601F0A5FC4A46414638465B
:10E42000F8F712FEE0E7117ABDF8123019440844FB
:10E4300050601572EEE70000641F80009009010132
:10E44000523A353A25732C204C256420666C617352
:10E4500068207374617465203078253032582C2020
:10E460006572726F72203078253038580D0A0000BE
:10E47000D83280001048C16A21F00051C162C16ADF
:10E4800021F40051C162C16A21F08051C162C16AA8
:10E4900021F48051C162C16A41F40051C162C16A74
:10E4A00021F40051C162C16A41F48051C162C16A64
:10E4B00021F48051C1627047002001B010B56BF4A7
:10E4C0004BD0BDE810406BF49B90000010B53C4869
:10E4D0000168C1F38011002904D00168C1F3C011A3
:10E4E00000296CD1016841F400710160016841F0BC
:10E4F00080010160016821F400710160016841F050
:10E5000040010160016821F4807101602C49603193
:10E510000A6822F04C6242F04C620A60091D0A68E7
:10E5200022F04C6242F008620A6025497C310A6898
:10E53000C2F34002002AFAD1214B0A2280331A602A
:10E540000A6842F001020A600A68C2F34002002A27
:10E55000FAD1016821F400610160016821F4805161
:10E560000160016841F400610160016841F480517B
:10E57000016001206DF443D3EFF31081012080F39B
:10E5800010880F483C30026822F48022026081F338
:10E590001088EFF31081012282F31088026822F4C0
:10E5A0008032026081F31088EFF31081012282F340
:10E5B0001088026822F40032026081F3108810BDD6
:10E5C00004C500A0044903480860054903480860E1
:10E5D0007047000045E6000178238000B17080009C
:10E5E0007C23800038B5002400200090684601F0AC
:10E5F0004FFA9DF80000104902281AD0052818D0BB
:10E60000062816D00520087009780C4A0B39105DD1
:10E610008B2801D908441055641CE4B2282CF6D389
:10E6200007490878401D08706BF4EED000F0D0F870
:10E6300038BD0B200870E7E7484880003C34800074
:10E640003B34800010B5044620466BF405D0F8F743
:10E65000B4FD6BF4CDD01048016841F00C010160AD
:10E660000E4BA02240F6D81140F63810FAF734FCD1
:10E6700000F01AF86BF48CD16AF4E0D76BF4CED2C8
:10E68000074860610748A061F8F704DDFFF7AAFFBB
:10E69000BDE81040F8F7DE9C842001B0A80D810091
:10E6A00019E90001A9E800012DE9F0432DED028BE5
:10E6B000A9B000250026A02101A8F5F73CFD3C48A3
:10E6C000016821F4C07141F080010160416821F4CA
:10E6D00080514160002400206AF464D7FFF7EEFE09
:10E6E000FBF7EAFC01900198064427206AF45AD708
:10E6F000FFF7E4FEFBF7E0FC289001992898401A08
:10E700000544641C072CE6DB2846F5F743FD9FED26
:10E71000298B53EC182BF5F7ACFE41EC100BF6F7F8
:10E72000D7F951EC100BF5F742FD04463046F5F7EA
:10E7300031FD53EC182BF5F79CFE41EC100BF6F76E
:10E74000C7F951EC100BF5F732FD0546002000909B
:10E75000684601F08DF90020184FDFF864C0DFF83B
:10E760006480194A01AB272600FB04F1B1FBF6F1E6
:10E77000294443F82010B7FBF1F90CF80090B8FBDE
:10E78000F1F19DF800904944C9B21154802901D992
:10E790000B311154401CC0B22828E5D3FFF76AFEA4
:10E7A0000A490520086029B0BDEC028BBDE8F08362
:10E7B000802001B00000000000001C4000C0A83212
:10E7C000143480000080D7253C34800000CD00A0A8
:10E7D0002DE9F04100201849184C164FDFF860C0B1
:10E7E000251D184ADFF860800968261F57F8203079
:10E7F00023F47C3343EA013323605CF820302B6040
:10E8000000F1280343F48063336052F8203023F48E
:10E810007C3343EA0133236058F820302B6000F149
:10E82000500343F480633360401C2828DED3BDE8E6
:10E83000F0810000F4D707000424800008CD00A078
:10E8400094D8070034D90700D4D90700012801D192
:10E85000192902D0022804D005E01D2010700E48AE
:10E860007047192902D0012804D005E0102010704B
:10E870000A487047642902D0022804D005E0152018
:10E88000107007487047642902D00020107070474C
:10E890000E20107003487047E4090101E8DA070010
:10E8A00028DB07007CDB070038B504466BF4D4D1C5
:10E8B00005466BF461D0C1B26A4668B2FFF7C6FF85
:10E8C00070B11149097811B1104991F90040002146
:10E8D0000F4AB2F9002002EB84039DF8002008E003
:10E8E0000C48007838BD30F921409C4203DA491CBD
:10E8F000C9B29142F7D3521E914200D31146C9B218
:10E9000000EB8100807838BDFB238000FA23800073
:10E9100000248000F8238000F8B5054600246BF43D
:10E920009BD106466BF428D0C1B26A4670B2FFF79D
:10E930008DFF1349097819B1124890F90000F8BD0C
:10E9400000219DF8002016E000EB81039B78AB428C
:10E950000FD130F92100C11700EB917081100A48E6
:10E96000B0F90000C21700EB9270A1EBA00044B216
:10E9700003E0491CC9B29142E6D32046F8BD00002D
:10E98000FB238000FA23800000248000EFF3108135
:10E99000012282F31088002802D000228260C26027
:10E9A00081F31088704710B500290FD070B16AB19B
:10E9B000EFF31083012484F310880260416000218A
:10E9C0008160C16083F31088012010BD002010BD5C
:10E9D00000280AD0EFF31083012181F310888168A9
:10E9E000C2688A4203D8881A04E000207047006891
:10E9F000801A084483F3108870472DE9F0470546D4
:10EA00008A464FF00008EFF31089012080F3108848
:10EA1000AF68EE68002D2ED0696861B3BAF1000FBF
:10EA200029D0B74204D3BC1BA2420DD814460BE038
:10EA30002868831BDC19A24200D81446321982428E
:10EA400002D3A219A2EB0008A4EB080231445046FD
:10EA5000F5F758FB0AEB0400A0EB08004246696892
:10EA6000F5F750FB30192968814202D8B84200D925
:10EA7000401AE86000E0002489F310882046BDE8D1
:10EA8000F08710B501460020EFF31084012282F3D5
:10EA900010888A68CB68002908D0934202D9981A56
:10EAA000401E03E00868801A1844401E84F3108852
:10EAB00010BD2DE9F047044689460027EFF3108882
:10EAC000012080F31088A668E068002C2AD06368D3
:10EAD00043B3B9F1000F25D0B04205D9851B6D1E97
:10EAE000AA420CD815460AE021688D1B05446D1E0C
:10EAF000AA4200D815467019884200D3471AEA1B6B
:10EB000098194946F5F7FEFA09EB0500C11B3A468C
:10EB10006068F5F7F7FA70192168814200D8401A49
:10EB2000A06000E0002588F310882846BDE8F08743
:10EB300001281CD10E48416821F001014160C168E3
:10EB400021F00071C160016821F001010160C1681C
:10EB500021F08071C160EFF31080012181F31088F2
:10EB600004490A6842F010020A6080F31088704776
:10EB7000A0E200A09047800010B58EB000240D9454
:10EB8000134890E80E00C068CDE90A2309910C9063
:10EB9000202101A8F5F7CFFA0E48019005944FF413
:10EBA00080500290C01003900420049001A8FDF74B
:10EBB00003F801A8FDF7E8F80DAA09A901A8FDF7D7
:10EBC00047F801A8FCF7F8FF0D980EB010BD000043
:10EBD000580A0101007801A000214FF0304002687E
:10EBE00042F080720260026842F0007202600348E4
:10EBF000C288521CC28041707047000000488000EB
:10EC000002490148086070479B768000802380009D
:10EC10002DE9FE4326484FF4A071C1604FF0304605
:10EC2000306820F4807030600020224FE84600EB0E
:10EC3000800107EB8101B1F86C18C1F30E0128F8CF
:10EC40001010401CC0B20628F1D30120316860F3D7
:10EC5000DF7131603068C00F0028FBD10024A1466D
:10EC600038F81450E80B04D0552213491348F9F72B
:10EC7000F5D809EB890007EB8000B0F86C186FF34A
:10EC80000E012943A0F86C18641CE4B2062CE6D3EC
:10EC90000120F7F7B1D90A48F060306840F480707D
:10ECA000306000F055F8BDE8FE4345F435930000B0
:10ECB00000488000008000B0400C0101040C0101FC
:10ECC0007E000100054904480860064904480860C0
:10ECD00005486CF43B9600005F6F80008024800044
:10ECE000916C80006824800000C2EB0B0449002076
:10ECF00008800549034808600549044808607047D2
:10ED0000B20680001D758000D4068000017380006B
:10ED1000D806800007490648086008490648086088
:10ED2000084907488860094907480860704700009B
:10ED30000D62800004078000796080000C0780006D
:10ED400041710001B41A8000C55F8000080780008F
:10ED50002DE9F041154E96F8004100271BE01448BC
:10ED600000EB0410028822F0380242F030020280E8
:10ED7000491E86F8021106EB04156B682BB1287B3F
:10ED800018B10422A968286898472F73641C04F0FE
:10ED90000F0486F8004196F802110029DFD10549D9
:10EDA0000888401C0880BDE8F0810000C01A80007F
:10EDB000008000B0E8068000014600200A2906D243
:10EDC000044A32F83110A1F57F42FF3A00D1032006
:10EDD000704700002A2780007FB500200090019036
:10EDE000029003900024124D124E05EB0410D0E95E
:10EDF00005230169C0698DE80E0003900198B042B7
:10EE000012D20D490398884205D1DDE9010200992B
:10EE1000F5F778F908E0084903981C31884203D1D6
:10EE2000DDE90101F5F787F9641C032CDDD37FBD13
:10EE300080E9070000408000042D060070B58AB00C
:10EE400005461646002902D06031CCB200E00C46DF
:10EE5000FF2228216846F5F767F940F20170ADF806
:10EE60000000ADF802408DF804508DF8056068464A
:10EE7000F8F7A6F90AB070BD30B58BB004460D4660
:10EE8000FF22282101A8F5F74FF94FF4E062ADF811
:10EE900004200022ADF806208DF8084021222946E2
:10EEA0000DF10900F5F72EF901A8F8F789F90BB073
:10EEB00030BD30B58BB004460D46FF22282101A895
:10EEC000F5F732F940F20472ADF804200022ADF8F3
:10EED00006208DF808408DF8095001A8F8F770F960
:10EEE0000BB030BD30B58BB004460D46FF22282153
:10EEF00001A8F5F719F940F20372ADF804200022D9
:10EF0000ADF806208DF808408DF8095001A8F8F7F3
:10EF100057F90BB030BD000010B56DF427D00028B4
:10EF200008D066F46FD704490871BDE8104000208E
:10EF300066F4B69710BD00001043800010B56DF464
:10EF400015D0002808D066F45DD704490870BDE8E4
:10EF50001040002066F4A49710BD0000AC4480006F
:10EF600010B56DF403D0002805D003480079BDE842
:10EF7000104066F4959710BD1043800010B56CF4F6
:10EF8000F5D7002805D003480078BDE8104066F4A6
:10EF9000879710BDAC44800010B500230022010902
:10EFA0000404A4EB015444EA0151174C2160B0F56C
:10EFB000146F26D0B0F5156F23D0B0F5166F20D0A2
:10EFC000B0F5176F1DD0B0F5186F1AD0B0F5196FE6
:10EFD00017D0B0F51A6F14D0B0F51B6F11D0B0F583
:10EFE0001C6F0ED0B0F51D6F0BD0012202EBC300D9
:10EFF0000549E030091F0860034908201C390860F2
:10F0000010BD0123F2E700001CCD00A010B500F0F8
:10F010008DFFFBF7ABFB68B1FEF78AFA0020FEF725
:10F0200097FAFEF79BFAFBF7AFFC03480068034929
:10F03000886010BDFEE70000004000010041800034
:10F04000024A103042F82010704700000042800051
:10F05000007801220949012800D1CA70022800D194
:10F060000A71032800D14A71002805D1CA700A71BB
:10F070004A7103A0F5F7CCBC704700006C438000D8
:10F08000737069206572726F72206576656E742187
:10F090002100000010B503689C6824F001049C6006
:10F0A00003681C6824F4407414431C60B2F5007FAC
:10F0B00002D0B2F5407F21D14268B2F5E02F07D8E7
:10F0C0000268491E53686FF30F030B43536015E04A
:10F0D0004FF0FF33B2F5702F08D8026803EB5101EF
:10F0E00053686FF30F030B43536007E0026803EBB1
:10F0F000910153686FF30F030B43536000688168FD
:10F1000041F00101816010BDC06AC16C41F0040191
:10F11000C16410F47B9670B5C46A00202063206837
:10F12000C16C21F00101C16494F849000125222835
:10F1300004D184F849502046FCF7FEFF94F84900BA
:10F14000322806D184F849502046BDE87040FDF7CA
:10F1500009B970BDC06A002141620168CA6C22F021
:10F160000202CA640068C16A41F00101C1627047CD
:10F170007CB515A00068019000F0F8FA1348144C13
:10F180000178002099B1207001200090A07801AB97
:10F190004FF4E0220021F7F73FF8054620780028D9
:10F1A000FCD000F049FAC007FBD15DB17CBDE07036
:10F1B000A079012201A9F7F73DFB0546E078002878
:10F1C000FCD0EEE701207CBDC700000098B38000B2
:10F1D0006C43800030B58BB000250A951748184C59
:10F1E0000078002819D02422164901A8F4F78AFFD4
:10F1F0006570A0780AAA01A9F6F724FF60780028B4
:10F20000FCD09DF828009DF82910000400EB012097
:10F210009DF82A100BB0084430BD0BA0006809907F
:10F22000657103200090A07901230AAA09A9F7F7C4
:10F23000ABFA60790028FCD0E3E7000098B38000C7
:10F240006C438000A80701019F00000070B50446D0
:10F250000D46002C07D0002D05D0FFF7BBFF206026
:10F2600000F002F8286070BD70B58AB000252C4807
:10F2700000262C4C0078002827D0099624222A4901
:10F280006846F4F73FFF6670A07809AA6946F6F76A
:10F29000D9FE61780029FCD09DF8240090B19DF83A
:10F2A0002710FF290ED200EB01609DF826109DF873
:10F2B0002520090401EB02210844401CC11700EB82
:10F2C0005170C5100AB0284670BD0896099617A05F
:10F2D00003C8CDE90601667105200090A0790523D9
:10F2E00008AA06A9F7F750FA61790029FCD09DF821
:10F2F00020100029E6D09DF82300FF28E2D201EB80
:10F3000000609DF822109DF82120090401EB0221E4
:10F310000844401CC11700EB5170C510D2E7000033
:10F3200098B380006C438000F40601015A00003459
:10F33000FF0000002DE9FC41044650222146804890
:10F34000F4F7E0FE2078042208237E4F012648B11E
:10F35000012801D002287DD10021012842D00228B5
:10F3600042D042E0774894F84D10083009B1C264A9
:10F3700000E0C36421790171A1688160217B417142
:10F38000217C017461694161217E4174217F017793
:10F39000216A016294F82410417794F8281080F8CB
:10F3A0002810E16AC16294F8301080F82910BE710B
:10F3B0000670B879F7F746F9624863490830F7F7FD
:10F3C00085FA20B1BDE8FC4160A0F5F721BB5D489E
:10F3D0000830F7F7B3F900287CD0BDE8FC416B4852
:10F3E000F5F716BBB97000E0BE70554D94F84D00AE
:10F3F000503508B16A6500E06B65A965686D022843
:10F400006AD0E965B878287020792871A068A8606A
:10F41000207B6871032028736E73AE73217C29747E
:10F4200061696961217E697428766E76AE76217F86
:10F430002977216A296294F82410697785F82400D5
:10F4400085F8256085F8266094F8281085F828103E
:10F45000E16A00E03EE0E96294F8301085F8291096
:10F4600085F8300085F8316085F8326094F8341002
:10F4700085F83410A16BA96394F83C1085F8351019
:10F4800085F83C0085F83D6085F83E6094F84010B2
:10F4900085F84010616C696494F8481085F8411053
:10F4A00085F8480085F8496085F84A603848E8647E
:10F4B000072485F85040B878F6F75EFEB878F6F77E
:10F4C000CFFC1F4833495030F6F770FF30B132A0FF
:10F4D000F5F79EFABDE8FC81EE6593E718485030D9
:10F4E000F6F776FE18B13AA0F5F792FAF2E7474838
:10F4F0004068019002278DF804708DF8056034355E
:10F50000686800908DF8064028786946F6F70CFA8E
:10F510008DF804708DF80560286900908DF806401C
:10F52000287B6946F6F700FA287801226968F6F721
:10F53000B9FA287B01222969F6F7B4FACAE7000074
:10F5400098B380006C43800051F000015350492073
:10F550006D617374657220696E697469616C20668F
:10F5600061696C65642120506C6561736520636816
:10F5700065636B2074686520696E707574207061B6
:10F5800072616D656E74732E0D0A0000880A0101A8
:10F59000003001A0A95D00015153504920696E69F6
:10F5A0007469616C206661696C65642120506C65CA
:10F5B00061736520636865636B2074686520696E9C
:10F5C00070757420706172616D656E74732E0000C9
:10F5D0005153504920696E697469616C20646D6192
:10F5E000206661696C65642120506C6561736520DB
:10F5F000636865636B2074686520696E707574203C
:10F60000706172616D656E74732E0000A406010155
:10F6100030B4084B1C78002C05D093F84C302BB13B
:10F6200030BCFEF791BB30BC00F0CCB930BCFEF76B
:10F63000CFBB000098B3800030B58BB000250A9591
:10F640001248134C0078002811D02422114901A837
:10F65000F4F758FD6570A0780AAA01A9F6F7F2FC44
:10F6600060780028FCD09DF828000BB030BD052044
:10F670000990657101200090A07901230AAA09A9C7
:10F68000F7F782F860790028FCD0ECE798B38000A7
:10F690006C438000D00601012DE9F04106460C467E
:10F6A000012717E0C6F30B00C0F58055AC4202D22B
:10F6B0002546002400E0641B00F058F80A48007852
:10F6C00068B13046FEF7A6FB0746FFF7B5FFC00757
:10F6D000FBD12E44002CE5D13846BDE8F081304600
:10F6E00000F090F90746F0E798B380002DE9F04765
:10F6F00006460F46904644464FF00009DFF868A0E2
:10F7000027E0F0B2C0F58075AC4202D22546002455
:10F7100000E0641B00F02AF89AF8000040B19AF863
:10F720004C0058B12A4639463046FEF72FFB0AE016
:10F730002A463946304600F085F904E02A46394623
:10F740003046FEF789FBFFF777FFC007FBD12E4459
:10F750002F44002CD5D1B9F1000F02D00020BDE814
:10F76000F0874046FBE7000098B3800030B58BB0CF
:10F7700010A000680A9010480025104C007800285E
:10F780000ED024220E4901A8F4F7BCFC2570A07805
:10F7900001A9F6F713FC20780028FCD00BB030BD8F
:10F7A000E570A07901220AA9F7F744F8E07800286B
:10F7B000FCD0F3E70600000098B380006C438000A3
:10F7C000AC060101014602200968054A914201D1B7
:10F7D00000207047034A9142FBD10120704700008E
:10F7E00000C100A000C000A00FB401467CB5424893
:10F7F0000269C068CDE9000200249DF826000326B6
:10F8000001282FD19DF825009DF81C50C1B18DF81D
:10F81000050002208DF804000898009007208DF85C
:10F82000060069462846F6F77FF804460122284676
:10F830000899F6F737F9ACB120467CBC5DF814FBAB
:10F840008DF805008DF80460089800909DF81D0063
:10F850008DF8060069462846F6F766F804460CB1AE
:10F860002046EAE79DF83200012814D19DF83100C6
:10F870008DF805008DF804600B9800909DF8290024
:10F880008DF806009DF828006946F6F74DF8044605
:10F890000CB12046D1E79DF83E00012812D19DF819
:10F8A0003D008DF805000E9800909DF835008DF80C
:10F8B00006009DF834006946F6F736F804460CB1A8
:10F8C0002046BAE79DF84A00012812D19DF8490068
:10F8D0008DF80500119800909DF841008DF8060004
:10F8E0009DF840006946F6F71FF804460CB1204623
:10F8F000A3E72046A1E700000C05010170B5002434
:10F90000104E56F82400B8B190F88010012913D198
:10F91000001D10F432D3012802D008B1002070BDC0
:10F92000EFF31085012080F3108856F82400001DA5
:10F9300010F4DED785F31088641CE4B2022CE0D307
:10F94000012070BDE84280002DE9F05F074689463E
:10F9500092461E464FF0E02BDBF81480DBF818507F
:10F96000F5F72CF816484FF47A710068B0FBF1F007
:10F9700070433A6819E0711C17D0DBF81840A542B3
:10F9800001DB291B02E0A8EB04012944401A2546AB
:10F990000EB1002809DC042087F84900F86C40F01B
:10F9A0000100F8640120BDE8F09F916A11EA090F97
:10F9B00001D0012100E000215145DCD10020F2E717
:10F9C000044180007CB515460022019203238DF886
:10F9D0000430030C8DF80530030A8DF806308DF8DD
:10F9E0000700074C62710095A0790A46042301A91B
:10F9F000F6F7CAFE60790028FCD028467CBD0000DE
:10FA00006C43800038B50021009120228DF8002041
:10FA1000020C8DF80120020A8DF802208DF80300F7
:10FA2000074CE170A07904226946F6F703FFE178FC
:10FA30000029FCD008B1002038BD012038BD0000ED
:10FA40006C438000F8B506461546084C0020E0706F
:10FA5000A8B20090A0790B4632460221F6F7B2FF19
:10FA6000E0780028FCD02846F8BD00006C438000F8
:10FA700010B50446002C07D000F042F8002802D14F
:10FA80000249C97C217010BD022010BD12328000D5
:10FA900010B50446002C09D000F032F8002804D13B
:10FAA0000349897801F01F01217010BD022010BDAB
:10FAB0001232800010B50446002C08D000F020F867
:10FAC000002803D103490968890F217010BD022065
:10FAD00010BD00008423800070B50546002D04D0C1
:10FAE00000F00EF8044614B106E0022070BD1022AA
:10FAF00002492846F4F706FB204670BD3E328000DE
:10FB00002DE9FF41002400250095019502950395FC
:10FB10002F4F44F24478B88B00284FD100950195BF
:10FB2000029503952B480090012001906846FAF752
:10FB300063FD6846FAF7A6FD0F233A46442168465E
:10FB400009F45ED10123244A5321684609F458D1AF
:10FB50006846FAF751FD38784FF6FF72E0B1B88B7E
:10FB600040452AD1BE1C002036F8101021448CB22A
:10FB7000401C80B20928F7D315492031002031F804
:10FB8000103023449CB2401C80B20628F7D3F88B77
:10FB9000A04213D0BA8311E097F8280040B997F833
:10FBA000290028B997F82A0010B997F82B0010B14E
:10FBB000A7F81C8002E0BA8300E0BA83B88B404506
:10FBC00003D1002004B0BDE8F081BD831020F9E727
:10FBD00012328000006401A08423800070B50446C6
:10FBE000D4E90210884202D02268F4F78BFA72B688
:10FBF00000204FF0E02108610022012553B2002BC4
:10FC00000FDB03F01F0105FA01F04FEA53114FEA31
:10FC1000810101F1E021C1F88001BFF34F8FBFF3F3
:10FC20006F8F0BDB03F01F0105FA01F04FEA531150
:10FC30004FEA810101F1E021C1F8800202F10102E5
:10FC4000D2B2222ADAD362B6164A106820F4805063
:10FC50001060106820F400601060106840F04000F0
:10FC60001060106840F480701060106820F0400050
:10FC70001060106840F080001060106840F4007060
:10FC80001060106820F0800010604CF4FDD5182240
:10FC900021460548F4F736FAA068BDE870401FF425
:10FCA000C795000004C500A0101F8000A0F132011C
:10FCB000322901D801490870704700001E068000F3
:10FCC000014906C906C07047EC03010110B504469E
:10FCD000002C07D0FFF714FF002802D10249C98B7E
:10FCE000218010BD022010BD1232800010B500F03E
:10FCF000B3F9FFF771F8BDE81040FFF787B90000CE
:10FD00000249014808607047E73500309C238000B5
:10FD100010B54FF496710448F4F70DFA024900202B
:10FD20000C3981F8380110BDE432800010B50B4B5E
:10FD300093F838211E2A10D202EB820203EB420212
:10FD40000468D4604068106105480088081A9082F1
:10FD500093F83801401C83F8380110BDD832800078
:10FD6000CC2380002DE9F047CAB04A4DA5F10C071D
:10FD700097F83861002488E004EB840135F811100D
:10FD800081427DD1701E81464FF6FF78844216DA9B
:10FD9000301B401E00EB800008EA400A601C00EBAC
:10FDA000800005EB4001524601A8F4F7ABF904EBE3
:10FDB000840005EB4000524601A9F4F7A3F909EBD2
:10FDC000890005EB4000002101604160018197F846
:10FDD0003801401E87F838011E2E4FD1D5F8180182
:10FDE0004790D5F81C014890B5F82001ADF82401E2
:10FDF0004899479846914590BDF8160165F4DCD4C2
:10FE0000254EBDF8162131680844BDF8241111446F
:10FE100044180834DFF8849099F8000010B10020ED
:10FE200066F43ED0DFF878A0082245A92046FAF70C
:10FE3000CFFCBDF8140140451CD070B105F591759B
:10FE400045982860469868603088201A288197F87D
:10FE50003801401C87F838010CE0BDF8160165F444
:10FE6000ABD4BDF81611083021444418DAF800006C
:10FE70008442D9D399F8000066F412D04AB000E069
:10FE800001E0BDE8F087641CE4B2B442FFF474AF53
:10FE9000F4E70000E4328000CC238000C923800016
:10FEA000D02380002DE9F04116461E4CA4F10C022F
:10FEB00092F838510022002D02D000231A4F19E089
:10FEC0000A8032600120BDE8F08103EB830C34F836
:10FED0001CC084450CD103EB830004EB4000428836
:10FEE0000A80018938680830084430600120EAE758
:10FEF0005B1CDBB2AB42E8D31E2D03D20A8032601A
:10FF00000120E0E704F59174608865F455D4396800
:10FF10006288084421891144084408303060002078
:10FF2000D1E70000E4328000CC238000024903487E
:10FF3000034AF4F7E7B800009C0C0101CC3500300F
:10FF4000D80500000021074A006802EBC1035B6886
:10FF5000984202D112F831007047491C0229F4DBA3
:10FF600002207047D00401010FB41CB50446264896
:10FF7000406801909DF81C008DF8050003208DF865
:10FF80000400069800909DF815008DF806009DF875
:10FF900014006946F5F7C8FC002832D19DF8280006
:10FFA0008DF80500099800909DF821008DF8060055
:10FFB0009DF820006946F5F7B7FC002821D1222CD6
:10FFC0001FD19DF834008DF805000C9800909DF825
:10FFD0002D008DF806009DF82C006946F5F7A4FC6D
:10FFE00000280ED19DF840008DF805000F98009074
:10FFF0009DF839008DF806009DF838006946F5F740
:020000040101F8
:1000000093FC1CBC5DF814FBC804010170B500240E
:10001000104E56F82400B8B190F86C10012913D195
:10002000001DFCF737FA18B1102801D0002070BD70
:10003000EFF31085012080F3108856F82400001D8E
:1000400011F49ED485F31088641CE4B2022CE0D332
:10005000012070BDD0428000BFF35F8F044801686B
:100060000A6804490A600160BFF34F8F70470000BF
:1000700008ED00E000428000017882781144C9B2A6
:100080000079884201D1012070470020704710B5E7
:10009000FFF7E2FFBDE81040FDF73EBD01494860B3
:1000A00070470000F44480002DE9F04385B0044619
:1000B000DDE90C590F4690461E46CDF810804E489B
:1000C000006800EB043003904FF48051FAF732FBE4
:1000D00008B19CB11DE049488169407A40F2E9329B
:1000E000CDE900200291464B46A24FF4004100208A
:1000F000F7F7B6DE092005B0BDE8F0834D490020D2
:1001000008600123082204A903A800F095F800283C
:10011000F1D13EB10123324604A903A800F08CF8C6
:100120000028E8D13DB100232A4604A903A800F025
:1001300083F80028DFD1002F5CD000247F1E1CE054
:10014000049D688865F438D369884618012308221D
:1001500004A903A800F070F80028CCD1002332468F
:1001600004A903A800F068F80028C4D10398811BF3
:1001700008392846FFF7DAFD641CBC42E0D3B9F128
:10018000000F12D00498A8EB000404F5805401235A
:10019000224604A903A800F04FF80028ABD1039829
:1001A000011B4846FFF7C2FD24E0049D688865F402
:1001B00003D3698846180123082204A903A800F084
:1001C0003BF8002897D10498A8EB000404F580546C
:1001D000B44200D334463CB10023224604A903A80C
:1001E00000F02AF8002886D10398011B0839284618
:1001F000FFF79CFD00207EE7CC238000641F800079
:10020000A8090101523A353A25732C204C25642067
:10021000666C617368207374617465203078253072
:1002200032582C206572726F722030782530385821
:100230000D0A0000D832800070B505460E461446FF
:1002400028683168002B03D02246F8F7A3FB02E0B0
:100250002246FAF7FDFAA04201D0082070BD2868B6
:1002600020442860306820443060034801682144FD
:100270000160002070BD0000D83280002DE9F74FEA
:1002800086B004460D46284665F496D2C6B2ADF84F
:100290001040ADF8125004A8F9F7F8FE04A8089928
:1002A000F9F7FBFE4FF00008ADF816800324DFF8E5
:1002B000FC903F4F0822D9F800103868084404A980
:1002C000F8F768FB082803D0641E14F0FF04F1D18E
:1002D000384C4FF4004A082826D0A169607A40F2D1
:1002E0009232CDE900200291334B34A251460020D6
:1002F000F7F7B6DDADF81080ADF812808DF81480F8
:100300008DF815803868D9F800100822084404A92F
:10031000F8F740FB3868083038607868083878604B
:10032000092009B0BDE8F08F05F108001FFA80FB35
:10033000D9F8000039680830354408442A4608993D
:10034000FAF786FAA84208D13868D9F800100144B3
:1003500004A8FFF7EBFC002017E0A069617A4FF4D6
:100360006C72CDE900210290134B14A2514600207B
:10037000F7F776DDADF810803868D9F8001008225C
:10038000084404A9F8F706FB09203A680BEB0601BC
:100390000A443A607A680832511A082902D90839A1
:1003A0007960BEE73972C7F80480BAE7CC238000D1
:1003B000D8328000641F80009D090101523A353A0D
:1003C00025732C204C256420666C6173682073743F
:1003D000617465203078253032582C206572726F38
:1003E00072203078253038580D0A000002000200D3
:1003F000D5202D500090D003006CDC020024F400C6
:1004000000366E010024F4000048E80100000000FE
:1004100001000000040000000300000004000000D0
:1004200002000000158E0001000000009D498000C0
:1004300001000200000001000001000000000100B6
:1004400002000000000001A006000000001001A052
:100450000700000000000000000000000000000095
:1004600001000200100020003000400000000000E9
:1004700000000100020010002000300040000000D9
:100480000100010001000100010001000100010064
:1004900000000000FFFF000000000000000000005E
:1004A00007000000FF000000000000000000000046
:1004B000070000001F000000010000000100000014
:1004C0000200000007000000FFFF00000102000022
:1004D000000C000000C600A0010D000000C700A035
:1004E0000D00010100000000354A80000B170000DC
:1004F00000C200A000C800A0FFFF00000102000031
:1005000005E0000100000000854A800005040000AD
:1005100000C100A000C000A0FFFF00000102000019
:10052000FDF8000100000000D94A80000A00000028
:100530000B000000000000000000000000000000B0
:1005400000000000000000000000000001000000AA
:10055000020000000400000008000000100000007D
:1005600020000000400000008000000000010000AA
:10057000000200000004000000080000001000005D
:10058000002000000040000000800000000001008A
:10059000000002000000040000000800000010003D
:1005A000000020000000400000008000000000016A
:1005B000000000020000000400000008000000101D
:1005C0000000002000000040000000801BD790ECDD
:1005D000E8B975800A4644D30104EDA6002800005E
:1005E0000000000000000000000000000002000009
:1005F00000000328000000000000000000000000D0
:1006000000000002000000001BD790ECE8B97580E4
:100610000A4644D30204EDA6001000C0F4000229EB
:100620000000000000000000000000000000000AC0
:10063000000000000328000000000000000000008F
:10064000000000000002000000001BD790ECE8B999
:1006500075800A4644D30304EDA6000400C0F400EC
:10066000032800000000000000000000000000005F
:100670000002000000001BD790ECE8B975800A4624
:1006800044D30404EDA6002400C0040002290000A5
:10069000000000000000000000000000000A000050
:1006A00000000000FFFF0000010200000600000043
:1006B0000000000000020000000000000000000038
:1006C0000000070000000000000000000000000023
:1006D0000500000000000000000200000000000013
:1006E0000000000000000700000000000000000003
:1006F000010000005A000000340000000002000069
:1007000018000000080000000000070000000000C2
:1007100000000000040000000200000000000000D3
:1007200000020000180000000000000000000700A8
:10073000000000000000000000000000A200000017
:10074000000000000002000018000000000000008F
:100750000000070000000000000020000000000072
:10076000030000000000000000020000180000006C
:100770000000000000000700000000000000000072
:10078000000000003B00000000000000000200002C
:100790001800000008000000000007000000000032
:1007A00000002000000000009F000000000000008A
:1007B0000002000000000000000000000000070030
:1007C0000000000000000000030000006466755F88
:1007D00070726F6772616D5F73746172745F636171
:1007E0006C6C6261636B006466755F70726F6772D8
:1007F000616D696E675F63616C6C6261636B0064FD
:1008000066755F70726F6772616D5F656E645F635E
:10081000616C6C6261636B0011071BD790ECE8B9E7
:1008200075800A4644D30104EDA605FFF7040203D0
:100830000F09426F6F746C6F616465725F4F544152
:10084000626C655F6576745F68616E646C6572008A
:1008500066775F626F6F745F696E666F5F707269F3
:100860006E7400626F6F746C6F616465725F66694D
:10087000726D776172655F76657269667900626F25
:100880006F746C6F616465725F66775F626F6F74BF
:100890005F696E666F5F67657400626F6F746C6F1F
:1008A000616465725F6170705F6466755F66775FD3
:1008B00076657269667900626F6F746C6F616465EA
:1008C000725F6466755F696E666F5F766572696692
:1008D0007900626F6F746C6F616465725F646675D6
:1008E0005F66775F636F707900626F6F746C6F61C2
:1008F0006465725F6170705F66775F766572696666
:100900007900626F6F746C6F616465725F646675A5
:100910005F7461736B00626F6F746C6F616465729A
:100920005F7665726966795F7461736B00626F6F81
:10093000746C6F616465725F6A756D705F7461730A
:100940006B00000000010000000200001800000021
:100950000000000000000000000007000000000090
:100960000000000000000000000000006E766473CC
:100970005F696E6974006E7664735F64656C0069AC
:100980006E69745F756E757365645F6E766473000F
:100990007265706C6163655F6974656D007772691B
:1009A00074655F6974656D0077726974655F636F04
:1009B0006D7061637465645F6974656D7300636F06
:1009C0006D706163745F6E76647300000A000000EE
:1009D000EC458000F84580000A0000000C468000CD
:1009E0001846800022FF0000AEFF0100C9FF020090
:1009F000D6FF0300E1FF0400EDFF0700F7FF08004A
:100A0000FDFF090000000C0004000D0005000E00B1
:100A1000080010000C0013000D0014000E0015005B
:100A20000F001600100017001100180012001A0025
:100A300013001C0014001D001500210016002400E6
:100A4000170027001800290019002C001A00320096
:100A50001B0037001C003F0034127856AB90EFCDDE
:100A600068144523295311244150505F443A200013
:100A70004150505F453A20004150505F493A2000B4
:100A80004150505F573A2000535049206D617374B4
:100A9000657220646D6120696E697469616C20669D
:100AA00061696C65642120506C65617365206368C1
:100AB00065636B2074686520696E70757420706161
:100AC00072616D656E74732E0D0A000028282875FA
:100AD000696E7431365F7429747872617465203C74
:100AE0003C2030292026207E282875696E743136F6
:100AF0005F7429307830303030303030332929205D
:100B00003D3D20300000000028282875696E7431B2
:100B1000365F7429727872617465203C3C203229FA
:100B20002026207E282875696E7431365F7429303E
:100B30007830303030303030432929203D3D20306E
:100B40000000000028282875696E7431365F74290A
:100B50006C6C63686D617032203C3C20302920262B
:100B6000207E282875696E7431365F74293078309C
:100B7000303030303031462929203D3D20300000D2
:100B800028282875696E7431365F74296368696432
:100B900078203C3C2030292026207E282875696E4C
:100BA0007431365F7429307830303030303033462D
:100BB0002929203D3D20300028282875696E743190
:100BC000365F7429727877696E737A203C3C2030E6
:100BD000292026207E282875696E7431365F742995
:100BE000307830303030374646462929203D3D2088
:100BF000300000007265675F656D5F626C655F6302
:100C0000732E680028282875696E7431365F742940
:100C100072786E657874707472203C3C20302920A4
:100C200026207E282875696E7431365F74293078E5
:100C300030303030374646462929203D3D203000AF
:100C40007265675F656D5F626C655F72785F646532
:100C500073632E68000000009C0C0101CC3500304D
:100C6000D8050000B04B0001741201010041800062
:100C70004C080000B8470001801501014C49800074
:100C800034350000B04B0001B44A0101807E800081
:100C900030910000C04B000155F0FFFF1048006884
:100CA000C0F3C030002802D10E48007808B10020FF
:100CB00070470120704710B50B4902200860FFF70C
:100CC000EDFF48B100F045FA044600F047FA20462F
:100CD000BDE8104000F047BABDE8104000F006B88B
:100CE00040C500A03C48800080E200E010B5EFF372
:100CF0001081012080F31088FE480268C2F3C032E0
:100D0000002A17D0FB4A34321268C2F38A22F94B08
:100D100030331B68F84C24682244521C9A4209D292
:100D2000F44A3C3A1368C3F380531BB9136843F485
:100D30008003136081F310880168C1F3C03100297A
:100D4000FAD1EE48006810F0007F01D0012000E0E9
:100D5000002008B100F00CFA012010BDE549E84A76
:100D60001431904204D9086820F48010086070475C
:100D7000086840F48010086070472DE9FF474FF085
:100D8000020900200390DF4806684768D0F808A0F1
:100D90004FF0FF34029401940094DFF86C83DB4D34
:100DA000D8F80400000126D501A9002000F0E5F9DB
:100DB0006946A00700F0E1F9DDE90010884202D899
:100DC000081A019001E0C043019003A9019800F0C6
:100DD000D9F90190A04200D20446504507D22968B3
:100DE00009B104208847012004B0BDE8F0872968D4
:100DF00009B105208847D8F80400C0011BD5C448B4
:100E00000078C0B902A94FF0004000F0B6F903A97C
:100E1000029800F0B7F90290A04200D20446B04216
:100E200005D2296809B1042088470120DCE7296838
:100E300009B105208847D8F8040040010ED500F01C
:100E4000A6F94100A14200D321460C46B84205D282
:100E5000296809B1062088470120C5E74FF0E02145
:100E6000D1F8000210F0806F01D0012000E00020D6
:100E700090B9A248001D006810F0020F01D00120B7
:100E800000E0002040B9D1F8000210F0007F01D04E
:100E9000012000E0002008B10120A5E72046FFF76F
:100EA0005DFF4846A0E770B59A4800688047022871
:100EB0001CD1012000F070F900F073F99648006829
:100EC00080479648406800B18047FFF756FF944C32
:100ED00002280CD02068804700F068F900F06BF918
:100EE00000F06EF9002000F057F9012070BD4FF4BA
:100EF0008A25686841F6A866B04202D0894800F0A9
:100F000064F900F067F96868B04202D0854800F0E3
:100F100066F92068804700F049F900F04CF900F0CC
:100F20004FF9002000F038F94FF0E025D5F8000225
:100F30004FF0006610F0006F01D0012000E00020AB
:100F400020B36C483C380068C0F3001010B120207A
:100F500000F04AF9674C241D216840F25F100140FF
:100F600048070DD5206863491831096801EA104027
:100F70006D490870FF2000F037F96FF00400206021
:100F80002068C0F3001008B1C5F80061002070BDF2
:100F9000054600F02EF96048006880475548203823
:100FA000016841F080010160016821F4784101602D
:100FB000504C3C3C206820F0745020604DB32068B9
:100FC00040F08070206000F019F90128FBD0132058
:100FD00000F019F900F01CF9684300F01EF99FEDCC
:100FE000531B53EC112B00F01DF900F020F941497F
:100FF0005031086000F002F90128FBD0022000F017
:1010000002F900F0FBF80128FBD0102000F0FBF8FB
:1010100006E000F0F3F80128FBD0132000F0F3F80D
:1010200034481C38016821F400010160206820F474
:10103000DE5040F4DE51216040F4407020602D4DC0
:101040001435286820F4800028602A4800242430C1
:101050000460284937482831086026483830046041
:10106000304800F0B2F8286820F0807028602868C6
:1010700040F0007028601F4D2D1D2C6000F0BEF860
:101080000128FBD0032000F0BEF800F0B7F80128DB
:10109000FBD0F2E770B500F0CFF8204901200870CE
:1010A00000F0CFF800F0A5F8054600F0CFF8224C8C
:1010B00002280AD000F0CAF8012801D12068804730
:1010C0002846BDE8704000F0C6B800F0C9F858B135
:1010D0001A490398086000F0C8F8012832D0284661
:1010E000BDE8704000F0B7B8206880472846BDE8EA
:1010F000704025E040C500A000E200A000E200E052
:1011000000093D00B0268000BC26800084268000B7
:101110007426800080248000704680005C48800037
:1011200074468000641F8000C044800000000000FE
:1011300000408F40AAAA2A22A8268000AC26800060
:1011400000F089B8206880472846BDE8704000F06C
:1011500082B840F2ED2CC0F2070C60474EF2A11CA1
:10116000C0F2060C604740F2812CC0F2070C6047C9
:1011700043F2D17CC0F2060C604745F29D5CC0F2A0
:10118000800C60474BF6496CC0F2070C604746F68E
:10119000D73CC0F2800C604748F6D55CC0F2070C23
:1011A000604746F6F91CC0F2800C604745F66B2C90
:1011B000C0F2800C604745F6511CC0F2800C6047BD
:1011C00046F61F2CC0F2800C604746F24B7CC0F202
:1011D000800C60474DF6057CC0F2010C604746F27A
:1011E000AD7CC0F2800C604747F2071CC0F2800C57
:1011F000604748F6414CC0F2070C604747F2211C9B
:10120000C0F2800C604747F2F50CC0F2800C6047DA
:101210004BF6196CC0F2001C604744F2951CC0F2FA
:10122000001C604744F2734CC0F2001C604744F25B
:10123000AF1CC0F2001C604742F6C95CC0F2060C4D
:10124000604747F2292CC0F2800C604748F6594CA1
:10125000C0F2070C604748F6ED7CC0F2070C60470F
:1012600048F6251CC0F2070C604749F6357CC0F2F1
:10127000070C60475104FC90D0031359401B0161D7
:1012800004144D49801341491401FF4114010D4AD2
:101290000210011A51201A6B28411A6D081A432CAA
:1012A000018A0B18FFFF10890C13C15414011D563D
:1012B0001B0179041E700A010180041A78041A685F
:1012C0000401204BF179F013D1A7140131A81B01BF
:1012D00035081A510414A15E071A050414ED5D07C0
:1012E00013558C1401C98D1B01D1041ACD041A4D5C
:1012F000101A51049AFF5E390B290522802A0377C0
:10130000290C9A100C9A200C5A400C3C3001A00475
:10131000393D92079A0854091FC1016B135D8B1B5D
:1013200001B9040B10FD8A971B40C0F913D4801437
:1013300020D8801480F880100CC0130C0448209C26
:1013400002E0B480239C031480B88032241AC008C1
:101350001A48EB1A2030022F18120413F4011967EF
:10136000610B1AE0402A2132105A0C08120813901F
:10137000E614B0A7991401AF9A1B017B041357958B
:101380001401CD931B01F90413239B1B0171081A4F
:101390005B081A81041A970C1ADB081AAF0413139E
:1013A0009C140179941401E5961B0153081A2D042D
:1013B0001A41401AE9081A21441AB1081A05101AEC
:1013C000715C1AEB081A89301ABD0413D19E1C01F6
:1013D000A59D3019041AF5101A171013099F1B0147
:1013E000DD101A4F0C811329C71C01EFC6341904F4
:1013F0001A910C1AC3041AFF041A5F04134D7715CF
:10140000011845801A7C041A84041ADC041379EE4E
:101410001B013D041AE5041AB3048B717A4C131DA9
:10142000A01B0151041AE9681AB7041A3B048B8DFA
:1014300071200926948115101F01012008030F0354
:10144000030501152240130108321A29045AFF042A
:10145000C109121401142F6801A40120036F125A4C
:1014600023401F4BA00F143CDE03021E095A14092F
:101470007278411369AA1B0167041359A114011959
:10148000A31401EDA814019BB91B019904137DB6A7
:101490001B016B1C1A83081A9D101BB1BB2C12BFB9
:1014A0001B01650413E1BE1B0175041339C11C0146
:1014B00005C314190413CFC41B01CD041301C51BAC
:1014C00001D1081A61041AB9181A11081AE5082A74
:1014D00007E3013BB29629C029C833803EA2FA3205
:1014E000FF1304C513A0041C01A010041A28041A39
:1014F00030041A20041B04101419041A28041A308A
:10150000042A200C1A200C19041A20041340E21B90
:10151000A044041A48041A4C041A90041A94041A99
:1015200080041AA0041AA4041AA8041AAC041AB05D
:10153000041112D01BA010081A08041A18041A501B
:10154000781A3C041A40041AC0101A20041A240401
:101550002AC42012ED1BE01C041A20041112E41B03
:10156000E004041A08041A0C041A10041A14041AC9
:1015700018041A1C042A20182928410216400000C9
:10158000FEE700001EF0040F14BFEFF3098CEC46D9
:101590000FB560465EF4A8F78446BDE80F40BCF185
:1015A000000F18BFE0477047FEE7000070B5002449
:1015B000134D04EB440005EB40100178012902D1E2
:1015C000001D13F4AFF5641CE4B2082CF1D370BD18
:1015D00070B500240A4D04EB440005EB401001787F
:1015E000012908D1001D13F4DFF6032017F42EF4AF
:1015F000032017F449F4641CE4B2082CEBD370BD4B
:10160000E083800005F05A9C044815F45BB0044860
:1016100015F458B0002015F455B00000001001A0DA
:10162000000001A02DE9F041002603250D4F002404
:1016300057F8240058B1806848B1391991F8401022
:10164000A94204D1804716B9012605F0B7DF641C12
:10165000E4B2102CECD36D1EEDB2002DE7D1BDE845
:10166000F0810000C088800070B50024104E56F84C
:101670002400B8B190F86C10012913D1EFF3108554
:1016800081F31088001D1CF463F785F31088094866
:1016900000EBC40595F9010017F4D8F395F90100A2
:1016A00017F4F2F3641CE4B2022CE0D370BD000026
:1016B000D0428000D004010170B50024114E56F8CC
:1016C000240090B190F86A1001290ED1EFF3108533
:1016D00081F3108800F0C9FD85F310880A4D285762
:1016E00017F4B4F3285717F4CFF3641CE4B2022CB8
:1016F000E5D370BD0348006806F0CA9E0148406803
:1017000006F0C69EDC428000EC04010170B50024A6
:10171000134E56F8240098B190F8801001290FD18B
:10172000EFF3108581F31088001D1BF49DF685F3FF
:1017300010880C4D285717F489F3285717F4A4F391
:10174000641CE4B2022CE4D370BD05484068001D5F
:101750001BF410B302480068001D1BF40BB300001B
:10176000E84280000C0501012DE9FC5F80468946B6
:1017700002F1300420A0D021CDE90010274B28A28F
:1017800031A1032001F028D877F40AF208B104F55A
:101790005674C4F30F35C4F30B070FB16D1CADB213
:1017A00072B603F05FDD0AF0E3D900244FF4805AEB
:1017B00019E0681E844202D10FB13E4600E0564651
:1017C00008EB04308346514605F0CEDD09EB0430CA
:1017D00032461F4905F016DE584632461C4905F0D0
:1017E00041DE641CA4B2AC42E3D30AF0E1D9BDE807
:1017F000FC5F03F0379D0000202020204170702006
:10180000646675206669726D7761726520737461B4
:10181000727420636F70792E00000000D2080101FD
:101820002E2E5C5372635C757365725C626F6F74AD
:101830006C6F616465725F626F6F745F76656E6412
:101840006F722E63000000004E4F5F54414700004E
:10185000A0FB80002DE9F74F82B0FE48029950F8B6
:1018600021400020019080461C2660680090A56DF4
:10187000B4F894006FF0784C81076AD5C00768D03F
:101880004FF0000984F8AD90002A62D0A26FE16E9B
:101890008818401B20F0704060455AD2B4F886008A
:1018A00038B3B4F894104B0553D54B0751D40907FE
:1018B0004FD494F8561081B1B4F88CA0B4F88E309F
:1018C000B4F854100AEB03078F4203D007F1010B61
:1018D0008B450FD184F8AD903BE000FB025121F025
:1018E0007045B4F88E100844A4F88E00012084F8E6
:1018F000AD002EE007447F1A1FFA87F947F6FF77FD
:10190000B94512D2A1EB0A01C91A491E89B201B325
:1019100088421ED301FB025020F070455818A4F8ED
:101920008E00012084F8AD0013E000FB025121F08D
:1019300070451918A4F88E10012084F8AD0008E055
:10194000A06F284420F07045B4F88E00401CA4F825
:101950008E000398401B20F070416FF07840814268
:10196000EED3E76E94F8560001284DD194F8530059
:10197000E8BBB4F88C10B4F88E000144B4F85400FD
:10198000081A81B247F6FF7081423DD294F85200A6
:1019900030BBB4F84C00284420F0704594F8940013
:1019A000C007002805D0B4F8500005EB500020F027
:1019B0007045616CA167B4F84E10A4F88610A16C54
:1019C000E1674FF0010784F8527003D094F8A50046
:1019D00008F092D894F89400C00701D184F85370AD
:1019E0002F46B4F88C10B4F88E00014400E00BE0F0
:1019F000B4F85400081A80B203E0A16F791A21F0FC
:101A00007047401E80B2F8D294F89400800702D547
:101A1000D4F87CB00AE1A06F00EB40004FEA400B25
:101A200004E1A94694F89400C00762D04FF0000A80
:101A3000B4F98280206EA9EB000020F070464EF4CD
:101A400075F508B1142002E08348B0F8E400B4F85A
:101A50008A10084470434FF4C861B0FBF1F0402194
:101A600001EB400694F89400800707D44FF0010A78
:101A7000B4F8840040F2712100FB016694F856002E
:101A800001280DD194F8520050B194F8530038B9A0
:101A90004FF0010AB4F8500040F2712100FB0166DA
:101AA000BAF1000F05D1A06F40F271214843B04256
:101AB0006ED9710840F27120B1FBF0F0A9EB000281
:101AC00022F070496FF41C7200FB0210A8EB0008B2
:101AD000B8F1000F05DAA9F1010929F0704908F2FF
:101AE0007128C4F80880206F304420615B49884227
:101AF0004ED8B4F89400400409D594F8A5003FF4FA
:101B0000A1F5B4F8940020F48041A4F89410B4F83E
:101B10009400000409D594F8A5003FF485F5B4F8C5
:101B2000940020F40041A4F89410C4F8049094F8B0
:101B3000A5004B4900EB400011F82000012801D11D
:101B40000020A07594F8A50000EB400001EB800098
:101B50004078012801D1FF21A1754249204609683A
:101B6000884798B14049A07D497A0844A075A06F84
:101B7000284420F07045B4F88E00401C80B2A4F8D0
:101B80008E0094F85610012950D102E001200190F6
:101B900052E094F85310E1BBB4F88C100144B4F84F
:101BA0005400081A81B247F6FF7081423ED294F881
:101BB000520038BBB4F84C00284420F0704594F82B
:101BC0009400C007002805D0B4F8500005EB500081
:101BD00020F07045616CA167B4F84E10A4F886102F
:101BE000A16CE16703D094F8A50007F085DF012020
:101BF00084F85200D4F87CB094F89410C90701D14D
:101C000084F853002F46B4F88C10B4F88E000144C9
:101C100000E00BE0B4F85400081A80B203E0A16FB2
:101C2000791A21F07047401E80B2F8D2E81B20F0EC
:101C300070405845FFF4F5AE019838B3002084F8A1
:101C4000A600A56594F89400C00710D0A4F8808081
:101C500038360BE0B413800074128000801A06003E
:101C6000A00B8100D406800083DB0500E665606878
:101C70000099401A20F07040B4F88610A26F491CF9
:101C80005143884226D94FF461F123E007EB0B0062
:101C900020F07041B4F89400820712D5039A521ACA
:101CA00022F070436FF0784293420AD3FC48029AC4
:101CB00050F82200CC304160FA4981604FF4EAF3D9
:101CC00008E0800701D5082200E03E2201210298A9
:101CD0003FF40EF40298F44B00EB400103EB81005B
:101CE0004278022A06D100224270826812B113F8AB
:101CF00021009047ED4890F82100FF2807D04FF0D1
:101D00003042516EC300402098408143516605B077
:101D1000BDE8F08F30B4E64C0023636130BC3FF483
:101D200099B72DE9F04F89B00446E0484FF03049AB
:101D30004FF0040B90F82100FF2808D0D9F8641068
:101D4000C2000BFA02F081430143C9F86410002C71
:101D50007ED094F8A5704FF00008D34B07EB4700F6
:101D600003EB80000221427821250B26012A1BD19A
:101D7000B0F806C0B4F88C20944515D1417094F8A1
:101D8000A50000EB400003EB80008288A26794F876
:101D9000A50000EB400013F82020012A0DD003EB32
:101DA0008000827884F8A32094F8A50000EB40001E
:101DB00013F82020012A13D023E003EB800094F8CD
:101DC000A320827094F8AB00012803D194F8AA00F4
:101DD000012802D084F8A360E6E784F8A350E3E783
:101DE00094F8A320142A0CD903EB8000827094F895
:101DF000AB00012803D194F8AA00012875D084F81B
:101E0000A360B4F88C20B4F88E001044A4F88C00C1
:101E10006C2207FB02F3A74A9D18A5F8A401B4F8A9
:101E2000940020F48072A4F8942094F8A5009C4AB1
:101E300052F8200090F8D800B5F8682122F0FF028F
:101E40000243A5F868219A484161B4F8940000E083
:101E50000FE1800526D5B4F89010B4F88E2094F8E0
:101E6000A40002FB00102521B0FBF1F201FB1200DF
:101E700006B2002E01DA253636B206F0FF0A5FEA16
:101E80009A1005D040F204428B498C4801F452F676
:101E9000B5F8600120F03F0040EA0A00A5F86001B3
:101EA000A4F890604FF0000AA4F88EA094F8940073
:101EB000C00728D0E06D401C40084FF4AE62B0F57A
:101EC000804F15D300F51C7040F27121B0FBF1F08A
:101ED00086B2F00B03D07849794801F42BF646F42A
:101EE0000040A5F86A010EE0FFE784F8A35088E7F8
:101EF000401CC0F34F06F00B03D06F49704801F44B
:101F000019F6A5F86A6194F85600002869D0B4F86B
:101F10008C20B4F85410511A89B247F6FF729142DE
:101F20005FD202282AD194F84800400905D04FF426
:101F3000876264A167A001F4FDF594F8441094F859
:101F4000450041EA0020A5F8760194F8461094F87F
:101F5000470041EA0020A5F8780194F8486070092C
:101F600005D040F2A2725449694801F4E3F5B5F88E
:101F70007A0120F01F003043A5F87A0194F856004A
:101F8000032825D194F845606FF00C0010EA860F05
:101F900005D040F2112248495E4801F4CBF5B5F86E
:101FA0004E0120F00C0040EA8600A5F84E0194F89E
:101FB0004460B00805D040F21D223F49564801F464
:101FC000B9F5B5F84E0120F003003043A5F84E01F5
:101FD00094F85600012802D194F8530008B14FF04C
:101FE00001084E480068019060680290A068039064
:101FF0008DF81C70059720690490A07D8DF818005D
:102000008DF819A08DF81AA00F208DF81B008DF8FF
:102010001EA08DF820A08DF81DA0A06F40494000A3
:102020000860404901A80968884794F8A60002287A
:1020300002D0012084F8A600B8F1000F03D094F874
:10204000A50044F4F9F194F8AB00374A18B9116BC4
:1020500009B1884713E0012803D1516B09B18847C2
:102060000DE0022801D0032809D1906B38B18047D8
:1020700005E04FF4AA6213A12CA001F45BF50B4814
:1020800090F82100FF2808D0D9F86410C0000BFA9E
:1020900000FB21EA0B01C9F8641009B038E6000022
:1020A000B413800049DD0400A00B81000808800003
:1020B000003001B0008000B0F40B0101800B010181
:1020C000B80B01016C6C645F636F6E5F7061746369
:1020D000682E630028636F6E5F7061722D3E696EBB
:1020E0007374616E745F70726F632E646174612EBD
:1020F00063685F6D61702E6D61702E6D61705B3411
:102100005D2026203078453029203D3D20300000DC
:10211000440B0101080B0101CC0A010124068000D7
:10212000F006800008078000841F80003000000057
:10213000074951F8200090F8A600022801D000209D
:10214000704701207047162201213FF4D1B10000F1
:10215000B413800010B50446204600F05DF8EFF39C
:102160001081012080F31088324A1068A04310606B
:1021700081F3108810BD70B504460D46204600F06E
:102180004BF8E9054FEA042001D5014600E00021A3
:102190000B46E90301D5210400E00021EFF3108292
:1021A000012585F3108840EA0446224805680B4360
:1021B000B5431D43056082F31088EFF310810122BF
:1021C00082F3108802682243026081F3108870BD98
:1021D00070B500220123002911D0EFF310840125EE
:1021E00085F31088134D2D1D2E6826F040460643BA
:1021F0002E6084F3108810480E4C3C3405E001201A
:1022000070BD38B1401E226823689A42F9D10A6035
:10221000002070BD032070BDEFF31081012282F316
:102220001088044A6FEA0040143A106081F3108865
:102230007047000058C500A018FC7F3E01688A69FD
:102240000264CA6942640A6D82644A6DC2644A6962
:1022500002650A6842650A698265D1F8F420C265A0
:10226000D1F8F0100166002070470168026C8A61A5
:10227000426CCA61826C0A65C26C4A658A6822F047
:1022800001028A60026D4A61426D0A60826D0A61D4
:10229000C26DC1F8F420006EC1F8F000C86A20F0E9
:1022A0003F00C862886840F00100886000207047E5
:1022B000012080F310880F48016821F080710160CF
:1022C00001210C4A38321160016841F0007101604F
:1022D000084A6FF04001143A11600021026861F36E
:1022E000DF620260054A04491160016841F08071B3
:1022F0000160FEE758C500A0646F6F670070800042
:102300002DE9FC5F044600250026002C0AD0207A27
:1023100001280AD04FF0010884F80880607A00276D
:1023200028B10BE00120BDE8FC9F0220FBE7E7603D
:10233000276127725C49204613F492F720680168F0
:10234000D1F8101C01F0010111B12169F1B36CE069
:10235000DFF858A1DAF8000040F02000CAF80000C9
:102360002068C0F80480206801F0E2FDC5B2002DAD
:102370005CD1DFF83CB1DFF83C91204609F420F055
:102380004D4840684DA106C9CDE90012DAF80010A9
:1023900001F007021DF802504543B0B1DBF8000020
:1023A00040F08071CBF80010D9F8001041F0010224
:1023B000C9F80020D9F80420D9F804309B1AAB42A0
:1023C000FAD3C9F80010CBF8000000E013E0204673
:1023D00000F08DFFC5B2761CB6B215B1B6F5FA7F26
:1023E000CBD3606828B920684760206801F0A0FD61
:1023F000C5B2A7611AE0E168B9B9EFF3108601210F
:1024000081F31088C0F80480206801F091FD204617
:1024100008F40EF6C5B20DB10320A0612068476034
:10242000206801F085FD86F31088676084F80980D4
:102430002772284677E72DE9F0411C487430006880
:10244000850AAD021F4C204800682049884202D10D
:102450001F482AF407F0184E01203070C70575B1E7
:1024600076F49EF358B1D4E90201884212D1A0F16A
:102470008070B8420ED21748FFF742FF0AE0D4E955
:102480000201884206D1A0F18070B84202D2114800
:10249000FFF736FF0020307001F09AF9E068BDE8E0
:1024A000F04129F4DFB70000801A060004C500A03F
:1024B000FCED00E0001000E0F44480004030101813
:1024C00010200000101F800080218000444F4F47E3
:1024D000002C0600641F80002DE9F04705460E46DB
:1024E000EE4F3868C0F38824DFF8B483DFF8B49384
:1024F00010E0281BB04201DA2C4601E0A01984B29A
:10250000386800EA080040EA8420386099F8020040
:1025100076F48FF1AC42ECD310E0601BB04201DAEC
:102520002C4601E0A01B84B2386800EA080040EAAB
:102530008420386099F8020076F47BF1AC42ECD844
:10254000BDE8F08770B5D74D698AE889FFF7C4FF09
:10255000D24E361F306800F01F040FE0E978021BEE
:102560008A4201DA044601E06018C4B2306820F003
:102570001F0020433060A87876F45BF168788442CD
:10258000ECD370BD70B5C74D698A288AFFF7A4FFE8
:10259000C24E361F306800F01F040FE0E978221A9F
:1025A0008A4201DA044601E0601AC4B2306820F0C1
:1025B0001F0020433060A87876F43BF128788442ED
:1025C000ECD870BD0020B8498A8BA2F58E43443BFD
:1025D00002D1887800F01F00082803D0092801D014
:1025E000002070470120704770B5FFF7EBFF00280F
:1025F00054D0AD49888BA0F58E42443A4ED191F823
:102600002900020605D5C0F34112801A00F01F030D
:1026100004E0C0F34112104400F01F0391F82B00B6
:1026200000F01F029D4D143D28689E4CC0F30440ED
:10263000A0649A4E283E3068C0F3C440E064206B2A
:10264000FF2804D03C2805DD0C21082009E00A21E0
:10265000062006E0202802DD0B21072001E00A21E8
:10266000062019441F2900D31F21824201D9101AC4
:1026700000E000202A6822F4F81242EA01412960B1
:10268000316821F4780141EAC04030602868C0F325
:10269000044020653068C0F3C440606570BD10B56B
:1026A000FFF790FF002819D07F48808BA0F58E415E
:1026B000443913D179481438016821F4F812794962
:1026C00048310B8842EA03420260744828380268A5
:1026D000898822F4780242EAC141016010BD704746
:1026E0002DE9F0414FF0E0244FF08060C4F8000184
:1026F0000227C4F80071D4F80002BD0610F0006F84
:1027000001D0012000E000204FF4802640B3634850
:1027100034380068C0F3001010B1202000F0B1F888
:1027200000F0A5F861490870087806F031DF18B1AB
:10273000C4F80062C4F80061DFF8608108F10C0899
:10274000D8F80000C0F3001008B1C4F80051FF2011
:1027500000F097F86FF00400C8F80000C4F8805249
:102760005348007808B1C4F80051C4F800614FF034
:102770008050C4F800014F480760BDE8F08110B5F3
:1027800001F0BFFB4B484FF08071001FC0F8801173
:10279000490001600421016004F002DEFFF79FFFA1
:1027A00072F4D2F6BDE810405DF410B12DE9F041AD
:1027B00001F0A7FB3F4C4FF08070241FC4F880014C
:1027C0004000206004200226206004F0E9DD72F45D
:1027D000BBF62660FFF783FFD4F80001B506A4F529
:1027E000807410F0006F01D0012000E000204FF451
:1027F000802740B3294834380068C0F3001010B176
:10280000202000F03EF800F032F8284908700878DF
:1028100006F0BEDE18B1C4F80072C4F80071DFF82B
:102820007C8008F10C08D8F80000C0F3001008B153
:10283000C4F80051FF2000F024F86FF00400C8F83D
:102840000000C4F880521A48007808B1C4F800515A
:1028500004F5807427604FF0805020608010206065
:102860001548C0F80061BDE8F0415DF4AFB00B4819
:102870000C3000680949C0F307402031096808405E
:102880007047EFF31081012282F31088034A6FEA48
:1028900000400C32106081F31088704738C500A0EA
:1028A000FF03F8FF4846800012328000C0448000D9
:1028B0001448800004E100E004E000E0F0B589B0D5
:1028C00006460C4600250095052001900295012042
:1028D00003900495059506950795089025804FF47B
:1028E0007A773B466A4601A930681CF405F02088D7
:1028F0009DF80010084320803520019000953B464C
:102900006A4601A930681BF4F7F720889DF800108B
:1029100040EA0120208009B00020F0BDFEB5054648
:102920000020019000903A2002904FF47A763346CE
:10293000012202A928681CF419F20446E4BB694686
:102940002846FFF7BBFFBDF800004FF00407400624
:1029500020D4062002903346012202A928681CF4E4
:1029600005F20446FCB901208DF80400BDF8000012
:1029700040F040008DF805003346022201A9286886
:102980001CF4F4F1044674B98749284608F4DCF4D1
:10299000044644B902973346012202A928681CF470
:1029A000E5F1044644B102973346012202A92868A2
:1029B0001CF4DCF12046FEBDFFE72046FBE738B5FE
:1029C00005460C46284608F4B1F3002816D101202C
:1029D0008DF800008DF80140022040EA14208DF8A7
:1029E00002004FF47A730322694628681CF4BEF192
:1029F000002803D16C49284608F4A6F438BD38B540
:102A000004460020009031208DF80000022040EAAA
:102A100011208DF80100204608F488F300280CD11D
:102A20004FF47A730222694620681CF49FF1002853
:102A300003D15D49204608F487F438BD38B5044613
:102A40000021009169462046FFF738FFBDF80010CD
:102A500041F400710091204608F4C0F438BDF8B587
:102A60000646002400250095F068504988420DD1A3
:102A7000009569463046FFF721FFBDF80010880534
:102A800025D43046FFF79BFF044620E03046FFF791
:102A9000D5FF044620001AD169463046FFF70EFFE5
:102AA000BDF80010880512D43046FFF7A8FF044691
:102AB00020000CD1009569463046FFF7FFFEBDF8B7
:102AC0000010880503D43046FFF779FF04462046FE
:102AD000F8BD10B5C168C9B2C268C2F30742202A66
:102AE00004D1162902D9FFF719FF10BDFFF7B7FF70
:102AF00010BD2DE9F0410446EFF31186206801680E
:102B0000D1F8101C01F0010101254FF00208002945
:102B100019D027490A7827490968C1F30221491CBD
:102B200005FA01F11144C9B281F31188EFF310875E
:102B300085F310884560206801F0FAF984F809806F
:102B400087F310880BE0204608F43AF4204608F496
:102B50006FF210B10320A06101E084F809802046E3
:102B6000FFF7B7FF8046606830B1204608F49EF258
:102B700065724046BDE8F081EFF31087012080F3D5
:102B80001088216800204860206801F0D1F9657242
:102B900087F31088F0B280F31188EAE7064800F066
:102BA0006DBC054800F093BC801A060017608500D4
:102BB00002E400E00CED00E0641F800070471FB5E8
:102BC0000446AE49AE4806F413F1002813D1684616
:102BD0004EF4CAF100980290204420F07041A748BA
:102BE0004160A84981604EF4DDF304B0A348BDE81C
:102BF00010404EF44FB41FBD017E6C2211FB02F257
:102C0000A1491144B1F8482102F01F02022A05D05F
:102C1000B1F8481101F01F01032905D14FF03041EF
:102C20000A6842F080720A604FF4F2B610B5974914
:102C30000022974B0C6824040FD538B10C68C4F3FC
:102C40000E040C605C88641C5C8006E00C68C4F3B5
:102C50000E040C609C88641C9C801431521CD2B2FF
:102C6000062AE7D310BD8B4991F80221012A1CD90D
:102C700091F80011814218D0834A02EB00100088BD
:102C8000C0F3C200022810D302EB01100188C1F387
:102C9000C201022909D3018821F0380141F018014D
:102CA00001807B490889401C088170472DE9F84361
:102CB0000446C4F30365A846270F764E96F8000134
:102CC000A84204D0744A1188491C11800546200787
:102CD00002D5284650F498F2E00602D5284650F472
:102CE0002DF1600602D5284650F4EEF0A00602D57C
:102CF000284650F44FF260074FF000090BD56248A8
:102D000000EB0710018821F0380141F0300101800B
:102D1000384650F47DF1A00758D55D4F01207870FA
:102D20004FF4A070F8605D484EF43CF34046FFF766
:102D30009AFF28464FF45AF559480078012801D1E6
:102D400001F0F8F80020FFF771FFDFF85881D8F89C
:102D5000000090B1CDF800906946284604F458F47C
:102D6000C4B2FF2C09D09DF8001020464FF436F570
:102D70000146D8F80020204690474B48006800B133
:102D800080474A48007801280CD149480078C11D85
:102D90001F2901D91F2000E0C01D46490A6860F3C1
:102DA000D7420A60444906EB051460680968884206
:102DB0000CD1207A06F096DE002807D13969002967
:102DC00004D0A06801B0BDE8F0430847BDE8F8832F
:102DD00070471FB539493A4A08681268904200D8CE
:102DE000104608602A4CE168814200D90846E0603C
:102DF0004FF4A071884200D80846E06068464EF45F
:102E0000B3F000980290E1680844244920F0704033
:102E1000486008464EF4C6F204B02048BDE81040B1
:102E20004EF438B300682749884205D026498842C5
:102E300002D02649884201D1002070470120704706
:102E400010B504462046FFF7EDFF08B1FFF7C1FFBC
:102E50001C49206888420CD11D48002182690C4819
:102E600090F9000090471B490A8822F0FF020243B4
:102E70000A802046BDE81040AAE700009C0D8100B2
:102E8000341C8000895F8000008000B06C8800B036
:102E900000488000C01A8000E6068000B41A800056
:102EA000AE448000F8068000FC0680005246800098
:102EB0005346800010C500A024068000F006800064
:102EC00054068000B1F10400A1F10300E5210400E3
:102ED000BC0B8000688100B0F848416821F0010116
:102EE0004160C16821F00071C160016821F00101F9
:102EF0000160C16821F08071C1607047F0480068CE
:102F0000002810D1ED48416841F001014160C168DD
:102F100041F00071C160016841F001010160C168C8
:102F200041F08071C160704710B5002200280CD0BC
:102F3000037A012B0BD001230372447A0023012C66
:102F400007D002220372104610BD012010BD0220DE
:102F500010BD8361DB4C2160F4E72DE9F04FADF546
:102F6000077D044690461D460027A1F18076EFF3C9
:102F700011800690EFF310800590B1F1807F0ED3A1
:102F800020694A1900F18070824208D8B8F1000F18
:102F900005D025B1A07A012808D1880706D00820DD
:102FA000A06101200DF5077DBDE8F08F207A012892
:102FB00009D001202072607A012806D00227002063
:102FC00020723846EEE70220ECE70020A06120687E
:102FD0000068D0F8100C00F0010068B9204608F431
:102FE000EFF1204608F424F00746380002D0032011
:102FF000A061B2E00220607206EB050AAAE0F0B21E
:10300000C0F580757019824501D2AAEB0605002033
:103010000DF58E7904E018F8001009F80010401C36
:10302000A842F8D347AF21680868D0F8100C00F028
:103030000100C0B1A3480068C8B1A34A1268C2F336
:103040000222521C9040C0B280F31188EFF3108B23
:10305000012080F310884860206800F069FF02209A
:1030600060728BF31088A07A012804D03AE0012026
:1030700080F31088EAE775F493F598B305F0F0074C
:10308000FFF72AFF0F2D06D925F00F0207AB47A93E
:10309000304675F47DF5280721D00020019002907C
:1030A0000390049049460DF1040B05F00F0904E06C
:1030B0003A188A5C0BF80020401C8145F8D8F019BA
:1030C00001AB102201A975F463F5002007A904E003
:1030D0003B181BF80020CA54401C8145F8D807AFA4
:1030E000FFF70CFF4FF47A7000902B463A463146BA
:1030F000204608F48BF007466068D8B9206801685C
:10310000D1F8101C01F00101A1B9EFF310890121E0
:1031100081F3108800214160206800F009FF012040
:10312000607289F310886748006838B10698C0B2A9
:1031300080F3118867B10120A0610EE0059818B1F5
:10314000012080F31088F5E7002080F31088F1E774
:103150002E44A844B2453FF652AF606801287FF480
:103160002EAF204607F4A2F70120607227E72DE971
:10317000F05F04460E469B460025A2F1807AEFF3ED
:103180001188EFF31089002E0CD1B2F1807F17D394
:10319000206902EB0B0100F18070814210D8BBF175
:1031A000000F0DD0207A01280ED001272772607AF7
:1031B00001280BD00225002020722846BDE8F09F90
:1031C0000820A0610120F9E70220F7E70020A061B4
:1031D00020680068D0F8100C00F0010068B92046A3
:1031E00008F4EEF0204607F423F70546280002D045
:1031F0000320A06172E002206072012E05D04FEA28
:103200001A364FEA0636DA4466E0204607F49CF7A1
:103210000546280062D0A76160E021680868D0F800
:10322000100C00F00100C0B126480068E8B1264A41
:103230001268C2F30222521C9040C0B280F311887F
:10324000EFF31085012080F310884F60206800F0B4
:103250006FFE0220607285F310883146204607F425
:10326000A1F70546606820B11EE0012080F31088B8
:10327000E6E720680168D1F8101C01F0010199B956
:10328000EFF3108B012181F3108800214160206849
:1032900000F04EFE67728BF310880A48006830B168
:1032A00008F0FF0080F31188A5B1A76116E0B9F11D
:1032B000000F0BD0012080F31088F5E7A0E200A0FA
:1032C00090478000204880000CED00E0002080F353
:1032D0001088E9E706F58056B2459ED86068012857
:1032E0007FF469AF204607F4E1F6677263E710B533
:1032F0008AB004469F20029000200390012104918F
:103300000590069007900890032009904FF47A7377
:1033100001AA02A920681BF4EFF2002811D1E0688D
:1033200008B9206978B19DF805009DF804100002E5
:1033300000EB01409DF806100844E16881421CD171
:1033400000200AB010BD9DF80400A0B1FF2812D0E3
:103350009DF80510090201EB00409DF80610084495
:10336000E0609DF8060000F00F014FF480308840C7
:1033700020610020E5E70120E3E70120E1E72DE9F6
:10338000F04104460020217A012906D0012525724A
:10339000617A0027012903D020E00220BDE8F081F6
:1033A000EFF31086012080F31088A761022060727D
:1033B00020680168D1F8101C01F0010119B14560C5
:1033C000206800F0B5FD204607F470F6002800D014
:1033D000A56100D0A561657286F310882772DDE7CC
:1033E0002DE9F047044600250026207A012806D062
:1033F00001272772607AA946012803D03AE002200B
:10340000BDE8F087EFF31088012080F31088C4F83E
:1034100018900220607220680168D1F8101C01F039
:10342000010119B14760206800F082FD4FF4FA7A7B
:10343000204607F4C5F72046FFF759FF0546761CDE
:10344000B6B20DB15645F3D305B1A761606860B956
:1034500020680168D1F8101C01F0010129B9C0F8F9
:103460000490206800F064FD677205B1A76167727F
:1034700088F3108884F808902846C1E710B5044600
:103480006068002801D0012010BD607A022807D0B2
:10349000607A222804D0607A422801D0012010BD31
:1034A000607A022809D0204607F424F70028F6D1D4
:1034B000607A222809D0412060722168002048608B
:1034C000206800F035FD002010BD2120F4E710B584
:1034D00004466068002801D0012010BD607A0228EF
:1034E00007D0607A212804D0607A412801D00120D9
:1034F00010BD216801204860206800F019FD607A45
:10350000022809D0204607F4E7F60028F0D1607AB7
:10351000212803D042206072002010BD2220FAE74B
:103520002DE9F05F04460D46EFF31187EFF31089A4
:10353000002D0ED0207A01280DD001262672607A47
:103540004FF0000A012808D0022584F808A0284678
:1035500034E6012032E6022030E6C4F818A02168E3
:103560000868D0F8100C00F001004FF0020BD0B149
:103570002C480068F8B12C4A1268C2F30222521C8F
:103580009040C0B280F31188EFF31088012080F3DF
:1035900010884E60206800F0CBFC2046A847054606
:1035A000280010D10BE02046A8470546280028D166
:1035B00084F809B007E0012080F31088E4E784F87C
:1035C00009B088F310886068C8B920680168D1F82C
:1035D000101C01F0010191B9EFF31088012181F372
:1035E0001088C0F804A0206800F0A2FC667288F37E
:1035F00010880C48006848B1F8B280F3118805B112
:10360000A66160680128A0D166729EE7B9F1000F3B
:1036100003D0012080F31088F1E7002080F31088A8
:10362000EDE70000204880000CED00E082480168D2
:10363000C1F3C01100290BD0016821F48051016051
:10364000016841F480710160016821F0400101606E
:10365000704779480168C1F3C01100290BD0016897
:1036600041F040010160016821F48071016001684E
:1036700041F480510160704740F080406F4908601C
:10368000086840F0804041F8F409D1F8F400C0F334
:1036900080700028F9D170471CB568464DF464F479
:1036A0006748DDE90012C0E902121CBD7CB568461E
:1036B0004DF45AF4624CDDE90001C4E9040104F15F
:1036C000100004F1080500682968401A20F07040D5
:1036D0006FF07841884220D300200190594800685B
:1036E00001A973F409F200EE100A2060F8EE400A16
:1036F0009FED551A80EE810AF6EE000A30EE200AA0
:10370000BCEEC00A10EE100A2968084420F0704090
:10371000FFF7B2FF6068401C60607CBD4FF0304135
:10372000086BC0F3C0300028FAD08A6B886B9042D7
:10373000FCD0704740483C300168C1F3C0310029DB
:10374000FAD14FF03041086BC0F3C0300028FAD1F5
:10375000704739480068C0F3C01000280FD03B48BC
:10376000007880B134483C300068C0F3C03050B1BC
:103770003748006810F0007F03D0012002E00120EC
:103780007047002008B1002070470120704710B535
:103790003048FFF773FEFDF355F6BDE810402D48A5
:1037A000FFF795BE10B52B48FFF768FEFDF3D6F680
:1037B000BDE810402748FFF78ABE10B52548FFF73F
:1037C0005DFEFDF3B3F6BDE810402248FFF77FBE73
:1037D00010B5FEF7D7FEFFF73CFF1D48006810F05C
:1037E000007F01D0012000E00020002804D01A480A
:1037F0000068BDE81040004710BD1848006880F31D
:103800000888BFF36F8FFEF716BE08B50A483C3034
:103810000068C0F3C03000280CD00020009006489B
:103820006C30006807490968401A694673F464F10E
:10383000400808BD002008BD04C500A0F40000B089
:103840002448800000E200A000401C443C48800066
:1038500000E200E0641F80006824800008418000CE
:1038600008B500F07FFA00280ED0E3480068C0F3E6
:103870000B1000210091694673F43EF140F2712172
:10388000B0FBF1F0FFF79BF908BD10B5DA488830BE
:103890000068800705D440F27112D8A1DCA000F4C2
:1038A00049F14FF03044206840F480702060FFF709
:1038B00041FFE01760612062FFF7F8FEBDE81040AD
:1038C00065F4EAB370B5E148FFF7D8FDE048006859
:1038D00000B18047DF4900200870AFF251004CF47E
:1038E000F9F4DD496FF0010008604FF0E0254FF07A
:1038F0000070C5F88002D94CD4F8C002800705D406
:1039000040F29712BDA1C2A000F414F1D44801689E
:10391000D4F8C40261F31D3040F00100C4F8C402C1
:10392000012075F417F173F430F14FF03044CD48B5
:10393000C4F8400167F40EF265F4EEF40020A061D3
:10394000FFF7A3FF75F44BF010B90220C5F8000291
:10395000FFF786FFC448006800B18047BDE87040AB
:10396000BA48FFF7B4BD38B5044675F41FF1BA483C
:103970002C300460B849012480170860BB4A6106F6
:103980000020C2F8FC11D167009068466EF436F74B
:103990000098806A804773F405F1FFF7BFFE4FF08F
:1039A0003040016821F480710160AA48047038BD7C
:1039B00010B50446FFF770FE2046FFF7D4FFA64877
:1039C000001F016821F4E021016010BD0FB50099CE
:1039D0000298401A20F07040B0F1006F05D90299AA
:1039E0000098401A20F070404042002806DC019AFE
:1039F0000399914202D84FF0FF300AE09C49884277
:103A000000D9084640F271214843039908440199BE
:103A1000401A9849096811F0040F01D0012100E013
:103A20000021002900D0002004B000BD2DE9F041A4
:103A300088B000205FF4C9F0064601205FF4C5F0AD
:103A4000054602205FF4C1F080460027079707A8CB
:103A500075F4AEF005A84DF487F2059820F070409B
:103A6000059085480468B8F1FF3F0ED039460497A9
:103A7000CDF80C800291059801900B46039A0198AD
:103A8000FFF7A4FF844200D30446701C0DD03946D2
:103A9000049703960291059801900B46039A0198AA
:103AA000FFF794FF844200D304466D1C11D0734984
:103AB00008684968C1F51C7103900491DDE90501AE
:103AC000CDE9010101A80FC8FFF780FF844200D3B0
:103AD000044608B02046BDE8F08138B55D4800785E
:103AE000002801D0002038BD00200090684675F401
:103AF0005FF000994868401C72F4FEF7604A009934
:103B00001288098900EB42000C18FFF78FFFA042D2
:103B100001D2002038BD00990989441A600873F465
:103B200011F02146FFF744FF012038BD10B50024F5
:103B300000F0B6FF18B10124FFF792FE07E04648F7
:103B400040380068C0F3C01008B100F0AEFF204656
:103B500010BD10B572F4ECF708B1012010BD3D485E
:103B6000806800B1804700F0FDF818B1FFF7DEFF74
:103B7000012010BD002010BD10B574F430F708B15D
:103B8000002010BD39490220C1F87C01C86701201E
:103B900010BD70B50024EFF31086012080F310886B
:103BA000FFF7D7FD374D28B10224296801B3022061
:103BB00088471DE0FFF7E0FF20B12968C1B1002070
:103BC000884715E0FFF7C5FF28B10124296879B1BE
:103BD000012088470CE0FFF780FF28B10224296804
:103BE00031B10220884703E0296809B100208847E5
:103BF00086F31088204670BD38E200A072776970A5
:103C00005F736C6565705F70617463682E6300003C
:103C10004D43555F5355422D3E424C455F44534CF6
:103C20004545505F434F52525F454E2026204D433D
:103C3000555F5355425F424C455F44534C45455098
:103C40005F434F52525F48575F454E00641F8000EC
:103C5000602480003C48800044C500A000E000A033
:103C600054248000980314006424800084E000E061
:103C70008ADB680000E200E06C248000EC0000B009
:103C8000462480005C2480001A48016841F4803199
:103C900001601A4818494160194981621948016850
:103CA000194A1140194A11430160416841F4F81161
:103CB0004160816821F0FF018160416A21F47F4108
:103CC00041F4905141627047124811490160124914
:103CD0008160124901610B4811497C38016011492A
:103CE0004160704710B572F49FF6FFF7EDFFBDE835
:103CF0001040C9E7801001B002202002002001B06E
:103D000002002202880201B0FFFF00FC0000020254
:103D100050025000800000B05007600001111100F7
:103D20000F000500030001000D49C0B20860081F24
:103D3000016841F0010101607047EFF31081012239
:103D400082F31088064A6FEA0040403A106081F31F
:103D5000108870470248001F0068C0F34000704799
:103D600084C500A008B50E48006800900098800740
:103D700004D00098C00301D4012008BD002008BD74
:103D80000849C0B20860081F016841F001010160E4
:103D900070470448001F0068C0F3400070470000EF
:103DA00038E200A084C500A008B5684608F09CDC95
:103DB00028B99DF80000022803D0012803D0002074
:103DC00008BD022008BD012008BD70B504460D469F
:103DD000FFF7EAFF02280AD0012807D1206820F463
:103DE0007F102060286820F47F10286070BD28486C
:103DF00021680140216029680140296070BD1CB51F
:103E000001900020009001A96846FFF7DEFF0198AD
:103E1000204900F0AA3008601E4818300168C1F33C
:103E200040010029FAD11B4A0A211C3211600168A5
:103E300041F0010101600168C1F340010029FAD19C
:103E40001CBD1CB500210191009001A96846FFF737
:103E5000BCFF10490098091F08601CBD70B50D48D3
:103E600005680024FFF7A0FF022802D0012803D034
:103E700004E0074CE44301E04FF47F14254206D0F0
:103E80002846FFF7BCFF2846BDE87040D9E770BD63
:103E9000FF03C0FF68C500A010B5FEF753FBFEF797
:103EA000A3FB00201D4A1E4952F820301B6841F830
:103EB0002030401C3128F7D31A4800681A4A80B2D3
:103EC0001043C1F8C4001948016821F47F01016062
:103ED00016481038016821F0F861016010BD10B576
:103EE00000200F4A0D4952F8203051F8204023603D
:103EF000401C2528F7D307F4F3F2BDE81040FEF785
:103F0000CEBB10B52520064A044952F8203051F89E
:103F100020402360401C3228F7D310BD6848800041
:103F2000E80E81000CED00E00000FA0550C500A08D
:103F300000F096BA2DE9F04F87B08E4850F804BCD7
:103F4000016806914117C167C0F88010BFF34F8F19
:103F5000BFF36F8F884E346801254FF03040D0F8A2
:103F6000E000C0F3094085490988084487B204A8E5
:103F70004CF4FAF782480078012800D1F027DFF8E6
:103F8000F8A16FF07849DFF8FC810AF1180AC7E060
:103F900060680499411A21F0704140F27122514346
:103FA000A368059A1944891A72692AB15268121ACB
:103FB00022F070424A457CD3049A121A22F07042D1
:103FC0004A4505D2049A824273D10598834270D93A
:103FD000B9427FD96C4840F271220078401C10FB36
:103FE00002F06A4A12881044814272D274616248B7
:103FF00005F45DF00446E069002869D0DDE90401BC
:10400000CDE902016248006800B18047E1692046BD
:1040100088476048006800B1804768464CF4A4F7C0
:1040200002990098401A40F27121484301990844CE
:104030000399401A80B2584A1188814200D801463B
:104040001180564A1188814200D20846108000999A
:104050006068091A21F07041494506D200998142F1
:1040600019D1A168019A914215D90099401A40F2DC
:1040700071214843218908440199401A80B2484A75
:104080001188884200D901461180464A1188884229
:1040900000D308461080D8F8000070B1207E4DF49F
:1040A00093F250B1617E207E4EF498F30146207E5B
:1040B00000E00FE0D8F8002090473B480078012846
:1040C00024D13A4802783A48016862F3D741016046
:1040D0001CE028E037480078A84204D2C72236A165
:1040E00039A0FFF727DD244804F4E1F70446207ED9
:1040F000012807D1607EFEF71BF818B1607EFEF73D
:1041000022F803E02146504604F4F6F734686D1CAB
:10411000EDB202A84CF428F7DDE90201CDE9040173
:10412000002C7FF435AF4DF43BF6DAF8000010B107
:10413000002010B103E00120FBE74CF407F70D4825
:10414000001FC0F800B00699416007B0BDE8F08FCD
:10415000817D7F227F2900D9114681750849097820
:10416000012905D140F271210161224A002111800B
:104170004DF480B404E100E0B4198000B40680007E
:10418000AE448000CC068000D2038000B0068000E0
:10419000C0068000C4068000B6068000B806800015
:1041A000BA068000BC06800052468000534680005C
:1041B00010C500A0AC0680007363685F6172625F27
:1041C00070617463682E6300675F7363685F617218
:1041D000625F7069636B5F6C696D6974203E3D203E
:1041E0007363685F6172625F7069636B5F636E7453
:1041F00000000000AE06800070B54FF03045EC695D
:10420000600603D5402028624CF460F7A00603D571
:10421000202028624CF428F7E00707D0012028620C
:104220004BF43AF2C00701D04DF45CF0200406D5FF
:10423000686A4FF400412962384909688847A00735
:1042400007D5022028624BF427F2C00701D04CF4B6
:10425000CDF7E00603D5102028624CF4B5F66007D0
:1042600003D5042028624CF4D3F1200705D508209B
:104270002862BDE870404CF461B670BD2DE9F04194
:10428000274F4FF030461BE0200603D58020706199
:1042900042F45AF10DB1FFF7AFFFE00310D5306ED5
:1042A0007968084204D0306EC6231EA2FFF758DC9E
:1042B0004FF48030706107F0C5DA3888401C3880D0
:1042C0003469F56954EA0500DED1BDE8F08110B526
:1042D0001848FFF7D3F81848006800B180474FF03E
:1042E0003040C069400604D51448016841F00C0113
:1042F000016068F415F60446FFF7C0FF204668F435
:10430000D9F50F48006800B180470E4902200860C7
:10431000BDE810400748FFF7DAB800000C0780003E
:10432000304980007277626C655F70617463682EDB
:1043300063000000641F800064238000842001B0BB
:104340006823800000E200E010B50268136843F0C3
:104350000103136000BF00BF00BF00BF00BF00BF6C
:1043600000BF00BF00BFD2F80C3C23F00103C2F82D
:104370000C3CD2F8103C03F00103002BF9D10129C9
:1043800006D00021C2F870148068012804D05AE0D9
:104390000121C2F87014F7E7FB490868C0F34053E5
:1043A000086820F400100860106800F4F0641068D9
:1043B00020F4F0601060106840F008001060106891
:1043C00040F00200106000BF00BF00BF00BF00BF90
:1043D00000BF00BF00BF00BF00BF00BF00BF00BFE5
:1043E00000BF00BF00BF00BF00BF00BF00BF00BFD5
:1043F00000BF00BF00BF00BF00BF00BF00BF10690B
:1044000000F001000028FAD1106820F008001060C8
:10441000106820F002001060106820F001001060A9
:1044200000BF00BF00BF00BF00BF00BF00BF00BF94
:1044300000BF106820F4F060204310601BB10868D2
:1044400040F400100860D2F80C0C40F00100C2F8F3
:104450000C0CD2F8100C00F001000028F9D010BDAF
:10446000F0B589B004460025002C0BD094F830003C
:1044700001280AD0012784F8307094F83100002612
:1044800028B10EE0012009B0F0BD0220FBE784F85E
:10449000306020461AF45AF34FF47A7120461AF429
:1044A000ADF32068D0F8100C00F0010030B9002204
:1044B00001212046A36B54F4BDF70546D5B96068C9
:1044C0000190A0680290E068039020690890207D28
:1044D000C0F340000690207D00F0010007901020FE
:1044E00004900420059001A9206800F079F90128C2
:1044F00004D0012584F830602846C4E760680128AC
:1045000006D12068D0F83C1441F00101C0F83C14F9
:10451000666384F83170EDE72DE9F74F04460068D3
:104520000D4600F2044800F5806700F21446D0F80A
:1045300070B4301F016821F008010160206801217A
:10454000C0F87014A06A4FF0FF3A102847D9A06A4B
:10455000702100F00309206800F0EDF8A06A8008DF
:1045600021E0E06A102801D9102200E0E26A5146F9
:10457000104600E03960401EFCD211460FE0306862
:104580008006FCD4D8F80000030E05F8013B030CAC
:1045900005F8013B030A05F8023B05F8010C491E2A
:1045A000EDD2E06A801AE062E06A0028D9D1B9F160
:1045B000000F0FD0C7F800A030688006FCD4D8F8F0
:1045C0000010002004E00A0E2A540902401CC0B268
:1045D0004845F8D31021206800F0ADF812E0E06AF9
:1045E000514600E03960401EFCD2E06A06E03168C6
:1045F0008906FCD498F8001005F8011B401EF6D27D
:104600000020E0622168C1F870B4029B03B020462C
:10461000BDE8F04F0022012154F40CB72DE9F0471A
:1046200004460D469046994694F8300001280CD077
:10463000012684F8306094F831000027012806D064
:10464000022084F83070BDE8F0870220FBE7676342
:10465000022084F831004B4600220121204654F408
:10466000E9F6F8B9222084F83100C4F82480E8691A
:10467000A062E869E0622068D0F8181441F00101F6
:10468000C0F818142946204654F41FF64A464146FD
:104690002046FFF741FF2168D1F8182422F00102DB
:1046A000C1F8182484F83160CBE72DE9F0470446BF
:1046B0000D469046994694F8300001280BD001260B
:1046C00084F8306094F831000027012805D00220DA
:1046D00084F83070B7E70220B5E76763022084F8FA
:1046E00031004B4600220121204654F4A3F6F8B9CC
:1046F000222084F83100C4F82480E869A062E869C7
:10470000E0622068D0F8181441F00101C0F81814D4
:104710002946204654F4D9F54A464146204600F041
:1047200012F82168D1F8182422F00102C1F81824E7
:1047300084F83160CCE7D0F8102422F070020A43EC
:10474000C0F8102470472DE9F047044600689246EF
:1047500000F2044800F5806700F21446D0F8709427
:104760000D46301F016821F0080101602168012019
:10477000C1F8700470212068FFF7DDFFA06A80088F
:10478000E0624FF0FF3319E004C500A0E06A102892
:1047900001D9102200E0E26A104600E03B60401EB2
:1047A000FCD2114605E030688006FCD4D8F8000041
:1047B00001C5491EF7D2E06A801AE062E06A00286B
:1047C000E4D110212068FFF7B6FF2168C1F870948A
:1047D00053462046BDE8F0470022012154F42AB692
:1047E00070B504460D46A84E2868012852D004F53D
:1047F0008264E06A20F00100E062A868D4F8F01753
:1048000021F0FF010143C4F8F017D4F8F40720F0B9
:104810000100C4F8F407D4F8F40720F01E0040F0BB
:104820000200C4F8F407A869D4F8F41721F02001B5
:1048300041EA4010C4F8F4076869D4F8F41721F08D
:10484000400141EA8010C4F8F407D4F8F40740F4BA
:104850008070C4F8F407D4F8F80720F0FF0040F0A7
:104860003300C4F8F807206840F070002060002092
:10487000E064206840F008002060A4F58264A86825
:104880006B2864D057DC03285AD00B285FD03B2814
:104890006ED15CE0D4F8100C00F0010070B120463D
:1048A00000F0E4F8D4F80C0C20F00100C4F80C0C73
:1048B000D4F8100C00F001000028F9D104F20C44E7
:1048C000206820F4404040F480402060206820F4BC
:1048D000405020606869216821F0100141EA001011
:1048E0002060A869216821F0080141EAC000206029
:1048F0002869216821F0040101432160206840F00B
:1049000001002060606840F080006060E8686168D5
:1049100021F070010143616001202065606840F072
:1049200008006060606840F003006060606920F02B
:10493000FF00606194E0BB2802D0EB2818D10FE0A3
:10494000D4F8080C20F47060C4F8080C10E0D4F817
:10495000080C20F4706040F48070C4F8080C07E084
:10496000D4F8080C20F4706040F40070C4F8080C0F
:10497000204600F07BF86868012865D13068C0F3F4
:104980004052306820F400103060206800F4F0637A
:10499000206820F4F0602060206840F0080020606B
:1049A000206840F010002060606820F00F00606018
:1049B000606840F0100060603448017819B92068E0
:1049C00040F00200206000BF00BF00BF00BF00BF7A
:1049D00000BF00BF00BF00BF00BF00BF00BF00BFDF
:1049E00000BF00BF00BF00BF00BF00BF00BF00BFCF
:1049F00000BF00BF00BF00BF00BF00BF00BF2069F5
:104A000000F001000028FAD1206820F008002060A2
:104A100019B9206820F002002060206820F0010011
:104A2000206000BF00BF00BF00BF00BF00BF00BFCD
:104A300000BF00BF206820F4F060184320601AB166
:104A4000306840F400103060D4F80C0C40F00100E5
:104A5000C4F80C0CD4F8100C00F001000028F9D0B8
:104A6000306840F020003060012070BD016841F0E6
:104A70000101016000BF00BF00BF00BF00BF00BF59
:104A800000BF00BF00BF704704C500A0F444800011
:104A9000FFF7509804F49CB703F4EAB7FCF7A69E1E
:104AA00043F2CD5CC3F2000C604743F21D6CC3F2CD
:044AB000000C60474F
:040000050100404175
:00000001FF
